{
	"contracts/fortknox-rentrancy/goldVault.sol": {
		"GoldVault": {
			"abi": [
				{
					"inputs": [],
					"stateMutability": "nonpayable",
					"type": "constructor"
				},
				{
					"inputs": [],
					"name": "deposit",
					"outputs": [],
					"stateMutability": "payable",
					"type": "function"
				},
				{
					"inputs": [
						{
							"internalType": "address",
							"name": "",
							"type": "address"
						}
					],
					"name": "goldBalance",
					"outputs": [
						{
							"internalType": "uint256",
							"name": "",
							"type": "uint256"
						}
					],
					"stateMutability": "view",
					"type": "function"
				},
				{
					"inputs": [],
					"name": "safeWithdraw",
					"outputs": [],
					"stateMutability": "nonpayable",
					"type": "function"
				},
				{
					"inputs": [],
					"name": "vulnerableWithdraw",
					"outputs": [],
					"stateMutability": "payable",
					"type": "function"
				}
			],
			"devdoc": {
				"kind": "dev",
				"methods": {},
				"version": 1
			},
			"evm": {
				"assembly": "    /* \"contracts/fortknox-rentrancy/goldVault.sol\":65:1332  contract GoldVault{... */\n  mstore(0x40, 0x80)\n    /* \"contracts/fortknox-rentrancy/goldVault.sol\":176:177  1 */\n  0x01\n    /* \"contracts/fortknox-rentrancy/goldVault.sol\":145:177  uint256 private _NOT_ENTERED = 1 */\n  dup1\n  sstore\n    /* \"contracts/fortknox-rentrancy/goldVault.sol\":211:212  2 */\n  0x02\n    /* \"contracts/fortknox-rentrancy/goldVault.sol\":184:212  uint256 private _ENTERED = 2 */\n  dup1\n  sstore\n    /* \"contracts/fortknox-rentrancy/goldVault.sol\":275:329  constructor(){... */\n  callvalue\n  dup1\n  iszero\n  tag_1\n  jumpi\n  0x00\n  dup1\n  revert\ntag_1:\n  pop\n    /* \"contracts/fortknox-rentrancy/goldVault.sol\":309:321  _NOT_ENTERED */\n  sload(0x01)\n    /* \"contracts/fortknox-rentrancy/goldVault.sol\":299:306  _status */\n  0x00\n    /* \"contracts/fortknox-rentrancy/goldVault.sol\":299:321  _status = _NOT_ENTERED */\n  dup2\n  swap1\n  sstore\n  pop\n    /* \"contracts/fortknox-rentrancy/goldVault.sol\":65:1332  contract GoldVault{... */\n  dataSize(sub_0)\n  dup1\n  dataOffset(sub_0)\n  0x00\n  codecopy\n  0x00\n  return\nstop\n\nsub_0: assembly {\n        /* \"contracts/fortknox-rentrancy/goldVault.sol\":65:1332  contract GoldVault{... */\n      mstore(0x40, 0x80)\n      jumpi(tag_1, lt(calldatasize, 0x04))\n      shr(0xe0, calldataload(0x00))\n      dup1\n      0x6d02423f\n      eq\n      tag_2\n      jumpi\n      dup1\n      0x710957cc\n      eq\n      tag_3\n      jumpi\n      dup1\n      0x7fd42617\n      eq\n      tag_4\n      jumpi\n      dup1\n      0xd0e30db0\n      eq\n      tag_5\n      jumpi\n    tag_1:\n      0x00\n      dup1\n      revert\n        /* \"contracts/fortknox-rentrancy/goldVault.sol\":221:266  mapping(address => uint256)public goldBalance */\n    tag_2:\n      callvalue\n      dup1\n      iszero\n      tag_6\n      jumpi\n      0x00\n      dup1\n      revert\n    tag_6:\n      pop\n      tag_7\n      0x04\n      dup1\n      calldatasize\n      sub\n      dup2\n      add\n      swap1\n      tag_8\n      swap2\n      swap1\n      tag_9\n      jump\t// in\n    tag_8:\n      tag_10\n      jump\t// in\n    tag_7:\n      mload(0x40)\n      tag_11\n      swap2\n      swap1\n      tag_12\n      jump\t// in\n    tag_11:\n      mload(0x40)\n      dup1\n      swap2\n      sub\n      swap1\n      return\n        /* \"contracts/fortknox-rentrancy/goldVault.sol\":675:990  function vulnerableWithdraw() payable external  {... */\n    tag_3:\n      tag_13\n      tag_14\n      jump\t// in\n    tag_13:\n      stop\n        /* \"contracts/fortknox-rentrancy/goldVault.sol\":1002:1325  function safeWithdraw() external nonReentrant{... */\n    tag_4:\n      callvalue\n      dup1\n      iszero\n      tag_15\n      jumpi\n      0x00\n      dup1\n      revert\n    tag_15:\n      pop\n      tag_16\n      tag_17\n      jump\t// in\n    tag_16:\n      stop\n        /* \"contracts/fortknox-rentrancy/goldVault.sol\":510:667  function deposit() external  payable {... */\n    tag_5:\n      tag_18\n      tag_19\n      jump\t// in\n    tag_18:\n      stop\n        /* \"contracts/fortknox-rentrancy/goldVault.sol\":221:266  mapping(address => uint256)public goldBalance */\n    tag_10:\n      mstore(0x20, 0x03)\n      dup1\n      0x00\n      mstore\n      keccak256(0x00, 0x40)\n      0x00\n      swap2\n      pop\n      swap1\n      pop\n      sload\n      dup2\n      jump\t// out\n        /* \"contracts/fortknox-rentrancy/goldVault.sol\":675:990  function vulnerableWithdraw() payable external  {... */\n    tag_14:\n        /* \"contracts/fortknox-rentrancy/goldVault.sol\":734:748  uint256 amount */\n      0x00\n        /* \"contracts/fortknox-rentrancy/goldVault.sol\":751:762  goldBalance */\n      0x03\n        /* \"contracts/fortknox-rentrancy/goldVault.sol\":751:774  goldBalance[msg.sender] */\n      0x00\n        /* \"contracts/fortknox-rentrancy/goldVault.sol\":763:773  msg.sender */\n      caller\n        /* \"contracts/fortknox-rentrancy/goldVault.sol\":751:774  goldBalance[msg.sender] */\n      0xffffffffffffffffffffffffffffffffffffffff\n      and\n      0xffffffffffffffffffffffffffffffffffffffff\n      and\n      dup2\n      mstore\n      0x20\n      add\n      swap1\n      dup2\n      mstore\n      0x20\n      add\n      0x00\n      keccak256\n      sload\n        /* \"contracts/fortknox-rentrancy/goldVault.sol\":734:774  uint256 amount = goldBalance[msg.sender] */\n      swap1\n      pop\n        /* \"contracts/fortknox-rentrancy/goldVault.sol\":802:803  0 */\n      0x00\n        /* \"contracts/fortknox-rentrancy/goldVault.sol\":793:799  amount */\n      dup2\n        /* \"contracts/fortknox-rentrancy/goldVault.sol\":793:803  amount > 0 */\n      gt\n        /* \"contracts/fortknox-rentrancy/goldVault.sol\":785:827  require(amount > 0,\"No money to withdraw\") */\n      tag_21\n      jumpi\n      mload(0x40)\n      0x08c379a000000000000000000000000000000000000000000000000000000000\n      dup2\n      mstore\n      0x04\n      add\n      tag_22\n      swap1\n      tag_23\n      jump\t// in\n    tag_22:\n      mload(0x40)\n      dup1\n      swap2\n      sub\n      swap1\n      revert\n    tag_21:\n        /* \"contracts/fortknox-rentrancy/goldVault.sol\":839:851  bool success */\n      0x00\n        /* \"contracts/fortknox-rentrancy/goldVault.sol\":856:866  msg.sender */\n      caller\n        /* \"contracts/fortknox-rentrancy/goldVault.sol\":856:871  msg.sender.call */\n      0xffffffffffffffffffffffffffffffffffffffff\n      and\n        /* \"contracts/fortknox-rentrancy/goldVault.sol\":879:885  amount */\n      dup3\n        /* \"contracts/fortknox-rentrancy/goldVault.sol\":856:890  msg.sender.call{value: amount}(\"\") */\n      mload(0x40)\n      tag_24\n      swap1\n      tag_25\n      jump\t// in\n    tag_24:\n      0x00\n      mload(0x40)\n      dup1\n      dup4\n      sub\n      dup2\n      dup6\n      dup8\n      gas\n      call\n      swap3\n      pop\n      pop\n      pop\n      returndatasize\n      dup1\n      0x00\n      dup2\n      eq\n      tag_28\n      jumpi\n      mload(0x40)\n      swap2\n      pop\n      and(add(returndatasize, 0x3f), not(0x1f))\n      dup3\n      add\n      0x40\n      mstore\n      returndatasize\n      dup3\n      mstore\n      returndatasize\n      0x00\n      0x20\n      dup5\n      add\n      returndatacopy\n      jump(tag_27)\n    tag_28:\n      0x60\n      swap2\n      pop\n    tag_27:\n      pop\n        /* \"contracts/fortknox-rentrancy/goldVault.sol\":838:890  (bool success,) = msg.sender.call{value: amount}(\"\") */\n      pop\n      swap1\n      pop\n        /* \"contracts/fortknox-rentrancy/goldVault.sol\":909:916  success */\n      dup1\n        /* \"contracts/fortknox-rentrancy/goldVault.sol\":901:940  require(success, \"ETH Transfer failed\") */\n      tag_29\n      jumpi\n      mload(0x40)\n      0x08c379a000000000000000000000000000000000000000000000000000000000\n      dup2\n      mstore\n      0x04\n      add\n      tag_30\n      swap1\n      tag_31\n      jump\t// in\n    tag_30:\n      mload(0x40)\n      dup1\n      swap2\n      sub\n      swap1\n      revert\n    tag_29:\n        /* \"contracts/fortknox-rentrancy/goldVault.sol\":977:978  0 */\n      0x00\n        /* \"contracts/fortknox-rentrancy/goldVault.sol\":951:962  goldBalance */\n      0x03\n        /* \"contracts/fortknox-rentrancy/goldVault.sol\":951:974  goldBalance[msg.sender] */\n      0x00\n        /* \"contracts/fortknox-rentrancy/goldVault.sol\":963:973  msg.sender */\n      caller\n        /* \"contracts/fortknox-rentrancy/goldVault.sol\":951:974  goldBalance[msg.sender] */\n      0xffffffffffffffffffffffffffffffffffffffff\n      and\n      0xffffffffffffffffffffffffffffffffffffffff\n      and\n      dup2\n      mstore\n      0x20\n      add\n      swap1\n      dup2\n      mstore\n      0x20\n      add\n      0x00\n      keccak256\n        /* \"contracts/fortknox-rentrancy/goldVault.sol\":951:978  goldBalance[msg.sender] = 0 */\n      dup2\n      swap1\n      sstore\n      pop\n        /* \"contracts/fortknox-rentrancy/goldVault.sol\":723:990  {... */\n      pop\n      pop\n        /* \"contracts/fortknox-rentrancy/goldVault.sol\":675:990  function vulnerableWithdraw() payable external  {... */\n      jump\t// out\n        /* \"contracts/fortknox-rentrancy/goldVault.sol\":1002:1325  function safeWithdraw() external nonReentrant{... */\n    tag_17:\n        /* \"contracts/fortknox-rentrancy/goldVault.sol\":390:398  _ENTERED */\n      sload(0x02)\n        /* \"contracts/fortknox-rentrancy/goldVault.sol\":379:386  _status */\n      sload(0x00)\n        /* \"contracts/fortknox-rentrancy/goldVault.sol\":379:398  _status != _ENTERED */\n      sub\n        /* \"contracts/fortknox-rentrancy/goldVault.sol\":371:420  require(_status != _ENTERED,\"Entrance resticted\") */\n      tag_33\n      jumpi\n      mload(0x40)\n      0x08c379a000000000000000000000000000000000000000000000000000000000\n      dup2\n      mstore\n      0x04\n      add\n      tag_34\n      swap1\n      tag_35\n      jump\t// in\n    tag_34:\n      mload(0x40)\n      dup1\n      swap2\n      sub\n      swap1\n      revert\n    tag_33:\n        /* \"contracts/fortknox-rentrancy/goldVault.sol\":441:449  _ENTERED */\n      sload(0x02)\n        /* \"contracts/fortknox-rentrancy/goldVault.sol\":431:438  _status */\n      0x00\n        /* \"contracts/fortknox-rentrancy/goldVault.sol\":431:449  _status = _ENTERED */\n      dup2\n      swap1\n      sstore\n      pop\n        /* \"contracts/fortknox-rentrancy/goldVault.sol\":1059:1073  uint256 amount */\n      0x00\n        /* \"contracts/fortknox-rentrancy/goldVault.sol\":1076:1087  goldBalance */\n      0x03\n        /* \"contracts/fortknox-rentrancy/goldVault.sol\":1076:1099  goldBalance[msg.sender] */\n      0x00\n        /* \"contracts/fortknox-rentrancy/goldVault.sol\":1088:1098  msg.sender */\n      caller\n        /* \"contracts/fortknox-rentrancy/goldVault.sol\":1076:1099  goldBalance[msg.sender] */\n      0xffffffffffffffffffffffffffffffffffffffff\n      and\n      0xffffffffffffffffffffffffffffffffffffffff\n      and\n      dup2\n      mstore\n      0x20\n      add\n      swap1\n      dup2\n      mstore\n      0x20\n      add\n      0x00\n      keccak256\n      sload\n        /* \"contracts/fortknox-rentrancy/goldVault.sol\":1059:1099  uint256 amount = goldBalance[msg.sender] */\n      swap1\n      pop\n        /* \"contracts/fortknox-rentrancy/goldVault.sol\":1127:1128  0 */\n      0x00\n        /* \"contracts/fortknox-rentrancy/goldVault.sol\":1118:1124  amount */\n      dup2\n        /* \"contracts/fortknox-rentrancy/goldVault.sol\":1118:1128  amount > 0 */\n      gt\n        /* \"contracts/fortknox-rentrancy/goldVault.sol\":1110:1152  require(amount > 0,\"No money to withdraw\") */\n      tag_37\n      jumpi\n      mload(0x40)\n      0x08c379a000000000000000000000000000000000000000000000000000000000\n      dup2\n      mstore\n      0x04\n      add\n      tag_38\n      swap1\n      tag_23\n      jump\t// in\n    tag_38:\n      mload(0x40)\n      dup1\n      swap2\n      sub\n      swap1\n      revert\n    tag_37:\n        /* \"contracts/fortknox-rentrancy/goldVault.sol\":1199:1200  0 */\n      0x00\n        /* \"contracts/fortknox-rentrancy/goldVault.sol\":1173:1184  goldBalance */\n      0x03\n        /* \"contracts/fortknox-rentrancy/goldVault.sol\":1173:1196  goldBalance[msg.sender] */\n      0x00\n        /* \"contracts/fortknox-rentrancy/goldVault.sol\":1185:1195  msg.sender */\n      caller\n        /* \"contracts/fortknox-rentrancy/goldVault.sol\":1173:1196  goldBalance[msg.sender] */\n      0xffffffffffffffffffffffffffffffffffffffff\n      and\n      0xffffffffffffffffffffffffffffffffffffffff\n      and\n      dup2\n      mstore\n      0x20\n      add\n      swap1\n      dup2\n      mstore\n      0x20\n      add\n      0x00\n      keccak256\n        /* \"contracts/fortknox-rentrancy/goldVault.sol\":1173:1200  goldBalance[msg.sender] = 0 */\n      dup2\n      swap1\n      sstore\n      pop\n        /* \"contracts/fortknox-rentrancy/goldVault.sol\":1212:1224  bool success */\n      0x00\n        /* \"contracts/fortknox-rentrancy/goldVault.sol\":1229:1239  msg.sender */\n      caller\n        /* \"contracts/fortknox-rentrancy/goldVault.sol\":1229:1244  msg.sender.call */\n      0xffffffffffffffffffffffffffffffffffffffff\n      and\n        /* \"contracts/fortknox-rentrancy/goldVault.sol\":1252:1258  amount */\n      dup3\n        /* \"contracts/fortknox-rentrancy/goldVault.sol\":1229:1263  msg.sender.call{value: amount}(\"\") */\n      mload(0x40)\n      tag_39\n      swap1\n      tag_25\n      jump\t// in\n    tag_39:\n      0x00\n      mload(0x40)\n      dup1\n      dup4\n      sub\n      dup2\n      dup6\n      dup8\n      gas\n      call\n      swap3\n      pop\n      pop\n      pop\n      returndatasize\n      dup1\n      0x00\n      dup2\n      eq\n      tag_42\n      jumpi\n      mload(0x40)\n      swap2\n      pop\n      and(add(returndatasize, 0x3f), not(0x1f))\n      dup3\n      add\n      0x40\n      mstore\n      returndatasize\n      dup3\n      mstore\n      returndatasize\n      0x00\n      0x20\n      dup5\n      add\n      returndatacopy\n      jump(tag_41)\n    tag_42:\n      0x60\n      swap2\n      pop\n    tag_41:\n      pop\n        /* \"contracts/fortknox-rentrancy/goldVault.sol\":1211:1263  (bool success,) = msg.sender.call{value: amount}(\"\") */\n      pop\n      swap1\n      pop\n        /* \"contracts/fortknox-rentrancy/goldVault.sol\":1282:1289  success */\n      dup1\n        /* \"contracts/fortknox-rentrancy/goldVault.sol\":1274:1313  require(success, \"ETH Transfer failed\") */\n      tag_43\n      jumpi\n      mload(0x40)\n      0x08c379a000000000000000000000000000000000000000000000000000000000\n      dup2\n      mstore\n      0x04\n      add\n      tag_44\n      swap1\n      tag_31\n      jump\t// in\n    tag_44:\n      mload(0x40)\n      dup1\n      swap2\n      sub\n      swap1\n      revert\n    tag_43:\n        /* \"contracts/fortknox-rentrancy/goldVault.sol\":1047:1325  {... */\n      pop\n      pop\n        /* \"contracts/fortknox-rentrancy/goldVault.sol\":482:494  _NOT_ENTERED */\n      sload(0x01)\n        /* \"contracts/fortknox-rentrancy/goldVault.sol\":472:479  _status */\n      0x00\n        /* \"contracts/fortknox-rentrancy/goldVault.sol\":472:494  _status = _NOT_ENTERED */\n      dup2\n      swap1\n      sstore\n      pop\n        /* \"contracts/fortknox-rentrancy/goldVault.sol\":1002:1325  function safeWithdraw() external nonReentrant{... */\n      jump\t// out\n        /* \"contracts/fortknox-rentrancy/goldVault.sol\":510:667  function deposit() external  payable {... */\n    tag_19:\n        /* \"contracts/fortknox-rentrancy/goldVault.sol\":577:578  0 */\n      0x00\n        /* \"contracts/fortknox-rentrancy/goldVault.sol\":566:575  msg.value */\n      callvalue\n        /* \"contracts/fortknox-rentrancy/goldVault.sol\":566:578  msg.value >0 */\n      gt\n        /* \"contracts/fortknox-rentrancy/goldVault.sol\":558:612  require(msg.value >0, \"Deposit has to be more than 0\") */\n      tag_46\n      jumpi\n      mload(0x40)\n      0x08c379a000000000000000000000000000000000000000000000000000000000\n      dup2\n      mstore\n      0x04\n      add\n      tag_47\n      swap1\n      tag_48\n      jump\t// in\n    tag_47:\n      mload(0x40)\n      dup1\n      swap2\n      sub\n      swap1\n      revert\n    tag_46:\n        /* \"contracts/fortknox-rentrancy/goldVault.sol\":650:659  msg.value */\n      callvalue\n        /* \"contracts/fortknox-rentrancy/goldVault.sol\":623:634  goldBalance */\n      0x03\n        /* \"contracts/fortknox-rentrancy/goldVault.sol\":623:646  goldBalance[msg.sender] */\n      0x00\n        /* \"contracts/fortknox-rentrancy/goldVault.sol\":635:645  msg.sender */\n      caller\n        /* \"contracts/fortknox-rentrancy/goldVault.sol\":623:646  goldBalance[msg.sender] */\n      0xffffffffffffffffffffffffffffffffffffffff\n      and\n      0xffffffffffffffffffffffffffffffffffffffff\n      and\n      dup2\n      mstore\n      0x20\n      add\n      swap1\n      dup2\n      mstore\n      0x20\n      add\n      0x00\n      keccak256\n      0x00\n        /* \"contracts/fortknox-rentrancy/goldVault.sol\":623:659  goldBalance[msg.sender] += msg.value */\n      dup3\n      dup3\n      sload\n      tag_49\n      swap2\n      swap1\n      tag_50\n      jump\t// in\n    tag_49:\n      swap3\n      pop\n      pop\n      dup2\n      swap1\n      sstore\n      pop\n        /* \"contracts/fortknox-rentrancy/goldVault.sol\":510:667  function deposit() external  payable {... */\n      jump\t// out\n        /* \"#utility.yul\":88:205   */\n    tag_52:\n        /* \"#utility.yul\":197:198   */\n      0x00\n        /* \"#utility.yul\":194:195   */\n      dup1\n        /* \"#utility.yul\":187:199   */\n      revert\n        /* \"#utility.yul\":334:460   */\n    tag_54:\n        /* \"#utility.yul\":371:378   */\n      0x00\n        /* \"#utility.yul\":411:453   */\n      0xffffffffffffffffffffffffffffffffffffffff\n        /* \"#utility.yul\":404:409   */\n      dup3\n        /* \"#utility.yul\":400:454   */\n      and\n        /* \"#utility.yul\":389:454   */\n      swap1\n      pop\n        /* \"#utility.yul\":334:460   */\n      swap2\n      swap1\n      pop\n      jump\t// out\n        /* \"#utility.yul\":466:562   */\n    tag_55:\n        /* \"#utility.yul\":503:510   */\n      0x00\n        /* \"#utility.yul\":532:556   */\n      tag_79\n        /* \"#utility.yul\":550:555   */\n      dup3\n        /* \"#utility.yul\":532:556   */\n      tag_54\n      jump\t// in\n    tag_79:\n        /* \"#utility.yul\":521:556   */\n      swap1\n      pop\n        /* \"#utility.yul\":466:562   */\n      swap2\n      swap1\n      pop\n      jump\t// out\n        /* \"#utility.yul\":568:690   */\n    tag_56:\n        /* \"#utility.yul\":641:665   */\n      tag_81\n        /* \"#utility.yul\":659:664   */\n      dup2\n        /* \"#utility.yul\":641:665   */\n      tag_55\n      jump\t// in\n    tag_81:\n        /* \"#utility.yul\":634:639   */\n      dup2\n        /* \"#utility.yul\":631:666   */\n      eq\n        /* \"#utility.yul\":621:684   */\n      tag_82\n      jumpi\n        /* \"#utility.yul\":680:681   */\n      0x00\n        /* \"#utility.yul\":677:678   */\n      dup1\n        /* \"#utility.yul\":670:682   */\n      revert\n        /* \"#utility.yul\":621:684   */\n    tag_82:\n        /* \"#utility.yul\":568:690   */\n      pop\n      jump\t// out\n        /* \"#utility.yul\":696:835   */\n    tag_57:\n        /* \"#utility.yul\":742:747   */\n      0x00\n        /* \"#utility.yul\":780:786   */\n      dup2\n        /* \"#utility.yul\":767:787   */\n      calldataload\n        /* \"#utility.yul\":758:787   */\n      swap1\n      pop\n        /* \"#utility.yul\":796:829   */\n      tag_84\n        /* \"#utility.yul\":823:828   */\n      dup2\n        /* \"#utility.yul\":796:829   */\n      tag_56\n      jump\t// in\n    tag_84:\n        /* \"#utility.yul\":696:835   */\n      swap3\n      swap2\n      pop\n      pop\n      jump\t// out\n        /* \"#utility.yul\":841:1170   */\n    tag_9:\n        /* \"#utility.yul\":900:906   */\n      0x00\n        /* \"#utility.yul\":949:951   */\n      0x20\n        /* \"#utility.yul\":937:946   */\n      dup3\n        /* \"#utility.yul\":928:935   */\n      dup5\n        /* \"#utility.yul\":924:947   */\n      sub\n        /* \"#utility.yul\":920:952   */\n      slt\n        /* \"#utility.yul\":917:1036   */\n      iszero\n      tag_86\n      jumpi\n        /* \"#utility.yul\":955:1034   */\n      tag_87\n      tag_52\n      jump\t// in\n    tag_87:\n        /* \"#utility.yul\":917:1036   */\n    tag_86:\n        /* \"#utility.yul\":1075:1076   */\n      0x00\n        /* \"#utility.yul\":1100:1153   */\n      tag_88\n        /* \"#utility.yul\":1145:1152   */\n      dup5\n        /* \"#utility.yul\":1136:1142   */\n      dup3\n        /* \"#utility.yul\":1125:1134   */\n      dup6\n        /* \"#utility.yul\":1121:1143   */\n      add\n        /* \"#utility.yul\":1100:1153   */\n      tag_57\n      jump\t// in\n    tag_88:\n        /* \"#utility.yul\":1090:1153   */\n      swap2\n      pop\n        /* \"#utility.yul\":1046:1163   */\n      pop\n        /* \"#utility.yul\":841:1170   */\n      swap3\n      swap2\n      pop\n      pop\n      jump\t// out\n        /* \"#utility.yul\":1176:1253   */\n    tag_58:\n        /* \"#utility.yul\":1213:1220   */\n      0x00\n        /* \"#utility.yul\":1242:1247   */\n      dup2\n        /* \"#utility.yul\":1231:1247   */\n      swap1\n      pop\n        /* \"#utility.yul\":1176:1253   */\n      swap2\n      swap1\n      pop\n      jump\t// out\n        /* \"#utility.yul\":1259:1377   */\n    tag_59:\n        /* \"#utility.yul\":1346:1370   */\n      tag_91\n        /* \"#utility.yul\":1364:1369   */\n      dup2\n        /* \"#utility.yul\":1346:1370   */\n      tag_58\n      jump\t// in\n    tag_91:\n        /* \"#utility.yul\":1341:1344   */\n      dup3\n        /* \"#utility.yul\":1334:1371   */\n      mstore\n        /* \"#utility.yul\":1259:1377   */\n      pop\n      pop\n      jump\t// out\n        /* \"#utility.yul\":1383:1605   */\n    tag_12:\n        /* \"#utility.yul\":1476:1480   */\n      0x00\n        /* \"#utility.yul\":1514:1516   */\n      0x20\n        /* \"#utility.yul\":1503:1512   */\n      dup3\n        /* \"#utility.yul\":1499:1517   */\n      add\n        /* \"#utility.yul\":1491:1517   */\n      swap1\n      pop\n        /* \"#utility.yul\":1527:1598   */\n      tag_93\n        /* \"#utility.yul\":1595:1596   */\n      0x00\n        /* \"#utility.yul\":1584:1593   */\n      dup4\n        /* \"#utility.yul\":1580:1597   */\n      add\n        /* \"#utility.yul\":1571:1577   */\n      dup5\n        /* \"#utility.yul\":1527:1598   */\n      tag_59\n      jump\t// in\n    tag_93:\n        /* \"#utility.yul\":1383:1605   */\n      swap3\n      swap2\n      pop\n      pop\n      jump\t// out\n        /* \"#utility.yul\":1611:1780   */\n    tag_60:\n        /* \"#utility.yul\":1695:1706   */\n      0x00\n        /* \"#utility.yul\":1729:1735   */\n      dup3\n        /* \"#utility.yul\":1724:1727   */\n      dup3\n        /* \"#utility.yul\":1717:1736   */\n      mstore\n        /* \"#utility.yul\":1769:1773   */\n      0x20\n        /* \"#utility.yul\":1764:1767   */\n      dup3\n        /* \"#utility.yul\":1760:1774   */\n      add\n        /* \"#utility.yul\":1745:1774   */\n      swap1\n      pop\n        /* \"#utility.yul\":1611:1780   */\n      swap3\n      swap2\n      pop\n      pop\n      jump\t// out\n        /* \"#utility.yul\":1786:1956   */\n    tag_61:\n        /* \"#utility.yul\":1926:1948   */\n      0x4e6f206d6f6e657920746f207769746864726177000000000000000000000000\n        /* \"#utility.yul\":1922:1923   */\n      0x00\n        /* \"#utility.yul\":1914:1920   */\n      dup3\n        /* \"#utility.yul\":1910:1924   */\n      add\n        /* \"#utility.yul\":1903:1949   */\n      mstore\n        /* \"#utility.yul\":1786:1956   */\n      pop\n      jump\t// out\n        /* \"#utility.yul\":1962:2328   */\n    tag_62:\n        /* \"#utility.yul\":2104:2107   */\n      0x00\n        /* \"#utility.yul\":2125:2192   */\n      tag_97\n        /* \"#utility.yul\":2189:2191   */\n      0x14\n        /* \"#utility.yul\":2184:2187   */\n      dup4\n        /* \"#utility.yul\":2125:2192   */\n      tag_60\n      jump\t// in\n    tag_97:\n        /* \"#utility.yul\":2118:2192   */\n      swap2\n      pop\n        /* \"#utility.yul\":2201:2294   */\n      tag_98\n        /* \"#utility.yul\":2290:2293   */\n      dup3\n        /* \"#utility.yul\":2201:2294   */\n      tag_61\n      jump\t// in\n    tag_98:\n        /* \"#utility.yul\":2319:2321   */\n      0x20\n        /* \"#utility.yul\":2314:2317   */\n      dup3\n        /* \"#utility.yul\":2310:2322   */\n      add\n        /* \"#utility.yul\":2303:2322   */\n      swap1\n      pop\n        /* \"#utility.yul\":1962:2328   */\n      swap2\n      swap1\n      pop\n      jump\t// out\n        /* \"#utility.yul\":2334:2753   */\n    tag_23:\n        /* \"#utility.yul\":2500:2504   */\n      0x00\n        /* \"#utility.yul\":2538:2540   */\n      0x20\n        /* \"#utility.yul\":2527:2536   */\n      dup3\n        /* \"#utility.yul\":2523:2541   */\n      add\n        /* \"#utility.yul\":2515:2541   */\n      swap1\n      pop\n        /* \"#utility.yul\":2587:2596   */\n      dup2\n        /* \"#utility.yul\":2581:2585   */\n      dup2\n        /* \"#utility.yul\":2577:2597   */\n      sub\n        /* \"#utility.yul\":2573:2574   */\n      0x00\n        /* \"#utility.yul\":2562:2571   */\n      dup4\n        /* \"#utility.yul\":2558:2575   */\n      add\n        /* \"#utility.yul\":2551:2598   */\n      mstore\n        /* \"#utility.yul\":2615:2746   */\n      tag_100\n        /* \"#utility.yul\":2741:2745   */\n      dup2\n        /* \"#utility.yul\":2615:2746   */\n      tag_62\n      jump\t// in\n    tag_100:\n        /* \"#utility.yul\":2607:2746   */\n      swap1\n      pop\n        /* \"#utility.yul\":2334:2753   */\n      swap2\n      swap1\n      pop\n      jump\t// out\n        /* \"#utility.yul\":2759:2906   */\n    tag_63:\n        /* \"#utility.yul\":2860:2871   */\n      0x00\n        /* \"#utility.yul\":2897:2900   */\n      dup2\n        /* \"#utility.yul\":2882:2900   */\n      swap1\n      pop\n        /* \"#utility.yul\":2759:2906   */\n      swap3\n      swap2\n      pop\n      pop\n      jump\t// out\n        /* \"#utility.yul\":2912:3026   */\n    tag_64:\n      pop\n      jump\t// out\n        /* \"#utility.yul\":3032:3430   */\n    tag_65:\n        /* \"#utility.yul\":3191:3194   */\n      0x00\n        /* \"#utility.yul\":3212:3295   */\n      tag_104\n        /* \"#utility.yul\":3293:3294   */\n      0x00\n        /* \"#utility.yul\":3288:3291   */\n      dup4\n        /* \"#utility.yul\":3212:3295   */\n      tag_63\n      jump\t// in\n    tag_104:\n        /* \"#utility.yul\":3205:3295   */\n      swap2\n      pop\n        /* \"#utility.yul\":3304:3397   */\n      tag_105\n        /* \"#utility.yul\":3393:3396   */\n      dup3\n        /* \"#utility.yul\":3304:3397   */\n      tag_64\n      jump\t// in\n    tag_105:\n        /* \"#utility.yul\":3422:3423   */\n      0x00\n        /* \"#utility.yul\":3417:3420   */\n      dup3\n        /* \"#utility.yul\":3413:3424   */\n      add\n        /* \"#utility.yul\":3406:3424   */\n      swap1\n      pop\n        /* \"#utility.yul\":3032:3430   */\n      swap2\n      swap1\n      pop\n      jump\t// out\n        /* \"#utility.yul\":3436:3815   */\n    tag_25:\n        /* \"#utility.yul\":3620:3623   */\n      0x00\n        /* \"#utility.yul\":3642:3789   */\n      tag_107\n        /* \"#utility.yul\":3785:3788   */\n      dup3\n        /* \"#utility.yul\":3642:3789   */\n      tag_65\n      jump\t// in\n    tag_107:\n        /* \"#utility.yul\":3635:3789   */\n      swap2\n      pop\n        /* \"#utility.yul\":3806:3809   */\n      dup2\n        /* \"#utility.yul\":3799:3809   */\n      swap1\n      pop\n        /* \"#utility.yul\":3436:3815   */\n      swap2\n      swap1\n      pop\n      jump\t// out\n        /* \"#utility.yul\":3821:3990   */\n    tag_66:\n        /* \"#utility.yul\":3961:3982   */\n      0x455448205472616e73666572206661696c656400000000000000000000000000\n        /* \"#utility.yul\":3957:3958   */\n      0x00\n        /* \"#utility.yul\":3949:3955   */\n      dup3\n        /* \"#utility.yul\":3945:3959   */\n      add\n        /* \"#utility.yul\":3938:3983   */\n      mstore\n        /* \"#utility.yul\":3821:3990   */\n      pop\n      jump\t// out\n        /* \"#utility.yul\":3996:4362   */\n    tag_67:\n        /* \"#utility.yul\":4138:4141   */\n      0x00\n        /* \"#utility.yul\":4159:4226   */\n      tag_110\n        /* \"#utility.yul\":4223:4225   */\n      0x13\n        /* \"#utility.yul\":4218:4221   */\n      dup4\n        /* \"#utility.yul\":4159:4226   */\n      tag_60\n      jump\t// in\n    tag_110:\n        /* \"#utility.yul\":4152:4226   */\n      swap2\n      pop\n        /* \"#utility.yul\":4235:4328   */\n      tag_111\n        /* \"#utility.yul\":4324:4327   */\n      dup3\n        /* \"#utility.yul\":4235:4328   */\n      tag_66\n      jump\t// in\n    tag_111:\n        /* \"#utility.yul\":4353:4355   */\n      0x20\n        /* \"#utility.yul\":4348:4351   */\n      dup3\n        /* \"#utility.yul\":4344:4356   */\n      add\n        /* \"#utility.yul\":4337:4356   */\n      swap1\n      pop\n        /* \"#utility.yul\":3996:4362   */\n      swap2\n      swap1\n      pop\n      jump\t// out\n        /* \"#utility.yul\":4368:4787   */\n    tag_31:\n        /* \"#utility.yul\":4534:4538   */\n      0x00\n        /* \"#utility.yul\":4572:4574   */\n      0x20\n        /* \"#utility.yul\":4561:4570   */\n      dup3\n        /* \"#utility.yul\":4557:4575   */\n      add\n        /* \"#utility.yul\":4549:4575   */\n      swap1\n      pop\n        /* \"#utility.yul\":4621:4630   */\n      dup2\n        /* \"#utility.yul\":4615:4619   */\n      dup2\n        /* \"#utility.yul\":4611:4631   */\n      sub\n        /* \"#utility.yul\":4607:4608   */\n      0x00\n        /* \"#utility.yul\":4596:4605   */\n      dup4\n        /* \"#utility.yul\":4592:4609   */\n      add\n        /* \"#utility.yul\":4585:4632   */\n      mstore\n        /* \"#utility.yul\":4649:4780   */\n      tag_113\n        /* \"#utility.yul\":4775:4779   */\n      dup2\n        /* \"#utility.yul\":4649:4780   */\n      tag_67\n      jump\t// in\n    tag_113:\n        /* \"#utility.yul\":4641:4780   */\n      swap1\n      pop\n        /* \"#utility.yul\":4368:4787   */\n      swap2\n      swap1\n      pop\n      jump\t// out\n        /* \"#utility.yul\":4793:4961   */\n    tag_68:\n        /* \"#utility.yul\":4933:4953   */\n      0x456e7472616e6365207265737469637465640000000000000000000000000000\n        /* \"#utility.yul\":4929:4930   */\n      0x00\n        /* \"#utility.yul\":4921:4927   */\n      dup3\n        /* \"#utility.yul\":4917:4931   */\n      add\n        /* \"#utility.yul\":4910:4954   */\n      mstore\n        /* \"#utility.yul\":4793:4961   */\n      pop\n      jump\t// out\n        /* \"#utility.yul\":4967:5333   */\n    tag_69:\n        /* \"#utility.yul\":5109:5112   */\n      0x00\n        /* \"#utility.yul\":5130:5197   */\n      tag_116\n        /* \"#utility.yul\":5194:5196   */\n      0x12\n        /* \"#utility.yul\":5189:5192   */\n      dup4\n        /* \"#utility.yul\":5130:5197   */\n      tag_60\n      jump\t// in\n    tag_116:\n        /* \"#utility.yul\":5123:5197   */\n      swap2\n      pop\n        /* \"#utility.yul\":5206:5299   */\n      tag_117\n        /* \"#utility.yul\":5295:5298   */\n      dup3\n        /* \"#utility.yul\":5206:5299   */\n      tag_68\n      jump\t// in\n    tag_117:\n        /* \"#utility.yul\":5324:5326   */\n      0x20\n        /* \"#utility.yul\":5319:5322   */\n      dup3\n        /* \"#utility.yul\":5315:5327   */\n      add\n        /* \"#utility.yul\":5308:5327   */\n      swap1\n      pop\n        /* \"#utility.yul\":4967:5333   */\n      swap2\n      swap1\n      pop\n      jump\t// out\n        /* \"#utility.yul\":5339:5758   */\n    tag_35:\n        /* \"#utility.yul\":5505:5509   */\n      0x00\n        /* \"#utility.yul\":5543:5545   */\n      0x20\n        /* \"#utility.yul\":5532:5541   */\n      dup3\n        /* \"#utility.yul\":5528:5546   */\n      add\n        /* \"#utility.yul\":5520:5546   */\n      swap1\n      pop\n        /* \"#utility.yul\":5592:5601   */\n      dup2\n        /* \"#utility.yul\":5586:5590   */\n      dup2\n        /* \"#utility.yul\":5582:5602   */\n      sub\n        /* \"#utility.yul\":5578:5579   */\n      0x00\n        /* \"#utility.yul\":5567:5576   */\n      dup4\n        /* \"#utility.yul\":5563:5580   */\n      add\n        /* \"#utility.yul\":5556:5603   */\n      mstore\n        /* \"#utility.yul\":5620:5751   */\n      tag_119\n        /* \"#utility.yul\":5746:5750   */\n      dup2\n        /* \"#utility.yul\":5620:5751   */\n      tag_69\n      jump\t// in\n    tag_119:\n        /* \"#utility.yul\":5612:5751   */\n      swap1\n      pop\n        /* \"#utility.yul\":5339:5758   */\n      swap2\n      swap1\n      pop\n      jump\t// out\n        /* \"#utility.yul\":5764:5943   */\n    tag_70:\n        /* \"#utility.yul\":5904:5935   */\n      0x4465706f7369742068617320746f206265206d6f7265207468616e2030000000\n        /* \"#utility.yul\":5900:5901   */\n      0x00\n        /* \"#utility.yul\":5892:5898   */\n      dup3\n        /* \"#utility.yul\":5888:5902   */\n      add\n        /* \"#utility.yul\":5881:5936   */\n      mstore\n        /* \"#utility.yul\":5764:5943   */\n      pop\n      jump\t// out\n        /* \"#utility.yul\":5949:6315   */\n    tag_71:\n        /* \"#utility.yul\":6091:6094   */\n      0x00\n        /* \"#utility.yul\":6112:6179   */\n      tag_122\n        /* \"#utility.yul\":6176:6178   */\n      0x1d\n        /* \"#utility.yul\":6171:6174   */\n      dup4\n        /* \"#utility.yul\":6112:6179   */\n      tag_60\n      jump\t// in\n    tag_122:\n        /* \"#utility.yul\":6105:6179   */\n      swap2\n      pop\n        /* \"#utility.yul\":6188:6281   */\n      tag_123\n        /* \"#utility.yul\":6277:6280   */\n      dup3\n        /* \"#utility.yul\":6188:6281   */\n      tag_70\n      jump\t// in\n    tag_123:\n        /* \"#utility.yul\":6306:6308   */\n      0x20\n        /* \"#utility.yul\":6301:6304   */\n      dup3\n        /* \"#utility.yul\":6297:6309   */\n      add\n        /* \"#utility.yul\":6290:6309   */\n      swap1\n      pop\n        /* \"#utility.yul\":5949:6315   */\n      swap2\n      swap1\n      pop\n      jump\t// out\n        /* \"#utility.yul\":6321:6740   */\n    tag_48:\n        /* \"#utility.yul\":6487:6491   */\n      0x00\n        /* \"#utility.yul\":6525:6527   */\n      0x20\n        /* \"#utility.yul\":6514:6523   */\n      dup3\n        /* \"#utility.yul\":6510:6528   */\n      add\n        /* \"#utility.yul\":6502:6528   */\n      swap1\n      pop\n        /* \"#utility.yul\":6574:6583   */\n      dup2\n        /* \"#utility.yul\":6568:6572   */\n      dup2\n        /* \"#utility.yul\":6564:6584   */\n      sub\n        /* \"#utility.yul\":6560:6561   */\n      0x00\n        /* \"#utility.yul\":6549:6558   */\n      dup4\n        /* \"#utility.yul\":6545:6562   */\n      add\n        /* \"#utility.yul\":6538:6585   */\n      mstore\n        /* \"#utility.yul\":6602:6733   */\n      tag_125\n        /* \"#utility.yul\":6728:6732   */\n      dup2\n        /* \"#utility.yul\":6602:6733   */\n      tag_71\n      jump\t// in\n    tag_125:\n        /* \"#utility.yul\":6594:6733   */\n      swap1\n      pop\n        /* \"#utility.yul\":6321:6740   */\n      swap2\n      swap1\n      pop\n      jump\t// out\n        /* \"#utility.yul\":6746:6926   */\n    tag_72:\n        /* \"#utility.yul\":6794:6871   */\n      0x4e487b7100000000000000000000000000000000000000000000000000000000\n        /* \"#utility.yul\":6791:6792   */\n      0x00\n        /* \"#utility.yul\":6784:6872   */\n      mstore\n        /* \"#utility.yul\":6891:6895   */\n      0x11\n        /* \"#utility.yul\":6888:6889   */\n      0x04\n        /* \"#utility.yul\":6881:6896   */\n      mstore\n        /* \"#utility.yul\":6915:6919   */\n      0x24\n        /* \"#utility.yul\":6912:6913   */\n      0x00\n        /* \"#utility.yul\":6905:6920   */\n      revert\n        /* \"#utility.yul\":6932:7123   */\n    tag_50:\n        /* \"#utility.yul\":6972:6975   */\n      0x00\n        /* \"#utility.yul\":6991:7011   */\n      tag_128\n        /* \"#utility.yul\":7009:7010   */\n      dup3\n        /* \"#utility.yul\":6991:7011   */\n      tag_58\n      jump\t// in\n    tag_128:\n        /* \"#utility.yul\":6986:7011   */\n      swap2\n      pop\n        /* \"#utility.yul\":7025:7045   */\n      tag_129\n        /* \"#utility.yul\":7043:7044   */\n      dup4\n        /* \"#utility.yul\":7025:7045   */\n      tag_58\n      jump\t// in\n    tag_129:\n        /* \"#utility.yul\":7020:7045   */\n      swap3\n      pop\n        /* \"#utility.yul\":7068:7069   */\n      dup3\n        /* \"#utility.yul\":7065:7066   */\n      dup3\n        /* \"#utility.yul\":7061:7070   */\n      add\n        /* \"#utility.yul\":7054:7070   */\n      swap1\n      pop\n        /* \"#utility.yul\":7089:7092   */\n      dup1\n        /* \"#utility.yul\":7086:7087   */\n      dup3\n        /* \"#utility.yul\":7083:7093   */\n      gt\n        /* \"#utility.yul\":7080:7116   */\n      iszero\n      tag_130\n      jumpi\n        /* \"#utility.yul\":7096:7114   */\n      tag_131\n      tag_72\n      jump\t// in\n    tag_131:\n        /* \"#utility.yul\":7080:7116   */\n    tag_130:\n        /* \"#utility.yul\":6932:7123   */\n      swap3\n      swap2\n      pop\n      pop\n      jump\t// out\n\n    auxdata: 0xa2646970667358221220e9ed63674c1a4296500fe19d92a618a585615cf775241e97a69c12c1ea47139f64736f6c634300081a0033\n}\n",
				"bytecode": {
					"linkReferences": {},
					"object": "608060405260018055600280553480156016575f80fd5b506001545f819055506107cc8061002c5f395ff3fe60806040526004361061003e575f3560e01c80636d02423f14610042578063710957cc1461007e5780637fd4261714610088578063d0e30db01461009e575b5f80fd5b34801561004d575f80fd5b50610068600480360381019061006391906104e9565b6100a8565b604051610075919061052c565b60405180910390f35b6100866100bd565b005b348015610093575f80fd5b5061009c61022e565b005b6100a66103f4565b005b6003602052805f5260405f205f915090505481565b5f60035f3373ffffffffffffffffffffffffffffffffffffffff1673ffffffffffffffffffffffffffffffffffffffff1681526020019081526020015f205490505f8111610140576040517f08c379a00000000000000000000000000000000000000000000000000000000081526004016101379061059f565b60405180910390fd5b5f3373ffffffffffffffffffffffffffffffffffffffff1682604051610165906105ea565b5f6040518083038185875af1925050503d805f811461019f576040519150601f19603f3d011682016040523d82523d5f602084013e6101a4565b606091505b50509050806101e8576040517f08c379a00000000000000000000000000000000000000000000000000000000081526004016101df90610648565b60405180910390fd5b5f60035f3373ffffffffffffffffffffffffffffffffffffffff1673ffffffffffffffffffffffffffffffffffffffff1681526020019081526020015f20819055505050565b6002545f5403610273576040517f08c379a000000000000000000000000000000000000000000000000000000000815260040161026a906106b0565b60405180910390fd5b6002545f819055505f60035f3373ffffffffffffffffffffffffffffffffffffffff1673ffffffffffffffffffffffffffffffffffffffff1681526020019081526020015f205490505f81116102fe576040517f08c379a00000000000000000000000000000000000000000000000000000000081526004016102f59061059f565b60405180910390fd5b5f60035f3373ffffffffffffffffffffffffffffffffffffffff1673ffffffffffffffffffffffffffffffffffffffff1681526020019081526020015f20819055505f3373ffffffffffffffffffffffffffffffffffffffff1682604051610365906105ea565b5f6040518083038185875af1925050503d805f811461039f576040519150601f19603f3d011682016040523d82523d5f602084013e6103a4565b606091505b50509050806103e8576040517f08c379a00000000000000000000000000000000000000000000000000000000081526004016103df90610648565b60405180910390fd5b50506001545f81905550565b5f3411610436576040517f08c379a000000000000000000000000000000000000000000000000000000000815260040161042d90610718565b60405180910390fd5b3460035f3373ffffffffffffffffffffffffffffffffffffffff1673ffffffffffffffffffffffffffffffffffffffff1681526020019081526020015f205f8282546104829190610763565b92505081905550565b5f80fd5b5f73ffffffffffffffffffffffffffffffffffffffff82169050919050565b5f6104b88261048f565b9050919050565b6104c8816104ae565b81146104d2575f80fd5b50565b5f813590506104e3816104bf565b92915050565b5f602082840312156104fe576104fd61048b565b5b5f61050b848285016104d5565b91505092915050565b5f819050919050565b61052681610514565b82525050565b5f60208201905061053f5f83018461051d565b92915050565b5f82825260208201905092915050565b7f4e6f206d6f6e657920746f2077697468647261770000000000000000000000005f82015250565b5f610589601483610545565b915061059482610555565b602082019050919050565b5f6020820190508181035f8301526105b68161057d565b9050919050565b5f81905092915050565b50565b5f6105d55f836105bd565b91506105e0826105c7565b5f82019050919050565b5f6105f4826105ca565b9150819050919050565b7f455448205472616e73666572206661696c6564000000000000000000000000005f82015250565b5f610632601383610545565b915061063d826105fe565b602082019050919050565b5f6020820190508181035f83015261065f81610626565b9050919050565b7f456e7472616e63652072657374696374656400000000000000000000000000005f82015250565b5f61069a601283610545565b91506106a582610666565b602082019050919050565b5f6020820190508181035f8301526106c78161068e565b9050919050565b7f4465706f7369742068617320746f206265206d6f7265207468616e20300000005f82015250565b5f610702601d83610545565b915061070d826106ce565b602082019050919050565b5f6020820190508181035f83015261072f816106f6565b9050919050565b7f4e487b71000000000000000000000000000000000000000000000000000000005f52601160045260245ffd5b5f61076d82610514565b915061077883610514565b92508282019050808211156107905761078f610736565b5b9291505056fea2646970667358221220e9ed63674c1a4296500fe19d92a618a585615cf775241e97a69c12c1ea47139f64736f6c634300081a0033",
					"opcodes": "PUSH1 0x80 PUSH1 0x40 MSTORE PUSH1 0x1 DUP1 SSTORE PUSH1 0x2 DUP1 SSTORE CALLVALUE DUP1 ISZERO PUSH1 0x16 JUMPI PUSH0 DUP1 REVERT JUMPDEST POP PUSH1 0x1 SLOAD PUSH0 DUP2 SWAP1 SSTORE POP PUSH2 0x7CC DUP1 PUSH2 0x2C PUSH0 CODECOPY PUSH0 RETURN INVALID PUSH1 0x80 PUSH1 0x40 MSTORE PUSH1 0x4 CALLDATASIZE LT PUSH2 0x3E JUMPI PUSH0 CALLDATALOAD PUSH1 0xE0 SHR DUP1 PUSH4 0x6D02423F EQ PUSH2 0x42 JUMPI DUP1 PUSH4 0x710957CC EQ PUSH2 0x7E JUMPI DUP1 PUSH4 0x7FD42617 EQ PUSH2 0x88 JUMPI DUP1 PUSH4 0xD0E30DB0 EQ PUSH2 0x9E JUMPI JUMPDEST PUSH0 DUP1 REVERT JUMPDEST CALLVALUE DUP1 ISZERO PUSH2 0x4D JUMPI PUSH0 DUP1 REVERT JUMPDEST POP PUSH2 0x68 PUSH1 0x4 DUP1 CALLDATASIZE SUB DUP2 ADD SWAP1 PUSH2 0x63 SWAP2 SWAP1 PUSH2 0x4E9 JUMP JUMPDEST PUSH2 0xA8 JUMP JUMPDEST PUSH1 0x40 MLOAD PUSH2 0x75 SWAP2 SWAP1 PUSH2 0x52C JUMP JUMPDEST PUSH1 0x40 MLOAD DUP1 SWAP2 SUB SWAP1 RETURN JUMPDEST PUSH2 0x86 PUSH2 0xBD JUMP JUMPDEST STOP JUMPDEST CALLVALUE DUP1 ISZERO PUSH2 0x93 JUMPI PUSH0 DUP1 REVERT JUMPDEST POP PUSH2 0x9C PUSH2 0x22E JUMP JUMPDEST STOP JUMPDEST PUSH2 0xA6 PUSH2 0x3F4 JUMP JUMPDEST STOP JUMPDEST PUSH1 0x3 PUSH1 0x20 MSTORE DUP1 PUSH0 MSTORE PUSH1 0x40 PUSH0 KECCAK256 PUSH0 SWAP2 POP SWAP1 POP SLOAD DUP2 JUMP JUMPDEST PUSH0 PUSH1 0x3 PUSH0 CALLER PUSH20 0xFFFFFFFFFFFFFFFFFFFFFFFFFFFFFFFFFFFFFFFF AND PUSH20 0xFFFFFFFFFFFFFFFFFFFFFFFFFFFFFFFFFFFFFFFF AND DUP2 MSTORE PUSH1 0x20 ADD SWAP1 DUP2 MSTORE PUSH1 0x20 ADD PUSH0 KECCAK256 SLOAD SWAP1 POP PUSH0 DUP2 GT PUSH2 0x140 JUMPI PUSH1 0x40 MLOAD PUSH32 0x8C379A000000000000000000000000000000000000000000000000000000000 DUP2 MSTORE PUSH1 0x4 ADD PUSH2 0x137 SWAP1 PUSH2 0x59F JUMP JUMPDEST PUSH1 0x40 MLOAD DUP1 SWAP2 SUB SWAP1 REVERT JUMPDEST PUSH0 CALLER PUSH20 0xFFFFFFFFFFFFFFFFFFFFFFFFFFFFFFFFFFFFFFFF AND DUP3 PUSH1 0x40 MLOAD PUSH2 0x165 SWAP1 PUSH2 0x5EA JUMP JUMPDEST PUSH0 PUSH1 0x40 MLOAD DUP1 DUP4 SUB DUP2 DUP6 DUP8 GAS CALL SWAP3 POP POP POP RETURNDATASIZE DUP1 PUSH0 DUP2 EQ PUSH2 0x19F JUMPI PUSH1 0x40 MLOAD SWAP2 POP PUSH1 0x1F NOT PUSH1 0x3F RETURNDATASIZE ADD AND DUP3 ADD PUSH1 0x40 MSTORE RETURNDATASIZE DUP3 MSTORE RETURNDATASIZE PUSH0 PUSH1 0x20 DUP5 ADD RETURNDATACOPY PUSH2 0x1A4 JUMP JUMPDEST PUSH1 0x60 SWAP2 POP JUMPDEST POP POP SWAP1 POP DUP1 PUSH2 0x1E8 JUMPI PUSH1 0x40 MLOAD PUSH32 0x8C379A000000000000000000000000000000000000000000000000000000000 DUP2 MSTORE PUSH1 0x4 ADD PUSH2 0x1DF SWAP1 PUSH2 0x648 JUMP JUMPDEST PUSH1 0x40 MLOAD DUP1 SWAP2 SUB SWAP1 REVERT JUMPDEST PUSH0 PUSH1 0x3 PUSH0 CALLER PUSH20 0xFFFFFFFFFFFFFFFFFFFFFFFFFFFFFFFFFFFFFFFF AND PUSH20 0xFFFFFFFFFFFFFFFFFFFFFFFFFFFFFFFFFFFFFFFF AND DUP2 MSTORE PUSH1 0x20 ADD SWAP1 DUP2 MSTORE PUSH1 0x20 ADD PUSH0 KECCAK256 DUP2 SWAP1 SSTORE POP POP POP JUMP JUMPDEST PUSH1 0x2 SLOAD PUSH0 SLOAD SUB PUSH2 0x273 JUMPI PUSH1 0x40 MLOAD PUSH32 0x8C379A000000000000000000000000000000000000000000000000000000000 DUP2 MSTORE PUSH1 0x4 ADD PUSH2 0x26A SWAP1 PUSH2 0x6B0 JUMP JUMPDEST PUSH1 0x40 MLOAD DUP1 SWAP2 SUB SWAP1 REVERT JUMPDEST PUSH1 0x2 SLOAD PUSH0 DUP2 SWAP1 SSTORE POP PUSH0 PUSH1 0x3 PUSH0 CALLER PUSH20 0xFFFFFFFFFFFFFFFFFFFFFFFFFFFFFFFFFFFFFFFF AND PUSH20 0xFFFFFFFFFFFFFFFFFFFFFFFFFFFFFFFFFFFFFFFF AND DUP2 MSTORE PUSH1 0x20 ADD SWAP1 DUP2 MSTORE PUSH1 0x20 ADD PUSH0 KECCAK256 SLOAD SWAP1 POP PUSH0 DUP2 GT PUSH2 0x2FE JUMPI PUSH1 0x40 MLOAD PUSH32 0x8C379A000000000000000000000000000000000000000000000000000000000 DUP2 MSTORE PUSH1 0x4 ADD PUSH2 0x2F5 SWAP1 PUSH2 0x59F JUMP JUMPDEST PUSH1 0x40 MLOAD DUP1 SWAP2 SUB SWAP1 REVERT JUMPDEST PUSH0 PUSH1 0x3 PUSH0 CALLER PUSH20 0xFFFFFFFFFFFFFFFFFFFFFFFFFFFFFFFFFFFFFFFF AND PUSH20 0xFFFFFFFFFFFFFFFFFFFFFFFFFFFFFFFFFFFFFFFF AND DUP2 MSTORE PUSH1 0x20 ADD SWAP1 DUP2 MSTORE PUSH1 0x20 ADD PUSH0 KECCAK256 DUP2 SWAP1 SSTORE POP PUSH0 CALLER PUSH20 0xFFFFFFFFFFFFFFFFFFFFFFFFFFFFFFFFFFFFFFFF AND DUP3 PUSH1 0x40 MLOAD PUSH2 0x365 SWAP1 PUSH2 0x5EA JUMP JUMPDEST PUSH0 PUSH1 0x40 MLOAD DUP1 DUP4 SUB DUP2 DUP6 DUP8 GAS CALL SWAP3 POP POP POP RETURNDATASIZE DUP1 PUSH0 DUP2 EQ PUSH2 0x39F JUMPI PUSH1 0x40 MLOAD SWAP2 POP PUSH1 0x1F NOT PUSH1 0x3F RETURNDATASIZE ADD AND DUP3 ADD PUSH1 0x40 MSTORE RETURNDATASIZE DUP3 MSTORE RETURNDATASIZE PUSH0 PUSH1 0x20 DUP5 ADD RETURNDATACOPY PUSH2 0x3A4 JUMP JUMPDEST PUSH1 0x60 SWAP2 POP JUMPDEST POP POP SWAP1 POP DUP1 PUSH2 0x3E8 JUMPI PUSH1 0x40 MLOAD PUSH32 0x8C379A000000000000000000000000000000000000000000000000000000000 DUP2 MSTORE PUSH1 0x4 ADD PUSH2 0x3DF SWAP1 PUSH2 0x648 JUMP JUMPDEST PUSH1 0x40 MLOAD DUP1 SWAP2 SUB SWAP1 REVERT JUMPDEST POP POP PUSH1 0x1 SLOAD PUSH0 DUP2 SWAP1 SSTORE POP JUMP JUMPDEST PUSH0 CALLVALUE GT PUSH2 0x436 JUMPI PUSH1 0x40 MLOAD PUSH32 0x8C379A000000000000000000000000000000000000000000000000000000000 DUP2 MSTORE PUSH1 0x4 ADD PUSH2 0x42D SWAP1 PUSH2 0x718 JUMP JUMPDEST PUSH1 0x40 MLOAD DUP1 SWAP2 SUB SWAP1 REVERT JUMPDEST CALLVALUE PUSH1 0x3 PUSH0 CALLER PUSH20 0xFFFFFFFFFFFFFFFFFFFFFFFFFFFFFFFFFFFFFFFF AND PUSH20 0xFFFFFFFFFFFFFFFFFFFFFFFFFFFFFFFFFFFFFFFF AND DUP2 MSTORE PUSH1 0x20 ADD SWAP1 DUP2 MSTORE PUSH1 0x20 ADD PUSH0 KECCAK256 PUSH0 DUP3 DUP3 SLOAD PUSH2 0x482 SWAP2 SWAP1 PUSH2 0x763 JUMP JUMPDEST SWAP3 POP POP DUP2 SWAP1 SSTORE POP JUMP JUMPDEST PUSH0 DUP1 REVERT JUMPDEST PUSH0 PUSH20 0xFFFFFFFFFFFFFFFFFFFFFFFFFFFFFFFFFFFFFFFF DUP3 AND SWAP1 POP SWAP2 SWAP1 POP JUMP JUMPDEST PUSH0 PUSH2 0x4B8 DUP3 PUSH2 0x48F JUMP JUMPDEST SWAP1 POP SWAP2 SWAP1 POP JUMP JUMPDEST PUSH2 0x4C8 DUP2 PUSH2 0x4AE JUMP JUMPDEST DUP2 EQ PUSH2 0x4D2 JUMPI PUSH0 DUP1 REVERT JUMPDEST POP JUMP JUMPDEST PUSH0 DUP2 CALLDATALOAD SWAP1 POP PUSH2 0x4E3 DUP2 PUSH2 0x4BF JUMP JUMPDEST SWAP3 SWAP2 POP POP JUMP JUMPDEST PUSH0 PUSH1 0x20 DUP3 DUP5 SUB SLT ISZERO PUSH2 0x4FE JUMPI PUSH2 0x4FD PUSH2 0x48B JUMP JUMPDEST JUMPDEST PUSH0 PUSH2 0x50B DUP5 DUP3 DUP6 ADD PUSH2 0x4D5 JUMP JUMPDEST SWAP2 POP POP SWAP3 SWAP2 POP POP JUMP JUMPDEST PUSH0 DUP2 SWAP1 POP SWAP2 SWAP1 POP JUMP JUMPDEST PUSH2 0x526 DUP2 PUSH2 0x514 JUMP JUMPDEST DUP3 MSTORE POP POP JUMP JUMPDEST PUSH0 PUSH1 0x20 DUP3 ADD SWAP1 POP PUSH2 0x53F PUSH0 DUP4 ADD DUP5 PUSH2 0x51D JUMP JUMPDEST SWAP3 SWAP2 POP POP JUMP JUMPDEST PUSH0 DUP3 DUP3 MSTORE PUSH1 0x20 DUP3 ADD SWAP1 POP SWAP3 SWAP2 POP POP JUMP JUMPDEST PUSH32 0x4E6F206D6F6E657920746F207769746864726177000000000000000000000000 PUSH0 DUP3 ADD MSTORE POP JUMP JUMPDEST PUSH0 PUSH2 0x589 PUSH1 0x14 DUP4 PUSH2 0x545 JUMP JUMPDEST SWAP2 POP PUSH2 0x594 DUP3 PUSH2 0x555 JUMP JUMPDEST PUSH1 0x20 DUP3 ADD SWAP1 POP SWAP2 SWAP1 POP JUMP JUMPDEST PUSH0 PUSH1 0x20 DUP3 ADD SWAP1 POP DUP2 DUP2 SUB PUSH0 DUP4 ADD MSTORE PUSH2 0x5B6 DUP2 PUSH2 0x57D JUMP JUMPDEST SWAP1 POP SWAP2 SWAP1 POP JUMP JUMPDEST PUSH0 DUP2 SWAP1 POP SWAP3 SWAP2 POP POP JUMP JUMPDEST POP JUMP JUMPDEST PUSH0 PUSH2 0x5D5 PUSH0 DUP4 PUSH2 0x5BD JUMP JUMPDEST SWAP2 POP PUSH2 0x5E0 DUP3 PUSH2 0x5C7 JUMP JUMPDEST PUSH0 DUP3 ADD SWAP1 POP SWAP2 SWAP1 POP JUMP JUMPDEST PUSH0 PUSH2 0x5F4 DUP3 PUSH2 0x5CA JUMP JUMPDEST SWAP2 POP DUP2 SWAP1 POP SWAP2 SWAP1 POP JUMP JUMPDEST PUSH32 0x455448205472616E73666572206661696C656400000000000000000000000000 PUSH0 DUP3 ADD MSTORE POP JUMP JUMPDEST PUSH0 PUSH2 0x632 PUSH1 0x13 DUP4 PUSH2 0x545 JUMP JUMPDEST SWAP2 POP PUSH2 0x63D DUP3 PUSH2 0x5FE JUMP JUMPDEST PUSH1 0x20 DUP3 ADD SWAP1 POP SWAP2 SWAP1 POP JUMP JUMPDEST PUSH0 PUSH1 0x20 DUP3 ADD SWAP1 POP DUP2 DUP2 SUB PUSH0 DUP4 ADD MSTORE PUSH2 0x65F DUP2 PUSH2 0x626 JUMP JUMPDEST SWAP1 POP SWAP2 SWAP1 POP JUMP JUMPDEST PUSH32 0x456E7472616E6365207265737469637465640000000000000000000000000000 PUSH0 DUP3 ADD MSTORE POP JUMP JUMPDEST PUSH0 PUSH2 0x69A PUSH1 0x12 DUP4 PUSH2 0x545 JUMP JUMPDEST SWAP2 POP PUSH2 0x6A5 DUP3 PUSH2 0x666 JUMP JUMPDEST PUSH1 0x20 DUP3 ADD SWAP1 POP SWAP2 SWAP1 POP JUMP JUMPDEST PUSH0 PUSH1 0x20 DUP3 ADD SWAP1 POP DUP2 DUP2 SUB PUSH0 DUP4 ADD MSTORE PUSH2 0x6C7 DUP2 PUSH2 0x68E JUMP JUMPDEST SWAP1 POP SWAP2 SWAP1 POP JUMP JUMPDEST PUSH32 0x4465706F7369742068617320746F206265206D6F7265207468616E2030000000 PUSH0 DUP3 ADD MSTORE POP JUMP JUMPDEST PUSH0 PUSH2 0x702 PUSH1 0x1D DUP4 PUSH2 0x545 JUMP JUMPDEST SWAP2 POP PUSH2 0x70D DUP3 PUSH2 0x6CE JUMP JUMPDEST PUSH1 0x20 DUP3 ADD SWAP1 POP SWAP2 SWAP1 POP JUMP JUMPDEST PUSH0 PUSH1 0x20 DUP3 ADD SWAP1 POP DUP2 DUP2 SUB PUSH0 DUP4 ADD MSTORE PUSH2 0x72F DUP2 PUSH2 0x6F6 JUMP JUMPDEST SWAP1 POP SWAP2 SWAP1 POP JUMP JUMPDEST PUSH32 0x4E487B7100000000000000000000000000000000000000000000000000000000 PUSH0 MSTORE PUSH1 0x11 PUSH1 0x4 MSTORE PUSH1 0x24 PUSH0 REVERT JUMPDEST PUSH0 PUSH2 0x76D DUP3 PUSH2 0x514 JUMP JUMPDEST SWAP2 POP PUSH2 0x778 DUP4 PUSH2 0x514 JUMP JUMPDEST SWAP3 POP DUP3 DUP3 ADD SWAP1 POP DUP1 DUP3 GT ISZERO PUSH2 0x790 JUMPI PUSH2 0x78F PUSH2 0x736 JUMP JUMPDEST JUMPDEST SWAP3 SWAP2 POP POP JUMP INVALID LOG2 PUSH5 0x6970667358 0x22 SLT KECCAK256 0xE9 0xED PUSH4 0x674C1A42 SWAP7 POP 0xF 0xE1 SWAP14 SWAP3 0xA6 XOR 0xA5 DUP6 PUSH2 0x5CF7 PUSH22 0x241E97A69C12C1EA47139F64736F6C634300081A0033 "
				},
				"gasEstimates": {
					"creation": {
						"codeDepositCost": "399200",
						"executionCost": "68859",
						"totalCost": "468059"
					},
					"external": {
						"deposit()": "infinite",
						"goldBalance(address)": "2780",
						"safeWithdraw()": "infinite",
						"vulnerableWithdraw()": "infinite"
					}
				},
				"methodIdentifiers": {
					"deposit()": "d0e30db0",
					"goldBalance(address)": "6d02423f",
					"safeWithdraw()": "7fd42617",
					"vulnerableWithdraw()": "710957cc"
				}
			},
			"storageLayout": {
				"storage": [
					{
						"astId": 3,
						"contract": "contracts/fortknox-rentrancy/goldVault.sol:GoldVault",
						"label": "_status",
						"offset": 0,
						"slot": "0",
						"type": "t_uint256"
					},
					{
						"astId": 6,
						"contract": "contracts/fortknox-rentrancy/goldVault.sol:GoldVault",
						"label": "_NOT_ENTERED",
						"offset": 0,
						"slot": "1",
						"type": "t_uint256"
					},
					{
						"astId": 9,
						"contract": "contracts/fortknox-rentrancy/goldVault.sol:GoldVault",
						"label": "_ENTERED",
						"offset": 0,
						"slot": "2",
						"type": "t_uint256"
					},
					{
						"astId": 13,
						"contract": "contracts/fortknox-rentrancy/goldVault.sol:GoldVault",
						"label": "goldBalance",
						"offset": 0,
						"slot": "3",
						"type": "t_mapping(t_address,t_uint256)"
					}
				],
				"types": {
					"t_address": {
						"encoding": "inplace",
						"label": "address",
						"numberOfBytes": "20"
					},
					"t_mapping(t_address,t_uint256)": {
						"encoding": "mapping",
						"key": "t_address",
						"label": "mapping(address => uint256)",
						"numberOfBytes": "32",
						"value": "t_uint256"
					},
					"t_uint256": {
						"encoding": "inplace",
						"label": "uint256",
						"numberOfBytes": "32"
					}
				}
			},
			"userdoc": {
				"kind": "user",
				"methods": {},
				"version": 1
			}
		}
	}
}