{
	"contracts/schoolRegister.sol": {
		"SchoolRegister": {
			"abi": [
				{
					"inputs": [],
					"stateMutability": "nonpayable",
					"type": "constructor"
				},
				{
					"anonymous": false,
					"inputs": [
						{
							"indexed": true,
							"internalType": "address",
							"name": "school",
							"type": "address"
						},
						{
							"indexed": false,
							"internalType": "string",
							"name": "name",
							"type": "string"
						},
						{
							"indexed": false,
							"internalType": "uint256",
							"name": "id",
							"type": "uint256"
						},
						{
							"indexed": false,
							"internalType": "uint256",
							"name": "classNumber",
							"type": "uint256"
						}
					],
					"name": "StudentRegistered",
					"type": "event"
				},
				{
					"inputs": [],
					"name": "getAllStudentRecords",
					"outputs": [
						{
							"components": [
								{
									"internalType": "string",
									"name": "name",
									"type": "string"
								},
								{
									"internalType": "uint256",
									"name": "id",
									"type": "uint256"
								},
								{
									"internalType": "uint256",
									"name": "classNumber",
									"type": "uint256"
								}
							],
							"internalType": "struct SchoolRegister.Register[]",
							"name": "",
							"type": "tuple[]"
						}
					],
					"stateMutability": "view",
					"type": "function"
				},
				{
					"inputs": [
						{
							"internalType": "uint256",
							"name": "_id",
							"type": "uint256"
						}
					],
					"name": "getStudentRecordById",
					"outputs": [
						{
							"components": [
								{
									"internalType": "string",
									"name": "name",
									"type": "string"
								},
								{
									"internalType": "uint256",
									"name": "id",
									"type": "uint256"
								},
								{
									"internalType": "uint256",
									"name": "classNumber",
									"type": "uint256"
								}
							],
							"internalType": "struct SchoolRegister.Register",
							"name": "",
							"type": "tuple"
						}
					],
					"stateMutability": "view",
					"type": "function"
				},
				{
					"inputs": [
						{
							"internalType": "uint256",
							"name": "_classNumber",
							"type": "uint256"
						},
						{
							"internalType": "uint256",
							"name": "_id",
							"type": "uint256"
						}
					],
					"name": "getStudentsByClass",
					"outputs": [
						{
							"components": [
								{
									"internalType": "string",
									"name": "name",
									"type": "string"
								},
								{
									"internalType": "uint256",
									"name": "id",
									"type": "uint256"
								},
								{
									"internalType": "uint256",
									"name": "classNumber",
									"type": "uint256"
								}
							],
							"internalType": "struct SchoolRegister.Register[]",
							"name": "",
							"type": "tuple[]"
						}
					],
					"stateMutability": "view",
					"type": "function"
				},
				{
					"inputs": [],
					"name": "owner",
					"outputs": [
						{
							"internalType": "address",
							"name": "",
							"type": "address"
						}
					],
					"stateMutability": "view",
					"type": "function"
				},
				{
					"inputs": [
						{
							"internalType": "address",
							"name": "school",
							"type": "address"
						},
						{
							"internalType": "string",
							"name": "_name",
							"type": "string"
						},
						{
							"internalType": "uint256",
							"name": "_id",
							"type": "uint256"
						},
						{
							"internalType": "uint256",
							"name": "_classNumber",
							"type": "uint256"
						}
					],
					"name": "registerStudent",
					"outputs": [],
					"stateMutability": "nonpayable",
					"type": "function"
				}
			],
			"devdoc": {
				"kind": "dev",
				"methods": {},
				"version": 1
			},
			"evm": {
				"assembly": "    /* \"contracts/schoolRegister.sol\":61:3945  contract SchoolRegister {... */\n  mstore(0x40, 0x80)\n    /* \"contracts/schoolRegister.sol\":846:897  constructor() {... */\n  callvalue\n  dup1\n  iszero\n  tag_1\n  jumpi\n  0x00\n  dup1\n  revert\ntag_1:\n  pop\n    /* \"contracts/schoolRegister.sol\":879:889  msg.sender */\n  caller\n    /* \"contracts/schoolRegister.sol\":871:876  owner */\n  0x00\n  dup1\n    /* \"contracts/schoolRegister.sol\":871:889  owner = msg.sender */\n  0x0100\n  exp\n  dup2\n  sload\n  dup2\n  0xffffffffffffffffffffffffffffffffffffffff\n  mul\n  not\n  and\n  swap1\n  dup4\n  0xffffffffffffffffffffffffffffffffffffffff\n  and\n  mul\n  or\n  swap1\n  sstore\n  pop\n    /* \"contracts/schoolRegister.sol\":61:3945  contract SchoolRegister {... */\n  dataSize(sub_0)\n  dup1\n  dataOffset(sub_0)\n  0x00\n  codecopy\n  0x00\n  return\nstop\n\nsub_0: assembly {\n        /* \"contracts/schoolRegister.sol\":61:3945  contract SchoolRegister {... */\n      mstore(0x40, 0x80)\n      callvalue\n      dup1\n      iszero\n      tag_1\n      jumpi\n      0x00\n      dup1\n      revert\n    tag_1:\n      pop\n      jumpi(tag_2, lt(calldatasize, 0x04))\n      shr(0xe0, calldataload(0x00))\n      dup1\n      0x88458872\n      eq\n      tag_3\n      jumpi\n      dup1\n      0x8da5cb5b\n      eq\n      tag_4\n      jumpi\n      dup1\n      0xacb17255\n      eq\n      tag_5\n      jumpi\n      dup1\n      0xbf95c8b9\n      eq\n      tag_6\n      jumpi\n      dup1\n      0xebf80513\n      eq\n      tag_7\n      jumpi\n    tag_2:\n      0x00\n      dup1\n      revert\n        /* \"contracts/schoolRegister.sol\":2407:2532  function getAllStudentRecords() external view returns (Register[] memory) {... */\n    tag_3:\n      tag_8\n      tag_9\n      jump\t// in\n    tag_8:\n      mload(0x40)\n      tag_10\n      swap2\n      swap1\n      tag_11\n      jump\t// in\n    tag_10:\n      mload(0x40)\n      dup1\n      swap2\n      sub\n      swap1\n      return\n        /* \"contracts/schoolRegister.sol\":284:304  address public owner */\n    tag_4:\n      tag_12\n      tag_13\n      jump\t// in\n    tag_12:\n      mload(0x40)\n      tag_14\n      swap2\n      swap1\n      tag_15\n      jump\t// in\n    tag_14:\n      mload(0x40)\n      dup1\n      swap2\n      sub\n      swap1\n      return\n        /* \"contracts/schoolRegister.sol\":3214:3942  function getStudentsByClass(uint256 _classNumber, uint256 _id) external view returns (Register[] memory) {... */\n    tag_5:\n      tag_16\n      0x04\n      dup1\n      calldatasize\n      sub\n      dup2\n      add\n      swap1\n      tag_17\n      swap2\n      swap1\n      tag_18\n      jump\t// in\n    tag_17:\n      tag_19\n      jump\t// in\n    tag_16:\n      mload(0x40)\n      tag_20\n      swap2\n      swap1\n      tag_11\n      jump\t// in\n    tag_20:\n      mload(0x40)\n      dup1\n      swap2\n      sub\n      swap1\n      return\n        /* \"contracts/schoolRegister.sol\":1146:2280  function registerStudent(... */\n    tag_6:\n      tag_21\n      0x04\n      dup1\n      calldatasize\n      sub\n      dup2\n      add\n      swap1\n      tag_22\n      swap2\n      swap1\n      tag_23\n      jump\t// in\n    tag_22:\n      tag_24\n      jump\t// in\n    tag_21:\n      stop\n        /* \"contracts/schoolRegister.sol\":2673:3043  function getStudentRecordById(uint256 _id) external view returns (Register memory) {... */\n    tag_7:\n      tag_25\n      0x04\n      dup1\n      calldatasize\n      sub\n      dup2\n      add\n      swap1\n      tag_26\n      swap2\n      swap1\n      tag_27\n      jump\t// in\n    tag_26:\n      tag_28\n      jump\t// in\n    tag_25:\n      mload(0x40)\n      tag_29\n      swap2\n      swap1\n      tag_30\n      jump\t// in\n    tag_29:\n      mload(0x40)\n      dup1\n      swap2\n      sub\n      swap1\n      return\n        /* \"contracts/schoolRegister.sol\":2407:2532  function getAllStudentRecords() external view returns (Register[] memory) {... */\n    tag_9:\n        /* \"contracts/schoolRegister.sol\":2462:2479  Register[] memory */\n      0x60\n        /* \"contracts/schoolRegister.sol\":2499:2512  schoolRecords */\n      0x01\n        /* \"contracts/schoolRegister.sol\":2499:2524  schoolRecords[msg.sender] */\n      0x00\n        /* \"contracts/schoolRegister.sol\":2513:2523  msg.sender */\n      caller\n        /* \"contracts/schoolRegister.sol\":2499:2524  schoolRecords[msg.sender] */\n      0xffffffffffffffffffffffffffffffffffffffff\n      and\n      0xffffffffffffffffffffffffffffffffffffffff\n      and\n      dup2\n      mstore\n      0x20\n      add\n      swap1\n      dup2\n      mstore\n      0x20\n      add\n      0x00\n      keccak256\n        /* \"contracts/schoolRegister.sol\":2492:2524  return schoolRecords[msg.sender] */\n      dup1\n      sload\n      dup1\n      0x20\n      mul\n      0x20\n      add\n      mload(0x40)\n      swap1\n      dup2\n      add\n      0x40\n      mstore\n      dup1\n      swap3\n      swap2\n      swap1\n      dup2\n      dup2\n      mstore\n      0x20\n      add\n      0x00\n      swap1\n    tag_32:\n      dup3\n      dup3\n      lt\n      iszero\n      tag_33\n      jumpi\n      dup4\n      dup3\n      swap1\n      0x00\n      mstore\n      keccak256(0x00, 0x20)\n      swap1\n      0x03\n      mul\n      add\n      mload(0x40)\n      dup1\n      0x60\n      add\n      0x40\n      mstore\n      swap1\n      dup2\n      0x00\n      dup3\n      add\n      dup1\n      sload\n      tag_35\n      swap1\n      tag_36\n      jump\t// in\n    tag_35:\n      dup1\n      0x1f\n      add\n      0x20\n      dup1\n      swap2\n      div\n      mul\n      0x20\n      add\n      mload(0x40)\n      swap1\n      dup2\n      add\n      0x40\n      mstore\n      dup1\n      swap3\n      swap2\n      swap1\n      dup2\n      dup2\n      mstore\n      0x20\n      add\n      dup3\n      dup1\n      sload\n      tag_37\n      swap1\n      tag_36\n      jump\t// in\n    tag_37:\n      dup1\n      iszero\n      tag_38\n      jumpi\n      dup1\n      0x1f\n      lt\n      tag_39\n      jumpi\n      0x0100\n      dup1\n      dup4\n      sload\n      div\n      mul\n      dup4\n      mstore\n      swap2\n      0x20\n      add\n      swap2\n      jump(tag_38)\n    tag_39:\n      dup3\n      add\n      swap2\n      swap1\n      0x00\n      mstore\n      keccak256(0x00, 0x20)\n      swap1\n    tag_40:\n      dup2\n      sload\n      dup2\n      mstore\n      swap1\n      0x01\n      add\n      swap1\n      0x20\n      add\n      dup1\n      dup4\n      gt\n      tag_40\n      jumpi\n      dup3\n      swap1\n      sub\n      0x1f\n      and\n      dup3\n      add\n      swap2\n    tag_38:\n      pop\n      pop\n      pop\n      pop\n      pop\n      dup2\n      mstore\n      0x20\n      add\n      0x01\n      dup3\n      add\n      sload\n      dup2\n      mstore\n      0x20\n      add\n      0x02\n      dup3\n      add\n      sload\n      dup2\n      mstore\n      pop\n      pop\n      dup2\n      mstore\n      0x20\n      add\n      swap1\n      0x01\n      add\n      swap1\n      jump(tag_32)\n    tag_33:\n      pop\n      pop\n      pop\n      pop\n      swap1\n      pop\n        /* \"contracts/schoolRegister.sol\":2407:2532  function getAllStudentRecords() external view returns (Register[] memory) {... */\n      swap1\n      jump\t// out\n        /* \"contracts/schoolRegister.sol\":284:304  address public owner */\n    tag_13:\n      0x00\n      dup1\n      sload\n      swap1\n      0x0100\n      exp\n      swap1\n      div\n      0xffffffffffffffffffffffffffffffffffffffff\n      and\n      dup2\n      jump\t// out\n        /* \"contracts/schoolRegister.sol\":3214:3942  function getStudentsByClass(uint256 _classNumber, uint256 _id) external view returns (Register[] memory) {... */\n    tag_19:\n        /* \"contracts/schoolRegister.sol\":3300:3317  Register[] memory */\n      0x60\n        /* \"contracts/schoolRegister.sol\":3330:3355  Register[] memory records */\n      0x00\n        /* \"contracts/schoolRegister.sol\":3358:3371  schoolRecords */\n      0x01\n        /* \"contracts/schoolRegister.sol\":3358:3383  schoolRecords[msg.sender] */\n      0x00\n        /* \"contracts/schoolRegister.sol\":3372:3382  msg.sender */\n      caller\n        /* \"contracts/schoolRegister.sol\":3358:3383  schoolRecords[msg.sender] */\n      0xffffffffffffffffffffffffffffffffffffffff\n      and\n      0xffffffffffffffffffffffffffffffffffffffff\n      and\n      dup2\n      mstore\n      0x20\n      add\n      swap1\n      dup2\n      mstore\n      0x20\n      add\n      0x00\n      keccak256\n        /* \"contracts/schoolRegister.sol\":3330:3383  Register[] memory records = schoolRecords[msg.sender] */\n      dup1\n      sload\n      dup1\n      0x20\n      mul\n      0x20\n      add\n      mload(0x40)\n      swap1\n      dup2\n      add\n      0x40\n      mstore\n      dup1\n      swap3\n      swap2\n      swap1\n      dup2\n      dup2\n      mstore\n      0x20\n      add\n      0x00\n      swap1\n    tag_42:\n      dup3\n      dup3\n      lt\n      iszero\n      tag_43\n      jumpi\n      dup4\n      dup3\n      swap1\n      0x00\n      mstore\n      keccak256(0x00, 0x20)\n      swap1\n      0x03\n      mul\n      add\n      mload(0x40)\n      dup1\n      0x60\n      add\n      0x40\n      mstore\n      swap1\n      dup2\n      0x00\n      dup3\n      add\n      dup1\n      sload\n      tag_45\n      swap1\n      tag_36\n      jump\t// in\n    tag_45:\n      dup1\n      0x1f\n      add\n      0x20\n      dup1\n      swap2\n      div\n      mul\n      0x20\n      add\n      mload(0x40)\n      swap1\n      dup2\n      add\n      0x40\n      mstore\n      dup1\n      swap3\n      swap2\n      swap1\n      dup2\n      dup2\n      mstore\n      0x20\n      add\n      dup3\n      dup1\n      sload\n      tag_46\n      swap1\n      tag_36\n      jump\t// in\n    tag_46:\n      dup1\n      iszero\n      tag_47\n      jumpi\n      dup1\n      0x1f\n      lt\n      tag_48\n      jumpi\n      0x0100\n      dup1\n      dup4\n      sload\n      div\n      mul\n      dup4\n      mstore\n      swap2\n      0x20\n      add\n      swap2\n      jump(tag_47)\n    tag_48:\n      dup3\n      add\n      swap2\n      swap1\n      0x00\n      mstore\n      keccak256(0x00, 0x20)\n      swap1\n    tag_49:\n      dup2\n      sload\n      dup2\n      mstore\n      swap1\n      0x01\n      add\n      swap1\n      0x20\n      add\n      dup1\n      dup4\n      gt\n      tag_49\n      jumpi\n      dup3\n      swap1\n      sub\n      0x1f\n      and\n      dup3\n      add\n      swap2\n    tag_47:\n      pop\n      pop\n      pop\n      pop\n      pop\n      dup2\n      mstore\n      0x20\n      add\n      0x01\n      dup3\n      add\n      sload\n      dup2\n      mstore\n      0x20\n      add\n      0x02\n      dup3\n      add\n      sload\n      dup2\n      mstore\n      pop\n      pop\n      dup2\n      mstore\n      0x20\n      add\n      swap1\n      0x01\n      add\n      swap1\n      jump(tag_42)\n    tag_43:\n      pop\n      pop\n      pop\n      pop\n      swap1\n      pop\n        /* \"contracts/schoolRegister.sol\":3396:3414  uint256 matchCount */\n      0x00\n        /* \"contracts/schoolRegister.sol\":3430:3436  uint i */\n      dup1\n        /* \"contracts/schoolRegister.sol\":3425:3572  for (uint i = 0; i < schoolRecords[msg.sender].length; i++) {... */\n    tag_50:\n        /* \"contracts/schoolRegister.sol\":3446:3459  schoolRecords */\n      0x01\n        /* \"contracts/schoolRegister.sol\":3446:3471  schoolRecords[msg.sender] */\n      0x00\n        /* \"contracts/schoolRegister.sol\":3460:3470  msg.sender */\n      caller\n        /* \"contracts/schoolRegister.sol\":3446:3471  schoolRecords[msg.sender] */\n      0xffffffffffffffffffffffffffffffffffffffff\n      and\n      0xffffffffffffffffffffffffffffffffffffffff\n      and\n      dup2\n      mstore\n      0x20\n      add\n      swap1\n      dup2\n      mstore\n      0x20\n      add\n      0x00\n      keccak256\n        /* \"contracts/schoolRegister.sol\":3446:3478  schoolRecords[msg.sender].length */\n      dup1\n      sload\n      swap1\n      pop\n        /* \"contracts/schoolRegister.sol\":3442:3443  i */\n      dup2\n        /* \"contracts/schoolRegister.sol\":3442:3478  i < schoolRecords[msg.sender].length */\n      lt\n        /* \"contracts/schoolRegister.sol\":3425:3572  for (uint i = 0; i < schoolRecords[msg.sender].length; i++) {... */\n      iszero\n      tag_51\n      jumpi\n        /* \"contracts/schoolRegister.sol\":3535:3538  _id */\n      dup5\n        /* \"contracts/schoolRegister.sol\":3500:3513  schoolRecords */\n      0x01\n        /* \"contracts/schoolRegister.sol\":3500:3525  schoolRecords[msg.sender] */\n      0x00\n        /* \"contracts/schoolRegister.sol\":3514:3524  msg.sender */\n      caller\n        /* \"contracts/schoolRegister.sol\":3500:3525  schoolRecords[msg.sender] */\n      0xffffffffffffffffffffffffffffffffffffffff\n      and\n      0xffffffffffffffffffffffffffffffffffffffff\n      and\n      dup2\n      mstore\n      0x20\n      add\n      swap1\n      dup2\n      mstore\n      0x20\n      add\n      0x00\n      keccak256\n        /* \"contracts/schoolRegister.sol\":3526:3527  i */\n      dup3\n        /* \"contracts/schoolRegister.sol\":3500:3528  schoolRecords[msg.sender][i] */\n      dup2\n      sload\n      dup2\n      lt\n      tag_53\n      jumpi\n      tag_54\n      tag_55\n      jump\t// in\n    tag_54:\n    tag_53:\n      swap1\n      0x00\n      mstore\n      keccak256(0x00, 0x20)\n      swap1\n      0x03\n      mul\n      add\n        /* \"contracts/schoolRegister.sol\":3500:3531  schoolRecords[msg.sender][i].id */\n      0x01\n      add\n      sload\n        /* \"contracts/schoolRegister.sol\":3500:3538  schoolRecords[msg.sender][i].id != _id */\n      sub\n        /* \"contracts/schoolRegister.sol\":3492:3568  require(schoolRecords[msg.sender][i].id != _id, \"Student ID already exists\") */\n      tag_57\n      jumpi\n      mload(0x40)\n      0x08c379a000000000000000000000000000000000000000000000000000000000\n      dup2\n      mstore\n      0x04\n      add\n      tag_58\n      swap1\n      tag_59\n      jump\t// in\n    tag_58:\n      mload(0x40)\n      dup1\n      swap2\n      sub\n      swap1\n      revert\n    tag_57:\n        /* \"contracts/schoolRegister.sol\":3480:3483  i++ */\n      dup1\n      dup1\n      tag_60\n      swap1\n      tag_61\n      jump\t// in\n    tag_60:\n      swap2\n      pop\n      pop\n        /* \"contracts/schoolRegister.sol\":3425:3572  for (uint i = 0; i < schoolRecords[msg.sender].length; i++) {... */\n      jump(tag_50)\n    tag_51:\n      pop\n        /* \"contracts/schoolRegister.sol\":3586:3619  Register[] memory matchedStudents */\n      0x00\n        /* \"contracts/schoolRegister.sol\":3637:3647  matchCount */\n      dup2\n        /* \"contracts/schoolRegister.sol\":3622:3648  new Register[](matchCount) */\n      0xffffffffffffffff\n      dup2\n      gt\n      iszero\n      tag_62\n      jumpi\n      tag_63\n      tag_64\n      jump\t// in\n    tag_63:\n    tag_62:\n      mload(0x40)\n      swap1\n      dup1\n      dup3\n      mstore\n      dup1\n      0x20\n      mul\n      0x20\n      add\n      dup3\n      add\n      0x40\n      mstore\n      dup1\n      iszero\n      tag_65\n      jumpi\n      dup2\n      0x20\n      add\n    tag_66:\n      tag_67\n      tag_68\n      jump\t// in\n    tag_67:\n      dup2\n      mstore\n      0x20\n      add\n      swap1\n      0x01\n      swap1\n      sub\n      swap1\n      dup2\n      tag_66\n      jumpi\n      swap1\n      pop\n    tag_65:\n      pop\n        /* \"contracts/schoolRegister.sol\":3586:3648  Register[] memory matchedStudents = new Register[](matchCount) */\n      swap1\n      pop\n        /* \"contracts/schoolRegister.sol\":3659:3672  uint256 index */\n      0x00\n        /* \"contracts/schoolRegister.sol\":3694:3703  uint256 i */\n      dup1\n        /* \"contracts/schoolRegister.sol\":3689:3900  for (uint256 i = 0; i < records.length; i++) {... */\n    tag_69:\n        /* \"contracts/schoolRegister.sol\":3713:3720  records */\n      dup5\n        /* \"contracts/schoolRegister.sol\":3713:3727  records.length */\n      mload\n        /* \"contracts/schoolRegister.sol\":3709:3710  i */\n      dup2\n        /* \"contracts/schoolRegister.sol\":3709:3727  i < records.length */\n      lt\n        /* \"contracts/schoolRegister.sol\":3689:3900  for (uint256 i = 0; i < records.length; i++) {... */\n      iszero\n      tag_70\n      jumpi\n        /* \"contracts/schoolRegister.sol\":3779:3791  _classNumber */\n      dup8\n        /* \"contracts/schoolRegister.sol\":3753:3760  records */\n      dup6\n        /* \"contracts/schoolRegister.sol\":3761:3762  i */\n      dup3\n        /* \"contracts/schoolRegister.sol\":3753:3763  records[i] */\n      dup2\n      mload\n      dup2\n      lt\n      tag_72\n      jumpi\n      tag_73\n      tag_55\n      jump\t// in\n    tag_73:\n    tag_72:\n      0x20\n      mul\n      0x20\n      add\n      add\n      mload\n        /* \"contracts/schoolRegister.sol\":3753:3775  records[i].classNumber */\n      0x40\n      add\n      mload\n        /* \"contracts/schoolRegister.sol\":3753:3791  records[i].classNumber == _classNumber */\n      sub\n        /* \"contracts/schoolRegister.sol\":3749:3889  if (records[i].classNumber == _classNumber) {... */\n      tag_74\n      jumpi\n        /* \"contracts/schoolRegister.sol\":3837:3844  records */\n      dup5\n        /* \"contracts/schoolRegister.sol\":3845:3846  i */\n      dup2\n        /* \"contracts/schoolRegister.sol\":3837:3847  records[i] */\n      dup2\n      mload\n      dup2\n      lt\n      tag_75\n      jumpi\n      tag_76\n      tag_55\n      jump\t// in\n    tag_76:\n    tag_75:\n      0x20\n      mul\n      0x20\n      add\n      add\n      mload\n        /* \"contracts/schoolRegister.sol\":3812:3827  matchedStudents */\n      dup4\n        /* \"contracts/schoolRegister.sol\":3828:3833  index */\n      dup4\n        /* \"contracts/schoolRegister.sol\":3812:3834  matchedStudents[index] */\n      dup2\n      mload\n      dup2\n      lt\n      tag_77\n      jumpi\n      tag_78\n      tag_55\n      jump\t// in\n    tag_78:\n    tag_77:\n      0x20\n      mul\n      0x20\n      add\n      add\n        /* \"contracts/schoolRegister.sol\":3812:3847  matchedStudents[index] = records[i] */\n      dup2\n      swap1\n      mstore\n      pop\n        /* \"contracts/schoolRegister.sol\":3866:3873  index++ */\n      dup2\n      dup1\n      tag_79\n      swap1\n      tag_61\n      jump\t// in\n    tag_79:\n      swap3\n      pop\n      pop\n        /* \"contracts/schoolRegister.sol\":3749:3889  if (records[i].classNumber == _classNumber) {... */\n    tag_74:\n        /* \"contracts/schoolRegister.sol\":3729:3732  i++ */\n      dup1\n      dup1\n      tag_80\n      swap1\n      tag_61\n      jump\t// in\n    tag_80:\n      swap2\n      pop\n      pop\n        /* \"contracts/schoolRegister.sol\":3689:3900  for (uint256 i = 0; i < records.length; i++) {... */\n      jump(tag_69)\n    tag_70:\n      pop\n        /* \"contracts/schoolRegister.sol\":3919:3934  matchedStudents */\n      dup2\n        /* \"contracts/schoolRegister.sol\":3912:3934  return matchedStudents */\n      swap5\n      pop\n      pop\n      pop\n      pop\n      pop\n        /* \"contracts/schoolRegister.sol\":3214:3942  function getStudentsByClass(uint256 _classNumber, uint256 _id) external view returns (Register[] memory) {... */\n      swap3\n      swap2\n      pop\n      pop\n      jump\t// out\n        /* \"contracts/schoolRegister.sol\":1146:2280  function registerStudent(... */\n    tag_24:\n        /* \"contracts/schoolRegister.sol\":697:702  owner */\n      0x00\n      dup1\n      sload\n      swap1\n      0x0100\n      exp\n      swap1\n      div\n      0xffffffffffffffffffffffffffffffffffffffff\n      and\n        /* \"contracts/schoolRegister.sol\":683:702  msg.sender == owner */\n      0xffffffffffffffffffffffffffffffffffffffff\n      and\n        /* \"contracts/schoolRegister.sol\":683:693  msg.sender */\n      caller\n        /* \"contracts/schoolRegister.sol\":683:702  msg.sender == owner */\n      0xffffffffffffffffffffffffffffffffffffffff\n      and\n      eq\n        /* \"contracts/schoolRegister.sol\":675:760  require(msg.sender == owner, \"Unauthorized: Only the school can perform this action\") */\n      tag_82\n      jumpi\n      mload(0x40)\n      0x08c379a000000000000000000000000000000000000000000000000000000000\n      dup2\n      mstore\n      0x04\n      add\n      tag_83\n      swap1\n      tag_84\n      jump\t// in\n    tag_83:\n      mload(0x40)\n      dup1\n      swap2\n      sub\n      swap1\n      revert\n    tag_82:\n        /* \"contracts/schoolRegister.sol\":1344:1345  0 */\n      0x00\n        /* \"contracts/schoolRegister.sol\":1326:1346  school != address(0) */\n      0xffffffffffffffffffffffffffffffffffffffff\n      and\n        /* \"contracts/schoolRegister.sol\":1326:1332  school */\n      dup6\n        /* \"contracts/schoolRegister.sol\":1326:1346  school != address(0) */\n      0xffffffffffffffffffffffffffffffffffffffff\n      and\n      sub\n        /* \"contracts/schoolRegister.sol\":1318:1373  require(school != address(0), \"Invalid school address\") */\n      tag_86\n      jumpi\n      mload(0x40)\n      0x08c379a000000000000000000000000000000000000000000000000000000000\n      dup2\n      mstore\n      0x04\n      add\n      tag_87\n      swap1\n      tag_88\n      jump\t// in\n    tag_87:\n      mload(0x40)\n      dup1\n      swap2\n      sub\n      swap1\n      revert\n    tag_86:\n        /* \"contracts/schoolRegister.sol\":1414:1415  0 */\n      0x00\n        /* \"contracts/schoolRegister.sol\":1398:1403  _name */\n      dup5\n      dup5\n        /* \"contracts/schoolRegister.sol\":1392:1411  bytes(_name).length */\n      swap1\n      pop\n        /* \"contracts/schoolRegister.sol\":1392:1415  bytes(_name).length > 0 */\n      gt\n        /* \"contracts/schoolRegister.sol\":1384:1444  require(bytes(_name).length > 0, \"Student name is required\") */\n      tag_89\n      jumpi\n      mload(0x40)\n      0x08c379a000000000000000000000000000000000000000000000000000000000\n      dup2\n      mstore\n      0x04\n      add\n      tag_90\n      swap1\n      tag_91\n      jump\t// in\n    tag_90:\n      mload(0x40)\n      dup1\n      swap2\n      sub\n      swap1\n      revert\n    tag_89:\n        /* \"contracts/schoolRegister.sol\":1469:1470  0 */\n      0x00\n        /* \"contracts/schoolRegister.sol\":1463:1466  _id */\n      dup3\n        /* \"contracts/schoolRegister.sol\":1463:1470  _id > 0 */\n      gt\n        /* \"contracts/schoolRegister.sol\":1455:1493  require(_id > 0, \"Invalid student ID\") */\n      tag_92\n      jumpi\n      mload(0x40)\n      0x08c379a000000000000000000000000000000000000000000000000000000000\n      dup2\n      mstore\n      0x04\n      add\n      tag_93\n      swap1\n      tag_94\n      jump\t// in\n    tag_93:\n      mload(0x40)\n      dup1\n      swap2\n      sub\n      swap1\n      revert\n    tag_92:\n        /* \"contracts/schoolRegister.sol\":1527:1528  0 */\n      0x00\n        /* \"contracts/schoolRegister.sol\":1512:1524  _classNumber */\n      dup2\n        /* \"contracts/schoolRegister.sol\":1512:1528  _classNumber > 0 */\n      gt\n        /* \"contracts/schoolRegister.sol\":1504:1553  require(_classNumber > 0, \"Invalid class number\") */\n      tag_95\n      jumpi\n      mload(0x40)\n      0x08c379a000000000000000000000000000000000000000000000000000000000\n      dup2\n      mstore\n      0x04\n      add\n      tag_96\n      swap1\n      tag_97\n      jump\t// in\n    tag_96:\n      mload(0x40)\n      dup1\n      swap2\n      sub\n      swap1\n      revert\n    tag_95:\n        /* \"contracts/schoolRegister.sol\":1566:1592  Register[] storage records */\n      0x00\n        /* \"contracts/schoolRegister.sol\":1595:1608  schoolRecords */\n      0x01\n        /* \"contracts/schoolRegister.sol\":1595:1616  schoolRecords[school] */\n      0x00\n        /* \"contracts/schoolRegister.sol\":1609:1615  school */\n      dup8\n        /* \"contracts/schoolRegister.sol\":1595:1616  schoolRecords[school] */\n      0xffffffffffffffffffffffffffffffffffffffff\n      and\n      0xffffffffffffffffffffffffffffffffffffffff\n      and\n      dup2\n      mstore\n      0x20\n      add\n      swap1\n      dup2\n      mstore\n      0x20\n      add\n      0x00\n      keccak256\n        /* \"contracts/schoolRegister.sol\":1566:1616  Register[] storage records = schoolRecords[school] */\n      swap1\n      pop\n        /* \"contracts/schoolRegister.sol\":1721:1733  _classNumber */\n      dup2\n        /* \"contracts/schoolRegister.sol\":1714:1717  _id */\n      dup4\n        /* \"contracts/schoolRegister.sol\":1714:1733  _id != _classNumber */\n      sub\n        /* \"contracts/schoolRegister.sol\":1706:1784  require(_id != _classNumber, \"Fraud detected: ID must not match class number\") */\n      tag_98\n      jumpi\n      mload(0x40)\n      0x08c379a000000000000000000000000000000000000000000000000000000000\n      dup2\n      mstore\n      0x04\n      add\n      tag_99\n      swap1\n      tag_100\n      jump\t// in\n    tag_99:\n      mload(0x40)\n      dup1\n      swap2\n      sub\n      swap1\n      revert\n    tag_98:\n        /* \"contracts/schoolRegister.sol\":1853:1862  uint256 i */\n      0x00\n        /* \"contracts/schoolRegister.sol\":1848:2016  for (uint256 i = 0; i < records.length; i++) {... */\n    tag_101:\n        /* \"contracts/schoolRegister.sol\":1872:1879  records */\n      dup2\n        /* \"contracts/schoolRegister.sol\":1872:1886  records.length */\n      dup1\n      sload\n      swap1\n      pop\n        /* \"contracts/schoolRegister.sol\":1868:1869  i */\n      dup2\n        /* \"contracts/schoolRegister.sol\":1868:1886  i < records.length */\n      lt\n        /* \"contracts/schoolRegister.sol\":1848:2016  for (uint256 i = 0; i < records.length; i++) {... */\n      iszero\n      tag_102\n      jumpi\n        /* \"contracts/schoolRegister.sol\":1933:1936  _id */\n      dup4\n        /* \"contracts/schoolRegister.sol\":1916:1923  records */\n      dup3\n        /* \"contracts/schoolRegister.sol\":1924:1925  i */\n      dup3\n        /* \"contracts/schoolRegister.sol\":1916:1926  records[i] */\n      dup2\n      sload\n      dup2\n      lt\n      tag_104\n      jumpi\n      tag_105\n      tag_55\n      jump\t// in\n    tag_105:\n    tag_104:\n      swap1\n      0x00\n      mstore\n      keccak256(0x00, 0x20)\n      swap1\n      0x03\n      mul\n      add\n        /* \"contracts/schoolRegister.sol\":1916:1929  records[i].id */\n      0x01\n      add\n      sload\n        /* \"contracts/schoolRegister.sol\":1916:1936  records[i].id != _id */\n      sub\n        /* \"contracts/schoolRegister.sol\":1908:2004  require(records[i].id != _id, \"Student ID already exists for this school get the fuck you scam\") */\n      tag_107\n      jumpi\n      mload(0x40)\n      0x08c379a000000000000000000000000000000000000000000000000000000000\n      dup2\n      mstore\n      0x04\n      add\n      tag_108\n      swap1\n      tag_109\n      jump\t// in\n    tag_108:\n      mload(0x40)\n      dup1\n      swap2\n      sub\n      swap1\n      revert\n    tag_107:\n        /* \"contracts/schoolRegister.sol\":1888:1891  i++ */\n      dup1\n      dup1\n      tag_110\n      swap1\n      tag_61\n      jump\t// in\n    tag_110:\n      swap2\n      pop\n      pop\n        /* \"contracts/schoolRegister.sol\":1848:2016  for (uint256 i = 0; i < records.length; i++) {... */\n      jump(tag_101)\n    tag_102:\n      pop\n        /* \"contracts/schoolRegister.sol\":2028:2054  Register memory newStudent */\n      0x00\n        /* \"contracts/schoolRegister.sol\":2057:2166  Register({... */\n      mload(0x40)\n      dup1\n      0x60\n      add\n      0x40\n      mstore\n      dup1\n        /* \"contracts/schoolRegister.sol\":2087:2092  _name */\n      dup8\n      dup8\n        /* \"contracts/schoolRegister.sol\":2057:2166  Register({... */\n      dup1\n      dup1\n      0x1f\n      add\n      0x20\n      dup1\n      swap2\n      div\n      mul\n      0x20\n      add\n      mload(0x40)\n      swap1\n      dup2\n      add\n      0x40\n      mstore\n      dup1\n      swap4\n      swap3\n      swap2\n      swap1\n      dup2\n      dup2\n      mstore\n      0x20\n      add\n      dup4\n      dup4\n      dup1\n      dup3\n      dup5\n      calldatacopy\n      0x00\n      dup2\n      dup5\n      add\n      mstore\n      not(0x1f)\n      0x1f\n      dup3\n      add\n      and\n      swap1\n      pop\n      dup1\n      dup4\n      add\n      swap3\n      pop\n      pop\n      pop\n      pop\n      pop\n      pop\n      pop\n      dup2\n      mstore\n      0x20\n      add\n        /* \"contracts/schoolRegister.sol\":2111:2114  _id */\n      dup6\n        /* \"contracts/schoolRegister.sol\":2057:2166  Register({... */\n      dup2\n      mstore\n      0x20\n      add\n        /* \"contracts/schoolRegister.sol\":2142:2154  _classNumber */\n      dup5\n        /* \"contracts/schoolRegister.sol\":2057:2166  Register({... */\n      dup2\n      mstore\n      pop\n        /* \"contracts/schoolRegister.sol\":2028:2166  Register memory newStudent = Register({... */\n      swap1\n      pop\n        /* \"contracts/schoolRegister.sol\":2179:2186  records */\n      dup2\n        /* \"contracts/schoolRegister.sol\":2192:2202  newStudent */\n      dup2\n        /* \"contracts/schoolRegister.sol\":2179:2203  records.push(newStudent) */\n      swap1\n      dup1\n      0x01\n      dup2\n      sload\n      add\n      dup1\n      dup3\n      sstore\n      dup1\n      swap2\n      pop\n      pop\n      0x01\n      swap1\n      sub\n      swap1\n      0x00\n      mstore\n      keccak256(0x00, 0x20)\n      swap1\n      0x03\n      mul\n      add\n      0x00\n      swap1\n      swap2\n      swap1\n      swap2\n      swap1\n      swap2\n      pop\n      0x00\n      dup3\n      add\n      mload\n      dup2\n      0x00\n      add\n      swap1\n      dup2\n      tag_112\n      swap2\n      swap1\n      tag_113\n      jump\t// in\n    tag_112:\n      pop\n      0x20\n      dup3\n      add\n      mload\n      dup2\n      0x01\n      add\n      sstore\n      0x40\n      dup3\n      add\n      mload\n      dup2\n      0x02\n      add\n      sstore\n      pop\n      pop\n        /* \"contracts/schoolRegister.sol\":2239:2245  school */\n      dup7\n        /* \"contracts/schoolRegister.sol\":2221:2272  StudentRegistered(school, _name, _id, _classNumber) */\n      0xffffffffffffffffffffffffffffffffffffffff\n      and\n      0x9e3803b806eecbb36801bc43baf9ae4ed379a05cec5345dece692d6dcb297cfd\n        /* \"contracts/schoolRegister.sol\":2247:2252  _name */\n      dup8\n      dup8\n        /* \"contracts/schoolRegister.sol\":2254:2257  _id */\n      dup8\n        /* \"contracts/schoolRegister.sol\":2259:2271  _classNumber */\n      dup8\n        /* \"contracts/schoolRegister.sol\":2221:2272  StudentRegistered(school, _name, _id, _classNumber) */\n      mload(0x40)\n      tag_114\n      swap5\n      swap4\n      swap3\n      swap2\n      swap1\n      tag_115\n      jump\t// in\n    tag_114:\n      mload(0x40)\n      dup1\n      swap2\n      sub\n      swap1\n      log2\n        /* \"contracts/schoolRegister.sol\":1307:2280  {... */\n      pop\n      pop\n        /* \"contracts/schoolRegister.sol\":1146:2280  function registerStudent(... */\n      pop\n      pop\n      pop\n      pop\n      pop\n      jump\t// out\n        /* \"contracts/schoolRegister.sol\":2673:3043  function getStudentRecordById(uint256 _id) external view returns (Register memory) {... */\n    tag_28:\n        /* \"contracts/schoolRegister.sol\":2739:2754  Register memory */\n      tag_116\n      tag_68\n      jump\t// in\n    tag_116:\n        /* \"contracts/schoolRegister.sol\":2767:2792  Register[] memory records */\n      0x00\n        /* \"contracts/schoolRegister.sol\":2795:2808  schoolRecords */\n      0x01\n        /* \"contracts/schoolRegister.sol\":2795:2820  schoolRecords[msg.sender] */\n      0x00\n        /* \"contracts/schoolRegister.sol\":2809:2819  msg.sender */\n      caller\n        /* \"contracts/schoolRegister.sol\":2795:2820  schoolRecords[msg.sender] */\n      0xffffffffffffffffffffffffffffffffffffffff\n      and\n      0xffffffffffffffffffffffffffffffffffffffff\n      and\n      dup2\n      mstore\n      0x20\n      add\n      swap1\n      dup2\n      mstore\n      0x20\n      add\n      0x00\n      keccak256\n        /* \"contracts/schoolRegister.sol\":2767:2820  Register[] memory records = schoolRecords[msg.sender] */\n      dup1\n      sload\n      dup1\n      0x20\n      mul\n      0x20\n      add\n      mload(0x40)\n      swap1\n      dup2\n      add\n      0x40\n      mstore\n      dup1\n      swap3\n      swap2\n      swap1\n      dup2\n      dup2\n      mstore\n      0x20\n      add\n      0x00\n      swap1\n    tag_118:\n      dup3\n      dup3\n      lt\n      iszero\n      tag_119\n      jumpi\n      dup4\n      dup3\n      swap1\n      0x00\n      mstore\n      keccak256(0x00, 0x20)\n      swap1\n      0x03\n      mul\n      add\n      mload(0x40)\n      dup1\n      0x60\n      add\n      0x40\n      mstore\n      swap1\n      dup2\n      0x00\n      dup3\n      add\n      dup1\n      sload\n      tag_121\n      swap1\n      tag_36\n      jump\t// in\n    tag_121:\n      dup1\n      0x1f\n      add\n      0x20\n      dup1\n      swap2\n      div\n      mul\n      0x20\n      add\n      mload(0x40)\n      swap1\n      dup2\n      add\n      0x40\n      mstore\n      dup1\n      swap3\n      swap2\n      swap1\n      dup2\n      dup2\n      mstore\n      0x20\n      add\n      dup3\n      dup1\n      sload\n      tag_122\n      swap1\n      tag_36\n      jump\t// in\n    tag_122:\n      dup1\n      iszero\n      tag_123\n      jumpi\n      dup1\n      0x1f\n      lt\n      tag_124\n      jumpi\n      0x0100\n      dup1\n      dup4\n      sload\n      div\n      mul\n      dup4\n      mstore\n      swap2\n      0x20\n      add\n      swap2\n      jump(tag_123)\n    tag_124:\n      dup3\n      add\n      swap2\n      swap1\n      0x00\n      mstore\n      keccak256(0x00, 0x20)\n      swap1\n    tag_125:\n      dup2\n      sload\n      dup2\n      mstore\n      swap1\n      0x01\n      add\n      swap1\n      0x20\n      add\n      dup1\n      dup4\n      gt\n      tag_125\n      jumpi\n      dup3\n      swap1\n      sub\n      0x1f\n      and\n      dup3\n      add\n      swap2\n    tag_123:\n      pop\n      pop\n      pop\n      pop\n      pop\n      dup2\n      mstore\n      0x20\n      add\n      0x01\n      dup3\n      add\n      sload\n      dup2\n      mstore\n      0x20\n      add\n      0x02\n      dup3\n      add\n      sload\n      dup2\n      mstore\n      pop\n      pop\n      dup2\n      mstore\n      0x20\n      add\n      swap1\n      0x01\n      add\n      swap1\n      jump(tag_118)\n    tag_119:\n      pop\n      pop\n      pop\n      pop\n      swap1\n      pop\n        /* \"contracts/schoolRegister.sol\":2838:2847  uint256 i */\n      0x00\n        /* \"contracts/schoolRegister.sol\":2833:2982  for (uint256 i = 0; i < records.length; i++) {... */\n    tag_126:\n        /* \"contracts/schoolRegister.sol\":2857:2864  records */\n      dup2\n        /* \"contracts/schoolRegister.sol\":2857:2871  records.length */\n      mload\n        /* \"contracts/schoolRegister.sol\":2853:2854  i */\n      dup2\n        /* \"contracts/schoolRegister.sol\":2853:2871  i < records.length */\n      lt\n        /* \"contracts/schoolRegister.sol\":2833:2982  for (uint256 i = 0; i < records.length; i++) {... */\n      iszero\n      tag_127\n      jumpi\n        /* \"contracts/schoolRegister.sol\":2914:2917  _id */\n      dup4\n        /* \"contracts/schoolRegister.sol\":2897:2904  records */\n      dup3\n        /* \"contracts/schoolRegister.sol\":2905:2906  i */\n      dup3\n        /* \"contracts/schoolRegister.sol\":2897:2907  records[i] */\n      dup2\n      mload\n      dup2\n      lt\n      tag_129\n      jumpi\n      tag_130\n      tag_55\n      jump\t// in\n    tag_130:\n    tag_129:\n      0x20\n      mul\n      0x20\n      add\n      add\n      mload\n        /* \"contracts/schoolRegister.sol\":2897:2910  records[i].id */\n      0x20\n      add\n      mload\n        /* \"contracts/schoolRegister.sol\":2897:2917  records[i].id == _id */\n      sub\n        /* \"contracts/schoolRegister.sol\":2893:2971  if (records[i].id == _id) {... */\n      tag_131\n      jumpi\n        /* \"contracts/schoolRegister.sol\":2945:2952  records */\n      dup2\n        /* \"contracts/schoolRegister.sol\":2953:2954  i */\n      dup2\n        /* \"contracts/schoolRegister.sol\":2945:2955  records[i] */\n      dup2\n      mload\n      dup2\n      lt\n      tag_132\n      jumpi\n      tag_133\n      tag_55\n      jump\t// in\n    tag_133:\n    tag_132:\n      0x20\n      mul\n      0x20\n      add\n      add\n      mload\n        /* \"contracts/schoolRegister.sol\":2938:2955  return records[i] */\n      swap3\n      pop\n      pop\n      pop\n      jump(tag_117)\n        /* \"contracts/schoolRegister.sol\":2893:2971  if (records[i].id == _id) {... */\n    tag_131:\n        /* \"contracts/schoolRegister.sol\":2873:2876  i++ */\n      dup1\n      dup1\n      tag_134\n      swap1\n      tag_61\n      jump\t// in\n    tag_134:\n      swap2\n      pop\n      pop\n        /* \"contracts/schoolRegister.sol\":2833:2982  for (uint256 i = 0; i < records.length; i++) {... */\n      jump(tag_126)\n    tag_127:\n      pop\n        /* \"contracts/schoolRegister.sol\":2994:3035  revert(\"Student with given ID not found\") */\n      mload(0x40)\n      0x08c379a000000000000000000000000000000000000000000000000000000000\n      dup2\n      mstore\n      0x04\n      add\n      tag_135\n      swap1\n      tag_136\n      jump\t// in\n    tag_135:\n      mload(0x40)\n      dup1\n      swap2\n      sub\n      swap1\n      revert\n        /* \"contracts/schoolRegister.sol\":2673:3043  function getStudentRecordById(uint256 _id) external view returns (Register memory) {... */\n    tag_117:\n      swap2\n      swap1\n      pop\n      jump\t// out\n    tag_68:\n      mload(0x40)\n      dup1\n      0x60\n      add\n      0x40\n      mstore\n      dup1\n      0x60\n      dup2\n      mstore\n      0x20\n      add\n      0x00\n      dup2\n      mstore\n      0x20\n      add\n      0x00\n      dup2\n      mstore\n      pop\n      swap1\n      jump\t// out\n        /* \"#utility.yul\":7:144   */\n    tag_137:\n        /* \"#utility.yul\":97:103   */\n      0x00\n        /* \"#utility.yul\":131:136   */\n      dup2\n        /* \"#utility.yul\":125:137   */\n      mload\n        /* \"#utility.yul\":115:137   */\n      swap1\n      pop\n        /* \"#utility.yul\":7:144   */\n      swap2\n      swap1\n      pop\n      jump\t// out\n        /* \"#utility.yul\":150:357   */\n    tag_138:\n        /* \"#utility.yul\":272:283   */\n      0x00\n        /* \"#utility.yul\":306:312   */\n      dup3\n        /* \"#utility.yul\":301:304   */\n      dup3\n        /* \"#utility.yul\":294:313   */\n      mstore\n        /* \"#utility.yul\":346:350   */\n      0x20\n        /* \"#utility.yul\":341:344   */\n      dup3\n        /* \"#utility.yul\":337:351   */\n      add\n        /* \"#utility.yul\":322:351   */\n      swap1\n      pop\n        /* \"#utility.yul\":150:357   */\n      swap3\n      swap2\n      pop\n      pop\n      jump\t// out\n        /* \"#utility.yul\":363:518   */\n    tag_139:\n        /* \"#utility.yul\":453:457   */\n      0x00\n        /* \"#utility.yul\":476:479   */\n      dup2\n        /* \"#utility.yul\":468:479   */\n      swap1\n      pop\n        /* \"#utility.yul\":506:510   */\n      0x20\n        /* \"#utility.yul\":501:504   */\n      dup3\n        /* \"#utility.yul\":497:511   */\n      add\n        /* \"#utility.yul\":489:511   */\n      swap1\n      pop\n        /* \"#utility.yul\":363:518   */\n      swap2\n      swap1\n      pop\n      jump\t// out\n        /* \"#utility.yul\":524:623   */\n    tag_140:\n        /* \"#utility.yul\":576:582   */\n      0x00\n        /* \"#utility.yul\":610:615   */\n      dup2\n        /* \"#utility.yul\":604:616   */\n      mload\n        /* \"#utility.yul\":594:616   */\n      swap1\n      pop\n        /* \"#utility.yul\":524:623   */\n      swap2\n      swap1\n      pop\n      jump\t// out\n        /* \"#utility.yul\":629:788   */\n    tag_141:\n        /* \"#utility.yul\":703:714   */\n      0x00\n        /* \"#utility.yul\":737:743   */\n      dup3\n        /* \"#utility.yul\":732:735   */\n      dup3\n        /* \"#utility.yul\":725:744   */\n      mstore\n        /* \"#utility.yul\":777:781   */\n      0x20\n        /* \"#utility.yul\":772:775   */\n      dup3\n        /* \"#utility.yul\":768:782   */\n      add\n        /* \"#utility.yul\":753:782   */\n      swap1\n      pop\n        /* \"#utility.yul\":629:788   */\n      swap3\n      swap2\n      pop\n      pop\n      jump\t// out\n        /* \"#utility.yul\":794:1040   */\n    tag_142:\n        /* \"#utility.yul\":875:876   */\n      0x00\n        /* \"#utility.yul\":885:998   */\n    tag_212:\n        /* \"#utility.yul\":899:905   */\n      dup4\n        /* \"#utility.yul\":896:897   */\n      dup2\n        /* \"#utility.yul\":893:906   */\n      lt\n        /* \"#utility.yul\":885:998   */\n      iszero\n      tag_214\n      jumpi\n        /* \"#utility.yul\":984:985   */\n      dup1\n        /* \"#utility.yul\":979:982   */\n      dup3\n        /* \"#utility.yul\":975:986   */\n      add\n        /* \"#utility.yul\":969:987   */\n      mload\n        /* \"#utility.yul\":965:966   */\n      dup2\n        /* \"#utility.yul\":960:963   */\n      dup5\n        /* \"#utility.yul\":956:967   */\n      add\n        /* \"#utility.yul\":949:988   */\n      mstore\n        /* \"#utility.yul\":921:923   */\n      0x20\n        /* \"#utility.yul\":918:919   */\n      dup2\n        /* \"#utility.yul\":914:924   */\n      add\n        /* \"#utility.yul\":909:924   */\n      swap1\n      pop\n        /* \"#utility.yul\":885:998   */\n      jump(tag_212)\n    tag_214:\n        /* \"#utility.yul\":1032:1033   */\n      0x00\n        /* \"#utility.yul\":1023:1029   */\n      dup5\n        /* \"#utility.yul\":1018:1021   */\n      dup5\n        /* \"#utility.yul\":1014:1030   */\n      add\n        /* \"#utility.yul\":1007:1034   */\n      mstore\n        /* \"#utility.yul\":856:1040   */\n      pop\n        /* \"#utility.yul\":794:1040   */\n      pop\n      pop\n      pop\n      jump\t// out\n        /* \"#utility.yul\":1046:1148   */\n    tag_143:\n        /* \"#utility.yul\":1087:1093   */\n      0x00\n        /* \"#utility.yul\":1138:1140   */\n      0x1f\n        /* \"#utility.yul\":1134:1141   */\n      not\n        /* \"#utility.yul\":1129:1131   */\n      0x1f\n        /* \"#utility.yul\":1122:1127   */\n      dup4\n        /* \"#utility.yul\":1118:1132   */\n      add\n        /* \"#utility.yul\":1114:1142   */\n      and\n        /* \"#utility.yul\":1104:1142   */\n      swap1\n      pop\n        /* \"#utility.yul\":1046:1148   */\n      swap2\n      swap1\n      pop\n      jump\t// out\n        /* \"#utility.yul\":1154:1511   */\n    tag_144:\n        /* \"#utility.yul\":1232:1235   */\n      0x00\n        /* \"#utility.yul\":1260:1299   */\n      tag_217\n        /* \"#utility.yul\":1293:1298   */\n      dup3\n        /* \"#utility.yul\":1260:1299   */\n      tag_140\n      jump\t// in\n    tag_217:\n        /* \"#utility.yul\":1315:1376   */\n      tag_218\n        /* \"#utility.yul\":1369:1375   */\n      dup2\n        /* \"#utility.yul\":1364:1367   */\n      dup6\n        /* \"#utility.yul\":1315:1376   */\n      tag_141\n      jump\t// in\n    tag_218:\n        /* \"#utility.yul\":1308:1376   */\n      swap4\n      pop\n        /* \"#utility.yul\":1385:1450   */\n      tag_219\n        /* \"#utility.yul\":1443:1449   */\n      dup2\n        /* \"#utility.yul\":1438:1441   */\n      dup6\n        /* \"#utility.yul\":1431:1435   */\n      0x20\n        /* \"#utility.yul\":1424:1429   */\n      dup7\n        /* \"#utility.yul\":1420:1436   */\n      add\n        /* \"#utility.yul\":1385:1450   */\n      tag_142\n      jump\t// in\n    tag_219:\n        /* \"#utility.yul\":1475:1504   */\n      tag_220\n        /* \"#utility.yul\":1497:1503   */\n      dup2\n        /* \"#utility.yul\":1475:1504   */\n      tag_143\n      jump\t// in\n    tag_220:\n        /* \"#utility.yul\":1470:1473   */\n      dup5\n        /* \"#utility.yul\":1466:1505   */\n      add\n        /* \"#utility.yul\":1459:1505   */\n      swap2\n      pop\n        /* \"#utility.yul\":1236:1511   */\n      pop\n        /* \"#utility.yul\":1154:1511   */\n      swap3\n      swap2\n      pop\n      pop\n      jump\t// out\n        /* \"#utility.yul\":1517:1594   */\n    tag_145:\n        /* \"#utility.yul\":1554:1561   */\n      0x00\n        /* \"#utility.yul\":1583:1588   */\n      dup2\n        /* \"#utility.yul\":1572:1588   */\n      swap1\n      pop\n        /* \"#utility.yul\":1517:1594   */\n      swap2\n      swap1\n      pop\n      jump\t// out\n        /* \"#utility.yul\":1600:1708   */\n    tag_146:\n        /* \"#utility.yul\":1677:1701   */\n      tag_223\n        /* \"#utility.yul\":1695:1700   */\n      dup2\n        /* \"#utility.yul\":1677:1701   */\n      tag_145\n      jump\t// in\n    tag_223:\n        /* \"#utility.yul\":1672:1675   */\n      dup3\n        /* \"#utility.yul\":1665:1702   */\n      mstore\n        /* \"#utility.yul\":1600:1708   */\n      pop\n      pop\n      jump\t// out\n        /* \"#utility.yul\":1786:2557   */\n    tag_147:\n        /* \"#utility.yul\":1891:1894   */\n      0x00\n        /* \"#utility.yul\":1927:1931   */\n      0x60\n        /* \"#utility.yul\":1922:1925   */\n      dup4\n        /* \"#utility.yul\":1918:1932   */\n      add\n        /* \"#utility.yul\":2014:2018   */\n      0x00\n        /* \"#utility.yul\":2007:2012   */\n      dup4\n        /* \"#utility.yul\":2003:2019   */\n      add\n        /* \"#utility.yul\":1997:2020   */\n      mload\n        /* \"#utility.yul\":2067:2070   */\n      dup5\n        /* \"#utility.yul\":2061:2065   */\n      dup3\n        /* \"#utility.yul\":2057:2071   */\n      sub\n        /* \"#utility.yul\":2050:2054   */\n      0x00\n        /* \"#utility.yul\":2045:2048   */\n      dup7\n        /* \"#utility.yul\":2041:2055   */\n      add\n        /* \"#utility.yul\":2034:2072   */\n      mstore\n        /* \"#utility.yul\":2093:2166   */\n      tag_225\n        /* \"#utility.yul\":2161:2165   */\n      dup3\n        /* \"#utility.yul\":2147:2159   */\n      dup3\n        /* \"#utility.yul\":2093:2166   */\n      tag_144\n      jump\t// in\n    tag_225:\n        /* \"#utility.yul\":2085:2166   */\n      swap2\n      pop\n        /* \"#utility.yul\":1942:2177   */\n      pop\n        /* \"#utility.yul\":2257:2261   */\n      0x20\n        /* \"#utility.yul\":2250:2255   */\n      dup4\n        /* \"#utility.yul\":2246:2262   */\n      add\n        /* \"#utility.yul\":2240:2263   */\n      mload\n        /* \"#utility.yul\":2276:2339   */\n      tag_226\n        /* \"#utility.yul\":2333:2337   */\n      0x20\n        /* \"#utility.yul\":2328:2331   */\n      dup7\n        /* \"#utility.yul\":2324:2338   */\n      add\n        /* \"#utility.yul\":2310:2322   */\n      dup3\n        /* \"#utility.yul\":2276:2339   */\n      tag_146\n      jump\t// in\n    tag_226:\n        /* \"#utility.yul\":2187:2349   */\n      pop\n        /* \"#utility.yul\":2438:2442   */\n      0x40\n        /* \"#utility.yul\":2431:2436   */\n      dup4\n        /* \"#utility.yul\":2427:2443   */\n      add\n        /* \"#utility.yul\":2421:2444   */\n      mload\n        /* \"#utility.yul\":2457:2520   */\n      tag_227\n        /* \"#utility.yul\":2514:2518   */\n      0x40\n        /* \"#utility.yul\":2509:2512   */\n      dup7\n        /* \"#utility.yul\":2505:2519   */\n      add\n        /* \"#utility.yul\":2491:2503   */\n      dup3\n        /* \"#utility.yul\":2457:2520   */\n      tag_146\n      jump\t// in\n    tag_227:\n        /* \"#utility.yul\":2359:2530   */\n      pop\n        /* \"#utility.yul\":2547:2551   */\n      dup1\n        /* \"#utility.yul\":2540:2551   */\n      swap2\n      pop\n        /* \"#utility.yul\":1896:2557   */\n      pop\n        /* \"#utility.yul\":1786:2557   */\n      swap3\n      swap2\n      pop\n      pop\n      jump\t// out\n        /* \"#utility.yul\":2563:2811   */\n    tag_148:\n        /* \"#utility.yul\":2678:2688   */\n      0x00\n        /* \"#utility.yul\":2713:2805   */\n      tag_229\n        /* \"#utility.yul\":2801:2804   */\n      dup4\n        /* \"#utility.yul\":2793:2799   */\n      dup4\n        /* \"#utility.yul\":2713:2805   */\n      tag_147\n      jump\t// in\n    tag_229:\n        /* \"#utility.yul\":2699:2805   */\n      swap1\n      pop\n        /* \"#utility.yul\":2563:2811   */\n      swap3\n      swap2\n      pop\n      pop\n      jump\t// out\n        /* \"#utility.yul\":2817:2953   */\n    tag_149:\n        /* \"#utility.yul\":2910:2914   */\n      0x00\n        /* \"#utility.yul\":2942:2946   */\n      0x20\n        /* \"#utility.yul\":2937:2940   */\n      dup3\n        /* \"#utility.yul\":2933:2947   */\n      add\n        /* \"#utility.yul\":2925:2947   */\n      swap1\n      pop\n        /* \"#utility.yul\":2817:2953   */\n      swap2\n      swap1\n      pop\n      jump\t// out\n        /* \"#utility.yul\":3035:4130   */\n    tag_150:\n        /* \"#utility.yul\":3200:3203   */\n      0x00\n        /* \"#utility.yul\":3229:3306   */\n      tag_232\n        /* \"#utility.yul\":3300:3305   */\n      dup3\n        /* \"#utility.yul\":3229:3306   */\n      tag_137\n      jump\t// in\n    tag_232:\n        /* \"#utility.yul\":3322:3431   */\n      tag_233\n        /* \"#utility.yul\":3424:3430   */\n      dup2\n        /* \"#utility.yul\":3419:3422   */\n      dup6\n        /* \"#utility.yul\":3322:3431   */\n      tag_138\n      jump\t// in\n    tag_233:\n        /* \"#utility.yul\":3315:3431   */\n      swap4\n      pop\n        /* \"#utility.yul\":3457:3460   */\n      dup4\n        /* \"#utility.yul\":3502:3506   */\n      0x20\n        /* \"#utility.yul\":3494:3500   */\n      dup3\n        /* \"#utility.yul\":3490:3507   */\n      mul\n        /* \"#utility.yul\":3485:3488   */\n      dup6\n        /* \"#utility.yul\":3481:3508   */\n      add\n        /* \"#utility.yul\":3532:3611   */\n      tag_234\n        /* \"#utility.yul\":3605:3610   */\n      dup6\n        /* \"#utility.yul\":3532:3611   */\n      tag_139\n      jump\t// in\n    tag_234:\n        /* \"#utility.yul\":3634:3641   */\n      dup1\n        /* \"#utility.yul\":3665:3666   */\n      0x00\n        /* \"#utility.yul\":3650:4085   */\n    tag_235:\n        /* \"#utility.yul\":3675:3681   */\n      dup6\n        /* \"#utility.yul\":3672:3673   */\n      dup2\n        /* \"#utility.yul\":3669:3682   */\n      lt\n        /* \"#utility.yul\":3650:4085   */\n      iszero\n      tag_237\n      jumpi\n        /* \"#utility.yul\":3746:3755   */\n      dup5\n        /* \"#utility.yul\":3740:3744   */\n      dup5\n        /* \"#utility.yul\":3736:3756   */\n      sub\n        /* \"#utility.yul\":3731:3734   */\n      dup10\n        /* \"#utility.yul\":3724:3757   */\n      mstore\n        /* \"#utility.yul\":3797:3803   */\n      dup2\n        /* \"#utility.yul\":3791:3804   */\n      mload\n        /* \"#utility.yul\":3825:3935   */\n      tag_238\n        /* \"#utility.yul\":3930:3934   */\n      dup6\n        /* \"#utility.yul\":3915:3928   */\n      dup3\n        /* \"#utility.yul\":3825:3935   */\n      tag_148\n      jump\t// in\n    tag_238:\n        /* \"#utility.yul\":3817:3935   */\n      swap5\n      pop\n        /* \"#utility.yul\":3958:4041   */\n      tag_239\n        /* \"#utility.yul\":4034:4040   */\n      dup4\n        /* \"#utility.yul\":3958:4041   */\n      tag_149\n      jump\t// in\n    tag_239:\n        /* \"#utility.yul\":3948:4041   */\n      swap3\n      pop\n        /* \"#utility.yul\":4070:4074   */\n      0x20\n        /* \"#utility.yul\":4065:4068   */\n      dup11\n        /* \"#utility.yul\":4061:4075   */\n      add\n        /* \"#utility.yul\":4054:4075   */\n      swap10\n      pop\n        /* \"#utility.yul\":3710:4085   */\n      pop\n        /* \"#utility.yul\":3697:3698   */\n      0x01\n        /* \"#utility.yul\":3694:3695   */\n      dup2\n        /* \"#utility.yul\":3690:3699   */\n      add\n        /* \"#utility.yul\":3685:3699   */\n      swap1\n      pop\n        /* \"#utility.yul\":3650:4085   */\n      jump(tag_235)\n    tag_237:\n        /* \"#utility.yul\":3654:3668   */\n      pop\n        /* \"#utility.yul\":4101:4105   */\n      dup3\n        /* \"#utility.yul\":4094:4105   */\n      swap8\n      pop\n        /* \"#utility.yul\":4121:4124   */\n      dup8\n        /* \"#utility.yul\":4114:4124   */\n      swap6\n      pop\n        /* \"#utility.yul\":3205:4130   */\n      pop\n      pop\n      pop\n      pop\n      pop\n        /* \"#utility.yul\":3035:4130   */\n      swap3\n      swap2\n      pop\n      pop\n      jump\t// out\n        /* \"#utility.yul\":4136:4601   */\n    tag_11:\n        /* \"#utility.yul\":4325:4329   */\n      0x00\n        /* \"#utility.yul\":4363:4365   */\n      0x20\n        /* \"#utility.yul\":4352:4361   */\n      dup3\n        /* \"#utility.yul\":4348:4366   */\n      add\n        /* \"#utility.yul\":4340:4366   */\n      swap1\n      pop\n        /* \"#utility.yul\":4412:4421   */\n      dup2\n        /* \"#utility.yul\":4406:4410   */\n      dup2\n        /* \"#utility.yul\":4402:4422   */\n      sub\n        /* \"#utility.yul\":4398:4399   */\n      0x00\n        /* \"#utility.yul\":4387:4396   */\n      dup4\n        /* \"#utility.yul\":4383:4400   */\n      add\n        /* \"#utility.yul\":4376:4423   */\n      mstore\n        /* \"#utility.yul\":4440:4594   */\n      tag_241\n        /* \"#utility.yul\":4589:4593   */\n      dup2\n        /* \"#utility.yul\":4580:4586   */\n      dup5\n        /* \"#utility.yul\":4440:4594   */\n      tag_150\n      jump\t// in\n    tag_241:\n        /* \"#utility.yul\":4432:4594   */\n      swap1\n      pop\n        /* \"#utility.yul\":4136:4601   */\n      swap3\n      swap2\n      pop\n      pop\n      jump\t// out\n        /* \"#utility.yul\":4607:4733   */\n    tag_151:\n        /* \"#utility.yul\":4644:4651   */\n      0x00\n        /* \"#utility.yul\":4684:4726   */\n      0xffffffffffffffffffffffffffffffffffffffff\n        /* \"#utility.yul\":4677:4682   */\n      dup3\n        /* \"#utility.yul\":4673:4727   */\n      and\n        /* \"#utility.yul\":4662:4727   */\n      swap1\n      pop\n        /* \"#utility.yul\":4607:4733   */\n      swap2\n      swap1\n      pop\n      jump\t// out\n        /* \"#utility.yul\":4739:4835   */\n    tag_152:\n        /* \"#utility.yul\":4776:4783   */\n      0x00\n        /* \"#utility.yul\":4805:4829   */\n      tag_244\n        /* \"#utility.yul\":4823:4828   */\n      dup3\n        /* \"#utility.yul\":4805:4829   */\n      tag_151\n      jump\t// in\n    tag_244:\n        /* \"#utility.yul\":4794:4829   */\n      swap1\n      pop\n        /* \"#utility.yul\":4739:4835   */\n      swap2\n      swap1\n      pop\n      jump\t// out\n        /* \"#utility.yul\":4841:4959   */\n    tag_153:\n        /* \"#utility.yul\":4928:4952   */\n      tag_246\n        /* \"#utility.yul\":4946:4951   */\n      dup2\n        /* \"#utility.yul\":4928:4952   */\n      tag_152\n      jump\t// in\n    tag_246:\n        /* \"#utility.yul\":4923:4926   */\n      dup3\n        /* \"#utility.yul\":4916:4953   */\n      mstore\n        /* \"#utility.yul\":4841:4959   */\n      pop\n      pop\n      jump\t// out\n        /* \"#utility.yul\":4965:5187   */\n    tag_15:\n        /* \"#utility.yul\":5058:5062   */\n      0x00\n        /* \"#utility.yul\":5096:5098   */\n      0x20\n        /* \"#utility.yul\":5085:5094   */\n      dup3\n        /* \"#utility.yul\":5081:5099   */\n      add\n        /* \"#utility.yul\":5073:5099   */\n      swap1\n      pop\n        /* \"#utility.yul\":5109:5180   */\n      tag_248\n        /* \"#utility.yul\":5177:5178   */\n      0x00\n        /* \"#utility.yul\":5166:5175   */\n      dup4\n        /* \"#utility.yul\":5162:5179   */\n      add\n        /* \"#utility.yul\":5153:5159   */\n      dup5\n        /* \"#utility.yul\":5109:5180   */\n      tag_153\n      jump\t// in\n    tag_248:\n        /* \"#utility.yul\":4965:5187   */\n      swap3\n      swap2\n      pop\n      pop\n      jump\t// out\n        /* \"#utility.yul\":5274:5391   */\n    tag_155:\n        /* \"#utility.yul\":5383:5384   */\n      0x00\n        /* \"#utility.yul\":5380:5381   */\n      dup1\n        /* \"#utility.yul\":5373:5385   */\n      revert\n        /* \"#utility.yul\":5397:5514   */\n    tag_156:\n        /* \"#utility.yul\":5506:5507   */\n      0x00\n        /* \"#utility.yul\":5503:5504   */\n      dup1\n        /* \"#utility.yul\":5496:5508   */\n      revert\n        /* \"#utility.yul\":5520:5642   */\n    tag_157:\n        /* \"#utility.yul\":5593:5617   */\n      tag_253\n        /* \"#utility.yul\":5611:5616   */\n      dup2\n        /* \"#utility.yul\":5593:5617   */\n      tag_145\n      jump\t// in\n    tag_253:\n        /* \"#utility.yul\":5586:5591   */\n      dup2\n        /* \"#utility.yul\":5583:5618   */\n      eq\n        /* \"#utility.yul\":5573:5636   */\n      tag_254\n      jumpi\n        /* \"#utility.yul\":5632:5633   */\n      0x00\n        /* \"#utility.yul\":5629:5630   */\n      dup1\n        /* \"#utility.yul\":5622:5634   */\n      revert\n        /* \"#utility.yul\":5573:5636   */\n    tag_254:\n        /* \"#utility.yul\":5520:5642   */\n      pop\n      jump\t// out\n        /* \"#utility.yul\":5648:5787   */\n    tag_158:\n        /* \"#utility.yul\":5694:5699   */\n      0x00\n        /* \"#utility.yul\":5732:5738   */\n      dup2\n        /* \"#utility.yul\":5719:5739   */\n      calldataload\n        /* \"#utility.yul\":5710:5739   */\n      swap1\n      pop\n        /* \"#utility.yul\":5748:5781   */\n      tag_256\n        /* \"#utility.yul\":5775:5780   */\n      dup2\n        /* \"#utility.yul\":5748:5781   */\n      tag_157\n      jump\t// in\n    tag_256:\n        /* \"#utility.yul\":5648:5787   */\n      swap3\n      swap2\n      pop\n      pop\n      jump\t// out\n        /* \"#utility.yul\":5793:6267   */\n    tag_18:\n        /* \"#utility.yul\":5861:5867   */\n      0x00\n        /* \"#utility.yul\":5869:5875   */\n      dup1\n        /* \"#utility.yul\":5918:5920   */\n      0x40\n        /* \"#utility.yul\":5906:5915   */\n      dup4\n        /* \"#utility.yul\":5897:5904   */\n      dup6\n        /* \"#utility.yul\":5893:5916   */\n      sub\n        /* \"#utility.yul\":5889:5921   */\n      slt\n        /* \"#utility.yul\":5886:6005   */\n      iszero\n      tag_258\n      jumpi\n        /* \"#utility.yul\":5924:6003   */\n      tag_259\n      tag_155\n      jump\t// in\n    tag_259:\n        /* \"#utility.yul\":5886:6005   */\n    tag_258:\n        /* \"#utility.yul\":6044:6045   */\n      0x00\n        /* \"#utility.yul\":6069:6122   */\n      tag_260\n        /* \"#utility.yul\":6114:6121   */\n      dup6\n        /* \"#utility.yul\":6105:6111   */\n      dup3\n        /* \"#utility.yul\":6094:6103   */\n      dup7\n        /* \"#utility.yul\":6090:6112   */\n      add\n        /* \"#utility.yul\":6069:6122   */\n      tag_158\n      jump\t// in\n    tag_260:\n        /* \"#utility.yul\":6059:6122   */\n      swap3\n      pop\n        /* \"#utility.yul\":6015:6132   */\n      pop\n        /* \"#utility.yul\":6171:6173   */\n      0x20\n        /* \"#utility.yul\":6197:6250   */\n      tag_261\n        /* \"#utility.yul\":6242:6249   */\n      dup6\n        /* \"#utility.yul\":6233:6239   */\n      dup3\n        /* \"#utility.yul\":6222:6231   */\n      dup7\n        /* \"#utility.yul\":6218:6240   */\n      add\n        /* \"#utility.yul\":6197:6250   */\n      tag_158\n      jump\t// in\n    tag_261:\n        /* \"#utility.yul\":6187:6250   */\n      swap2\n      pop\n        /* \"#utility.yul\":6142:6260   */\n      pop\n        /* \"#utility.yul\":5793:6267   */\n      swap3\n      pop\n      swap3\n      swap1\n      pop\n      jump\t// out\n        /* \"#utility.yul\":6273:6395   */\n    tag_159:\n        /* \"#utility.yul\":6346:6370   */\n      tag_263\n        /* \"#utility.yul\":6364:6369   */\n      dup2\n        /* \"#utility.yul\":6346:6370   */\n      tag_152\n      jump\t// in\n    tag_263:\n        /* \"#utility.yul\":6339:6344   */\n      dup2\n        /* \"#utility.yul\":6336:6371   */\n      eq\n        /* \"#utility.yul\":6326:6389   */\n      tag_264\n      jumpi\n        /* \"#utility.yul\":6385:6386   */\n      0x00\n        /* \"#utility.yul\":6382:6383   */\n      dup1\n        /* \"#utility.yul\":6375:6387   */\n      revert\n        /* \"#utility.yul\":6326:6389   */\n    tag_264:\n        /* \"#utility.yul\":6273:6395   */\n      pop\n      jump\t// out\n        /* \"#utility.yul\":6401:6540   */\n    tag_160:\n        /* \"#utility.yul\":6447:6452   */\n      0x00\n        /* \"#utility.yul\":6485:6491   */\n      dup2\n        /* \"#utility.yul\":6472:6492   */\n      calldataload\n        /* \"#utility.yul\":6463:6492   */\n      swap1\n      pop\n        /* \"#utility.yul\":6501:6534   */\n      tag_266\n        /* \"#utility.yul\":6528:6533   */\n      dup2\n        /* \"#utility.yul\":6501:6534   */\n      tag_159\n      jump\t// in\n    tag_266:\n        /* \"#utility.yul\":6401:6540   */\n      swap3\n      swap2\n      pop\n      pop\n      jump\t// out\n        /* \"#utility.yul\":6546:6663   */\n    tag_161:\n        /* \"#utility.yul\":6655:6656   */\n      0x00\n        /* \"#utility.yul\":6652:6653   */\n      dup1\n        /* \"#utility.yul\":6645:6657   */\n      revert\n        /* \"#utility.yul\":6669:6786   */\n    tag_162:\n        /* \"#utility.yul\":6778:6779   */\n      0x00\n        /* \"#utility.yul\":6775:6776   */\n      dup1\n        /* \"#utility.yul\":6768:6780   */\n      revert\n        /* \"#utility.yul\":6792:6909   */\n    tag_163:\n        /* \"#utility.yul\":6901:6902   */\n      0x00\n        /* \"#utility.yul\":6898:6899   */\n      dup1\n        /* \"#utility.yul\":6891:6903   */\n      revert\n        /* \"#utility.yul\":6929:7482   */\n    tag_164:\n        /* \"#utility.yul\":6987:6995   */\n      0x00\n        /* \"#utility.yul\":6997:7003   */\n      dup1\n        /* \"#utility.yul\":7047:7050   */\n      dup4\n        /* \"#utility.yul\":7040:7044   */\n      0x1f\n        /* \"#utility.yul\":7032:7038   */\n      dup5\n        /* \"#utility.yul\":7028:7045   */\n      add\n        /* \"#utility.yul\":7024:7051   */\n      slt\n        /* \"#utility.yul\":7014:7136   */\n      tag_271\n      jumpi\n        /* \"#utility.yul\":7055:7134   */\n      tag_272\n      tag_161\n      jump\t// in\n    tag_272:\n        /* \"#utility.yul\":7014:7136   */\n    tag_271:\n        /* \"#utility.yul\":7168:7174   */\n      dup3\n        /* \"#utility.yul\":7155:7175   */\n      calldataload\n        /* \"#utility.yul\":7145:7175   */\n      swap1\n      pop\n        /* \"#utility.yul\":7198:7216   */\n      0xffffffffffffffff\n        /* \"#utility.yul\":7190:7196   */\n      dup2\n        /* \"#utility.yul\":7187:7217   */\n      gt\n        /* \"#utility.yul\":7184:7301   */\n      iszero\n      tag_273\n      jumpi\n        /* \"#utility.yul\":7220:7299   */\n      tag_274\n      tag_162\n      jump\t// in\n    tag_274:\n        /* \"#utility.yul\":7184:7301   */\n    tag_273:\n        /* \"#utility.yul\":7334:7338   */\n      0x20\n        /* \"#utility.yul\":7326:7332   */\n      dup4\n        /* \"#utility.yul\":7322:7339   */\n      add\n        /* \"#utility.yul\":7310:7339   */\n      swap2\n      pop\n        /* \"#utility.yul\":7388:7391   */\n      dup4\n        /* \"#utility.yul\":7380:7384   */\n      0x01\n        /* \"#utility.yul\":7372:7378   */\n      dup3\n        /* \"#utility.yul\":7368:7385   */\n      mul\n        /* \"#utility.yul\":7358:7366   */\n      dup4\n        /* \"#utility.yul\":7354:7386   */\n      add\n        /* \"#utility.yul\":7351:7392   */\n      gt\n        /* \"#utility.yul\":7348:7476   */\n      iszero\n      tag_275\n      jumpi\n        /* \"#utility.yul\":7395:7474   */\n      tag_276\n      tag_163\n      jump\t// in\n    tag_276:\n        /* \"#utility.yul\":7348:7476   */\n    tag_275:\n        /* \"#utility.yul\":6929:7482   */\n      swap3\n      pop\n      swap3\n      swap1\n      pop\n      jump\t// out\n        /* \"#utility.yul\":7488:8453   */\n    tag_23:\n        /* \"#utility.yul\":7586:7592   */\n      0x00\n        /* \"#utility.yul\":7594:7600   */\n      dup1\n        /* \"#utility.yul\":7602:7608   */\n      0x00\n        /* \"#utility.yul\":7610:7616   */\n      dup1\n        /* \"#utility.yul\":7618:7624   */\n      0x00\n        /* \"#utility.yul\":7667:7670   */\n      0x80\n        /* \"#utility.yul\":7655:7664   */\n      dup7\n        /* \"#utility.yul\":7646:7653   */\n      dup9\n        /* \"#utility.yul\":7642:7665   */\n      sub\n        /* \"#utility.yul\":7638:7671   */\n      slt\n        /* \"#utility.yul\":7635:7755   */\n      iszero\n      tag_278\n      jumpi\n        /* \"#utility.yul\":7674:7753   */\n      tag_279\n      tag_155\n      jump\t// in\n    tag_279:\n        /* \"#utility.yul\":7635:7755   */\n    tag_278:\n        /* \"#utility.yul\":7794:7795   */\n      0x00\n        /* \"#utility.yul\":7819:7872   */\n      tag_280\n        /* \"#utility.yul\":7864:7871   */\n      dup9\n        /* \"#utility.yul\":7855:7861   */\n      dup3\n        /* \"#utility.yul\":7844:7853   */\n      dup10\n        /* \"#utility.yul\":7840:7862   */\n      add\n        /* \"#utility.yul\":7819:7872   */\n      tag_160\n      jump\t// in\n    tag_280:\n        /* \"#utility.yul\":7809:7872   */\n      swap6\n      pop\n        /* \"#utility.yul\":7765:7882   */\n      pop\n        /* \"#utility.yul\":7949:7951   */\n      0x20\n        /* \"#utility.yul\":7938:7947   */\n      dup7\n        /* \"#utility.yul\":7934:7952   */\n      add\n        /* \"#utility.yul\":7921:7953   */\n      calldataload\n        /* \"#utility.yul\":7980:7998   */\n      0xffffffffffffffff\n        /* \"#utility.yul\":7972:7978   */\n      dup2\n        /* \"#utility.yul\":7969:7999   */\n      gt\n        /* \"#utility.yul\":7966:8083   */\n      iszero\n      tag_281\n      jumpi\n        /* \"#utility.yul\":8002:8081   */\n      tag_282\n      tag_156\n      jump\t// in\n    tag_282:\n        /* \"#utility.yul\":7966:8083   */\n    tag_281:\n        /* \"#utility.yul\":8115:8180   */\n      tag_283\n        /* \"#utility.yul\":8172:8179   */\n      dup9\n        /* \"#utility.yul\":8163:8169   */\n      dup3\n        /* \"#utility.yul\":8152:8161   */\n      dup10\n        /* \"#utility.yul\":8148:8170   */\n      add\n        /* \"#utility.yul\":8115:8180   */\n      tag_164\n      jump\t// in\n    tag_283:\n        /* \"#utility.yul\":8097:8180   */\n      swap5\n      pop\n      swap5\n      pop\n        /* \"#utility.yul\":7892:8190   */\n      pop\n        /* \"#utility.yul\":8229:8231   */\n      0x40\n        /* \"#utility.yul\":8255:8308   */\n      tag_284\n        /* \"#utility.yul\":8300:8307   */\n      dup9\n        /* \"#utility.yul\":8291:8297   */\n      dup3\n        /* \"#utility.yul\":8280:8289   */\n      dup10\n        /* \"#utility.yul\":8276:8298   */\n      add\n        /* \"#utility.yul\":8255:8308   */\n      tag_158\n      jump\t// in\n    tag_284:\n        /* \"#utility.yul\":8245:8308   */\n      swap3\n      pop\n        /* \"#utility.yul\":8200:8318   */\n      pop\n        /* \"#utility.yul\":8357:8359   */\n      0x60\n        /* \"#utility.yul\":8383:8436   */\n      tag_285\n        /* \"#utility.yul\":8428:8435   */\n      dup9\n        /* \"#utility.yul\":8419:8425   */\n      dup3\n        /* \"#utility.yul\":8408:8417   */\n      dup10\n        /* \"#utility.yul\":8404:8426   */\n      add\n        /* \"#utility.yul\":8383:8436   */\n      tag_158\n      jump\t// in\n    tag_285:\n        /* \"#utility.yul\":8373:8436   */\n      swap2\n      pop\n        /* \"#utility.yul\":8328:8446   */\n      pop\n        /* \"#utility.yul\":7488:8453   */\n      swap3\n      swap6\n      pop\n      swap3\n      swap6\n      swap1\n      swap4\n      pop\n      jump\t// out\n        /* \"#utility.yul\":8459:8788   */\n    tag_27:\n        /* \"#utility.yul\":8518:8524   */\n      0x00\n        /* \"#utility.yul\":8567:8569   */\n      0x20\n        /* \"#utility.yul\":8555:8564   */\n      dup3\n        /* \"#utility.yul\":8546:8553   */\n      dup5\n        /* \"#utility.yul\":8542:8565   */\n      sub\n        /* \"#utility.yul\":8538:8570   */\n      slt\n        /* \"#utility.yul\":8535:8654   */\n      iszero\n      tag_287\n      jumpi\n        /* \"#utility.yul\":8573:8652   */\n      tag_288\n      tag_155\n      jump\t// in\n    tag_288:\n        /* \"#utility.yul\":8535:8654   */\n    tag_287:\n        /* \"#utility.yul\":8693:8694   */\n      0x00\n        /* \"#utility.yul\":8718:8771   */\n      tag_289\n        /* \"#utility.yul\":8763:8770   */\n      dup5\n        /* \"#utility.yul\":8754:8760   */\n      dup3\n        /* \"#utility.yul\":8743:8752   */\n      dup6\n        /* \"#utility.yul\":8739:8761   */\n      add\n        /* \"#utility.yul\":8718:8771   */\n      tag_158\n      jump\t// in\n    tag_289:\n        /* \"#utility.yul\":8708:8771   */\n      swap2\n      pop\n        /* \"#utility.yul\":8664:8781   */\n      pop\n        /* \"#utility.yul\":8459:8788   */\n      swap3\n      swap2\n      pop\n      pop\n      jump\t// out\n        /* \"#utility.yul\":8866:9647   */\n    tag_165:\n        /* \"#utility.yul\":8981:8984   */\n      0x00\n        /* \"#utility.yul\":9017:9021   */\n      0x60\n        /* \"#utility.yul\":9012:9015   */\n      dup4\n        /* \"#utility.yul\":9008:9022   */\n      add\n        /* \"#utility.yul\":9104:9108   */\n      0x00\n        /* \"#utility.yul\":9097:9102   */\n      dup4\n        /* \"#utility.yul\":9093:9109   */\n      add\n        /* \"#utility.yul\":9087:9110   */\n      mload\n        /* \"#utility.yul\":9157:9160   */\n      dup5\n        /* \"#utility.yul\":9151:9155   */\n      dup3\n        /* \"#utility.yul\":9147:9161   */\n      sub\n        /* \"#utility.yul\":9140:9144   */\n      0x00\n        /* \"#utility.yul\":9135:9138   */\n      dup7\n        /* \"#utility.yul\":9131:9145   */\n      add\n        /* \"#utility.yul\":9124:9162   */\n      mstore\n        /* \"#utility.yul\":9183:9256   */\n      tag_291\n        /* \"#utility.yul\":9251:9255   */\n      dup3\n        /* \"#utility.yul\":9237:9249   */\n      dup3\n        /* \"#utility.yul\":9183:9256   */\n      tag_144\n      jump\t// in\n    tag_291:\n        /* \"#utility.yul\":9175:9256   */\n      swap2\n      pop\n        /* \"#utility.yul\":9032:9267   */\n      pop\n        /* \"#utility.yul\":9347:9351   */\n      0x20\n        /* \"#utility.yul\":9340:9345   */\n      dup4\n        /* \"#utility.yul\":9336:9352   */\n      add\n        /* \"#utility.yul\":9330:9353   */\n      mload\n        /* \"#utility.yul\":9366:9429   */\n      tag_292\n        /* \"#utility.yul\":9423:9427   */\n      0x20\n        /* \"#utility.yul\":9418:9421   */\n      dup7\n        /* \"#utility.yul\":9414:9428   */\n      add\n        /* \"#utility.yul\":9400:9412   */\n      dup3\n        /* \"#utility.yul\":9366:9429   */\n      tag_146\n      jump\t// in\n    tag_292:\n        /* \"#utility.yul\":9277:9439   */\n      pop\n        /* \"#utility.yul\":9528:9532   */\n      0x40\n        /* \"#utility.yul\":9521:9526   */\n      dup4\n        /* \"#utility.yul\":9517:9533   */\n      add\n        /* \"#utility.yul\":9511:9534   */\n      mload\n        /* \"#utility.yul\":9547:9610   */\n      tag_293\n        /* \"#utility.yul\":9604:9608   */\n      0x40\n        /* \"#utility.yul\":9599:9602   */\n      dup7\n        /* \"#utility.yul\":9595:9609   */\n      add\n        /* \"#utility.yul\":9581:9593   */\n      dup3\n        /* \"#utility.yul\":9547:9610   */\n      tag_146\n      jump\t// in\n    tag_293:\n        /* \"#utility.yul\":9449:9620   */\n      pop\n        /* \"#utility.yul\":9637:9641   */\n      dup1\n        /* \"#utility.yul\":9630:9641   */\n      swap2\n      pop\n        /* \"#utility.yul\":8986:9647   */\n      pop\n        /* \"#utility.yul\":8866:9647   */\n      swap3\n      swap2\n      pop\n      pop\n      jump\t// out\n        /* \"#utility.yul\":9653:10018   */\n    tag_30:\n        /* \"#utility.yul\":9792:9796   */\n      0x00\n        /* \"#utility.yul\":9830:9832   */\n      0x20\n        /* \"#utility.yul\":9819:9828   */\n      dup3\n        /* \"#utility.yul\":9815:9833   */\n      add\n        /* \"#utility.yul\":9807:9833   */\n      swap1\n      pop\n        /* \"#utility.yul\":9879:9888   */\n      dup2\n        /* \"#utility.yul\":9873:9877   */\n      dup2\n        /* \"#utility.yul\":9869:9889   */\n      sub\n        /* \"#utility.yul\":9865:9866   */\n      0x00\n        /* \"#utility.yul\":9854:9863   */\n      dup4\n        /* \"#utility.yul\":9850:9867   */\n      add\n        /* \"#utility.yul\":9843:9890   */\n      mstore\n        /* \"#utility.yul\":9907:10011   */\n      tag_295\n        /* \"#utility.yul\":10006:10010   */\n      dup2\n        /* \"#utility.yul\":9997:10003   */\n      dup5\n        /* \"#utility.yul\":9907:10011   */\n      tag_165\n      jump\t// in\n    tag_295:\n        /* \"#utility.yul\":9899:10011   */\n      swap1\n      pop\n        /* \"#utility.yul\":9653:10018   */\n      swap3\n      swap2\n      pop\n      pop\n      jump\t// out\n        /* \"#utility.yul\":10024:10204   */\n    tag_166:\n        /* \"#utility.yul\":10072:10149   */\n      0x4e487b7100000000000000000000000000000000000000000000000000000000\n        /* \"#utility.yul\":10069:10070   */\n      0x00\n        /* \"#utility.yul\":10062:10150   */\n      mstore\n        /* \"#utility.yul\":10169:10173   */\n      0x22\n        /* \"#utility.yul\":10166:10167   */\n      0x04\n        /* \"#utility.yul\":10159:10174   */\n      mstore\n        /* \"#utility.yul\":10193:10197   */\n      0x24\n        /* \"#utility.yul\":10190:10191   */\n      0x00\n        /* \"#utility.yul\":10183:10198   */\n      revert\n        /* \"#utility.yul\":10210:10530   */\n    tag_36:\n        /* \"#utility.yul\":10254:10260   */\n      0x00\n        /* \"#utility.yul\":10291:10292   */\n      0x02\n        /* \"#utility.yul\":10285:10289   */\n      dup3\n        /* \"#utility.yul\":10281:10293   */\n      div\n        /* \"#utility.yul\":10271:10293   */\n      swap1\n      pop\n        /* \"#utility.yul\":10338:10339   */\n      0x01\n        /* \"#utility.yul\":10332:10336   */\n      dup3\n        /* \"#utility.yul\":10328:10340   */\n      and\n        /* \"#utility.yul\":10359:10377   */\n      dup1\n        /* \"#utility.yul\":10349:10430   */\n      tag_298\n      jumpi\n        /* \"#utility.yul\":10415:10419   */\n      0x7f\n        /* \"#utility.yul\":10407:10413   */\n      dup3\n        /* \"#utility.yul\":10403:10420   */\n      and\n        /* \"#utility.yul\":10393:10420   */\n      swap2\n      pop\n        /* \"#utility.yul\":10349:10430   */\n    tag_298:\n        /* \"#utility.yul\":10477:10479   */\n      0x20\n        /* \"#utility.yul\":10469:10475   */\n      dup3\n        /* \"#utility.yul\":10466:10480   */\n      lt\n        /* \"#utility.yul\":10446:10464   */\n      dup2\n        /* \"#utility.yul\":10443:10481   */\n      sub\n        /* \"#utility.yul\":10440:10524   */\n      tag_299\n      jumpi\n        /* \"#utility.yul\":10496:10514   */\n      tag_300\n      tag_166\n      jump\t// in\n    tag_300:\n        /* \"#utility.yul\":10440:10524   */\n    tag_299:\n        /* \"#utility.yul\":10261:10530   */\n      pop\n        /* \"#utility.yul\":10210:10530   */\n      swap2\n      swap1\n      pop\n      jump\t// out\n        /* \"#utility.yul\":10536:10716   */\n    tag_55:\n        /* \"#utility.yul\":10584:10661   */\n      0x4e487b7100000000000000000000000000000000000000000000000000000000\n        /* \"#utility.yul\":10581:10582   */\n      0x00\n        /* \"#utility.yul\":10574:10662   */\n      mstore\n        /* \"#utility.yul\":10681:10685   */\n      0x32\n        /* \"#utility.yul\":10678:10679   */\n      0x04\n        /* \"#utility.yul\":10671:10686   */\n      mstore\n        /* \"#utility.yul\":10705:10709   */\n      0x24\n        /* \"#utility.yul\":10702:10703   */\n      0x00\n        /* \"#utility.yul\":10695:10710   */\n      revert\n        /* \"#utility.yul\":10722:10891   */\n    tag_167:\n        /* \"#utility.yul\":10806:10817   */\n      0x00\n        /* \"#utility.yul\":10840:10846   */\n      dup3\n        /* \"#utility.yul\":10835:10838   */\n      dup3\n        /* \"#utility.yul\":10828:10847   */\n      mstore\n        /* \"#utility.yul\":10880:10884   */\n      0x20\n        /* \"#utility.yul\":10875:10878   */\n      dup3\n        /* \"#utility.yul\":10871:10885   */\n      add\n        /* \"#utility.yul\":10856:10885   */\n      swap1\n      pop\n        /* \"#utility.yul\":10722:10891   */\n      swap3\n      swap2\n      pop\n      pop\n      jump\t// out\n        /* \"#utility.yul\":10897:11072   */\n    tag_168:\n        /* \"#utility.yul\":11037:11064   */\n      0x53747564656e7420494420616c72656164792065786973747300000000000000\n        /* \"#utility.yul\":11033:11034   */\n      0x00\n        /* \"#utility.yul\":11025:11031   */\n      dup3\n        /* \"#utility.yul\":11021:11035   */\n      add\n        /* \"#utility.yul\":11014:11065   */\n      mstore\n        /* \"#utility.yul\":10897:11072   */\n      pop\n      jump\t// out\n        /* \"#utility.yul\":11078:11444   */\n    tag_169:\n        /* \"#utility.yul\":11220:11223   */\n      0x00\n        /* \"#utility.yul\":11241:11308   */\n      tag_305\n        /* \"#utility.yul\":11305:11307   */\n      0x19\n        /* \"#utility.yul\":11300:11303   */\n      dup4\n        /* \"#utility.yul\":11241:11308   */\n      tag_167\n      jump\t// in\n    tag_305:\n        /* \"#utility.yul\":11234:11308   */\n      swap2\n      pop\n        /* \"#utility.yul\":11317:11410   */\n      tag_306\n        /* \"#utility.yul\":11406:11409   */\n      dup3\n        /* \"#utility.yul\":11317:11410   */\n      tag_168\n      jump\t// in\n    tag_306:\n        /* \"#utility.yul\":11435:11437   */\n      0x20\n        /* \"#utility.yul\":11430:11433   */\n      dup3\n        /* \"#utility.yul\":11426:11438   */\n      add\n        /* \"#utility.yul\":11419:11438   */\n      swap1\n      pop\n        /* \"#utility.yul\":11078:11444   */\n      swap2\n      swap1\n      pop\n      jump\t// out\n        /* \"#utility.yul\":11450:11869   */\n    tag_59:\n        /* \"#utility.yul\":11616:11620   */\n      0x00\n        /* \"#utility.yul\":11654:11656   */\n      0x20\n        /* \"#utility.yul\":11643:11652   */\n      dup3\n        /* \"#utility.yul\":11639:11657   */\n      add\n        /* \"#utility.yul\":11631:11657   */\n      swap1\n      pop\n        /* \"#utility.yul\":11703:11712   */\n      dup2\n        /* \"#utility.yul\":11697:11701   */\n      dup2\n        /* \"#utility.yul\":11693:11713   */\n      sub\n        /* \"#utility.yul\":11689:11690   */\n      0x00\n        /* \"#utility.yul\":11678:11687   */\n      dup4\n        /* \"#utility.yul\":11674:11691   */\n      add\n        /* \"#utility.yul\":11667:11714   */\n      mstore\n        /* \"#utility.yul\":11731:11862   */\n      tag_308\n        /* \"#utility.yul\":11857:11861   */\n      dup2\n        /* \"#utility.yul\":11731:11862   */\n      tag_169\n      jump\t// in\n    tag_308:\n        /* \"#utility.yul\":11723:11862   */\n      swap1\n      pop\n        /* \"#utility.yul\":11450:11869   */\n      swap2\n      swap1\n      pop\n      jump\t// out\n        /* \"#utility.yul\":11875:12055   */\n    tag_170:\n        /* \"#utility.yul\":11923:12000   */\n      0x4e487b7100000000000000000000000000000000000000000000000000000000\n        /* \"#utility.yul\":11920:11921   */\n      0x00\n        /* \"#utility.yul\":11913:12001   */\n      mstore\n        /* \"#utility.yul\":12020:12024   */\n      0x11\n        /* \"#utility.yul\":12017:12018   */\n      0x04\n        /* \"#utility.yul\":12010:12025   */\n      mstore\n        /* \"#utility.yul\":12044:12048   */\n      0x24\n        /* \"#utility.yul\":12041:12042   */\n      0x00\n        /* \"#utility.yul\":12034:12049   */\n      revert\n        /* \"#utility.yul\":12061:12294   */\n    tag_61:\n        /* \"#utility.yul\":12100:12103   */\n      0x00\n        /* \"#utility.yul\":12123:12147   */\n      tag_311\n        /* \"#utility.yul\":12141:12146   */\n      dup3\n        /* \"#utility.yul\":12123:12147   */\n      tag_145\n      jump\t// in\n    tag_311:\n        /* \"#utility.yul\":12114:12147   */\n      swap2\n      pop\n        /* \"#utility.yul\":12169:12235   */\n      0xffffffffffffffffffffffffffffffffffffffffffffffffffffffffffffffff\n        /* \"#utility.yul\":12162:12167   */\n      dup3\n        /* \"#utility.yul\":12159:12236   */\n      sub\n        /* \"#utility.yul\":12156:12259   */\n      tag_312\n      jumpi\n        /* \"#utility.yul\":12239:12257   */\n      tag_313\n      tag_170\n      jump\t// in\n    tag_313:\n        /* \"#utility.yul\":12156:12259   */\n    tag_312:\n        /* \"#utility.yul\":12286:12287   */\n      0x01\n        /* \"#utility.yul\":12279:12284   */\n      dup3\n        /* \"#utility.yul\":12275:12288   */\n      add\n        /* \"#utility.yul\":12268:12288   */\n      swap1\n      pop\n        /* \"#utility.yul\":12061:12294   */\n      swap2\n      swap1\n      pop\n      jump\t// out\n        /* \"#utility.yul\":12300:12480   */\n    tag_64:\n        /* \"#utility.yul\":12348:12425   */\n      0x4e487b7100000000000000000000000000000000000000000000000000000000\n        /* \"#utility.yul\":12345:12346   */\n      0x00\n        /* \"#utility.yul\":12338:12426   */\n      mstore\n        /* \"#utility.yul\":12445:12449   */\n      0x41\n        /* \"#utility.yul\":12442:12443   */\n      0x04\n        /* \"#utility.yul\":12435:12450   */\n      mstore\n        /* \"#utility.yul\":12469:12473   */\n      0x24\n        /* \"#utility.yul\":12466:12467   */\n      0x00\n        /* \"#utility.yul\":12459:12474   */\n      revert\n        /* \"#utility.yul\":12486:12726   */\n    tag_171:\n        /* \"#utility.yul\":12626:12660   */\n      0x556e617574686f72697a65643a204f6e6c7920746865207363686f6f6c206361\n        /* \"#utility.yul\":12622:12623   */\n      0x00\n        /* \"#utility.yul\":12614:12620   */\n      dup3\n        /* \"#utility.yul\":12610:12624   */\n      add\n        /* \"#utility.yul\":12603:12661   */\n      mstore\n        /* \"#utility.yul\":12695:12718   */\n      0x6e20706572666f726d207468697320616374696f6e0000000000000000000000\n        /* \"#utility.yul\":12690:12692   */\n      0x20\n        /* \"#utility.yul\":12682:12688   */\n      dup3\n        /* \"#utility.yul\":12678:12693   */\n      add\n        /* \"#utility.yul\":12671:12719   */\n      mstore\n        /* \"#utility.yul\":12486:12726   */\n      pop\n      jump\t// out\n        /* \"#utility.yul\":12732:13098   */\n    tag_172:\n        /* \"#utility.yul\":12874:12877   */\n      0x00\n        /* \"#utility.yul\":12895:12962   */\n      tag_317\n        /* \"#utility.yul\":12959:12961   */\n      0x35\n        /* \"#utility.yul\":12954:12957   */\n      dup4\n        /* \"#utility.yul\":12895:12962   */\n      tag_167\n      jump\t// in\n    tag_317:\n        /* \"#utility.yul\":12888:12962   */\n      swap2\n      pop\n        /* \"#utility.yul\":12971:13064   */\n      tag_318\n        /* \"#utility.yul\":13060:13063   */\n      dup3\n        /* \"#utility.yul\":12971:13064   */\n      tag_171\n      jump\t// in\n    tag_318:\n        /* \"#utility.yul\":13089:13091   */\n      0x40\n        /* \"#utility.yul\":13084:13087   */\n      dup3\n        /* \"#utility.yul\":13080:13092   */\n      add\n        /* \"#utility.yul\":13073:13092   */\n      swap1\n      pop\n        /* \"#utility.yul\":12732:13098   */\n      swap2\n      swap1\n      pop\n      jump\t// out\n        /* \"#utility.yul\":13104:13523   */\n    tag_84:\n        /* \"#utility.yul\":13270:13274   */\n      0x00\n        /* \"#utility.yul\":13308:13310   */\n      0x20\n        /* \"#utility.yul\":13297:13306   */\n      dup3\n        /* \"#utility.yul\":13293:13311   */\n      add\n        /* \"#utility.yul\":13285:13311   */\n      swap1\n      pop\n        /* \"#utility.yul\":13357:13366   */\n      dup2\n        /* \"#utility.yul\":13351:13355   */\n      dup2\n        /* \"#utility.yul\":13347:13367   */\n      sub\n        /* \"#utility.yul\":13343:13344   */\n      0x00\n        /* \"#utility.yul\":13332:13341   */\n      dup4\n        /* \"#utility.yul\":13328:13345   */\n      add\n        /* \"#utility.yul\":13321:13368   */\n      mstore\n        /* \"#utility.yul\":13385:13516   */\n      tag_320\n        /* \"#utility.yul\":13511:13515   */\n      dup2\n        /* \"#utility.yul\":13385:13516   */\n      tag_172\n      jump\t// in\n    tag_320:\n        /* \"#utility.yul\":13377:13516   */\n      swap1\n      pop\n        /* \"#utility.yul\":13104:13523   */\n      swap2\n      swap1\n      pop\n      jump\t// out\n        /* \"#utility.yul\":13529:13701   */\n    tag_173:\n        /* \"#utility.yul\":13669:13693   */\n      0x496e76616c6964207363686f6f6c206164647265737300000000000000000000\n        /* \"#utility.yul\":13665:13666   */\n      0x00\n        /* \"#utility.yul\":13657:13663   */\n      dup3\n        /* \"#utility.yul\":13653:13667   */\n      add\n        /* \"#utility.yul\":13646:13694   */\n      mstore\n        /* \"#utility.yul\":13529:13701   */\n      pop\n      jump\t// out\n        /* \"#utility.yul\":13707:14073   */\n    tag_174:\n        /* \"#utility.yul\":13849:13852   */\n      0x00\n        /* \"#utility.yul\":13870:13937   */\n      tag_323\n        /* \"#utility.yul\":13934:13936   */\n      0x16\n        /* \"#utility.yul\":13929:13932   */\n      dup4\n        /* \"#utility.yul\":13870:13937   */\n      tag_167\n      jump\t// in\n    tag_323:\n        /* \"#utility.yul\":13863:13937   */\n      swap2\n      pop\n        /* \"#utility.yul\":13946:14039   */\n      tag_324\n        /* \"#utility.yul\":14035:14038   */\n      dup3\n        /* \"#utility.yul\":13946:14039   */\n      tag_173\n      jump\t// in\n    tag_324:\n        /* \"#utility.yul\":14064:14066   */\n      0x20\n        /* \"#utility.yul\":14059:14062   */\n      dup3\n        /* \"#utility.yul\":14055:14067   */\n      add\n        /* \"#utility.yul\":14048:14067   */\n      swap1\n      pop\n        /* \"#utility.yul\":13707:14073   */\n      swap2\n      swap1\n      pop\n      jump\t// out\n        /* \"#utility.yul\":14079:14498   */\n    tag_88:\n        /* \"#utility.yul\":14245:14249   */\n      0x00\n        /* \"#utility.yul\":14283:14285   */\n      0x20\n        /* \"#utility.yul\":14272:14281   */\n      dup3\n        /* \"#utility.yul\":14268:14286   */\n      add\n        /* \"#utility.yul\":14260:14286   */\n      swap1\n      pop\n        /* \"#utility.yul\":14332:14341   */\n      dup2\n        /* \"#utility.yul\":14326:14330   */\n      dup2\n        /* \"#utility.yul\":14322:14342   */\n      sub\n        /* \"#utility.yul\":14318:14319   */\n      0x00\n        /* \"#utility.yul\":14307:14316   */\n      dup4\n        /* \"#utility.yul\":14303:14320   */\n      add\n        /* \"#utility.yul\":14296:14343   */\n      mstore\n        /* \"#utility.yul\":14360:14491   */\n      tag_326\n        /* \"#utility.yul\":14486:14490   */\n      dup2\n        /* \"#utility.yul\":14360:14491   */\n      tag_174\n      jump\t// in\n    tag_326:\n        /* \"#utility.yul\":14352:14491   */\n      swap1\n      pop\n        /* \"#utility.yul\":14079:14498   */\n      swap2\n      swap1\n      pop\n      jump\t// out\n        /* \"#utility.yul\":14504:14678   */\n    tag_175:\n        /* \"#utility.yul\":14644:14670   */\n      0x53747564656e74206e616d652069732072657175697265640000000000000000\n        /* \"#utility.yul\":14640:14641   */\n      0x00\n        /* \"#utility.yul\":14632:14638   */\n      dup3\n        /* \"#utility.yul\":14628:14642   */\n      add\n        /* \"#utility.yul\":14621:14671   */\n      mstore\n        /* \"#utility.yul\":14504:14678   */\n      pop\n      jump\t// out\n        /* \"#utility.yul\":14684:15050   */\n    tag_176:\n        /* \"#utility.yul\":14826:14829   */\n      0x00\n        /* \"#utility.yul\":14847:14914   */\n      tag_329\n        /* \"#utility.yul\":14911:14913   */\n      0x18\n        /* \"#utility.yul\":14906:14909   */\n      dup4\n        /* \"#utility.yul\":14847:14914   */\n      tag_167\n      jump\t// in\n    tag_329:\n        /* \"#utility.yul\":14840:14914   */\n      swap2\n      pop\n        /* \"#utility.yul\":14923:15016   */\n      tag_330\n        /* \"#utility.yul\":15012:15015   */\n      dup3\n        /* \"#utility.yul\":14923:15016   */\n      tag_175\n      jump\t// in\n    tag_330:\n        /* \"#utility.yul\":15041:15043   */\n      0x20\n        /* \"#utility.yul\":15036:15039   */\n      dup3\n        /* \"#utility.yul\":15032:15044   */\n      add\n        /* \"#utility.yul\":15025:15044   */\n      swap1\n      pop\n        /* \"#utility.yul\":14684:15050   */\n      swap2\n      swap1\n      pop\n      jump\t// out\n        /* \"#utility.yul\":15056:15475   */\n    tag_91:\n        /* \"#utility.yul\":15222:15226   */\n      0x00\n        /* \"#utility.yul\":15260:15262   */\n      0x20\n        /* \"#utility.yul\":15249:15258   */\n      dup3\n        /* \"#utility.yul\":15245:15263   */\n      add\n        /* \"#utility.yul\":15237:15263   */\n      swap1\n      pop\n        /* \"#utility.yul\":15309:15318   */\n      dup2\n        /* \"#utility.yul\":15303:15307   */\n      dup2\n        /* \"#utility.yul\":15299:15319   */\n      sub\n        /* \"#utility.yul\":15295:15296   */\n      0x00\n        /* \"#utility.yul\":15284:15293   */\n      dup4\n        /* \"#utility.yul\":15280:15297   */\n      add\n        /* \"#utility.yul\":15273:15320   */\n      mstore\n        /* \"#utility.yul\":15337:15468   */\n      tag_332\n        /* \"#utility.yul\":15463:15467   */\n      dup2\n        /* \"#utility.yul\":15337:15468   */\n      tag_176\n      jump\t// in\n    tag_332:\n        /* \"#utility.yul\":15329:15468   */\n      swap1\n      pop\n        /* \"#utility.yul\":15056:15475   */\n      swap2\n      swap1\n      pop\n      jump\t// out\n        /* \"#utility.yul\":15481:15649   */\n    tag_177:\n        /* \"#utility.yul\":15621:15641   */\n      0x496e76616c69642073747564656e742049440000000000000000000000000000\n        /* \"#utility.yul\":15617:15618   */\n      0x00\n        /* \"#utility.yul\":15609:15615   */\n      dup3\n        /* \"#utility.yul\":15605:15619   */\n      add\n        /* \"#utility.yul\":15598:15642   */\n      mstore\n        /* \"#utility.yul\":15481:15649   */\n      pop\n      jump\t// out\n        /* \"#utility.yul\":15655:16021   */\n    tag_178:\n        /* \"#utility.yul\":15797:15800   */\n      0x00\n        /* \"#utility.yul\":15818:15885   */\n      tag_335\n        /* \"#utility.yul\":15882:15884   */\n      0x12\n        /* \"#utility.yul\":15877:15880   */\n      dup4\n        /* \"#utility.yul\":15818:15885   */\n      tag_167\n      jump\t// in\n    tag_335:\n        /* \"#utility.yul\":15811:15885   */\n      swap2\n      pop\n        /* \"#utility.yul\":15894:15987   */\n      tag_336\n        /* \"#utility.yul\":15983:15986   */\n      dup3\n        /* \"#utility.yul\":15894:15987   */\n      tag_177\n      jump\t// in\n    tag_336:\n        /* \"#utility.yul\":16012:16014   */\n      0x20\n        /* \"#utility.yul\":16007:16010   */\n      dup3\n        /* \"#utility.yul\":16003:16015   */\n      add\n        /* \"#utility.yul\":15996:16015   */\n      swap1\n      pop\n        /* \"#utility.yul\":15655:16021   */\n      swap2\n      swap1\n      pop\n      jump\t// out\n        /* \"#utility.yul\":16027:16446   */\n    tag_94:\n        /* \"#utility.yul\":16193:16197   */\n      0x00\n        /* \"#utility.yul\":16231:16233   */\n      0x20\n        /* \"#utility.yul\":16220:16229   */\n      dup3\n        /* \"#utility.yul\":16216:16234   */\n      add\n        /* \"#utility.yul\":16208:16234   */\n      swap1\n      pop\n        /* \"#utility.yul\":16280:16289   */\n      dup2\n        /* \"#utility.yul\":16274:16278   */\n      dup2\n        /* \"#utility.yul\":16270:16290   */\n      sub\n        /* \"#utility.yul\":16266:16267   */\n      0x00\n        /* \"#utility.yul\":16255:16264   */\n      dup4\n        /* \"#utility.yul\":16251:16268   */\n      add\n        /* \"#utility.yul\":16244:16291   */\n      mstore\n        /* \"#utility.yul\":16308:16439   */\n      tag_338\n        /* \"#utility.yul\":16434:16438   */\n      dup2\n        /* \"#utility.yul\":16308:16439   */\n      tag_178\n      jump\t// in\n    tag_338:\n        /* \"#utility.yul\":16300:16439   */\n      swap1\n      pop\n        /* \"#utility.yul\":16027:16446   */\n      swap2\n      swap1\n      pop\n      jump\t// out\n        /* \"#utility.yul\":16452:16622   */\n    tag_179:\n        /* \"#utility.yul\":16592:16614   */\n      0x496e76616c696420636c617373206e756d626572000000000000000000000000\n        /* \"#utility.yul\":16588:16589   */\n      0x00\n        /* \"#utility.yul\":16580:16586   */\n      dup3\n        /* \"#utility.yul\":16576:16590   */\n      add\n        /* \"#utility.yul\":16569:16615   */\n      mstore\n        /* \"#utility.yul\":16452:16622   */\n      pop\n      jump\t// out\n        /* \"#utility.yul\":16628:16994   */\n    tag_180:\n        /* \"#utility.yul\":16770:16773   */\n      0x00\n        /* \"#utility.yul\":16791:16858   */\n      tag_341\n        /* \"#utility.yul\":16855:16857   */\n      0x14\n        /* \"#utility.yul\":16850:16853   */\n      dup4\n        /* \"#utility.yul\":16791:16858   */\n      tag_167\n      jump\t// in\n    tag_341:\n        /* \"#utility.yul\":16784:16858   */\n      swap2\n      pop\n        /* \"#utility.yul\":16867:16960   */\n      tag_342\n        /* \"#utility.yul\":16956:16959   */\n      dup3\n        /* \"#utility.yul\":16867:16960   */\n      tag_179\n      jump\t// in\n    tag_342:\n        /* \"#utility.yul\":16985:16987   */\n      0x20\n        /* \"#utility.yul\":16980:16983   */\n      dup3\n        /* \"#utility.yul\":16976:16988   */\n      add\n        /* \"#utility.yul\":16969:16988   */\n      swap1\n      pop\n        /* \"#utility.yul\":16628:16994   */\n      swap2\n      swap1\n      pop\n      jump\t// out\n        /* \"#utility.yul\":17000:17419   */\n    tag_97:\n        /* \"#utility.yul\":17166:17170   */\n      0x00\n        /* \"#utility.yul\":17204:17206   */\n      0x20\n        /* \"#utility.yul\":17193:17202   */\n      dup3\n        /* \"#utility.yul\":17189:17207   */\n      add\n        /* \"#utility.yul\":17181:17207   */\n      swap1\n      pop\n        /* \"#utility.yul\":17253:17262   */\n      dup2\n        /* \"#utility.yul\":17247:17251   */\n      dup2\n        /* \"#utility.yul\":17243:17263   */\n      sub\n        /* \"#utility.yul\":17239:17240   */\n      0x00\n        /* \"#utility.yul\":17228:17237   */\n      dup4\n        /* \"#utility.yul\":17224:17241   */\n      add\n        /* \"#utility.yul\":17217:17264   */\n      mstore\n        /* \"#utility.yul\":17281:17412   */\n      tag_344\n        /* \"#utility.yul\":17407:17411   */\n      dup2\n        /* \"#utility.yul\":17281:17412   */\n      tag_180\n      jump\t// in\n    tag_344:\n        /* \"#utility.yul\":17273:17412   */\n      swap1\n      pop\n        /* \"#utility.yul\":17000:17419   */\n      swap2\n      swap1\n      pop\n      jump\t// out\n        /* \"#utility.yul\":17425:17658   */\n    tag_181:\n        /* \"#utility.yul\":17565:17599   */\n      0x46726175642064657465637465643a204944206d757374206e6f74206d617463\n        /* \"#utility.yul\":17561:17562   */\n      0x00\n        /* \"#utility.yul\":17553:17559   */\n      dup3\n        /* \"#utility.yul\":17549:17563   */\n      add\n        /* \"#utility.yul\":17542:17600   */\n      mstore\n        /* \"#utility.yul\":17634:17650   */\n      0x6820636c617373206e756d626572000000000000000000000000000000000000\n        /* \"#utility.yul\":17629:17631   */\n      0x20\n        /* \"#utility.yul\":17621:17627   */\n      dup3\n        /* \"#utility.yul\":17617:17632   */\n      add\n        /* \"#utility.yul\":17610:17651   */\n      mstore\n        /* \"#utility.yul\":17425:17658   */\n      pop\n      jump\t// out\n        /* \"#utility.yul\":17664:18030   */\n    tag_182:\n        /* \"#utility.yul\":17806:17809   */\n      0x00\n        /* \"#utility.yul\":17827:17894   */\n      tag_347\n        /* \"#utility.yul\":17891:17893   */\n      0x2e\n        /* \"#utility.yul\":17886:17889   */\n      dup4\n        /* \"#utility.yul\":17827:17894   */\n      tag_167\n      jump\t// in\n    tag_347:\n        /* \"#utility.yul\":17820:17894   */\n      swap2\n      pop\n        /* \"#utility.yul\":17903:17996   */\n      tag_348\n        /* \"#utility.yul\":17992:17995   */\n      dup3\n        /* \"#utility.yul\":17903:17996   */\n      tag_181\n      jump\t// in\n    tag_348:\n        /* \"#utility.yul\":18021:18023   */\n      0x40\n        /* \"#utility.yul\":18016:18019   */\n      dup3\n        /* \"#utility.yul\":18012:18024   */\n      add\n        /* \"#utility.yul\":18005:18024   */\n      swap1\n      pop\n        /* \"#utility.yul\":17664:18030   */\n      swap2\n      swap1\n      pop\n      jump\t// out\n        /* \"#utility.yul\":18036:18455   */\n    tag_100:\n        /* \"#utility.yul\":18202:18206   */\n      0x00\n        /* \"#utility.yul\":18240:18242   */\n      0x20\n        /* \"#utility.yul\":18229:18238   */\n      dup3\n        /* \"#utility.yul\":18225:18243   */\n      add\n        /* \"#utility.yul\":18217:18243   */\n      swap1\n      pop\n        /* \"#utility.yul\":18289:18298   */\n      dup2\n        /* \"#utility.yul\":18283:18287   */\n      dup2\n        /* \"#utility.yul\":18279:18299   */\n      sub\n        /* \"#utility.yul\":18275:18276   */\n      0x00\n        /* \"#utility.yul\":18264:18273   */\n      dup4\n        /* \"#utility.yul\":18260:18277   */\n      add\n        /* \"#utility.yul\":18253:18300   */\n      mstore\n        /* \"#utility.yul\":18317:18448   */\n      tag_350\n        /* \"#utility.yul\":18443:18447   */\n      dup2\n        /* \"#utility.yul\":18317:18448   */\n      tag_182\n      jump\t// in\n    tag_350:\n        /* \"#utility.yul\":18309:18448   */\n      swap1\n      pop\n        /* \"#utility.yul\":18036:18455   */\n      swap2\n      swap1\n      pop\n      jump\t// out\n        /* \"#utility.yul\":18461:18711   */\n    tag_183:\n        /* \"#utility.yul\":18601:18635   */\n      0x53747564656e7420494420616c72656164792065786973747320666f72207468\n        /* \"#utility.yul\":18597:18598   */\n      0x00\n        /* \"#utility.yul\":18589:18595   */\n      dup3\n        /* \"#utility.yul\":18585:18599   */\n      add\n        /* \"#utility.yul\":18578:18636   */\n      mstore\n        /* \"#utility.yul\":18670:18703   */\n      0x6973207363686f6f6c2067657420746865206675636b20796f75207363616d00\n        /* \"#utility.yul\":18665:18667   */\n      0x20\n        /* \"#utility.yul\":18657:18663   */\n      dup3\n        /* \"#utility.yul\":18653:18668   */\n      add\n        /* \"#utility.yul\":18646:18704   */\n      mstore\n        /* \"#utility.yul\":18461:18711   */\n      pop\n      jump\t// out\n        /* \"#utility.yul\":18717:19083   */\n    tag_184:\n        /* \"#utility.yul\":18859:18862   */\n      0x00\n        /* \"#utility.yul\":18880:18947   */\n      tag_353\n        /* \"#utility.yul\":18944:18946   */\n      0x3f\n        /* \"#utility.yul\":18939:18942   */\n      dup4\n        /* \"#utility.yul\":18880:18947   */\n      tag_167\n      jump\t// in\n    tag_353:\n        /* \"#utility.yul\":18873:18947   */\n      swap2\n      pop\n        /* \"#utility.yul\":18956:19049   */\n      tag_354\n        /* \"#utility.yul\":19045:19048   */\n      dup3\n        /* \"#utility.yul\":18956:19049   */\n      tag_183\n      jump\t// in\n    tag_354:\n        /* \"#utility.yul\":19074:19076   */\n      0x40\n        /* \"#utility.yul\":19069:19072   */\n      dup3\n        /* \"#utility.yul\":19065:19077   */\n      add\n        /* \"#utility.yul\":19058:19077   */\n      swap1\n      pop\n        /* \"#utility.yul\":18717:19083   */\n      swap2\n      swap1\n      pop\n      jump\t// out\n        /* \"#utility.yul\":19089:19508   */\n    tag_109:\n        /* \"#utility.yul\":19255:19259   */\n      0x00\n        /* \"#utility.yul\":19293:19295   */\n      0x20\n        /* \"#utility.yul\":19282:19291   */\n      dup3\n        /* \"#utility.yul\":19278:19296   */\n      add\n        /* \"#utility.yul\":19270:19296   */\n      swap1\n      pop\n        /* \"#utility.yul\":19342:19351   */\n      dup2\n        /* \"#utility.yul\":19336:19340   */\n      dup2\n        /* \"#utility.yul\":19332:19352   */\n      sub\n        /* \"#utility.yul\":19328:19329   */\n      0x00\n        /* \"#utility.yul\":19317:19326   */\n      dup4\n        /* \"#utility.yul\":19313:19330   */\n      add\n        /* \"#utility.yul\":19306:19353   */\n      mstore\n        /* \"#utility.yul\":19370:19501   */\n      tag_356\n        /* \"#utility.yul\":19496:19500   */\n      dup2\n        /* \"#utility.yul\":19370:19501   */\n      tag_184\n      jump\t// in\n    tag_356:\n        /* \"#utility.yul\":19362:19501   */\n      swap1\n      pop\n        /* \"#utility.yul\":19089:19508   */\n      swap2\n      swap1\n      pop\n      jump\t// out\n        /* \"#utility.yul\":19514:19655   */\n    tag_185:\n        /* \"#utility.yul\":19563:19567   */\n      0x00\n        /* \"#utility.yul\":19586:19589   */\n      dup2\n        /* \"#utility.yul\":19578:19589   */\n      swap1\n      pop\n        /* \"#utility.yul\":19609:19612   */\n      dup2\n        /* \"#utility.yul\":19606:19607   */\n      0x00\n        /* \"#utility.yul\":19599:19613   */\n      mstore\n        /* \"#utility.yul\":19643:19647   */\n      0x20\n        /* \"#utility.yul\":19640:19641   */\n      0x00\n        /* \"#utility.yul\":19630:19648   */\n      keccak256\n        /* \"#utility.yul\":19622:19648   */\n      swap1\n      pop\n        /* \"#utility.yul\":19514:19655   */\n      swap2\n      swap1\n      pop\n      jump\t// out\n        /* \"#utility.yul\":19661:19754   */\n    tag_186:\n        /* \"#utility.yul\":19698:19704   */\n      0x00\n        /* \"#utility.yul\":19745:19747   */\n      0x20\n        /* \"#utility.yul\":19740:19742   */\n      0x1f\n        /* \"#utility.yul\":19733:19738   */\n      dup4\n        /* \"#utility.yul\":19729:19743   */\n      add\n        /* \"#utility.yul\":19725:19748   */\n      div\n        /* \"#utility.yul\":19715:19748   */\n      swap1\n      pop\n        /* \"#utility.yul\":19661:19754   */\n      swap2\n      swap1\n      pop\n      jump\t// out\n        /* \"#utility.yul\":19760:19867   */\n    tag_187:\n        /* \"#utility.yul\":19804:19812   */\n      0x00\n        /* \"#utility.yul\":19854:19859   */\n      dup3\n        /* \"#utility.yul\":19848:19852   */\n      dup3\n        /* \"#utility.yul\":19844:19860   */\n      shl\n        /* \"#utility.yul\":19823:19860   */\n      swap1\n      pop\n        /* \"#utility.yul\":19760:19867   */\n      swap3\n      swap2\n      pop\n      pop\n      jump\t// out\n        /* \"#utility.yul\":19873:20266   */\n    tag_188:\n        /* \"#utility.yul\":19942:19948   */\n      0x00\n        /* \"#utility.yul\":19992:19993   */\n      0x08\n        /* \"#utility.yul\":19980:19990   */\n      dup4\n        /* \"#utility.yul\":19976:19994   */\n      mul\n        /* \"#utility.yul\":20015:20112   */\n      tag_361\n        /* \"#utility.yul\":20045:20111   */\n      0xffffffffffffffffffffffffffffffffffffffffffffffffffffffffffffffff\n        /* \"#utility.yul\":20034:20043   */\n      dup3\n        /* \"#utility.yul\":20015:20112   */\n      tag_187\n      jump\t// in\n    tag_361:\n        /* \"#utility.yul\":20133:20172   */\n      tag_362\n        /* \"#utility.yul\":20163:20171   */\n      dup7\n        /* \"#utility.yul\":20152:20161   */\n      dup4\n        /* \"#utility.yul\":20133:20172   */\n      tag_187\n      jump\t// in\n    tag_362:\n        /* \"#utility.yul\":20121:20172   */\n      swap6\n      pop\n        /* \"#utility.yul\":20205:20209   */\n      dup1\n        /* \"#utility.yul\":20201:20210   */\n      not\n        /* \"#utility.yul\":20194:20199   */\n      dup5\n        /* \"#utility.yul\":20190:20211   */\n      and\n        /* \"#utility.yul\":20181:20211   */\n      swap4\n      pop\n        /* \"#utility.yul\":20254:20258   */\n      dup1\n        /* \"#utility.yul\":20244:20252   */\n      dup7\n        /* \"#utility.yul\":20240:20259   */\n      and\n        /* \"#utility.yul\":20233:20238   */\n      dup5\n        /* \"#utility.yul\":20230:20260   */\n      or\n        /* \"#utility.yul\":20220:20260   */\n      swap3\n      pop\n        /* \"#utility.yul\":19949:20266   */\n      pop\n      pop\n        /* \"#utility.yul\":19873:20266   */\n      swap4\n      swap3\n      pop\n      pop\n      pop\n      jump\t// out\n        /* \"#utility.yul\":20272:20332   */\n    tag_189:\n        /* \"#utility.yul\":20300:20303   */\n      0x00\n        /* \"#utility.yul\":20321:20326   */\n      dup2\n        /* \"#utility.yul\":20314:20326   */\n      swap1\n      pop\n        /* \"#utility.yul\":20272:20332   */\n      swap2\n      swap1\n      pop\n      jump\t// out\n        /* \"#utility.yul\":20338:20480   */\n    tag_190:\n        /* \"#utility.yul\":20388:20397   */\n      0x00\n        /* \"#utility.yul\":20421:20474   */\n      tag_365\n        /* \"#utility.yul\":20439:20473   */\n      tag_366\n        /* \"#utility.yul\":20448:20472   */\n      tag_367\n        /* \"#utility.yul\":20466:20471   */\n      dup5\n        /* \"#utility.yul\":20448:20472   */\n      tag_145\n      jump\t// in\n    tag_367:\n        /* \"#utility.yul\":20439:20473   */\n      tag_189\n      jump\t// in\n    tag_366:\n        /* \"#utility.yul\":20421:20474   */\n      tag_145\n      jump\t// in\n    tag_365:\n        /* \"#utility.yul\":20408:20474   */\n      swap1\n      pop\n        /* \"#utility.yul\":20338:20480   */\n      swap2\n      swap1\n      pop\n      jump\t// out\n        /* \"#utility.yul\":20486:20561   */\n    tag_191:\n        /* \"#utility.yul\":20529:20532   */\n      0x00\n        /* \"#utility.yul\":20550:20555   */\n      dup2\n        /* \"#utility.yul\":20543:20555   */\n      swap1\n      pop\n        /* \"#utility.yul\":20486:20561   */\n      swap2\n      swap1\n      pop\n      jump\t// out\n        /* \"#utility.yul\":20567:20836   */\n    tag_192:\n        /* \"#utility.yul\":20677:20716   */\n      tag_370\n        /* \"#utility.yul\":20708:20715   */\n      dup4\n        /* \"#utility.yul\":20677:20716   */\n      tag_190\n      jump\t// in\n    tag_370:\n        /* \"#utility.yul\":20738:20829   */\n      tag_371\n        /* \"#utility.yul\":20787:20828   */\n      tag_372\n        /* \"#utility.yul\":20811:20827   */\n      dup3\n        /* \"#utility.yul\":20787:20828   */\n      tag_191\n      jump\t// in\n    tag_372:\n        /* \"#utility.yul\":20779:20785   */\n      dup5\n        /* \"#utility.yul\":20772:20776   */\n      dup5\n        /* \"#utility.yul\":20766:20777   */\n      sload\n        /* \"#utility.yul\":20738:20829   */\n      tag_188\n      jump\t// in\n    tag_371:\n        /* \"#utility.yul\":20732:20736   */\n      dup3\n        /* \"#utility.yul\":20725:20830   */\n      sstore\n        /* \"#utility.yul\":20643:20836   */\n      pop\n        /* \"#utility.yul\":20567:20836   */\n      pop\n      pop\n      pop\n      jump\t// out\n        /* \"#utility.yul\":20842:20915   */\n    tag_193:\n        /* \"#utility.yul\":20887:20890   */\n      0x00\n        /* \"#utility.yul\":20842:20915   */\n      swap1\n      jump\t// out\n        /* \"#utility.yul\":20921:21110   */\n    tag_194:\n        /* \"#utility.yul\":20998:21030   */\n      tag_375\n      tag_193\n      jump\t// in\n    tag_375:\n        /* \"#utility.yul\":21039:21104   */\n      tag_376\n        /* \"#utility.yul\":21097:21103   */\n      dup2\n        /* \"#utility.yul\":21089:21095   */\n      dup5\n        /* \"#utility.yul\":21083:21087   */\n      dup5\n        /* \"#utility.yul\":21039:21104   */\n      tag_192\n      jump\t// in\n    tag_376:\n        /* \"#utility.yul\":20974:21110   */\n      pop\n        /* \"#utility.yul\":20921:21110   */\n      pop\n      pop\n      jump\t// out\n        /* \"#utility.yul\":21116:21302   */\n    tag_195:\n        /* \"#utility.yul\":21176:21296   */\n    tag_378:\n        /* \"#utility.yul\":21193:21196   */\n      dup2\n        /* \"#utility.yul\":21186:21191   */\n      dup2\n        /* \"#utility.yul\":21183:21197   */\n      lt\n        /* \"#utility.yul\":21176:21296   */\n      iszero\n      tag_380\n      jumpi\n        /* \"#utility.yul\":21247:21286   */\n      tag_381\n        /* \"#utility.yul\":21284:21285   */\n      0x00\n        /* \"#utility.yul\":21277:21282   */\n      dup3\n        /* \"#utility.yul\":21247:21286   */\n      tag_194\n      jump\t// in\n    tag_381:\n        /* \"#utility.yul\":21220:21221   */\n      0x01\n        /* \"#utility.yul\":21213:21218   */\n      dup2\n        /* \"#utility.yul\":21209:21222   */\n      add\n        /* \"#utility.yul\":21200:21222   */\n      swap1\n      pop\n        /* \"#utility.yul\":21176:21296   */\n      jump(tag_378)\n    tag_380:\n        /* \"#utility.yul\":21116:21302   */\n      pop\n      pop\n      jump\t// out\n        /* \"#utility.yul\":21308:21851   */\n    tag_196:\n        /* \"#utility.yul\":21409:21411   */\n      0x1f\n        /* \"#utility.yul\":21404:21407   */\n      dup3\n        /* \"#utility.yul\":21401:21412   */\n      gt\n        /* \"#utility.yul\":21398:21844   */\n      iszero\n      tag_383\n      jumpi\n        /* \"#utility.yul\":21443:21481   */\n      tag_384\n        /* \"#utility.yul\":21475:21480   */\n      dup2\n        /* \"#utility.yul\":21443:21481   */\n      tag_185\n      jump\t// in\n    tag_384:\n        /* \"#utility.yul\":21527:21556   */\n      tag_385\n        /* \"#utility.yul\":21545:21555   */\n      dup5\n        /* \"#utility.yul\":21527:21556   */\n      tag_186\n      jump\t// in\n    tag_385:\n        /* \"#utility.yul\":21517:21525   */\n      dup2\n        /* \"#utility.yul\":21513:21557   */\n      add\n        /* \"#utility.yul\":21710:21712   */\n      0x20\n        /* \"#utility.yul\":21698:21708   */\n      dup6\n        /* \"#utility.yul\":21695:21713   */\n      lt\n        /* \"#utility.yul\":21692:21741   */\n      iszero\n      tag_386\n      jumpi\n        /* \"#utility.yul\":21731:21739   */\n      dup2\n        /* \"#utility.yul\":21716:21739   */\n      swap1\n      pop\n        /* \"#utility.yul\":21692:21741   */\n    tag_386:\n        /* \"#utility.yul\":21754:21834   */\n      tag_387\n        /* \"#utility.yul\":21810:21832   */\n      tag_388\n        /* \"#utility.yul\":21828:21831   */\n      dup6\n        /* \"#utility.yul\":21810:21832   */\n      tag_186\n      jump\t// in\n    tag_388:\n        /* \"#utility.yul\":21800:21808   */\n      dup4\n        /* \"#utility.yul\":21796:21833   */\n      add\n        /* \"#utility.yul\":21783:21794   */\n      dup3\n        /* \"#utility.yul\":21754:21834   */\n      tag_195\n      jump\t// in\n    tag_387:\n        /* \"#utility.yul\":21413:21844   */\n      pop\n      pop\n        /* \"#utility.yul\":21398:21844   */\n    tag_383:\n        /* \"#utility.yul\":21308:21851   */\n      pop\n      pop\n      pop\n      jump\t// out\n        /* \"#utility.yul\":21857:21974   */\n    tag_197:\n        /* \"#utility.yul\":21911:21919   */\n      0x00\n        /* \"#utility.yul\":21961:21966   */\n      dup3\n        /* \"#utility.yul\":21955:21959   */\n      dup3\n        /* \"#utility.yul\":21951:21967   */\n      shr\n        /* \"#utility.yul\":21930:21967   */\n      swap1\n      pop\n        /* \"#utility.yul\":21857:21974   */\n      swap3\n      swap2\n      pop\n      pop\n      jump\t// out\n        /* \"#utility.yul\":21980:22149   */\n    tag_198:\n        /* \"#utility.yul\":22024:22030   */\n      0x00\n        /* \"#utility.yul\":22057:22108   */\n      tag_391\n        /* \"#utility.yul\":22105:22106   */\n      0x00\n        /* \"#utility.yul\":22101:22107   */\n      not\n        /* \"#utility.yul\":22093:22098   */\n      dup5\n        /* \"#utility.yul\":22090:22091   */\n      0x08\n        /* \"#utility.yul\":22086:22099   */\n      mul\n        /* \"#utility.yul\":22057:22108   */\n      tag_197\n      jump\t// in\n    tag_391:\n        /* \"#utility.yul\":22053:22109   */\n      not\n        /* \"#utility.yul\":22138:22142   */\n      dup1\n        /* \"#utility.yul\":22132:22136   */\n      dup4\n        /* \"#utility.yul\":22128:22143   */\n      and\n        /* \"#utility.yul\":22118:22143   */\n      swap2\n      pop\n        /* \"#utility.yul\":22031:22149   */\n      pop\n        /* \"#utility.yul\":21980:22149   */\n      swap3\n      swap2\n      pop\n      pop\n      jump\t// out\n        /* \"#utility.yul\":22154:22449   */\n    tag_199:\n        /* \"#utility.yul\":22230:22234   */\n      0x00\n        /* \"#utility.yul\":22376:22405   */\n      tag_393\n        /* \"#utility.yul\":22401:22404   */\n      dup4\n        /* \"#utility.yul\":22395:22399   */\n      dup4\n        /* \"#utility.yul\":22376:22405   */\n      tag_198\n      jump\t// in\n    tag_393:\n        /* \"#utility.yul\":22368:22405   */\n      swap2\n      pop\n        /* \"#utility.yul\":22438:22441   */\n      dup3\n        /* \"#utility.yul\":22435:22436   */\n      0x02\n        /* \"#utility.yul\":22431:22442   */\n      mul\n        /* \"#utility.yul\":22425:22429   */\n      dup3\n        /* \"#utility.yul\":22422:22443   */\n      or\n        /* \"#utility.yul\":22414:22443   */\n      swap1\n      pop\n        /* \"#utility.yul\":22154:22449   */\n      swap3\n      swap2\n      pop\n      pop\n      jump\t// out\n        /* \"#utility.yul\":22454:23849   */\n    tag_113:\n        /* \"#utility.yul\":22571:22608   */\n      tag_395\n        /* \"#utility.yul\":22604:22607   */\n      dup3\n        /* \"#utility.yul\":22571:22608   */\n      tag_140\n      jump\t// in\n    tag_395:\n        /* \"#utility.yul\":22673:22691   */\n      0xffffffffffffffff\n        /* \"#utility.yul\":22665:22671   */\n      dup2\n        /* \"#utility.yul\":22662:22692   */\n      gt\n        /* \"#utility.yul\":22659:22715   */\n      iszero\n      tag_396\n      jumpi\n        /* \"#utility.yul\":22695:22713   */\n      tag_397\n      tag_64\n      jump\t// in\n    tag_397:\n        /* \"#utility.yul\":22659:22715   */\n    tag_396:\n        /* \"#utility.yul\":22739:22777   */\n      tag_398\n        /* \"#utility.yul\":22771:22775   */\n      dup3\n        /* \"#utility.yul\":22765:22776   */\n      sload\n        /* \"#utility.yul\":22739:22777   */\n      tag_36\n      jump\t// in\n    tag_398:\n        /* \"#utility.yul\":22824:22891   */\n      tag_399\n        /* \"#utility.yul\":22884:22890   */\n      dup3\n        /* \"#utility.yul\":22876:22882   */\n      dup3\n        /* \"#utility.yul\":22870:22874   */\n      dup6\n        /* \"#utility.yul\":22824:22891   */\n      tag_196\n      jump\t// in\n    tag_399:\n        /* \"#utility.yul\":22918:22919   */\n      0x00\n        /* \"#utility.yul\":22942:22946   */\n      0x20\n        /* \"#utility.yul\":22929:22946   */\n      swap1\n      pop\n        /* \"#utility.yul\":22974:22976   */\n      0x1f\n        /* \"#utility.yul\":22966:22972   */\n      dup4\n        /* \"#utility.yul\":22963:22977   */\n      gt\n        /* \"#utility.yul\":22991:22992   */\n      0x01\n        /* \"#utility.yul\":22986:23604   */\n      dup2\n      eq\n      tag_401\n      jumpi\n        /* \"#utility.yul\":23648:23649   */\n      0x00\n        /* \"#utility.yul\":23665:23671   */\n      dup5\n        /* \"#utility.yul\":23662:23739   */\n      iszero\n      tag_402\n      jumpi\n        /* \"#utility.yul\":23714:23723   */\n      dup3\n        /* \"#utility.yul\":23709:23712   */\n      dup8\n        /* \"#utility.yul\":23705:23724   */\n      add\n        /* \"#utility.yul\":23699:23725   */\n      mload\n        /* \"#utility.yul\":23690:23725   */\n      swap1\n      pop\n        /* \"#utility.yul\":23662:23739   */\n    tag_402:\n        /* \"#utility.yul\":23765:23832   */\n      tag_403\n        /* \"#utility.yul\":23825:23831   */\n      dup6\n        /* \"#utility.yul\":23818:23823   */\n      dup3\n        /* \"#utility.yul\":23765:23832   */\n      tag_199\n      jump\t// in\n    tag_403:\n        /* \"#utility.yul\":23759:23763   */\n      dup7\n        /* \"#utility.yul\":23752:23833   */\n      sstore\n        /* \"#utility.yul\":23621:23843   */\n      pop\n        /* \"#utility.yul\":22956:23843   */\n      jump(tag_400)\n        /* \"#utility.yul\":22986:23604   */\n    tag_401:\n        /* \"#utility.yul\":23038:23042   */\n      0x1f\n        /* \"#utility.yul\":23034:23043   */\n      not\n        /* \"#utility.yul\":23026:23032   */\n      dup5\n        /* \"#utility.yul\":23022:23044   */\n      and\n        /* \"#utility.yul\":23072:23109   */\n      tag_404\n        /* \"#utility.yul\":23104:23108   */\n      dup7\n        /* \"#utility.yul\":23072:23109   */\n      tag_185\n      jump\t// in\n    tag_404:\n        /* \"#utility.yul\":23131:23132   */\n      0x00\n        /* \"#utility.yul\":23145:23353   */\n    tag_405:\n        /* \"#utility.yul\":23159:23166   */\n      dup3\n        /* \"#utility.yul\":23156:23157   */\n      dup2\n        /* \"#utility.yul\":23153:23167   */\n      lt\n        /* \"#utility.yul\":23145:23353   */\n      iszero\n      tag_407\n      jumpi\n        /* \"#utility.yul\":23238:23247   */\n      dup5\n        /* \"#utility.yul\":23233:23236   */\n      dup10\n        /* \"#utility.yul\":23229:23248   */\n      add\n        /* \"#utility.yul\":23223:23249   */\n      mload\n        /* \"#utility.yul\":23215:23221   */\n      dup3\n        /* \"#utility.yul\":23208:23250   */\n      sstore\n        /* \"#utility.yul\":23289:23290   */\n      0x01\n        /* \"#utility.yul\":23281:23287   */\n      dup3\n        /* \"#utility.yul\":23277:23291   */\n      add\n        /* \"#utility.yul\":23267:23291   */\n      swap2\n      pop\n        /* \"#utility.yul\":23336:23338   */\n      0x20\n        /* \"#utility.yul\":23325:23334   */\n      dup6\n        /* \"#utility.yul\":23321:23339   */\n      add\n        /* \"#utility.yul\":23308:23339   */\n      swap5\n      pop\n        /* \"#utility.yul\":23182:23186   */\n      0x20\n        /* \"#utility.yul\":23179:23180   */\n      dup2\n        /* \"#utility.yul\":23175:23187   */\n      add\n        /* \"#utility.yul\":23170:23187   */\n      swap1\n      pop\n        /* \"#utility.yul\":23145:23353   */\n      jump(tag_405)\n    tag_407:\n        /* \"#utility.yul\":23381:23387   */\n      dup7\n        /* \"#utility.yul\":23372:23379   */\n      dup4\n        /* \"#utility.yul\":23369:23388   */\n      lt\n        /* \"#utility.yul\":23366:23545   */\n      iszero\n      tag_408\n      jumpi\n        /* \"#utility.yul\":23439:23448   */\n      dup5\n        /* \"#utility.yul\":23434:23437   */\n      dup10\n        /* \"#utility.yul\":23430:23449   */\n      add\n        /* \"#utility.yul\":23424:23450   */\n      mload\n        /* \"#utility.yul\":23482:23530   */\n      tag_409\n        /* \"#utility.yul\":23524:23528   */\n      0x1f\n        /* \"#utility.yul\":23516:23522   */\n      dup10\n        /* \"#utility.yul\":23512:23529   */\n      and\n        /* \"#utility.yul\":23501:23510   */\n      dup3\n        /* \"#utility.yul\":23482:23530   */\n      tag_198\n      jump\t// in\n    tag_409:\n        /* \"#utility.yul\":23474:23480   */\n      dup4\n        /* \"#utility.yul\":23467:23531   */\n      sstore\n        /* \"#utility.yul\":23389:23545   */\n      pop\n        /* \"#utility.yul\":23366:23545   */\n    tag_408:\n        /* \"#utility.yul\":23591:23592   */\n      0x01\n        /* \"#utility.yul\":23587:23588   */\n      0x02\n        /* \"#utility.yul\":23579:23585   */\n      dup9\n        /* \"#utility.yul\":23575:23589   */\n      mul\n        /* \"#utility.yul\":23571:23593   */\n      add\n        /* \"#utility.yul\":23565:23569   */\n      dup9\n        /* \"#utility.yul\":23558:23594   */\n      sstore\n        /* \"#utility.yul\":22993:23604   */\n      pop\n      pop\n      pop\n        /* \"#utility.yul\":22956:23843   */\n    tag_400:\n      pop\n        /* \"#utility.yul\":22546:23849   */\n      pop\n      pop\n      pop\n        /* \"#utility.yul\":22454:23849   */\n      pop\n      pop\n      jump\t// out\n        /* \"#utility.yul\":23855:24001   */\n    tag_200:\n        /* \"#utility.yul\":23952:23958   */\n      dup3\n        /* \"#utility.yul\":23947:23950   */\n      dup2\n        /* \"#utility.yul\":23942:23945   */\n      dup4\n        /* \"#utility.yul\":23929:23959   */\n      calldatacopy\n        /* \"#utility.yul\":23993:23994   */\n      0x00\n        /* \"#utility.yul\":23984:23990   */\n      dup4\n        /* \"#utility.yul\":23979:23982   */\n      dup4\n        /* \"#utility.yul\":23975:23991   */\n      add\n        /* \"#utility.yul\":23968:23995   */\n      mstore\n        /* \"#utility.yul\":23855:24001   */\n      pop\n      pop\n      pop\n      jump\t// out\n        /* \"#utility.yul\":24031:24348   */\n    tag_201:\n        /* \"#utility.yul\":24129:24132   */\n      0x00\n        /* \"#utility.yul\":24150:24221   */\n      tag_412\n        /* \"#utility.yul\":24214:24220   */\n      dup4\n        /* \"#utility.yul\":24209:24212   */\n      dup6\n        /* \"#utility.yul\":24150:24221   */\n      tag_167\n      jump\t// in\n    tag_412:\n        /* \"#utility.yul\":24143:24221   */\n      swap4\n      pop\n        /* \"#utility.yul\":24231:24287   */\n      tag_413\n        /* \"#utility.yul\":24280:24286   */\n      dup4\n        /* \"#utility.yul\":24275:24278   */\n      dup6\n        /* \"#utility.yul\":24268:24273   */\n      dup5\n        /* \"#utility.yul\":24231:24287   */\n      tag_200\n      jump\t// in\n    tag_413:\n        /* \"#utility.yul\":24312:24341   */\n      tag_414\n        /* \"#utility.yul\":24334:24340   */\n      dup4\n        /* \"#utility.yul\":24312:24341   */\n      tag_143\n      jump\t// in\n    tag_414:\n        /* \"#utility.yul\":24307:24310   */\n      dup5\n        /* \"#utility.yul\":24303:24342   */\n      add\n        /* \"#utility.yul\":24296:24342   */\n      swap1\n      pop\n        /* \"#utility.yul\":24031:24348   */\n      swap4\n      swap3\n      pop\n      pop\n      pop\n      jump\t// out\n        /* \"#utility.yul\":24354:24472   */\n    tag_202:\n        /* \"#utility.yul\":24441:24465   */\n      tag_416\n        /* \"#utility.yul\":24459:24464   */\n      dup2\n        /* \"#utility.yul\":24441:24465   */\n      tag_145\n      jump\t// in\n    tag_416:\n        /* \"#utility.yul\":24436:24439   */\n      dup3\n        /* \"#utility.yul\":24429:24466   */\n      mstore\n        /* \"#utility.yul\":24354:24472   */\n      pop\n      pop\n      jump\t// out\n        /* \"#utility.yul\":24478:25031   */\n    tag_115:\n        /* \"#utility.yul\":24657:24661   */\n      0x00\n        /* \"#utility.yul\":24695:24697   */\n      0x60\n        /* \"#utility.yul\":24684:24693   */\n      dup3\n        /* \"#utility.yul\":24680:24698   */\n      add\n        /* \"#utility.yul\":24672:24698   */\n      swap1\n      pop\n        /* \"#utility.yul\":24744:24753   */\n      dup2\n        /* \"#utility.yul\":24738:24742   */\n      dup2\n        /* \"#utility.yul\":24734:24754   */\n      sub\n        /* \"#utility.yul\":24730:24731   */\n      0x00\n        /* \"#utility.yul\":24719:24728   */\n      dup4\n        /* \"#utility.yul\":24715:24732   */\n      add\n        /* \"#utility.yul\":24708:24755   */\n      mstore\n        /* \"#utility.yul\":24772:24860   */\n      tag_418\n        /* \"#utility.yul\":24855:24859   */\n      dup2\n        /* \"#utility.yul\":24846:24852   */\n      dup7\n        /* \"#utility.yul\":24838:24844   */\n      dup9\n        /* \"#utility.yul\":24772:24860   */\n      tag_201\n      jump\t// in\n    tag_418:\n        /* \"#utility.yul\":24764:24860   */\n      swap1\n      pop\n        /* \"#utility.yul\":24870:24942   */\n      tag_419\n        /* \"#utility.yul\":24938:24940   */\n      0x20\n        /* \"#utility.yul\":24927:24936   */\n      dup4\n        /* \"#utility.yul\":24923:24941   */\n      add\n        /* \"#utility.yul\":24914:24920   */\n      dup6\n        /* \"#utility.yul\":24870:24942   */\n      tag_202\n      jump\t// in\n    tag_419:\n        /* \"#utility.yul\":24952:25024   */\n      tag_420\n        /* \"#utility.yul\":25020:25022   */\n      0x40\n        /* \"#utility.yul\":25009:25018   */\n      dup4\n        /* \"#utility.yul\":25005:25023   */\n      add\n        /* \"#utility.yul\":24996:25002   */\n      dup5\n        /* \"#utility.yul\":24952:25024   */\n      tag_202\n      jump\t// in\n    tag_420:\n        /* \"#utility.yul\":24478:25031   */\n      swap6\n      swap5\n      pop\n      pop\n      pop\n      pop\n      pop\n      jump\t// out\n        /* \"#utility.yul\":25037:25218   */\n    tag_203:\n        /* \"#utility.yul\":25177:25210   */\n      0x53747564656e74207769746820676976656e204944206e6f7420666f756e6400\n        /* \"#utility.yul\":25173:25174   */\n      0x00\n        /* \"#utility.yul\":25165:25171   */\n      dup3\n        /* \"#utility.yul\":25161:25175   */\n      add\n        /* \"#utility.yul\":25154:25211   */\n      mstore\n        /* \"#utility.yul\":25037:25218   */\n      pop\n      jump\t// out\n        /* \"#utility.yul\":25224:25590   */\n    tag_204:\n        /* \"#utility.yul\":25366:25369   */\n      0x00\n        /* \"#utility.yul\":25387:25454   */\n      tag_423\n        /* \"#utility.yul\":25451:25453   */\n      0x1f\n        /* \"#utility.yul\":25446:25449   */\n      dup4\n        /* \"#utility.yul\":25387:25454   */\n      tag_167\n      jump\t// in\n    tag_423:\n        /* \"#utility.yul\":25380:25454   */\n      swap2\n      pop\n        /* \"#utility.yul\":25463:25556   */\n      tag_424\n        /* \"#utility.yul\":25552:25555   */\n      dup3\n        /* \"#utility.yul\":25463:25556   */\n      tag_203\n      jump\t// in\n    tag_424:\n        /* \"#utility.yul\":25581:25583   */\n      0x20\n        /* \"#utility.yul\":25576:25579   */\n      dup3\n        /* \"#utility.yul\":25572:25584   */\n      add\n        /* \"#utility.yul\":25565:25584   */\n      swap1\n      pop\n        /* \"#utility.yul\":25224:25590   */\n      swap2\n      swap1\n      pop\n      jump\t// out\n        /* \"#utility.yul\":25596:26015   */\n    tag_136:\n        /* \"#utility.yul\":25762:25766   */\n      0x00\n        /* \"#utility.yul\":25800:25802   */\n      0x20\n        /* \"#utility.yul\":25789:25798   */\n      dup3\n        /* \"#utility.yul\":25785:25803   */\n      add\n        /* \"#utility.yul\":25777:25803   */\n      swap1\n      pop\n        /* \"#utility.yul\":25849:25858   */\n      dup2\n        /* \"#utility.yul\":25843:25847   */\n      dup2\n        /* \"#utility.yul\":25839:25859   */\n      sub\n        /* \"#utility.yul\":25835:25836   */\n      0x00\n        /* \"#utility.yul\":25824:25833   */\n      dup4\n        /* \"#utility.yul\":25820:25837   */\n      add\n        /* \"#utility.yul\":25813:25860   */\n      mstore\n        /* \"#utility.yul\":25877:26008   */\n      tag_426\n        /* \"#utility.yul\":26003:26007   */\n      dup2\n        /* \"#utility.yul\":25877:26008   */\n      tag_204\n      jump\t// in\n    tag_426:\n        /* \"#utility.yul\":25869:26008   */\n      swap1\n      pop\n        /* \"#utility.yul\":25596:26015   */\n      swap2\n      swap1\n      pop\n      jump\t// out\n\n    auxdata: 0xa26469706673582212208e2c9bba1c2473ea6bb8fc3c4a7f9d1a4db14808347434a5f23424a72ae595fd64736f6c63430008140033\n}\n",
				"bytecode": {
					"linkReferences": {},
					"object": "608060405234801561000f575f80fd5b50335f806101000a81548173ffffffffffffffffffffffffffffffffffffffff021916908373ffffffffffffffffffffffffffffffffffffffff16021790555061182e8061005c5f395ff3fe608060405234801561000f575f80fd5b5060043610610055575f3560e01c806388458872146100595780638da5cb5b14610077578063acb1725514610095578063bf95c8b9146100c5578063ebf80513146100e1575b5f80fd5b610061610111565b60405161006e9190610d21565b60405180910390f35b61007f61024b565b60405161008c9190610d80565b60405180910390f35b6100af60048036038101906100aa9190610dcb565b61026e565b6040516100bc9190610d21565b60405180910390f35b6100df60048036038101906100da9190610e94565b610596565b005b6100fb60048036038101906100f69190610f18565b610972565b6040516101089190610f90565b60405180910390f35b606060015f3373ffffffffffffffffffffffffffffffffffffffff1673ffffffffffffffffffffffffffffffffffffffff1681526020019081526020015f20805480602002602001604051908101604052809291908181526020015f905b82821015610242578382905f5260205f2090600302016040518060600160405290815f8201805461019f90610fdd565b80601f01602080910402602001604051908101604052809291908181526020018280546101cb90610fdd565b80156102165780601f106101ed57610100808354040283529160200191610216565b820191905f5260205f20905b8154815290600101906020018083116101f957829003601f168201915b50505050508152602001600182015481526020016002820154815250508152602001906001019061016f565b50505050905090565b5f8054906101000a900473ffffffffffffffffffffffffffffffffffffffff1681565b60605f60015f3373ffffffffffffffffffffffffffffffffffffffff1673ffffffffffffffffffffffffffffffffffffffff1681526020019081526020015f20805480602002602001604051908101604052809291908181526020015f905b828210156103a0578382905f5260205f2090600302016040518060600160405290815f820180546102fd90610fdd565b80601f016020809104026020016040519081016040528092919081815260200182805461032990610fdd565b80156103745780601f1061034b57610100808354040283529160200191610374565b820191905f5260205f20905b81548152906001019060200180831161035757829003601f168201915b5050505050815260200160018201548152602001600282015481525050815260200190600101906102cd565b5050505090505f805b60015f3373ffffffffffffffffffffffffffffffffffffffff1673ffffffffffffffffffffffffffffffffffffffff1681526020019081526020015f20805490508110156104a4578460015f3373ffffffffffffffffffffffffffffffffffffffff1673ffffffffffffffffffffffffffffffffffffffff1681526020019081526020015f2082815481106104415761044061100d565b5b905f5260205f2090600302016001015403610491576040517f08c379a000000000000000000000000000000000000000000000000000000000815260040161048890611094565b60405180910390fd5b808061049c906110df565b9150506103a9565b505f8167ffffffffffffffff8111156104c0576104bf611126565b5b6040519080825280602002602001820160405280156104f957816020015b6104e6610b58565b8152602001906001900390816104de5790505b5090505f805b8451811015610588578785828151811061051c5761051b61100d565b5b60200260200101516040015103610575578481815181106105405761053f61100d565b5b602002602001015183838151811061055b5761055a61100d565b5b60200260200101819052508180610571906110df565b9250505b8080610580906110df565b9150506104ff565b508194505050505092915050565b5f8054906101000a900473ffffffffffffffffffffffffffffffffffffffff1673ffffffffffffffffffffffffffffffffffffffff163373ffffffffffffffffffffffffffffffffffffffff1614610623576040517f08c379a000000000000000000000000000000000000000000000000000000000815260040161061a906111c3565b60405180910390fd5b5f73ffffffffffffffffffffffffffffffffffffffff168573ffffffffffffffffffffffffffffffffffffffff1603610691576040517f08c379a00000000000000000000000000000000000000000000000000000000081526004016106889061122b565b60405180910390fd5b5f84849050116106d6576040517f08c379a00000000000000000000000000000000000000000000000000000000081526004016106cd90611293565b60405180910390fd5b5f8211610718576040517f08c379a000000000000000000000000000000000000000000000000000000000815260040161070f906112fb565b60405180910390fd5b5f811161075a576040517f08c379a000000000000000000000000000000000000000000000000000000000815260040161075190611363565b60405180910390fd5b5f60015f8773ffffffffffffffffffffffffffffffffffffffff1673ffffffffffffffffffffffffffffffffffffffff1681526020019081526020015f2090508183036107dc576040517f08c379a00000000000000000000000000000000000000000000000000000000081526004016107d3906113f1565b60405180910390fd5b5f5b818054905081101561086157838282815481106107fe576107fd61100d565b5b905f5260205f209060030201600101540361084e576040517f08c379a00000000000000000000000000000000000000000000000000000000081526004016108459061147f565b60405180910390fd5b8080610859906110df565b9150506107de565b505f604051806060016040528087878080601f0160208091040260200160405190810160405280939291908181526020018383808284375f81840152601f19601f8201169050808301925050505050505081526020018581526020018481525090508181908060018154018082558091505060019003905f5260205f2090600302015f909190919091505f820151815f0190816108fe919061163a565b50602082015181600101556040820151816002015550508673ffffffffffffffffffffffffffffffffffffffff167f9e3803b806eecbb36801bc43baf9ae4ed379a05cec5345dece692d6dcb297cfd878787876040516109619493929190611752565b60405180910390a250505050505050565b61097a610b58565b5f60015f3373ffffffffffffffffffffffffffffffffffffffff1673ffffffffffffffffffffffffffffffffffffffff1681526020019081526020015f20805480602002602001604051908101604052809291908181526020015f905b82821015610aaa578382905f5260205f2090600302016040518060600160405290815f82018054610a0790610fdd565b80601f0160208091040260200160405190810160405280929190818152602001828054610a3390610fdd565b8015610a7e5780601f10610a5557610100808354040283529160200191610a7e565b820191905f5260205f20905b815481529060010190602001808311610a6157829003601f168201915b5050505050815260200160018201548152602001600282015481525050815260200190600101906109d7565b5050505090505f5b8151811015610b175783828281518110610acf57610ace61100d565b5b60200260200101516020015103610b0457818181518110610af357610af261100d565b5b602002602001015192505050610b53565b8080610b0f906110df565b915050610ab2565b506040517f08c379a0000000000000000000000000000000000000000000000000000000008152600401610b4a906117da565b60405180910390fd5b919050565b6040518060600160405280606081526020015f81526020015f81525090565b5f81519050919050565b5f82825260208201905092915050565b5f819050602082019050919050565b5f81519050919050565b5f82825260208201905092915050565b5f5b83811015610bd7578082015181840152602081019050610bbc565b5f8484015250505050565b5f601f19601f8301169050919050565b5f610bfc82610ba0565b610c068185610baa565b9350610c16818560208601610bba565b610c1f81610be2565b840191505092915050565b5f819050919050565b610c3c81610c2a565b82525050565b5f606083015f8301518482035f860152610c5c8282610bf2565b9150506020830151610c716020860182610c33565b506040830151610c846040860182610c33565b508091505092915050565b5f610c9a8383610c42565b905092915050565b5f602082019050919050565b5f610cb882610b77565b610cc28185610b81565b935083602082028501610cd485610b91565b805f5b85811015610d0f5784840389528151610cf08582610c8f565b9450610cfb83610ca2565b925060208a01995050600181019050610cd7565b50829750879550505050505092915050565b5f6020820190508181035f830152610d398184610cae565b905092915050565b5f73ffffffffffffffffffffffffffffffffffffffff82169050919050565b5f610d6a82610d41565b9050919050565b610d7a81610d60565b82525050565b5f602082019050610d935f830184610d71565b92915050565b5f80fd5b5f80fd5b610daa81610c2a565b8114610db4575f80fd5b50565b5f81359050610dc581610da1565b92915050565b5f8060408385031215610de157610de0610d99565b5b5f610dee85828601610db7565b9250506020610dff85828601610db7565b9150509250929050565b610e1281610d60565b8114610e1c575f80fd5b50565b5f81359050610e2d81610e09565b92915050565b5f80fd5b5f80fd5b5f80fd5b5f8083601f840112610e5457610e53610e33565b5b8235905067ffffffffffffffff811115610e7157610e70610e37565b5b602083019150836001820283011115610e8d57610e8c610e3b565b5b9250929050565b5f805f805f60808688031215610ead57610eac610d99565b5b5f610eba88828901610e1f565b955050602086013567ffffffffffffffff811115610edb57610eda610d9d565b5b610ee788828901610e3f565b94509450506040610efa88828901610db7565b9250506060610f0b88828901610db7565b9150509295509295909350565b5f60208284031215610f2d57610f2c610d99565b5b5f610f3a84828501610db7565b91505092915050565b5f606083015f8301518482035f860152610f5d8282610bf2565b9150506020830151610f726020860182610c33565b506040830151610f856040860182610c33565b508091505092915050565b5f6020820190508181035f830152610fa88184610f43565b905092915050565b7f4e487b71000000000000000000000000000000000000000000000000000000005f52602260045260245ffd5b5f6002820490506001821680610ff457607f821691505b60208210810361100757611006610fb0565b5b50919050565b7f4e487b71000000000000000000000000000000000000000000000000000000005f52603260045260245ffd5b5f82825260208201905092915050565b7f53747564656e7420494420616c726561647920657869737473000000000000005f82015250565b5f61107e60198361103a565b91506110898261104a565b602082019050919050565b5f6020820190508181035f8301526110ab81611072565b9050919050565b7f4e487b71000000000000000000000000000000000000000000000000000000005f52601160045260245ffd5b5f6110e982610c2a565b91507fffffffffffffffffffffffffffffffffffffffffffffffffffffffffffffffff820361111b5761111a6110b2565b5b600182019050919050565b7f4e487b71000000000000000000000000000000000000000000000000000000005f52604160045260245ffd5b7f556e617574686f72697a65643a204f6e6c7920746865207363686f6f6c2063615f8201527f6e20706572666f726d207468697320616374696f6e0000000000000000000000602082015250565b5f6111ad60358361103a565b91506111b882611153565b604082019050919050565b5f6020820190508181035f8301526111da816111a1565b9050919050565b7f496e76616c6964207363686f6f6c2061646472657373000000000000000000005f82015250565b5f61121560168361103a565b9150611220826111e1565b602082019050919050565b5f6020820190508181035f83015261124281611209565b9050919050565b7f53747564656e74206e616d6520697320726571756972656400000000000000005f82015250565b5f61127d60188361103a565b915061128882611249565b602082019050919050565b5f6020820190508181035f8301526112aa81611271565b9050919050565b7f496e76616c69642073747564656e7420494400000000000000000000000000005f82015250565b5f6112e560128361103a565b91506112f0826112b1565b602082019050919050565b5f6020820190508181035f830152611312816112d9565b9050919050565b7f496e76616c696420636c617373206e756d6265720000000000000000000000005f82015250565b5f61134d60148361103a565b915061135882611319565b602082019050919050565b5f6020820190508181035f83015261137a81611341565b9050919050565b7f46726175642064657465637465643a204944206d757374206e6f74206d6174635f8201527f6820636c617373206e756d626572000000000000000000000000000000000000602082015250565b5f6113db602e8361103a565b91506113e682611381565b604082019050919050565b5f6020820190508181035f830152611408816113cf565b9050919050565b7f53747564656e7420494420616c72656164792065786973747320666f722074685f8201527f6973207363686f6f6c2067657420746865206675636b20796f75207363616d00602082015250565b5f611469603f8361103a565b91506114748261140f565b604082019050919050565b5f6020820190508181035f8301526114968161145d565b9050919050565b5f819050815f5260205f209050919050565b5f6020601f8301049050919050565b5f82821b905092915050565b5f600883026114f97fffffffffffffffffffffffffffffffffffffffffffffffffffffffffffffffff826114be565b61150386836114be565b95508019841693508086168417925050509392505050565b5f819050919050565b5f61153e61153961153484610c2a565b61151b565b610c2a565b9050919050565b5f819050919050565b61155783611524565b61156b61156382611545565b8484546114ca565b825550505050565b5f90565b61157f611573565b61158a81848461154e565b505050565b5b818110156115ad576115a25f82611577565b600181019050611590565b5050565b601f8211156115f2576115c38161149d565b6115cc846114af565b810160208510156115db578190505b6115ef6115e7856114af565b83018261158f565b50505b505050565b5f82821c905092915050565b5f6116125f19846008026115f7565b1980831691505092915050565b5f61162a8383611603565b9150826002028217905092915050565b61164382610ba0565b67ffffffffffffffff81111561165c5761165b611126565b5b6116668254610fdd565b6116718282856115b1565b5f60209050601f8311600181146116a2575f8415611690578287015190505b61169a858261161f565b865550611701565b601f1984166116b08661149d565b5f5b828110156116d7578489015182556001820191506020850194506020810190506116b2565b868310156116f457848901516116f0601f891682611603565b8355505b6001600288020188555050505b505050505050565b828183375f83830152505050565b5f611722838561103a565b935061172f838584611709565b61173883610be2565b840190509392505050565b61174c81610c2a565b82525050565b5f6060820190508181035f83015261176b818688611717565b905061177a6020830185611743565b6117876040830184611743565b95945050505050565b7f53747564656e74207769746820676976656e204944206e6f7420666f756e64005f82015250565b5f6117c4601f8361103a565b91506117cf82611790565b602082019050919050565b5f6020820190508181035f8301526117f1816117b8565b905091905056fea26469706673582212208e2c9bba1c2473ea6bb8fc3c4a7f9d1a4db14808347434a5f23424a72ae595fd64736f6c63430008140033",
					"opcodes": "PUSH1 0x80 PUSH1 0x40 MSTORE CALLVALUE DUP1 ISZERO PUSH2 0xF JUMPI PUSH0 DUP1 REVERT JUMPDEST POP CALLER PUSH0 DUP1 PUSH2 0x100 EXP DUP2 SLOAD DUP2 PUSH20 0xFFFFFFFFFFFFFFFFFFFFFFFFFFFFFFFFFFFFFFFF MUL NOT AND SWAP1 DUP4 PUSH20 0xFFFFFFFFFFFFFFFFFFFFFFFFFFFFFFFFFFFFFFFF AND MUL OR SWAP1 SSTORE POP PUSH2 0x182E DUP1 PUSH2 0x5C PUSH0 CODECOPY PUSH0 RETURN INVALID PUSH1 0x80 PUSH1 0x40 MSTORE CALLVALUE DUP1 ISZERO PUSH2 0xF JUMPI PUSH0 DUP1 REVERT JUMPDEST POP PUSH1 0x4 CALLDATASIZE LT PUSH2 0x55 JUMPI PUSH0 CALLDATALOAD PUSH1 0xE0 SHR DUP1 PUSH4 0x88458872 EQ PUSH2 0x59 JUMPI DUP1 PUSH4 0x8DA5CB5B EQ PUSH2 0x77 JUMPI DUP1 PUSH4 0xACB17255 EQ PUSH2 0x95 JUMPI DUP1 PUSH4 0xBF95C8B9 EQ PUSH2 0xC5 JUMPI DUP1 PUSH4 0xEBF80513 EQ PUSH2 0xE1 JUMPI JUMPDEST PUSH0 DUP1 REVERT JUMPDEST PUSH2 0x61 PUSH2 0x111 JUMP JUMPDEST PUSH1 0x40 MLOAD PUSH2 0x6E SWAP2 SWAP1 PUSH2 0xD21 JUMP JUMPDEST PUSH1 0x40 MLOAD DUP1 SWAP2 SUB SWAP1 RETURN JUMPDEST PUSH2 0x7F PUSH2 0x24B JUMP JUMPDEST PUSH1 0x40 MLOAD PUSH2 0x8C SWAP2 SWAP1 PUSH2 0xD80 JUMP JUMPDEST PUSH1 0x40 MLOAD DUP1 SWAP2 SUB SWAP1 RETURN JUMPDEST PUSH2 0xAF PUSH1 0x4 DUP1 CALLDATASIZE SUB DUP2 ADD SWAP1 PUSH2 0xAA SWAP2 SWAP1 PUSH2 0xDCB JUMP JUMPDEST PUSH2 0x26E JUMP JUMPDEST PUSH1 0x40 MLOAD PUSH2 0xBC SWAP2 SWAP1 PUSH2 0xD21 JUMP JUMPDEST PUSH1 0x40 MLOAD DUP1 SWAP2 SUB SWAP1 RETURN JUMPDEST PUSH2 0xDF PUSH1 0x4 DUP1 CALLDATASIZE SUB DUP2 ADD SWAP1 PUSH2 0xDA SWAP2 SWAP1 PUSH2 0xE94 JUMP JUMPDEST PUSH2 0x596 JUMP JUMPDEST STOP JUMPDEST PUSH2 0xFB PUSH1 0x4 DUP1 CALLDATASIZE SUB DUP2 ADD SWAP1 PUSH2 0xF6 SWAP2 SWAP1 PUSH2 0xF18 JUMP JUMPDEST PUSH2 0x972 JUMP JUMPDEST PUSH1 0x40 MLOAD PUSH2 0x108 SWAP2 SWAP1 PUSH2 0xF90 JUMP JUMPDEST PUSH1 0x40 MLOAD DUP1 SWAP2 SUB SWAP1 RETURN JUMPDEST PUSH1 0x60 PUSH1 0x1 PUSH0 CALLER PUSH20 0xFFFFFFFFFFFFFFFFFFFFFFFFFFFFFFFFFFFFFFFF AND PUSH20 0xFFFFFFFFFFFFFFFFFFFFFFFFFFFFFFFFFFFFFFFF AND DUP2 MSTORE PUSH1 0x20 ADD SWAP1 DUP2 MSTORE PUSH1 0x20 ADD PUSH0 KECCAK256 DUP1 SLOAD DUP1 PUSH1 0x20 MUL PUSH1 0x20 ADD PUSH1 0x40 MLOAD SWAP1 DUP2 ADD PUSH1 0x40 MSTORE DUP1 SWAP3 SWAP2 SWAP1 DUP2 DUP2 MSTORE PUSH1 0x20 ADD PUSH0 SWAP1 JUMPDEST DUP3 DUP3 LT ISZERO PUSH2 0x242 JUMPI DUP4 DUP3 SWAP1 PUSH0 MSTORE PUSH1 0x20 PUSH0 KECCAK256 SWAP1 PUSH1 0x3 MUL ADD PUSH1 0x40 MLOAD DUP1 PUSH1 0x60 ADD PUSH1 0x40 MSTORE SWAP1 DUP2 PUSH0 DUP3 ADD DUP1 SLOAD PUSH2 0x19F SWAP1 PUSH2 0xFDD JUMP JUMPDEST DUP1 PUSH1 0x1F ADD PUSH1 0x20 DUP1 SWAP2 DIV MUL PUSH1 0x20 ADD PUSH1 0x40 MLOAD SWAP1 DUP2 ADD PUSH1 0x40 MSTORE DUP1 SWAP3 SWAP2 SWAP1 DUP2 DUP2 MSTORE PUSH1 0x20 ADD DUP3 DUP1 SLOAD PUSH2 0x1CB SWAP1 PUSH2 0xFDD JUMP JUMPDEST DUP1 ISZERO PUSH2 0x216 JUMPI DUP1 PUSH1 0x1F LT PUSH2 0x1ED JUMPI PUSH2 0x100 DUP1 DUP4 SLOAD DIV MUL DUP4 MSTORE SWAP2 PUSH1 0x20 ADD SWAP2 PUSH2 0x216 JUMP JUMPDEST DUP3 ADD SWAP2 SWAP1 PUSH0 MSTORE PUSH1 0x20 PUSH0 KECCAK256 SWAP1 JUMPDEST DUP2 SLOAD DUP2 MSTORE SWAP1 PUSH1 0x1 ADD SWAP1 PUSH1 0x20 ADD DUP1 DUP4 GT PUSH2 0x1F9 JUMPI DUP3 SWAP1 SUB PUSH1 0x1F AND DUP3 ADD SWAP2 JUMPDEST POP POP POP POP POP DUP2 MSTORE PUSH1 0x20 ADD PUSH1 0x1 DUP3 ADD SLOAD DUP2 MSTORE PUSH1 0x20 ADD PUSH1 0x2 DUP3 ADD SLOAD DUP2 MSTORE POP POP DUP2 MSTORE PUSH1 0x20 ADD SWAP1 PUSH1 0x1 ADD SWAP1 PUSH2 0x16F JUMP JUMPDEST POP POP POP POP SWAP1 POP SWAP1 JUMP JUMPDEST PUSH0 DUP1 SLOAD SWAP1 PUSH2 0x100 EXP SWAP1 DIV PUSH20 0xFFFFFFFFFFFFFFFFFFFFFFFFFFFFFFFFFFFFFFFF AND DUP2 JUMP JUMPDEST PUSH1 0x60 PUSH0 PUSH1 0x1 PUSH0 CALLER PUSH20 0xFFFFFFFFFFFFFFFFFFFFFFFFFFFFFFFFFFFFFFFF AND PUSH20 0xFFFFFFFFFFFFFFFFFFFFFFFFFFFFFFFFFFFFFFFF AND DUP2 MSTORE PUSH1 0x20 ADD SWAP1 DUP2 MSTORE PUSH1 0x20 ADD PUSH0 KECCAK256 DUP1 SLOAD DUP1 PUSH1 0x20 MUL PUSH1 0x20 ADD PUSH1 0x40 MLOAD SWAP1 DUP2 ADD PUSH1 0x40 MSTORE DUP1 SWAP3 SWAP2 SWAP1 DUP2 DUP2 MSTORE PUSH1 0x20 ADD PUSH0 SWAP1 JUMPDEST DUP3 DUP3 LT ISZERO PUSH2 0x3A0 JUMPI DUP4 DUP3 SWAP1 PUSH0 MSTORE PUSH1 0x20 PUSH0 KECCAK256 SWAP1 PUSH1 0x3 MUL ADD PUSH1 0x40 MLOAD DUP1 PUSH1 0x60 ADD PUSH1 0x40 MSTORE SWAP1 DUP2 PUSH0 DUP3 ADD DUP1 SLOAD PUSH2 0x2FD SWAP1 PUSH2 0xFDD JUMP JUMPDEST DUP1 PUSH1 0x1F ADD PUSH1 0x20 DUP1 SWAP2 DIV MUL PUSH1 0x20 ADD PUSH1 0x40 MLOAD SWAP1 DUP2 ADD PUSH1 0x40 MSTORE DUP1 SWAP3 SWAP2 SWAP1 DUP2 DUP2 MSTORE PUSH1 0x20 ADD DUP3 DUP1 SLOAD PUSH2 0x329 SWAP1 PUSH2 0xFDD JUMP JUMPDEST DUP1 ISZERO PUSH2 0x374 JUMPI DUP1 PUSH1 0x1F LT PUSH2 0x34B JUMPI PUSH2 0x100 DUP1 DUP4 SLOAD DIV MUL DUP4 MSTORE SWAP2 PUSH1 0x20 ADD SWAP2 PUSH2 0x374 JUMP JUMPDEST DUP3 ADD SWAP2 SWAP1 PUSH0 MSTORE PUSH1 0x20 PUSH0 KECCAK256 SWAP1 JUMPDEST DUP2 SLOAD DUP2 MSTORE SWAP1 PUSH1 0x1 ADD SWAP1 PUSH1 0x20 ADD DUP1 DUP4 GT PUSH2 0x357 JUMPI DUP3 SWAP1 SUB PUSH1 0x1F AND DUP3 ADD SWAP2 JUMPDEST POP POP POP POP POP DUP2 MSTORE PUSH1 0x20 ADD PUSH1 0x1 DUP3 ADD SLOAD DUP2 MSTORE PUSH1 0x20 ADD PUSH1 0x2 DUP3 ADD SLOAD DUP2 MSTORE POP POP DUP2 MSTORE PUSH1 0x20 ADD SWAP1 PUSH1 0x1 ADD SWAP1 PUSH2 0x2CD JUMP JUMPDEST POP POP POP POP SWAP1 POP PUSH0 DUP1 JUMPDEST PUSH1 0x1 PUSH0 CALLER PUSH20 0xFFFFFFFFFFFFFFFFFFFFFFFFFFFFFFFFFFFFFFFF AND PUSH20 0xFFFFFFFFFFFFFFFFFFFFFFFFFFFFFFFFFFFFFFFF AND DUP2 MSTORE PUSH1 0x20 ADD SWAP1 DUP2 MSTORE PUSH1 0x20 ADD PUSH0 KECCAK256 DUP1 SLOAD SWAP1 POP DUP2 LT ISZERO PUSH2 0x4A4 JUMPI DUP5 PUSH1 0x1 PUSH0 CALLER PUSH20 0xFFFFFFFFFFFFFFFFFFFFFFFFFFFFFFFFFFFFFFFF AND PUSH20 0xFFFFFFFFFFFFFFFFFFFFFFFFFFFFFFFFFFFFFFFF AND DUP2 MSTORE PUSH1 0x20 ADD SWAP1 DUP2 MSTORE PUSH1 0x20 ADD PUSH0 KECCAK256 DUP3 DUP2 SLOAD DUP2 LT PUSH2 0x441 JUMPI PUSH2 0x440 PUSH2 0x100D JUMP JUMPDEST JUMPDEST SWAP1 PUSH0 MSTORE PUSH1 0x20 PUSH0 KECCAK256 SWAP1 PUSH1 0x3 MUL ADD PUSH1 0x1 ADD SLOAD SUB PUSH2 0x491 JUMPI PUSH1 0x40 MLOAD PUSH32 0x8C379A000000000000000000000000000000000000000000000000000000000 DUP2 MSTORE PUSH1 0x4 ADD PUSH2 0x488 SWAP1 PUSH2 0x1094 JUMP JUMPDEST PUSH1 0x40 MLOAD DUP1 SWAP2 SUB SWAP1 REVERT JUMPDEST DUP1 DUP1 PUSH2 0x49C SWAP1 PUSH2 0x10DF JUMP JUMPDEST SWAP2 POP POP PUSH2 0x3A9 JUMP JUMPDEST POP PUSH0 DUP2 PUSH8 0xFFFFFFFFFFFFFFFF DUP2 GT ISZERO PUSH2 0x4C0 JUMPI PUSH2 0x4BF PUSH2 0x1126 JUMP JUMPDEST JUMPDEST PUSH1 0x40 MLOAD SWAP1 DUP1 DUP3 MSTORE DUP1 PUSH1 0x20 MUL PUSH1 0x20 ADD DUP3 ADD PUSH1 0x40 MSTORE DUP1 ISZERO PUSH2 0x4F9 JUMPI DUP2 PUSH1 0x20 ADD JUMPDEST PUSH2 0x4E6 PUSH2 0xB58 JUMP JUMPDEST DUP2 MSTORE PUSH1 0x20 ADD SWAP1 PUSH1 0x1 SWAP1 SUB SWAP1 DUP2 PUSH2 0x4DE JUMPI SWAP1 POP JUMPDEST POP SWAP1 POP PUSH0 DUP1 JUMPDEST DUP5 MLOAD DUP2 LT ISZERO PUSH2 0x588 JUMPI DUP8 DUP6 DUP3 DUP2 MLOAD DUP2 LT PUSH2 0x51C JUMPI PUSH2 0x51B PUSH2 0x100D JUMP JUMPDEST JUMPDEST PUSH1 0x20 MUL PUSH1 0x20 ADD ADD MLOAD PUSH1 0x40 ADD MLOAD SUB PUSH2 0x575 JUMPI DUP5 DUP2 DUP2 MLOAD DUP2 LT PUSH2 0x540 JUMPI PUSH2 0x53F PUSH2 0x100D JUMP JUMPDEST JUMPDEST PUSH1 0x20 MUL PUSH1 0x20 ADD ADD MLOAD DUP4 DUP4 DUP2 MLOAD DUP2 LT PUSH2 0x55B JUMPI PUSH2 0x55A PUSH2 0x100D JUMP JUMPDEST JUMPDEST PUSH1 0x20 MUL PUSH1 0x20 ADD ADD DUP2 SWAP1 MSTORE POP DUP2 DUP1 PUSH2 0x571 SWAP1 PUSH2 0x10DF JUMP JUMPDEST SWAP3 POP POP JUMPDEST DUP1 DUP1 PUSH2 0x580 SWAP1 PUSH2 0x10DF JUMP JUMPDEST SWAP2 POP POP PUSH2 0x4FF JUMP JUMPDEST POP DUP2 SWAP5 POP POP POP POP POP SWAP3 SWAP2 POP POP JUMP JUMPDEST PUSH0 DUP1 SLOAD SWAP1 PUSH2 0x100 EXP SWAP1 DIV PUSH20 0xFFFFFFFFFFFFFFFFFFFFFFFFFFFFFFFFFFFFFFFF AND PUSH20 0xFFFFFFFFFFFFFFFFFFFFFFFFFFFFFFFFFFFFFFFF AND CALLER PUSH20 0xFFFFFFFFFFFFFFFFFFFFFFFFFFFFFFFFFFFFFFFF AND EQ PUSH2 0x623 JUMPI PUSH1 0x40 MLOAD PUSH32 0x8C379A000000000000000000000000000000000000000000000000000000000 DUP2 MSTORE PUSH1 0x4 ADD PUSH2 0x61A SWAP1 PUSH2 0x11C3 JUMP JUMPDEST PUSH1 0x40 MLOAD DUP1 SWAP2 SUB SWAP1 REVERT JUMPDEST PUSH0 PUSH20 0xFFFFFFFFFFFFFFFFFFFFFFFFFFFFFFFFFFFFFFFF AND DUP6 PUSH20 0xFFFFFFFFFFFFFFFFFFFFFFFFFFFFFFFFFFFFFFFF AND SUB PUSH2 0x691 JUMPI PUSH1 0x40 MLOAD PUSH32 0x8C379A000000000000000000000000000000000000000000000000000000000 DUP2 MSTORE PUSH1 0x4 ADD PUSH2 0x688 SWAP1 PUSH2 0x122B JUMP JUMPDEST PUSH1 0x40 MLOAD DUP1 SWAP2 SUB SWAP1 REVERT JUMPDEST PUSH0 DUP5 DUP5 SWAP1 POP GT PUSH2 0x6D6 JUMPI PUSH1 0x40 MLOAD PUSH32 0x8C379A000000000000000000000000000000000000000000000000000000000 DUP2 MSTORE PUSH1 0x4 ADD PUSH2 0x6CD SWAP1 PUSH2 0x1293 JUMP JUMPDEST PUSH1 0x40 MLOAD DUP1 SWAP2 SUB SWAP1 REVERT JUMPDEST PUSH0 DUP3 GT PUSH2 0x718 JUMPI PUSH1 0x40 MLOAD PUSH32 0x8C379A000000000000000000000000000000000000000000000000000000000 DUP2 MSTORE PUSH1 0x4 ADD PUSH2 0x70F SWAP1 PUSH2 0x12FB JUMP JUMPDEST PUSH1 0x40 MLOAD DUP1 SWAP2 SUB SWAP1 REVERT JUMPDEST PUSH0 DUP2 GT PUSH2 0x75A JUMPI PUSH1 0x40 MLOAD PUSH32 0x8C379A000000000000000000000000000000000000000000000000000000000 DUP2 MSTORE PUSH1 0x4 ADD PUSH2 0x751 SWAP1 PUSH2 0x1363 JUMP JUMPDEST PUSH1 0x40 MLOAD DUP1 SWAP2 SUB SWAP1 REVERT JUMPDEST PUSH0 PUSH1 0x1 PUSH0 DUP8 PUSH20 0xFFFFFFFFFFFFFFFFFFFFFFFFFFFFFFFFFFFFFFFF AND PUSH20 0xFFFFFFFFFFFFFFFFFFFFFFFFFFFFFFFFFFFFFFFF AND DUP2 MSTORE PUSH1 0x20 ADD SWAP1 DUP2 MSTORE PUSH1 0x20 ADD PUSH0 KECCAK256 SWAP1 POP DUP2 DUP4 SUB PUSH2 0x7DC JUMPI PUSH1 0x40 MLOAD PUSH32 0x8C379A000000000000000000000000000000000000000000000000000000000 DUP2 MSTORE PUSH1 0x4 ADD PUSH2 0x7D3 SWAP1 PUSH2 0x13F1 JUMP JUMPDEST PUSH1 0x40 MLOAD DUP1 SWAP2 SUB SWAP1 REVERT JUMPDEST PUSH0 JUMPDEST DUP2 DUP1 SLOAD SWAP1 POP DUP2 LT ISZERO PUSH2 0x861 JUMPI DUP4 DUP3 DUP3 DUP2 SLOAD DUP2 LT PUSH2 0x7FE JUMPI PUSH2 0x7FD PUSH2 0x100D JUMP JUMPDEST JUMPDEST SWAP1 PUSH0 MSTORE PUSH1 0x20 PUSH0 KECCAK256 SWAP1 PUSH1 0x3 MUL ADD PUSH1 0x1 ADD SLOAD SUB PUSH2 0x84E JUMPI PUSH1 0x40 MLOAD PUSH32 0x8C379A000000000000000000000000000000000000000000000000000000000 DUP2 MSTORE PUSH1 0x4 ADD PUSH2 0x845 SWAP1 PUSH2 0x147F JUMP JUMPDEST PUSH1 0x40 MLOAD DUP1 SWAP2 SUB SWAP1 REVERT JUMPDEST DUP1 DUP1 PUSH2 0x859 SWAP1 PUSH2 0x10DF JUMP JUMPDEST SWAP2 POP POP PUSH2 0x7DE JUMP JUMPDEST POP PUSH0 PUSH1 0x40 MLOAD DUP1 PUSH1 0x60 ADD PUSH1 0x40 MSTORE DUP1 DUP8 DUP8 DUP1 DUP1 PUSH1 0x1F ADD PUSH1 0x20 DUP1 SWAP2 DIV MUL PUSH1 0x20 ADD PUSH1 0x40 MLOAD SWAP1 DUP2 ADD PUSH1 0x40 MSTORE DUP1 SWAP4 SWAP3 SWAP2 SWAP1 DUP2 DUP2 MSTORE PUSH1 0x20 ADD DUP4 DUP4 DUP1 DUP3 DUP5 CALLDATACOPY PUSH0 DUP2 DUP5 ADD MSTORE PUSH1 0x1F NOT PUSH1 0x1F DUP3 ADD AND SWAP1 POP DUP1 DUP4 ADD SWAP3 POP POP POP POP POP POP POP DUP2 MSTORE PUSH1 0x20 ADD DUP6 DUP2 MSTORE PUSH1 0x20 ADD DUP5 DUP2 MSTORE POP SWAP1 POP DUP2 DUP2 SWAP1 DUP1 PUSH1 0x1 DUP2 SLOAD ADD DUP1 DUP3 SSTORE DUP1 SWAP2 POP POP PUSH1 0x1 SWAP1 SUB SWAP1 PUSH0 MSTORE PUSH1 0x20 PUSH0 KECCAK256 SWAP1 PUSH1 0x3 MUL ADD PUSH0 SWAP1 SWAP2 SWAP1 SWAP2 SWAP1 SWAP2 POP PUSH0 DUP3 ADD MLOAD DUP2 PUSH0 ADD SWAP1 DUP2 PUSH2 0x8FE SWAP2 SWAP1 PUSH2 0x163A JUMP JUMPDEST POP PUSH1 0x20 DUP3 ADD MLOAD DUP2 PUSH1 0x1 ADD SSTORE PUSH1 0x40 DUP3 ADD MLOAD DUP2 PUSH1 0x2 ADD SSTORE POP POP DUP7 PUSH20 0xFFFFFFFFFFFFFFFFFFFFFFFFFFFFFFFFFFFFFFFF AND PUSH32 0x9E3803B806EECBB36801BC43BAF9AE4ED379A05CEC5345DECE692D6DCB297CFD DUP8 DUP8 DUP8 DUP8 PUSH1 0x40 MLOAD PUSH2 0x961 SWAP5 SWAP4 SWAP3 SWAP2 SWAP1 PUSH2 0x1752 JUMP JUMPDEST PUSH1 0x40 MLOAD DUP1 SWAP2 SUB SWAP1 LOG2 POP POP POP POP POP POP POP JUMP JUMPDEST PUSH2 0x97A PUSH2 0xB58 JUMP JUMPDEST PUSH0 PUSH1 0x1 PUSH0 CALLER PUSH20 0xFFFFFFFFFFFFFFFFFFFFFFFFFFFFFFFFFFFFFFFF AND PUSH20 0xFFFFFFFFFFFFFFFFFFFFFFFFFFFFFFFFFFFFFFFF AND DUP2 MSTORE PUSH1 0x20 ADD SWAP1 DUP2 MSTORE PUSH1 0x20 ADD PUSH0 KECCAK256 DUP1 SLOAD DUP1 PUSH1 0x20 MUL PUSH1 0x20 ADD PUSH1 0x40 MLOAD SWAP1 DUP2 ADD PUSH1 0x40 MSTORE DUP1 SWAP3 SWAP2 SWAP1 DUP2 DUP2 MSTORE PUSH1 0x20 ADD PUSH0 SWAP1 JUMPDEST DUP3 DUP3 LT ISZERO PUSH2 0xAAA JUMPI DUP4 DUP3 SWAP1 PUSH0 MSTORE PUSH1 0x20 PUSH0 KECCAK256 SWAP1 PUSH1 0x3 MUL ADD PUSH1 0x40 MLOAD DUP1 PUSH1 0x60 ADD PUSH1 0x40 MSTORE SWAP1 DUP2 PUSH0 DUP3 ADD DUP1 SLOAD PUSH2 0xA07 SWAP1 PUSH2 0xFDD JUMP JUMPDEST DUP1 PUSH1 0x1F ADD PUSH1 0x20 DUP1 SWAP2 DIV MUL PUSH1 0x20 ADD PUSH1 0x40 MLOAD SWAP1 DUP2 ADD PUSH1 0x40 MSTORE DUP1 SWAP3 SWAP2 SWAP1 DUP2 DUP2 MSTORE PUSH1 0x20 ADD DUP3 DUP1 SLOAD PUSH2 0xA33 SWAP1 PUSH2 0xFDD JUMP JUMPDEST DUP1 ISZERO PUSH2 0xA7E JUMPI DUP1 PUSH1 0x1F LT PUSH2 0xA55 JUMPI PUSH2 0x100 DUP1 DUP4 SLOAD DIV MUL DUP4 MSTORE SWAP2 PUSH1 0x20 ADD SWAP2 PUSH2 0xA7E JUMP JUMPDEST DUP3 ADD SWAP2 SWAP1 PUSH0 MSTORE PUSH1 0x20 PUSH0 KECCAK256 SWAP1 JUMPDEST DUP2 SLOAD DUP2 MSTORE SWAP1 PUSH1 0x1 ADD SWAP1 PUSH1 0x20 ADD DUP1 DUP4 GT PUSH2 0xA61 JUMPI DUP3 SWAP1 SUB PUSH1 0x1F AND DUP3 ADD SWAP2 JUMPDEST POP POP POP POP POP DUP2 MSTORE PUSH1 0x20 ADD PUSH1 0x1 DUP3 ADD SLOAD DUP2 MSTORE PUSH1 0x20 ADD PUSH1 0x2 DUP3 ADD SLOAD DUP2 MSTORE POP POP DUP2 MSTORE PUSH1 0x20 ADD SWAP1 PUSH1 0x1 ADD SWAP1 PUSH2 0x9D7 JUMP JUMPDEST POP POP POP POP SWAP1 POP PUSH0 JUMPDEST DUP2 MLOAD DUP2 LT ISZERO PUSH2 0xB17 JUMPI DUP4 DUP3 DUP3 DUP2 MLOAD DUP2 LT PUSH2 0xACF JUMPI PUSH2 0xACE PUSH2 0x100D JUMP JUMPDEST JUMPDEST PUSH1 0x20 MUL PUSH1 0x20 ADD ADD MLOAD PUSH1 0x20 ADD MLOAD SUB PUSH2 0xB04 JUMPI DUP2 DUP2 DUP2 MLOAD DUP2 LT PUSH2 0xAF3 JUMPI PUSH2 0xAF2 PUSH2 0x100D JUMP JUMPDEST JUMPDEST PUSH1 0x20 MUL PUSH1 0x20 ADD ADD MLOAD SWAP3 POP POP POP PUSH2 0xB53 JUMP JUMPDEST DUP1 DUP1 PUSH2 0xB0F SWAP1 PUSH2 0x10DF JUMP JUMPDEST SWAP2 POP POP PUSH2 0xAB2 JUMP JUMPDEST POP PUSH1 0x40 MLOAD PUSH32 0x8C379A000000000000000000000000000000000000000000000000000000000 DUP2 MSTORE PUSH1 0x4 ADD PUSH2 0xB4A SWAP1 PUSH2 0x17DA JUMP JUMPDEST PUSH1 0x40 MLOAD DUP1 SWAP2 SUB SWAP1 REVERT JUMPDEST SWAP2 SWAP1 POP JUMP JUMPDEST PUSH1 0x40 MLOAD DUP1 PUSH1 0x60 ADD PUSH1 0x40 MSTORE DUP1 PUSH1 0x60 DUP2 MSTORE PUSH1 0x20 ADD PUSH0 DUP2 MSTORE PUSH1 0x20 ADD PUSH0 DUP2 MSTORE POP SWAP1 JUMP JUMPDEST PUSH0 DUP2 MLOAD SWAP1 POP SWAP2 SWAP1 POP JUMP JUMPDEST PUSH0 DUP3 DUP3 MSTORE PUSH1 0x20 DUP3 ADD SWAP1 POP SWAP3 SWAP2 POP POP JUMP JUMPDEST PUSH0 DUP2 SWAP1 POP PUSH1 0x20 DUP3 ADD SWAP1 POP SWAP2 SWAP1 POP JUMP JUMPDEST PUSH0 DUP2 MLOAD SWAP1 POP SWAP2 SWAP1 POP JUMP JUMPDEST PUSH0 DUP3 DUP3 MSTORE PUSH1 0x20 DUP3 ADD SWAP1 POP SWAP3 SWAP2 POP POP JUMP JUMPDEST PUSH0 JUMPDEST DUP4 DUP2 LT ISZERO PUSH2 0xBD7 JUMPI DUP1 DUP3 ADD MLOAD DUP2 DUP5 ADD MSTORE PUSH1 0x20 DUP2 ADD SWAP1 POP PUSH2 0xBBC JUMP JUMPDEST PUSH0 DUP5 DUP5 ADD MSTORE POP POP POP POP JUMP JUMPDEST PUSH0 PUSH1 0x1F NOT PUSH1 0x1F DUP4 ADD AND SWAP1 POP SWAP2 SWAP1 POP JUMP JUMPDEST PUSH0 PUSH2 0xBFC DUP3 PUSH2 0xBA0 JUMP JUMPDEST PUSH2 0xC06 DUP2 DUP6 PUSH2 0xBAA JUMP JUMPDEST SWAP4 POP PUSH2 0xC16 DUP2 DUP6 PUSH1 0x20 DUP7 ADD PUSH2 0xBBA JUMP JUMPDEST PUSH2 0xC1F DUP2 PUSH2 0xBE2 JUMP JUMPDEST DUP5 ADD SWAP2 POP POP SWAP3 SWAP2 POP POP JUMP JUMPDEST PUSH0 DUP2 SWAP1 POP SWAP2 SWAP1 POP JUMP JUMPDEST PUSH2 0xC3C DUP2 PUSH2 0xC2A JUMP JUMPDEST DUP3 MSTORE POP POP JUMP JUMPDEST PUSH0 PUSH1 0x60 DUP4 ADD PUSH0 DUP4 ADD MLOAD DUP5 DUP3 SUB PUSH0 DUP7 ADD MSTORE PUSH2 0xC5C DUP3 DUP3 PUSH2 0xBF2 JUMP JUMPDEST SWAP2 POP POP PUSH1 0x20 DUP4 ADD MLOAD PUSH2 0xC71 PUSH1 0x20 DUP7 ADD DUP3 PUSH2 0xC33 JUMP JUMPDEST POP PUSH1 0x40 DUP4 ADD MLOAD PUSH2 0xC84 PUSH1 0x40 DUP7 ADD DUP3 PUSH2 0xC33 JUMP JUMPDEST POP DUP1 SWAP2 POP POP SWAP3 SWAP2 POP POP JUMP JUMPDEST PUSH0 PUSH2 0xC9A DUP4 DUP4 PUSH2 0xC42 JUMP JUMPDEST SWAP1 POP SWAP3 SWAP2 POP POP JUMP JUMPDEST PUSH0 PUSH1 0x20 DUP3 ADD SWAP1 POP SWAP2 SWAP1 POP JUMP JUMPDEST PUSH0 PUSH2 0xCB8 DUP3 PUSH2 0xB77 JUMP JUMPDEST PUSH2 0xCC2 DUP2 DUP6 PUSH2 0xB81 JUMP JUMPDEST SWAP4 POP DUP4 PUSH1 0x20 DUP3 MUL DUP6 ADD PUSH2 0xCD4 DUP6 PUSH2 0xB91 JUMP JUMPDEST DUP1 PUSH0 JUMPDEST DUP6 DUP2 LT ISZERO PUSH2 0xD0F JUMPI DUP5 DUP5 SUB DUP10 MSTORE DUP2 MLOAD PUSH2 0xCF0 DUP6 DUP3 PUSH2 0xC8F JUMP JUMPDEST SWAP5 POP PUSH2 0xCFB DUP4 PUSH2 0xCA2 JUMP JUMPDEST SWAP3 POP PUSH1 0x20 DUP11 ADD SWAP10 POP POP PUSH1 0x1 DUP2 ADD SWAP1 POP PUSH2 0xCD7 JUMP JUMPDEST POP DUP3 SWAP8 POP DUP8 SWAP6 POP POP POP POP POP POP SWAP3 SWAP2 POP POP JUMP JUMPDEST PUSH0 PUSH1 0x20 DUP3 ADD SWAP1 POP DUP2 DUP2 SUB PUSH0 DUP4 ADD MSTORE PUSH2 0xD39 DUP2 DUP5 PUSH2 0xCAE JUMP JUMPDEST SWAP1 POP SWAP3 SWAP2 POP POP JUMP JUMPDEST PUSH0 PUSH20 0xFFFFFFFFFFFFFFFFFFFFFFFFFFFFFFFFFFFFFFFF DUP3 AND SWAP1 POP SWAP2 SWAP1 POP JUMP JUMPDEST PUSH0 PUSH2 0xD6A DUP3 PUSH2 0xD41 JUMP JUMPDEST SWAP1 POP SWAP2 SWAP1 POP JUMP JUMPDEST PUSH2 0xD7A DUP2 PUSH2 0xD60 JUMP JUMPDEST DUP3 MSTORE POP POP JUMP JUMPDEST PUSH0 PUSH1 0x20 DUP3 ADD SWAP1 POP PUSH2 0xD93 PUSH0 DUP4 ADD DUP5 PUSH2 0xD71 JUMP JUMPDEST SWAP3 SWAP2 POP POP JUMP JUMPDEST PUSH0 DUP1 REVERT JUMPDEST PUSH0 DUP1 REVERT JUMPDEST PUSH2 0xDAA DUP2 PUSH2 0xC2A JUMP JUMPDEST DUP2 EQ PUSH2 0xDB4 JUMPI PUSH0 DUP1 REVERT JUMPDEST POP JUMP JUMPDEST PUSH0 DUP2 CALLDATALOAD SWAP1 POP PUSH2 0xDC5 DUP2 PUSH2 0xDA1 JUMP JUMPDEST SWAP3 SWAP2 POP POP JUMP JUMPDEST PUSH0 DUP1 PUSH1 0x40 DUP4 DUP6 SUB SLT ISZERO PUSH2 0xDE1 JUMPI PUSH2 0xDE0 PUSH2 0xD99 JUMP JUMPDEST JUMPDEST PUSH0 PUSH2 0xDEE DUP6 DUP3 DUP7 ADD PUSH2 0xDB7 JUMP JUMPDEST SWAP3 POP POP PUSH1 0x20 PUSH2 0xDFF DUP6 DUP3 DUP7 ADD PUSH2 0xDB7 JUMP JUMPDEST SWAP2 POP POP SWAP3 POP SWAP3 SWAP1 POP JUMP JUMPDEST PUSH2 0xE12 DUP2 PUSH2 0xD60 JUMP JUMPDEST DUP2 EQ PUSH2 0xE1C JUMPI PUSH0 DUP1 REVERT JUMPDEST POP JUMP JUMPDEST PUSH0 DUP2 CALLDATALOAD SWAP1 POP PUSH2 0xE2D DUP2 PUSH2 0xE09 JUMP JUMPDEST SWAP3 SWAP2 POP POP JUMP JUMPDEST PUSH0 DUP1 REVERT JUMPDEST PUSH0 DUP1 REVERT JUMPDEST PUSH0 DUP1 REVERT JUMPDEST PUSH0 DUP1 DUP4 PUSH1 0x1F DUP5 ADD SLT PUSH2 0xE54 JUMPI PUSH2 0xE53 PUSH2 0xE33 JUMP JUMPDEST JUMPDEST DUP3 CALLDATALOAD SWAP1 POP PUSH8 0xFFFFFFFFFFFFFFFF DUP2 GT ISZERO PUSH2 0xE71 JUMPI PUSH2 0xE70 PUSH2 0xE37 JUMP JUMPDEST JUMPDEST PUSH1 0x20 DUP4 ADD SWAP2 POP DUP4 PUSH1 0x1 DUP3 MUL DUP4 ADD GT ISZERO PUSH2 0xE8D JUMPI PUSH2 0xE8C PUSH2 0xE3B JUMP JUMPDEST JUMPDEST SWAP3 POP SWAP3 SWAP1 POP JUMP JUMPDEST PUSH0 DUP1 PUSH0 DUP1 PUSH0 PUSH1 0x80 DUP7 DUP9 SUB SLT ISZERO PUSH2 0xEAD JUMPI PUSH2 0xEAC PUSH2 0xD99 JUMP JUMPDEST JUMPDEST PUSH0 PUSH2 0xEBA DUP9 DUP3 DUP10 ADD PUSH2 0xE1F JUMP JUMPDEST SWAP6 POP POP PUSH1 0x20 DUP7 ADD CALLDATALOAD PUSH8 0xFFFFFFFFFFFFFFFF DUP2 GT ISZERO PUSH2 0xEDB JUMPI PUSH2 0xEDA PUSH2 0xD9D JUMP JUMPDEST JUMPDEST PUSH2 0xEE7 DUP9 DUP3 DUP10 ADD PUSH2 0xE3F JUMP JUMPDEST SWAP5 POP SWAP5 POP POP PUSH1 0x40 PUSH2 0xEFA DUP9 DUP3 DUP10 ADD PUSH2 0xDB7 JUMP JUMPDEST SWAP3 POP POP PUSH1 0x60 PUSH2 0xF0B DUP9 DUP3 DUP10 ADD PUSH2 0xDB7 JUMP JUMPDEST SWAP2 POP POP SWAP3 SWAP6 POP SWAP3 SWAP6 SWAP1 SWAP4 POP JUMP JUMPDEST PUSH0 PUSH1 0x20 DUP3 DUP5 SUB SLT ISZERO PUSH2 0xF2D JUMPI PUSH2 0xF2C PUSH2 0xD99 JUMP JUMPDEST JUMPDEST PUSH0 PUSH2 0xF3A DUP5 DUP3 DUP6 ADD PUSH2 0xDB7 JUMP JUMPDEST SWAP2 POP POP SWAP3 SWAP2 POP POP JUMP JUMPDEST PUSH0 PUSH1 0x60 DUP4 ADD PUSH0 DUP4 ADD MLOAD DUP5 DUP3 SUB PUSH0 DUP7 ADD MSTORE PUSH2 0xF5D DUP3 DUP3 PUSH2 0xBF2 JUMP JUMPDEST SWAP2 POP POP PUSH1 0x20 DUP4 ADD MLOAD PUSH2 0xF72 PUSH1 0x20 DUP7 ADD DUP3 PUSH2 0xC33 JUMP JUMPDEST POP PUSH1 0x40 DUP4 ADD MLOAD PUSH2 0xF85 PUSH1 0x40 DUP7 ADD DUP3 PUSH2 0xC33 JUMP JUMPDEST POP DUP1 SWAP2 POP POP SWAP3 SWAP2 POP POP JUMP JUMPDEST PUSH0 PUSH1 0x20 DUP3 ADD SWAP1 POP DUP2 DUP2 SUB PUSH0 DUP4 ADD MSTORE PUSH2 0xFA8 DUP2 DUP5 PUSH2 0xF43 JUMP JUMPDEST SWAP1 POP SWAP3 SWAP2 POP POP JUMP JUMPDEST PUSH32 0x4E487B7100000000000000000000000000000000000000000000000000000000 PUSH0 MSTORE PUSH1 0x22 PUSH1 0x4 MSTORE PUSH1 0x24 PUSH0 REVERT JUMPDEST PUSH0 PUSH1 0x2 DUP3 DIV SWAP1 POP PUSH1 0x1 DUP3 AND DUP1 PUSH2 0xFF4 JUMPI PUSH1 0x7F DUP3 AND SWAP2 POP JUMPDEST PUSH1 0x20 DUP3 LT DUP2 SUB PUSH2 0x1007 JUMPI PUSH2 0x1006 PUSH2 0xFB0 JUMP JUMPDEST JUMPDEST POP SWAP2 SWAP1 POP JUMP JUMPDEST PUSH32 0x4E487B7100000000000000000000000000000000000000000000000000000000 PUSH0 MSTORE PUSH1 0x32 PUSH1 0x4 MSTORE PUSH1 0x24 PUSH0 REVERT JUMPDEST PUSH0 DUP3 DUP3 MSTORE PUSH1 0x20 DUP3 ADD SWAP1 POP SWAP3 SWAP2 POP POP JUMP JUMPDEST PUSH32 0x53747564656E7420494420616C72656164792065786973747300000000000000 PUSH0 DUP3 ADD MSTORE POP JUMP JUMPDEST PUSH0 PUSH2 0x107E PUSH1 0x19 DUP4 PUSH2 0x103A JUMP JUMPDEST SWAP2 POP PUSH2 0x1089 DUP3 PUSH2 0x104A JUMP JUMPDEST PUSH1 0x20 DUP3 ADD SWAP1 POP SWAP2 SWAP1 POP JUMP JUMPDEST PUSH0 PUSH1 0x20 DUP3 ADD SWAP1 POP DUP2 DUP2 SUB PUSH0 DUP4 ADD MSTORE PUSH2 0x10AB DUP2 PUSH2 0x1072 JUMP JUMPDEST SWAP1 POP SWAP2 SWAP1 POP JUMP JUMPDEST PUSH32 0x4E487B7100000000000000000000000000000000000000000000000000000000 PUSH0 MSTORE PUSH1 0x11 PUSH1 0x4 MSTORE PUSH1 0x24 PUSH0 REVERT JUMPDEST PUSH0 PUSH2 0x10E9 DUP3 PUSH2 0xC2A JUMP JUMPDEST SWAP2 POP PUSH32 0xFFFFFFFFFFFFFFFFFFFFFFFFFFFFFFFFFFFFFFFFFFFFFFFFFFFFFFFFFFFFFFFF DUP3 SUB PUSH2 0x111B JUMPI PUSH2 0x111A PUSH2 0x10B2 JUMP JUMPDEST JUMPDEST PUSH1 0x1 DUP3 ADD SWAP1 POP SWAP2 SWAP1 POP JUMP JUMPDEST PUSH32 0x4E487B7100000000000000000000000000000000000000000000000000000000 PUSH0 MSTORE PUSH1 0x41 PUSH1 0x4 MSTORE PUSH1 0x24 PUSH0 REVERT JUMPDEST PUSH32 0x556E617574686F72697A65643A204F6E6C7920746865207363686F6F6C206361 PUSH0 DUP3 ADD MSTORE PUSH32 0x6E20706572666F726D207468697320616374696F6E0000000000000000000000 PUSH1 0x20 DUP3 ADD MSTORE POP JUMP JUMPDEST PUSH0 PUSH2 0x11AD PUSH1 0x35 DUP4 PUSH2 0x103A JUMP JUMPDEST SWAP2 POP PUSH2 0x11B8 DUP3 PUSH2 0x1153 JUMP JUMPDEST PUSH1 0x40 DUP3 ADD SWAP1 POP SWAP2 SWAP1 POP JUMP JUMPDEST PUSH0 PUSH1 0x20 DUP3 ADD SWAP1 POP DUP2 DUP2 SUB PUSH0 DUP4 ADD MSTORE PUSH2 0x11DA DUP2 PUSH2 0x11A1 JUMP JUMPDEST SWAP1 POP SWAP2 SWAP1 POP JUMP JUMPDEST PUSH32 0x496E76616C6964207363686F6F6C206164647265737300000000000000000000 PUSH0 DUP3 ADD MSTORE POP JUMP JUMPDEST PUSH0 PUSH2 0x1215 PUSH1 0x16 DUP4 PUSH2 0x103A JUMP JUMPDEST SWAP2 POP PUSH2 0x1220 DUP3 PUSH2 0x11E1 JUMP JUMPDEST PUSH1 0x20 DUP3 ADD SWAP1 POP SWAP2 SWAP1 POP JUMP JUMPDEST PUSH0 PUSH1 0x20 DUP3 ADD SWAP1 POP DUP2 DUP2 SUB PUSH0 DUP4 ADD MSTORE PUSH2 0x1242 DUP2 PUSH2 0x1209 JUMP JUMPDEST SWAP1 POP SWAP2 SWAP1 POP JUMP JUMPDEST PUSH32 0x53747564656E74206E616D652069732072657175697265640000000000000000 PUSH0 DUP3 ADD MSTORE POP JUMP JUMPDEST PUSH0 PUSH2 0x127D PUSH1 0x18 DUP4 PUSH2 0x103A JUMP JUMPDEST SWAP2 POP PUSH2 0x1288 DUP3 PUSH2 0x1249 JUMP JUMPDEST PUSH1 0x20 DUP3 ADD SWAP1 POP SWAP2 SWAP1 POP JUMP JUMPDEST PUSH0 PUSH1 0x20 DUP3 ADD SWAP1 POP DUP2 DUP2 SUB PUSH0 DUP4 ADD MSTORE PUSH2 0x12AA DUP2 PUSH2 0x1271 JUMP JUMPDEST SWAP1 POP SWAP2 SWAP1 POP JUMP JUMPDEST PUSH32 0x496E76616C69642073747564656E742049440000000000000000000000000000 PUSH0 DUP3 ADD MSTORE POP JUMP JUMPDEST PUSH0 PUSH2 0x12E5 PUSH1 0x12 DUP4 PUSH2 0x103A JUMP JUMPDEST SWAP2 POP PUSH2 0x12F0 DUP3 PUSH2 0x12B1 JUMP JUMPDEST PUSH1 0x20 DUP3 ADD SWAP1 POP SWAP2 SWAP1 POP JUMP JUMPDEST PUSH0 PUSH1 0x20 DUP3 ADD SWAP1 POP DUP2 DUP2 SUB PUSH0 DUP4 ADD MSTORE PUSH2 0x1312 DUP2 PUSH2 0x12D9 JUMP JUMPDEST SWAP1 POP SWAP2 SWAP1 POP JUMP JUMPDEST PUSH32 0x496E76616C696420636C617373206E756D626572000000000000000000000000 PUSH0 DUP3 ADD MSTORE POP JUMP JUMPDEST PUSH0 PUSH2 0x134D PUSH1 0x14 DUP4 PUSH2 0x103A JUMP JUMPDEST SWAP2 POP PUSH2 0x1358 DUP3 PUSH2 0x1319 JUMP JUMPDEST PUSH1 0x20 DUP3 ADD SWAP1 POP SWAP2 SWAP1 POP JUMP JUMPDEST PUSH0 PUSH1 0x20 DUP3 ADD SWAP1 POP DUP2 DUP2 SUB PUSH0 DUP4 ADD MSTORE PUSH2 0x137A DUP2 PUSH2 0x1341 JUMP JUMPDEST SWAP1 POP SWAP2 SWAP1 POP JUMP JUMPDEST PUSH32 0x46726175642064657465637465643A204944206D757374206E6F74206D617463 PUSH0 DUP3 ADD MSTORE PUSH32 0x6820636C617373206E756D626572000000000000000000000000000000000000 PUSH1 0x20 DUP3 ADD MSTORE POP JUMP JUMPDEST PUSH0 PUSH2 0x13DB PUSH1 0x2E DUP4 PUSH2 0x103A JUMP JUMPDEST SWAP2 POP PUSH2 0x13E6 DUP3 PUSH2 0x1381 JUMP JUMPDEST PUSH1 0x40 DUP3 ADD SWAP1 POP SWAP2 SWAP1 POP JUMP JUMPDEST PUSH0 PUSH1 0x20 DUP3 ADD SWAP1 POP DUP2 DUP2 SUB PUSH0 DUP4 ADD MSTORE PUSH2 0x1408 DUP2 PUSH2 0x13CF JUMP JUMPDEST SWAP1 POP SWAP2 SWAP1 POP JUMP JUMPDEST PUSH32 0x53747564656E7420494420616C72656164792065786973747320666F72207468 PUSH0 DUP3 ADD MSTORE PUSH32 0x6973207363686F6F6C2067657420746865206675636B20796F75207363616D00 PUSH1 0x20 DUP3 ADD MSTORE POP JUMP JUMPDEST PUSH0 PUSH2 0x1469 PUSH1 0x3F DUP4 PUSH2 0x103A JUMP JUMPDEST SWAP2 POP PUSH2 0x1474 DUP3 PUSH2 0x140F JUMP JUMPDEST PUSH1 0x40 DUP3 ADD SWAP1 POP SWAP2 SWAP1 POP JUMP JUMPDEST PUSH0 PUSH1 0x20 DUP3 ADD SWAP1 POP DUP2 DUP2 SUB PUSH0 DUP4 ADD MSTORE PUSH2 0x1496 DUP2 PUSH2 0x145D JUMP JUMPDEST SWAP1 POP SWAP2 SWAP1 POP JUMP JUMPDEST PUSH0 DUP2 SWAP1 POP DUP2 PUSH0 MSTORE PUSH1 0x20 PUSH0 KECCAK256 SWAP1 POP SWAP2 SWAP1 POP JUMP JUMPDEST PUSH0 PUSH1 0x20 PUSH1 0x1F DUP4 ADD DIV SWAP1 POP SWAP2 SWAP1 POP JUMP JUMPDEST PUSH0 DUP3 DUP3 SHL SWAP1 POP SWAP3 SWAP2 POP POP JUMP JUMPDEST PUSH0 PUSH1 0x8 DUP4 MUL PUSH2 0x14F9 PUSH32 0xFFFFFFFFFFFFFFFFFFFFFFFFFFFFFFFFFFFFFFFFFFFFFFFFFFFFFFFFFFFFFFFF DUP3 PUSH2 0x14BE JUMP JUMPDEST PUSH2 0x1503 DUP7 DUP4 PUSH2 0x14BE JUMP JUMPDEST SWAP6 POP DUP1 NOT DUP5 AND SWAP4 POP DUP1 DUP7 AND DUP5 OR SWAP3 POP POP POP SWAP4 SWAP3 POP POP POP JUMP JUMPDEST PUSH0 DUP2 SWAP1 POP SWAP2 SWAP1 POP JUMP JUMPDEST PUSH0 PUSH2 0x153E PUSH2 0x1539 PUSH2 0x1534 DUP5 PUSH2 0xC2A JUMP JUMPDEST PUSH2 0x151B JUMP JUMPDEST PUSH2 0xC2A JUMP JUMPDEST SWAP1 POP SWAP2 SWAP1 POP JUMP JUMPDEST PUSH0 DUP2 SWAP1 POP SWAP2 SWAP1 POP JUMP JUMPDEST PUSH2 0x1557 DUP4 PUSH2 0x1524 JUMP JUMPDEST PUSH2 0x156B PUSH2 0x1563 DUP3 PUSH2 0x1545 JUMP JUMPDEST DUP5 DUP5 SLOAD PUSH2 0x14CA JUMP JUMPDEST DUP3 SSTORE POP POP POP POP JUMP JUMPDEST PUSH0 SWAP1 JUMP JUMPDEST PUSH2 0x157F PUSH2 0x1573 JUMP JUMPDEST PUSH2 0x158A DUP2 DUP5 DUP5 PUSH2 0x154E JUMP JUMPDEST POP POP POP JUMP JUMPDEST JUMPDEST DUP2 DUP2 LT ISZERO PUSH2 0x15AD JUMPI PUSH2 0x15A2 PUSH0 DUP3 PUSH2 0x1577 JUMP JUMPDEST PUSH1 0x1 DUP2 ADD SWAP1 POP PUSH2 0x1590 JUMP JUMPDEST POP POP JUMP JUMPDEST PUSH1 0x1F DUP3 GT ISZERO PUSH2 0x15F2 JUMPI PUSH2 0x15C3 DUP2 PUSH2 0x149D JUMP JUMPDEST PUSH2 0x15CC DUP5 PUSH2 0x14AF JUMP JUMPDEST DUP2 ADD PUSH1 0x20 DUP6 LT ISZERO PUSH2 0x15DB JUMPI DUP2 SWAP1 POP JUMPDEST PUSH2 0x15EF PUSH2 0x15E7 DUP6 PUSH2 0x14AF JUMP JUMPDEST DUP4 ADD DUP3 PUSH2 0x158F JUMP JUMPDEST POP POP JUMPDEST POP POP POP JUMP JUMPDEST PUSH0 DUP3 DUP3 SHR SWAP1 POP SWAP3 SWAP2 POP POP JUMP JUMPDEST PUSH0 PUSH2 0x1612 PUSH0 NOT DUP5 PUSH1 0x8 MUL PUSH2 0x15F7 JUMP JUMPDEST NOT DUP1 DUP4 AND SWAP2 POP POP SWAP3 SWAP2 POP POP JUMP JUMPDEST PUSH0 PUSH2 0x162A DUP4 DUP4 PUSH2 0x1603 JUMP JUMPDEST SWAP2 POP DUP3 PUSH1 0x2 MUL DUP3 OR SWAP1 POP SWAP3 SWAP2 POP POP JUMP JUMPDEST PUSH2 0x1643 DUP3 PUSH2 0xBA0 JUMP JUMPDEST PUSH8 0xFFFFFFFFFFFFFFFF DUP2 GT ISZERO PUSH2 0x165C JUMPI PUSH2 0x165B PUSH2 0x1126 JUMP JUMPDEST JUMPDEST PUSH2 0x1666 DUP3 SLOAD PUSH2 0xFDD JUMP JUMPDEST PUSH2 0x1671 DUP3 DUP3 DUP6 PUSH2 0x15B1 JUMP JUMPDEST PUSH0 PUSH1 0x20 SWAP1 POP PUSH1 0x1F DUP4 GT PUSH1 0x1 DUP2 EQ PUSH2 0x16A2 JUMPI PUSH0 DUP5 ISZERO PUSH2 0x1690 JUMPI DUP3 DUP8 ADD MLOAD SWAP1 POP JUMPDEST PUSH2 0x169A DUP6 DUP3 PUSH2 0x161F JUMP JUMPDEST DUP7 SSTORE POP PUSH2 0x1701 JUMP JUMPDEST PUSH1 0x1F NOT DUP5 AND PUSH2 0x16B0 DUP7 PUSH2 0x149D JUMP JUMPDEST PUSH0 JUMPDEST DUP3 DUP2 LT ISZERO PUSH2 0x16D7 JUMPI DUP5 DUP10 ADD MLOAD DUP3 SSTORE PUSH1 0x1 DUP3 ADD SWAP2 POP PUSH1 0x20 DUP6 ADD SWAP5 POP PUSH1 0x20 DUP2 ADD SWAP1 POP PUSH2 0x16B2 JUMP JUMPDEST DUP7 DUP4 LT ISZERO PUSH2 0x16F4 JUMPI DUP5 DUP10 ADD MLOAD PUSH2 0x16F0 PUSH1 0x1F DUP10 AND DUP3 PUSH2 0x1603 JUMP JUMPDEST DUP4 SSTORE POP JUMPDEST PUSH1 0x1 PUSH1 0x2 DUP9 MUL ADD DUP9 SSTORE POP POP POP JUMPDEST POP POP POP POP POP POP JUMP JUMPDEST DUP3 DUP2 DUP4 CALLDATACOPY PUSH0 DUP4 DUP4 ADD MSTORE POP POP POP JUMP JUMPDEST PUSH0 PUSH2 0x1722 DUP4 DUP6 PUSH2 0x103A JUMP JUMPDEST SWAP4 POP PUSH2 0x172F DUP4 DUP6 DUP5 PUSH2 0x1709 JUMP JUMPDEST PUSH2 0x1738 DUP4 PUSH2 0xBE2 JUMP JUMPDEST DUP5 ADD SWAP1 POP SWAP4 SWAP3 POP POP POP JUMP JUMPDEST PUSH2 0x174C DUP2 PUSH2 0xC2A JUMP JUMPDEST DUP3 MSTORE POP POP JUMP JUMPDEST PUSH0 PUSH1 0x60 DUP3 ADD SWAP1 POP DUP2 DUP2 SUB PUSH0 DUP4 ADD MSTORE PUSH2 0x176B DUP2 DUP7 DUP9 PUSH2 0x1717 JUMP JUMPDEST SWAP1 POP PUSH2 0x177A PUSH1 0x20 DUP4 ADD DUP6 PUSH2 0x1743 JUMP JUMPDEST PUSH2 0x1787 PUSH1 0x40 DUP4 ADD DUP5 PUSH2 0x1743 JUMP JUMPDEST SWAP6 SWAP5 POP POP POP POP POP JUMP JUMPDEST PUSH32 0x53747564656E74207769746820676976656E204944206E6F7420666F756E6400 PUSH0 DUP3 ADD MSTORE POP JUMP JUMPDEST PUSH0 PUSH2 0x17C4 PUSH1 0x1F DUP4 PUSH2 0x103A JUMP JUMPDEST SWAP2 POP PUSH2 0x17CF DUP3 PUSH2 0x1790 JUMP JUMPDEST PUSH1 0x20 DUP3 ADD SWAP1 POP SWAP2 SWAP1 POP JUMP JUMPDEST PUSH0 PUSH1 0x20 DUP3 ADD SWAP1 POP DUP2 DUP2 SUB PUSH0 DUP4 ADD MSTORE PUSH2 0x17F1 DUP2 PUSH2 0x17B8 JUMP JUMPDEST SWAP1 POP SWAP2 SWAP1 POP JUMP INVALID LOG2 PUSH5 0x6970667358 0x22 SLT KECCAK256 DUP15 0x2C SWAP12 0xBA SHR 0x24 PUSH20 0xEA6BB8FC3C4A7F9D1A4DB14808347434A5F23424 0xA7 0x2A 0xE5 SWAP6 REVERT PUSH5 0x736F6C6343 STOP ADDMOD EQ STOP CALLER "
				},
				"gasEstimates": {
					"creation": {
						"codeDepositCost": "1238000",
						"executionCost": "25551",
						"totalCost": "1263551"
					},
					"external": {
						"getAllStudentRecords()": "infinite",
						"getStudentRecordById(uint256)": "infinite",
						"getStudentsByClass(uint256,uint256)": "infinite",
						"owner()": "2505",
						"registerStudent(address,string,uint256,uint256)": "infinite"
					}
				},
				"methodIdentifiers": {
					"getAllStudentRecords()": "88458872",
					"getStudentRecordById(uint256)": "ebf80513",
					"getStudentsByClass(uint256,uint256)": "acb17255",
					"owner()": "8da5cb5b",
					"registerStudent(address,string,uint256,uint256)": "bf95c8b9"
				}
			},
			"storageLayout": {
				"storage": [
					{
						"astId": 10,
						"contract": "contracts/schoolRegister.sol:SchoolRegister",
						"label": "owner",
						"offset": 0,
						"slot": "0",
						"type": "t_address"
					},
					{
						"astId": 16,
						"contract": "contracts/schoolRegister.sol:SchoolRegister",
						"label": "schoolRecords",
						"offset": 0,
						"slot": "1",
						"type": "t_mapping(t_address,t_array(t_struct(Register)8_storage)dyn_storage)"
					}
				],
				"types": {
					"t_address": {
						"encoding": "inplace",
						"label": "address",
						"numberOfBytes": "20"
					},
					"t_array(t_struct(Register)8_storage)dyn_storage": {
						"base": "t_struct(Register)8_storage",
						"encoding": "dynamic_array",
						"label": "struct SchoolRegister.Register[]",
						"numberOfBytes": "32"
					},
					"t_mapping(t_address,t_array(t_struct(Register)8_storage)dyn_storage)": {
						"encoding": "mapping",
						"key": "t_address",
						"label": "mapping(address => struct SchoolRegister.Register[])",
						"numberOfBytes": "32",
						"value": "t_array(t_struct(Register)8_storage)dyn_storage"
					},
					"t_string_storage": {
						"encoding": "bytes",
						"label": "string",
						"numberOfBytes": "32"
					},
					"t_struct(Register)8_storage": {
						"encoding": "inplace",
						"label": "struct SchoolRegister.Register",
						"members": [
							{
								"astId": 3,
								"contract": "contracts/schoolRegister.sol:SchoolRegister",
								"label": "name",
								"offset": 0,
								"slot": "0",
								"type": "t_string_storage"
							},
							{
								"astId": 5,
								"contract": "contracts/schoolRegister.sol:SchoolRegister",
								"label": "id",
								"offset": 0,
								"slot": "1",
								"type": "t_uint256"
							},
							{
								"astId": 7,
								"contract": "contracts/schoolRegister.sol:SchoolRegister",
								"label": "classNumber",
								"offset": 0,
								"slot": "2",
								"type": "t_uint256"
							}
						],
						"numberOfBytes": "96"
					},
					"t_uint256": {
						"encoding": "inplace",
						"label": "uint256",
						"numberOfBytes": "32"
					}
				}
			},
			"userdoc": {
				"kind": "user",
				"methods": {
					"getAllStudentRecords()": {
						"notice": "Retrieve all students registered by the caller => school return Array of student records"
					},
					"getStudentRecordById(uint256)": {
						"notice": "Retrieve a specific student by ID param _id The student's ID return The student record if found"
					},
					"registerStudent(address,string,uint256,uint256)": {
						"notice": "Register a new student under a school param school The school's wallet address param _name Student's name param _id Unique student ID param _classNumber The class number the student belongs to"
					}
				},
				"version": 1
			}
		}
	}
}