{
	"contracts/tokenMarketPlace.sol": {
		"TokenMarketPlacen": {
			"abi": [
				{
					"inputs": [
						{
							"internalType": "uint256",
							"name": "_feePercent",
							"type": "uint256"
						},
						{
							"internalType": "address",
							"name": "_feeCollector",
							"type": "address"
						},
						{
							"internalType": "address",
							"name": "_initialOwner",
							"type": "address"
						}
					],
					"stateMutability": "nonpayable",
					"type": "constructor"
				},
				{
					"inputs": [
						{
							"internalType": "address",
							"name": "owner",
							"type": "address"
						}
					],
					"name": "OwnableInvalidOwner",
					"type": "error"
				},
				{
					"inputs": [
						{
							"internalType": "address",
							"name": "account",
							"type": "address"
						}
					],
					"name": "OwnableUnauthorizedAccount",
					"type": "error"
				},
				{
					"anonymous": false,
					"inputs": [
						{
							"indexed": true,
							"internalType": "address",
							"name": "previousOwner",
							"type": "address"
						},
						{
							"indexed": true,
							"internalType": "address",
							"name": "newOwner",
							"type": "address"
						}
					],
					"name": "OwnershipTransferred",
					"type": "event"
				},
				{
					"anonymous": false,
					"inputs": [
						{
							"indexed": true,
							"internalType": "address",
							"name": "seller",
							"type": "address"
						},
						{
							"indexed": true,
							"internalType": "address",
							"name": "tokenAddress",
							"type": "address"
						},
						{
							"indexed": true,
							"internalType": "uint256",
							"name": "listingId",
							"type": "uint256"
						},
						{
							"indexed": false,
							"internalType": "uint256",
							"name": "amount",
							"type": "uint256"
						},
						{
							"indexed": false,
							"internalType": "uint256",
							"name": "pricePerToken",
							"type": "uint256"
						}
					],
					"name": "TokenListed",
					"type": "event"
				},
				{
					"inputs": [
						{
							"internalType": "address",
							"name": "_tokenAddress",
							"type": "address"
						},
						{
							"internalType": "uint256",
							"name": "_amount",
							"type": "uint256"
						},
						{
							"internalType": "uint256",
							"name": "_pricePerToken",
							"type": "uint256"
						}
					],
					"name": "ListToken",
					"outputs": [],
					"stateMutability": "nonpayable",
					"type": "function"
				},
				{
					"inputs": [],
					"name": "feeCollector",
					"outputs": [
						{
							"internalType": "address",
							"name": "",
							"type": "address"
						}
					],
					"stateMutability": "view",
					"type": "function"
				},
				{
					"inputs": [],
					"name": "feePercent",
					"outputs": [
						{
							"internalType": "uint256",
							"name": "",
							"type": "uint256"
						}
					],
					"stateMutability": "view",
					"type": "function"
				},
				{
					"inputs": [
						{
							"internalType": "uint256",
							"name": "",
							"type": "uint256"
						}
					],
					"name": "listings",
					"outputs": [
						{
							"internalType": "address",
							"name": "seller",
							"type": "address"
						},
						{
							"internalType": "uint256",
							"name": "pricePerToken",
							"type": "uint256"
						},
						{
							"internalType": "uint256",
							"name": "amount",
							"type": "uint256"
						},
						{
							"internalType": "address",
							"name": "tokenAddress",
							"type": "address"
						},
						{
							"internalType": "bool",
							"name": "active",
							"type": "bool"
						}
					],
					"stateMutability": "view",
					"type": "function"
				},
				{
					"inputs": [],
					"name": "nextListingsId",
					"outputs": [
						{
							"internalType": "uint256",
							"name": "",
							"type": "uint256"
						}
					],
					"stateMutability": "view",
					"type": "function"
				},
				{
					"inputs": [],
					"name": "owner",
					"outputs": [
						{
							"internalType": "address",
							"name": "",
							"type": "address"
						}
					],
					"stateMutability": "view",
					"type": "function"
				},
				{
					"inputs": [],
					"name": "renounceOwnership",
					"outputs": [],
					"stateMutability": "nonpayable",
					"type": "function"
				},
				{
					"inputs": [
						{
							"internalType": "address",
							"name": "newOwner",
							"type": "address"
						}
					],
					"name": "transferOwnership",
					"outputs": [],
					"stateMutability": "nonpayable",
					"type": "function"
				}
			],
			"devdoc": {
				"errors": {
					"OwnableInvalidOwner(address)": [
						{
							"details": "The owner is not a valid owner account. (eg. `address(0)`)"
						}
					],
					"OwnableUnauthorizedAccount(address)": [
						{
							"details": "The caller account is not authorized to perform an operation."
						}
					]
				},
				"kind": "dev",
				"methods": {
					"owner()": {
						"details": "Returns the address of the current owner."
					},
					"renounceOwnership()": {
						"details": "Leaves the contract without owner. It will not be possible to call `onlyOwner` functions. Can only be called by the current owner. NOTE: Renouncing ownership will leave the contract without an owner, thereby disabling any functionality that is only available to the owner."
					},
					"transferOwnership(address)": {
						"details": "Transfers ownership of the contract to a new account (`newOwner`). Can only be called by the current owner."
					}
				},
				"version": 1
			},
			"evm": {
				"assembly": "    /* \"contracts/tokenMarketPlace.sol\":239:1834  contract TokenMarketPlacen is Ownable, ReentrancyGuard {... */\n  mstore(0x40, 0x80)\n    /* \"contracts/tokenMarketPlace.sol\":617:618  1 */\n  0x01\n    /* \"contracts/tokenMarketPlace.sol\":585:618  uint256 public nextListingsId = 1 */\n  0x05\n  sstore\n    /* \"contracts/tokenMarketPlace.sol\":773:1101  constructor(uint256 _feePercent, address _feeCollector, address _initialOwner) Ownable(_initialOwner) {... */\n  callvalue\n  dup1\n  iszero\n  tag_1\n  jumpi\n  0x00\n  dup1\n  revert\ntag_1:\n  pop\n  mload(0x40)\n  sub(codesize, bytecodeSize)\n  dup1\n  bytecodeSize\n  dup4\n  codecopy\n  dup2\n  dup2\n  add\n  0x40\n  mstore\n  dup2\n  add\n  swap1\n  tag_2\n  swap2\n  swap1\n  tag_3\n  jump\t// in\ntag_2:\n    /* \"contracts/tokenMarketPlace.sol\":860:873  _initialOwner */\n  dup1\n    /* \"@openzeppelin/contracts/access/Ownable.sol\":1297:1298  0 */\n  0x00\n    /* \"@openzeppelin/contracts/access/Ownable.sol\":1273:1299  initialOwner == address(0) */\n  0xffffffffffffffffffffffffffffffffffffffff\n  and\n    /* \"@openzeppelin/contracts/access/Ownable.sol\":1273:1285  initialOwner */\n  dup2\n    /* \"@openzeppelin/contracts/access/Ownable.sol\":1273:1299  initialOwner == address(0) */\n  0xffffffffffffffffffffffffffffffffffffffff\n  and\n  sub\n    /* \"@openzeppelin/contracts/access/Ownable.sol\":1269:1364  if (initialOwner == address(0)) {... */\n  tag_8\n  jumpi\n    /* \"@openzeppelin/contracts/access/Ownable.sol\":1350:1351  0 */\n  0x00\n    /* \"@openzeppelin/contracts/access/Ownable.sol\":1322:1353  OwnableInvalidOwner(address(0)) */\n  mload(0x40)\n  0x1e4fbdf700000000000000000000000000000000000000000000000000000000\n  dup2\n  mstore\n  0x04\n  add\n  tag_9\n  swap2\n  swap1\n  tag_10\n  jump\t// in\ntag_9:\n  mload(0x40)\n  dup1\n  swap2\n  sub\n  swap1\n  revert\n    /* \"@openzeppelin/contracts/access/Ownable.sol\":1269:1364  if (initialOwner == address(0)) {... */\ntag_8:\n    /* \"@openzeppelin/contracts/access/Ownable.sol\":1373:1405  _transferOwnership(initialOwner) */\n  tag_11\n    /* \"@openzeppelin/contracts/access/Ownable.sol\":1392:1404  initialOwner */\n  dup2\n    /* \"@openzeppelin/contracts/access/Ownable.sol\":1373:1391  _transferOwnership */\n  shl(0x20, tag_12)\n    /* \"@openzeppelin/contracts/access/Ownable.sol\":1373:1405  _transferOwnership(initialOwner) */\n  0x20\n  shr\n  jump\t// in\ntag_11:\n    /* \"@openzeppelin/contracts/access/Ownable.sol\":1225:1412  constructor(address initialOwner) {... */\n  pop\n    /* \"@openzeppelin/contracts/security/ReentrancyGuard.sol\":1716:1717  1 */\n  0x01\n    /* \"@openzeppelin/contracts/security/ReentrancyGuard.sol\":1821:1828  _status */\n  dup1\n    /* \"@openzeppelin/contracts/security/ReentrancyGuard.sol\":1821:1843  _status = _NOT_ENTERED */\n  dup2\n  swap1\n  sstore\n  pop\n    /* \"contracts/tokenMarketPlace.sol\":909:913  1000 */\n  0x03e8\n    /* \"contracts/tokenMarketPlace.sol\":894:905  _feePercent */\n  dup4\n    /* \"contracts/tokenMarketPlace.sol\":894:913  _feePercent <= 1000 */\n  gt\n  iszero\n    /* \"contracts/tokenMarketPlace.sol\":886:939  require(_feePercent <= 1000, \"Fee cannot exceed 10%\") */\n  tag_15\n  jumpi\n  mload(0x40)\n  0x08c379a000000000000000000000000000000000000000000000000000000000\n  dup2\n  mstore\n  0x04\n  add\n  tag_16\n  swap1\n  tag_17\n  jump\t// in\ntag_16:\n  mload(0x40)\n  dup1\n  swap2\n  sub\n  swap1\n  revert\ntag_15:\n    /* \"contracts/tokenMarketPlace.sol\":983:984  0 */\n  0x00\n    /* \"contracts/tokenMarketPlace.sol\":958:985  _feeCollector != address(0) */\n  0xffffffffffffffffffffffffffffffffffffffff\n  and\n    /* \"contracts/tokenMarketPlace.sol\":958:971  _feeCollector */\n  dup3\n    /* \"contracts/tokenMarketPlace.sol\":958:985  _feeCollector != address(0) */\n  0xffffffffffffffffffffffffffffffffffffffff\n  and\n  sub\n    /* \"contracts/tokenMarketPlace.sol\":950:1019  require(_feeCollector != address(0), \"Invalid fee collector address\") */\n  tag_18\n  jumpi\n  mload(0x40)\n  0x08c379a000000000000000000000000000000000000000000000000000000000\n  dup2\n  mstore\n  0x04\n  add\n  tag_19\n  swap1\n  tag_20\n  jump\t// in\ntag_19:\n  mload(0x40)\n  dup1\n  swap2\n  sub\n  swap1\n  revert\ntag_18:\n    /* \"contracts/tokenMarketPlace.sol\":1043:1054  _feePercent */\n  dup3\n    /* \"contracts/tokenMarketPlace.sol\":1030:1040  feePercent */\n  0x02\n    /* \"contracts/tokenMarketPlace.sol\":1030:1054  feePercent = _feePercent */\n  dup2\n  swap1\n  sstore\n  pop\n    /* \"contracts/tokenMarketPlace.sol\":1080:1093  _feeCollector */\n  dup2\n    /* \"contracts/tokenMarketPlace.sol\":1065:1077  feeCollector */\n  0x03\n  0x00\n    /* \"contracts/tokenMarketPlace.sol\":1065:1093  feeCollector = _feeCollector */\n  0x0100\n  exp\n  dup2\n  sload\n  dup2\n  0xffffffffffffffffffffffffffffffffffffffff\n  mul\n  not\n  and\n  swap1\n  dup4\n  0xffffffffffffffffffffffffffffffffffffffff\n  and\n  mul\n  or\n  swap1\n  sstore\n  pop\n    /* \"contracts/tokenMarketPlace.sol\":773:1101  constructor(uint256 _feePercent, address _feeCollector, address _initialOwner) Ownable(_initialOwner) {... */\n  pop\n  pop\n  pop\n    /* \"contracts/tokenMarketPlace.sol\":239:1834  contract TokenMarketPlacen is Ownable, ReentrancyGuard {... */\n  jump(tag_21)\n    /* \"@openzeppelin/contracts/access/Ownable.sol\":2912:3099  function _transferOwnership(address newOwner) internal virtual {... */\ntag_12:\n    /* \"@openzeppelin/contracts/access/Ownable.sol\":2985:3001  address oldOwner */\n  0x00\n    /* \"@openzeppelin/contracts/access/Ownable.sol\":3004:3010  _owner */\n  dup1\n  0x00\n  swap1\n  sload\n  swap1\n  0x0100\n  exp\n  swap1\n  div\n  0xffffffffffffffffffffffffffffffffffffffff\n  and\n    /* \"@openzeppelin/contracts/access/Ownable.sol\":2985:3010  address oldOwner = _owner */\n  swap1\n  pop\n    /* \"@openzeppelin/contracts/access/Ownable.sol\":3029:3037  newOwner */\n  dup2\n    /* \"@openzeppelin/contracts/access/Ownable.sol\":3020:3026  _owner */\n  0x00\n  dup1\n    /* \"@openzeppelin/contracts/access/Ownable.sol\":3020:3037  _owner = newOwner */\n  0x0100\n  exp\n  dup2\n  sload\n  dup2\n  0xffffffffffffffffffffffffffffffffffffffff\n  mul\n  not\n  and\n  swap1\n  dup4\n  0xffffffffffffffffffffffffffffffffffffffff\n  and\n  mul\n  or\n  swap1\n  sstore\n  pop\n    /* \"@openzeppelin/contracts/access/Ownable.sol\":3083:3091  newOwner */\n  dup2\n    /* \"@openzeppelin/contracts/access/Ownable.sol\":3052:3092  OwnershipTransferred(oldOwner, newOwner) */\n  0xffffffffffffffffffffffffffffffffffffffff\n  and\n    /* \"@openzeppelin/contracts/access/Ownable.sol\":3073:3081  oldOwner */\n  dup2\n    /* \"@openzeppelin/contracts/access/Ownable.sol\":3052:3092  OwnershipTransferred(oldOwner, newOwner) */\n  0xffffffffffffffffffffffffffffffffffffffff\n  and\n  0x8be0079c531659141344cd1fd0a4f28419497f9722a3daafe3b4186f6b6457e0\n  mload(0x40)\n  mload(0x40)\n  dup1\n  swap2\n  sub\n  swap1\n  log3\n    /* \"@openzeppelin/contracts/access/Ownable.sol\":2975:3099  {... */\n  pop\n    /* \"@openzeppelin/contracts/access/Ownable.sol\":2912:3099  function _transferOwnership(address newOwner) internal virtual {... */\n  pop\n  jump\t// out\n    /* \"#utility.yul\":88:205   */\ntag_24:\n    /* \"#utility.yul\":197:198   */\n  0x00\n    /* \"#utility.yul\":194:195   */\n  dup1\n    /* \"#utility.yul\":187:199   */\n  revert\n    /* \"#utility.yul\":334:411   */\ntag_26:\n    /* \"#utility.yul\":371:378   */\n  0x00\n    /* \"#utility.yul\":400:405   */\n  dup2\n    /* \"#utility.yul\":389:405   */\n  swap1\n  pop\n    /* \"#utility.yul\":334:411   */\n  swap2\n  swap1\n  pop\n  jump\t// out\n    /* \"#utility.yul\":417:539   */\ntag_27:\n    /* \"#utility.yul\":490:514   */\n  tag_45\n    /* \"#utility.yul\":508:513   */\n  dup2\n    /* \"#utility.yul\":490:514   */\n  tag_26\n  jump\t// in\ntag_45:\n    /* \"#utility.yul\":483:488   */\n  dup2\n    /* \"#utility.yul\":480:515   */\n  eq\n    /* \"#utility.yul\":470:533   */\n  tag_46\n  jumpi\n    /* \"#utility.yul\":529:530   */\n  0x00\n    /* \"#utility.yul\":526:527   */\n  dup1\n    /* \"#utility.yul\":519:531   */\n  revert\n    /* \"#utility.yul\":470:533   */\ntag_46:\n    /* \"#utility.yul\":417:539   */\n  pop\n  jump\t// out\n    /* \"#utility.yul\":545:688   */\ntag_28:\n    /* \"#utility.yul\":602:607   */\n  0x00\n    /* \"#utility.yul\":633:639   */\n  dup2\n    /* \"#utility.yul\":627:640   */\n  mload\n    /* \"#utility.yul\":618:640   */\n  swap1\n  pop\n    /* \"#utility.yul\":649:682   */\n  tag_48\n    /* \"#utility.yul\":676:681   */\n  dup2\n    /* \"#utility.yul\":649:682   */\n  tag_27\n  jump\t// in\ntag_48:\n    /* \"#utility.yul\":545:688   */\n  swap3\n  swap2\n  pop\n  pop\n  jump\t// out\n    /* \"#utility.yul\":694:820   */\ntag_29:\n    /* \"#utility.yul\":731:738   */\n  0x00\n    /* \"#utility.yul\":771:813   */\n  0xffffffffffffffffffffffffffffffffffffffff\n    /* \"#utility.yul\":764:769   */\n  dup3\n    /* \"#utility.yul\":760:814   */\n  and\n    /* \"#utility.yul\":749:814   */\n  swap1\n  pop\n    /* \"#utility.yul\":694:820   */\n  swap2\n  swap1\n  pop\n  jump\t// out\n    /* \"#utility.yul\":826:922   */\ntag_30:\n    /* \"#utility.yul\":863:870   */\n  0x00\n    /* \"#utility.yul\":892:916   */\n  tag_51\n    /* \"#utility.yul\":910:915   */\n  dup3\n    /* \"#utility.yul\":892:916   */\n  tag_29\n  jump\t// in\ntag_51:\n    /* \"#utility.yul\":881:916   */\n  swap1\n  pop\n    /* \"#utility.yul\":826:922   */\n  swap2\n  swap1\n  pop\n  jump\t// out\n    /* \"#utility.yul\":928:1050   */\ntag_31:\n    /* \"#utility.yul\":1001:1025   */\n  tag_53\n    /* \"#utility.yul\":1019:1024   */\n  dup2\n    /* \"#utility.yul\":1001:1025   */\n  tag_30\n  jump\t// in\ntag_53:\n    /* \"#utility.yul\":994:999   */\n  dup2\n    /* \"#utility.yul\":991:1026   */\n  eq\n    /* \"#utility.yul\":981:1044   */\n  tag_54\n  jumpi\n    /* \"#utility.yul\":1040:1041   */\n  0x00\n    /* \"#utility.yul\":1037:1038   */\n  dup1\n    /* \"#utility.yul\":1030:1042   */\n  revert\n    /* \"#utility.yul\":981:1044   */\ntag_54:\n    /* \"#utility.yul\":928:1050   */\n  pop\n  jump\t// out\n    /* \"#utility.yul\":1056:1199   */\ntag_32:\n    /* \"#utility.yul\":1113:1118   */\n  0x00\n    /* \"#utility.yul\":1144:1150   */\n  dup2\n    /* \"#utility.yul\":1138:1151   */\n  mload\n    /* \"#utility.yul\":1129:1151   */\n  swap1\n  pop\n    /* \"#utility.yul\":1160:1193   */\n  tag_56\n    /* \"#utility.yul\":1187:1192   */\n  dup2\n    /* \"#utility.yul\":1160:1193   */\n  tag_31\n  jump\t// in\ntag_56:\n    /* \"#utility.yul\":1056:1199   */\n  swap3\n  swap2\n  pop\n  pop\n  jump\t// out\n    /* \"#utility.yul\":1205:1868   */\ntag_3:\n    /* \"#utility.yul\":1293:1299   */\n  0x00\n    /* \"#utility.yul\":1301:1307   */\n  dup1\n    /* \"#utility.yul\":1309:1315   */\n  0x00\n    /* \"#utility.yul\":1358:1360   */\n  0x60\n    /* \"#utility.yul\":1346:1355   */\n  dup5\n    /* \"#utility.yul\":1337:1344   */\n  dup7\n    /* \"#utility.yul\":1333:1356   */\n  sub\n    /* \"#utility.yul\":1329:1361   */\n  slt\n    /* \"#utility.yul\":1326:1445   */\n  iszero\n  tag_58\n  jumpi\n    /* \"#utility.yul\":1364:1443   */\n  tag_59\n  tag_24\n  jump\t// in\ntag_59:\n    /* \"#utility.yul\":1326:1445   */\ntag_58:\n    /* \"#utility.yul\":1484:1485   */\n  0x00\n    /* \"#utility.yul\":1509:1573   */\n  tag_60\n    /* \"#utility.yul\":1565:1572   */\n  dup7\n    /* \"#utility.yul\":1556:1562   */\n  dup3\n    /* \"#utility.yul\":1545:1554   */\n  dup8\n    /* \"#utility.yul\":1541:1563   */\n  add\n    /* \"#utility.yul\":1509:1573   */\n  tag_28\n  jump\t// in\ntag_60:\n    /* \"#utility.yul\":1499:1573   */\n  swap4\n  pop\n    /* \"#utility.yul\":1455:1583   */\n  pop\n    /* \"#utility.yul\":1622:1624   */\n  0x20\n    /* \"#utility.yul\":1648:1712   */\n  tag_61\n    /* \"#utility.yul\":1704:1711   */\n  dup7\n    /* \"#utility.yul\":1695:1701   */\n  dup3\n    /* \"#utility.yul\":1684:1693   */\n  dup8\n    /* \"#utility.yul\":1680:1702   */\n  add\n    /* \"#utility.yul\":1648:1712   */\n  tag_32\n  jump\t// in\ntag_61:\n    /* \"#utility.yul\":1638:1712   */\n  swap3\n  pop\n    /* \"#utility.yul\":1593:1722   */\n  pop\n    /* \"#utility.yul\":1761:1763   */\n  0x40\n    /* \"#utility.yul\":1787:1851   */\n  tag_62\n    /* \"#utility.yul\":1843:1850   */\n  dup7\n    /* \"#utility.yul\":1834:1840   */\n  dup3\n    /* \"#utility.yul\":1823:1832   */\n  dup8\n    /* \"#utility.yul\":1819:1841   */\n  add\n    /* \"#utility.yul\":1787:1851   */\n  tag_32\n  jump\t// in\ntag_62:\n    /* \"#utility.yul\":1777:1851   */\n  swap2\n  pop\n    /* \"#utility.yul\":1732:1861   */\n  pop\n    /* \"#utility.yul\":1205:1868   */\n  swap3\n  pop\n  swap3\n  pop\n  swap3\n  jump\t// out\n    /* \"#utility.yul\":1874:1992   */\ntag_33:\n    /* \"#utility.yul\":1961:1985   */\n  tag_64\n    /* \"#utility.yul\":1979:1984   */\n  dup2\n    /* \"#utility.yul\":1961:1985   */\n  tag_30\n  jump\t// in\ntag_64:\n    /* \"#utility.yul\":1956:1959   */\n  dup3\n    /* \"#utility.yul\":1949:1986   */\n  mstore\n    /* \"#utility.yul\":1874:1992   */\n  pop\n  pop\n  jump\t// out\n    /* \"#utility.yul\":1998:2220   */\ntag_10:\n    /* \"#utility.yul\":2091:2095   */\n  0x00\n    /* \"#utility.yul\":2129:2131   */\n  0x20\n    /* \"#utility.yul\":2118:2127   */\n  dup3\n    /* \"#utility.yul\":2114:2132   */\n  add\n    /* \"#utility.yul\":2106:2132   */\n  swap1\n  pop\n    /* \"#utility.yul\":2142:2213   */\n  tag_66\n    /* \"#utility.yul\":2210:2211   */\n  0x00\n    /* \"#utility.yul\":2199:2208   */\n  dup4\n    /* \"#utility.yul\":2195:2212   */\n  add\n    /* \"#utility.yul\":2186:2192   */\n  dup5\n    /* \"#utility.yul\":2142:2213   */\n  tag_33\n  jump\t// in\ntag_66:\n    /* \"#utility.yul\":1998:2220   */\n  swap3\n  swap2\n  pop\n  pop\n  jump\t// out\n    /* \"#utility.yul\":2226:2395   */\ntag_34:\n    /* \"#utility.yul\":2310:2321   */\n  0x00\n    /* \"#utility.yul\":2344:2350   */\n  dup3\n    /* \"#utility.yul\":2339:2342   */\n  dup3\n    /* \"#utility.yul\":2332:2351   */\n  mstore\n    /* \"#utility.yul\":2384:2388   */\n  0x20\n    /* \"#utility.yul\":2379:2382   */\n  dup3\n    /* \"#utility.yul\":2375:2389   */\n  add\n    /* \"#utility.yul\":2360:2389   */\n  swap1\n  pop\n    /* \"#utility.yul\":2226:2395   */\n  swap3\n  swap2\n  pop\n  pop\n  jump\t// out\n    /* \"#utility.yul\":2401:2572   */\ntag_35:\n    /* \"#utility.yul\":2541:2564   */\n  0x4665652063616e6e6f7420657863656564203130250000000000000000000000\n    /* \"#utility.yul\":2537:2538   */\n  0x00\n    /* \"#utility.yul\":2529:2535   */\n  dup3\n    /* \"#utility.yul\":2525:2539   */\n  add\n    /* \"#utility.yul\":2518:2565   */\n  mstore\n    /* \"#utility.yul\":2401:2572   */\n  pop\n  jump\t// out\n    /* \"#utility.yul\":2578:2944   */\ntag_36:\n    /* \"#utility.yul\":2720:2723   */\n  0x00\n    /* \"#utility.yul\":2741:2808   */\n  tag_70\n    /* \"#utility.yul\":2805:2807   */\n  0x15\n    /* \"#utility.yul\":2800:2803   */\n  dup4\n    /* \"#utility.yul\":2741:2808   */\n  tag_34\n  jump\t// in\ntag_70:\n    /* \"#utility.yul\":2734:2808   */\n  swap2\n  pop\n    /* \"#utility.yul\":2817:2910   */\n  tag_71\n    /* \"#utility.yul\":2906:2909   */\n  dup3\n    /* \"#utility.yul\":2817:2910   */\n  tag_35\n  jump\t// in\ntag_71:\n    /* \"#utility.yul\":2935:2937   */\n  0x20\n    /* \"#utility.yul\":2930:2933   */\n  dup3\n    /* \"#utility.yul\":2926:2938   */\n  add\n    /* \"#utility.yul\":2919:2938   */\n  swap1\n  pop\n    /* \"#utility.yul\":2578:2944   */\n  swap2\n  swap1\n  pop\n  jump\t// out\n    /* \"#utility.yul\":2950:3369   */\ntag_17:\n    /* \"#utility.yul\":3116:3120   */\n  0x00\n    /* \"#utility.yul\":3154:3156   */\n  0x20\n    /* \"#utility.yul\":3143:3152   */\n  dup3\n    /* \"#utility.yul\":3139:3157   */\n  add\n    /* \"#utility.yul\":3131:3157   */\n  swap1\n  pop\n    /* \"#utility.yul\":3203:3212   */\n  dup2\n    /* \"#utility.yul\":3197:3201   */\n  dup2\n    /* \"#utility.yul\":3193:3213   */\n  sub\n    /* \"#utility.yul\":3189:3190   */\n  0x00\n    /* \"#utility.yul\":3178:3187   */\n  dup4\n    /* \"#utility.yul\":3174:3191   */\n  add\n    /* \"#utility.yul\":3167:3214   */\n  mstore\n    /* \"#utility.yul\":3231:3362   */\n  tag_73\n    /* \"#utility.yul\":3357:3361   */\n  dup2\n    /* \"#utility.yul\":3231:3362   */\n  tag_36\n  jump\t// in\ntag_73:\n    /* \"#utility.yul\":3223:3362   */\n  swap1\n  pop\n    /* \"#utility.yul\":2950:3369   */\n  swap2\n  swap1\n  pop\n  jump\t// out\n    /* \"#utility.yul\":3375:3554   */\ntag_37:\n    /* \"#utility.yul\":3515:3546   */\n  0x496e76616c69642066656520636f6c6c6563746f722061646472657373000000\n    /* \"#utility.yul\":3511:3512   */\n  0x00\n    /* \"#utility.yul\":3503:3509   */\n  dup3\n    /* \"#utility.yul\":3499:3513   */\n  add\n    /* \"#utility.yul\":3492:3547   */\n  mstore\n    /* \"#utility.yul\":3375:3554   */\n  pop\n  jump\t// out\n    /* \"#utility.yul\":3560:3926   */\ntag_38:\n    /* \"#utility.yul\":3702:3705   */\n  0x00\n    /* \"#utility.yul\":3723:3790   */\n  tag_76\n    /* \"#utility.yul\":3787:3789   */\n  0x1d\n    /* \"#utility.yul\":3782:3785   */\n  dup4\n    /* \"#utility.yul\":3723:3790   */\n  tag_34\n  jump\t// in\ntag_76:\n    /* \"#utility.yul\":3716:3790   */\n  swap2\n  pop\n    /* \"#utility.yul\":3799:3892   */\n  tag_77\n    /* \"#utility.yul\":3888:3891   */\n  dup3\n    /* \"#utility.yul\":3799:3892   */\n  tag_37\n  jump\t// in\ntag_77:\n    /* \"#utility.yul\":3917:3919   */\n  0x20\n    /* \"#utility.yul\":3912:3915   */\n  dup3\n    /* \"#utility.yul\":3908:3920   */\n  add\n    /* \"#utility.yul\":3901:3920   */\n  swap1\n  pop\n    /* \"#utility.yul\":3560:3926   */\n  swap2\n  swap1\n  pop\n  jump\t// out\n    /* \"#utility.yul\":3932:4351   */\ntag_20:\n    /* \"#utility.yul\":4098:4102   */\n  0x00\n    /* \"#utility.yul\":4136:4138   */\n  0x20\n    /* \"#utility.yul\":4125:4134   */\n  dup3\n    /* \"#utility.yul\":4121:4139   */\n  add\n    /* \"#utility.yul\":4113:4139   */\n  swap1\n  pop\n    /* \"#utility.yul\":4185:4194   */\n  dup2\n    /* \"#utility.yul\":4179:4183   */\n  dup2\n    /* \"#utility.yul\":4175:4195   */\n  sub\n    /* \"#utility.yul\":4171:4172   */\n  0x00\n    /* \"#utility.yul\":4160:4169   */\n  dup4\n    /* \"#utility.yul\":4156:4173   */\n  add\n    /* \"#utility.yul\":4149:4196   */\n  mstore\n    /* \"#utility.yul\":4213:4344   */\n  tag_79\n    /* \"#utility.yul\":4339:4343   */\n  dup2\n    /* \"#utility.yul\":4213:4344   */\n  tag_38\n  jump\t// in\ntag_79:\n    /* \"#utility.yul\":4205:4344   */\n  swap1\n  pop\n    /* \"#utility.yul\":3932:4351   */\n  swap2\n  swap1\n  pop\n  jump\t// out\n    /* \"contracts/tokenMarketPlace.sol\":239:1834  contract TokenMarketPlacen is Ownable, ReentrancyGuard {... */\ntag_21:\n  dataSize(sub_0)\n  dup1\n  dataOffset(sub_0)\n  0x00\n  codecopy\n  0x00\n  return\nstop\n\nsub_0: assembly {\n        /* \"contracts/tokenMarketPlace.sol\":239:1834  contract TokenMarketPlacen is Ownable, ReentrancyGuard {... */\n      mstore(0x40, 0x80)\n      callvalue\n      dup1\n      iszero\n      tag_1\n      jumpi\n      0x00\n      dup1\n      revert\n    tag_1:\n      pop\n      jumpi(tag_2, lt(calldatasize, 0x04))\n      shr(0xe0, calldataload(0x00))\n      dup1\n      0x8da5cb5b\n      gt\n      tag_11\n      jumpi\n      dup1\n      0x8da5cb5b\n      eq\n      tag_7\n      jumpi\n      dup1\n      0xc415b95c\n      eq\n      tag_8\n      jumpi\n      dup1\n      0xde74e57b\n      eq\n      tag_9\n      jumpi\n      dup1\n      0xf2fde38b\n      eq\n      tag_10\n      jumpi\n      jump(tag_2)\n    tag_11:\n      dup1\n      0x1f6182c4\n      eq\n      tag_3\n      jumpi\n      dup1\n      0x69b3a705\n      eq\n      tag_4\n      jumpi\n      dup1\n      0x715018a6\n      eq\n      tag_5\n      jumpi\n      dup1\n      0x7fd6f15c\n      eq\n      tag_6\n      jumpi\n    tag_2:\n      0x00\n      dup1\n      revert\n        /* \"contracts/tokenMarketPlace.sol\":1109:1815  function ListToken(address _tokenAddress, uint256 _amount, uint256 _pricePerToken) external nonReentrant {... */\n    tag_3:\n      tag_12\n      0x04\n      dup1\n      calldatasize\n      sub\n      dup2\n      add\n      swap1\n      tag_13\n      swap2\n      swap1\n      tag_14\n      jump\t// in\n    tag_13:\n      tag_15\n      jump\t// in\n    tag_12:\n      stop\n        /* \"contracts/tokenMarketPlace.sol\":585:618  uint256 public nextListingsId = 1 */\n    tag_4:\n      tag_16\n      tag_17\n      jump\t// in\n    tag_16:\n      mload(0x40)\n      tag_18\n      swap2\n      swap1\n      tag_19\n      jump\t// in\n    tag_18:\n      mload(0x40)\n      dup1\n      swap2\n      sub\n      swap1\n      return\n        /* \"@openzeppelin/contracts/access/Ownable.sol\":2293:2394  function renounceOwnership() public virtual onlyOwner {... */\n    tag_5:\n      tag_20\n      tag_21\n      jump\t// in\n    tag_20:\n      stop\n        /* \"contracts/tokenMarketPlace.sol\":303:325  uint public feePercent */\n    tag_6:\n      tag_22\n      tag_23\n      jump\t// in\n    tag_22:\n      mload(0x40)\n      tag_24\n      swap2\n      swap1\n      tag_19\n      jump\t// in\n    tag_24:\n      mload(0x40)\n      dup1\n      swap2\n      sub\n      swap1\n      return\n        /* \"@openzeppelin/contracts/access/Ownable.sol\":1638:1723  function owner() public view virtual returns (address) {... */\n    tag_7:\n      tag_25\n      tag_26\n      jump\t// in\n    tag_25:\n      mload(0x40)\n      tag_27\n      swap2\n      swap1\n      tag_28\n      jump\t// in\n    tag_27:\n      mload(0x40)\n      dup1\n      swap2\n      sub\n      swap1\n      return\n        /* \"contracts/tokenMarketPlace.sol\":332:359  address public feeCollector */\n    tag_8:\n      tag_29\n      tag_30\n      jump\t// in\n    tag_29:\n      mload(0x40)\n      tag_31\n      swap2\n      swap1\n      tag_28\n      jump\t// in\n    tag_31:\n      mload(0x40)\n      dup1\n      swap2\n      sub\n      swap1\n      return\n        /* \"contracts/tokenMarketPlace.sol\":535:578  mapping(uint256 => Listing) public listings */\n    tag_9:\n      tag_32\n      0x04\n      dup1\n      calldatasize\n      sub\n      dup2\n      add\n      swap1\n      tag_33\n      swap2\n      swap1\n      tag_34\n      jump\t// in\n    tag_33:\n      tag_35\n      jump\t// in\n    tag_32:\n      mload(0x40)\n      tag_36\n      swap6\n      swap5\n      swap4\n      swap3\n      swap2\n      swap1\n      tag_37\n      jump\t// in\n    tag_36:\n      mload(0x40)\n      dup1\n      swap2\n      sub\n      swap1\n      return\n        /* \"@openzeppelin/contracts/access/Ownable.sol\":2543:2758  function transferOwnership(address newOwner) public virtual onlyOwner {... */\n    tag_10:\n      tag_38\n      0x04\n      dup1\n      calldatasize\n      sub\n      dup2\n      add\n      swap1\n      tag_39\n      swap2\n      swap1\n      tag_40\n      jump\t// in\n    tag_39:\n      tag_41\n      jump\t// in\n    tag_38:\n      stop\n        /* \"contracts/tokenMarketPlace.sol\":1109:1815  function ListToken(address _tokenAddress, uint256 _amount, uint256 _pricePerToken) external nonReentrant {... */\n    tag_15:\n        /* \"@openzeppelin/contracts/security/ReentrancyGuard.sol\":2261:2282  _nonReentrantBefore() */\n      tag_43\n        /* \"@openzeppelin/contracts/security/ReentrancyGuard.sol\":2261:2280  _nonReentrantBefore */\n      tag_44\n        /* \"@openzeppelin/contracts/security/ReentrancyGuard.sol\":2261:2282  _nonReentrantBefore() */\n      jump\t// in\n    tag_43:\n        /* \"contracts/tokenMarketPlace.sol\":1258:1259  0 */\n      0x00\n        /* \"contracts/tokenMarketPlace.sol\":1233:1260  _tokenAddress != address(0) */\n      0xffffffffffffffffffffffffffffffffffffffff\n      and\n        /* \"contracts/tokenMarketPlace.sol\":1233:1246  _tokenAddress */\n      dup4\n        /* \"contracts/tokenMarketPlace.sol\":1233:1260  _tokenAddress != address(0) */\n      0xffffffffffffffffffffffffffffffffffffffff\n      and\n      sub\n        /* \"contracts/tokenMarketPlace.sol\":1225:1286  require(_tokenAddress != address(0), \"Invalid token address\") */\n      tag_46\n      jumpi\n      mload(0x40)\n      0x08c379a000000000000000000000000000000000000000000000000000000000\n      dup2\n      mstore\n      0x04\n      add\n      tag_47\n      swap1\n      tag_48\n      jump\t// in\n    tag_47:\n      mload(0x40)\n      dup1\n      swap2\n      sub\n      swap1\n      revert\n    tag_46:\n        /* \"contracts/tokenMarketPlace.sol\":1315:1316  0 */\n      0x00\n        /* \"contracts/tokenMarketPlace.sol\":1305:1312  _amount */\n      dup3\n        /* \"contracts/tokenMarketPlace.sol\":1305:1316  _amount > 0 */\n      gt\n        /* \"contracts/tokenMarketPlace.sol\":1297:1350  require(_amount > 0, \"Amount must be greater than 0\") */\n      tag_49\n      jumpi\n      mload(0x40)\n      0x08c379a000000000000000000000000000000000000000000000000000000000\n      dup2\n      mstore\n      0x04\n      add\n      tag_50\n      swap1\n      tag_51\n      jump\t// in\n    tag_50:\n      mload(0x40)\n      dup1\n      swap2\n      sub\n      swap1\n      revert\n    tag_49:\n        /* \"contracts/tokenMarketPlace.sol\":1386:1387  0 */\n      0x00\n        /* \"contracts/tokenMarketPlace.sol\":1369:1383  _pricePerToken */\n      dup2\n        /* \"contracts/tokenMarketPlace.sol\":1369:1387  _pricePerToken > 0 */\n      gt\n        /* \"contracts/tokenMarketPlace.sol\":1361:1420  require(_pricePerToken > 0, \"Price must be greater than 0\") */\n      tag_52\n      jumpi\n      mload(0x40)\n      0x08c379a000000000000000000000000000000000000000000000000000000000\n      dup2\n      mstore\n      0x04\n      add\n      tag_53\n      swap1\n      tag_54\n      jump\t// in\n    tag_53:\n      mload(0x40)\n      dup1\n      swap2\n      sub\n      swap1\n      revert\n    tag_52:\n        /* \"contracts/tokenMarketPlace.sol\":1433:1445  IERC20 token */\n      0x00\n        /* \"contracts/tokenMarketPlace.sol\":1455:1468  _tokenAddress */\n      dup4\n        /* \"contracts/tokenMarketPlace.sol\":1433:1469  IERC20 token = IERC20(_tokenAddress) */\n      swap1\n      pop\n        /* \"contracts/tokenMarketPlace.sol\":1488:1493  token */\n      dup1\n        /* \"contracts/tokenMarketPlace.sol\":1488:1506  token.transferFrom */\n      0xffffffffffffffffffffffffffffffffffffffff\n      and\n      0x23b872dd\n        /* \"contracts/tokenMarketPlace.sol\":1507:1517  msg.sender */\n      caller\n        /* \"contracts/tokenMarketPlace.sol\":1527:1531  this */\n      address\n        /* \"contracts/tokenMarketPlace.sol\":1534:1541  _amount */\n      dup7\n        /* \"contracts/tokenMarketPlace.sol\":1488:1542  token.transferFrom(msg.sender, address(this), _amount) */\n      mload(0x40)\n      dup5\n      0xffffffff\n      and\n      0xe0\n      shl\n      dup2\n      mstore\n      0x04\n      add\n      tag_55\n      swap4\n      swap3\n      swap2\n      swap1\n      tag_56\n      jump\t// in\n    tag_55:\n      0x20\n      mload(0x40)\n      dup1\n      dup4\n      sub\n      dup2\n      0x00\n      dup8\n      gas\n      call\n      iszero\n      dup1\n      iszero\n      tag_58\n      jumpi\n      returndatasize\n      0x00\n      dup1\n      returndatacopy\n      revert(0x00, returndatasize)\n    tag_58:\n      pop\n      pop\n      pop\n      pop\n      mload(0x40)\n      returndatasize\n      not(0x1f)\n      0x1f\n      dup3\n      add\n      and\n      dup3\n      add\n      dup1\n      0x40\n      mstore\n      pop\n      dup2\n      add\n      swap1\n      tag_59\n      swap2\n      swap1\n      tag_60\n      jump\t// in\n    tag_59:\n        /* \"contracts/tokenMarketPlace.sol\":1480:1568  require(token.transferFrom(msg.sender, address(this), _amount), \"Token transfer failed\") */\n      tag_61\n      jumpi\n      mload(0x40)\n      0x08c379a000000000000000000000000000000000000000000000000000000000\n      dup2\n      mstore\n      0x04\n      add\n      tag_62\n      swap1\n      tag_63\n      jump\t// in\n    tag_62:\n      mload(0x40)\n      dup1\n      swap2\n      sub\n      swap1\n      revert\n    tag_61:\n        /* \"contracts/tokenMarketPlace.sol\":1581:1598  uint256 listingId */\n      0x00\n        /* \"contracts/tokenMarketPlace.sol\":1601:1615  nextListingsId */\n      0x05\n      0x00\n        /* \"contracts/tokenMarketPlace.sol\":1601:1617  nextListingsId++ */\n      dup2\n      sload\n      dup1\n      swap3\n      swap2\n      swap1\n      tag_64\n      swap1\n      tag_65\n      jump\t// in\n    tag_64:\n      swap2\n      swap1\n      pop\n      sstore\n        /* \"contracts/tokenMarketPlace.sol\":1581:1617  uint256 listingId = nextListingsId++ */\n      swap1\n      pop\n        /* \"contracts/tokenMarketPlace.sol\":1650:1715  Listing(msg.sender, _pricePerToken, _amount, _tokenAddress, true) */\n      mload(0x40)\n      dup1\n      0xa0\n      add\n      0x40\n      mstore\n      dup1\n        /* \"contracts/tokenMarketPlace.sol\":1658:1668  msg.sender */\n      caller\n        /* \"contracts/tokenMarketPlace.sol\":1650:1715  Listing(msg.sender, _pricePerToken, _amount, _tokenAddress, true) */\n      0xffffffffffffffffffffffffffffffffffffffff\n      and\n      dup2\n      mstore\n      0x20\n      add\n        /* \"contracts/tokenMarketPlace.sol\":1670:1684  _pricePerToken */\n      dup5\n        /* \"contracts/tokenMarketPlace.sol\":1650:1715  Listing(msg.sender, _pricePerToken, _amount, _tokenAddress, true) */\n      dup2\n      mstore\n      0x20\n      add\n        /* \"contracts/tokenMarketPlace.sol\":1686:1693  _amount */\n      dup6\n        /* \"contracts/tokenMarketPlace.sol\":1650:1715  Listing(msg.sender, _pricePerToken, _amount, _tokenAddress, true) */\n      dup2\n      mstore\n      0x20\n      add\n        /* \"contracts/tokenMarketPlace.sol\":1695:1708  _tokenAddress */\n      dup7\n        /* \"contracts/tokenMarketPlace.sol\":1650:1715  Listing(msg.sender, _pricePerToken, _amount, _tokenAddress, true) */\n      0xffffffffffffffffffffffffffffffffffffffff\n      and\n      dup2\n      mstore\n      0x20\n      add\n        /* \"contracts/tokenMarketPlace.sol\":1710:1714  true */\n      0x01\n        /* \"contracts/tokenMarketPlace.sol\":1650:1715  Listing(msg.sender, _pricePerToken, _amount, _tokenAddress, true) */\n      iszero\n      iszero\n      dup2\n      mstore\n      pop\n        /* \"contracts/tokenMarketPlace.sol\":1628:1636  listings */\n      0x04\n        /* \"contracts/tokenMarketPlace.sol\":1628:1647  listings[listingId] */\n      0x00\n        /* \"contracts/tokenMarketPlace.sol\":1637:1646  listingId */\n      dup4\n        /* \"contracts/tokenMarketPlace.sol\":1628:1647  listings[listingId] */\n      dup2\n      mstore\n      0x20\n      add\n      swap1\n      dup2\n      mstore\n      0x20\n      add\n      0x00\n      keccak256\n        /* \"contracts/tokenMarketPlace.sol\":1628:1715  listings[listingId] = Listing(msg.sender, _pricePerToken, _amount, _tokenAddress, true) */\n      0x00\n      dup3\n      add\n      mload\n      dup2\n      0x00\n      add\n      exp(0x0100, 0x00)\n      dup2\n      sload\n      dup2\n      0xffffffffffffffffffffffffffffffffffffffff\n      mul\n      not\n      and\n      swap1\n      dup4\n      0xffffffffffffffffffffffffffffffffffffffff\n      and\n      mul\n      or\n      swap1\n      sstore\n      pop\n      0x20\n      dup3\n      add\n      mload\n      dup2\n      0x01\n      add\n      sstore\n      0x40\n      dup3\n      add\n      mload\n      dup2\n      0x02\n      add\n      sstore\n      0x60\n      dup3\n      add\n      mload\n      dup2\n      0x03\n      add\n      exp(0x0100, 0x00)\n      dup2\n      sload\n      dup2\n      0xffffffffffffffffffffffffffffffffffffffff\n      mul\n      not\n      and\n      swap1\n      dup4\n      0xffffffffffffffffffffffffffffffffffffffff\n      and\n      mul\n      or\n      swap1\n      sstore\n      pop\n      0x80\n      dup3\n      add\n      mload\n      dup2\n      0x03\n      add\n      exp(0x0100, 0x14)\n      dup2\n      sload\n      dup2\n      0xff\n      mul\n      not\n      and\n      swap1\n      dup4\n      iszero\n      iszero\n      mul\n      or\n      swap1\n      sstore\n      pop\n      swap1\n      pop\n      pop\n        /* \"contracts/tokenMarketPlace.sol\":1772:1781  listingId */\n      dup1\n        /* \"contracts/tokenMarketPlace.sol\":1757:1770  _tokenAddress */\n      dup6\n        /* \"contracts/tokenMarketPlace.sol\":1733:1807  TokenListed(msg.sender, _tokenAddress, listingId, _amount, _pricePerToken) */\n      0xffffffffffffffffffffffffffffffffffffffff\n      and\n        /* \"contracts/tokenMarketPlace.sol\":1745:1755  msg.sender */\n      caller\n        /* \"contracts/tokenMarketPlace.sol\":1733:1807  TokenListed(msg.sender, _tokenAddress, listingId, _amount, _pricePerToken) */\n      0xffffffffffffffffffffffffffffffffffffffff\n      and\n      0x7d5e9f7d0176f6d89418aff63d46085abc93fe2052915f849d66d8f7d168bb3c\n        /* \"contracts/tokenMarketPlace.sol\":1783:1790  _amount */\n      dup8\n        /* \"contracts/tokenMarketPlace.sol\":1792:1806  _pricePerToken */\n      dup8\n        /* \"contracts/tokenMarketPlace.sol\":1733:1807  TokenListed(msg.sender, _tokenAddress, listingId, _amount, _pricePerToken) */\n      mload(0x40)\n      tag_66\n      swap3\n      swap2\n      swap1\n      tag_67\n      jump\t// in\n    tag_66:\n      mload(0x40)\n      dup1\n      swap2\n      sub\n      swap1\n      log4\n        /* \"contracts/tokenMarketPlace.sol\":1214:1815  {... */\n      pop\n      pop\n        /* \"@openzeppelin/contracts/security/ReentrancyGuard.sol\":2303:2323  _nonReentrantAfter() */\n      tag_68\n        /* \"@openzeppelin/contracts/security/ReentrancyGuard.sol\":2303:2321  _nonReentrantAfter */\n      tag_69\n        /* \"@openzeppelin/contracts/security/ReentrancyGuard.sol\":2303:2323  _nonReentrantAfter() */\n      jump\t// in\n    tag_68:\n        /* \"contracts/tokenMarketPlace.sol\":1109:1815  function ListToken(address _tokenAddress, uint256 _amount, uint256 _pricePerToken) external nonReentrant {... */\n      pop\n      pop\n      pop\n      jump\t// out\n        /* \"contracts/tokenMarketPlace.sol\":585:618  uint256 public nextListingsId = 1 */\n    tag_17:\n      sload(0x05)\n      dup2\n      jump\t// out\n        /* \"@openzeppelin/contracts/access/Ownable.sol\":2293:2394  function renounceOwnership() public virtual onlyOwner {... */\n    tag_21:\n        /* \"@openzeppelin/contracts/access/Ownable.sol\":1531:1544  _checkOwner() */\n      tag_71\n        /* \"@openzeppelin/contracts/access/Ownable.sol\":1531:1542  _checkOwner */\n      tag_72\n        /* \"@openzeppelin/contracts/access/Ownable.sol\":1531:1544  _checkOwner() */\n      jump\t// in\n    tag_71:\n        /* \"@openzeppelin/contracts/access/Ownable.sol\":2357:2387  _transferOwnership(address(0)) */\n      tag_74\n        /* \"@openzeppelin/contracts/access/Ownable.sol\":2384:2385  0 */\n      0x00\n        /* \"@openzeppelin/contracts/access/Ownable.sol\":2357:2375  _transferOwnership */\n      tag_75\n        /* \"@openzeppelin/contracts/access/Ownable.sol\":2357:2387  _transferOwnership(address(0)) */\n      jump\t// in\n    tag_74:\n        /* \"@openzeppelin/contracts/access/Ownable.sol\":2293:2394  function renounceOwnership() public virtual onlyOwner {... */\n      jump\t// out\n        /* \"contracts/tokenMarketPlace.sol\":303:325  uint public feePercent */\n    tag_23:\n      sload(0x02)\n      dup2\n      jump\t// out\n        /* \"@openzeppelin/contracts/access/Ownable.sol\":1638:1723  function owner() public view virtual returns (address) {... */\n    tag_26:\n        /* \"@openzeppelin/contracts/access/Ownable.sol\":1684:1691  address */\n      0x00\n        /* \"@openzeppelin/contracts/access/Ownable.sol\":1710:1716  _owner */\n      dup1\n      0x00\n      swap1\n      sload\n      swap1\n      0x0100\n      exp\n      swap1\n      div\n      0xffffffffffffffffffffffffffffffffffffffff\n      and\n        /* \"@openzeppelin/contracts/access/Ownable.sol\":1703:1716  return _owner */\n      swap1\n      pop\n        /* \"@openzeppelin/contracts/access/Ownable.sol\":1638:1723  function owner() public view virtual returns (address) {... */\n      swap1\n      jump\t// out\n        /* \"contracts/tokenMarketPlace.sol\":332:359  address public feeCollector */\n    tag_30:\n      0x03\n      0x00\n      swap1\n      sload\n      swap1\n      0x0100\n      exp\n      swap1\n      div\n      0xffffffffffffffffffffffffffffffffffffffff\n      and\n      dup2\n      jump\t// out\n        /* \"contracts/tokenMarketPlace.sol\":535:578  mapping(uint256 => Listing) public listings */\n    tag_35:\n      mstore(0x20, 0x04)\n      dup1\n      0x00\n      mstore\n      keccak256(0x00, 0x40)\n      0x00\n      swap2\n      pop\n      swap1\n      pop\n      dup1\n      0x00\n      add\n      0x00\n      swap1\n      sload\n      swap1\n      0x0100\n      exp\n      swap1\n      div\n      0xffffffffffffffffffffffffffffffffffffffff\n      and\n      swap1\n      dup1\n      0x01\n      add\n      sload\n      swap1\n      dup1\n      0x02\n      add\n      sload\n      swap1\n      dup1\n      0x03\n      add\n      0x00\n      swap1\n      sload\n      swap1\n      0x0100\n      exp\n      swap1\n      div\n      0xffffffffffffffffffffffffffffffffffffffff\n      and\n      swap1\n      dup1\n      0x03\n      add\n      0x14\n      swap1\n      sload\n      swap1\n      0x0100\n      exp\n      swap1\n      div\n      0xff\n      and\n      swap1\n      pop\n      dup6\n      jump\t// out\n        /* \"@openzeppelin/contracts/access/Ownable.sol\":2543:2758  function transferOwnership(address newOwner) public virtual onlyOwner {... */\n    tag_41:\n        /* \"@openzeppelin/contracts/access/Ownable.sol\":1531:1544  _checkOwner() */\n      tag_78\n        /* \"@openzeppelin/contracts/access/Ownable.sol\":1531:1542  _checkOwner */\n      tag_72\n        /* \"@openzeppelin/contracts/access/Ownable.sol\":1531:1544  _checkOwner() */\n      jump\t// in\n    tag_78:\n        /* \"@openzeppelin/contracts/access/Ownable.sol\":2647:2648  0 */\n      0x00\n        /* \"@openzeppelin/contracts/access/Ownable.sol\":2627:2649  newOwner == address(0) */\n      0xffffffffffffffffffffffffffffffffffffffff\n      and\n        /* \"@openzeppelin/contracts/access/Ownable.sol\":2627:2635  newOwner */\n      dup2\n        /* \"@openzeppelin/contracts/access/Ownable.sol\":2627:2649  newOwner == address(0) */\n      0xffffffffffffffffffffffffffffffffffffffff\n      and\n      sub\n        /* \"@openzeppelin/contracts/access/Ownable.sol\":2623:2714  if (newOwner == address(0)) {... */\n      tag_80\n      jumpi\n        /* \"@openzeppelin/contracts/access/Ownable.sol\":2700:2701  0 */\n      0x00\n        /* \"@openzeppelin/contracts/access/Ownable.sol\":2672:2703  OwnableInvalidOwner(address(0)) */\n      mload(0x40)\n      0x1e4fbdf700000000000000000000000000000000000000000000000000000000\n      dup2\n      mstore\n      0x04\n      add\n      tag_81\n      swap2\n      swap1\n      tag_28\n      jump\t// in\n    tag_81:\n      mload(0x40)\n      dup1\n      swap2\n      sub\n      swap1\n      revert\n        /* \"@openzeppelin/contracts/access/Ownable.sol\":2623:2714  if (newOwner == address(0)) {... */\n    tag_80:\n        /* \"@openzeppelin/contracts/access/Ownable.sol\":2723:2751  _transferOwnership(newOwner) */\n      tag_82\n        /* \"@openzeppelin/contracts/access/Ownable.sol\":2742:2750  newOwner */\n      dup2\n        /* \"@openzeppelin/contracts/access/Ownable.sol\":2723:2741  _transferOwnership */\n      tag_75\n        /* \"@openzeppelin/contracts/access/Ownable.sol\":2723:2751  _transferOwnership(newOwner) */\n      jump\t// in\n    tag_82:\n        /* \"@openzeppelin/contracts/access/Ownable.sol\":2543:2758  function transferOwnership(address newOwner) public virtual onlyOwner {... */\n      pop\n      jump\t// out\n        /* \"@openzeppelin/contracts/security/ReentrancyGuard.sol\":2336:2623  function _nonReentrantBefore() private {... */\n    tag_44:\n        /* \"@openzeppelin/contracts/security/ReentrancyGuard.sol\":1759:1760  2 */\n      0x02\n        /* \"@openzeppelin/contracts/security/ReentrancyGuard.sol\":2468:2475  _status */\n      sload(0x01)\n        /* \"@openzeppelin/contracts/security/ReentrancyGuard.sol\":2468:2487  _status != _ENTERED */\n      sub\n        /* \"@openzeppelin/contracts/security/ReentrancyGuard.sol\":2460:2523  require(_status != _ENTERED, \"ReentrancyGuard: reentrant call\") */\n      tag_84\n      jumpi\n      mload(0x40)\n      0x08c379a000000000000000000000000000000000000000000000000000000000\n      dup2\n      mstore\n      0x04\n      add\n      tag_85\n      swap1\n      tag_86\n      jump\t// in\n    tag_85:\n      mload(0x40)\n      dup1\n      swap2\n      sub\n      swap1\n      revert\n    tag_84:\n        /* \"@openzeppelin/contracts/security/ReentrancyGuard.sol\":1759:1760  2 */\n      0x02\n        /* \"@openzeppelin/contracts/security/ReentrancyGuard.sol\":2598:2605  _status */\n      0x01\n        /* \"@openzeppelin/contracts/security/ReentrancyGuard.sol\":2598:2616  _status = _ENTERED */\n      dup2\n      swap1\n      sstore\n      pop\n        /* \"@openzeppelin/contracts/security/ReentrancyGuard.sol\":2336:2623  function _nonReentrantBefore() private {... */\n      jump\t// out\n        /* \"@openzeppelin/contracts/security/ReentrancyGuard.sol\":2629:2838  function _nonReentrantAfter() private {... */\n    tag_69:\n        /* \"@openzeppelin/contracts/security/ReentrancyGuard.sol\":1716:1717  1 */\n      0x01\n        /* \"@openzeppelin/contracts/security/ReentrancyGuard.sol\":2809:2816  _status */\n      dup1\n        /* \"@openzeppelin/contracts/security/ReentrancyGuard.sol\":2809:2831  _status = _NOT_ENTERED */\n      dup2\n      swap1\n      sstore\n      pop\n        /* \"@openzeppelin/contracts/security/ReentrancyGuard.sol\":2629:2838  function _nonReentrantAfter() private {... */\n      jump\t// out\n        /* \"@openzeppelin/contracts/access/Ownable.sol\":1796:1958  function _checkOwner() internal view virtual {... */\n    tag_72:\n        /* \"@openzeppelin/contracts/access/Ownable.sol\":1866:1878  _msgSender() */\n      tag_89\n        /* \"@openzeppelin/contracts/access/Ownable.sol\":1866:1876  _msgSender */\n      tag_90\n        /* \"@openzeppelin/contracts/access/Ownable.sol\":1866:1878  _msgSender() */\n      jump\t// in\n    tag_89:\n        /* \"@openzeppelin/contracts/access/Ownable.sol\":1855:1878  owner() != _msgSender() */\n      0xffffffffffffffffffffffffffffffffffffffff\n      and\n        /* \"@openzeppelin/contracts/access/Ownable.sol\":1855:1862  owner() */\n      tag_91\n        /* \"@openzeppelin/contracts/access/Ownable.sol\":1855:1860  owner */\n      tag_26\n        /* \"@openzeppelin/contracts/access/Ownable.sol\":1855:1862  owner() */\n      jump\t// in\n    tag_91:\n        /* \"@openzeppelin/contracts/access/Ownable.sol\":1855:1878  owner() != _msgSender() */\n      0xffffffffffffffffffffffffffffffffffffffff\n      and\n      eq\n        /* \"@openzeppelin/contracts/access/Ownable.sol\":1851:1952  if (owner() != _msgSender()) {... */\n      tag_92\n      jumpi\n        /* \"@openzeppelin/contracts/access/Ownable.sol\":1928:1940  _msgSender() */\n      tag_93\n        /* \"@openzeppelin/contracts/access/Ownable.sol\":1928:1938  _msgSender */\n      tag_90\n        /* \"@openzeppelin/contracts/access/Ownable.sol\":1928:1940  _msgSender() */\n      jump\t// in\n    tag_93:\n        /* \"@openzeppelin/contracts/access/Ownable.sol\":1901:1941  OwnableUnauthorizedAccount(_msgSender()) */\n      mload(0x40)\n      0x118cdaa700000000000000000000000000000000000000000000000000000000\n      dup2\n      mstore\n      0x04\n      add\n      tag_94\n      swap2\n      swap1\n      tag_28\n      jump\t// in\n    tag_94:\n      mload(0x40)\n      dup1\n      swap2\n      sub\n      swap1\n      revert\n        /* \"@openzeppelin/contracts/access/Ownable.sol\":1851:1952  if (owner() != _msgSender()) {... */\n    tag_92:\n        /* \"@openzeppelin/contracts/access/Ownable.sol\":1796:1958  function _checkOwner() internal view virtual {... */\n      jump\t// out\n        /* \"@openzeppelin/contracts/access/Ownable.sol\":2912:3099  function _transferOwnership(address newOwner) internal virtual {... */\n    tag_75:\n        /* \"@openzeppelin/contracts/access/Ownable.sol\":2985:3001  address oldOwner */\n      0x00\n        /* \"@openzeppelin/contracts/access/Ownable.sol\":3004:3010  _owner */\n      dup1\n      0x00\n      swap1\n      sload\n      swap1\n      0x0100\n      exp\n      swap1\n      div\n      0xffffffffffffffffffffffffffffffffffffffff\n      and\n        /* \"@openzeppelin/contracts/access/Ownable.sol\":2985:3010  address oldOwner = _owner */\n      swap1\n      pop\n        /* \"@openzeppelin/contracts/access/Ownable.sol\":3029:3037  newOwner */\n      dup2\n        /* \"@openzeppelin/contracts/access/Ownable.sol\":3020:3026  _owner */\n      0x00\n      dup1\n        /* \"@openzeppelin/contracts/access/Ownable.sol\":3020:3037  _owner = newOwner */\n      0x0100\n      exp\n      dup2\n      sload\n      dup2\n      0xffffffffffffffffffffffffffffffffffffffff\n      mul\n      not\n      and\n      swap1\n      dup4\n      0xffffffffffffffffffffffffffffffffffffffff\n      and\n      mul\n      or\n      swap1\n      sstore\n      pop\n        /* \"@openzeppelin/contracts/access/Ownable.sol\":3083:3091  newOwner */\n      dup2\n        /* \"@openzeppelin/contracts/access/Ownable.sol\":3052:3092  OwnershipTransferred(oldOwner, newOwner) */\n      0xffffffffffffffffffffffffffffffffffffffff\n      and\n        /* \"@openzeppelin/contracts/access/Ownable.sol\":3073:3081  oldOwner */\n      dup2\n        /* \"@openzeppelin/contracts/access/Ownable.sol\":3052:3092  OwnershipTransferred(oldOwner, newOwner) */\n      0xffffffffffffffffffffffffffffffffffffffff\n      and\n      0x8be0079c531659141344cd1fd0a4f28419497f9722a3daafe3b4186f6b6457e0\n      mload(0x40)\n      mload(0x40)\n      dup1\n      swap2\n      sub\n      swap1\n      log3\n        /* \"@openzeppelin/contracts/access/Ownable.sol\":2975:3099  {... */\n      pop\n        /* \"@openzeppelin/contracts/access/Ownable.sol\":2912:3099  function _transferOwnership(address newOwner) internal virtual {... */\n      pop\n      jump\t// out\n        /* \"@openzeppelin/contracts/utils/Context.sol\":656:752  function _msgSender() internal view virtual returns (address) {... */\n    tag_90:\n        /* \"@openzeppelin/contracts/utils/Context.sol\":709:716  address */\n      0x00\n        /* \"@openzeppelin/contracts/utils/Context.sol\":735:745  msg.sender */\n      caller\n        /* \"@openzeppelin/contracts/utils/Context.sol\":728:745  return msg.sender */\n      swap1\n      pop\n        /* \"@openzeppelin/contracts/utils/Context.sol\":656:752  function _msgSender() internal view virtual returns (address) {... */\n      swap1\n      jump\t// out\n        /* \"#utility.yul\":88:205   */\n    tag_98:\n        /* \"#utility.yul\":197:198   */\n      0x00\n        /* \"#utility.yul\":194:195   */\n      dup1\n        /* \"#utility.yul\":187:199   */\n      revert\n        /* \"#utility.yul\":334:460   */\n    tag_100:\n        /* \"#utility.yul\":371:378   */\n      0x00\n        /* \"#utility.yul\":411:453   */\n      0xffffffffffffffffffffffffffffffffffffffff\n        /* \"#utility.yul\":404:409   */\n      dup3\n        /* \"#utility.yul\":400:454   */\n      and\n        /* \"#utility.yul\":389:454   */\n      swap1\n      pop\n        /* \"#utility.yul\":334:460   */\n      swap2\n      swap1\n      pop\n      jump\t// out\n        /* \"#utility.yul\":466:562   */\n    tag_101:\n        /* \"#utility.yul\":503:510   */\n      0x00\n        /* \"#utility.yul\":532:556   */\n      tag_131\n        /* \"#utility.yul\":550:555   */\n      dup3\n        /* \"#utility.yul\":532:556   */\n      tag_100\n      jump\t// in\n    tag_131:\n        /* \"#utility.yul\":521:556   */\n      swap1\n      pop\n        /* \"#utility.yul\":466:562   */\n      swap2\n      swap1\n      pop\n      jump\t// out\n        /* \"#utility.yul\":568:690   */\n    tag_102:\n        /* \"#utility.yul\":641:665   */\n      tag_133\n        /* \"#utility.yul\":659:664   */\n      dup2\n        /* \"#utility.yul\":641:665   */\n      tag_101\n      jump\t// in\n    tag_133:\n        /* \"#utility.yul\":634:639   */\n      dup2\n        /* \"#utility.yul\":631:666   */\n      eq\n        /* \"#utility.yul\":621:684   */\n      tag_134\n      jumpi\n        /* \"#utility.yul\":680:681   */\n      0x00\n        /* \"#utility.yul\":677:678   */\n      dup1\n        /* \"#utility.yul\":670:682   */\n      revert\n        /* \"#utility.yul\":621:684   */\n    tag_134:\n        /* \"#utility.yul\":568:690   */\n      pop\n      jump\t// out\n        /* \"#utility.yul\":696:835   */\n    tag_103:\n        /* \"#utility.yul\":742:747   */\n      0x00\n        /* \"#utility.yul\":780:786   */\n      dup2\n        /* \"#utility.yul\":767:787   */\n      calldataload\n        /* \"#utility.yul\":758:787   */\n      swap1\n      pop\n        /* \"#utility.yul\":796:829   */\n      tag_136\n        /* \"#utility.yul\":823:828   */\n      dup2\n        /* \"#utility.yul\":796:829   */\n      tag_102\n      jump\t// in\n    tag_136:\n        /* \"#utility.yul\":696:835   */\n      swap3\n      swap2\n      pop\n      pop\n      jump\t// out\n        /* \"#utility.yul\":841:918   */\n    tag_104:\n        /* \"#utility.yul\":878:885   */\n      0x00\n        /* \"#utility.yul\":907:912   */\n      dup2\n        /* \"#utility.yul\":896:912   */\n      swap1\n      pop\n        /* \"#utility.yul\":841:918   */\n      swap2\n      swap1\n      pop\n      jump\t// out\n        /* \"#utility.yul\":924:1046   */\n    tag_105:\n        /* \"#utility.yul\":997:1021   */\n      tag_139\n        /* \"#utility.yul\":1015:1020   */\n      dup2\n        /* \"#utility.yul\":997:1021   */\n      tag_104\n      jump\t// in\n    tag_139:\n        /* \"#utility.yul\":990:995   */\n      dup2\n        /* \"#utility.yul\":987:1022   */\n      eq\n        /* \"#utility.yul\":977:1040   */\n      tag_140\n      jumpi\n        /* \"#utility.yul\":1036:1037   */\n      0x00\n        /* \"#utility.yul\":1033:1034   */\n      dup1\n        /* \"#utility.yul\":1026:1038   */\n      revert\n        /* \"#utility.yul\":977:1040   */\n    tag_140:\n        /* \"#utility.yul\":924:1046   */\n      pop\n      jump\t// out\n        /* \"#utility.yul\":1052:1191   */\n    tag_106:\n        /* \"#utility.yul\":1098:1103   */\n      0x00\n        /* \"#utility.yul\":1136:1142   */\n      dup2\n        /* \"#utility.yul\":1123:1143   */\n      calldataload\n        /* \"#utility.yul\":1114:1143   */\n      swap1\n      pop\n        /* \"#utility.yul\":1152:1185   */\n      tag_142\n        /* \"#utility.yul\":1179:1184   */\n      dup2\n        /* \"#utility.yul\":1152:1185   */\n      tag_105\n      jump\t// in\n    tag_142:\n        /* \"#utility.yul\":1052:1191   */\n      swap3\n      swap2\n      pop\n      pop\n      jump\t// out\n        /* \"#utility.yul\":1197:1816   */\n    tag_14:\n        /* \"#utility.yul\":1274:1280   */\n      0x00\n        /* \"#utility.yul\":1282:1288   */\n      dup1\n        /* \"#utility.yul\":1290:1296   */\n      0x00\n        /* \"#utility.yul\":1339:1341   */\n      0x60\n        /* \"#utility.yul\":1327:1336   */\n      dup5\n        /* \"#utility.yul\":1318:1325   */\n      dup7\n        /* \"#utility.yul\":1314:1337   */\n      sub\n        /* \"#utility.yul\":1310:1342   */\n      slt\n        /* \"#utility.yul\":1307:1426   */\n      iszero\n      tag_144\n      jumpi\n        /* \"#utility.yul\":1345:1424   */\n      tag_145\n      tag_98\n      jump\t// in\n    tag_145:\n        /* \"#utility.yul\":1307:1426   */\n    tag_144:\n        /* \"#utility.yul\":1465:1466   */\n      0x00\n        /* \"#utility.yul\":1490:1543   */\n      tag_146\n        /* \"#utility.yul\":1535:1542   */\n      dup7\n        /* \"#utility.yul\":1526:1532   */\n      dup3\n        /* \"#utility.yul\":1515:1524   */\n      dup8\n        /* \"#utility.yul\":1511:1533   */\n      add\n        /* \"#utility.yul\":1490:1543   */\n      tag_103\n      jump\t// in\n    tag_146:\n        /* \"#utility.yul\":1480:1543   */\n      swap4\n      pop\n        /* \"#utility.yul\":1436:1553   */\n      pop\n        /* \"#utility.yul\":1592:1594   */\n      0x20\n        /* \"#utility.yul\":1618:1671   */\n      tag_147\n        /* \"#utility.yul\":1663:1670   */\n      dup7\n        /* \"#utility.yul\":1654:1660   */\n      dup3\n        /* \"#utility.yul\":1643:1652   */\n      dup8\n        /* \"#utility.yul\":1639:1661   */\n      add\n        /* \"#utility.yul\":1618:1671   */\n      tag_106\n      jump\t// in\n    tag_147:\n        /* \"#utility.yul\":1608:1671   */\n      swap3\n      pop\n        /* \"#utility.yul\":1563:1681   */\n      pop\n        /* \"#utility.yul\":1720:1722   */\n      0x40\n        /* \"#utility.yul\":1746:1799   */\n      tag_148\n        /* \"#utility.yul\":1791:1798   */\n      dup7\n        /* \"#utility.yul\":1782:1788   */\n      dup3\n        /* \"#utility.yul\":1771:1780   */\n      dup8\n        /* \"#utility.yul\":1767:1789   */\n      add\n        /* \"#utility.yul\":1746:1799   */\n      tag_106\n      jump\t// in\n    tag_148:\n        /* \"#utility.yul\":1736:1799   */\n      swap2\n      pop\n        /* \"#utility.yul\":1691:1809   */\n      pop\n        /* \"#utility.yul\":1197:1816   */\n      swap3\n      pop\n      swap3\n      pop\n      swap3\n      jump\t// out\n        /* \"#utility.yul\":1822:1940   */\n    tag_107:\n        /* \"#utility.yul\":1909:1933   */\n      tag_150\n        /* \"#utility.yul\":1927:1932   */\n      dup2\n        /* \"#utility.yul\":1909:1933   */\n      tag_104\n      jump\t// in\n    tag_150:\n        /* \"#utility.yul\":1904:1907   */\n      dup3\n        /* \"#utility.yul\":1897:1934   */\n      mstore\n        /* \"#utility.yul\":1822:1940   */\n      pop\n      pop\n      jump\t// out\n        /* \"#utility.yul\":1946:2168   */\n    tag_19:\n        /* \"#utility.yul\":2039:2043   */\n      0x00\n        /* \"#utility.yul\":2077:2079   */\n      0x20\n        /* \"#utility.yul\":2066:2075   */\n      dup3\n        /* \"#utility.yul\":2062:2080   */\n      add\n        /* \"#utility.yul\":2054:2080   */\n      swap1\n      pop\n        /* \"#utility.yul\":2090:2161   */\n      tag_152\n        /* \"#utility.yul\":2158:2159   */\n      0x00\n        /* \"#utility.yul\":2147:2156   */\n      dup4\n        /* \"#utility.yul\":2143:2160   */\n      add\n        /* \"#utility.yul\":2134:2140   */\n      dup5\n        /* \"#utility.yul\":2090:2161   */\n      tag_107\n      jump\t// in\n    tag_152:\n        /* \"#utility.yul\":1946:2168   */\n      swap3\n      swap2\n      pop\n      pop\n      jump\t// out\n        /* \"#utility.yul\":2174:2292   */\n    tag_108:\n        /* \"#utility.yul\":2261:2285   */\n      tag_154\n        /* \"#utility.yul\":2279:2284   */\n      dup2\n        /* \"#utility.yul\":2261:2285   */\n      tag_101\n      jump\t// in\n    tag_154:\n        /* \"#utility.yul\":2256:2259   */\n      dup3\n        /* \"#utility.yul\":2249:2286   */\n      mstore\n        /* \"#utility.yul\":2174:2292   */\n      pop\n      pop\n      jump\t// out\n        /* \"#utility.yul\":2298:2520   */\n    tag_28:\n        /* \"#utility.yul\":2391:2395   */\n      0x00\n        /* \"#utility.yul\":2429:2431   */\n      0x20\n        /* \"#utility.yul\":2418:2427   */\n      dup3\n        /* \"#utility.yul\":2414:2432   */\n      add\n        /* \"#utility.yul\":2406:2432   */\n      swap1\n      pop\n        /* \"#utility.yul\":2442:2513   */\n      tag_156\n        /* \"#utility.yul\":2510:2511   */\n      0x00\n        /* \"#utility.yul\":2499:2508   */\n      dup4\n        /* \"#utility.yul\":2495:2512   */\n      add\n        /* \"#utility.yul\":2486:2492   */\n      dup5\n        /* \"#utility.yul\":2442:2513   */\n      tag_108\n      jump\t// in\n    tag_156:\n        /* \"#utility.yul\":2298:2520   */\n      swap3\n      swap2\n      pop\n      pop\n      jump\t// out\n        /* \"#utility.yul\":2526:2855   */\n    tag_34:\n        /* \"#utility.yul\":2585:2591   */\n      0x00\n        /* \"#utility.yul\":2634:2636   */\n      0x20\n        /* \"#utility.yul\":2622:2631   */\n      dup3\n        /* \"#utility.yul\":2613:2620   */\n      dup5\n        /* \"#utility.yul\":2609:2632   */\n      sub\n        /* \"#utility.yul\":2605:2637   */\n      slt\n        /* \"#utility.yul\":2602:2721   */\n      iszero\n      tag_158\n      jumpi\n        /* \"#utility.yul\":2640:2719   */\n      tag_159\n      tag_98\n      jump\t// in\n    tag_159:\n        /* \"#utility.yul\":2602:2721   */\n    tag_158:\n        /* \"#utility.yul\":2760:2761   */\n      0x00\n        /* \"#utility.yul\":2785:2838   */\n      tag_160\n        /* \"#utility.yul\":2830:2837   */\n      dup5\n        /* \"#utility.yul\":2821:2827   */\n      dup3\n        /* \"#utility.yul\":2810:2819   */\n      dup6\n        /* \"#utility.yul\":2806:2828   */\n      add\n        /* \"#utility.yul\":2785:2838   */\n      tag_106\n      jump\t// in\n    tag_160:\n        /* \"#utility.yul\":2775:2838   */\n      swap2\n      pop\n        /* \"#utility.yul\":2731:2848   */\n      pop\n        /* \"#utility.yul\":2526:2855   */\n      swap3\n      swap2\n      pop\n      pop\n      jump\t// out\n        /* \"#utility.yul\":2861:2951   */\n    tag_109:\n        /* \"#utility.yul\":2895:2902   */\n      0x00\n        /* \"#utility.yul\":2938:2943   */\n      dup2\n        /* \"#utility.yul\":2931:2944   */\n      iszero\n        /* \"#utility.yul\":2924:2945   */\n      iszero\n        /* \"#utility.yul\":2913:2945   */\n      swap1\n      pop\n        /* \"#utility.yul\":2861:2951   */\n      swap2\n      swap1\n      pop\n      jump\t// out\n        /* \"#utility.yul\":2957:3066   */\n    tag_110:\n        /* \"#utility.yul\":3038:3059   */\n      tag_163\n        /* \"#utility.yul\":3053:3058   */\n      dup2\n        /* \"#utility.yul\":3038:3059   */\n      tag_109\n      jump\t// in\n    tag_163:\n        /* \"#utility.yul\":3033:3036   */\n      dup3\n        /* \"#utility.yul\":3026:3060   */\n      mstore\n        /* \"#utility.yul\":2957:3066   */\n      pop\n      pop\n      jump\t// out\n        /* \"#utility.yul\":3072:3724   */\n    tag_37:\n        /* \"#utility.yul\":3271:3275   */\n      0x00\n        /* \"#utility.yul\":3309:3312   */\n      0xa0\n        /* \"#utility.yul\":3298:3307   */\n      dup3\n        /* \"#utility.yul\":3294:3313   */\n      add\n        /* \"#utility.yul\":3286:3313   */\n      swap1\n      pop\n        /* \"#utility.yul\":3323:3394   */\n      tag_165\n        /* \"#utility.yul\":3391:3392   */\n      0x00\n        /* \"#utility.yul\":3380:3389   */\n      dup4\n        /* \"#utility.yul\":3376:3393   */\n      add\n        /* \"#utility.yul\":3367:3373   */\n      dup9\n        /* \"#utility.yul\":3323:3394   */\n      tag_108\n      jump\t// in\n    tag_165:\n        /* \"#utility.yul\":3404:3476   */\n      tag_166\n        /* \"#utility.yul\":3472:3474   */\n      0x20\n        /* \"#utility.yul\":3461:3470   */\n      dup4\n        /* \"#utility.yul\":3457:3475   */\n      add\n        /* \"#utility.yul\":3448:3454   */\n      dup8\n        /* \"#utility.yul\":3404:3476   */\n      tag_107\n      jump\t// in\n    tag_166:\n        /* \"#utility.yul\":3486:3558   */\n      tag_167\n        /* \"#utility.yul\":3554:3556   */\n      0x40\n        /* \"#utility.yul\":3543:3552   */\n      dup4\n        /* \"#utility.yul\":3539:3557   */\n      add\n        /* \"#utility.yul\":3530:3536   */\n      dup7\n        /* \"#utility.yul\":3486:3558   */\n      tag_107\n      jump\t// in\n    tag_167:\n        /* \"#utility.yul\":3568:3640   */\n      tag_168\n        /* \"#utility.yul\":3636:3638   */\n      0x60\n        /* \"#utility.yul\":3625:3634   */\n      dup4\n        /* \"#utility.yul\":3621:3639   */\n      add\n        /* \"#utility.yul\":3612:3618   */\n      dup6\n        /* \"#utility.yul\":3568:3640   */\n      tag_108\n      jump\t// in\n    tag_168:\n        /* \"#utility.yul\":3650:3717   */\n      tag_169\n        /* \"#utility.yul\":3712:3715   */\n      0x80\n        /* \"#utility.yul\":3701:3710   */\n      dup4\n        /* \"#utility.yul\":3697:3716   */\n      add\n        /* \"#utility.yul\":3688:3694   */\n      dup5\n        /* \"#utility.yul\":3650:3717   */\n      tag_110\n      jump\t// in\n    tag_169:\n        /* \"#utility.yul\":3072:3724   */\n      swap7\n      swap6\n      pop\n      pop\n      pop\n      pop\n      pop\n      pop\n      jump\t// out\n        /* \"#utility.yul\":3730:4059   */\n    tag_40:\n        /* \"#utility.yul\":3789:3795   */\n      0x00\n        /* \"#utility.yul\":3838:3840   */\n      0x20\n        /* \"#utility.yul\":3826:3835   */\n      dup3\n        /* \"#utility.yul\":3817:3824   */\n      dup5\n        /* \"#utility.yul\":3813:3836   */\n      sub\n        /* \"#utility.yul\":3809:3841   */\n      slt\n        /* \"#utility.yul\":3806:3925   */\n      iszero\n      tag_171\n      jumpi\n        /* \"#utility.yul\":3844:3923   */\n      tag_172\n      tag_98\n      jump\t// in\n    tag_172:\n        /* \"#utility.yul\":3806:3925   */\n    tag_171:\n        /* \"#utility.yul\":3964:3965   */\n      0x00\n        /* \"#utility.yul\":3989:4042   */\n      tag_173\n        /* \"#utility.yul\":4034:4041   */\n      dup5\n        /* \"#utility.yul\":4025:4031   */\n      dup3\n        /* \"#utility.yul\":4014:4023   */\n      dup6\n        /* \"#utility.yul\":4010:4032   */\n      add\n        /* \"#utility.yul\":3989:4042   */\n      tag_103\n      jump\t// in\n    tag_173:\n        /* \"#utility.yul\":3979:4042   */\n      swap2\n      pop\n        /* \"#utility.yul\":3935:4052   */\n      pop\n        /* \"#utility.yul\":3730:4059   */\n      swap3\n      swap2\n      pop\n      pop\n      jump\t// out\n        /* \"#utility.yul\":4065:4234   */\n    tag_111:\n        /* \"#utility.yul\":4149:4160   */\n      0x00\n        /* \"#utility.yul\":4183:4189   */\n      dup3\n        /* \"#utility.yul\":4178:4181   */\n      dup3\n        /* \"#utility.yul\":4171:4190   */\n      mstore\n        /* \"#utility.yul\":4223:4227   */\n      0x20\n        /* \"#utility.yul\":4218:4221   */\n      dup3\n        /* \"#utility.yul\":4214:4228   */\n      add\n        /* \"#utility.yul\":4199:4228   */\n      swap1\n      pop\n        /* \"#utility.yul\":4065:4234   */\n      swap3\n      swap2\n      pop\n      pop\n      jump\t// out\n        /* \"#utility.yul\":4240:4411   */\n    tag_112:\n        /* \"#utility.yul\":4380:4403   */\n      0x496e76616c696420746f6b656e20616464726573730000000000000000000000\n        /* \"#utility.yul\":4376:4377   */\n      0x00\n        /* \"#utility.yul\":4368:4374   */\n      dup3\n        /* \"#utility.yul\":4364:4378   */\n      add\n        /* \"#utility.yul\":4357:4404   */\n      mstore\n        /* \"#utility.yul\":4240:4411   */\n      pop\n      jump\t// out\n        /* \"#utility.yul\":4417:4783   */\n    tag_113:\n        /* \"#utility.yul\":4559:4562   */\n      0x00\n        /* \"#utility.yul\":4580:4647   */\n      tag_177\n        /* \"#utility.yul\":4644:4646   */\n      0x15\n        /* \"#utility.yul\":4639:4642   */\n      dup4\n        /* \"#utility.yul\":4580:4647   */\n      tag_111\n      jump\t// in\n    tag_177:\n        /* \"#utility.yul\":4573:4647   */\n      swap2\n      pop\n        /* \"#utility.yul\":4656:4749   */\n      tag_178\n        /* \"#utility.yul\":4745:4748   */\n      dup3\n        /* \"#utility.yul\":4656:4749   */\n      tag_112\n      jump\t// in\n    tag_178:\n        /* \"#utility.yul\":4774:4776   */\n      0x20\n        /* \"#utility.yul\":4769:4772   */\n      dup3\n        /* \"#utility.yul\":4765:4777   */\n      add\n        /* \"#utility.yul\":4758:4777   */\n      swap1\n      pop\n        /* \"#utility.yul\":4417:4783   */\n      swap2\n      swap1\n      pop\n      jump\t// out\n        /* \"#utility.yul\":4789:5208   */\n    tag_48:\n        /* \"#utility.yul\":4955:4959   */\n      0x00\n        /* \"#utility.yul\":4993:4995   */\n      0x20\n        /* \"#utility.yul\":4982:4991   */\n      dup3\n        /* \"#utility.yul\":4978:4996   */\n      add\n        /* \"#utility.yul\":4970:4996   */\n      swap1\n      pop\n        /* \"#utility.yul\":5042:5051   */\n      dup2\n        /* \"#utility.yul\":5036:5040   */\n      dup2\n        /* \"#utility.yul\":5032:5052   */\n      sub\n        /* \"#utility.yul\":5028:5029   */\n      0x00\n        /* \"#utility.yul\":5017:5026   */\n      dup4\n        /* \"#utility.yul\":5013:5030   */\n      add\n        /* \"#utility.yul\":5006:5053   */\n      mstore\n        /* \"#utility.yul\":5070:5201   */\n      tag_180\n        /* \"#utility.yul\":5196:5200   */\n      dup2\n        /* \"#utility.yul\":5070:5201   */\n      tag_113\n      jump\t// in\n    tag_180:\n        /* \"#utility.yul\":5062:5201   */\n      swap1\n      pop\n        /* \"#utility.yul\":4789:5208   */\n      swap2\n      swap1\n      pop\n      jump\t// out\n        /* \"#utility.yul\":5214:5393   */\n    tag_114:\n        /* \"#utility.yul\":5354:5385   */\n      0x416d6f756e74206d7573742062652067726561746572207468616e2030000000\n        /* \"#utility.yul\":5350:5351   */\n      0x00\n        /* \"#utility.yul\":5342:5348   */\n      dup3\n        /* \"#utility.yul\":5338:5352   */\n      add\n        /* \"#utility.yul\":5331:5386   */\n      mstore\n        /* \"#utility.yul\":5214:5393   */\n      pop\n      jump\t// out\n        /* \"#utility.yul\":5399:5765   */\n    tag_115:\n        /* \"#utility.yul\":5541:5544   */\n      0x00\n        /* \"#utility.yul\":5562:5629   */\n      tag_183\n        /* \"#utility.yul\":5626:5628   */\n      0x1d\n        /* \"#utility.yul\":5621:5624   */\n      dup4\n        /* \"#utility.yul\":5562:5629   */\n      tag_111\n      jump\t// in\n    tag_183:\n        /* \"#utility.yul\":5555:5629   */\n      swap2\n      pop\n        /* \"#utility.yul\":5638:5731   */\n      tag_184\n        /* \"#utility.yul\":5727:5730   */\n      dup3\n        /* \"#utility.yul\":5638:5731   */\n      tag_114\n      jump\t// in\n    tag_184:\n        /* \"#utility.yul\":5756:5758   */\n      0x20\n        /* \"#utility.yul\":5751:5754   */\n      dup3\n        /* \"#utility.yul\":5747:5759   */\n      add\n        /* \"#utility.yul\":5740:5759   */\n      swap1\n      pop\n        /* \"#utility.yul\":5399:5765   */\n      swap2\n      swap1\n      pop\n      jump\t// out\n        /* \"#utility.yul\":5771:6190   */\n    tag_51:\n        /* \"#utility.yul\":5937:5941   */\n      0x00\n        /* \"#utility.yul\":5975:5977   */\n      0x20\n        /* \"#utility.yul\":5964:5973   */\n      dup3\n        /* \"#utility.yul\":5960:5978   */\n      add\n        /* \"#utility.yul\":5952:5978   */\n      swap1\n      pop\n        /* \"#utility.yul\":6024:6033   */\n      dup2\n        /* \"#utility.yul\":6018:6022   */\n      dup2\n        /* \"#utility.yul\":6014:6034   */\n      sub\n        /* \"#utility.yul\":6010:6011   */\n      0x00\n        /* \"#utility.yul\":5999:6008   */\n      dup4\n        /* \"#utility.yul\":5995:6012   */\n      add\n        /* \"#utility.yul\":5988:6035   */\n      mstore\n        /* \"#utility.yul\":6052:6183   */\n      tag_186\n        /* \"#utility.yul\":6178:6182   */\n      dup2\n        /* \"#utility.yul\":6052:6183   */\n      tag_115\n      jump\t// in\n    tag_186:\n        /* \"#utility.yul\":6044:6183   */\n      swap1\n      pop\n        /* \"#utility.yul\":5771:6190   */\n      swap2\n      swap1\n      pop\n      jump\t// out\n        /* \"#utility.yul\":6196:6374   */\n    tag_116:\n        /* \"#utility.yul\":6336:6366   */\n      0x5072696365206d7573742062652067726561746572207468616e203000000000\n        /* \"#utility.yul\":6332:6333   */\n      0x00\n        /* \"#utility.yul\":6324:6330   */\n      dup3\n        /* \"#utility.yul\":6320:6334   */\n      add\n        /* \"#utility.yul\":6313:6367   */\n      mstore\n        /* \"#utility.yul\":6196:6374   */\n      pop\n      jump\t// out\n        /* \"#utility.yul\":6380:6746   */\n    tag_117:\n        /* \"#utility.yul\":6522:6525   */\n      0x00\n        /* \"#utility.yul\":6543:6610   */\n      tag_189\n        /* \"#utility.yul\":6607:6609   */\n      0x1c\n        /* \"#utility.yul\":6602:6605   */\n      dup4\n        /* \"#utility.yul\":6543:6610   */\n      tag_111\n      jump\t// in\n    tag_189:\n        /* \"#utility.yul\":6536:6610   */\n      swap2\n      pop\n        /* \"#utility.yul\":6619:6712   */\n      tag_190\n        /* \"#utility.yul\":6708:6711   */\n      dup3\n        /* \"#utility.yul\":6619:6712   */\n      tag_116\n      jump\t// in\n    tag_190:\n        /* \"#utility.yul\":6737:6739   */\n      0x20\n        /* \"#utility.yul\":6732:6735   */\n      dup3\n        /* \"#utility.yul\":6728:6740   */\n      add\n        /* \"#utility.yul\":6721:6740   */\n      swap1\n      pop\n        /* \"#utility.yul\":6380:6746   */\n      swap2\n      swap1\n      pop\n      jump\t// out\n        /* \"#utility.yul\":6752:7171   */\n    tag_54:\n        /* \"#utility.yul\":6918:6922   */\n      0x00\n        /* \"#utility.yul\":6956:6958   */\n      0x20\n        /* \"#utility.yul\":6945:6954   */\n      dup3\n        /* \"#utility.yul\":6941:6959   */\n      add\n        /* \"#utility.yul\":6933:6959   */\n      swap1\n      pop\n        /* \"#utility.yul\":7005:7014   */\n      dup2\n        /* \"#utility.yul\":6999:7003   */\n      dup2\n        /* \"#utility.yul\":6995:7015   */\n      sub\n        /* \"#utility.yul\":6991:6992   */\n      0x00\n        /* \"#utility.yul\":6980:6989   */\n      dup4\n        /* \"#utility.yul\":6976:6993   */\n      add\n        /* \"#utility.yul\":6969:7016   */\n      mstore\n        /* \"#utility.yul\":7033:7164   */\n      tag_192\n        /* \"#utility.yul\":7159:7163   */\n      dup2\n        /* \"#utility.yul\":7033:7164   */\n      tag_117\n      jump\t// in\n    tag_192:\n        /* \"#utility.yul\":7025:7164   */\n      swap1\n      pop\n        /* \"#utility.yul\":6752:7171   */\n      swap2\n      swap1\n      pop\n      jump\t// out\n        /* \"#utility.yul\":7177:7619   */\n    tag_56:\n        /* \"#utility.yul\":7326:7330   */\n      0x00\n        /* \"#utility.yul\":7364:7366   */\n      0x60\n        /* \"#utility.yul\":7353:7362   */\n      dup3\n        /* \"#utility.yul\":7349:7367   */\n      add\n        /* \"#utility.yul\":7341:7367   */\n      swap1\n      pop\n        /* \"#utility.yul\":7377:7448   */\n      tag_194\n        /* \"#utility.yul\":7445:7446   */\n      0x00\n        /* \"#utility.yul\":7434:7443   */\n      dup4\n        /* \"#utility.yul\":7430:7447   */\n      add\n        /* \"#utility.yul\":7421:7427   */\n      dup7\n        /* \"#utility.yul\":7377:7448   */\n      tag_108\n      jump\t// in\n    tag_194:\n        /* \"#utility.yul\":7458:7530   */\n      tag_195\n        /* \"#utility.yul\":7526:7528   */\n      0x20\n        /* \"#utility.yul\":7515:7524   */\n      dup4\n        /* \"#utility.yul\":7511:7529   */\n      add\n        /* \"#utility.yul\":7502:7508   */\n      dup6\n        /* \"#utility.yul\":7458:7530   */\n      tag_108\n      jump\t// in\n    tag_195:\n        /* \"#utility.yul\":7540:7612   */\n      tag_196\n        /* \"#utility.yul\":7608:7610   */\n      0x40\n        /* \"#utility.yul\":7597:7606   */\n      dup4\n        /* \"#utility.yul\":7593:7611   */\n      add\n        /* \"#utility.yul\":7584:7590   */\n      dup5\n        /* \"#utility.yul\":7540:7612   */\n      tag_107\n      jump\t// in\n    tag_196:\n        /* \"#utility.yul\":7177:7619   */\n      swap5\n      swap4\n      pop\n      pop\n      pop\n      pop\n      jump\t// out\n        /* \"#utility.yul\":7625:7741   */\n    tag_118:\n        /* \"#utility.yul\":7695:7716   */\n      tag_198\n        /* \"#utility.yul\":7710:7715   */\n      dup2\n        /* \"#utility.yul\":7695:7716   */\n      tag_109\n      jump\t// in\n    tag_198:\n        /* \"#utility.yul\":7688:7693   */\n      dup2\n        /* \"#utility.yul\":7685:7717   */\n      eq\n        /* \"#utility.yul\":7675:7735   */\n      tag_199\n      jumpi\n        /* \"#utility.yul\":7731:7732   */\n      0x00\n        /* \"#utility.yul\":7728:7729   */\n      dup1\n        /* \"#utility.yul\":7721:7733   */\n      revert\n        /* \"#utility.yul\":7675:7735   */\n    tag_199:\n        /* \"#utility.yul\":7625:7741   */\n      pop\n      jump\t// out\n        /* \"#utility.yul\":7747:7884   */\n    tag_119:\n        /* \"#utility.yul\":7801:7806   */\n      0x00\n        /* \"#utility.yul\":7832:7838   */\n      dup2\n        /* \"#utility.yul\":7826:7839   */\n      mload\n        /* \"#utility.yul\":7817:7839   */\n      swap1\n      pop\n        /* \"#utility.yul\":7848:7878   */\n      tag_201\n        /* \"#utility.yul\":7872:7877   */\n      dup2\n        /* \"#utility.yul\":7848:7878   */\n      tag_118\n      jump\t// in\n    tag_201:\n        /* \"#utility.yul\":7747:7884   */\n      swap3\n      swap2\n      pop\n      pop\n      jump\t// out\n        /* \"#utility.yul\":7890:8235   */\n    tag_60:\n        /* \"#utility.yul\":7957:7963   */\n      0x00\n        /* \"#utility.yul\":8006:8008   */\n      0x20\n        /* \"#utility.yul\":7994:8003   */\n      dup3\n        /* \"#utility.yul\":7985:7992   */\n      dup5\n        /* \"#utility.yul\":7981:8004   */\n      sub\n        /* \"#utility.yul\":7977:8009   */\n      slt\n        /* \"#utility.yul\":7974:8093   */\n      iszero\n      tag_203\n      jumpi\n        /* \"#utility.yul\":8012:8091   */\n      tag_204\n      tag_98\n      jump\t// in\n    tag_204:\n        /* \"#utility.yul\":7974:8093   */\n    tag_203:\n        /* \"#utility.yul\":8132:8133   */\n      0x00\n        /* \"#utility.yul\":8157:8218   */\n      tag_205\n        /* \"#utility.yul\":8210:8217   */\n      dup5\n        /* \"#utility.yul\":8201:8207   */\n      dup3\n        /* \"#utility.yul\":8190:8199   */\n      dup6\n        /* \"#utility.yul\":8186:8208   */\n      add\n        /* \"#utility.yul\":8157:8218   */\n      tag_119\n      jump\t// in\n    tag_205:\n        /* \"#utility.yul\":8147:8218   */\n      swap2\n      pop\n        /* \"#utility.yul\":8103:8228   */\n      pop\n        /* \"#utility.yul\":7890:8235   */\n      swap3\n      swap2\n      pop\n      pop\n      jump\t// out\n        /* \"#utility.yul\":8241:8412   */\n    tag_120:\n        /* \"#utility.yul\":8381:8404   */\n      0x546f6b656e207472616e73666572206661696c65640000000000000000000000\n        /* \"#utility.yul\":8377:8378   */\n      0x00\n        /* \"#utility.yul\":8369:8375   */\n      dup3\n        /* \"#utility.yul\":8365:8379   */\n      add\n        /* \"#utility.yul\":8358:8405   */\n      mstore\n        /* \"#utility.yul\":8241:8412   */\n      pop\n      jump\t// out\n        /* \"#utility.yul\":8418:8784   */\n    tag_121:\n        /* \"#utility.yul\":8560:8563   */\n      0x00\n        /* \"#utility.yul\":8581:8648   */\n      tag_208\n        /* \"#utility.yul\":8645:8647   */\n      0x15\n        /* \"#utility.yul\":8640:8643   */\n      dup4\n        /* \"#utility.yul\":8581:8648   */\n      tag_111\n      jump\t// in\n    tag_208:\n        /* \"#utility.yul\":8574:8648   */\n      swap2\n      pop\n        /* \"#utility.yul\":8657:8750   */\n      tag_209\n        /* \"#utility.yul\":8746:8749   */\n      dup3\n        /* \"#utility.yul\":8657:8750   */\n      tag_120\n      jump\t// in\n    tag_209:\n        /* \"#utility.yul\":8775:8777   */\n      0x20\n        /* \"#utility.yul\":8770:8773   */\n      dup3\n        /* \"#utility.yul\":8766:8778   */\n      add\n        /* \"#utility.yul\":8759:8778   */\n      swap1\n      pop\n        /* \"#utility.yul\":8418:8784   */\n      swap2\n      swap1\n      pop\n      jump\t// out\n        /* \"#utility.yul\":8790:9209   */\n    tag_63:\n        /* \"#utility.yul\":8956:8960   */\n      0x00\n        /* \"#utility.yul\":8994:8996   */\n      0x20\n        /* \"#utility.yul\":8983:8992   */\n      dup3\n        /* \"#utility.yul\":8979:8997   */\n      add\n        /* \"#utility.yul\":8971:8997   */\n      swap1\n      pop\n        /* \"#utility.yul\":9043:9052   */\n      dup2\n        /* \"#utility.yul\":9037:9041   */\n      dup2\n        /* \"#utility.yul\":9033:9053   */\n      sub\n        /* \"#utility.yul\":9029:9030   */\n      0x00\n        /* \"#utility.yul\":9018:9027   */\n      dup4\n        /* \"#utility.yul\":9014:9031   */\n      add\n        /* \"#utility.yul\":9007:9054   */\n      mstore\n        /* \"#utility.yul\":9071:9202   */\n      tag_211\n        /* \"#utility.yul\":9197:9201   */\n      dup2\n        /* \"#utility.yul\":9071:9202   */\n      tag_121\n      jump\t// in\n    tag_211:\n        /* \"#utility.yul\":9063:9202   */\n      swap1\n      pop\n        /* \"#utility.yul\":8790:9209   */\n      swap2\n      swap1\n      pop\n      jump\t// out\n        /* \"#utility.yul\":9215:9395   */\n    tag_122:\n        /* \"#utility.yul\":9263:9340   */\n      0x4e487b7100000000000000000000000000000000000000000000000000000000\n        /* \"#utility.yul\":9260:9261   */\n      0x00\n        /* \"#utility.yul\":9253:9341   */\n      mstore\n        /* \"#utility.yul\":9360:9364   */\n      0x11\n        /* \"#utility.yul\":9357:9358   */\n      0x04\n        /* \"#utility.yul\":9350:9365   */\n      mstore\n        /* \"#utility.yul\":9384:9388   */\n      0x24\n        /* \"#utility.yul\":9381:9382   */\n      0x00\n        /* \"#utility.yul\":9374:9389   */\n      revert\n        /* \"#utility.yul\":9401:9634   */\n    tag_65:\n        /* \"#utility.yul\":9440:9443   */\n      0x00\n        /* \"#utility.yul\":9463:9487   */\n      tag_214\n        /* \"#utility.yul\":9481:9486   */\n      dup3\n        /* \"#utility.yul\":9463:9487   */\n      tag_104\n      jump\t// in\n    tag_214:\n        /* \"#utility.yul\":9454:9487   */\n      swap2\n      pop\n        /* \"#utility.yul\":9509:9575   */\n      0xffffffffffffffffffffffffffffffffffffffffffffffffffffffffffffffff\n        /* \"#utility.yul\":9502:9507   */\n      dup3\n        /* \"#utility.yul\":9499:9576   */\n      sub\n        /* \"#utility.yul\":9496:9599   */\n      tag_215\n      jumpi\n        /* \"#utility.yul\":9579:9597   */\n      tag_216\n      tag_122\n      jump\t// in\n    tag_216:\n        /* \"#utility.yul\":9496:9599   */\n    tag_215:\n        /* \"#utility.yul\":9626:9627   */\n      0x01\n        /* \"#utility.yul\":9619:9624   */\n      dup3\n        /* \"#utility.yul\":9615:9628   */\n      add\n        /* \"#utility.yul\":9608:9628   */\n      swap1\n      pop\n        /* \"#utility.yul\":9401:9634   */\n      swap2\n      swap1\n      pop\n      jump\t// out\n        /* \"#utility.yul\":9640:9972   */\n    tag_67:\n        /* \"#utility.yul\":9761:9765   */\n      0x00\n        /* \"#utility.yul\":9799:9801   */\n      0x40\n        /* \"#utility.yul\":9788:9797   */\n      dup3\n        /* \"#utility.yul\":9784:9802   */\n      add\n        /* \"#utility.yul\":9776:9802   */\n      swap1\n      pop\n        /* \"#utility.yul\":9812:9883   */\n      tag_218\n        /* \"#utility.yul\":9880:9881   */\n      0x00\n        /* \"#utility.yul\":9869:9878   */\n      dup4\n        /* \"#utility.yul\":9865:9882   */\n      add\n        /* \"#utility.yul\":9856:9862   */\n      dup6\n        /* \"#utility.yul\":9812:9883   */\n      tag_107\n      jump\t// in\n    tag_218:\n        /* \"#utility.yul\":9893:9965   */\n      tag_219\n        /* \"#utility.yul\":9961:9963   */\n      0x20\n        /* \"#utility.yul\":9950:9959   */\n      dup4\n        /* \"#utility.yul\":9946:9964   */\n      add\n        /* \"#utility.yul\":9937:9943   */\n      dup5\n        /* \"#utility.yul\":9893:9965   */\n      tag_107\n      jump\t// in\n    tag_219:\n        /* \"#utility.yul\":9640:9972   */\n      swap4\n      swap3\n      pop\n      pop\n      pop\n      jump\t// out\n        /* \"#utility.yul\":9978:10159   */\n    tag_123:\n        /* \"#utility.yul\":10118:10151   */\n      0x5265656e7472616e637947756172643a207265656e7472616e742063616c6c00\n        /* \"#utility.yul\":10114:10115   */\n      0x00\n        /* \"#utility.yul\":10106:10112   */\n      dup3\n        /* \"#utility.yul\":10102:10116   */\n      add\n        /* \"#utility.yul\":10095:10152   */\n      mstore\n        /* \"#utility.yul\":9978:10159   */\n      pop\n      jump\t// out\n        /* \"#utility.yul\":10165:10531   */\n    tag_124:\n        /* \"#utility.yul\":10307:10310   */\n      0x00\n        /* \"#utility.yul\":10328:10395   */\n      tag_222\n        /* \"#utility.yul\":10392:10394   */\n      0x1f\n        /* \"#utility.yul\":10387:10390   */\n      dup4\n        /* \"#utility.yul\":10328:10395   */\n      tag_111\n      jump\t// in\n    tag_222:\n        /* \"#utility.yul\":10321:10395   */\n      swap2\n      pop\n        /* \"#utility.yul\":10404:10497   */\n      tag_223\n        /* \"#utility.yul\":10493:10496   */\n      dup3\n        /* \"#utility.yul\":10404:10497   */\n      tag_123\n      jump\t// in\n    tag_223:\n        /* \"#utility.yul\":10522:10524   */\n      0x20\n        /* \"#utility.yul\":10517:10520   */\n      dup3\n        /* \"#utility.yul\":10513:10525   */\n      add\n        /* \"#utility.yul\":10506:10525   */\n      swap1\n      pop\n        /* \"#utility.yul\":10165:10531   */\n      swap2\n      swap1\n      pop\n      jump\t// out\n        /* \"#utility.yul\":10537:10956   */\n    tag_86:\n        /* \"#utility.yul\":10703:10707   */\n      0x00\n        /* \"#utility.yul\":10741:10743   */\n      0x20\n        /* \"#utility.yul\":10730:10739   */\n      dup3\n        /* \"#utility.yul\":10726:10744   */\n      add\n        /* \"#utility.yul\":10718:10744   */\n      swap1\n      pop\n        /* \"#utility.yul\":10790:10799   */\n      dup2\n        /* \"#utility.yul\":10784:10788   */\n      dup2\n        /* \"#utility.yul\":10780:10800   */\n      sub\n        /* \"#utility.yul\":10776:10777   */\n      0x00\n        /* \"#utility.yul\":10765:10774   */\n      dup4\n        /* \"#utility.yul\":10761:10778   */\n      add\n        /* \"#utility.yul\":10754:10801   */\n      mstore\n        /* \"#utility.yul\":10818:10949   */\n      tag_225\n        /* \"#utility.yul\":10944:10948   */\n      dup2\n        /* \"#utility.yul\":10818:10949   */\n      tag_124\n      jump\t// in\n    tag_225:\n        /* \"#utility.yul\":10810:10949   */\n      swap1\n      pop\n        /* \"#utility.yul\":10537:10956   */\n      swap2\n      swap1\n      pop\n      jump\t// out\n\n    auxdata: 0xa26469706673582212200986d7890241d9acf261724892a92ef559cb7d3d83993c66352160ba9c0d7de464736f6c634300081a0033\n}\n",
				"bytecode": {
					"linkReferences": {},
					"object": "60806040526001600555348015610014575f80fd5b506040516111d93803806111d983398181016040528101906100369190610312565b805f73ffffffffffffffffffffffffffffffffffffffff168173ffffffffffffffffffffffffffffffffffffffff16036100a7575f6040517f1e4fbdf700000000000000000000000000000000000000000000000000000000815260040161009e9190610371565b60405180910390fd5b6100b6816101c060201b60201c565b50600180819055506103e8831115610103576040517f08c379a00000000000000000000000000000000000000000000000000000000081526004016100fa906103e4565b60405180910390fd5b5f73ffffffffffffffffffffffffffffffffffffffff168273ffffffffffffffffffffffffffffffffffffffff1603610171576040517f08c379a00000000000000000000000000000000000000000000000000000000081526004016101689061044c565b60405180910390fd5b826002819055508160035f6101000a81548173ffffffffffffffffffffffffffffffffffffffff021916908373ffffffffffffffffffffffffffffffffffffffff16021790555050505061046a565b5f805f9054906101000a900473ffffffffffffffffffffffffffffffffffffffff169050815f806101000a81548173ffffffffffffffffffffffffffffffffffffffff021916908373ffffffffffffffffffffffffffffffffffffffff1602179055508173ffffffffffffffffffffffffffffffffffffffff168173ffffffffffffffffffffffffffffffffffffffff167f8be0079c531659141344cd1fd0a4f28419497f9722a3daafe3b4186f6b6457e060405160405180910390a35050565b5f80fd5b5f819050919050565b61029781610285565b81146102a1575f80fd5b50565b5f815190506102b28161028e565b92915050565b5f73ffffffffffffffffffffffffffffffffffffffff82169050919050565b5f6102e1826102b8565b9050919050565b6102f1816102d7565b81146102fb575f80fd5b50565b5f8151905061030c816102e8565b92915050565b5f805f6060848603121561032957610328610281565b5b5f610336868287016102a4565b9350506020610347868287016102fe565b9250506040610358868287016102fe565b9150509250925092565b61036b816102d7565b82525050565b5f6020820190506103845f830184610362565b92915050565b5f82825260208201905092915050565b7f4665652063616e6e6f74206578636565642031302500000000000000000000005f82015250565b5f6103ce60158361038a565b91506103d98261039a565b602082019050919050565b5f6020820190508181035f8301526103fb816103c2565b9050919050565b7f496e76616c69642066656520636f6c6c6563746f7220616464726573730000005f82015250565b5f610436601d8361038a565b915061044182610402565b602082019050919050565b5f6020820190508181035f8301526104638161042a565b9050919050565b610d62806104775f395ff3fe608060405234801561000f575f80fd5b5060043610610086575f3560e01c80638da5cb5b116100595780638da5cb5b146100ec578063c415b95c1461010a578063de74e57b14610128578063f2fde38b1461015c57610086565b80631f6182c41461008a57806369b3a705146100a6578063715018a6146100c45780637fd6f15c146100ce575b5f80fd5b6100a4600480360381019061009f919061088e565b610178565b005b6100ae6104ea565b6040516100bb91906108ed565b60405180910390f35b6100cc6104f0565b005b6100d6610503565b6040516100e391906108ed565b60405180910390f35b6100f4610509565b6040516101019190610915565b60405180910390f35b610112610530565b60405161011f9190610915565b60405180910390f35b610142600480360381019061013d919061092e565b610555565b604051610153959493929190610973565b60405180910390f35b610176600480360381019061017191906109c4565b6105d2565b005b610180610656565b5f73ffffffffffffffffffffffffffffffffffffffff168373ffffffffffffffffffffffffffffffffffffffff16036101ee576040517f08c379a00000000000000000000000000000000000000000000000000000000081526004016101e590610a49565b60405180910390fd5b5f8211610230576040517f08c379a000000000000000000000000000000000000000000000000000000000815260040161022790610ab1565b60405180910390fd5b5f8111610272576040517f08c379a000000000000000000000000000000000000000000000000000000000815260040161026990610b19565b60405180910390fd5b5f8390508073ffffffffffffffffffffffffffffffffffffffff166323b872dd3330866040518463ffffffff1660e01b81526004016102b393929190610b37565b6020604051808303815f875af11580156102cf573d5f803e3d5ffd5b505050506040513d601f19601f820116820180604052508101906102f39190610b96565b610332576040517f08c379a000000000000000000000000000000000000000000000000000000000815260040161032990610c0b565b60405180910390fd5b5f60055f81548092919061034590610c56565b9190505590506040518060a001604052803373ffffffffffffffffffffffffffffffffffffffff1681526020018481526020018581526020018673ffffffffffffffffffffffffffffffffffffffff1681526020016001151581525060045f8381526020019081526020015f205f820151815f015f6101000a81548173ffffffffffffffffffffffffffffffffffffffff021916908373ffffffffffffffffffffffffffffffffffffffff16021790555060208201518160010155604082015181600201556060820151816003015f6101000a81548173ffffffffffffffffffffffffffffffffffffffff021916908373ffffffffffffffffffffffffffffffffffffffff16021790555060808201518160030160146101000a81548160ff021916908315150217905550905050808573ffffffffffffffffffffffffffffffffffffffff163373ffffffffffffffffffffffffffffffffffffffff167f7d5e9f7d0176f6d89418aff63d46085abc93fe2052915f849d66d8f7d168bb3c87876040516104d3929190610c9d565b60405180910390a450506104e56106a5565b505050565b60055481565b6104f86106ae565b6105015f610735565b565b60025481565b5f805f9054906101000a900473ffffffffffffffffffffffffffffffffffffffff16905090565b60035f9054906101000a900473ffffffffffffffffffffffffffffffffffffffff1681565b6004602052805f5260405f205f91509050805f015f9054906101000a900473ffffffffffffffffffffffffffffffffffffffff1690806001015490806002015490806003015f9054906101000a900473ffffffffffffffffffffffffffffffffffffffff16908060030160149054906101000a900460ff16905085565b6105da6106ae565b5f73ffffffffffffffffffffffffffffffffffffffff168173ffffffffffffffffffffffffffffffffffffffff160361064a575f6040517f1e4fbdf70000000000000000000000000000000000000000000000000000000081526004016106419190610915565b60405180910390fd5b61065381610735565b50565b60026001540361069b576040517f08c379a000000000000000000000000000000000000000000000000000000000815260040161069290610d0e565b60405180910390fd5b6002600181905550565b60018081905550565b6106b66107f6565b73ffffffffffffffffffffffffffffffffffffffff166106d4610509565b73ffffffffffffffffffffffffffffffffffffffff1614610733576106f76107f6565b6040517f118cdaa700000000000000000000000000000000000000000000000000000000815260040161072a9190610915565b60405180910390fd5b565b5f805f9054906101000a900473ffffffffffffffffffffffffffffffffffffffff169050815f806101000a81548173ffffffffffffffffffffffffffffffffffffffff021916908373ffffffffffffffffffffffffffffffffffffffff1602179055508173ffffffffffffffffffffffffffffffffffffffff168173ffffffffffffffffffffffffffffffffffffffff167f8be0079c531659141344cd1fd0a4f28419497f9722a3daafe3b4186f6b6457e060405160405180910390a35050565b5f33905090565b5f80fd5b5f73ffffffffffffffffffffffffffffffffffffffff82169050919050565b5f61082a82610801565b9050919050565b61083a81610820565b8114610844575f80fd5b50565b5f8135905061085581610831565b92915050565b5f819050919050565b61086d8161085b565b8114610877575f80fd5b50565b5f8135905061088881610864565b92915050565b5f805f606084860312156108a5576108a46107fd565b5b5f6108b286828701610847565b93505060206108c38682870161087a565b92505060406108d48682870161087a565b9150509250925092565b6108e78161085b565b82525050565b5f6020820190506109005f8301846108de565b92915050565b61090f81610820565b82525050565b5f6020820190506109285f830184610906565b92915050565b5f60208284031215610943576109426107fd565b5b5f6109508482850161087a565b91505092915050565b5f8115159050919050565b61096d81610959565b82525050565b5f60a0820190506109865f830188610906565b61099360208301876108de565b6109a060408301866108de565b6109ad6060830185610906565b6109ba6080830184610964565b9695505050505050565b5f602082840312156109d9576109d86107fd565b5b5f6109e684828501610847565b91505092915050565b5f82825260208201905092915050565b7f496e76616c696420746f6b656e206164647265737300000000000000000000005f82015250565b5f610a336015836109ef565b9150610a3e826109ff565b602082019050919050565b5f6020820190508181035f830152610a6081610a27565b9050919050565b7f416d6f756e74206d7573742062652067726561746572207468616e20300000005f82015250565b5f610a9b601d836109ef565b9150610aa682610a67565b602082019050919050565b5f6020820190508181035f830152610ac881610a8f565b9050919050565b7f5072696365206d7573742062652067726561746572207468616e2030000000005f82015250565b5f610b03601c836109ef565b9150610b0e82610acf565b602082019050919050565b5f6020820190508181035f830152610b3081610af7565b9050919050565b5f606082019050610b4a5f830186610906565b610b576020830185610906565b610b6460408301846108de565b949350505050565b610b7581610959565b8114610b7f575f80fd5b50565b5f81519050610b9081610b6c565b92915050565b5f60208284031215610bab57610baa6107fd565b5b5f610bb884828501610b82565b91505092915050565b7f546f6b656e207472616e73666572206661696c656400000000000000000000005f82015250565b5f610bf56015836109ef565b9150610c0082610bc1565b602082019050919050565b5f6020820190508181035f830152610c2281610be9565b9050919050565b7f4e487b71000000000000000000000000000000000000000000000000000000005f52601160045260245ffd5b5f610c608261085b565b91507fffffffffffffffffffffffffffffffffffffffffffffffffffffffffffffffff8203610c9257610c91610c29565b5b600182019050919050565b5f604082019050610cb05f8301856108de565b610cbd60208301846108de565b9392505050565b7f5265656e7472616e637947756172643a207265656e7472616e742063616c6c005f82015250565b5f610cf8601f836109ef565b9150610d0382610cc4565b602082019050919050565b5f6020820190508181035f830152610d2581610cec565b905091905056fea26469706673582212200986d7890241d9acf261724892a92ef559cb7d3d83993c66352160ba9c0d7de464736f6c634300081a0033",
					"opcodes": "PUSH1 0x80 PUSH1 0x40 MSTORE PUSH1 0x1 PUSH1 0x5 SSTORE CALLVALUE DUP1 ISZERO PUSH2 0x14 JUMPI PUSH0 DUP1 REVERT JUMPDEST POP PUSH1 0x40 MLOAD PUSH2 0x11D9 CODESIZE SUB DUP1 PUSH2 0x11D9 DUP4 CODECOPY DUP2 DUP2 ADD PUSH1 0x40 MSTORE DUP2 ADD SWAP1 PUSH2 0x36 SWAP2 SWAP1 PUSH2 0x312 JUMP JUMPDEST DUP1 PUSH0 PUSH20 0xFFFFFFFFFFFFFFFFFFFFFFFFFFFFFFFFFFFFFFFF AND DUP2 PUSH20 0xFFFFFFFFFFFFFFFFFFFFFFFFFFFFFFFFFFFFFFFF AND SUB PUSH2 0xA7 JUMPI PUSH0 PUSH1 0x40 MLOAD PUSH32 0x1E4FBDF700000000000000000000000000000000000000000000000000000000 DUP2 MSTORE PUSH1 0x4 ADD PUSH2 0x9E SWAP2 SWAP1 PUSH2 0x371 JUMP JUMPDEST PUSH1 0x40 MLOAD DUP1 SWAP2 SUB SWAP1 REVERT JUMPDEST PUSH2 0xB6 DUP2 PUSH2 0x1C0 PUSH1 0x20 SHL PUSH1 0x20 SHR JUMP JUMPDEST POP PUSH1 0x1 DUP1 DUP2 SWAP1 SSTORE POP PUSH2 0x3E8 DUP4 GT ISZERO PUSH2 0x103 JUMPI PUSH1 0x40 MLOAD PUSH32 0x8C379A000000000000000000000000000000000000000000000000000000000 DUP2 MSTORE PUSH1 0x4 ADD PUSH2 0xFA SWAP1 PUSH2 0x3E4 JUMP JUMPDEST PUSH1 0x40 MLOAD DUP1 SWAP2 SUB SWAP1 REVERT JUMPDEST PUSH0 PUSH20 0xFFFFFFFFFFFFFFFFFFFFFFFFFFFFFFFFFFFFFFFF AND DUP3 PUSH20 0xFFFFFFFFFFFFFFFFFFFFFFFFFFFFFFFFFFFFFFFF AND SUB PUSH2 0x171 JUMPI PUSH1 0x40 MLOAD PUSH32 0x8C379A000000000000000000000000000000000000000000000000000000000 DUP2 MSTORE PUSH1 0x4 ADD PUSH2 0x168 SWAP1 PUSH2 0x44C JUMP JUMPDEST PUSH1 0x40 MLOAD DUP1 SWAP2 SUB SWAP1 REVERT JUMPDEST DUP3 PUSH1 0x2 DUP2 SWAP1 SSTORE POP DUP2 PUSH1 0x3 PUSH0 PUSH2 0x100 EXP DUP2 SLOAD DUP2 PUSH20 0xFFFFFFFFFFFFFFFFFFFFFFFFFFFFFFFFFFFFFFFF MUL NOT AND SWAP1 DUP4 PUSH20 0xFFFFFFFFFFFFFFFFFFFFFFFFFFFFFFFFFFFFFFFF AND MUL OR SWAP1 SSTORE POP POP POP POP PUSH2 0x46A JUMP JUMPDEST PUSH0 DUP1 PUSH0 SWAP1 SLOAD SWAP1 PUSH2 0x100 EXP SWAP1 DIV PUSH20 0xFFFFFFFFFFFFFFFFFFFFFFFFFFFFFFFFFFFFFFFF AND SWAP1 POP DUP2 PUSH0 DUP1 PUSH2 0x100 EXP DUP2 SLOAD DUP2 PUSH20 0xFFFFFFFFFFFFFFFFFFFFFFFFFFFFFFFFFFFFFFFF MUL NOT AND SWAP1 DUP4 PUSH20 0xFFFFFFFFFFFFFFFFFFFFFFFFFFFFFFFFFFFFFFFF AND MUL OR SWAP1 SSTORE POP DUP2 PUSH20 0xFFFFFFFFFFFFFFFFFFFFFFFFFFFFFFFFFFFFFFFF AND DUP2 PUSH20 0xFFFFFFFFFFFFFFFFFFFFFFFFFFFFFFFFFFFFFFFF AND PUSH32 0x8BE0079C531659141344CD1FD0A4F28419497F9722A3DAAFE3B4186F6B6457E0 PUSH1 0x40 MLOAD PUSH1 0x40 MLOAD DUP1 SWAP2 SUB SWAP1 LOG3 POP POP JUMP JUMPDEST PUSH0 DUP1 REVERT JUMPDEST PUSH0 DUP2 SWAP1 POP SWAP2 SWAP1 POP JUMP JUMPDEST PUSH2 0x297 DUP2 PUSH2 0x285 JUMP JUMPDEST DUP2 EQ PUSH2 0x2A1 JUMPI PUSH0 DUP1 REVERT JUMPDEST POP JUMP JUMPDEST PUSH0 DUP2 MLOAD SWAP1 POP PUSH2 0x2B2 DUP2 PUSH2 0x28E JUMP JUMPDEST SWAP3 SWAP2 POP POP JUMP JUMPDEST PUSH0 PUSH20 0xFFFFFFFFFFFFFFFFFFFFFFFFFFFFFFFFFFFFFFFF DUP3 AND SWAP1 POP SWAP2 SWAP1 POP JUMP JUMPDEST PUSH0 PUSH2 0x2E1 DUP3 PUSH2 0x2B8 JUMP JUMPDEST SWAP1 POP SWAP2 SWAP1 POP JUMP JUMPDEST PUSH2 0x2F1 DUP2 PUSH2 0x2D7 JUMP JUMPDEST DUP2 EQ PUSH2 0x2FB JUMPI PUSH0 DUP1 REVERT JUMPDEST POP JUMP JUMPDEST PUSH0 DUP2 MLOAD SWAP1 POP PUSH2 0x30C DUP2 PUSH2 0x2E8 JUMP JUMPDEST SWAP3 SWAP2 POP POP JUMP JUMPDEST PUSH0 DUP1 PUSH0 PUSH1 0x60 DUP5 DUP7 SUB SLT ISZERO PUSH2 0x329 JUMPI PUSH2 0x328 PUSH2 0x281 JUMP JUMPDEST JUMPDEST PUSH0 PUSH2 0x336 DUP7 DUP3 DUP8 ADD PUSH2 0x2A4 JUMP JUMPDEST SWAP4 POP POP PUSH1 0x20 PUSH2 0x347 DUP7 DUP3 DUP8 ADD PUSH2 0x2FE JUMP JUMPDEST SWAP3 POP POP PUSH1 0x40 PUSH2 0x358 DUP7 DUP3 DUP8 ADD PUSH2 0x2FE JUMP JUMPDEST SWAP2 POP POP SWAP3 POP SWAP3 POP SWAP3 JUMP JUMPDEST PUSH2 0x36B DUP2 PUSH2 0x2D7 JUMP JUMPDEST DUP3 MSTORE POP POP JUMP JUMPDEST PUSH0 PUSH1 0x20 DUP3 ADD SWAP1 POP PUSH2 0x384 PUSH0 DUP4 ADD DUP5 PUSH2 0x362 JUMP JUMPDEST SWAP3 SWAP2 POP POP JUMP JUMPDEST PUSH0 DUP3 DUP3 MSTORE PUSH1 0x20 DUP3 ADD SWAP1 POP SWAP3 SWAP2 POP POP JUMP JUMPDEST PUSH32 0x4665652063616E6E6F7420657863656564203130250000000000000000000000 PUSH0 DUP3 ADD MSTORE POP JUMP JUMPDEST PUSH0 PUSH2 0x3CE PUSH1 0x15 DUP4 PUSH2 0x38A JUMP JUMPDEST SWAP2 POP PUSH2 0x3D9 DUP3 PUSH2 0x39A JUMP JUMPDEST PUSH1 0x20 DUP3 ADD SWAP1 POP SWAP2 SWAP1 POP JUMP JUMPDEST PUSH0 PUSH1 0x20 DUP3 ADD SWAP1 POP DUP2 DUP2 SUB PUSH0 DUP4 ADD MSTORE PUSH2 0x3FB DUP2 PUSH2 0x3C2 JUMP JUMPDEST SWAP1 POP SWAP2 SWAP1 POP JUMP JUMPDEST PUSH32 0x496E76616C69642066656520636F6C6C6563746F722061646472657373000000 PUSH0 DUP3 ADD MSTORE POP JUMP JUMPDEST PUSH0 PUSH2 0x436 PUSH1 0x1D DUP4 PUSH2 0x38A JUMP JUMPDEST SWAP2 POP PUSH2 0x441 DUP3 PUSH2 0x402 JUMP JUMPDEST PUSH1 0x20 DUP3 ADD SWAP1 POP SWAP2 SWAP1 POP JUMP JUMPDEST PUSH0 PUSH1 0x20 DUP3 ADD SWAP1 POP DUP2 DUP2 SUB PUSH0 DUP4 ADD MSTORE PUSH2 0x463 DUP2 PUSH2 0x42A JUMP JUMPDEST SWAP1 POP SWAP2 SWAP1 POP JUMP JUMPDEST PUSH2 0xD62 DUP1 PUSH2 0x477 PUSH0 CODECOPY PUSH0 RETURN INVALID PUSH1 0x80 PUSH1 0x40 MSTORE CALLVALUE DUP1 ISZERO PUSH2 0xF JUMPI PUSH0 DUP1 REVERT JUMPDEST POP PUSH1 0x4 CALLDATASIZE LT PUSH2 0x86 JUMPI PUSH0 CALLDATALOAD PUSH1 0xE0 SHR DUP1 PUSH4 0x8DA5CB5B GT PUSH2 0x59 JUMPI DUP1 PUSH4 0x8DA5CB5B EQ PUSH2 0xEC JUMPI DUP1 PUSH4 0xC415B95C EQ PUSH2 0x10A JUMPI DUP1 PUSH4 0xDE74E57B EQ PUSH2 0x128 JUMPI DUP1 PUSH4 0xF2FDE38B EQ PUSH2 0x15C JUMPI PUSH2 0x86 JUMP JUMPDEST DUP1 PUSH4 0x1F6182C4 EQ PUSH2 0x8A JUMPI DUP1 PUSH4 0x69B3A705 EQ PUSH2 0xA6 JUMPI DUP1 PUSH4 0x715018A6 EQ PUSH2 0xC4 JUMPI DUP1 PUSH4 0x7FD6F15C EQ PUSH2 0xCE JUMPI JUMPDEST PUSH0 DUP1 REVERT JUMPDEST PUSH2 0xA4 PUSH1 0x4 DUP1 CALLDATASIZE SUB DUP2 ADD SWAP1 PUSH2 0x9F SWAP2 SWAP1 PUSH2 0x88E JUMP JUMPDEST PUSH2 0x178 JUMP JUMPDEST STOP JUMPDEST PUSH2 0xAE PUSH2 0x4EA JUMP JUMPDEST PUSH1 0x40 MLOAD PUSH2 0xBB SWAP2 SWAP1 PUSH2 0x8ED JUMP JUMPDEST PUSH1 0x40 MLOAD DUP1 SWAP2 SUB SWAP1 RETURN JUMPDEST PUSH2 0xCC PUSH2 0x4F0 JUMP JUMPDEST STOP JUMPDEST PUSH2 0xD6 PUSH2 0x503 JUMP JUMPDEST PUSH1 0x40 MLOAD PUSH2 0xE3 SWAP2 SWAP1 PUSH2 0x8ED JUMP JUMPDEST PUSH1 0x40 MLOAD DUP1 SWAP2 SUB SWAP1 RETURN JUMPDEST PUSH2 0xF4 PUSH2 0x509 JUMP JUMPDEST PUSH1 0x40 MLOAD PUSH2 0x101 SWAP2 SWAP1 PUSH2 0x915 JUMP JUMPDEST PUSH1 0x40 MLOAD DUP1 SWAP2 SUB SWAP1 RETURN JUMPDEST PUSH2 0x112 PUSH2 0x530 JUMP JUMPDEST PUSH1 0x40 MLOAD PUSH2 0x11F SWAP2 SWAP1 PUSH2 0x915 JUMP JUMPDEST PUSH1 0x40 MLOAD DUP1 SWAP2 SUB SWAP1 RETURN JUMPDEST PUSH2 0x142 PUSH1 0x4 DUP1 CALLDATASIZE SUB DUP2 ADD SWAP1 PUSH2 0x13D SWAP2 SWAP1 PUSH2 0x92E JUMP JUMPDEST PUSH2 0x555 JUMP JUMPDEST PUSH1 0x40 MLOAD PUSH2 0x153 SWAP6 SWAP5 SWAP4 SWAP3 SWAP2 SWAP1 PUSH2 0x973 JUMP JUMPDEST PUSH1 0x40 MLOAD DUP1 SWAP2 SUB SWAP1 RETURN JUMPDEST PUSH2 0x176 PUSH1 0x4 DUP1 CALLDATASIZE SUB DUP2 ADD SWAP1 PUSH2 0x171 SWAP2 SWAP1 PUSH2 0x9C4 JUMP JUMPDEST PUSH2 0x5D2 JUMP JUMPDEST STOP JUMPDEST PUSH2 0x180 PUSH2 0x656 JUMP JUMPDEST PUSH0 PUSH20 0xFFFFFFFFFFFFFFFFFFFFFFFFFFFFFFFFFFFFFFFF AND DUP4 PUSH20 0xFFFFFFFFFFFFFFFFFFFFFFFFFFFFFFFFFFFFFFFF AND SUB PUSH2 0x1EE JUMPI PUSH1 0x40 MLOAD PUSH32 0x8C379A000000000000000000000000000000000000000000000000000000000 DUP2 MSTORE PUSH1 0x4 ADD PUSH2 0x1E5 SWAP1 PUSH2 0xA49 JUMP JUMPDEST PUSH1 0x40 MLOAD DUP1 SWAP2 SUB SWAP1 REVERT JUMPDEST PUSH0 DUP3 GT PUSH2 0x230 JUMPI PUSH1 0x40 MLOAD PUSH32 0x8C379A000000000000000000000000000000000000000000000000000000000 DUP2 MSTORE PUSH1 0x4 ADD PUSH2 0x227 SWAP1 PUSH2 0xAB1 JUMP JUMPDEST PUSH1 0x40 MLOAD DUP1 SWAP2 SUB SWAP1 REVERT JUMPDEST PUSH0 DUP2 GT PUSH2 0x272 JUMPI PUSH1 0x40 MLOAD PUSH32 0x8C379A000000000000000000000000000000000000000000000000000000000 DUP2 MSTORE PUSH1 0x4 ADD PUSH2 0x269 SWAP1 PUSH2 0xB19 JUMP JUMPDEST PUSH1 0x40 MLOAD DUP1 SWAP2 SUB SWAP1 REVERT JUMPDEST PUSH0 DUP4 SWAP1 POP DUP1 PUSH20 0xFFFFFFFFFFFFFFFFFFFFFFFFFFFFFFFFFFFFFFFF AND PUSH4 0x23B872DD CALLER ADDRESS DUP7 PUSH1 0x40 MLOAD DUP5 PUSH4 0xFFFFFFFF AND PUSH1 0xE0 SHL DUP2 MSTORE PUSH1 0x4 ADD PUSH2 0x2B3 SWAP4 SWAP3 SWAP2 SWAP1 PUSH2 0xB37 JUMP JUMPDEST PUSH1 0x20 PUSH1 0x40 MLOAD DUP1 DUP4 SUB DUP2 PUSH0 DUP8 GAS CALL ISZERO DUP1 ISZERO PUSH2 0x2CF JUMPI RETURNDATASIZE PUSH0 DUP1 RETURNDATACOPY RETURNDATASIZE PUSH0 REVERT JUMPDEST POP POP POP POP PUSH1 0x40 MLOAD RETURNDATASIZE PUSH1 0x1F NOT PUSH1 0x1F DUP3 ADD AND DUP3 ADD DUP1 PUSH1 0x40 MSTORE POP DUP2 ADD SWAP1 PUSH2 0x2F3 SWAP2 SWAP1 PUSH2 0xB96 JUMP JUMPDEST PUSH2 0x332 JUMPI PUSH1 0x40 MLOAD PUSH32 0x8C379A000000000000000000000000000000000000000000000000000000000 DUP2 MSTORE PUSH1 0x4 ADD PUSH2 0x329 SWAP1 PUSH2 0xC0B JUMP JUMPDEST PUSH1 0x40 MLOAD DUP1 SWAP2 SUB SWAP1 REVERT JUMPDEST PUSH0 PUSH1 0x5 PUSH0 DUP2 SLOAD DUP1 SWAP3 SWAP2 SWAP1 PUSH2 0x345 SWAP1 PUSH2 0xC56 JUMP JUMPDEST SWAP2 SWAP1 POP SSTORE SWAP1 POP PUSH1 0x40 MLOAD DUP1 PUSH1 0xA0 ADD PUSH1 0x40 MSTORE DUP1 CALLER PUSH20 0xFFFFFFFFFFFFFFFFFFFFFFFFFFFFFFFFFFFFFFFF AND DUP2 MSTORE PUSH1 0x20 ADD DUP5 DUP2 MSTORE PUSH1 0x20 ADD DUP6 DUP2 MSTORE PUSH1 0x20 ADD DUP7 PUSH20 0xFFFFFFFFFFFFFFFFFFFFFFFFFFFFFFFFFFFFFFFF AND DUP2 MSTORE PUSH1 0x20 ADD PUSH1 0x1 ISZERO ISZERO DUP2 MSTORE POP PUSH1 0x4 PUSH0 DUP4 DUP2 MSTORE PUSH1 0x20 ADD SWAP1 DUP2 MSTORE PUSH1 0x20 ADD PUSH0 KECCAK256 PUSH0 DUP3 ADD MLOAD DUP2 PUSH0 ADD PUSH0 PUSH2 0x100 EXP DUP2 SLOAD DUP2 PUSH20 0xFFFFFFFFFFFFFFFFFFFFFFFFFFFFFFFFFFFFFFFF MUL NOT AND SWAP1 DUP4 PUSH20 0xFFFFFFFFFFFFFFFFFFFFFFFFFFFFFFFFFFFFFFFF AND MUL OR SWAP1 SSTORE POP PUSH1 0x20 DUP3 ADD MLOAD DUP2 PUSH1 0x1 ADD SSTORE PUSH1 0x40 DUP3 ADD MLOAD DUP2 PUSH1 0x2 ADD SSTORE PUSH1 0x60 DUP3 ADD MLOAD DUP2 PUSH1 0x3 ADD PUSH0 PUSH2 0x100 EXP DUP2 SLOAD DUP2 PUSH20 0xFFFFFFFFFFFFFFFFFFFFFFFFFFFFFFFFFFFFFFFF MUL NOT AND SWAP1 DUP4 PUSH20 0xFFFFFFFFFFFFFFFFFFFFFFFFFFFFFFFFFFFFFFFF AND MUL OR SWAP1 SSTORE POP PUSH1 0x80 DUP3 ADD MLOAD DUP2 PUSH1 0x3 ADD PUSH1 0x14 PUSH2 0x100 EXP DUP2 SLOAD DUP2 PUSH1 0xFF MUL NOT AND SWAP1 DUP4 ISZERO ISZERO MUL OR SWAP1 SSTORE POP SWAP1 POP POP DUP1 DUP6 PUSH20 0xFFFFFFFFFFFFFFFFFFFFFFFFFFFFFFFFFFFFFFFF AND CALLER PUSH20 0xFFFFFFFFFFFFFFFFFFFFFFFFFFFFFFFFFFFFFFFF AND PUSH32 0x7D5E9F7D0176F6D89418AFF63D46085ABC93FE2052915F849D66D8F7D168BB3C DUP8 DUP8 PUSH1 0x40 MLOAD PUSH2 0x4D3 SWAP3 SWAP2 SWAP1 PUSH2 0xC9D JUMP JUMPDEST PUSH1 0x40 MLOAD DUP1 SWAP2 SUB SWAP1 LOG4 POP POP PUSH2 0x4E5 PUSH2 0x6A5 JUMP JUMPDEST POP POP POP JUMP JUMPDEST PUSH1 0x5 SLOAD DUP2 JUMP JUMPDEST PUSH2 0x4F8 PUSH2 0x6AE JUMP JUMPDEST PUSH2 0x501 PUSH0 PUSH2 0x735 JUMP JUMPDEST JUMP JUMPDEST PUSH1 0x2 SLOAD DUP2 JUMP JUMPDEST PUSH0 DUP1 PUSH0 SWAP1 SLOAD SWAP1 PUSH2 0x100 EXP SWAP1 DIV PUSH20 0xFFFFFFFFFFFFFFFFFFFFFFFFFFFFFFFFFFFFFFFF AND SWAP1 POP SWAP1 JUMP JUMPDEST PUSH1 0x3 PUSH0 SWAP1 SLOAD SWAP1 PUSH2 0x100 EXP SWAP1 DIV PUSH20 0xFFFFFFFFFFFFFFFFFFFFFFFFFFFFFFFFFFFFFFFF AND DUP2 JUMP JUMPDEST PUSH1 0x4 PUSH1 0x20 MSTORE DUP1 PUSH0 MSTORE PUSH1 0x40 PUSH0 KECCAK256 PUSH0 SWAP2 POP SWAP1 POP DUP1 PUSH0 ADD PUSH0 SWAP1 SLOAD SWAP1 PUSH2 0x100 EXP SWAP1 DIV PUSH20 0xFFFFFFFFFFFFFFFFFFFFFFFFFFFFFFFFFFFFFFFF AND SWAP1 DUP1 PUSH1 0x1 ADD SLOAD SWAP1 DUP1 PUSH1 0x2 ADD SLOAD SWAP1 DUP1 PUSH1 0x3 ADD PUSH0 SWAP1 SLOAD SWAP1 PUSH2 0x100 EXP SWAP1 DIV PUSH20 0xFFFFFFFFFFFFFFFFFFFFFFFFFFFFFFFFFFFFFFFF AND SWAP1 DUP1 PUSH1 0x3 ADD PUSH1 0x14 SWAP1 SLOAD SWAP1 PUSH2 0x100 EXP SWAP1 DIV PUSH1 0xFF AND SWAP1 POP DUP6 JUMP JUMPDEST PUSH2 0x5DA PUSH2 0x6AE JUMP JUMPDEST PUSH0 PUSH20 0xFFFFFFFFFFFFFFFFFFFFFFFFFFFFFFFFFFFFFFFF AND DUP2 PUSH20 0xFFFFFFFFFFFFFFFFFFFFFFFFFFFFFFFFFFFFFFFF AND SUB PUSH2 0x64A JUMPI PUSH0 PUSH1 0x40 MLOAD PUSH32 0x1E4FBDF700000000000000000000000000000000000000000000000000000000 DUP2 MSTORE PUSH1 0x4 ADD PUSH2 0x641 SWAP2 SWAP1 PUSH2 0x915 JUMP JUMPDEST PUSH1 0x40 MLOAD DUP1 SWAP2 SUB SWAP1 REVERT JUMPDEST PUSH2 0x653 DUP2 PUSH2 0x735 JUMP JUMPDEST POP JUMP JUMPDEST PUSH1 0x2 PUSH1 0x1 SLOAD SUB PUSH2 0x69B JUMPI PUSH1 0x40 MLOAD PUSH32 0x8C379A000000000000000000000000000000000000000000000000000000000 DUP2 MSTORE PUSH1 0x4 ADD PUSH2 0x692 SWAP1 PUSH2 0xD0E JUMP JUMPDEST PUSH1 0x40 MLOAD DUP1 SWAP2 SUB SWAP1 REVERT JUMPDEST PUSH1 0x2 PUSH1 0x1 DUP2 SWAP1 SSTORE POP JUMP JUMPDEST PUSH1 0x1 DUP1 DUP2 SWAP1 SSTORE POP JUMP JUMPDEST PUSH2 0x6B6 PUSH2 0x7F6 JUMP JUMPDEST PUSH20 0xFFFFFFFFFFFFFFFFFFFFFFFFFFFFFFFFFFFFFFFF AND PUSH2 0x6D4 PUSH2 0x509 JUMP JUMPDEST PUSH20 0xFFFFFFFFFFFFFFFFFFFFFFFFFFFFFFFFFFFFFFFF AND EQ PUSH2 0x733 JUMPI PUSH2 0x6F7 PUSH2 0x7F6 JUMP JUMPDEST PUSH1 0x40 MLOAD PUSH32 0x118CDAA700000000000000000000000000000000000000000000000000000000 DUP2 MSTORE PUSH1 0x4 ADD PUSH2 0x72A SWAP2 SWAP1 PUSH2 0x915 JUMP JUMPDEST PUSH1 0x40 MLOAD DUP1 SWAP2 SUB SWAP1 REVERT JUMPDEST JUMP JUMPDEST PUSH0 DUP1 PUSH0 SWAP1 SLOAD SWAP1 PUSH2 0x100 EXP SWAP1 DIV PUSH20 0xFFFFFFFFFFFFFFFFFFFFFFFFFFFFFFFFFFFFFFFF AND SWAP1 POP DUP2 PUSH0 DUP1 PUSH2 0x100 EXP DUP2 SLOAD DUP2 PUSH20 0xFFFFFFFFFFFFFFFFFFFFFFFFFFFFFFFFFFFFFFFF MUL NOT AND SWAP1 DUP4 PUSH20 0xFFFFFFFFFFFFFFFFFFFFFFFFFFFFFFFFFFFFFFFF AND MUL OR SWAP1 SSTORE POP DUP2 PUSH20 0xFFFFFFFFFFFFFFFFFFFFFFFFFFFFFFFFFFFFFFFF AND DUP2 PUSH20 0xFFFFFFFFFFFFFFFFFFFFFFFFFFFFFFFFFFFFFFFF AND PUSH32 0x8BE0079C531659141344CD1FD0A4F28419497F9722A3DAAFE3B4186F6B6457E0 PUSH1 0x40 MLOAD PUSH1 0x40 MLOAD DUP1 SWAP2 SUB SWAP1 LOG3 POP POP JUMP JUMPDEST PUSH0 CALLER SWAP1 POP SWAP1 JUMP JUMPDEST PUSH0 DUP1 REVERT JUMPDEST PUSH0 PUSH20 0xFFFFFFFFFFFFFFFFFFFFFFFFFFFFFFFFFFFFFFFF DUP3 AND SWAP1 POP SWAP2 SWAP1 POP JUMP JUMPDEST PUSH0 PUSH2 0x82A DUP3 PUSH2 0x801 JUMP JUMPDEST SWAP1 POP SWAP2 SWAP1 POP JUMP JUMPDEST PUSH2 0x83A DUP2 PUSH2 0x820 JUMP JUMPDEST DUP2 EQ PUSH2 0x844 JUMPI PUSH0 DUP1 REVERT JUMPDEST POP JUMP JUMPDEST PUSH0 DUP2 CALLDATALOAD SWAP1 POP PUSH2 0x855 DUP2 PUSH2 0x831 JUMP JUMPDEST SWAP3 SWAP2 POP POP JUMP JUMPDEST PUSH0 DUP2 SWAP1 POP SWAP2 SWAP1 POP JUMP JUMPDEST PUSH2 0x86D DUP2 PUSH2 0x85B JUMP JUMPDEST DUP2 EQ PUSH2 0x877 JUMPI PUSH0 DUP1 REVERT JUMPDEST POP JUMP JUMPDEST PUSH0 DUP2 CALLDATALOAD SWAP1 POP PUSH2 0x888 DUP2 PUSH2 0x864 JUMP JUMPDEST SWAP3 SWAP2 POP POP JUMP JUMPDEST PUSH0 DUP1 PUSH0 PUSH1 0x60 DUP5 DUP7 SUB SLT ISZERO PUSH2 0x8A5 JUMPI PUSH2 0x8A4 PUSH2 0x7FD JUMP JUMPDEST JUMPDEST PUSH0 PUSH2 0x8B2 DUP7 DUP3 DUP8 ADD PUSH2 0x847 JUMP JUMPDEST SWAP4 POP POP PUSH1 0x20 PUSH2 0x8C3 DUP7 DUP3 DUP8 ADD PUSH2 0x87A JUMP JUMPDEST SWAP3 POP POP PUSH1 0x40 PUSH2 0x8D4 DUP7 DUP3 DUP8 ADD PUSH2 0x87A JUMP JUMPDEST SWAP2 POP POP SWAP3 POP SWAP3 POP SWAP3 JUMP JUMPDEST PUSH2 0x8E7 DUP2 PUSH2 0x85B JUMP JUMPDEST DUP3 MSTORE POP POP JUMP JUMPDEST PUSH0 PUSH1 0x20 DUP3 ADD SWAP1 POP PUSH2 0x900 PUSH0 DUP4 ADD DUP5 PUSH2 0x8DE JUMP JUMPDEST SWAP3 SWAP2 POP POP JUMP JUMPDEST PUSH2 0x90F DUP2 PUSH2 0x820 JUMP JUMPDEST DUP3 MSTORE POP POP JUMP JUMPDEST PUSH0 PUSH1 0x20 DUP3 ADD SWAP1 POP PUSH2 0x928 PUSH0 DUP4 ADD DUP5 PUSH2 0x906 JUMP JUMPDEST SWAP3 SWAP2 POP POP JUMP JUMPDEST PUSH0 PUSH1 0x20 DUP3 DUP5 SUB SLT ISZERO PUSH2 0x943 JUMPI PUSH2 0x942 PUSH2 0x7FD JUMP JUMPDEST JUMPDEST PUSH0 PUSH2 0x950 DUP5 DUP3 DUP6 ADD PUSH2 0x87A JUMP JUMPDEST SWAP2 POP POP SWAP3 SWAP2 POP POP JUMP JUMPDEST PUSH0 DUP2 ISZERO ISZERO SWAP1 POP SWAP2 SWAP1 POP JUMP JUMPDEST PUSH2 0x96D DUP2 PUSH2 0x959 JUMP JUMPDEST DUP3 MSTORE POP POP JUMP JUMPDEST PUSH0 PUSH1 0xA0 DUP3 ADD SWAP1 POP PUSH2 0x986 PUSH0 DUP4 ADD DUP9 PUSH2 0x906 JUMP JUMPDEST PUSH2 0x993 PUSH1 0x20 DUP4 ADD DUP8 PUSH2 0x8DE JUMP JUMPDEST PUSH2 0x9A0 PUSH1 0x40 DUP4 ADD DUP7 PUSH2 0x8DE JUMP JUMPDEST PUSH2 0x9AD PUSH1 0x60 DUP4 ADD DUP6 PUSH2 0x906 JUMP JUMPDEST PUSH2 0x9BA PUSH1 0x80 DUP4 ADD DUP5 PUSH2 0x964 JUMP JUMPDEST SWAP7 SWAP6 POP POP POP POP POP POP JUMP JUMPDEST PUSH0 PUSH1 0x20 DUP3 DUP5 SUB SLT ISZERO PUSH2 0x9D9 JUMPI PUSH2 0x9D8 PUSH2 0x7FD JUMP JUMPDEST JUMPDEST PUSH0 PUSH2 0x9E6 DUP5 DUP3 DUP6 ADD PUSH2 0x847 JUMP JUMPDEST SWAP2 POP POP SWAP3 SWAP2 POP POP JUMP JUMPDEST PUSH0 DUP3 DUP3 MSTORE PUSH1 0x20 DUP3 ADD SWAP1 POP SWAP3 SWAP2 POP POP JUMP JUMPDEST PUSH32 0x496E76616C696420746F6B656E20616464726573730000000000000000000000 PUSH0 DUP3 ADD MSTORE POP JUMP JUMPDEST PUSH0 PUSH2 0xA33 PUSH1 0x15 DUP4 PUSH2 0x9EF JUMP JUMPDEST SWAP2 POP PUSH2 0xA3E DUP3 PUSH2 0x9FF JUMP JUMPDEST PUSH1 0x20 DUP3 ADD SWAP1 POP SWAP2 SWAP1 POP JUMP JUMPDEST PUSH0 PUSH1 0x20 DUP3 ADD SWAP1 POP DUP2 DUP2 SUB PUSH0 DUP4 ADD MSTORE PUSH2 0xA60 DUP2 PUSH2 0xA27 JUMP JUMPDEST SWAP1 POP SWAP2 SWAP1 POP JUMP JUMPDEST PUSH32 0x416D6F756E74206D7573742062652067726561746572207468616E2030000000 PUSH0 DUP3 ADD MSTORE POP JUMP JUMPDEST PUSH0 PUSH2 0xA9B PUSH1 0x1D DUP4 PUSH2 0x9EF JUMP JUMPDEST SWAP2 POP PUSH2 0xAA6 DUP3 PUSH2 0xA67 JUMP JUMPDEST PUSH1 0x20 DUP3 ADD SWAP1 POP SWAP2 SWAP1 POP JUMP JUMPDEST PUSH0 PUSH1 0x20 DUP3 ADD SWAP1 POP DUP2 DUP2 SUB PUSH0 DUP4 ADD MSTORE PUSH2 0xAC8 DUP2 PUSH2 0xA8F JUMP JUMPDEST SWAP1 POP SWAP2 SWAP1 POP JUMP JUMPDEST PUSH32 0x5072696365206D7573742062652067726561746572207468616E203000000000 PUSH0 DUP3 ADD MSTORE POP JUMP JUMPDEST PUSH0 PUSH2 0xB03 PUSH1 0x1C DUP4 PUSH2 0x9EF JUMP JUMPDEST SWAP2 POP PUSH2 0xB0E DUP3 PUSH2 0xACF JUMP JUMPDEST PUSH1 0x20 DUP3 ADD SWAP1 POP SWAP2 SWAP1 POP JUMP JUMPDEST PUSH0 PUSH1 0x20 DUP3 ADD SWAP1 POP DUP2 DUP2 SUB PUSH0 DUP4 ADD MSTORE PUSH2 0xB30 DUP2 PUSH2 0xAF7 JUMP JUMPDEST SWAP1 POP SWAP2 SWAP1 POP JUMP JUMPDEST PUSH0 PUSH1 0x60 DUP3 ADD SWAP1 POP PUSH2 0xB4A PUSH0 DUP4 ADD DUP7 PUSH2 0x906 JUMP JUMPDEST PUSH2 0xB57 PUSH1 0x20 DUP4 ADD DUP6 PUSH2 0x906 JUMP JUMPDEST PUSH2 0xB64 PUSH1 0x40 DUP4 ADD DUP5 PUSH2 0x8DE JUMP JUMPDEST SWAP5 SWAP4 POP POP POP POP JUMP JUMPDEST PUSH2 0xB75 DUP2 PUSH2 0x959 JUMP JUMPDEST DUP2 EQ PUSH2 0xB7F JUMPI PUSH0 DUP1 REVERT JUMPDEST POP JUMP JUMPDEST PUSH0 DUP2 MLOAD SWAP1 POP PUSH2 0xB90 DUP2 PUSH2 0xB6C JUMP JUMPDEST SWAP3 SWAP2 POP POP JUMP JUMPDEST PUSH0 PUSH1 0x20 DUP3 DUP5 SUB SLT ISZERO PUSH2 0xBAB JUMPI PUSH2 0xBAA PUSH2 0x7FD JUMP JUMPDEST JUMPDEST PUSH0 PUSH2 0xBB8 DUP5 DUP3 DUP6 ADD PUSH2 0xB82 JUMP JUMPDEST SWAP2 POP POP SWAP3 SWAP2 POP POP JUMP JUMPDEST PUSH32 0x546F6B656E207472616E73666572206661696C65640000000000000000000000 PUSH0 DUP3 ADD MSTORE POP JUMP JUMPDEST PUSH0 PUSH2 0xBF5 PUSH1 0x15 DUP4 PUSH2 0x9EF JUMP JUMPDEST SWAP2 POP PUSH2 0xC00 DUP3 PUSH2 0xBC1 JUMP JUMPDEST PUSH1 0x20 DUP3 ADD SWAP1 POP SWAP2 SWAP1 POP JUMP JUMPDEST PUSH0 PUSH1 0x20 DUP3 ADD SWAP1 POP DUP2 DUP2 SUB PUSH0 DUP4 ADD MSTORE PUSH2 0xC22 DUP2 PUSH2 0xBE9 JUMP JUMPDEST SWAP1 POP SWAP2 SWAP1 POP JUMP JUMPDEST PUSH32 0x4E487B7100000000000000000000000000000000000000000000000000000000 PUSH0 MSTORE PUSH1 0x11 PUSH1 0x4 MSTORE PUSH1 0x24 PUSH0 REVERT JUMPDEST PUSH0 PUSH2 0xC60 DUP3 PUSH2 0x85B JUMP JUMPDEST SWAP2 POP PUSH32 0xFFFFFFFFFFFFFFFFFFFFFFFFFFFFFFFFFFFFFFFFFFFFFFFFFFFFFFFFFFFFFFFF DUP3 SUB PUSH2 0xC92 JUMPI PUSH2 0xC91 PUSH2 0xC29 JUMP JUMPDEST JUMPDEST PUSH1 0x1 DUP3 ADD SWAP1 POP SWAP2 SWAP1 POP JUMP JUMPDEST PUSH0 PUSH1 0x40 DUP3 ADD SWAP1 POP PUSH2 0xCB0 PUSH0 DUP4 ADD DUP6 PUSH2 0x8DE JUMP JUMPDEST PUSH2 0xCBD PUSH1 0x20 DUP4 ADD DUP5 PUSH2 0x8DE JUMP JUMPDEST SWAP4 SWAP3 POP POP POP JUMP JUMPDEST PUSH32 0x5265656E7472616E637947756172643A207265656E7472616E742063616C6C00 PUSH0 DUP3 ADD MSTORE POP JUMP JUMPDEST PUSH0 PUSH2 0xCF8 PUSH1 0x1F DUP4 PUSH2 0x9EF JUMP JUMPDEST SWAP2 POP PUSH2 0xD03 DUP3 PUSH2 0xCC4 JUMP JUMPDEST PUSH1 0x20 DUP3 ADD SWAP1 POP SWAP2 SWAP1 POP JUMP JUMPDEST PUSH0 PUSH1 0x20 DUP3 ADD SWAP1 POP DUP2 DUP2 SUB PUSH0 DUP4 ADD MSTORE PUSH2 0xD25 DUP2 PUSH2 0xCEC JUMP JUMPDEST SWAP1 POP SWAP2 SWAP1 POP JUMP INVALID LOG2 PUSH5 0x6970667358 0x22 SLT KECCAK256 MULMOD DUP7 0xD7 DUP10 MUL COINBASE 0xD9 0xAC CALLCODE PUSH2 0x7248 SWAP3 0xA9 0x2E CREATE2 MSIZE 0xCB PUSH30 0x3D83993C66352160BA9C0D7DE464736F6C634300081A0033000000000000 "
				},
				"gasEstimates": {
					"creation": {
						"codeDepositCost": "685200",
						"executionCost": "infinite",
						"totalCost": "infinite"
					},
					"external": {
						"ListToken(address,uint256,uint256)": "infinite",
						"feeCollector()": "2530",
						"feePercent()": "2492",
						"listings(uint256)": "infinite",
						"nextListingsId()": "2448",
						"owner()": "2515",
						"renounceOwnership()": "infinite",
						"transferOwnership(address)": "infinite"
					}
				},
				"methodIdentifiers": {
					"ListToken(address,uint256,uint256)": "1f6182c4",
					"feeCollector()": "c415b95c",
					"feePercent()": "7fd6f15c",
					"listings(uint256)": "de74e57b",
					"nextListingsId()": "69b3a705",
					"owner()": "8da5cb5b",
					"renounceOwnership()": "715018a6",
					"transferOwnership(address)": "f2fde38b"
				}
			},
			"storageLayout": {
				"storage": [
					{
						"astId": 8,
						"contract": "contracts/tokenMarketPlace.sol:TokenMarketPlacen",
						"label": "_owner",
						"offset": 0,
						"slot": "0",
						"type": "t_address"
					},
					{
						"astId": 158,
						"contract": "contracts/tokenMarketPlace.sol:TokenMarketPlacen",
						"label": "_status",
						"offset": 0,
						"slot": "1",
						"type": "t_uint256"
					},
					{
						"astId": 331,
						"contract": "contracts/tokenMarketPlace.sol:TokenMarketPlacen",
						"label": "feePercent",
						"offset": 0,
						"slot": "2",
						"type": "t_uint256"
					},
					{
						"astId": 333,
						"contract": "contracts/tokenMarketPlace.sol:TokenMarketPlacen",
						"label": "feeCollector",
						"offset": 0,
						"slot": "3",
						"type": "t_address"
					},
					{
						"astId": 349,
						"contract": "contracts/tokenMarketPlace.sol:TokenMarketPlacen",
						"label": "listings",
						"offset": 0,
						"slot": "4",
						"type": "t_mapping(t_uint256,t_struct(Listing)344_storage)"
					},
					{
						"astId": 352,
						"contract": "contracts/tokenMarketPlace.sol:TokenMarketPlacen",
						"label": "nextListingsId",
						"offset": 0,
						"slot": "5",
						"type": "t_uint256"
					}
				],
				"types": {
					"t_address": {
						"encoding": "inplace",
						"label": "address",
						"numberOfBytes": "20"
					},
					"t_bool": {
						"encoding": "inplace",
						"label": "bool",
						"numberOfBytes": "1"
					},
					"t_mapping(t_uint256,t_struct(Listing)344_storage)": {
						"encoding": "mapping",
						"key": "t_uint256",
						"label": "mapping(uint256 => struct TokenMarketPlacen.Listing)",
						"numberOfBytes": "32",
						"value": "t_struct(Listing)344_storage"
					},
					"t_struct(Listing)344_storage": {
						"encoding": "inplace",
						"label": "struct TokenMarketPlacen.Listing",
						"members": [
							{
								"astId": 335,
								"contract": "contracts/tokenMarketPlace.sol:TokenMarketPlacen",
								"label": "seller",
								"offset": 0,
								"slot": "0",
								"type": "t_address"
							},
							{
								"astId": 337,
								"contract": "contracts/tokenMarketPlace.sol:TokenMarketPlacen",
								"label": "pricePerToken",
								"offset": 0,
								"slot": "1",
								"type": "t_uint256"
							},
							{
								"astId": 339,
								"contract": "contracts/tokenMarketPlace.sol:TokenMarketPlacen",
								"label": "amount",
								"offset": 0,
								"slot": "2",
								"type": "t_uint256"
							},
							{
								"astId": 341,
								"contract": "contracts/tokenMarketPlace.sol:TokenMarketPlacen",
								"label": "tokenAddress",
								"offset": 0,
								"slot": "3",
								"type": "t_address"
							},
							{
								"astId": 343,
								"contract": "contracts/tokenMarketPlace.sol:TokenMarketPlacen",
								"label": "active",
								"offset": 20,
								"slot": "3",
								"type": "t_bool"
							}
						],
						"numberOfBytes": "128"
					},
					"t_uint256": {
						"encoding": "inplace",
						"label": "uint256",
						"numberOfBytes": "32"
					}
				}
			},
			"userdoc": {
				"kind": "user",
				"methods": {},
				"version": 1
			}
		}
	}
}