{
	"contracts/votingContract.sol": {
		"GasEfficientVoting": {
			"abi": [
				{
					"anonymous": false,
					"inputs": [
						{
							"indexed": true,
							"internalType": "uint8",
							"name": "proposedId",
							"type": "uint8"
						},
						{
							"indexed": false,
							"internalType": "bytes32",
							"name": "name",
							"type": "bytes32"
						}
					],
					"name": "ProposalCreated",
					"type": "event"
				},
				{
					"anonymous": false,
					"inputs": [
						{
							"indexed": true,
							"internalType": "uint8",
							"name": "proposalId",
							"type": "uint8"
						},
						{
							"indexed": true,
							"internalType": "uint8",
							"name": "currentTime",
							"type": "uint8"
						}
					],
					"name": "ProposalExecuted",
					"type": "event"
				},
				{
					"anonymous": false,
					"inputs": [
						{
							"indexed": true,
							"internalType": "address",
							"name": "voter",
							"type": "address"
						},
						{
							"indexed": true,
							"internalType": "uint8",
							"name": "proposedId",
							"type": "uint8"
						}
					],
					"name": "Voted",
					"type": "event"
				},
				{
					"inputs": [],
					"name": "ProposalCount",
					"outputs": [
						{
							"internalType": "uint8",
							"name": "",
							"type": "uint8"
						}
					],
					"stateMutability": "view",
					"type": "function"
				},
				{
					"inputs": [
						{
							"internalType": "bytes32",
							"name": "name",
							"type": "bytes32"
						},
						{
							"internalType": "uint32",
							"name": "duration",
							"type": "uint32"
						}
					],
					"name": "createProposal",
					"outputs": [],
					"stateMutability": "nonpayable",
					"type": "function"
				},
				{
					"inputs": [
						{
							"internalType": "string",
							"name": "name",
							"type": "string"
						},
						{
							"internalType": "uint32",
							"name": "duration",
							"type": "uint32"
						}
					],
					"name": "createProposalWithString",
					"outputs": [],
					"stateMutability": "nonpayable",
					"type": "function"
				},
				{
					"inputs": [
						{
							"internalType": "uint8",
							"name": "proposalId",
							"type": "uint8"
						},
						{
							"internalType": "uint8",
							"name": "currentTime",
							"type": "uint8"
						}
					],
					"name": "executeProposal",
					"outputs": [],
					"stateMutability": "nonpayable",
					"type": "function"
				},
				{
					"inputs": [
						{
							"internalType": "uint8",
							"name": "proposalId",
							"type": "uint8"
						}
					],
					"name": "getProposal",
					"outputs": [
						{
							"internalType": "bytes32",
							"name": "name",
							"type": "bytes32"
						},
						{
							"internalType": "uint32",
							"name": "voteCount",
							"type": "uint32"
						},
						{
							"internalType": "uint32",
							"name": "startTime",
							"type": "uint32"
						},
						{
							"internalType": "uint32",
							"name": "endTime",
							"type": "uint32"
						},
						{
							"internalType": "bool",
							"name": "executed",
							"type": "bool"
						},
						{
							"internalType": "bool",
							"name": "active",
							"type": "bool"
						}
					],
					"stateMutability": "view",
					"type": "function"
				},
				{
					"inputs": [
						{
							"internalType": "address",
							"name": "voter",
							"type": "address"
						},
						{
							"internalType": "uint8",
							"name": "proposalId",
							"type": "uint8"
						}
					],
					"name": "hasVoted",
					"outputs": [
						{
							"internalType": "bool",
							"name": "",
							"type": "bool"
						}
					],
					"stateMutability": "view",
					"type": "function"
				},
				{
					"inputs": [
						{
							"internalType": "uint8",
							"name": "",
							"type": "uint8"
						}
					],
					"name": "proposalVoterCount",
					"outputs": [
						{
							"internalType": "uint32",
							"name": "",
							"type": "uint32"
						}
					],
					"stateMutability": "view",
					"type": "function"
				},
				{
					"inputs": [
						{
							"internalType": "uint8",
							"name": "",
							"type": "uint8"
						}
					],
					"name": "proposals",
					"outputs": [
						{
							"internalType": "bytes32",
							"name": "name",
							"type": "bytes32"
						},
						{
							"internalType": "uint32",
							"name": "voteCount",
							"type": "uint32"
						},
						{
							"internalType": "uint32",
							"name": "startTime",
							"type": "uint32"
						},
						{
							"internalType": "uint32",
							"name": "endTime",
							"type": "uint32"
						},
						{
							"internalType": "bool",
							"name": "executed",
							"type": "bool"
						}
					],
					"stateMutability": "view",
					"type": "function"
				},
				{
					"inputs": [
						{
							"internalType": "string",
							"name": "source",
							"type": "string"
						}
					],
					"name": "stringToBytes32",
					"outputs": [
						{
							"internalType": "bytes32",
							"name": "result",
							"type": "bytes32"
						}
					],
					"stateMutability": "pure",
					"type": "function"
				},
				{
					"inputs": [
						{
							"internalType": "uint8",
							"name": "proposalId",
							"type": "uint8"
						}
					],
					"name": "vote",
					"outputs": [],
					"stateMutability": "nonpayable",
					"type": "function"
				}
			],
			"devdoc": {
				"kind": "dev",
				"methods": {},
				"version": 1
			},
			"evm": {
				"assembly": "    /* \"contracts/votingContract.sol\":61:3911  contract GasEfficientVoting {... */\n  mstore(0x40, 0x80)\n  callvalue\n  dup1\n  iszero\n  tag_1\n  jumpi\n  0x00\n  dup1\n  revert\ntag_1:\n  pop\n  dataSize(sub_0)\n  dup1\n  dataOffset(sub_0)\n  0x00\n  codecopy\n  0x00\n  return\nstop\n\nsub_0: assembly {\n        /* \"contracts/votingContract.sol\":61:3911  contract GasEfficientVoting {... */\n      mstore(0x40, 0x80)\n      callvalue\n      dup1\n      iszero\n      tag_1\n      jumpi\n      0x00\n      dup1\n      revert\n    tag_1:\n      pop\n      jumpi(tag_2, lt(calldatasize, 0x04))\n      shr(0xe0, calldataload(0x00))\n      dup1\n      0xb3f98adc\n      gt\n      tag_13\n      jumpi\n      dup1\n      0xb3f98adc\n      eq\n      tag_8\n      jumpi\n      dup1\n      0xbe747c1c\n      eq\n      tag_9\n      jumpi\n      dup1\n      0xcfb51928\n      eq\n      tag_10\n      jumpi\n      dup1\n      0xd3c6a0f2\n      eq\n      tag_11\n      jumpi\n      dup1\n      0xdac001fe\n      eq\n      tag_12\n      jumpi\n      jump(tag_2)\n    tag_13:\n      dup1\n      0x2c7a5907\n      eq\n      tag_3\n      jumpi\n      dup1\n      0x59aef53c\n      eq\n      tag_4\n      jumpi\n      dup1\n      0x64552c4c\n      eq\n      tag_5\n      jumpi\n      dup1\n      0x6760b1c0\n      eq\n      tag_6\n      jumpi\n      dup1\n      0x84acf0f5\n      eq\n      tag_7\n      jumpi\n    tag_2:\n      0x00\n      dup1\n      revert\n        /* \"contracts/votingContract.sol\":2679:3105  function executeProposal(uint8 proposalId, uint8 currentTime) external {... */\n    tag_3:\n      tag_14\n      0x04\n      dup1\n      calldatasize\n      sub\n      dup2\n      add\n      swap1\n      tag_15\n      swap2\n      swap1\n      tag_16\n      jump\t// in\n    tag_15:\n      tag_17\n      jump\t// in\n    tag_14:\n      stop\n        /* \"contracts/votingContract.sol\":1131:1689  function createProposal(bytes32 name, uint32 duration) public {... */\n    tag_4:\n      tag_18\n      0x04\n      dup1\n      calldatasize\n      sub\n      dup2\n      add\n      swap1\n      tag_19\n      swap2\n      swap1\n      tag_20\n      jump\t// in\n    tag_19:\n      tag_21\n      jump\t// in\n    tag_18:\n      stop\n        /* \"contracts/votingContract.sol\":1761:1947  function createProposalWithString(string memory name, uint32 duration) external {... */\n    tag_5:\n      tag_22\n      0x04\n      dup1\n      calldatasize\n      sub\n      dup2\n      add\n      swap1\n      tag_23\n      swap2\n      swap1\n      tag_24\n      jump\t// in\n    tag_23:\n      tag_25\n      jump\t// in\n    tag_22:\n      stop\n        /* \"contracts/votingContract.sol\":395:445  mapping(uint8 => uint32) public proposalVoterCount */\n    tag_6:\n      tag_26\n      0x04\n      dup1\n      calldatasize\n      sub\n      dup2\n      add\n      swap1\n      tag_27\n      swap2\n      swap1\n      tag_28\n      jump\t// in\n    tag_27:\n      tag_29\n      jump\t// in\n    tag_26:\n      mload(0x40)\n      tag_30\n      swap2\n      swap1\n      tag_31\n      jump\t// in\n    tag_30:\n      mload(0x40)\n      dup1\n      swap2\n      sub\n      swap1\n      return\n        /* \"contracts/votingContract.sol\":289:332  mapping(uint8 => Proposal) public proposals */\n    tag_7:\n      tag_32\n      0x04\n      dup1\n      calldatasize\n      sub\n      dup2\n      add\n      swap1\n      tag_33\n      swap2\n      swap1\n      tag_28\n      jump\t// in\n    tag_33:\n      tag_34\n      jump\t// in\n    tag_32:\n      mload(0x40)\n      tag_35\n      swap6\n      swap5\n      swap4\n      swap3\n      swap2\n      swap1\n      tag_36\n      jump\t// in\n    tag_35:\n      mload(0x40)\n      dup1\n      swap2\n      sub\n      swap1\n      return\n        /* \"contracts/votingContract.sol\":1955:2671  function vote(uint8 proposalId) external {... */\n    tag_8:\n      tag_37\n      0x04\n      dup1\n      calldatasize\n      sub\n      dup2\n      add\n      swap1\n      tag_38\n      swap2\n      swap1\n      tag_28\n      jump\t// in\n    tag_38:\n      tag_39\n      jump\t// in\n    tag_37:\n      stop\n        /* \"contracts/votingContract.sol\":96:122  uint8 public ProposalCount */\n    tag_9:\n      tag_40\n      tag_41\n      jump\t// in\n    tag_40:\n      mload(0x40)\n      tag_42\n      swap2\n      swap1\n      tag_43\n      jump\t// in\n    tag_42:\n      mload(0x40)\n      dup1\n      swap2\n      sub\n      swap1\n      return\n        /* \"contracts/votingContract.sol\":719:1076  function stringToBytes32(string memory source) public pure returns (bytes32 result) {... */\n    tag_10:\n      tag_44\n      0x04\n      dup1\n      calldatasize\n      sub\n      dup2\n      add\n      swap1\n      tag_45\n      swap2\n      swap1\n      tag_46\n      jump\t// in\n    tag_45:\n      tag_47\n      jump\t// in\n    tag_44:\n      mload(0x40)\n      tag_48\n      swap2\n      swap1\n      tag_49\n      jump\t// in\n    tag_48:\n      mload(0x40)\n      dup1\n      swap2\n      sub\n      swap1\n      return\n        /* \"contracts/votingContract.sol\":3113:3266  function hasVoted(address voter, uint8 proposalId) external view returns (bool) {... */\n    tag_11:\n      tag_50\n      0x04\n      dup1\n      calldatasize\n      sub\n      dup2\n      add\n      swap1\n      tag_51\n      swap2\n      swap1\n      tag_52\n      jump\t// in\n    tag_51:\n      tag_53\n      jump\t// in\n    tag_50:\n      mload(0x40)\n      tag_54\n      swap2\n      swap1\n      tag_55\n      jump\t// in\n    tag_54:\n      mload(0x40)\n      dup1\n      swap2\n      sub\n      swap1\n      return\n        /* \"contracts/votingContract.sol\":3274:3908  function getProposal(uint8 proposalId) external view returns (... */\n    tag_12:\n      tag_56\n      0x04\n      dup1\n      calldatasize\n      sub\n      dup2\n      add\n      swap1\n      tag_57\n      swap2\n      swap1\n      tag_28\n      jump\t// in\n    tag_57:\n      tag_58\n      jump\t// in\n    tag_56:\n      mload(0x40)\n      tag_59\n      swap7\n      swap6\n      swap5\n      swap4\n      swap3\n      swap2\n      swap1\n      tag_60\n      jump\t// in\n    tag_59:\n      mload(0x40)\n      dup1\n      swap2\n      sub\n      swap1\n      return\n        /* \"contracts/votingContract.sol\":2679:3105  function executeProposal(uint8 proposalId, uint8 currentTime) external {... */\n    tag_17:\n        /* \"contracts/votingContract.sol\":2782:2795  ProposalCount */\n      0x00\n      dup1\n      sload\n      swap1\n      0x0100\n      exp\n      swap1\n      div\n      0xff\n      and\n        /* \"contracts/votingContract.sol\":2769:2795  proposalId < ProposalCount */\n      0xff\n      and\n        /* \"contracts/votingContract.sol\":2769:2779  proposalId */\n      dup3\n        /* \"contracts/votingContract.sol\":2769:2795  proposalId < ProposalCount */\n      0xff\n      and\n      lt\n        /* \"contracts/votingContract.sol\":2761:2816  require(proposalId < ProposalCount, \"Invalid proposal\") */\n      tag_62\n      jumpi\n      mload(0x40)\n      0x08c379a000000000000000000000000000000000000000000000000000000000\n      dup2\n      mstore\n      0x04\n      add\n      tag_63\n      swap1\n      tag_64\n      jump\t// in\n    tag_63:\n      mload(0x40)\n      dup1\n      swap2\n      sub\n      swap1\n      revert\n    tag_62:\n        /* \"contracts/votingContract.sol\":2853:2862  proposals */\n      0x01\n        /* \"contracts/votingContract.sol\":2853:2874  proposals[proposalId] */\n      0x00\n        /* \"contracts/votingContract.sol\":2863:2873  proposalId */\n      dup4\n        /* \"contracts/votingContract.sol\":2853:2874  proposals[proposalId] */\n      0xff\n      and\n      0xff\n      and\n      dup2\n      mstore\n      0x20\n      add\n      swap1\n      dup2\n      mstore\n      0x20\n      add\n      0x00\n      keccak256\n        /* \"contracts/votingContract.sol\":2853:2882  proposals[proposalId].endTime */\n      0x01\n      add\n      0x08\n      swap1\n      sload\n      swap1\n      0x0100\n      exp\n      swap1\n      div\n      0xffffffff\n      and\n        /* \"contracts/votingContract.sol\":2835:2882  block.timestamp > proposals[proposalId].endTime */\n      0xffffffff\n      and\n        /* \"contracts/votingContract.sol\":2835:2850  block.timestamp */\n      timestamp\n        /* \"contracts/votingContract.sol\":2835:2882  block.timestamp > proposals[proposalId].endTime */\n      gt\n        /* \"contracts/votingContract.sol\":2827:2910  require(block.timestamp > proposals[proposalId].endTime, \"Voting is still ongoing\") */\n      tag_65\n      jumpi\n      mload(0x40)\n      0x08c379a000000000000000000000000000000000000000000000000000000000\n      dup2\n      mstore\n      0x04\n      add\n      tag_66\n      swap1\n      tag_67\n      jump\t// in\n    tag_66:\n      mload(0x40)\n      dup1\n      swap2\n      sub\n      swap1\n      revert\n    tag_65:\n        /* \"contracts/votingContract.sol\":2930:2939  proposals */\n      0x01\n        /* \"contracts/votingContract.sol\":2930:2951  proposals[proposalId] */\n      0x00\n        /* \"contracts/votingContract.sol\":2940:2950  proposalId */\n      dup4\n        /* \"contracts/votingContract.sol\":2930:2951  proposals[proposalId] */\n      0xff\n      and\n      0xff\n      and\n      dup2\n      mstore\n      0x20\n      add\n      swap1\n      dup2\n      mstore\n      0x20\n      add\n      0x00\n      keccak256\n        /* \"contracts/votingContract.sol\":2930:2960  proposals[proposalId].executed */\n      0x01\n      add\n      0x0c\n      swap1\n      sload\n      swap1\n      0x0100\n      exp\n      swap1\n      div\n      0xff\n      and\n        /* \"contracts/votingContract.sol\":2929:2960  !proposals[proposalId].executed */\n      iszero\n        /* \"contracts/votingContract.sol\":2921:2990  require(!proposals[proposalId].executed, \"Proposal already executed\") */\n      tag_68\n      jumpi\n      mload(0x40)\n      0x08c379a000000000000000000000000000000000000000000000000000000000\n      dup2\n      mstore\n      0x04\n      add\n      tag_69\n      swap1\n      tag_70\n      jump\t// in\n    tag_69:\n      mload(0x40)\n      dup1\n      swap2\n      sub\n      swap1\n      revert\n    tag_68:\n        /* \"contracts/votingContract.sol\":3036:3040  true */\n      0x01\n        /* \"contracts/votingContract.sol\":3003:3012  proposals */\n      dup1\n        /* \"contracts/votingContract.sol\":3003:3024  proposals[proposalId] */\n      0x00\n        /* \"contracts/votingContract.sol\":3013:3023  proposalId */\n      dup5\n        /* \"contracts/votingContract.sol\":3003:3024  proposals[proposalId] */\n      0xff\n      and\n      0xff\n      and\n      dup2\n      mstore\n      0x20\n      add\n      swap1\n      dup2\n      mstore\n      0x20\n      add\n      0x00\n      keccak256\n        /* \"contracts/votingContract.sol\":3003:3033  proposals[proposalId].executed */\n      0x01\n      add\n      0x0c\n        /* \"contracts/votingContract.sol\":3003:3040  proposals[proposalId].executed = true */\n      0x0100\n      exp\n      dup2\n      sload\n      dup2\n      0xff\n      mul\n      not\n      and\n      swap1\n      dup4\n      iszero\n      iszero\n      mul\n      or\n      swap1\n      sstore\n      pop\n        /* \"contracts/votingContract.sol\":3085:3096  currentTime */\n      dup1\n        /* \"contracts/votingContract.sol\":3056:3097  ProposalExecuted(proposalId, currentTime) */\n      0xff\n      and\n        /* \"contracts/votingContract.sol\":3073:3083  proposalId */\n      dup3\n        /* \"contracts/votingContract.sol\":3056:3097  ProposalExecuted(proposalId, currentTime) */\n      0xff\n      and\n      0x634308a703fa848b5be4aebed5da7930730a68e4b657d44e45fbdb5f6196112b\n      mload(0x40)\n      mload(0x40)\n      dup1\n      swap2\n      sub\n      swap1\n      log3\n        /* \"contracts/votingContract.sol\":2679:3105  function executeProposal(uint8 proposalId, uint8 currentTime) external {... */\n      pop\n      pop\n      jump\t// out\n        /* \"contracts/votingContract.sol\":1131:1689  function createProposal(bytes32 name, uint32 duration) public {... */\n    tag_21:\n        /* \"contracts/votingContract.sol\":1223:1224  0 */\n      0x00\n        /* \"contracts/votingContract.sol\":1212:1220  duration */\n      dup2\n        /* \"contracts/votingContract.sol\":1212:1224  duration > 0 */\n      0xffffffff\n      and\n      gt\n        /* \"contracts/votingContract.sol\":1204:1260  require(duration > 0, \"Duration must be greater than 0\") */\n      tag_72\n      jumpi\n      mload(0x40)\n      0x08c379a000000000000000000000000000000000000000000000000000000000\n      dup2\n      mstore\n      0x04\n      add\n      tag_73\n      swap1\n      tag_74\n      jump\t// in\n    tag_73:\n      mload(0x40)\n      dup1\n      swap2\n      sub\n      swap1\n      revert\n    tag_72:\n        /* \"contracts/votingContract.sol\":1273:1289  uint8 proposalId */\n      0x00\n        /* \"contracts/votingContract.sol\":1292:1305  ProposalCount */\n      dup1\n      0x00\n      swap1\n      sload\n      swap1\n      0x0100\n      exp\n      swap1\n      div\n      0xff\n      and\n        /* \"contracts/votingContract.sol\":1273:1305  uint8 proposalId = ProposalCount */\n      swap1\n      pop\n        /* \"contracts/votingContract.sol\":1316:1329  ProposalCount */\n      0x00\n      dup1\n        /* \"contracts/votingContract.sol\":1316:1331  ProposalCount++ */\n      dup2\n      dup2\n      swap1\n      sload\n      swap1\n      0x0100\n      exp\n      swap1\n      div\n      0xff\n      and\n      dup1\n      swap3\n      swap2\n      swap1\n      tag_75\n      swap1\n      tag_76\n      jump\t// in\n    tag_75:\n      swap2\n      swap1\n      0x0100\n      exp\n      dup2\n      sload\n      dup2\n      0xff\n      mul\n      not\n      and\n      swap1\n      dup4\n      0xff\n      and\n      mul\n      or\n      swap1\n      sstore\n      pop\n      pop\n        /* \"contracts/votingContract.sol\":1344:1371  Proposal memory newProposal */\n      0x00\n        /* \"contracts/votingContract.sol\":1374:1584  Proposal({... */\n      mload(0x40)\n      dup1\n      0xa0\n      add\n      0x40\n      mstore\n      dup1\n        /* \"contracts/votingContract.sol\":1404:1408  name */\n      dup6\n        /* \"contracts/votingContract.sol\":1374:1584  Proposal({... */\n      dup2\n      mstore\n      0x20\n      add\n        /* \"contracts/votingContract.sol\":1434:1435  0 */\n      0x00\n        /* \"contracts/votingContract.sol\":1374:1584  Proposal({... */\n      0xffffffff\n      and\n      dup2\n      mstore\n      0x20\n      add\n        /* \"contracts/votingContract.sol\":1468:1483  block.timestamp */\n      timestamp\n        /* \"contracts/votingContract.sol\":1374:1584  Proposal({... */\n      0xffffffff\n      and\n      dup2\n      mstore\n      0x20\n      add\n        /* \"contracts/votingContract.sol\":1534:1542  duration */\n      dup5\n        /* \"contracts/votingContract.sol\":1515:1530  block.timestamp */\n      timestamp\n        /* \"contracts/votingContract.sol\":1508:1542  uint32(block.timestamp) + duration */\n      tag_77\n      swap2\n      swap1\n      tag_78\n      jump\t// in\n    tag_77:\n        /* \"contracts/votingContract.sol\":1374:1584  Proposal({... */\n      0xffffffff\n      and\n      dup2\n      mstore\n      0x20\n      add\n        /* \"contracts/votingContract.sol\":1567:1572  false */\n      0x00\n        /* \"contracts/votingContract.sol\":1374:1584  Proposal({... */\n      iszero\n      iszero\n      dup2\n      mstore\n      pop\n        /* \"contracts/votingContract.sol\":1344:1584  Proposal memory newProposal = Proposal({... */\n      swap1\n      pop\n        /* \"contracts/votingContract.sol\":1621:1632  newProposal */\n      dup1\n        /* \"contracts/votingContract.sol\":1597:1606  proposals */\n      0x01\n        /* \"contracts/votingContract.sol\":1597:1618  proposals[proposalId] */\n      0x00\n        /* \"contracts/votingContract.sol\":1607:1617  proposalId */\n      dup5\n        /* \"contracts/votingContract.sol\":1597:1618  proposals[proposalId] */\n      0xff\n      and\n      0xff\n      and\n      dup2\n      mstore\n      0x20\n      add\n      swap1\n      dup2\n      mstore\n      0x20\n      add\n      0x00\n      keccak256\n        /* \"contracts/votingContract.sol\":1597:1632  proposals[proposalId] = newProposal */\n      0x00\n      dup3\n      add\n      mload\n      dup2\n      0x00\n      add\n      sstore\n      0x20\n      dup3\n      add\n      mload\n      dup2\n      0x01\n      add\n      exp(0x0100, 0x00)\n      dup2\n      sload\n      dup2\n      0xffffffff\n      mul\n      not\n      and\n      swap1\n      dup4\n      0xffffffff\n      and\n      mul\n      or\n      swap1\n      sstore\n      pop\n      0x40\n      dup3\n      add\n      mload\n      dup2\n      0x01\n      add\n      exp(0x0100, 0x04)\n      dup2\n      sload\n      dup2\n      0xffffffff\n      mul\n      not\n      and\n      swap1\n      dup4\n      0xffffffff\n      and\n      mul\n      or\n      swap1\n      sstore\n      pop\n      0x60\n      dup3\n      add\n      mload\n      dup2\n      0x01\n      add\n      exp(0x0100, 0x08)\n      dup2\n      sload\n      dup2\n      0xffffffff\n      mul\n      not\n      and\n      swap1\n      dup4\n      0xffffffff\n      and\n      mul\n      or\n      swap1\n      sstore\n      pop\n      0x80\n      dup3\n      add\n      mload\n      dup2\n      0x01\n      add\n      exp(0x0100, 0x0c)\n      dup2\n      sload\n      dup2\n      0xff\n      mul\n      not\n      and\n      swap1\n      dup4\n      iszero\n      iszero\n      mul\n      or\n      swap1\n      sstore\n      pop\n      swap1\n      pop\n      pop\n        /* \"contracts/votingContract.sol\":1664:1674  proposalId */\n      dup2\n        /* \"contracts/votingContract.sol\":1648:1681  ProposalCreated(proposalId, name) */\n      0xff\n      and\n      0x778068a8b34cd2ab006c1c96cd8b819623539c5979eea060167a8376ab51ae26\n        /* \"contracts/votingContract.sol\":1676:1680  name */\n      dup6\n        /* \"contracts/votingContract.sol\":1648:1681  ProposalCreated(proposalId, name) */\n      mload(0x40)\n      tag_79\n      swap2\n      swap1\n      tag_49\n      jump\t// in\n    tag_79:\n      mload(0x40)\n      dup1\n      swap2\n      sub\n      swap1\n      log2\n        /* \"contracts/votingContract.sol\":1193:1689  {... */\n      pop\n      pop\n        /* \"contracts/votingContract.sol\":1131:1689  function createProposal(bytes32 name, uint32 duration) public {... */\n      pop\n      pop\n      jump\t// out\n        /* \"contracts/votingContract.sol\":1761:1947  function createProposalWithString(string memory name, uint32 duration) external {... */\n    tag_25:\n        /* \"contracts/votingContract.sol\":1852:1869  bytes32 nameBytes */\n      0x00\n        /* \"contracts/votingContract.sol\":1872:1893  stringToBytes32(name) */\n      tag_81\n        /* \"contracts/votingContract.sol\":1888:1892  name */\n      dup4\n        /* \"contracts/votingContract.sol\":1872:1887  stringToBytes32 */\n      tag_47\n        /* \"contracts/votingContract.sol\":1872:1893  stringToBytes32(name) */\n      jump\t// in\n    tag_81:\n        /* \"contracts/votingContract.sol\":1852:1893  bytes32 nameBytes = stringToBytes32(name) */\n      swap1\n      pop\n        /* \"contracts/votingContract.sol\":1904:1939  createProposal(nameBytes, duration) */\n      tag_82\n        /* \"contracts/votingContract.sol\":1919:1928  nameBytes */\n      dup2\n        /* \"contracts/votingContract.sol\":1930:1938  duration */\n      dup4\n        /* \"contracts/votingContract.sol\":1904:1918  createProposal */\n      tag_21\n        /* \"contracts/votingContract.sol\":1904:1939  createProposal(nameBytes, duration) */\n      jump\t// in\n    tag_82:\n        /* \"contracts/votingContract.sol\":1841:1947  {... */\n      pop\n        /* \"contracts/votingContract.sol\":1761:1947  function createProposalWithString(string memory name, uint32 duration) external {... */\n      pop\n      pop\n      jump\t// out\n        /* \"contracts/votingContract.sol\":395:445  mapping(uint8 => uint32) public proposalVoterCount */\n    tag_29:\n      mstore(0x20, 0x03)\n      dup1\n      0x00\n      mstore\n      keccak256(0x00, 0x40)\n      0x00\n      swap2\n      pop\n      sload\n      swap1\n      0x0100\n      exp\n      swap1\n      div\n      0xffffffff\n      and\n      dup2\n      jump\t// out\n        /* \"contracts/votingContract.sol\":289:332  mapping(uint8 => Proposal) public proposals */\n    tag_34:\n      mstore(0x20, 0x01)\n      dup1\n      0x00\n      mstore\n      keccak256(0x00, 0x40)\n      0x00\n      swap2\n      pop\n      swap1\n      pop\n      dup1\n      0x00\n      add\n      sload\n      swap1\n      dup1\n      0x01\n      add\n      0x00\n      swap1\n      sload\n      swap1\n      0x0100\n      exp\n      swap1\n      div\n      0xffffffff\n      and\n      swap1\n      dup1\n      0x01\n      add\n      0x04\n      swap1\n      sload\n      swap1\n      0x0100\n      exp\n      swap1\n      div\n      0xffffffff\n      and\n      swap1\n      dup1\n      0x01\n      add\n      0x08\n      swap1\n      sload\n      swap1\n      0x0100\n      exp\n      swap1\n      div\n      0xffffffff\n      and\n      swap1\n      dup1\n      0x01\n      add\n      0x0c\n      swap1\n      sload\n      swap1\n      0x0100\n      exp\n      swap1\n      div\n      0xff\n      and\n      swap1\n      pop\n      dup6\n      jump\t// out\n        /* \"contracts/votingContract.sol\":1955:2671  function vote(uint8 proposalId) external {... */\n    tag_39:\n        /* \"contracts/votingContract.sol\":2028:2041  ProposalCount */\n      0x00\n      dup1\n      sload\n      swap1\n      0x0100\n      exp\n      swap1\n      div\n      0xff\n      and\n        /* \"contracts/votingContract.sol\":2015:2041  proposalId < ProposalCount */\n      0xff\n      and\n        /* \"contracts/votingContract.sol\":2015:2025  proposalId */\n      dup2\n        /* \"contracts/votingContract.sol\":2015:2041  proposalId < ProposalCount */\n      0xff\n      and\n      lt\n        /* \"contracts/votingContract.sol\":2007:2062  require(proposalId < ProposalCount, \"Invalid proposal\") */\n      tag_84\n      jumpi\n      mload(0x40)\n      0x08c379a000000000000000000000000000000000000000000000000000000000\n      dup2\n      mstore\n      0x04\n      add\n      tag_85\n      swap1\n      tag_64\n      jump\t// in\n    tag_85:\n      mload(0x40)\n      dup1\n      swap2\n      sub\n      swap1\n      revert\n    tag_84:\n        /* \"contracts/votingContract.sol\":2073:2091  uint32 currentTime */\n      0x00\n        /* \"contracts/votingContract.sol\":2101:2116  block.timestamp */\n      timestamp\n        /* \"contracts/votingContract.sol\":2073:2117  uint32 currentTime = uint32(block.timestamp) */\n      swap1\n      pop\n        /* \"contracts/votingContract.sol\":2151:2160  proposals */\n      0x01\n        /* \"contracts/votingContract.sol\":2151:2172  proposals[proposalId] */\n      0x00\n        /* \"contracts/votingContract.sol\":2161:2171  proposalId */\n      dup4\n        /* \"contracts/votingContract.sol\":2151:2172  proposals[proposalId] */\n      0xff\n      and\n      0xff\n      and\n      dup2\n      mstore\n      0x20\n      add\n      swap1\n      dup2\n      mstore\n      0x20\n      add\n      0x00\n      keccak256\n        /* \"contracts/votingContract.sol\":2151:2182  proposals[proposalId].startTime */\n      0x01\n      add\n      0x04\n      swap1\n      sload\n      swap1\n      0x0100\n      exp\n      swap1\n      div\n      0xffffffff\n      and\n        /* \"contracts/votingContract.sol\":2136:2182  currentTime >= proposals[proposalId].startTime */\n      0xffffffff\n      and\n        /* \"contracts/votingContract.sol\":2136:2147  currentTime */\n      dup2\n        /* \"contracts/votingContract.sol\":2136:2182  currentTime >= proposals[proposalId].startTime */\n      0xffffffff\n      and\n      lt\n      iszero\n        /* \"contracts/votingContract.sol\":2128:2209  require(currentTime >= proposals[proposalId].startTime, \"Voting has not started\") */\n      tag_86\n      jumpi\n      mload(0x40)\n      0x08c379a000000000000000000000000000000000000000000000000000000000\n      dup2\n      mstore\n      0x04\n      add\n      tag_87\n      swap1\n      tag_88\n      jump\t// in\n    tag_87:\n      mload(0x40)\n      dup1\n      swap2\n      sub\n      swap1\n      revert\n    tag_86:\n        /* \"contracts/votingContract.sol\":2243:2252  proposals */\n      0x01\n        /* \"contracts/votingContract.sol\":2243:2264  proposals[proposalId] */\n      0x00\n        /* \"contracts/votingContract.sol\":2253:2263  proposalId */\n      dup4\n        /* \"contracts/votingContract.sol\":2243:2264  proposals[proposalId] */\n      0xff\n      and\n      0xff\n      and\n      dup2\n      mstore\n      0x20\n      add\n      swap1\n      dup2\n      mstore\n      0x20\n      add\n      0x00\n      keccak256\n        /* \"contracts/votingContract.sol\":2243:2272  proposals[proposalId].endTime */\n      0x01\n      add\n      0x08\n      swap1\n      sload\n      swap1\n      0x0100\n      exp\n      swap1\n      div\n      0xffffffff\n      and\n        /* \"contracts/votingContract.sol\":2228:2272  currentTime <= proposals[proposalId].endTime */\n      0xffffffff\n      and\n        /* \"contracts/votingContract.sol\":2228:2239  currentTime */\n      dup2\n        /* \"contracts/votingContract.sol\":2228:2272  currentTime <= proposals[proposalId].endTime */\n      0xffffffff\n      and\n      gt\n      iszero\n        /* \"contracts/votingContract.sol\":2220:2293  require(currentTime <= proposals[proposalId].endTime, \"Voting has ended\") */\n      tag_89\n      jumpi\n      mload(0x40)\n      0x08c379a000000000000000000000000000000000000000000000000000000000\n      dup2\n      mstore\n      0x04\n      add\n      tag_90\n      swap1\n      tag_91\n      jump\t// in\n    tag_90:\n      mload(0x40)\n      dup1\n      swap2\n      sub\n      swap1\n      revert\n    tag_89:\n        /* \"contracts/votingContract.sol\":2306:2323  uint256 voterData */\n      0x00\n        /* \"contracts/votingContract.sol\":2326:2339  voterRegistry */\n      0x02\n        /* \"contracts/votingContract.sol\":2326:2351  voterRegistry[msg.sender] */\n      0x00\n        /* \"contracts/votingContract.sol\":2340:2350  msg.sender */\n      caller\n        /* \"contracts/votingContract.sol\":2326:2351  voterRegistry[msg.sender] */\n      0xffffffffffffffffffffffffffffffffffffffff\n      and\n      0xffffffffffffffffffffffffffffffffffffffff\n      and\n      dup2\n      mstore\n      0x20\n      add\n      swap1\n      dup2\n      mstore\n      0x20\n      add\n      0x00\n      keccak256\n      sload\n        /* \"contracts/votingContract.sol\":2306:2351  uint256 voterData = voterRegistry[msg.sender] */\n      swap1\n      pop\n        /* \"contracts/votingContract.sol\":2362:2374  uint256 mask */\n      0x00\n        /* \"contracts/votingContract.sol\":2382:2392  proposalId */\n      dup4\n        /* \"contracts/votingContract.sol\":2377:2392  1 << proposalId */\n      0xff\n      and\n        /* \"contracts/votingContract.sol\":2377:2378  1 */\n      0x01\n        /* \"contracts/votingContract.sol\":2377:2392  1 << proposalId */\n      swap1\n      shl\n        /* \"contracts/votingContract.sol\":2362:2392  uint256 mask = 1 << proposalId */\n      swap1\n      pop\n        /* \"contracts/votingContract.sol\":2435:2436  0 */\n      0x00\n        /* \"contracts/votingContract.sol\":2426:2430  mask */\n      dup2\n        /* \"contracts/votingContract.sol\":2414:2423  voterData */\n      dup4\n        /* \"contracts/votingContract.sol\":2414:2430  voterData & mask */\n      and\n        /* \"contracts/votingContract.sol\":2413:2436  (voterData & mask) == 0 */\n      eq\n        /* \"contracts/votingContract.sol\":2405:2472  require((voterData & mask) == 0, \"Already voted for this proposal\") */\n      tag_92\n      jumpi\n      mload(0x40)\n      0x08c379a000000000000000000000000000000000000000000000000000000000\n      dup2\n      mstore\n      0x04\n      add\n      tag_93\n      swap1\n      tag_94\n      jump\t// in\n    tag_93:\n      mload(0x40)\n      dup1\n      swap2\n      sub\n      swap1\n      revert\n    tag_92:\n        /* \"contracts/votingContract.sol\":2525:2529  mask */\n      dup1\n        /* \"contracts/votingContract.sol\":2513:2522  voterData */\n      dup3\n        /* \"contracts/votingContract.sol\":2513:2529  voterData | mask */\n      or\n        /* \"contracts/votingContract.sol\":2485:2498  voterRegistry */\n      0x02\n        /* \"contracts/votingContract.sol\":2485:2510  voterRegistry[msg.sender] */\n      0x00\n        /* \"contracts/votingContract.sol\":2499:2509  msg.sender */\n      caller\n        /* \"contracts/votingContract.sol\":2485:2510  voterRegistry[msg.sender] */\n      0xffffffffffffffffffffffffffffffffffffffff\n      and\n      0xffffffffffffffffffffffffffffffffffffffff\n      and\n      dup2\n      mstore\n      0x20\n      add\n      swap1\n      dup2\n      mstore\n      0x20\n      add\n      0x00\n      keccak256\n        /* \"contracts/votingContract.sol\":2485:2529  voterRegistry[msg.sender] = voterData | mask */\n      dup2\n      swap1\n      sstore\n      pop\n        /* \"contracts/votingContract.sol\":2540:2549  proposals */\n      0x01\n        /* \"contracts/votingContract.sol\":2540:2561  proposals[proposalId] */\n      0x00\n        /* \"contracts/votingContract.sol\":2550:2560  proposalId */\n      dup6\n        /* \"contracts/votingContract.sol\":2540:2561  proposals[proposalId] */\n      0xff\n      and\n      0xff\n      and\n      dup2\n      mstore\n      0x20\n      add\n      swap1\n      dup2\n      mstore\n      0x20\n      add\n      0x00\n      keccak256\n        /* \"contracts/votingContract.sol\":2540:2571  proposals[proposalId].voteCount */\n      0x01\n      add\n      0x00\n        /* \"contracts/votingContract.sol\":2540:2573  proposals[proposalId].voteCount++ */\n      dup2\n      dup2\n      swap1\n      sload\n      swap1\n      0x0100\n      exp\n      swap1\n      div\n      0xffffffff\n      and\n      dup1\n      swap3\n      swap2\n      swap1\n      tag_95\n      swap1\n      tag_96\n      jump\t// in\n    tag_95:\n      swap2\n      swap1\n      0x0100\n      exp\n      dup2\n      sload\n      dup2\n      0xffffffff\n      mul\n      not\n      and\n      swap1\n      dup4\n      0xffffffff\n      and\n      mul\n      or\n      swap1\n      sstore\n      pop\n      pop\n        /* \"contracts/votingContract.sol\":2584:2602  proposalVoterCount */\n      0x03\n        /* \"contracts/votingContract.sol\":2584:2614  proposalVoterCount[proposalId] */\n      0x00\n        /* \"contracts/votingContract.sol\":2603:2613  proposalId */\n      dup6\n        /* \"contracts/votingContract.sol\":2584:2614  proposalVoterCount[proposalId] */\n      0xff\n      and\n      0xff\n      and\n      dup2\n      mstore\n      0x20\n      add\n      swap1\n      dup2\n      mstore\n      0x20\n      add\n      0x00\n      keccak256\n      0x00\n        /* \"contracts/votingContract.sol\":2584:2616  proposalVoterCount[proposalId]++ */\n      dup2\n      dup2\n      swap1\n      sload\n      swap1\n      0x0100\n      exp\n      swap1\n      div\n      0xffffffff\n      and\n      dup1\n      swap3\n      swap2\n      swap1\n      tag_97\n      swap1\n      tag_96\n      jump\t// in\n    tag_97:\n      swap2\n      swap1\n      0x0100\n      exp\n      dup2\n      sload\n      dup2\n      0xffffffff\n      mul\n      not\n      and\n      swap1\n      dup4\n      0xffffffff\n      and\n      mul\n      or\n      swap1\n      sstore\n      pop\n      pop\n        /* \"contracts/votingContract.sol\":2652:2662  proposalId */\n      dup4\n        /* \"contracts/votingContract.sol\":2634:2663  Voted(msg.sender, proposalId) */\n      0xff\n      and\n        /* \"contracts/votingContract.sol\":2640:2650  msg.sender */\n      caller\n        /* \"contracts/votingContract.sol\":2634:2663  Voted(msg.sender, proposalId) */\n      0xffffffffffffffffffffffffffffffffffffffff\n      and\n      0x14075e33dffdc00c1fcaf75d0f86d667170be57fb566b12b41b499e5fa53b125\n      mload(0x40)\n      mload(0x40)\n      dup1\n      swap2\n      sub\n      swap1\n      log3\n        /* \"contracts/votingContract.sol\":1996:2671  {... */\n      pop\n      pop\n      pop\n        /* \"contracts/votingContract.sol\":1955:2671  function vote(uint8 proposalId) external {... */\n      pop\n      jump\t// out\n        /* \"contracts/votingContract.sol\":96:122  uint8 public ProposalCount */\n    tag_41:\n      0x00\n      dup1\n      sload\n      swap1\n      0x0100\n      exp\n      swap1\n      div\n      0xff\n      and\n      dup2\n      jump\t// out\n        /* \"contracts/votingContract.sol\":719:1076  function stringToBytes32(string memory source) public pure returns (bytes32 result) {... */\n    tag_47:\n        /* \"contracts/votingContract.sol\":787:801  bytes32 result */\n      0x00\n        /* \"contracts/votingContract.sol\":814:831  bytes memory temp */\n      dup1\n        /* \"contracts/votingContract.sol\":840:846  source */\n      dup3\n        /* \"contracts/votingContract.sol\":814:847  bytes memory temp = bytes(source) */\n      swap1\n      pop\n        /* \"contracts/votingContract.sol\":877:878  0 */\n      0x00\n        /* \"contracts/votingContract.sol\":862:866  temp */\n      dup2\n        /* \"contracts/votingContract.sol\":862:873  temp.length */\n      mload\n        /* \"contracts/votingContract.sol\":862:878  temp.length == 0 */\n      sub\n        /* \"contracts/votingContract.sol\":858:917  if (temp.length == 0) {... */\n      tag_99\n      jumpi\n        /* \"contracts/votingContract.sol\":902:905  0x0 */\n      0x00\n        /* \"contracts/votingContract.sol\":895:905  return 0x0 */\n      dup1\n      shl\n      swap2\n      pop\n      pop\n      jump(tag_98)\n        /* \"contracts/votingContract.sol\":858:917  if (temp.length == 0) {... */\n    tag_99:\n        /* \"contracts/votingContract.sol\":950:952  32 */\n      0x20\n        /* \"contracts/votingContract.sol\":935:939  temp */\n      dup2\n        /* \"contracts/votingContract.sol\":935:946  temp.length */\n      mload\n        /* \"contracts/votingContract.sol\":935:952  temp.length <= 32 */\n      gt\n      iszero\n        /* \"contracts/votingContract.sol\":927:991  require(temp.length <= 32, \"String too long, max 32 characters\") */\n      tag_100\n      jumpi\n      mload(0x40)\n      0x08c379a000000000000000000000000000000000000000000000000000000000\n      dup2\n      mstore\n      0x04\n      add\n      tag_101\n      swap1\n      tag_102\n      jump\t// in\n    tag_101:\n      mload(0x40)\n      dup1\n      swap2\n      sub\n      swap1\n      revert\n    tag_100:\n        /* \"contracts/votingContract.sol\":1054:1056  32 */\n      0x20\n        /* \"contracts/votingContract.sol\":1046:1052  source */\n      dup4\n        /* \"contracts/votingContract.sol\":1042:1057  add(source, 32) */\n      add\n        /* \"contracts/votingContract.sol\":1036:1058  mload(add(source, 32)) */\n      mload\n        /* \"contracts/votingContract.sol\":1026:1058  result := mload(add(source, 32)) */\n      swap2\n      pop\n        /* \"contracts/votingContract.sol\":1011:1069  {... */\n      pop\n        /* \"contracts/votingContract.sol\":719:1076  function stringToBytes32(string memory source) public pure returns (bytes32 result) {... */\n    tag_98:\n      swap2\n      swap1\n      pop\n      jump\t// out\n        /* \"contracts/votingContract.sol\":3113:3266  function hasVoted(address voter, uint8 proposalId) external view returns (bool) {... */\n    tag_53:\n        /* \"contracts/votingContract.sol\":3187:3191  bool */\n      0x00\n        /* \"contracts/votingContract.sol\":3257:3258  0 */\n      dup1\n        /* \"contracts/votingContract.sol\":3241:3251  proposalId */\n      dup3\n        /* \"contracts/votingContract.sol\":3236:3251  1 << proposalId */\n      0xff\n      and\n        /* \"contracts/votingContract.sol\":3236:3237  1 */\n      0x01\n        /* \"contracts/votingContract.sol\":3236:3251  1 << proposalId */\n      swap1\n      shl\n        /* \"contracts/votingContract.sol\":3212:3225  voterRegistry */\n      0x02\n        /* \"contracts/votingContract.sol\":3212:3232  voterRegistry[voter] */\n      0x00\n        /* \"contracts/votingContract.sol\":3226:3231  voter */\n      dup7\n        /* \"contracts/votingContract.sol\":3212:3232  voterRegistry[voter] */\n      0xffffffffffffffffffffffffffffffffffffffff\n      and\n      0xffffffffffffffffffffffffffffffffffffffff\n      and\n      dup2\n      mstore\n      0x20\n      add\n      swap1\n      dup2\n      mstore\n      0x20\n      add\n      0x00\n      keccak256\n      sload\n        /* \"contracts/votingContract.sol\":3212:3252  voterRegistry[voter] & (1 << proposalId) */\n      and\n        /* \"contracts/votingContract.sol\":3211:3258  (voterRegistry[voter] & (1 << proposalId)) != 0 */\n      eq\n      iszero\n        /* \"contracts/votingContract.sol\":3204:3258  return (voterRegistry[voter] & (1 << proposalId)) != 0 */\n      swap1\n      pop\n        /* \"contracts/votingContract.sol\":3113:3266  function hasVoted(address voter, uint8 proposalId) external view returns (bool) {... */\n      swap3\n      swap2\n      pop\n      pop\n      jump\t// out\n        /* \"contracts/votingContract.sol\":3274:3908  function getProposal(uint8 proposalId) external view returns (... */\n    tag_58:\n        /* \"contracts/votingContract.sol\":3346:3358  bytes32 name */\n      0x00\n        /* \"contracts/votingContract.sol\":3369:3385  uint32 voteCount */\n      dup1\n        /* \"contracts/votingContract.sol\":3396:3412  uint32 startTime */\n      0x00\n        /* \"contracts/votingContract.sol\":3423:3437  uint32 endTime */\n      dup1\n        /* \"contracts/votingContract.sol\":3448:3461  bool executed */\n      0x00\n        /* \"contracts/votingContract.sol\":3472:3483  bool active */\n      dup1\n        /* \"contracts/votingContract.sol\":3523:3536  ProposalCount */\n      0x00\n      dup1\n      sload\n      swap1\n      0x0100\n      exp\n      swap1\n      div\n      0xff\n      and\n        /* \"contracts/votingContract.sol\":3510:3536  proposalId < ProposalCount */\n      0xff\n      and\n        /* \"contracts/votingContract.sol\":3510:3520  proposalId */\n      dup8\n        /* \"contracts/votingContract.sol\":3510:3536  proposalId < ProposalCount */\n      0xff\n      and\n      lt\n        /* \"contracts/votingContract.sol\":3502:3557  require(proposalId < ProposalCount, \"Invalid proposal\") */\n      tag_105\n      jumpi\n      mload(0x40)\n      0x08c379a000000000000000000000000000000000000000000000000000000000\n      dup2\n      mstore\n      0x04\n      add\n      tag_106\n      swap1\n      tag_64\n      jump\t// in\n    tag_106:\n      mload(0x40)\n      dup1\n      swap2\n      sub\n      swap1\n      revert\n    tag_105:\n        /* \"contracts/votingContract.sol\":3570:3595  Proposal storage proposal */\n      0x00\n        /* \"contracts/votingContract.sol\":3598:3607  proposals */\n      0x01\n        /* \"contracts/votingContract.sol\":3598:3619  proposals[proposalId] */\n      0x00\n        /* \"contracts/votingContract.sol\":3608:3618  proposalId */\n      dup10\n        /* \"contracts/votingContract.sol\":3598:3619  proposals[proposalId] */\n      0xff\n      and\n      0xff\n      and\n      dup2\n      mstore\n      0x20\n      add\n      swap1\n      dup2\n      mstore\n      0x20\n      add\n      0x00\n      keccak256\n        /* \"contracts/votingContract.sol\":3570:3619  Proposal storage proposal = proposals[proposalId] */\n      swap1\n      pop\n        /* \"contracts/votingContract.sol\":3654:3662  proposal */\n      dup1\n        /* \"contracts/votingContract.sol\":3654:3667  proposal.name */\n      0x00\n      add\n      sload\n        /* \"contracts/votingContract.sol\":3682:3690  proposal */\n      dup2\n        /* \"contracts/votingContract.sol\":3682:3700  proposal.voteCount */\n      0x01\n      add\n      0x00\n      swap1\n      sload\n      swap1\n      0x0100\n      exp\n      swap1\n      div\n      0xffffffff\n      and\n        /* \"contracts/votingContract.sol\":3715:3723  proposal */\n      dup3\n        /* \"contracts/votingContract.sol\":3715:3733  proposal.startTime */\n      0x01\n      add\n      0x04\n      swap1\n      sload\n      swap1\n      0x0100\n      exp\n      swap1\n      div\n      0xffffffff\n      and\n        /* \"contracts/votingContract.sol\":3748:3756  proposal */\n      dup4\n        /* \"contracts/votingContract.sol\":3748:3764  proposal.endTime */\n      0x01\n      add\n      0x08\n      swap1\n      sload\n      swap1\n      0x0100\n      exp\n      swap1\n      div\n      0xffffffff\n      and\n        /* \"contracts/votingContract.sol\":3779:3787  proposal */\n      dup5\n        /* \"contracts/votingContract.sol\":3779:3796  proposal.executed */\n      0x01\n      add\n      0x0c\n      swap1\n      sload\n      swap1\n      0x0100\n      exp\n      swap1\n      div\n      0xff\n      and\n        /* \"contracts/votingContract.sol\":3831:3839  proposal */\n      dup6\n        /* \"contracts/votingContract.sol\":3831:3849  proposal.startTime */\n      0x01\n      add\n      0x04\n      swap1\n      sload\n      swap1\n      0x0100\n      exp\n      swap1\n      div\n      0xffffffff\n      and\n        /* \"contracts/votingContract.sol\":3812:3849  block.timestamp >= proposal.startTime */\n      0xffffffff\n      and\n        /* \"contracts/votingContract.sol\":3812:3827  block.timestamp */\n      timestamp\n        /* \"contracts/votingContract.sol\":3812:3849  block.timestamp >= proposal.startTime */\n      lt\n      iszero\n        /* \"contracts/votingContract.sol\":3812:3888  block.timestamp >= proposal.startTime && block.timestamp <= proposal.endTime */\n      dup1\n      iszero\n      tag_107\n      jumpi\n      pop\n        /* \"contracts/votingContract.sol\":3872:3880  proposal */\n      dup6\n        /* \"contracts/votingContract.sol\":3872:3888  proposal.endTime */\n      0x01\n      add\n      0x08\n      swap1\n      sload\n      swap1\n      0x0100\n      exp\n      swap1\n      div\n      0xffffffff\n      and\n        /* \"contracts/votingContract.sol\":3853:3888  block.timestamp <= proposal.endTime */\n      0xffffffff\n      and\n        /* \"contracts/votingContract.sol\":3853:3868  block.timestamp */\n      timestamp\n        /* \"contracts/votingContract.sol\":3853:3888  block.timestamp <= proposal.endTime */\n      gt\n      iszero\n        /* \"contracts/votingContract.sol\":3812:3888  block.timestamp >= proposal.startTime && block.timestamp <= proposal.endTime */\n    tag_107:\n        /* \"contracts/votingContract.sol\":3632:3900  return (... */\n      swap7\n      pop\n      swap7\n      pop\n      swap7\n      pop\n      swap7\n      pop\n      swap7\n      pop\n      swap7\n      pop\n      pop\n        /* \"contracts/votingContract.sol\":3274:3908  function getProposal(uint8 proposalId) external view returns (... */\n      swap2\n      swap4\n      swap6\n      pop\n      swap2\n      swap4\n      swap6\n      jump\t// out\n        /* \"#utility.yul\":7:82   */\n    tag_108:\n        /* \"#utility.yul\":40:46   */\n      0x00\n        /* \"#utility.yul\":73:75   */\n      0x40\n        /* \"#utility.yul\":67:76   */\n      mload\n        /* \"#utility.yul\":57:76   */\n      swap1\n      pop\n        /* \"#utility.yul\":7:82   */\n      swap1\n      jump\t// out\n        /* \"#utility.yul\":88:205   */\n    tag_109:\n        /* \"#utility.yul\":197:198   */\n      0x00\n        /* \"#utility.yul\":194:195   */\n      dup1\n        /* \"#utility.yul\":187:199   */\n      revert\n        /* \"#utility.yul\":211:328   */\n    tag_110:\n        /* \"#utility.yul\":320:321   */\n      0x00\n        /* \"#utility.yul\":317:318   */\n      dup1\n        /* \"#utility.yul\":310:322   */\n      revert\n        /* \"#utility.yul\":334:420   */\n    tag_111:\n        /* \"#utility.yul\":369:376   */\n      0x00\n        /* \"#utility.yul\":409:413   */\n      0xff\n        /* \"#utility.yul\":402:407   */\n      dup3\n        /* \"#utility.yul\":398:414   */\n      and\n        /* \"#utility.yul\":387:414   */\n      swap1\n      pop\n        /* \"#utility.yul\":334:420   */\n      swap2\n      swap1\n      pop\n      jump\t// out\n        /* \"#utility.yul\":426:544   */\n    tag_112:\n        /* \"#utility.yul\":497:519   */\n      tag_163\n        /* \"#utility.yul\":513:518   */\n      dup2\n        /* \"#utility.yul\":497:519   */\n      tag_111\n      jump\t// in\n    tag_163:\n        /* \"#utility.yul\":490:495   */\n      dup2\n        /* \"#utility.yul\":487:520   */\n      eq\n        /* \"#utility.yul\":477:538   */\n      tag_164\n      jumpi\n        /* \"#utility.yul\":534:535   */\n      0x00\n        /* \"#utility.yul\":531:532   */\n      dup1\n        /* \"#utility.yul\":524:536   */\n      revert\n        /* \"#utility.yul\":477:538   */\n    tag_164:\n        /* \"#utility.yul\":426:544   */\n      pop\n      jump\t// out\n        /* \"#utility.yul\":550:685   */\n    tag_113:\n        /* \"#utility.yul\":594:599   */\n      0x00\n        /* \"#utility.yul\":632:638   */\n      dup2\n        /* \"#utility.yul\":619:639   */\n      calldataload\n        /* \"#utility.yul\":610:639   */\n      swap1\n      pop\n        /* \"#utility.yul\":648:679   */\n      tag_166\n        /* \"#utility.yul\":673:678   */\n      dup2\n        /* \"#utility.yul\":648:679   */\n      tag_112\n      jump\t// in\n    tag_166:\n        /* \"#utility.yul\":550:685   */\n      swap3\n      swap2\n      pop\n      pop\n      jump\t// out\n        /* \"#utility.yul\":691:1157   */\n    tag_16:\n        /* \"#utility.yul\":755:761   */\n      0x00\n        /* \"#utility.yul\":763:769   */\n      dup1\n        /* \"#utility.yul\":812:814   */\n      0x40\n        /* \"#utility.yul\":800:809   */\n      dup4\n        /* \"#utility.yul\":791:798   */\n      dup6\n        /* \"#utility.yul\":787:810   */\n      sub\n        /* \"#utility.yul\":783:815   */\n      slt\n        /* \"#utility.yul\":780:899   */\n      iszero\n      tag_168\n      jumpi\n        /* \"#utility.yul\":818:897   */\n      tag_169\n      tag_109\n      jump\t// in\n    tag_169:\n        /* \"#utility.yul\":780:899   */\n    tag_168:\n        /* \"#utility.yul\":938:939   */\n      0x00\n        /* \"#utility.yul\":963:1014   */\n      tag_170\n        /* \"#utility.yul\":1006:1013   */\n      dup6\n        /* \"#utility.yul\":997:1003   */\n      dup3\n        /* \"#utility.yul\":986:995   */\n      dup7\n        /* \"#utility.yul\":982:1004   */\n      add\n        /* \"#utility.yul\":963:1014   */\n      tag_113\n      jump\t// in\n    tag_170:\n        /* \"#utility.yul\":953:1014   */\n      swap3\n      pop\n        /* \"#utility.yul\":909:1024   */\n      pop\n        /* \"#utility.yul\":1063:1065   */\n      0x20\n        /* \"#utility.yul\":1089:1140   */\n      tag_171\n        /* \"#utility.yul\":1132:1139   */\n      dup6\n        /* \"#utility.yul\":1123:1129   */\n      dup3\n        /* \"#utility.yul\":1112:1121   */\n      dup7\n        /* \"#utility.yul\":1108:1130   */\n      add\n        /* \"#utility.yul\":1089:1140   */\n      tag_113\n      jump\t// in\n    tag_171:\n        /* \"#utility.yul\":1079:1140   */\n      swap2\n      pop\n        /* \"#utility.yul\":1034:1150   */\n      pop\n        /* \"#utility.yul\":691:1157   */\n      swap3\n      pop\n      swap3\n      swap1\n      pop\n      jump\t// out\n        /* \"#utility.yul\":1163:1240   */\n    tag_114:\n        /* \"#utility.yul\":1200:1207   */\n      0x00\n        /* \"#utility.yul\":1229:1234   */\n      dup2\n        /* \"#utility.yul\":1218:1234   */\n      swap1\n      pop\n        /* \"#utility.yul\":1163:1240   */\n      swap2\n      swap1\n      pop\n      jump\t// out\n        /* \"#utility.yul\":1246:1368   */\n    tag_115:\n        /* \"#utility.yul\":1319:1343   */\n      tag_174\n        /* \"#utility.yul\":1337:1342   */\n      dup2\n        /* \"#utility.yul\":1319:1343   */\n      tag_114\n      jump\t// in\n    tag_174:\n        /* \"#utility.yul\":1312:1317   */\n      dup2\n        /* \"#utility.yul\":1309:1344   */\n      eq\n        /* \"#utility.yul\":1299:1362   */\n      tag_175\n      jumpi\n        /* \"#utility.yul\":1358:1359   */\n      0x00\n        /* \"#utility.yul\":1355:1356   */\n      dup1\n        /* \"#utility.yul\":1348:1360   */\n      revert\n        /* \"#utility.yul\":1299:1362   */\n    tag_175:\n        /* \"#utility.yul\":1246:1368   */\n      pop\n      jump\t// out\n        /* \"#utility.yul\":1374:1513   */\n    tag_116:\n        /* \"#utility.yul\":1420:1425   */\n      0x00\n        /* \"#utility.yul\":1458:1464   */\n      dup2\n        /* \"#utility.yul\":1445:1465   */\n      calldataload\n        /* \"#utility.yul\":1436:1465   */\n      swap1\n      pop\n        /* \"#utility.yul\":1474:1507   */\n      tag_177\n        /* \"#utility.yul\":1501:1506   */\n      dup2\n        /* \"#utility.yul\":1474:1507   */\n      tag_115\n      jump\t// in\n    tag_177:\n        /* \"#utility.yul\":1374:1513   */\n      swap3\n      swap2\n      pop\n      pop\n      jump\t// out\n        /* \"#utility.yul\":1519:1612   */\n    tag_117:\n        /* \"#utility.yul\":1555:1562   */\n      0x00\n        /* \"#utility.yul\":1595:1605   */\n      0xffffffff\n        /* \"#utility.yul\":1588:1593   */\n      dup3\n        /* \"#utility.yul\":1584:1606   */\n      and\n        /* \"#utility.yul\":1573:1606   */\n      swap1\n      pop\n        /* \"#utility.yul\":1519:1612   */\n      swap2\n      swap1\n      pop\n      jump\t// out\n        /* \"#utility.yul\":1618:1738   */\n    tag_118:\n        /* \"#utility.yul\":1690:1713   */\n      tag_180\n        /* \"#utility.yul\":1707:1712   */\n      dup2\n        /* \"#utility.yul\":1690:1713   */\n      tag_117\n      jump\t// in\n    tag_180:\n        /* \"#utility.yul\":1683:1688   */\n      dup2\n        /* \"#utility.yul\":1680:1714   */\n      eq\n        /* \"#utility.yul\":1670:1732   */\n      tag_181\n      jumpi\n        /* \"#utility.yul\":1728:1729   */\n      0x00\n        /* \"#utility.yul\":1725:1726   */\n      dup1\n        /* \"#utility.yul\":1718:1730   */\n      revert\n        /* \"#utility.yul\":1670:1732   */\n    tag_181:\n        /* \"#utility.yul\":1618:1738   */\n      pop\n      jump\t// out\n        /* \"#utility.yul\":1744:1881   */\n    tag_119:\n        /* \"#utility.yul\":1789:1794   */\n      0x00\n        /* \"#utility.yul\":1827:1833   */\n      dup2\n        /* \"#utility.yul\":1814:1834   */\n      calldataload\n        /* \"#utility.yul\":1805:1834   */\n      swap1\n      pop\n        /* \"#utility.yul\":1843:1875   */\n      tag_183\n        /* \"#utility.yul\":1869:1874   */\n      dup2\n        /* \"#utility.yul\":1843:1875   */\n      tag_118\n      jump\t// in\n    tag_183:\n        /* \"#utility.yul\":1744:1881   */\n      swap3\n      swap2\n      pop\n      pop\n      jump\t// out\n        /* \"#utility.yul\":1887:2359   */\n    tag_20:\n        /* \"#utility.yul\":1954:1960   */\n      0x00\n        /* \"#utility.yul\":1962:1968   */\n      dup1\n        /* \"#utility.yul\":2011:2013   */\n      0x40\n        /* \"#utility.yul\":1999:2008   */\n      dup4\n        /* \"#utility.yul\":1990:1997   */\n      dup6\n        /* \"#utility.yul\":1986:2009   */\n      sub\n        /* \"#utility.yul\":1982:2014   */\n      slt\n        /* \"#utility.yul\":1979:2098   */\n      iszero\n      tag_185\n      jumpi\n        /* \"#utility.yul\":2017:2096   */\n      tag_186\n      tag_109\n      jump\t// in\n    tag_186:\n        /* \"#utility.yul\":1979:2098   */\n    tag_185:\n        /* \"#utility.yul\":2137:2138   */\n      0x00\n        /* \"#utility.yul\":2162:2215   */\n      tag_187\n        /* \"#utility.yul\":2207:2214   */\n      dup6\n        /* \"#utility.yul\":2198:2204   */\n      dup3\n        /* \"#utility.yul\":2187:2196   */\n      dup7\n        /* \"#utility.yul\":2183:2205   */\n      add\n        /* \"#utility.yul\":2162:2215   */\n      tag_116\n      jump\t// in\n    tag_187:\n        /* \"#utility.yul\":2152:2215   */\n      swap3\n      pop\n        /* \"#utility.yul\":2108:2225   */\n      pop\n        /* \"#utility.yul\":2264:2266   */\n      0x20\n        /* \"#utility.yul\":2290:2342   */\n      tag_188\n        /* \"#utility.yul\":2334:2341   */\n      dup6\n        /* \"#utility.yul\":2325:2331   */\n      dup3\n        /* \"#utility.yul\":2314:2323   */\n      dup7\n        /* \"#utility.yul\":2310:2332   */\n      add\n        /* \"#utility.yul\":2290:2342   */\n      tag_119\n      jump\t// in\n    tag_188:\n        /* \"#utility.yul\":2280:2342   */\n      swap2\n      pop\n        /* \"#utility.yul\":2235:2352   */\n      pop\n        /* \"#utility.yul\":1887:2359   */\n      swap3\n      pop\n      swap3\n      swap1\n      pop\n      jump\t// out\n        /* \"#utility.yul\":2365:2482   */\n    tag_120:\n        /* \"#utility.yul\":2474:2475   */\n      0x00\n        /* \"#utility.yul\":2471:2472   */\n      dup1\n        /* \"#utility.yul\":2464:2476   */\n      revert\n        /* \"#utility.yul\":2488:2605   */\n    tag_121:\n        /* \"#utility.yul\":2597:2598   */\n      0x00\n        /* \"#utility.yul\":2594:2595   */\n      dup1\n        /* \"#utility.yul\":2587:2599   */\n      revert\n        /* \"#utility.yul\":2611:2713   */\n    tag_122:\n        /* \"#utility.yul\":2652:2658   */\n      0x00\n        /* \"#utility.yul\":2703:2705   */\n      0x1f\n        /* \"#utility.yul\":2699:2706   */\n      not\n        /* \"#utility.yul\":2694:2696   */\n      0x1f\n        /* \"#utility.yul\":2687:2692   */\n      dup4\n        /* \"#utility.yul\":2683:2697   */\n      add\n        /* \"#utility.yul\":2679:2707   */\n      and\n        /* \"#utility.yul\":2669:2707   */\n      swap1\n      pop\n        /* \"#utility.yul\":2611:2713   */\n      swap2\n      swap1\n      pop\n      jump\t// out\n        /* \"#utility.yul\":2719:2899   */\n    tag_123:\n        /* \"#utility.yul\":2767:2844   */\n      0x4e487b7100000000000000000000000000000000000000000000000000000000\n        /* \"#utility.yul\":2764:2765   */\n      0x00\n        /* \"#utility.yul\":2757:2845   */\n      mstore\n        /* \"#utility.yul\":2864:2868   */\n      0x41\n        /* \"#utility.yul\":2861:2862   */\n      0x04\n        /* \"#utility.yul\":2854:2869   */\n      mstore\n        /* \"#utility.yul\":2888:2892   */\n      0x24\n        /* \"#utility.yul\":2885:2886   */\n      0x00\n        /* \"#utility.yul\":2878:2893   */\n      revert\n        /* \"#utility.yul\":2905:3186   */\n    tag_124:\n        /* \"#utility.yul\":2988:3015   */\n      tag_194\n        /* \"#utility.yul\":3010:3014   */\n      dup3\n        /* \"#utility.yul\":2988:3015   */\n      tag_122\n      jump\t// in\n    tag_194:\n        /* \"#utility.yul\":2980:2986   */\n      dup2\n        /* \"#utility.yul\":2976:3016   */\n      add\n        /* \"#utility.yul\":3118:3124   */\n      dup2\n        /* \"#utility.yul\":3106:3116   */\n      dup2\n        /* \"#utility.yul\":3103:3125   */\n      lt\n        /* \"#utility.yul\":3082:3100   */\n      0xffffffffffffffff\n        /* \"#utility.yul\":3070:3080   */\n      dup3\n        /* \"#utility.yul\":3067:3101   */\n      gt\n        /* \"#utility.yul\":3064:3126   */\n      or\n        /* \"#utility.yul\":3061:3149   */\n      iszero\n      tag_195\n      jumpi\n        /* \"#utility.yul\":3129:3147   */\n      tag_196\n      tag_123\n      jump\t// in\n    tag_196:\n        /* \"#utility.yul\":3061:3149   */\n    tag_195:\n        /* \"#utility.yul\":3169:3179   */\n      dup1\n        /* \"#utility.yul\":3165:3167   */\n      0x40\n        /* \"#utility.yul\":3158:3180   */\n      mstore\n        /* \"#utility.yul\":2948:3186   */\n      pop\n        /* \"#utility.yul\":2905:3186   */\n      pop\n      pop\n      jump\t// out\n        /* \"#utility.yul\":3192:3321   */\n    tag_125:\n        /* \"#utility.yul\":3226:3232   */\n      0x00\n        /* \"#utility.yul\":3253:3273   */\n      tag_198\n      tag_108\n      jump\t// in\n    tag_198:\n        /* \"#utility.yul\":3243:3273   */\n      swap1\n      pop\n        /* \"#utility.yul\":3282:3315   */\n      tag_199\n        /* \"#utility.yul\":3310:3314   */\n      dup3\n        /* \"#utility.yul\":3302:3308   */\n      dup3\n        /* \"#utility.yul\":3282:3315   */\n      tag_124\n      jump\t// in\n    tag_199:\n        /* \"#utility.yul\":3192:3321   */\n      swap2\n      swap1\n      pop\n      jump\t// out\n        /* \"#utility.yul\":3327:3635   */\n    tag_126:\n        /* \"#utility.yul\":3389:3393   */\n      0x00\n        /* \"#utility.yul\":3479:3497   */\n      0xffffffffffffffff\n        /* \"#utility.yul\":3471:3477   */\n      dup3\n        /* \"#utility.yul\":3468:3498   */\n      gt\n        /* \"#utility.yul\":3465:3521   */\n      iszero\n      tag_201\n      jumpi\n        /* \"#utility.yul\":3501:3519   */\n      tag_202\n      tag_123\n      jump\t// in\n    tag_202:\n        /* \"#utility.yul\":3465:3521   */\n    tag_201:\n        /* \"#utility.yul\":3539:3568   */\n      tag_203\n        /* \"#utility.yul\":3561:3567   */\n      dup3\n        /* \"#utility.yul\":3539:3568   */\n      tag_122\n      jump\t// in\n    tag_203:\n        /* \"#utility.yul\":3531:3568   */\n      swap1\n      pop\n        /* \"#utility.yul\":3623:3627   */\n      0x20\n        /* \"#utility.yul\":3617:3621   */\n      dup2\n        /* \"#utility.yul\":3613:3628   */\n      add\n        /* \"#utility.yul\":3605:3628   */\n      swap1\n      pop\n        /* \"#utility.yul\":3327:3635   */\n      swap2\n      swap1\n      pop\n      jump\t// out\n        /* \"#utility.yul\":3641:3789   */\n    tag_127:\n        /* \"#utility.yul\":3739:3745   */\n      dup3\n        /* \"#utility.yul\":3734:3737   */\n      dup2\n        /* \"#utility.yul\":3729:3732   */\n      dup4\n        /* \"#utility.yul\":3716:3746   */\n      calldatacopy\n        /* \"#utility.yul\":3780:3781   */\n      0x00\n        /* \"#utility.yul\":3771:3777   */\n      dup4\n        /* \"#utility.yul\":3766:3769   */\n      dup4\n        /* \"#utility.yul\":3762:3778   */\n      add\n        /* \"#utility.yul\":3755:3782   */\n      mstore\n        /* \"#utility.yul\":3641:3789   */\n      pop\n      pop\n      pop\n      jump\t// out\n        /* \"#utility.yul\":3795:4220   */\n    tag_128:\n        /* \"#utility.yul\":3873:3878   */\n      0x00\n        /* \"#utility.yul\":3898:3964   */\n      tag_206\n        /* \"#utility.yul\":3914:3963   */\n      tag_207\n        /* \"#utility.yul\":3956:3962   */\n      dup5\n        /* \"#utility.yul\":3914:3963   */\n      tag_126\n      jump\t// in\n    tag_207:\n        /* \"#utility.yul\":3898:3964   */\n      tag_125\n      jump\t// in\n    tag_206:\n        /* \"#utility.yul\":3889:3964   */\n      swap1\n      pop\n        /* \"#utility.yul\":3987:3993   */\n      dup3\n        /* \"#utility.yul\":3980:3985   */\n      dup2\n        /* \"#utility.yul\":3973:3994   */\n      mstore\n        /* \"#utility.yul\":4025:4029   */\n      0x20\n        /* \"#utility.yul\":4018:4023   */\n      dup2\n        /* \"#utility.yul\":4014:4030   */\n      add\n        /* \"#utility.yul\":4063:4066   */\n      dup5\n        /* \"#utility.yul\":4054:4060   */\n      dup5\n        /* \"#utility.yul\":4049:4052   */\n      dup5\n        /* \"#utility.yul\":4045:4061   */\n      add\n        /* \"#utility.yul\":4042:4067   */\n      gt\n        /* \"#utility.yul\":4039:4151   */\n      iszero\n      tag_208\n      jumpi\n        /* \"#utility.yul\":4070:4149   */\n      tag_209\n      tag_121\n      jump\t// in\n    tag_209:\n        /* \"#utility.yul\":4039:4151   */\n    tag_208:\n        /* \"#utility.yul\":4160:4214   */\n      tag_210\n        /* \"#utility.yul\":4207:4213   */\n      dup5\n        /* \"#utility.yul\":4202:4205   */\n      dup3\n        /* \"#utility.yul\":4197:4200   */\n      dup6\n        /* \"#utility.yul\":4160:4214   */\n      tag_127\n      jump\t// in\n    tag_210:\n        /* \"#utility.yul\":3879:4220   */\n      pop\n        /* \"#utility.yul\":3795:4220   */\n      swap4\n      swap3\n      pop\n      pop\n      pop\n      jump\t// out\n        /* \"#utility.yul\":4240:4580   */\n    tag_129:\n        /* \"#utility.yul\":4296:4301   */\n      0x00\n        /* \"#utility.yul\":4345:4348   */\n      dup3\n        /* \"#utility.yul\":4338:4342   */\n      0x1f\n        /* \"#utility.yul\":4330:4336   */\n      dup4\n        /* \"#utility.yul\":4326:4343   */\n      add\n        /* \"#utility.yul\":4322:4349   */\n      slt\n        /* \"#utility.yul\":4312:4434   */\n      tag_212\n      jumpi\n        /* \"#utility.yul\":4353:4432   */\n      tag_213\n      tag_120\n      jump\t// in\n    tag_213:\n        /* \"#utility.yul\":4312:4434   */\n    tag_212:\n        /* \"#utility.yul\":4470:4476   */\n      dup2\n        /* \"#utility.yul\":4457:4477   */\n      calldataload\n        /* \"#utility.yul\":4495:4574   */\n      tag_214\n        /* \"#utility.yul\":4570:4573   */\n      dup5\n        /* \"#utility.yul\":4562:4568   */\n      dup3\n        /* \"#utility.yul\":4555:4559   */\n      0x20\n        /* \"#utility.yul\":4547:4553   */\n      dup7\n        /* \"#utility.yul\":4543:4560   */\n      add\n        /* \"#utility.yul\":4495:4574   */\n      tag_128\n      jump\t// in\n    tag_214:\n        /* \"#utility.yul\":4486:4574   */\n      swap2\n      pop\n        /* \"#utility.yul\":4302:4580   */\n      pop\n        /* \"#utility.yul\":4240:4580   */\n      swap3\n      swap2\n      pop\n      pop\n      jump\t// out\n        /* \"#utility.yul\":4586:5238   */\n    tag_24:\n        /* \"#utility.yul\":4663:4669   */\n      0x00\n        /* \"#utility.yul\":4671:4677   */\n      dup1\n        /* \"#utility.yul\":4720:4722   */\n      0x40\n        /* \"#utility.yul\":4708:4717   */\n      dup4\n        /* \"#utility.yul\":4699:4706   */\n      dup6\n        /* \"#utility.yul\":4695:4718   */\n      sub\n        /* \"#utility.yul\":4691:4723   */\n      slt\n        /* \"#utility.yul\":4688:4807   */\n      iszero\n      tag_216\n      jumpi\n        /* \"#utility.yul\":4726:4805   */\n      tag_217\n      tag_109\n      jump\t// in\n    tag_217:\n        /* \"#utility.yul\":4688:4807   */\n    tag_216:\n        /* \"#utility.yul\":4874:4875   */\n      0x00\n        /* \"#utility.yul\":4863:4872   */\n      dup4\n        /* \"#utility.yul\":4859:4876   */\n      add\n        /* \"#utility.yul\":4846:4877   */\n      calldataload\n        /* \"#utility.yul\":4904:4922   */\n      0xffffffffffffffff\n        /* \"#utility.yul\":4896:4902   */\n      dup2\n        /* \"#utility.yul\":4893:4923   */\n      gt\n        /* \"#utility.yul\":4890:5007   */\n      iszero\n      tag_218\n      jumpi\n        /* \"#utility.yul\":4926:5005   */\n      tag_219\n      tag_110\n      jump\t// in\n    tag_219:\n        /* \"#utility.yul\":4890:5007   */\n    tag_218:\n        /* \"#utility.yul\":5031:5094   */\n      tag_220\n        /* \"#utility.yul\":5086:5093   */\n      dup6\n        /* \"#utility.yul\":5077:5083   */\n      dup3\n        /* \"#utility.yul\":5066:5075   */\n      dup7\n        /* \"#utility.yul\":5062:5084   */\n      add\n        /* \"#utility.yul\":5031:5094   */\n      tag_129\n      jump\t// in\n    tag_220:\n        /* \"#utility.yul\":5021:5094   */\n      swap3\n      pop\n        /* \"#utility.yul\":4817:5104   */\n      pop\n        /* \"#utility.yul\":5143:5145   */\n      0x20\n        /* \"#utility.yul\":5169:5221   */\n      tag_221\n        /* \"#utility.yul\":5213:5220   */\n      dup6\n        /* \"#utility.yul\":5204:5210   */\n      dup3\n        /* \"#utility.yul\":5193:5202   */\n      dup7\n        /* \"#utility.yul\":5189:5211   */\n      add\n        /* \"#utility.yul\":5169:5221   */\n      tag_119\n      jump\t// in\n    tag_221:\n        /* \"#utility.yul\":5159:5221   */\n      swap2\n      pop\n        /* \"#utility.yul\":5114:5231   */\n      pop\n        /* \"#utility.yul\":4586:5238   */\n      swap3\n      pop\n      swap3\n      swap1\n      pop\n      jump\t// out\n        /* \"#utility.yul\":5244:5569   */\n    tag_28:\n        /* \"#utility.yul\":5301:5307   */\n      0x00\n        /* \"#utility.yul\":5350:5352   */\n      0x20\n        /* \"#utility.yul\":5338:5347   */\n      dup3\n        /* \"#utility.yul\":5329:5336   */\n      dup5\n        /* \"#utility.yul\":5325:5348   */\n      sub\n        /* \"#utility.yul\":5321:5353   */\n      slt\n        /* \"#utility.yul\":5318:5437   */\n      iszero\n      tag_223\n      jumpi\n        /* \"#utility.yul\":5356:5435   */\n      tag_224\n      tag_109\n      jump\t// in\n    tag_224:\n        /* \"#utility.yul\":5318:5437   */\n    tag_223:\n        /* \"#utility.yul\":5476:5477   */\n      0x00\n        /* \"#utility.yul\":5501:5552   */\n      tag_225\n        /* \"#utility.yul\":5544:5551   */\n      dup5\n        /* \"#utility.yul\":5535:5541   */\n      dup3\n        /* \"#utility.yul\":5524:5533   */\n      dup6\n        /* \"#utility.yul\":5520:5542   */\n      add\n        /* \"#utility.yul\":5501:5552   */\n      tag_113\n      jump\t// in\n    tag_225:\n        /* \"#utility.yul\":5491:5552   */\n      swap2\n      pop\n        /* \"#utility.yul\":5447:5562   */\n      pop\n        /* \"#utility.yul\":5244:5569   */\n      swap3\n      swap2\n      pop\n      pop\n      jump\t// out\n        /* \"#utility.yul\":5575:5690   */\n    tag_130:\n        /* \"#utility.yul\":5660:5683   */\n      tag_227\n        /* \"#utility.yul\":5677:5682   */\n      dup2\n        /* \"#utility.yul\":5660:5683   */\n      tag_117\n      jump\t// in\n    tag_227:\n        /* \"#utility.yul\":5655:5658   */\n      dup3\n        /* \"#utility.yul\":5648:5684   */\n      mstore\n        /* \"#utility.yul\":5575:5690   */\n      pop\n      pop\n      jump\t// out\n        /* \"#utility.yul\":5696:5914   */\n    tag_31:\n        /* \"#utility.yul\":5787:5791   */\n      0x00\n        /* \"#utility.yul\":5825:5827   */\n      0x20\n        /* \"#utility.yul\":5814:5823   */\n      dup3\n        /* \"#utility.yul\":5810:5828   */\n      add\n        /* \"#utility.yul\":5802:5828   */\n      swap1\n      pop\n        /* \"#utility.yul\":5838:5907   */\n      tag_229\n        /* \"#utility.yul\":5904:5905   */\n      0x00\n        /* \"#utility.yul\":5893:5902   */\n      dup4\n        /* \"#utility.yul\":5889:5906   */\n      add\n        /* \"#utility.yul\":5880:5886   */\n      dup5\n        /* \"#utility.yul\":5838:5907   */\n      tag_130\n      jump\t// in\n    tag_229:\n        /* \"#utility.yul\":5696:5914   */\n      swap3\n      swap2\n      pop\n      pop\n      jump\t// out\n        /* \"#utility.yul\":5920:6038   */\n    tag_131:\n        /* \"#utility.yul\":6007:6031   */\n      tag_231\n        /* \"#utility.yul\":6025:6030   */\n      dup2\n        /* \"#utility.yul\":6007:6031   */\n      tag_114\n      jump\t// in\n    tag_231:\n        /* \"#utility.yul\":6002:6005   */\n      dup3\n        /* \"#utility.yul\":5995:6032   */\n      mstore\n        /* \"#utility.yul\":5920:6038   */\n      pop\n      pop\n      jump\t// out\n        /* \"#utility.yul\":6044:6134   */\n    tag_132:\n        /* \"#utility.yul\":6078:6085   */\n      0x00\n        /* \"#utility.yul\":6121:6126   */\n      dup2\n        /* \"#utility.yul\":6114:6127   */\n      iszero\n        /* \"#utility.yul\":6107:6128   */\n      iszero\n        /* \"#utility.yul\":6096:6128   */\n      swap1\n      pop\n        /* \"#utility.yul\":6044:6134   */\n      swap2\n      swap1\n      pop\n      jump\t// out\n        /* \"#utility.yul\":6140:6249   */\n    tag_133:\n        /* \"#utility.yul\":6221:6242   */\n      tag_234\n        /* \"#utility.yul\":6236:6241   */\n      dup2\n        /* \"#utility.yul\":6221:6242   */\n      tag_132\n      jump\t// in\n    tag_234:\n        /* \"#utility.yul\":6216:6219   */\n      dup3\n        /* \"#utility.yul\":6209:6243   */\n      mstore\n        /* \"#utility.yul\":6140:6249   */\n      pop\n      pop\n      jump\t// out\n        /* \"#utility.yul\":6255:6895   */\n    tag_36:\n        /* \"#utility.yul\":6448:6452   */\n      0x00\n        /* \"#utility.yul\":6486:6489   */\n      0xa0\n        /* \"#utility.yul\":6475:6484   */\n      dup3\n        /* \"#utility.yul\":6471:6490   */\n      add\n        /* \"#utility.yul\":6463:6490   */\n      swap1\n      pop\n        /* \"#utility.yul\":6500:6571   */\n      tag_236\n        /* \"#utility.yul\":6568:6569   */\n      0x00\n        /* \"#utility.yul\":6557:6566   */\n      dup4\n        /* \"#utility.yul\":6553:6570   */\n      add\n        /* \"#utility.yul\":6544:6550   */\n      dup9\n        /* \"#utility.yul\":6500:6571   */\n      tag_131\n      jump\t// in\n    tag_236:\n        /* \"#utility.yul\":6581:6651   */\n      tag_237\n        /* \"#utility.yul\":6647:6649   */\n      0x20\n        /* \"#utility.yul\":6636:6645   */\n      dup4\n        /* \"#utility.yul\":6632:6650   */\n      add\n        /* \"#utility.yul\":6623:6629   */\n      dup8\n        /* \"#utility.yul\":6581:6651   */\n      tag_130\n      jump\t// in\n    tag_237:\n        /* \"#utility.yul\":6661:6731   */\n      tag_238\n        /* \"#utility.yul\":6727:6729   */\n      0x40\n        /* \"#utility.yul\":6716:6725   */\n      dup4\n        /* \"#utility.yul\":6712:6730   */\n      add\n        /* \"#utility.yul\":6703:6709   */\n      dup7\n        /* \"#utility.yul\":6661:6731   */\n      tag_130\n      jump\t// in\n    tag_238:\n        /* \"#utility.yul\":6741:6811   */\n      tag_239\n        /* \"#utility.yul\":6807:6809   */\n      0x60\n        /* \"#utility.yul\":6796:6805   */\n      dup4\n        /* \"#utility.yul\":6792:6810   */\n      add\n        /* \"#utility.yul\":6783:6789   */\n      dup6\n        /* \"#utility.yul\":6741:6811   */\n      tag_130\n      jump\t// in\n    tag_239:\n        /* \"#utility.yul\":6821:6888   */\n      tag_240\n        /* \"#utility.yul\":6883:6886   */\n      0x80\n        /* \"#utility.yul\":6872:6881   */\n      dup4\n        /* \"#utility.yul\":6868:6887   */\n      add\n        /* \"#utility.yul\":6859:6865   */\n      dup5\n        /* \"#utility.yul\":6821:6888   */\n      tag_133\n      jump\t// in\n    tag_240:\n        /* \"#utility.yul\":6255:6895   */\n      swap7\n      swap6\n      pop\n      pop\n      pop\n      pop\n      pop\n      pop\n      jump\t// out\n        /* \"#utility.yul\":6901:7013   */\n    tag_134:\n        /* \"#utility.yul\":6984:7006   */\n      tag_242\n        /* \"#utility.yul\":7000:7005   */\n      dup2\n        /* \"#utility.yul\":6984:7006   */\n      tag_111\n      jump\t// in\n    tag_242:\n        /* \"#utility.yul\":6979:6982   */\n      dup3\n        /* \"#utility.yul\":6972:7007   */\n      mstore\n        /* \"#utility.yul\":6901:7013   */\n      pop\n      pop\n      jump\t// out\n        /* \"#utility.yul\":7019:7233   */\n    tag_43:\n        /* \"#utility.yul\":7108:7112   */\n      0x00\n        /* \"#utility.yul\":7146:7148   */\n      0x20\n        /* \"#utility.yul\":7135:7144   */\n      dup3\n        /* \"#utility.yul\":7131:7149   */\n      add\n        /* \"#utility.yul\":7123:7149   */\n      swap1\n      pop\n        /* \"#utility.yul\":7159:7226   */\n      tag_244\n        /* \"#utility.yul\":7223:7224   */\n      0x00\n        /* \"#utility.yul\":7212:7221   */\n      dup4\n        /* \"#utility.yul\":7208:7225   */\n      add\n        /* \"#utility.yul\":7199:7205   */\n      dup5\n        /* \"#utility.yul\":7159:7226   */\n      tag_134\n      jump\t// in\n    tag_244:\n        /* \"#utility.yul\":7019:7233   */\n      swap3\n      swap2\n      pop\n      pop\n      jump\t// out\n        /* \"#utility.yul\":7239:7748   */\n    tag_46:\n        /* \"#utility.yul\":7308:7314   */\n      0x00\n        /* \"#utility.yul\":7357:7359   */\n      0x20\n        /* \"#utility.yul\":7345:7354   */\n      dup3\n        /* \"#utility.yul\":7336:7343   */\n      dup5\n        /* \"#utility.yul\":7332:7355   */\n      sub\n        /* \"#utility.yul\":7328:7360   */\n      slt\n        /* \"#utility.yul\":7325:7444   */\n      iszero\n      tag_246\n      jumpi\n        /* \"#utility.yul\":7363:7442   */\n      tag_247\n      tag_109\n      jump\t// in\n    tag_247:\n        /* \"#utility.yul\":7325:7444   */\n    tag_246:\n        /* \"#utility.yul\":7511:7512   */\n      0x00\n        /* \"#utility.yul\":7500:7509   */\n      dup3\n        /* \"#utility.yul\":7496:7513   */\n      add\n        /* \"#utility.yul\":7483:7514   */\n      calldataload\n        /* \"#utility.yul\":7541:7559   */\n      0xffffffffffffffff\n        /* \"#utility.yul\":7533:7539   */\n      dup2\n        /* \"#utility.yul\":7530:7560   */\n      gt\n        /* \"#utility.yul\":7527:7644   */\n      iszero\n      tag_248\n      jumpi\n        /* \"#utility.yul\":7563:7642   */\n      tag_249\n      tag_110\n      jump\t// in\n    tag_249:\n        /* \"#utility.yul\":7527:7644   */\n    tag_248:\n        /* \"#utility.yul\":7668:7731   */\n      tag_250\n        /* \"#utility.yul\":7723:7730   */\n      dup5\n        /* \"#utility.yul\":7714:7720   */\n      dup3\n        /* \"#utility.yul\":7703:7712   */\n      dup6\n        /* \"#utility.yul\":7699:7721   */\n      add\n        /* \"#utility.yul\":7668:7731   */\n      tag_129\n      jump\t// in\n    tag_250:\n        /* \"#utility.yul\":7658:7731   */\n      swap2\n      pop\n        /* \"#utility.yul\":7454:7741   */\n      pop\n        /* \"#utility.yul\":7239:7748   */\n      swap3\n      swap2\n      pop\n      pop\n      jump\t// out\n        /* \"#utility.yul\":7754:7976   */\n    tag_49:\n        /* \"#utility.yul\":7847:7851   */\n      0x00\n        /* \"#utility.yul\":7885:7887   */\n      0x20\n        /* \"#utility.yul\":7874:7883   */\n      dup3\n        /* \"#utility.yul\":7870:7888   */\n      add\n        /* \"#utility.yul\":7862:7888   */\n      swap1\n      pop\n        /* \"#utility.yul\":7898:7969   */\n      tag_252\n        /* \"#utility.yul\":7966:7967   */\n      0x00\n        /* \"#utility.yul\":7955:7964   */\n      dup4\n        /* \"#utility.yul\":7951:7968   */\n      add\n        /* \"#utility.yul\":7942:7948   */\n      dup5\n        /* \"#utility.yul\":7898:7969   */\n      tag_131\n      jump\t// in\n    tag_252:\n        /* \"#utility.yul\":7754:7976   */\n      swap3\n      swap2\n      pop\n      pop\n      jump\t// out\n        /* \"#utility.yul\":7982:8108   */\n    tag_135:\n        /* \"#utility.yul\":8019:8026   */\n      0x00\n        /* \"#utility.yul\":8059:8101   */\n      0xffffffffffffffffffffffffffffffffffffffff\n        /* \"#utility.yul\":8052:8057   */\n      dup3\n        /* \"#utility.yul\":8048:8102   */\n      and\n        /* \"#utility.yul\":8037:8102   */\n      swap1\n      pop\n        /* \"#utility.yul\":7982:8108   */\n      swap2\n      swap1\n      pop\n      jump\t// out\n        /* \"#utility.yul\":8114:8210   */\n    tag_136:\n        /* \"#utility.yul\":8151:8158   */\n      0x00\n        /* \"#utility.yul\":8180:8204   */\n      tag_255\n        /* \"#utility.yul\":8198:8203   */\n      dup3\n        /* \"#utility.yul\":8180:8204   */\n      tag_135\n      jump\t// in\n    tag_255:\n        /* \"#utility.yul\":8169:8204   */\n      swap1\n      pop\n        /* \"#utility.yul\":8114:8210   */\n      swap2\n      swap1\n      pop\n      jump\t// out\n        /* \"#utility.yul\":8216:8338   */\n    tag_137:\n        /* \"#utility.yul\":8289:8313   */\n      tag_257\n        /* \"#utility.yul\":8307:8312   */\n      dup2\n        /* \"#utility.yul\":8289:8313   */\n      tag_136\n      jump\t// in\n    tag_257:\n        /* \"#utility.yul\":8282:8287   */\n      dup2\n        /* \"#utility.yul\":8279:8314   */\n      eq\n        /* \"#utility.yul\":8269:8332   */\n      tag_258\n      jumpi\n        /* \"#utility.yul\":8328:8329   */\n      0x00\n        /* \"#utility.yul\":8325:8326   */\n      dup1\n        /* \"#utility.yul\":8318:8330   */\n      revert\n        /* \"#utility.yul\":8269:8332   */\n    tag_258:\n        /* \"#utility.yul\":8216:8338   */\n      pop\n      jump\t// out\n        /* \"#utility.yul\":8344:8483   */\n    tag_138:\n        /* \"#utility.yul\":8390:8395   */\n      0x00\n        /* \"#utility.yul\":8428:8434   */\n      dup2\n        /* \"#utility.yul\":8415:8435   */\n      calldataload\n        /* \"#utility.yul\":8406:8435   */\n      swap1\n      pop\n        /* \"#utility.yul\":8444:8477   */\n      tag_260\n        /* \"#utility.yul\":8471:8476   */\n      dup2\n        /* \"#utility.yul\":8444:8477   */\n      tag_137\n      jump\t// in\n    tag_260:\n        /* \"#utility.yul\":8344:8483   */\n      swap3\n      swap2\n      pop\n      pop\n      jump\t// out\n        /* \"#utility.yul\":8489:8959   */\n    tag_52:\n        /* \"#utility.yul\":8555:8561   */\n      0x00\n        /* \"#utility.yul\":8563:8569   */\n      dup1\n        /* \"#utility.yul\":8612:8614   */\n      0x40\n        /* \"#utility.yul\":8600:8609   */\n      dup4\n        /* \"#utility.yul\":8591:8598   */\n      dup6\n        /* \"#utility.yul\":8587:8610   */\n      sub\n        /* \"#utility.yul\":8583:8615   */\n      slt\n        /* \"#utility.yul\":8580:8699   */\n      iszero\n      tag_262\n      jumpi\n        /* \"#utility.yul\":8618:8697   */\n      tag_263\n      tag_109\n      jump\t// in\n    tag_263:\n        /* \"#utility.yul\":8580:8699   */\n    tag_262:\n        /* \"#utility.yul\":8738:8739   */\n      0x00\n        /* \"#utility.yul\":8763:8816   */\n      tag_264\n        /* \"#utility.yul\":8808:8815   */\n      dup6\n        /* \"#utility.yul\":8799:8805   */\n      dup3\n        /* \"#utility.yul\":8788:8797   */\n      dup7\n        /* \"#utility.yul\":8784:8806   */\n      add\n        /* \"#utility.yul\":8763:8816   */\n      tag_138\n      jump\t// in\n    tag_264:\n        /* \"#utility.yul\":8753:8816   */\n      swap3\n      pop\n        /* \"#utility.yul\":8709:8826   */\n      pop\n        /* \"#utility.yul\":8865:8867   */\n      0x20\n        /* \"#utility.yul\":8891:8942   */\n      tag_265\n        /* \"#utility.yul\":8934:8941   */\n      dup6\n        /* \"#utility.yul\":8925:8931   */\n      dup3\n        /* \"#utility.yul\":8914:8923   */\n      dup7\n        /* \"#utility.yul\":8910:8932   */\n      add\n        /* \"#utility.yul\":8891:8942   */\n      tag_113\n      jump\t// in\n    tag_265:\n        /* \"#utility.yul\":8881:8942   */\n      swap2\n      pop\n        /* \"#utility.yul\":8836:8952   */\n      pop\n        /* \"#utility.yul\":8489:8959   */\n      swap3\n      pop\n      swap3\n      swap1\n      pop\n      jump\t// out\n        /* \"#utility.yul\":8965:9175   */\n    tag_55:\n        /* \"#utility.yul\":9052:9056   */\n      0x00\n        /* \"#utility.yul\":9090:9092   */\n      0x20\n        /* \"#utility.yul\":9079:9088   */\n      dup3\n        /* \"#utility.yul\":9075:9093   */\n      add\n        /* \"#utility.yul\":9067:9093   */\n      swap1\n      pop\n        /* \"#utility.yul\":9103:9168   */\n      tag_267\n        /* \"#utility.yul\":9165:9166   */\n      0x00\n        /* \"#utility.yul\":9154:9163   */\n      dup4\n        /* \"#utility.yul\":9150:9167   */\n      add\n        /* \"#utility.yul\":9141:9147   */\n      dup5\n        /* \"#utility.yul\":9103:9168   */\n      tag_133\n      jump\t// in\n    tag_267:\n        /* \"#utility.yul\":8965:9175   */\n      swap3\n      swap2\n      pop\n      pop\n      jump\t// out\n        /* \"#utility.yul\":9181:9920   */\n    tag_60:\n        /* \"#utility.yul\":9396:9400   */\n      0x00\n        /* \"#utility.yul\":9434:9437   */\n      0xc0\n        /* \"#utility.yul\":9423:9432   */\n      dup3\n        /* \"#utility.yul\":9419:9438   */\n      add\n        /* \"#utility.yul\":9411:9438   */\n      swap1\n      pop\n        /* \"#utility.yul\":9448:9519   */\n      tag_269\n        /* \"#utility.yul\":9516:9517   */\n      0x00\n        /* \"#utility.yul\":9505:9514   */\n      dup4\n        /* \"#utility.yul\":9501:9518   */\n      add\n        /* \"#utility.yul\":9492:9498   */\n      dup10\n        /* \"#utility.yul\":9448:9519   */\n      tag_131\n      jump\t// in\n    tag_269:\n        /* \"#utility.yul\":9529:9599   */\n      tag_270\n        /* \"#utility.yul\":9595:9597   */\n      0x20\n        /* \"#utility.yul\":9584:9593   */\n      dup4\n        /* \"#utility.yul\":9580:9598   */\n      add\n        /* \"#utility.yul\":9571:9577   */\n      dup9\n        /* \"#utility.yul\":9529:9599   */\n      tag_130\n      jump\t// in\n    tag_270:\n        /* \"#utility.yul\":9609:9679   */\n      tag_271\n        /* \"#utility.yul\":9675:9677   */\n      0x40\n        /* \"#utility.yul\":9664:9673   */\n      dup4\n        /* \"#utility.yul\":9660:9678   */\n      add\n        /* \"#utility.yul\":9651:9657   */\n      dup8\n        /* \"#utility.yul\":9609:9679   */\n      tag_130\n      jump\t// in\n    tag_271:\n        /* \"#utility.yul\":9689:9759   */\n      tag_272\n        /* \"#utility.yul\":9755:9757   */\n      0x60\n        /* \"#utility.yul\":9744:9753   */\n      dup4\n        /* \"#utility.yul\":9740:9758   */\n      add\n        /* \"#utility.yul\":9731:9737   */\n      dup7\n        /* \"#utility.yul\":9689:9759   */\n      tag_130\n      jump\t// in\n    tag_272:\n        /* \"#utility.yul\":9769:9836   */\n      tag_273\n        /* \"#utility.yul\":9831:9834   */\n      0x80\n        /* \"#utility.yul\":9820:9829   */\n      dup4\n        /* \"#utility.yul\":9816:9835   */\n      add\n        /* \"#utility.yul\":9807:9813   */\n      dup6\n        /* \"#utility.yul\":9769:9836   */\n      tag_133\n      jump\t// in\n    tag_273:\n        /* \"#utility.yul\":9846:9913   */\n      tag_274\n        /* \"#utility.yul\":9908:9911   */\n      0xa0\n        /* \"#utility.yul\":9897:9906   */\n      dup4\n        /* \"#utility.yul\":9893:9912   */\n      add\n        /* \"#utility.yul\":9884:9890   */\n      dup5\n        /* \"#utility.yul\":9846:9913   */\n      tag_133\n      jump\t// in\n    tag_274:\n        /* \"#utility.yul\":9181:9920   */\n      swap8\n      swap7\n      pop\n      pop\n      pop\n      pop\n      pop\n      pop\n      pop\n      jump\t// out\n        /* \"#utility.yul\":9926:10095   */\n    tag_139:\n        /* \"#utility.yul\":10010:10021   */\n      0x00\n        /* \"#utility.yul\":10044:10050   */\n      dup3\n        /* \"#utility.yul\":10039:10042   */\n      dup3\n        /* \"#utility.yul\":10032:10051   */\n      mstore\n        /* \"#utility.yul\":10084:10088   */\n      0x20\n        /* \"#utility.yul\":10079:10082   */\n      dup3\n        /* \"#utility.yul\":10075:10089   */\n      add\n        /* \"#utility.yul\":10060:10089   */\n      swap1\n      pop\n        /* \"#utility.yul\":9926:10095   */\n      swap3\n      swap2\n      pop\n      pop\n      jump\t// out\n        /* \"#utility.yul\":10101:10267   */\n    tag_140:\n        /* \"#utility.yul\":10241:10259   */\n      0x496e76616c69642070726f706f73616c00000000000000000000000000000000\n        /* \"#utility.yul\":10237:10238   */\n      0x00\n        /* \"#utility.yul\":10229:10235   */\n      dup3\n        /* \"#utility.yul\":10225:10239   */\n      add\n        /* \"#utility.yul\":10218:10260   */\n      mstore\n        /* \"#utility.yul\":10101:10267   */\n      pop\n      jump\t// out\n        /* \"#utility.yul\":10273:10639   */\n    tag_141:\n        /* \"#utility.yul\":10415:10418   */\n      0x00\n        /* \"#utility.yul\":10436:10503   */\n      tag_278\n        /* \"#utility.yul\":10500:10502   */\n      0x10\n        /* \"#utility.yul\":10495:10498   */\n      dup4\n        /* \"#utility.yul\":10436:10503   */\n      tag_139\n      jump\t// in\n    tag_278:\n        /* \"#utility.yul\":10429:10503   */\n      swap2\n      pop\n        /* \"#utility.yul\":10512:10605   */\n      tag_279\n        /* \"#utility.yul\":10601:10604   */\n      dup3\n        /* \"#utility.yul\":10512:10605   */\n      tag_140\n      jump\t// in\n    tag_279:\n        /* \"#utility.yul\":10630:10632   */\n      0x20\n        /* \"#utility.yul\":10625:10628   */\n      dup3\n        /* \"#utility.yul\":10621:10633   */\n      add\n        /* \"#utility.yul\":10614:10633   */\n      swap1\n      pop\n        /* \"#utility.yul\":10273:10639   */\n      swap2\n      swap1\n      pop\n      jump\t// out\n        /* \"#utility.yul\":10645:11064   */\n    tag_64:\n        /* \"#utility.yul\":10811:10815   */\n      0x00\n        /* \"#utility.yul\":10849:10851   */\n      0x20\n        /* \"#utility.yul\":10838:10847   */\n      dup3\n        /* \"#utility.yul\":10834:10852   */\n      add\n        /* \"#utility.yul\":10826:10852   */\n      swap1\n      pop\n        /* \"#utility.yul\":10898:10907   */\n      dup2\n        /* \"#utility.yul\":10892:10896   */\n      dup2\n        /* \"#utility.yul\":10888:10908   */\n      sub\n        /* \"#utility.yul\":10884:10885   */\n      0x00\n        /* \"#utility.yul\":10873:10882   */\n      dup4\n        /* \"#utility.yul\":10869:10886   */\n      add\n        /* \"#utility.yul\":10862:10909   */\n      mstore\n        /* \"#utility.yul\":10926:11057   */\n      tag_281\n        /* \"#utility.yul\":11052:11056   */\n      dup2\n        /* \"#utility.yul\":10926:11057   */\n      tag_141\n      jump\t// in\n    tag_281:\n        /* \"#utility.yul\":10918:11057   */\n      swap1\n      pop\n        /* \"#utility.yul\":10645:11064   */\n      swap2\n      swap1\n      pop\n      jump\t// out\n        /* \"#utility.yul\":11070:11243   */\n    tag_142:\n        /* \"#utility.yul\":11210:11235   */\n      0x566f74696e67206973207374696c6c206f6e676f696e67000000000000000000\n        /* \"#utility.yul\":11206:11207   */\n      0x00\n        /* \"#utility.yul\":11198:11204   */\n      dup3\n        /* \"#utility.yul\":11194:11208   */\n      add\n        /* \"#utility.yul\":11187:11236   */\n      mstore\n        /* \"#utility.yul\":11070:11243   */\n      pop\n      jump\t// out\n        /* \"#utility.yul\":11249:11615   */\n    tag_143:\n        /* \"#utility.yul\":11391:11394   */\n      0x00\n        /* \"#utility.yul\":11412:11479   */\n      tag_284\n        /* \"#utility.yul\":11476:11478   */\n      0x17\n        /* \"#utility.yul\":11471:11474   */\n      dup4\n        /* \"#utility.yul\":11412:11479   */\n      tag_139\n      jump\t// in\n    tag_284:\n        /* \"#utility.yul\":11405:11479   */\n      swap2\n      pop\n        /* \"#utility.yul\":11488:11581   */\n      tag_285\n        /* \"#utility.yul\":11577:11580   */\n      dup3\n        /* \"#utility.yul\":11488:11581   */\n      tag_142\n      jump\t// in\n    tag_285:\n        /* \"#utility.yul\":11606:11608   */\n      0x20\n        /* \"#utility.yul\":11601:11604   */\n      dup3\n        /* \"#utility.yul\":11597:11609   */\n      add\n        /* \"#utility.yul\":11590:11609   */\n      swap1\n      pop\n        /* \"#utility.yul\":11249:11615   */\n      swap2\n      swap1\n      pop\n      jump\t// out\n        /* \"#utility.yul\":11621:12040   */\n    tag_67:\n        /* \"#utility.yul\":11787:11791   */\n      0x00\n        /* \"#utility.yul\":11825:11827   */\n      0x20\n        /* \"#utility.yul\":11814:11823   */\n      dup3\n        /* \"#utility.yul\":11810:11828   */\n      add\n        /* \"#utility.yul\":11802:11828   */\n      swap1\n      pop\n        /* \"#utility.yul\":11874:11883   */\n      dup2\n        /* \"#utility.yul\":11868:11872   */\n      dup2\n        /* \"#utility.yul\":11864:11884   */\n      sub\n        /* \"#utility.yul\":11860:11861   */\n      0x00\n        /* \"#utility.yul\":11849:11858   */\n      dup4\n        /* \"#utility.yul\":11845:11862   */\n      add\n        /* \"#utility.yul\":11838:11885   */\n      mstore\n        /* \"#utility.yul\":11902:12033   */\n      tag_287\n        /* \"#utility.yul\":12028:12032   */\n      dup2\n        /* \"#utility.yul\":11902:12033   */\n      tag_143\n      jump\t// in\n    tag_287:\n        /* \"#utility.yul\":11894:12033   */\n      swap1\n      pop\n        /* \"#utility.yul\":11621:12040   */\n      swap2\n      swap1\n      pop\n      jump\t// out\n        /* \"#utility.yul\":12046:12221   */\n    tag_144:\n        /* \"#utility.yul\":12186:12213   */\n      0x50726f706f73616c20616c726561647920657865637574656400000000000000\n        /* \"#utility.yul\":12182:12183   */\n      0x00\n        /* \"#utility.yul\":12174:12180   */\n      dup3\n        /* \"#utility.yul\":12170:12184   */\n      add\n        /* \"#utility.yul\":12163:12214   */\n      mstore\n        /* \"#utility.yul\":12046:12221   */\n      pop\n      jump\t// out\n        /* \"#utility.yul\":12227:12593   */\n    tag_145:\n        /* \"#utility.yul\":12369:12372   */\n      0x00\n        /* \"#utility.yul\":12390:12457   */\n      tag_290\n        /* \"#utility.yul\":12454:12456   */\n      0x19\n        /* \"#utility.yul\":12449:12452   */\n      dup4\n        /* \"#utility.yul\":12390:12457   */\n      tag_139\n      jump\t// in\n    tag_290:\n        /* \"#utility.yul\":12383:12457   */\n      swap2\n      pop\n        /* \"#utility.yul\":12466:12559   */\n      tag_291\n        /* \"#utility.yul\":12555:12558   */\n      dup3\n        /* \"#utility.yul\":12466:12559   */\n      tag_144\n      jump\t// in\n    tag_291:\n        /* \"#utility.yul\":12584:12586   */\n      0x20\n        /* \"#utility.yul\":12579:12582   */\n      dup3\n        /* \"#utility.yul\":12575:12587   */\n      add\n        /* \"#utility.yul\":12568:12587   */\n      swap1\n      pop\n        /* \"#utility.yul\":12227:12593   */\n      swap2\n      swap1\n      pop\n      jump\t// out\n        /* \"#utility.yul\":12599:13018   */\n    tag_70:\n        /* \"#utility.yul\":12765:12769   */\n      0x00\n        /* \"#utility.yul\":12803:12805   */\n      0x20\n        /* \"#utility.yul\":12792:12801   */\n      dup3\n        /* \"#utility.yul\":12788:12806   */\n      add\n        /* \"#utility.yul\":12780:12806   */\n      swap1\n      pop\n        /* \"#utility.yul\":12852:12861   */\n      dup2\n        /* \"#utility.yul\":12846:12850   */\n      dup2\n        /* \"#utility.yul\":12842:12862   */\n      sub\n        /* \"#utility.yul\":12838:12839   */\n      0x00\n        /* \"#utility.yul\":12827:12836   */\n      dup4\n        /* \"#utility.yul\":12823:12840   */\n      add\n        /* \"#utility.yul\":12816:12863   */\n      mstore\n        /* \"#utility.yul\":12880:13011   */\n      tag_293\n        /* \"#utility.yul\":13006:13010   */\n      dup2\n        /* \"#utility.yul\":12880:13011   */\n      tag_145\n      jump\t// in\n    tag_293:\n        /* \"#utility.yul\":12872:13011   */\n      swap1\n      pop\n        /* \"#utility.yul\":12599:13018   */\n      swap2\n      swap1\n      pop\n      jump\t// out\n        /* \"#utility.yul\":13024:13205   */\n    tag_146:\n        /* \"#utility.yul\":13164:13197   */\n      0x4475726174696f6e206d7573742062652067726561746572207468616e203000\n        /* \"#utility.yul\":13160:13161   */\n      0x00\n        /* \"#utility.yul\":13152:13158   */\n      dup3\n        /* \"#utility.yul\":13148:13162   */\n      add\n        /* \"#utility.yul\":13141:13198   */\n      mstore\n        /* \"#utility.yul\":13024:13205   */\n      pop\n      jump\t// out\n        /* \"#utility.yul\":13211:13577   */\n    tag_147:\n        /* \"#utility.yul\":13353:13356   */\n      0x00\n        /* \"#utility.yul\":13374:13441   */\n      tag_296\n        /* \"#utility.yul\":13438:13440   */\n      0x1f\n        /* \"#utility.yul\":13433:13436   */\n      dup4\n        /* \"#utility.yul\":13374:13441   */\n      tag_139\n      jump\t// in\n    tag_296:\n        /* \"#utility.yul\":13367:13441   */\n      swap2\n      pop\n        /* \"#utility.yul\":13450:13543   */\n      tag_297\n        /* \"#utility.yul\":13539:13542   */\n      dup3\n        /* \"#utility.yul\":13450:13543   */\n      tag_146\n      jump\t// in\n    tag_297:\n        /* \"#utility.yul\":13568:13570   */\n      0x20\n        /* \"#utility.yul\":13563:13566   */\n      dup3\n        /* \"#utility.yul\":13559:13571   */\n      add\n        /* \"#utility.yul\":13552:13571   */\n      swap1\n      pop\n        /* \"#utility.yul\":13211:13577   */\n      swap2\n      swap1\n      pop\n      jump\t// out\n        /* \"#utility.yul\":13583:14002   */\n    tag_74:\n        /* \"#utility.yul\":13749:13753   */\n      0x00\n        /* \"#utility.yul\":13787:13789   */\n      0x20\n        /* \"#utility.yul\":13776:13785   */\n      dup3\n        /* \"#utility.yul\":13772:13790   */\n      add\n        /* \"#utility.yul\":13764:13790   */\n      swap1\n      pop\n        /* \"#utility.yul\":13836:13845   */\n      dup2\n        /* \"#utility.yul\":13830:13834   */\n      dup2\n        /* \"#utility.yul\":13826:13846   */\n      sub\n        /* \"#utility.yul\":13822:13823   */\n      0x00\n        /* \"#utility.yul\":13811:13820   */\n      dup4\n        /* \"#utility.yul\":13807:13824   */\n      add\n        /* \"#utility.yul\":13800:13847   */\n      mstore\n        /* \"#utility.yul\":13864:13995   */\n      tag_299\n        /* \"#utility.yul\":13990:13994   */\n      dup2\n        /* \"#utility.yul\":13864:13995   */\n      tag_147\n      jump\t// in\n    tag_299:\n        /* \"#utility.yul\":13856:13995   */\n      swap1\n      pop\n        /* \"#utility.yul\":13583:14002   */\n      swap2\n      swap1\n      pop\n      jump\t// out\n        /* \"#utility.yul\":14008:14188   */\n    tag_148:\n        /* \"#utility.yul\":14056:14133   */\n      0x4e487b7100000000000000000000000000000000000000000000000000000000\n        /* \"#utility.yul\":14053:14054   */\n      0x00\n        /* \"#utility.yul\":14046:14134   */\n      mstore\n        /* \"#utility.yul\":14153:14157   */\n      0x11\n        /* \"#utility.yul\":14150:14151   */\n      0x04\n        /* \"#utility.yul\":14143:14158   */\n      mstore\n        /* \"#utility.yul\":14177:14181   */\n      0x24\n        /* \"#utility.yul\":14174:14175   */\n      0x00\n        /* \"#utility.yul\":14167:14182   */\n      revert\n        /* \"#utility.yul\":14194:14361   */\n    tag_76:\n        /* \"#utility.yul\":14231:14234   */\n      0x00\n        /* \"#utility.yul\":14254:14276   */\n      tag_302\n        /* \"#utility.yul\":14270:14275   */\n      dup3\n        /* \"#utility.yul\":14254:14276   */\n      tag_111\n      jump\t// in\n    tag_302:\n        /* \"#utility.yul\":14245:14276   */\n      swap2\n      pop\n        /* \"#utility.yul\":14298:14302   */\n      0xff\n        /* \"#utility.yul\":14291:14296   */\n      dup3\n        /* \"#utility.yul\":14288:14303   */\n      sub\n        /* \"#utility.yul\":14285:14326   */\n      tag_303\n      jumpi\n        /* \"#utility.yul\":14306:14324   */\n      tag_304\n      tag_148\n      jump\t// in\n    tag_304:\n        /* \"#utility.yul\":14285:14326   */\n    tag_303:\n        /* \"#utility.yul\":14353:14354   */\n      0x01\n        /* \"#utility.yul\":14346:14351   */\n      dup3\n        /* \"#utility.yul\":14342:14355   */\n      add\n        /* \"#utility.yul\":14335:14355   */\n      swap1\n      pop\n        /* \"#utility.yul\":14194:14361   */\n      swap2\n      swap1\n      pop\n      jump\t// out\n        /* \"#utility.yul\":14367:14564   */\n    tag_78:\n        /* \"#utility.yul\":14406:14409   */\n      0x00\n        /* \"#utility.yul\":14425:14444   */\n      tag_306\n        /* \"#utility.yul\":14442:14443   */\n      dup3\n        /* \"#utility.yul\":14425:14444   */\n      tag_117\n      jump\t// in\n    tag_306:\n        /* \"#utility.yul\":14420:14444   */\n      swap2\n      pop\n        /* \"#utility.yul\":14458:14477   */\n      tag_307\n        /* \"#utility.yul\":14475:14476   */\n      dup4\n        /* \"#utility.yul\":14458:14477   */\n      tag_117\n      jump\t// in\n    tag_307:\n        /* \"#utility.yul\":14453:14477   */\n      swap3\n      pop\n        /* \"#utility.yul\":14500:14501   */\n      dup3\n        /* \"#utility.yul\":14497:14498   */\n      dup3\n        /* \"#utility.yul\":14493:14502   */\n      add\n        /* \"#utility.yul\":14486:14502   */\n      swap1\n      pop\n        /* \"#utility.yul\":14523:14533   */\n      0xffffffff\n        /* \"#utility.yul\":14518:14521   */\n      dup2\n        /* \"#utility.yul\":14515:14534   */\n      gt\n        /* \"#utility.yul\":14512:14557   */\n      iszero\n      tag_308\n      jumpi\n        /* \"#utility.yul\":14537:14555   */\n      tag_309\n      tag_148\n      jump\t// in\n    tag_309:\n        /* \"#utility.yul\":14512:14557   */\n    tag_308:\n        /* \"#utility.yul\":14367:14564   */\n      swap3\n      swap2\n      pop\n      pop\n      jump\t// out\n        /* \"#utility.yul\":14570:14742   */\n    tag_149:\n        /* \"#utility.yul\":14710:14734   */\n      0x566f74696e6720686173206e6f74207374617274656400000000000000000000\n        /* \"#utility.yul\":14706:14707   */\n      0x00\n        /* \"#utility.yul\":14698:14704   */\n      dup3\n        /* \"#utility.yul\":14694:14708   */\n      add\n        /* \"#utility.yul\":14687:14735   */\n      mstore\n        /* \"#utility.yul\":14570:14742   */\n      pop\n      jump\t// out\n        /* \"#utility.yul\":14748:15114   */\n    tag_150:\n        /* \"#utility.yul\":14890:14893   */\n      0x00\n        /* \"#utility.yul\":14911:14978   */\n      tag_312\n        /* \"#utility.yul\":14975:14977   */\n      0x16\n        /* \"#utility.yul\":14970:14973   */\n      dup4\n        /* \"#utility.yul\":14911:14978   */\n      tag_139\n      jump\t// in\n    tag_312:\n        /* \"#utility.yul\":14904:14978   */\n      swap2\n      pop\n        /* \"#utility.yul\":14987:15080   */\n      tag_313\n        /* \"#utility.yul\":15076:15079   */\n      dup3\n        /* \"#utility.yul\":14987:15080   */\n      tag_149\n      jump\t// in\n    tag_313:\n        /* \"#utility.yul\":15105:15107   */\n      0x20\n        /* \"#utility.yul\":15100:15103   */\n      dup3\n        /* \"#utility.yul\":15096:15108   */\n      add\n        /* \"#utility.yul\":15089:15108   */\n      swap1\n      pop\n        /* \"#utility.yul\":14748:15114   */\n      swap2\n      swap1\n      pop\n      jump\t// out\n        /* \"#utility.yul\":15120:15539   */\n    tag_88:\n        /* \"#utility.yul\":15286:15290   */\n      0x00\n        /* \"#utility.yul\":15324:15326   */\n      0x20\n        /* \"#utility.yul\":15313:15322   */\n      dup3\n        /* \"#utility.yul\":15309:15327   */\n      add\n        /* \"#utility.yul\":15301:15327   */\n      swap1\n      pop\n        /* \"#utility.yul\":15373:15382   */\n      dup2\n        /* \"#utility.yul\":15367:15371   */\n      dup2\n        /* \"#utility.yul\":15363:15383   */\n      sub\n        /* \"#utility.yul\":15359:15360   */\n      0x00\n        /* \"#utility.yul\":15348:15357   */\n      dup4\n        /* \"#utility.yul\":15344:15361   */\n      add\n        /* \"#utility.yul\":15337:15384   */\n      mstore\n        /* \"#utility.yul\":15401:15532   */\n      tag_315\n        /* \"#utility.yul\":15527:15531   */\n      dup2\n        /* \"#utility.yul\":15401:15532   */\n      tag_150\n      jump\t// in\n    tag_315:\n        /* \"#utility.yul\":15393:15532   */\n      swap1\n      pop\n        /* \"#utility.yul\":15120:15539   */\n      swap2\n      swap1\n      pop\n      jump\t// out\n        /* \"#utility.yul\":15545:15711   */\n    tag_151:\n        /* \"#utility.yul\":15685:15703   */\n      0x566f74696e672068617320656e64656400000000000000000000000000000000\n        /* \"#utility.yul\":15681:15682   */\n      0x00\n        /* \"#utility.yul\":15673:15679   */\n      dup3\n        /* \"#utility.yul\":15669:15683   */\n      add\n        /* \"#utility.yul\":15662:15704   */\n      mstore\n        /* \"#utility.yul\":15545:15711   */\n      pop\n      jump\t// out\n        /* \"#utility.yul\":15717:16083   */\n    tag_152:\n        /* \"#utility.yul\":15859:15862   */\n      0x00\n        /* \"#utility.yul\":15880:15947   */\n      tag_318\n        /* \"#utility.yul\":15944:15946   */\n      0x10\n        /* \"#utility.yul\":15939:15942   */\n      dup4\n        /* \"#utility.yul\":15880:15947   */\n      tag_139\n      jump\t// in\n    tag_318:\n        /* \"#utility.yul\":15873:15947   */\n      swap2\n      pop\n        /* \"#utility.yul\":15956:16049   */\n      tag_319\n        /* \"#utility.yul\":16045:16048   */\n      dup3\n        /* \"#utility.yul\":15956:16049   */\n      tag_151\n      jump\t// in\n    tag_319:\n        /* \"#utility.yul\":16074:16076   */\n      0x20\n        /* \"#utility.yul\":16069:16072   */\n      dup3\n        /* \"#utility.yul\":16065:16077   */\n      add\n        /* \"#utility.yul\":16058:16077   */\n      swap1\n      pop\n        /* \"#utility.yul\":15717:16083   */\n      swap2\n      swap1\n      pop\n      jump\t// out\n        /* \"#utility.yul\":16089:16508   */\n    tag_91:\n        /* \"#utility.yul\":16255:16259   */\n      0x00\n        /* \"#utility.yul\":16293:16295   */\n      0x20\n        /* \"#utility.yul\":16282:16291   */\n      dup3\n        /* \"#utility.yul\":16278:16296   */\n      add\n        /* \"#utility.yul\":16270:16296   */\n      swap1\n      pop\n        /* \"#utility.yul\":16342:16351   */\n      dup2\n        /* \"#utility.yul\":16336:16340   */\n      dup2\n        /* \"#utility.yul\":16332:16352   */\n      sub\n        /* \"#utility.yul\":16328:16329   */\n      0x00\n        /* \"#utility.yul\":16317:16326   */\n      dup4\n        /* \"#utility.yul\":16313:16330   */\n      add\n        /* \"#utility.yul\":16306:16353   */\n      mstore\n        /* \"#utility.yul\":16370:16501   */\n      tag_321\n        /* \"#utility.yul\":16496:16500   */\n      dup2\n        /* \"#utility.yul\":16370:16501   */\n      tag_152\n      jump\t// in\n    tag_321:\n        /* \"#utility.yul\":16362:16501   */\n      swap1\n      pop\n        /* \"#utility.yul\":16089:16508   */\n      swap2\n      swap1\n      pop\n      jump\t// out\n        /* \"#utility.yul\":16514:16695   */\n    tag_153:\n        /* \"#utility.yul\":16654:16687   */\n      0x416c726561647920766f74656420666f7220746869732070726f706f73616c00\n        /* \"#utility.yul\":16650:16651   */\n      0x00\n        /* \"#utility.yul\":16642:16648   */\n      dup3\n        /* \"#utility.yul\":16638:16652   */\n      add\n        /* \"#utility.yul\":16631:16688   */\n      mstore\n        /* \"#utility.yul\":16514:16695   */\n      pop\n      jump\t// out\n        /* \"#utility.yul\":16701:17067   */\n    tag_154:\n        /* \"#utility.yul\":16843:16846   */\n      0x00\n        /* \"#utility.yul\":16864:16931   */\n      tag_324\n        /* \"#utility.yul\":16928:16930   */\n      0x1f\n        /* \"#utility.yul\":16923:16926   */\n      dup4\n        /* \"#utility.yul\":16864:16931   */\n      tag_139\n      jump\t// in\n    tag_324:\n        /* \"#utility.yul\":16857:16931   */\n      swap2\n      pop\n        /* \"#utility.yul\":16940:17033   */\n      tag_325\n        /* \"#utility.yul\":17029:17032   */\n      dup3\n        /* \"#utility.yul\":16940:17033   */\n      tag_153\n      jump\t// in\n    tag_325:\n        /* \"#utility.yul\":17058:17060   */\n      0x20\n        /* \"#utility.yul\":17053:17056   */\n      dup3\n        /* \"#utility.yul\":17049:17061   */\n      add\n        /* \"#utility.yul\":17042:17061   */\n      swap1\n      pop\n        /* \"#utility.yul\":16701:17067   */\n      swap2\n      swap1\n      pop\n      jump\t// out\n        /* \"#utility.yul\":17073:17492   */\n    tag_94:\n        /* \"#utility.yul\":17239:17243   */\n      0x00\n        /* \"#utility.yul\":17277:17279   */\n      0x20\n        /* \"#utility.yul\":17266:17275   */\n      dup3\n        /* \"#utility.yul\":17262:17280   */\n      add\n        /* \"#utility.yul\":17254:17280   */\n      swap1\n      pop\n        /* \"#utility.yul\":17326:17335   */\n      dup2\n        /* \"#utility.yul\":17320:17324   */\n      dup2\n        /* \"#utility.yul\":17316:17336   */\n      sub\n        /* \"#utility.yul\":17312:17313   */\n      0x00\n        /* \"#utility.yul\":17301:17310   */\n      dup4\n        /* \"#utility.yul\":17297:17314   */\n      add\n        /* \"#utility.yul\":17290:17337   */\n      mstore\n        /* \"#utility.yul\":17354:17485   */\n      tag_327\n        /* \"#utility.yul\":17480:17484   */\n      dup2\n        /* \"#utility.yul\":17354:17485   */\n      tag_154\n      jump\t// in\n    tag_327:\n        /* \"#utility.yul\":17346:17485   */\n      swap1\n      pop\n        /* \"#utility.yul\":17073:17492   */\n      swap2\n      swap1\n      pop\n      jump\t// out\n        /* \"#utility.yul\":17498:17673   */\n    tag_96:\n        /* \"#utility.yul\":17536:17539   */\n      0x00\n        /* \"#utility.yul\":17559:17582   */\n      tag_329\n        /* \"#utility.yul\":17576:17581   */\n      dup3\n        /* \"#utility.yul\":17559:17582   */\n      tag_117\n      jump\t// in\n    tag_329:\n        /* \"#utility.yul\":17550:17582   */\n      swap2\n      pop\n        /* \"#utility.yul\":17604:17614   */\n      0xffffffff\n        /* \"#utility.yul\":17597:17602   */\n      dup3\n        /* \"#utility.yul\":17594:17615   */\n      sub\n        /* \"#utility.yul\":17591:17638   */\n      tag_330\n      jumpi\n        /* \"#utility.yul\":17618:17636   */\n      tag_331\n      tag_148\n      jump\t// in\n    tag_331:\n        /* \"#utility.yul\":17591:17638   */\n    tag_330:\n        /* \"#utility.yul\":17665:17666   */\n      0x01\n        /* \"#utility.yul\":17658:17663   */\n      dup3\n        /* \"#utility.yul\":17654:17667   */\n      add\n        /* \"#utility.yul\":17647:17667   */\n      swap1\n      pop\n        /* \"#utility.yul\":17498:17673   */\n      swap2\n      swap1\n      pop\n      jump\t// out\n        /* \"#utility.yul\":17679:17900   */\n    tag_155:\n        /* \"#utility.yul\":17819:17853   */\n      0x537472696e6720746f6f206c6f6e672c206d6178203332206368617261637465\n        /* \"#utility.yul\":17815:17816   */\n      0x00\n        /* \"#utility.yul\":17807:17813   */\n      dup3\n        /* \"#utility.yul\":17803:17817   */\n      add\n        /* \"#utility.yul\":17796:17854   */\n      mstore\n        /* \"#utility.yul\":17888:17892   */\n      0x7273000000000000000000000000000000000000000000000000000000000000\n        /* \"#utility.yul\":17883:17885   */\n      0x20\n        /* \"#utility.yul\":17875:17881   */\n      dup3\n        /* \"#utility.yul\":17871:17886   */\n      add\n        /* \"#utility.yul\":17864:17893   */\n      mstore\n        /* \"#utility.yul\":17679:17900   */\n      pop\n      jump\t// out\n        /* \"#utility.yul\":17906:18272   */\n    tag_156:\n        /* \"#utility.yul\":18048:18051   */\n      0x00\n        /* \"#utility.yul\":18069:18136   */\n      tag_334\n        /* \"#utility.yul\":18133:18135   */\n      0x22\n        /* \"#utility.yul\":18128:18131   */\n      dup4\n        /* \"#utility.yul\":18069:18136   */\n      tag_139\n      jump\t// in\n    tag_334:\n        /* \"#utility.yul\":18062:18136   */\n      swap2\n      pop\n        /* \"#utility.yul\":18145:18238   */\n      tag_335\n        /* \"#utility.yul\":18234:18237   */\n      dup3\n        /* \"#utility.yul\":18145:18238   */\n      tag_155\n      jump\t// in\n    tag_335:\n        /* \"#utility.yul\":18263:18265   */\n      0x40\n        /* \"#utility.yul\":18258:18261   */\n      dup3\n        /* \"#utility.yul\":18254:18266   */\n      add\n        /* \"#utility.yul\":18247:18266   */\n      swap1\n      pop\n        /* \"#utility.yul\":17906:18272   */\n      swap2\n      swap1\n      pop\n      jump\t// out\n        /* \"#utility.yul\":18278:18697   */\n    tag_102:\n        /* \"#utility.yul\":18444:18448   */\n      0x00\n        /* \"#utility.yul\":18482:18484   */\n      0x20\n        /* \"#utility.yul\":18471:18480   */\n      dup3\n        /* \"#utility.yul\":18467:18485   */\n      add\n        /* \"#utility.yul\":18459:18485   */\n      swap1\n      pop\n        /* \"#utility.yul\":18531:18540   */\n      dup2\n        /* \"#utility.yul\":18525:18529   */\n      dup2\n        /* \"#utility.yul\":18521:18541   */\n      sub\n        /* \"#utility.yul\":18517:18518   */\n      0x00\n        /* \"#utility.yul\":18506:18515   */\n      dup4\n        /* \"#utility.yul\":18502:18519   */\n      add\n        /* \"#utility.yul\":18495:18542   */\n      mstore\n        /* \"#utility.yul\":18559:18690   */\n      tag_337\n        /* \"#utility.yul\":18685:18689   */\n      dup2\n        /* \"#utility.yul\":18559:18690   */\n      tag_156\n      jump\t// in\n    tag_337:\n        /* \"#utility.yul\":18551:18690   */\n      swap1\n      pop\n        /* \"#utility.yul\":18278:18697   */\n      swap2\n      swap1\n      pop\n      jump\t// out\n\n    auxdata: 0xa2646970667358221220ab1bb647f3142eb60fef146435452c145d9769e8ff8aa16eca88727d04d2384364736f6c634300081a0033\n}\n",
				"bytecode": {
					"linkReferences": {},
					"object": "6080604052348015600e575f80fd5b506114cd8061001c5f395ff3fe608060405234801561000f575f80fd5b506004361061009c575f3560e01c8063b3f98adc11610064578063b3f98adc14610158578063be747c1c14610174578063cfb5192814610192578063d3c6a0f2146101c2578063dac001fe146101f25761009c565b80632c7a5907146100a057806359aef53c146100bc57806364552c4c146100d85780636760b1c0146100f457806384acf0f514610124575b5f80fd5b6100ba60048036038101906100b59190610b87565b610227565b005b6100d660048036038101906100d19190610c31565b6103bf565b005b6100f260048036038101906100ed9190610dab565b61058f565b005b61010e60048036038101906101099190610e05565b6105aa565b60405161011b9190610e3f565b60405180910390f35b61013e60048036038101906101399190610e05565b6105ca565b60405161014f959493929190610e81565b60405180910390f35b610172600480360381019061016d9190610e05565b610638565b005b61017c610950565b6040516101899190610ee1565b60405180910390f35b6101ac60048036038101906101a79190610efa565b610960565b6040516101b99190610f41565b60405180910390f35b6101dc60048036038101906101d79190610fb4565b6109cb565b6040516101e99190610ff2565b60405180910390f35b61020c60048036038101906102079190610e05565b610a1e565b60405161021e9695949392919061100b565b60405180910390f35b5f8054906101000a900460ff1660ff168260ff161061027b576040517f08c379a0000000000000000000000000000000000000000000000000000000008152600401610272906110c4565b60405180910390fd5b60015f8360ff1660ff1681526020019081526020015f2060010160089054906101000a900463ffffffff1663ffffffff1642116102ed576040517f08c379a00000000000000000000000000000000000000000000000000000000081526004016102e49061112c565b60405180910390fd5b60015f8360ff1660ff1681526020019081526020015f20600101600c9054906101000a900460ff1615610355576040517f08c379a000000000000000000000000000000000000000000000000000000000815260040161034c90611194565b60405180910390fd5b6001805f8460ff1660ff1681526020019081526020015f20600101600c6101000a81548160ff0219169083151502179055508060ff168260ff167f634308a703fa848b5be4aebed5da7930730a68e4b657d44e45fbdb5f6196112b60405160405180910390a35050565b5f8163ffffffff1611610407576040517f08c379a00000000000000000000000000000000000000000000000000000000081526004016103fe906111fc565b60405180910390fd5b5f805f9054906101000a900460ff1690505f8081819054906101000a900460ff168092919061043590611247565b91906101000a81548160ff021916908360ff160217905550505f6040518060a001604052808581526020015f63ffffffff1681526020014263ffffffff1681526020018442610484919061126f565b63ffffffff1681526020015f151581525090508060015f8460ff1660ff1681526020019081526020015f205f820151815f01556020820151816001015f6101000a81548163ffffffff021916908363ffffffff16021790555060408201518160010160046101000a81548163ffffffff021916908363ffffffff16021790555060608201518160010160086101000a81548163ffffffff021916908363ffffffff160217905550608082015181600101600c6101000a81548160ff0219169083151502179055509050508160ff167f778068a8b34cd2ab006c1c96cd8b819623539c5979eea060167a8376ab51ae26856040516105819190610f41565b60405180910390a250505050565b5f61059983610960565b90506105a581836103bf565b505050565b6003602052805f5260405f205f915054906101000a900463ffffffff1681565b6001602052805f5260405f205f91509050805f015490806001015f9054906101000a900463ffffffff16908060010160049054906101000a900463ffffffff16908060010160089054906101000a900463ffffffff169080600101600c9054906101000a900460ff16905085565b5f8054906101000a900460ff1660ff168160ff161061068c576040517f08c379a0000000000000000000000000000000000000000000000000000000008152600401610683906110c4565b60405180910390fd5b5f42905060015f8360ff1660ff1681526020019081526020015f2060010160049054906101000a900463ffffffff1663ffffffff168163ffffffff161015610709576040517f08c379a0000000000000000000000000000000000000000000000000000000008152600401610700906112f0565b60405180910390fd5b60015f8360ff1660ff1681526020019081526020015f2060010160089054906101000a900463ffffffff1663ffffffff168163ffffffff161115610782576040517f08c379a000000000000000000000000000000000000000000000000000000000815260040161077990611358565b60405180910390fd5b5f60025f3373ffffffffffffffffffffffffffffffffffffffff1673ffffffffffffffffffffffffffffffffffffffff1681526020019081526020015f205490505f8360ff166001901b90505f81831614610812576040517f08c379a0000000000000000000000000000000000000000000000000000000008152600401610809906113c0565b60405180910390fd5b80821760025f3373ffffffffffffffffffffffffffffffffffffffff1673ffffffffffffffffffffffffffffffffffffffff1681526020019081526020015f208190555060015f8560ff1660ff1681526020019081526020015f206001015f81819054906101000a900463ffffffff168092919061088f906113de565b91906101000a81548163ffffffff021916908363ffffffff1602179055505060035f8560ff1660ff1681526020019081526020015f205f81819054906101000a900463ffffffff16809291906108e4906113de565b91906101000a81548163ffffffff021916908363ffffffff160217905550508360ff163373ffffffffffffffffffffffffffffffffffffffff167f14075e33dffdc00c1fcaf75d0f86d667170be57fb566b12b41b499e5fa53b12560405160405180910390a350505050565b5f8054906101000a900460ff1681565b5f808290505f815103610978575f801b9150506109c6565b6020815111156109bd576040517f08c379a00000000000000000000000000000000000000000000000000000000081526004016109b490611479565b60405180910390fd5b60208301519150505b919050565b5f808260ff166001901b60025f8673ffffffffffffffffffffffffffffffffffffffff1673ffffffffffffffffffffffffffffffffffffffff1681526020019081526020015f2054161415905092915050565b5f805f805f805f8054906101000a900460ff1660ff168760ff1610610a78576040517f08c379a0000000000000000000000000000000000000000000000000000000008152600401610a6f906110c4565b60405180910390fd5b5f60015f8960ff1660ff1681526020019081526020015f209050805f0154816001015f9054906101000a900463ffffffff168260010160049054906101000a900463ffffffff168360010160089054906101000a900463ffffffff1684600101600c9054906101000a900460ff168560010160049054906101000a900463ffffffff1663ffffffff164210158015610b2a57508560010160089054906101000a900463ffffffff1663ffffffff164211155b9650965096509650965096505091939550919395565b5f604051905090565b5f80fd5b5f80fd5b5f60ff82169050919050565b610b6681610b51565b8114610b70575f80fd5b50565b5f81359050610b8181610b5d565b92915050565b5f8060408385031215610b9d57610b9c610b49565b5b5f610baa85828601610b73565b9250506020610bbb85828601610b73565b9150509250929050565b5f819050919050565b610bd781610bc5565b8114610be1575f80fd5b50565b5f81359050610bf281610bce565b92915050565b5f63ffffffff82169050919050565b610c1081610bf8565b8114610c1a575f80fd5b50565b5f81359050610c2b81610c07565b92915050565b5f8060408385031215610c4757610c46610b49565b5b5f610c5485828601610be4565b9250506020610c6585828601610c1d565b9150509250929050565b5f80fd5b5f80fd5b5f601f19601f8301169050919050565b7f4e487b71000000000000000000000000000000000000000000000000000000005f52604160045260245ffd5b610cbd82610c77565b810181811067ffffffffffffffff82111715610cdc57610cdb610c87565b5b80604052505050565b5f610cee610b40565b9050610cfa8282610cb4565b919050565b5f67ffffffffffffffff821115610d1957610d18610c87565b5b610d2282610c77565b9050602081019050919050565b828183375f83830152505050565b5f610d4f610d4a84610cff565b610ce5565b905082815260208101848484011115610d6b57610d6a610c73565b5b610d76848285610d2f565b509392505050565b5f82601f830112610d9257610d91610c6f565b5b8135610da2848260208601610d3d565b91505092915050565b5f8060408385031215610dc157610dc0610b49565b5b5f83013567ffffffffffffffff811115610dde57610ddd610b4d565b5b610dea85828601610d7e565b9250506020610dfb85828601610c1d565b9150509250929050565b5f60208284031215610e1a57610e19610b49565b5b5f610e2784828501610b73565b91505092915050565b610e3981610bf8565b82525050565b5f602082019050610e525f830184610e30565b92915050565b610e6181610bc5565b82525050565b5f8115159050919050565b610e7b81610e67565b82525050565b5f60a082019050610e945f830188610e58565b610ea16020830187610e30565b610eae6040830186610e30565b610ebb6060830185610e30565b610ec86080830184610e72565b9695505050505050565b610edb81610b51565b82525050565b5f602082019050610ef45f830184610ed2565b92915050565b5f60208284031215610f0f57610f0e610b49565b5b5f82013567ffffffffffffffff811115610f2c57610f2b610b4d565b5b610f3884828501610d7e565b91505092915050565b5f602082019050610f545f830184610e58565b92915050565b5f73ffffffffffffffffffffffffffffffffffffffff82169050919050565b5f610f8382610f5a565b9050919050565b610f9381610f79565b8114610f9d575f80fd5b50565b5f81359050610fae81610f8a565b92915050565b5f8060408385031215610fca57610fc9610b49565b5b5f610fd785828601610fa0565b9250506020610fe885828601610b73565b9150509250929050565b5f6020820190506110055f830184610e72565b92915050565b5f60c08201905061101e5f830189610e58565b61102b6020830188610e30565b6110386040830187610e30565b6110456060830186610e30565b6110526080830185610e72565b61105f60a0830184610e72565b979650505050505050565b5f82825260208201905092915050565b7f496e76616c69642070726f706f73616c000000000000000000000000000000005f82015250565b5f6110ae60108361106a565b91506110b98261107a565b602082019050919050565b5f6020820190508181035f8301526110db816110a2565b9050919050565b7f566f74696e67206973207374696c6c206f6e676f696e670000000000000000005f82015250565b5f61111660178361106a565b9150611121826110e2565b602082019050919050565b5f6020820190508181035f8301526111438161110a565b9050919050565b7f50726f706f73616c20616c7265616479206578656375746564000000000000005f82015250565b5f61117e60198361106a565b91506111898261114a565b602082019050919050565b5f6020820190508181035f8301526111ab81611172565b9050919050565b7f4475726174696f6e206d7573742062652067726561746572207468616e2030005f82015250565b5f6111e6601f8361106a565b91506111f1826111b2565b602082019050919050565b5f6020820190508181035f830152611213816111da565b9050919050565b7f4e487b71000000000000000000000000000000000000000000000000000000005f52601160045260245ffd5b5f61125182610b51565b915060ff82036112645761126361121a565b5b600182019050919050565b5f61127982610bf8565b915061128483610bf8565b9250828201905063ffffffff8111156112a05761129f61121a565b5b92915050565b7f566f74696e6720686173206e6f742073746172746564000000000000000000005f82015250565b5f6112da60168361106a565b91506112e5826112a6565b602082019050919050565b5f6020820190508181035f830152611307816112ce565b9050919050565b7f566f74696e672068617320656e646564000000000000000000000000000000005f82015250565b5f61134260108361106a565b915061134d8261130e565b602082019050919050565b5f6020820190508181035f83015261136f81611336565b9050919050565b7f416c726561647920766f74656420666f7220746869732070726f706f73616c005f82015250565b5f6113aa601f8361106a565b91506113b582611376565b602082019050919050565b5f6020820190508181035f8301526113d78161139e565b9050919050565b5f6113e882610bf8565b915063ffffffff82036113fe576113fd61121a565b5b600182019050919050565b7f537472696e6720746f6f206c6f6e672c206d61782033322063686172616374655f8201527f7273000000000000000000000000000000000000000000000000000000000000602082015250565b5f61146360228361106a565b915061146e82611409565b604082019050919050565b5f6020820190508181035f83015261149081611457565b905091905056fea2646970667358221220ab1bb647f3142eb60fef146435452c145d9769e8ff8aa16eca88727d04d2384364736f6c634300081a0033",
					"opcodes": "PUSH1 0x80 PUSH1 0x40 MSTORE CALLVALUE DUP1 ISZERO PUSH1 0xE JUMPI PUSH0 DUP1 REVERT JUMPDEST POP PUSH2 0x14CD DUP1 PUSH2 0x1C PUSH0 CODECOPY PUSH0 RETURN INVALID PUSH1 0x80 PUSH1 0x40 MSTORE CALLVALUE DUP1 ISZERO PUSH2 0xF JUMPI PUSH0 DUP1 REVERT JUMPDEST POP PUSH1 0x4 CALLDATASIZE LT PUSH2 0x9C JUMPI PUSH0 CALLDATALOAD PUSH1 0xE0 SHR DUP1 PUSH4 0xB3F98ADC GT PUSH2 0x64 JUMPI DUP1 PUSH4 0xB3F98ADC EQ PUSH2 0x158 JUMPI DUP1 PUSH4 0xBE747C1C EQ PUSH2 0x174 JUMPI DUP1 PUSH4 0xCFB51928 EQ PUSH2 0x192 JUMPI DUP1 PUSH4 0xD3C6A0F2 EQ PUSH2 0x1C2 JUMPI DUP1 PUSH4 0xDAC001FE EQ PUSH2 0x1F2 JUMPI PUSH2 0x9C JUMP JUMPDEST DUP1 PUSH4 0x2C7A5907 EQ PUSH2 0xA0 JUMPI DUP1 PUSH4 0x59AEF53C EQ PUSH2 0xBC JUMPI DUP1 PUSH4 0x64552C4C EQ PUSH2 0xD8 JUMPI DUP1 PUSH4 0x6760B1C0 EQ PUSH2 0xF4 JUMPI DUP1 PUSH4 0x84ACF0F5 EQ PUSH2 0x124 JUMPI JUMPDEST PUSH0 DUP1 REVERT JUMPDEST PUSH2 0xBA PUSH1 0x4 DUP1 CALLDATASIZE SUB DUP2 ADD SWAP1 PUSH2 0xB5 SWAP2 SWAP1 PUSH2 0xB87 JUMP JUMPDEST PUSH2 0x227 JUMP JUMPDEST STOP JUMPDEST PUSH2 0xD6 PUSH1 0x4 DUP1 CALLDATASIZE SUB DUP2 ADD SWAP1 PUSH2 0xD1 SWAP2 SWAP1 PUSH2 0xC31 JUMP JUMPDEST PUSH2 0x3BF JUMP JUMPDEST STOP JUMPDEST PUSH2 0xF2 PUSH1 0x4 DUP1 CALLDATASIZE SUB DUP2 ADD SWAP1 PUSH2 0xED SWAP2 SWAP1 PUSH2 0xDAB JUMP JUMPDEST PUSH2 0x58F JUMP JUMPDEST STOP JUMPDEST PUSH2 0x10E PUSH1 0x4 DUP1 CALLDATASIZE SUB DUP2 ADD SWAP1 PUSH2 0x109 SWAP2 SWAP1 PUSH2 0xE05 JUMP JUMPDEST PUSH2 0x5AA JUMP JUMPDEST PUSH1 0x40 MLOAD PUSH2 0x11B SWAP2 SWAP1 PUSH2 0xE3F JUMP JUMPDEST PUSH1 0x40 MLOAD DUP1 SWAP2 SUB SWAP1 RETURN JUMPDEST PUSH2 0x13E PUSH1 0x4 DUP1 CALLDATASIZE SUB DUP2 ADD SWAP1 PUSH2 0x139 SWAP2 SWAP1 PUSH2 0xE05 JUMP JUMPDEST PUSH2 0x5CA JUMP JUMPDEST PUSH1 0x40 MLOAD PUSH2 0x14F SWAP6 SWAP5 SWAP4 SWAP3 SWAP2 SWAP1 PUSH2 0xE81 JUMP JUMPDEST PUSH1 0x40 MLOAD DUP1 SWAP2 SUB SWAP1 RETURN JUMPDEST PUSH2 0x172 PUSH1 0x4 DUP1 CALLDATASIZE SUB DUP2 ADD SWAP1 PUSH2 0x16D SWAP2 SWAP1 PUSH2 0xE05 JUMP JUMPDEST PUSH2 0x638 JUMP JUMPDEST STOP JUMPDEST PUSH2 0x17C PUSH2 0x950 JUMP JUMPDEST PUSH1 0x40 MLOAD PUSH2 0x189 SWAP2 SWAP1 PUSH2 0xEE1 JUMP JUMPDEST PUSH1 0x40 MLOAD DUP1 SWAP2 SUB SWAP1 RETURN JUMPDEST PUSH2 0x1AC PUSH1 0x4 DUP1 CALLDATASIZE SUB DUP2 ADD SWAP1 PUSH2 0x1A7 SWAP2 SWAP1 PUSH2 0xEFA JUMP JUMPDEST PUSH2 0x960 JUMP JUMPDEST PUSH1 0x40 MLOAD PUSH2 0x1B9 SWAP2 SWAP1 PUSH2 0xF41 JUMP JUMPDEST PUSH1 0x40 MLOAD DUP1 SWAP2 SUB SWAP1 RETURN JUMPDEST PUSH2 0x1DC PUSH1 0x4 DUP1 CALLDATASIZE SUB DUP2 ADD SWAP1 PUSH2 0x1D7 SWAP2 SWAP1 PUSH2 0xFB4 JUMP JUMPDEST PUSH2 0x9CB JUMP JUMPDEST PUSH1 0x40 MLOAD PUSH2 0x1E9 SWAP2 SWAP1 PUSH2 0xFF2 JUMP JUMPDEST PUSH1 0x40 MLOAD DUP1 SWAP2 SUB SWAP1 RETURN JUMPDEST PUSH2 0x20C PUSH1 0x4 DUP1 CALLDATASIZE SUB DUP2 ADD SWAP1 PUSH2 0x207 SWAP2 SWAP1 PUSH2 0xE05 JUMP JUMPDEST PUSH2 0xA1E JUMP JUMPDEST PUSH1 0x40 MLOAD PUSH2 0x21E SWAP7 SWAP6 SWAP5 SWAP4 SWAP3 SWAP2 SWAP1 PUSH2 0x100B JUMP JUMPDEST PUSH1 0x40 MLOAD DUP1 SWAP2 SUB SWAP1 RETURN JUMPDEST PUSH0 DUP1 SLOAD SWAP1 PUSH2 0x100 EXP SWAP1 DIV PUSH1 0xFF AND PUSH1 0xFF AND DUP3 PUSH1 0xFF AND LT PUSH2 0x27B JUMPI PUSH1 0x40 MLOAD PUSH32 0x8C379A000000000000000000000000000000000000000000000000000000000 DUP2 MSTORE PUSH1 0x4 ADD PUSH2 0x272 SWAP1 PUSH2 0x10C4 JUMP JUMPDEST PUSH1 0x40 MLOAD DUP1 SWAP2 SUB SWAP1 REVERT JUMPDEST PUSH1 0x1 PUSH0 DUP4 PUSH1 0xFF AND PUSH1 0xFF AND DUP2 MSTORE PUSH1 0x20 ADD SWAP1 DUP2 MSTORE PUSH1 0x20 ADD PUSH0 KECCAK256 PUSH1 0x1 ADD PUSH1 0x8 SWAP1 SLOAD SWAP1 PUSH2 0x100 EXP SWAP1 DIV PUSH4 0xFFFFFFFF AND PUSH4 0xFFFFFFFF AND TIMESTAMP GT PUSH2 0x2ED JUMPI PUSH1 0x40 MLOAD PUSH32 0x8C379A000000000000000000000000000000000000000000000000000000000 DUP2 MSTORE PUSH1 0x4 ADD PUSH2 0x2E4 SWAP1 PUSH2 0x112C JUMP JUMPDEST PUSH1 0x40 MLOAD DUP1 SWAP2 SUB SWAP1 REVERT JUMPDEST PUSH1 0x1 PUSH0 DUP4 PUSH1 0xFF AND PUSH1 0xFF AND DUP2 MSTORE PUSH1 0x20 ADD SWAP1 DUP2 MSTORE PUSH1 0x20 ADD PUSH0 KECCAK256 PUSH1 0x1 ADD PUSH1 0xC SWAP1 SLOAD SWAP1 PUSH2 0x100 EXP SWAP1 DIV PUSH1 0xFF AND ISZERO PUSH2 0x355 JUMPI PUSH1 0x40 MLOAD PUSH32 0x8C379A000000000000000000000000000000000000000000000000000000000 DUP2 MSTORE PUSH1 0x4 ADD PUSH2 0x34C SWAP1 PUSH2 0x1194 JUMP JUMPDEST PUSH1 0x40 MLOAD DUP1 SWAP2 SUB SWAP1 REVERT JUMPDEST PUSH1 0x1 DUP1 PUSH0 DUP5 PUSH1 0xFF AND PUSH1 0xFF AND DUP2 MSTORE PUSH1 0x20 ADD SWAP1 DUP2 MSTORE PUSH1 0x20 ADD PUSH0 KECCAK256 PUSH1 0x1 ADD PUSH1 0xC PUSH2 0x100 EXP DUP2 SLOAD DUP2 PUSH1 0xFF MUL NOT AND SWAP1 DUP4 ISZERO ISZERO MUL OR SWAP1 SSTORE POP DUP1 PUSH1 0xFF AND DUP3 PUSH1 0xFF AND PUSH32 0x634308A703FA848B5BE4AEBED5DA7930730A68E4B657D44E45FBDB5F6196112B PUSH1 0x40 MLOAD PUSH1 0x40 MLOAD DUP1 SWAP2 SUB SWAP1 LOG3 POP POP JUMP JUMPDEST PUSH0 DUP2 PUSH4 0xFFFFFFFF AND GT PUSH2 0x407 JUMPI PUSH1 0x40 MLOAD PUSH32 0x8C379A000000000000000000000000000000000000000000000000000000000 DUP2 MSTORE PUSH1 0x4 ADD PUSH2 0x3FE SWAP1 PUSH2 0x11FC JUMP JUMPDEST PUSH1 0x40 MLOAD DUP1 SWAP2 SUB SWAP1 REVERT JUMPDEST PUSH0 DUP1 PUSH0 SWAP1 SLOAD SWAP1 PUSH2 0x100 EXP SWAP1 DIV PUSH1 0xFF AND SWAP1 POP PUSH0 DUP1 DUP2 DUP2 SWAP1 SLOAD SWAP1 PUSH2 0x100 EXP SWAP1 DIV PUSH1 0xFF AND DUP1 SWAP3 SWAP2 SWAP1 PUSH2 0x435 SWAP1 PUSH2 0x1247 JUMP JUMPDEST SWAP2 SWAP1 PUSH2 0x100 EXP DUP2 SLOAD DUP2 PUSH1 0xFF MUL NOT AND SWAP1 DUP4 PUSH1 0xFF AND MUL OR SWAP1 SSTORE POP POP PUSH0 PUSH1 0x40 MLOAD DUP1 PUSH1 0xA0 ADD PUSH1 0x40 MSTORE DUP1 DUP6 DUP2 MSTORE PUSH1 0x20 ADD PUSH0 PUSH4 0xFFFFFFFF AND DUP2 MSTORE PUSH1 0x20 ADD TIMESTAMP PUSH4 0xFFFFFFFF AND DUP2 MSTORE PUSH1 0x20 ADD DUP5 TIMESTAMP PUSH2 0x484 SWAP2 SWAP1 PUSH2 0x126F JUMP JUMPDEST PUSH4 0xFFFFFFFF AND DUP2 MSTORE PUSH1 0x20 ADD PUSH0 ISZERO ISZERO DUP2 MSTORE POP SWAP1 POP DUP1 PUSH1 0x1 PUSH0 DUP5 PUSH1 0xFF AND PUSH1 0xFF AND DUP2 MSTORE PUSH1 0x20 ADD SWAP1 DUP2 MSTORE PUSH1 0x20 ADD PUSH0 KECCAK256 PUSH0 DUP3 ADD MLOAD DUP2 PUSH0 ADD SSTORE PUSH1 0x20 DUP3 ADD MLOAD DUP2 PUSH1 0x1 ADD PUSH0 PUSH2 0x100 EXP DUP2 SLOAD DUP2 PUSH4 0xFFFFFFFF MUL NOT AND SWAP1 DUP4 PUSH4 0xFFFFFFFF AND MUL OR SWAP1 SSTORE POP PUSH1 0x40 DUP3 ADD MLOAD DUP2 PUSH1 0x1 ADD PUSH1 0x4 PUSH2 0x100 EXP DUP2 SLOAD DUP2 PUSH4 0xFFFFFFFF MUL NOT AND SWAP1 DUP4 PUSH4 0xFFFFFFFF AND MUL OR SWAP1 SSTORE POP PUSH1 0x60 DUP3 ADD MLOAD DUP2 PUSH1 0x1 ADD PUSH1 0x8 PUSH2 0x100 EXP DUP2 SLOAD DUP2 PUSH4 0xFFFFFFFF MUL NOT AND SWAP1 DUP4 PUSH4 0xFFFFFFFF AND MUL OR SWAP1 SSTORE POP PUSH1 0x80 DUP3 ADD MLOAD DUP2 PUSH1 0x1 ADD PUSH1 0xC PUSH2 0x100 EXP DUP2 SLOAD DUP2 PUSH1 0xFF MUL NOT AND SWAP1 DUP4 ISZERO ISZERO MUL OR SWAP1 SSTORE POP SWAP1 POP POP DUP2 PUSH1 0xFF AND PUSH32 0x778068A8B34CD2AB006C1C96CD8B819623539C5979EEA060167A8376AB51AE26 DUP6 PUSH1 0x40 MLOAD PUSH2 0x581 SWAP2 SWAP1 PUSH2 0xF41 JUMP JUMPDEST PUSH1 0x40 MLOAD DUP1 SWAP2 SUB SWAP1 LOG2 POP POP POP POP JUMP JUMPDEST PUSH0 PUSH2 0x599 DUP4 PUSH2 0x960 JUMP JUMPDEST SWAP1 POP PUSH2 0x5A5 DUP2 DUP4 PUSH2 0x3BF JUMP JUMPDEST POP POP POP JUMP JUMPDEST PUSH1 0x3 PUSH1 0x20 MSTORE DUP1 PUSH0 MSTORE PUSH1 0x40 PUSH0 KECCAK256 PUSH0 SWAP2 POP SLOAD SWAP1 PUSH2 0x100 EXP SWAP1 DIV PUSH4 0xFFFFFFFF AND DUP2 JUMP JUMPDEST PUSH1 0x1 PUSH1 0x20 MSTORE DUP1 PUSH0 MSTORE PUSH1 0x40 PUSH0 KECCAK256 PUSH0 SWAP2 POP SWAP1 POP DUP1 PUSH0 ADD SLOAD SWAP1 DUP1 PUSH1 0x1 ADD PUSH0 SWAP1 SLOAD SWAP1 PUSH2 0x100 EXP SWAP1 DIV PUSH4 0xFFFFFFFF AND SWAP1 DUP1 PUSH1 0x1 ADD PUSH1 0x4 SWAP1 SLOAD SWAP1 PUSH2 0x100 EXP SWAP1 DIV PUSH4 0xFFFFFFFF AND SWAP1 DUP1 PUSH1 0x1 ADD PUSH1 0x8 SWAP1 SLOAD SWAP1 PUSH2 0x100 EXP SWAP1 DIV PUSH4 0xFFFFFFFF AND SWAP1 DUP1 PUSH1 0x1 ADD PUSH1 0xC SWAP1 SLOAD SWAP1 PUSH2 0x100 EXP SWAP1 DIV PUSH1 0xFF AND SWAP1 POP DUP6 JUMP JUMPDEST PUSH0 DUP1 SLOAD SWAP1 PUSH2 0x100 EXP SWAP1 DIV PUSH1 0xFF AND PUSH1 0xFF AND DUP2 PUSH1 0xFF AND LT PUSH2 0x68C JUMPI PUSH1 0x40 MLOAD PUSH32 0x8C379A000000000000000000000000000000000000000000000000000000000 DUP2 MSTORE PUSH1 0x4 ADD PUSH2 0x683 SWAP1 PUSH2 0x10C4 JUMP JUMPDEST PUSH1 0x40 MLOAD DUP1 SWAP2 SUB SWAP1 REVERT JUMPDEST PUSH0 TIMESTAMP SWAP1 POP PUSH1 0x1 PUSH0 DUP4 PUSH1 0xFF AND PUSH1 0xFF AND DUP2 MSTORE PUSH1 0x20 ADD SWAP1 DUP2 MSTORE PUSH1 0x20 ADD PUSH0 KECCAK256 PUSH1 0x1 ADD PUSH1 0x4 SWAP1 SLOAD SWAP1 PUSH2 0x100 EXP SWAP1 DIV PUSH4 0xFFFFFFFF AND PUSH4 0xFFFFFFFF AND DUP2 PUSH4 0xFFFFFFFF AND LT ISZERO PUSH2 0x709 JUMPI PUSH1 0x40 MLOAD PUSH32 0x8C379A000000000000000000000000000000000000000000000000000000000 DUP2 MSTORE PUSH1 0x4 ADD PUSH2 0x700 SWAP1 PUSH2 0x12F0 JUMP JUMPDEST PUSH1 0x40 MLOAD DUP1 SWAP2 SUB SWAP1 REVERT JUMPDEST PUSH1 0x1 PUSH0 DUP4 PUSH1 0xFF AND PUSH1 0xFF AND DUP2 MSTORE PUSH1 0x20 ADD SWAP1 DUP2 MSTORE PUSH1 0x20 ADD PUSH0 KECCAK256 PUSH1 0x1 ADD PUSH1 0x8 SWAP1 SLOAD SWAP1 PUSH2 0x100 EXP SWAP1 DIV PUSH4 0xFFFFFFFF AND PUSH4 0xFFFFFFFF AND DUP2 PUSH4 0xFFFFFFFF AND GT ISZERO PUSH2 0x782 JUMPI PUSH1 0x40 MLOAD PUSH32 0x8C379A000000000000000000000000000000000000000000000000000000000 DUP2 MSTORE PUSH1 0x4 ADD PUSH2 0x779 SWAP1 PUSH2 0x1358 JUMP JUMPDEST PUSH1 0x40 MLOAD DUP1 SWAP2 SUB SWAP1 REVERT JUMPDEST PUSH0 PUSH1 0x2 PUSH0 CALLER PUSH20 0xFFFFFFFFFFFFFFFFFFFFFFFFFFFFFFFFFFFFFFFF AND PUSH20 0xFFFFFFFFFFFFFFFFFFFFFFFFFFFFFFFFFFFFFFFF AND DUP2 MSTORE PUSH1 0x20 ADD SWAP1 DUP2 MSTORE PUSH1 0x20 ADD PUSH0 KECCAK256 SLOAD SWAP1 POP PUSH0 DUP4 PUSH1 0xFF AND PUSH1 0x1 SWAP1 SHL SWAP1 POP PUSH0 DUP2 DUP4 AND EQ PUSH2 0x812 JUMPI PUSH1 0x40 MLOAD PUSH32 0x8C379A000000000000000000000000000000000000000000000000000000000 DUP2 MSTORE PUSH1 0x4 ADD PUSH2 0x809 SWAP1 PUSH2 0x13C0 JUMP JUMPDEST PUSH1 0x40 MLOAD DUP1 SWAP2 SUB SWAP1 REVERT JUMPDEST DUP1 DUP3 OR PUSH1 0x2 PUSH0 CALLER PUSH20 0xFFFFFFFFFFFFFFFFFFFFFFFFFFFFFFFFFFFFFFFF AND PUSH20 0xFFFFFFFFFFFFFFFFFFFFFFFFFFFFFFFFFFFFFFFF AND DUP2 MSTORE PUSH1 0x20 ADD SWAP1 DUP2 MSTORE PUSH1 0x20 ADD PUSH0 KECCAK256 DUP2 SWAP1 SSTORE POP PUSH1 0x1 PUSH0 DUP6 PUSH1 0xFF AND PUSH1 0xFF AND DUP2 MSTORE PUSH1 0x20 ADD SWAP1 DUP2 MSTORE PUSH1 0x20 ADD PUSH0 KECCAK256 PUSH1 0x1 ADD PUSH0 DUP2 DUP2 SWAP1 SLOAD SWAP1 PUSH2 0x100 EXP SWAP1 DIV PUSH4 0xFFFFFFFF AND DUP1 SWAP3 SWAP2 SWAP1 PUSH2 0x88F SWAP1 PUSH2 0x13DE JUMP JUMPDEST SWAP2 SWAP1 PUSH2 0x100 EXP DUP2 SLOAD DUP2 PUSH4 0xFFFFFFFF MUL NOT AND SWAP1 DUP4 PUSH4 0xFFFFFFFF AND MUL OR SWAP1 SSTORE POP POP PUSH1 0x3 PUSH0 DUP6 PUSH1 0xFF AND PUSH1 0xFF AND DUP2 MSTORE PUSH1 0x20 ADD SWAP1 DUP2 MSTORE PUSH1 0x20 ADD PUSH0 KECCAK256 PUSH0 DUP2 DUP2 SWAP1 SLOAD SWAP1 PUSH2 0x100 EXP SWAP1 DIV PUSH4 0xFFFFFFFF AND DUP1 SWAP3 SWAP2 SWAP1 PUSH2 0x8E4 SWAP1 PUSH2 0x13DE JUMP JUMPDEST SWAP2 SWAP1 PUSH2 0x100 EXP DUP2 SLOAD DUP2 PUSH4 0xFFFFFFFF MUL NOT AND SWAP1 DUP4 PUSH4 0xFFFFFFFF AND MUL OR SWAP1 SSTORE POP POP DUP4 PUSH1 0xFF AND CALLER PUSH20 0xFFFFFFFFFFFFFFFFFFFFFFFFFFFFFFFFFFFFFFFF AND PUSH32 0x14075E33DFFDC00C1FCAF75D0F86D667170BE57FB566B12B41B499E5FA53B125 PUSH1 0x40 MLOAD PUSH1 0x40 MLOAD DUP1 SWAP2 SUB SWAP1 LOG3 POP POP POP POP JUMP JUMPDEST PUSH0 DUP1 SLOAD SWAP1 PUSH2 0x100 EXP SWAP1 DIV PUSH1 0xFF AND DUP2 JUMP JUMPDEST PUSH0 DUP1 DUP3 SWAP1 POP PUSH0 DUP2 MLOAD SUB PUSH2 0x978 JUMPI PUSH0 DUP1 SHL SWAP2 POP POP PUSH2 0x9C6 JUMP JUMPDEST PUSH1 0x20 DUP2 MLOAD GT ISZERO PUSH2 0x9BD JUMPI PUSH1 0x40 MLOAD PUSH32 0x8C379A000000000000000000000000000000000000000000000000000000000 DUP2 MSTORE PUSH1 0x4 ADD PUSH2 0x9B4 SWAP1 PUSH2 0x1479 JUMP JUMPDEST PUSH1 0x40 MLOAD DUP1 SWAP2 SUB SWAP1 REVERT JUMPDEST PUSH1 0x20 DUP4 ADD MLOAD SWAP2 POP POP JUMPDEST SWAP2 SWAP1 POP JUMP JUMPDEST PUSH0 DUP1 DUP3 PUSH1 0xFF AND PUSH1 0x1 SWAP1 SHL PUSH1 0x2 PUSH0 DUP7 PUSH20 0xFFFFFFFFFFFFFFFFFFFFFFFFFFFFFFFFFFFFFFFF AND PUSH20 0xFFFFFFFFFFFFFFFFFFFFFFFFFFFFFFFFFFFFFFFF AND DUP2 MSTORE PUSH1 0x20 ADD SWAP1 DUP2 MSTORE PUSH1 0x20 ADD PUSH0 KECCAK256 SLOAD AND EQ ISZERO SWAP1 POP SWAP3 SWAP2 POP POP JUMP JUMPDEST PUSH0 DUP1 PUSH0 DUP1 PUSH0 DUP1 PUSH0 DUP1 SLOAD SWAP1 PUSH2 0x100 EXP SWAP1 DIV PUSH1 0xFF AND PUSH1 0xFF AND DUP8 PUSH1 0xFF AND LT PUSH2 0xA78 JUMPI PUSH1 0x40 MLOAD PUSH32 0x8C379A000000000000000000000000000000000000000000000000000000000 DUP2 MSTORE PUSH1 0x4 ADD PUSH2 0xA6F SWAP1 PUSH2 0x10C4 JUMP JUMPDEST PUSH1 0x40 MLOAD DUP1 SWAP2 SUB SWAP1 REVERT JUMPDEST PUSH0 PUSH1 0x1 PUSH0 DUP10 PUSH1 0xFF AND PUSH1 0xFF AND DUP2 MSTORE PUSH1 0x20 ADD SWAP1 DUP2 MSTORE PUSH1 0x20 ADD PUSH0 KECCAK256 SWAP1 POP DUP1 PUSH0 ADD SLOAD DUP2 PUSH1 0x1 ADD PUSH0 SWAP1 SLOAD SWAP1 PUSH2 0x100 EXP SWAP1 DIV PUSH4 0xFFFFFFFF AND DUP3 PUSH1 0x1 ADD PUSH1 0x4 SWAP1 SLOAD SWAP1 PUSH2 0x100 EXP SWAP1 DIV PUSH4 0xFFFFFFFF AND DUP4 PUSH1 0x1 ADD PUSH1 0x8 SWAP1 SLOAD SWAP1 PUSH2 0x100 EXP SWAP1 DIV PUSH4 0xFFFFFFFF AND DUP5 PUSH1 0x1 ADD PUSH1 0xC SWAP1 SLOAD SWAP1 PUSH2 0x100 EXP SWAP1 DIV PUSH1 0xFF AND DUP6 PUSH1 0x1 ADD PUSH1 0x4 SWAP1 SLOAD SWAP1 PUSH2 0x100 EXP SWAP1 DIV PUSH4 0xFFFFFFFF AND PUSH4 0xFFFFFFFF AND TIMESTAMP LT ISZERO DUP1 ISZERO PUSH2 0xB2A JUMPI POP DUP6 PUSH1 0x1 ADD PUSH1 0x8 SWAP1 SLOAD SWAP1 PUSH2 0x100 EXP SWAP1 DIV PUSH4 0xFFFFFFFF AND PUSH4 0xFFFFFFFF AND TIMESTAMP GT ISZERO JUMPDEST SWAP7 POP SWAP7 POP SWAP7 POP SWAP7 POP SWAP7 POP SWAP7 POP POP SWAP2 SWAP4 SWAP6 POP SWAP2 SWAP4 SWAP6 JUMP JUMPDEST PUSH0 PUSH1 0x40 MLOAD SWAP1 POP SWAP1 JUMP JUMPDEST PUSH0 DUP1 REVERT JUMPDEST PUSH0 DUP1 REVERT JUMPDEST PUSH0 PUSH1 0xFF DUP3 AND SWAP1 POP SWAP2 SWAP1 POP JUMP JUMPDEST PUSH2 0xB66 DUP2 PUSH2 0xB51 JUMP JUMPDEST DUP2 EQ PUSH2 0xB70 JUMPI PUSH0 DUP1 REVERT JUMPDEST POP JUMP JUMPDEST PUSH0 DUP2 CALLDATALOAD SWAP1 POP PUSH2 0xB81 DUP2 PUSH2 0xB5D JUMP JUMPDEST SWAP3 SWAP2 POP POP JUMP JUMPDEST PUSH0 DUP1 PUSH1 0x40 DUP4 DUP6 SUB SLT ISZERO PUSH2 0xB9D JUMPI PUSH2 0xB9C PUSH2 0xB49 JUMP JUMPDEST JUMPDEST PUSH0 PUSH2 0xBAA DUP6 DUP3 DUP7 ADD PUSH2 0xB73 JUMP JUMPDEST SWAP3 POP POP PUSH1 0x20 PUSH2 0xBBB DUP6 DUP3 DUP7 ADD PUSH2 0xB73 JUMP JUMPDEST SWAP2 POP POP SWAP3 POP SWAP3 SWAP1 POP JUMP JUMPDEST PUSH0 DUP2 SWAP1 POP SWAP2 SWAP1 POP JUMP JUMPDEST PUSH2 0xBD7 DUP2 PUSH2 0xBC5 JUMP JUMPDEST DUP2 EQ PUSH2 0xBE1 JUMPI PUSH0 DUP1 REVERT JUMPDEST POP JUMP JUMPDEST PUSH0 DUP2 CALLDATALOAD SWAP1 POP PUSH2 0xBF2 DUP2 PUSH2 0xBCE JUMP JUMPDEST SWAP3 SWAP2 POP POP JUMP JUMPDEST PUSH0 PUSH4 0xFFFFFFFF DUP3 AND SWAP1 POP SWAP2 SWAP1 POP JUMP JUMPDEST PUSH2 0xC10 DUP2 PUSH2 0xBF8 JUMP JUMPDEST DUP2 EQ PUSH2 0xC1A JUMPI PUSH0 DUP1 REVERT JUMPDEST POP JUMP JUMPDEST PUSH0 DUP2 CALLDATALOAD SWAP1 POP PUSH2 0xC2B DUP2 PUSH2 0xC07 JUMP JUMPDEST SWAP3 SWAP2 POP POP JUMP JUMPDEST PUSH0 DUP1 PUSH1 0x40 DUP4 DUP6 SUB SLT ISZERO PUSH2 0xC47 JUMPI PUSH2 0xC46 PUSH2 0xB49 JUMP JUMPDEST JUMPDEST PUSH0 PUSH2 0xC54 DUP6 DUP3 DUP7 ADD PUSH2 0xBE4 JUMP JUMPDEST SWAP3 POP POP PUSH1 0x20 PUSH2 0xC65 DUP6 DUP3 DUP7 ADD PUSH2 0xC1D JUMP JUMPDEST SWAP2 POP POP SWAP3 POP SWAP3 SWAP1 POP JUMP JUMPDEST PUSH0 DUP1 REVERT JUMPDEST PUSH0 DUP1 REVERT JUMPDEST PUSH0 PUSH1 0x1F NOT PUSH1 0x1F DUP4 ADD AND SWAP1 POP SWAP2 SWAP1 POP JUMP JUMPDEST PUSH32 0x4E487B7100000000000000000000000000000000000000000000000000000000 PUSH0 MSTORE PUSH1 0x41 PUSH1 0x4 MSTORE PUSH1 0x24 PUSH0 REVERT JUMPDEST PUSH2 0xCBD DUP3 PUSH2 0xC77 JUMP JUMPDEST DUP2 ADD DUP2 DUP2 LT PUSH8 0xFFFFFFFFFFFFFFFF DUP3 GT OR ISZERO PUSH2 0xCDC JUMPI PUSH2 0xCDB PUSH2 0xC87 JUMP JUMPDEST JUMPDEST DUP1 PUSH1 0x40 MSTORE POP POP POP JUMP JUMPDEST PUSH0 PUSH2 0xCEE PUSH2 0xB40 JUMP JUMPDEST SWAP1 POP PUSH2 0xCFA DUP3 DUP3 PUSH2 0xCB4 JUMP JUMPDEST SWAP2 SWAP1 POP JUMP JUMPDEST PUSH0 PUSH8 0xFFFFFFFFFFFFFFFF DUP3 GT ISZERO PUSH2 0xD19 JUMPI PUSH2 0xD18 PUSH2 0xC87 JUMP JUMPDEST JUMPDEST PUSH2 0xD22 DUP3 PUSH2 0xC77 JUMP JUMPDEST SWAP1 POP PUSH1 0x20 DUP2 ADD SWAP1 POP SWAP2 SWAP1 POP JUMP JUMPDEST DUP3 DUP2 DUP4 CALLDATACOPY PUSH0 DUP4 DUP4 ADD MSTORE POP POP POP JUMP JUMPDEST PUSH0 PUSH2 0xD4F PUSH2 0xD4A DUP5 PUSH2 0xCFF JUMP JUMPDEST PUSH2 0xCE5 JUMP JUMPDEST SWAP1 POP DUP3 DUP2 MSTORE PUSH1 0x20 DUP2 ADD DUP5 DUP5 DUP5 ADD GT ISZERO PUSH2 0xD6B JUMPI PUSH2 0xD6A PUSH2 0xC73 JUMP JUMPDEST JUMPDEST PUSH2 0xD76 DUP5 DUP3 DUP6 PUSH2 0xD2F JUMP JUMPDEST POP SWAP4 SWAP3 POP POP POP JUMP JUMPDEST PUSH0 DUP3 PUSH1 0x1F DUP4 ADD SLT PUSH2 0xD92 JUMPI PUSH2 0xD91 PUSH2 0xC6F JUMP JUMPDEST JUMPDEST DUP2 CALLDATALOAD PUSH2 0xDA2 DUP5 DUP3 PUSH1 0x20 DUP7 ADD PUSH2 0xD3D JUMP JUMPDEST SWAP2 POP POP SWAP3 SWAP2 POP POP JUMP JUMPDEST PUSH0 DUP1 PUSH1 0x40 DUP4 DUP6 SUB SLT ISZERO PUSH2 0xDC1 JUMPI PUSH2 0xDC0 PUSH2 0xB49 JUMP JUMPDEST JUMPDEST PUSH0 DUP4 ADD CALLDATALOAD PUSH8 0xFFFFFFFFFFFFFFFF DUP2 GT ISZERO PUSH2 0xDDE JUMPI PUSH2 0xDDD PUSH2 0xB4D JUMP JUMPDEST JUMPDEST PUSH2 0xDEA DUP6 DUP3 DUP7 ADD PUSH2 0xD7E JUMP JUMPDEST SWAP3 POP POP PUSH1 0x20 PUSH2 0xDFB DUP6 DUP3 DUP7 ADD PUSH2 0xC1D JUMP JUMPDEST SWAP2 POP POP SWAP3 POP SWAP3 SWAP1 POP JUMP JUMPDEST PUSH0 PUSH1 0x20 DUP3 DUP5 SUB SLT ISZERO PUSH2 0xE1A JUMPI PUSH2 0xE19 PUSH2 0xB49 JUMP JUMPDEST JUMPDEST PUSH0 PUSH2 0xE27 DUP5 DUP3 DUP6 ADD PUSH2 0xB73 JUMP JUMPDEST SWAP2 POP POP SWAP3 SWAP2 POP POP JUMP JUMPDEST PUSH2 0xE39 DUP2 PUSH2 0xBF8 JUMP JUMPDEST DUP3 MSTORE POP POP JUMP JUMPDEST PUSH0 PUSH1 0x20 DUP3 ADD SWAP1 POP PUSH2 0xE52 PUSH0 DUP4 ADD DUP5 PUSH2 0xE30 JUMP JUMPDEST SWAP3 SWAP2 POP POP JUMP JUMPDEST PUSH2 0xE61 DUP2 PUSH2 0xBC5 JUMP JUMPDEST DUP3 MSTORE POP POP JUMP JUMPDEST PUSH0 DUP2 ISZERO ISZERO SWAP1 POP SWAP2 SWAP1 POP JUMP JUMPDEST PUSH2 0xE7B DUP2 PUSH2 0xE67 JUMP JUMPDEST DUP3 MSTORE POP POP JUMP JUMPDEST PUSH0 PUSH1 0xA0 DUP3 ADD SWAP1 POP PUSH2 0xE94 PUSH0 DUP4 ADD DUP9 PUSH2 0xE58 JUMP JUMPDEST PUSH2 0xEA1 PUSH1 0x20 DUP4 ADD DUP8 PUSH2 0xE30 JUMP JUMPDEST PUSH2 0xEAE PUSH1 0x40 DUP4 ADD DUP7 PUSH2 0xE30 JUMP JUMPDEST PUSH2 0xEBB PUSH1 0x60 DUP4 ADD DUP6 PUSH2 0xE30 JUMP JUMPDEST PUSH2 0xEC8 PUSH1 0x80 DUP4 ADD DUP5 PUSH2 0xE72 JUMP JUMPDEST SWAP7 SWAP6 POP POP POP POP POP POP JUMP JUMPDEST PUSH2 0xEDB DUP2 PUSH2 0xB51 JUMP JUMPDEST DUP3 MSTORE POP POP JUMP JUMPDEST PUSH0 PUSH1 0x20 DUP3 ADD SWAP1 POP PUSH2 0xEF4 PUSH0 DUP4 ADD DUP5 PUSH2 0xED2 JUMP JUMPDEST SWAP3 SWAP2 POP POP JUMP JUMPDEST PUSH0 PUSH1 0x20 DUP3 DUP5 SUB SLT ISZERO PUSH2 0xF0F JUMPI PUSH2 0xF0E PUSH2 0xB49 JUMP JUMPDEST JUMPDEST PUSH0 DUP3 ADD CALLDATALOAD PUSH8 0xFFFFFFFFFFFFFFFF DUP2 GT ISZERO PUSH2 0xF2C JUMPI PUSH2 0xF2B PUSH2 0xB4D JUMP JUMPDEST JUMPDEST PUSH2 0xF38 DUP5 DUP3 DUP6 ADD PUSH2 0xD7E JUMP JUMPDEST SWAP2 POP POP SWAP3 SWAP2 POP POP JUMP JUMPDEST PUSH0 PUSH1 0x20 DUP3 ADD SWAP1 POP PUSH2 0xF54 PUSH0 DUP4 ADD DUP5 PUSH2 0xE58 JUMP JUMPDEST SWAP3 SWAP2 POP POP JUMP JUMPDEST PUSH0 PUSH20 0xFFFFFFFFFFFFFFFFFFFFFFFFFFFFFFFFFFFFFFFF DUP3 AND SWAP1 POP SWAP2 SWAP1 POP JUMP JUMPDEST PUSH0 PUSH2 0xF83 DUP3 PUSH2 0xF5A JUMP JUMPDEST SWAP1 POP SWAP2 SWAP1 POP JUMP JUMPDEST PUSH2 0xF93 DUP2 PUSH2 0xF79 JUMP JUMPDEST DUP2 EQ PUSH2 0xF9D JUMPI PUSH0 DUP1 REVERT JUMPDEST POP JUMP JUMPDEST PUSH0 DUP2 CALLDATALOAD SWAP1 POP PUSH2 0xFAE DUP2 PUSH2 0xF8A JUMP JUMPDEST SWAP3 SWAP2 POP POP JUMP JUMPDEST PUSH0 DUP1 PUSH1 0x40 DUP4 DUP6 SUB SLT ISZERO PUSH2 0xFCA JUMPI PUSH2 0xFC9 PUSH2 0xB49 JUMP JUMPDEST JUMPDEST PUSH0 PUSH2 0xFD7 DUP6 DUP3 DUP7 ADD PUSH2 0xFA0 JUMP JUMPDEST SWAP3 POP POP PUSH1 0x20 PUSH2 0xFE8 DUP6 DUP3 DUP7 ADD PUSH2 0xB73 JUMP JUMPDEST SWAP2 POP POP SWAP3 POP SWAP3 SWAP1 POP JUMP JUMPDEST PUSH0 PUSH1 0x20 DUP3 ADD SWAP1 POP PUSH2 0x1005 PUSH0 DUP4 ADD DUP5 PUSH2 0xE72 JUMP JUMPDEST SWAP3 SWAP2 POP POP JUMP JUMPDEST PUSH0 PUSH1 0xC0 DUP3 ADD SWAP1 POP PUSH2 0x101E PUSH0 DUP4 ADD DUP10 PUSH2 0xE58 JUMP JUMPDEST PUSH2 0x102B PUSH1 0x20 DUP4 ADD DUP9 PUSH2 0xE30 JUMP JUMPDEST PUSH2 0x1038 PUSH1 0x40 DUP4 ADD DUP8 PUSH2 0xE30 JUMP JUMPDEST PUSH2 0x1045 PUSH1 0x60 DUP4 ADD DUP7 PUSH2 0xE30 JUMP JUMPDEST PUSH2 0x1052 PUSH1 0x80 DUP4 ADD DUP6 PUSH2 0xE72 JUMP JUMPDEST PUSH2 0x105F PUSH1 0xA0 DUP4 ADD DUP5 PUSH2 0xE72 JUMP JUMPDEST SWAP8 SWAP7 POP POP POP POP POP POP POP JUMP JUMPDEST PUSH0 DUP3 DUP3 MSTORE PUSH1 0x20 DUP3 ADD SWAP1 POP SWAP3 SWAP2 POP POP JUMP JUMPDEST PUSH32 0x496E76616C69642070726F706F73616C00000000000000000000000000000000 PUSH0 DUP3 ADD MSTORE POP JUMP JUMPDEST PUSH0 PUSH2 0x10AE PUSH1 0x10 DUP4 PUSH2 0x106A JUMP JUMPDEST SWAP2 POP PUSH2 0x10B9 DUP3 PUSH2 0x107A JUMP JUMPDEST PUSH1 0x20 DUP3 ADD SWAP1 POP SWAP2 SWAP1 POP JUMP JUMPDEST PUSH0 PUSH1 0x20 DUP3 ADD SWAP1 POP DUP2 DUP2 SUB PUSH0 DUP4 ADD MSTORE PUSH2 0x10DB DUP2 PUSH2 0x10A2 JUMP JUMPDEST SWAP1 POP SWAP2 SWAP1 POP JUMP JUMPDEST PUSH32 0x566F74696E67206973207374696C6C206F6E676F696E67000000000000000000 PUSH0 DUP3 ADD MSTORE POP JUMP JUMPDEST PUSH0 PUSH2 0x1116 PUSH1 0x17 DUP4 PUSH2 0x106A JUMP JUMPDEST SWAP2 POP PUSH2 0x1121 DUP3 PUSH2 0x10E2 JUMP JUMPDEST PUSH1 0x20 DUP3 ADD SWAP1 POP SWAP2 SWAP1 POP JUMP JUMPDEST PUSH0 PUSH1 0x20 DUP3 ADD SWAP1 POP DUP2 DUP2 SUB PUSH0 DUP4 ADD MSTORE PUSH2 0x1143 DUP2 PUSH2 0x110A JUMP JUMPDEST SWAP1 POP SWAP2 SWAP1 POP JUMP JUMPDEST PUSH32 0x50726F706F73616C20616C726561647920657865637574656400000000000000 PUSH0 DUP3 ADD MSTORE POP JUMP JUMPDEST PUSH0 PUSH2 0x117E PUSH1 0x19 DUP4 PUSH2 0x106A JUMP JUMPDEST SWAP2 POP PUSH2 0x1189 DUP3 PUSH2 0x114A JUMP JUMPDEST PUSH1 0x20 DUP3 ADD SWAP1 POP SWAP2 SWAP1 POP JUMP JUMPDEST PUSH0 PUSH1 0x20 DUP3 ADD SWAP1 POP DUP2 DUP2 SUB PUSH0 DUP4 ADD MSTORE PUSH2 0x11AB DUP2 PUSH2 0x1172 JUMP JUMPDEST SWAP1 POP SWAP2 SWAP1 POP JUMP JUMPDEST PUSH32 0x4475726174696F6E206D7573742062652067726561746572207468616E203000 PUSH0 DUP3 ADD MSTORE POP JUMP JUMPDEST PUSH0 PUSH2 0x11E6 PUSH1 0x1F DUP4 PUSH2 0x106A JUMP JUMPDEST SWAP2 POP PUSH2 0x11F1 DUP3 PUSH2 0x11B2 JUMP JUMPDEST PUSH1 0x20 DUP3 ADD SWAP1 POP SWAP2 SWAP1 POP JUMP JUMPDEST PUSH0 PUSH1 0x20 DUP3 ADD SWAP1 POP DUP2 DUP2 SUB PUSH0 DUP4 ADD MSTORE PUSH2 0x1213 DUP2 PUSH2 0x11DA JUMP JUMPDEST SWAP1 POP SWAP2 SWAP1 POP JUMP JUMPDEST PUSH32 0x4E487B7100000000000000000000000000000000000000000000000000000000 PUSH0 MSTORE PUSH1 0x11 PUSH1 0x4 MSTORE PUSH1 0x24 PUSH0 REVERT JUMPDEST PUSH0 PUSH2 0x1251 DUP3 PUSH2 0xB51 JUMP JUMPDEST SWAP2 POP PUSH1 0xFF DUP3 SUB PUSH2 0x1264 JUMPI PUSH2 0x1263 PUSH2 0x121A JUMP JUMPDEST JUMPDEST PUSH1 0x1 DUP3 ADD SWAP1 POP SWAP2 SWAP1 POP JUMP JUMPDEST PUSH0 PUSH2 0x1279 DUP3 PUSH2 0xBF8 JUMP JUMPDEST SWAP2 POP PUSH2 0x1284 DUP4 PUSH2 0xBF8 JUMP JUMPDEST SWAP3 POP DUP3 DUP3 ADD SWAP1 POP PUSH4 0xFFFFFFFF DUP2 GT ISZERO PUSH2 0x12A0 JUMPI PUSH2 0x129F PUSH2 0x121A JUMP JUMPDEST JUMPDEST SWAP3 SWAP2 POP POP JUMP JUMPDEST PUSH32 0x566F74696E6720686173206E6F74207374617274656400000000000000000000 PUSH0 DUP3 ADD MSTORE POP JUMP JUMPDEST PUSH0 PUSH2 0x12DA PUSH1 0x16 DUP4 PUSH2 0x106A JUMP JUMPDEST SWAP2 POP PUSH2 0x12E5 DUP3 PUSH2 0x12A6 JUMP JUMPDEST PUSH1 0x20 DUP3 ADD SWAP1 POP SWAP2 SWAP1 POP JUMP JUMPDEST PUSH0 PUSH1 0x20 DUP3 ADD SWAP1 POP DUP2 DUP2 SUB PUSH0 DUP4 ADD MSTORE PUSH2 0x1307 DUP2 PUSH2 0x12CE JUMP JUMPDEST SWAP1 POP SWAP2 SWAP1 POP JUMP JUMPDEST PUSH32 0x566F74696E672068617320656E64656400000000000000000000000000000000 PUSH0 DUP3 ADD MSTORE POP JUMP JUMPDEST PUSH0 PUSH2 0x1342 PUSH1 0x10 DUP4 PUSH2 0x106A JUMP JUMPDEST SWAP2 POP PUSH2 0x134D DUP3 PUSH2 0x130E JUMP JUMPDEST PUSH1 0x20 DUP3 ADD SWAP1 POP SWAP2 SWAP1 POP JUMP JUMPDEST PUSH0 PUSH1 0x20 DUP3 ADD SWAP1 POP DUP2 DUP2 SUB PUSH0 DUP4 ADD MSTORE PUSH2 0x136F DUP2 PUSH2 0x1336 JUMP JUMPDEST SWAP1 POP SWAP2 SWAP1 POP JUMP JUMPDEST PUSH32 0x416C726561647920766F74656420666F7220746869732070726F706F73616C00 PUSH0 DUP3 ADD MSTORE POP JUMP JUMPDEST PUSH0 PUSH2 0x13AA PUSH1 0x1F DUP4 PUSH2 0x106A JUMP JUMPDEST SWAP2 POP PUSH2 0x13B5 DUP3 PUSH2 0x1376 JUMP JUMPDEST PUSH1 0x20 DUP3 ADD SWAP1 POP SWAP2 SWAP1 POP JUMP JUMPDEST PUSH0 PUSH1 0x20 DUP3 ADD SWAP1 POP DUP2 DUP2 SUB PUSH0 DUP4 ADD MSTORE PUSH2 0x13D7 DUP2 PUSH2 0x139E JUMP JUMPDEST SWAP1 POP SWAP2 SWAP1 POP JUMP JUMPDEST PUSH0 PUSH2 0x13E8 DUP3 PUSH2 0xBF8 JUMP JUMPDEST SWAP2 POP PUSH4 0xFFFFFFFF DUP3 SUB PUSH2 0x13FE JUMPI PUSH2 0x13FD PUSH2 0x121A JUMP JUMPDEST JUMPDEST PUSH1 0x1 DUP3 ADD SWAP1 POP SWAP2 SWAP1 POP JUMP JUMPDEST PUSH32 0x537472696E6720746F6F206C6F6E672C206D6178203332206368617261637465 PUSH0 DUP3 ADD MSTORE PUSH32 0x7273000000000000000000000000000000000000000000000000000000000000 PUSH1 0x20 DUP3 ADD MSTORE POP JUMP JUMPDEST PUSH0 PUSH2 0x1463 PUSH1 0x22 DUP4 PUSH2 0x106A JUMP JUMPDEST SWAP2 POP PUSH2 0x146E DUP3 PUSH2 0x1409 JUMP JUMPDEST PUSH1 0x40 DUP3 ADD SWAP1 POP SWAP2 SWAP1 POP JUMP JUMPDEST PUSH0 PUSH1 0x20 DUP3 ADD SWAP1 POP DUP2 DUP2 SUB PUSH0 DUP4 ADD MSTORE PUSH2 0x1490 DUP2 PUSH2 0x1457 JUMP JUMPDEST SWAP1 POP SWAP2 SWAP1 POP JUMP INVALID LOG2 PUSH5 0x6970667358 0x22 SLT KECCAK256 0xAB SHL 0xB6 SELFBALANCE RETURN EQ 0x2E 0xB6 0xF 0xEF EQ PUSH5 0x35452C145D SWAP8 PUSH10 0xE8FF8AA16ECA88727D04 0xD2 CODESIZE NUMBER PUSH5 0x736F6C6343 STOP ADDMOD BYTE STOP CALLER "
				},
				"gasEstimates": {
					"creation": {
						"codeDepositCost": "1065000",
						"executionCost": "1105",
						"totalCost": "1066105"
					},
					"external": {
						"ProposalCount()": "2485",
						"createProposal(bytes32,uint32)": "infinite",
						"createProposalWithString(string,uint32)": "infinite",
						"executeProposal(uint8,uint8)": "infinite",
						"getProposal(uint8)": "infinite",
						"hasVoted(address,uint8)": "3108",
						"proposalVoterCount(uint8)": "2858",
						"proposals(uint8)": "infinite",
						"stringToBytes32(string)": "infinite",
						"vote(uint8)": "infinite"
					}
				},
				"methodIdentifiers": {
					"ProposalCount()": "be747c1c",
					"createProposal(bytes32,uint32)": "59aef53c",
					"createProposalWithString(string,uint32)": "64552c4c",
					"executeProposal(uint8,uint8)": "2c7a5907",
					"getProposal(uint8)": "dac001fe",
					"hasVoted(address,uint8)": "d3c6a0f2",
					"proposalVoterCount(uint8)": "6760b1c0",
					"proposals(uint8)": "84acf0f5",
					"stringToBytes32(string)": "cfb51928",
					"vote(uint8)": "b3f98adc"
				}
			},
			"storageLayout": {
				"storage": [
					{
						"astId": 3,
						"contract": "contracts/votingContract.sol:GasEfficientVoting",
						"label": "ProposalCount",
						"offset": 0,
						"slot": "0",
						"type": "t_uint8"
					},
					{
						"astId": 19,
						"contract": "contracts/votingContract.sol:GasEfficientVoting",
						"label": "proposals",
						"offset": 0,
						"slot": "1",
						"type": "t_mapping(t_uint8,t_struct(Proposal)14_storage)"
					},
					{
						"astId": 23,
						"contract": "contracts/votingContract.sol:GasEfficientVoting",
						"label": "voterRegistry",
						"offset": 0,
						"slot": "2",
						"type": "t_mapping(t_address,t_uint256)"
					},
					{
						"astId": 27,
						"contract": "contracts/votingContract.sol:GasEfficientVoting",
						"label": "proposalVoterCount",
						"offset": 0,
						"slot": "3",
						"type": "t_mapping(t_uint8,t_uint32)"
					}
				],
				"types": {
					"t_address": {
						"encoding": "inplace",
						"label": "address",
						"numberOfBytes": "20"
					},
					"t_bool": {
						"encoding": "inplace",
						"label": "bool",
						"numberOfBytes": "1"
					},
					"t_bytes32": {
						"encoding": "inplace",
						"label": "bytes32",
						"numberOfBytes": "32"
					},
					"t_mapping(t_address,t_uint256)": {
						"encoding": "mapping",
						"key": "t_address",
						"label": "mapping(address => uint256)",
						"numberOfBytes": "32",
						"value": "t_uint256"
					},
					"t_mapping(t_uint8,t_struct(Proposal)14_storage)": {
						"encoding": "mapping",
						"key": "t_uint8",
						"label": "mapping(uint8 => struct GasEfficientVoting.Proposal)",
						"numberOfBytes": "32",
						"value": "t_struct(Proposal)14_storage"
					},
					"t_mapping(t_uint8,t_uint32)": {
						"encoding": "mapping",
						"key": "t_uint8",
						"label": "mapping(uint8 => uint32)",
						"numberOfBytes": "32",
						"value": "t_uint32"
					},
					"t_struct(Proposal)14_storage": {
						"encoding": "inplace",
						"label": "struct GasEfficientVoting.Proposal",
						"members": [
							{
								"astId": 5,
								"contract": "contracts/votingContract.sol:GasEfficientVoting",
								"label": "name",
								"offset": 0,
								"slot": "0",
								"type": "t_bytes32"
							},
							{
								"astId": 7,
								"contract": "contracts/votingContract.sol:GasEfficientVoting",
								"label": "voteCount",
								"offset": 0,
								"slot": "1",
								"type": "t_uint32"
							},
							{
								"astId": 9,
								"contract": "contracts/votingContract.sol:GasEfficientVoting",
								"label": "startTime",
								"offset": 4,
								"slot": "1",
								"type": "t_uint32"
							},
							{
								"astId": 11,
								"contract": "contracts/votingContract.sol:GasEfficientVoting",
								"label": "endTime",
								"offset": 8,
								"slot": "1",
								"type": "t_uint32"
							},
							{
								"astId": 13,
								"contract": "contracts/votingContract.sol:GasEfficientVoting",
								"label": "executed",
								"offset": 12,
								"slot": "1",
								"type": "t_bool"
							}
						],
						"numberOfBytes": "64"
					},
					"t_uint256": {
						"encoding": "inplace",
						"label": "uint256",
						"numberOfBytes": "32"
					},
					"t_uint32": {
						"encoding": "inplace",
						"label": "uint32",
						"numberOfBytes": "4"
					},
					"t_uint8": {
						"encoding": "inplace",
						"label": "uint8",
						"numberOfBytes": "1"
					}
				}
			},
			"userdoc": {
				"kind": "user",
				"methods": {},
				"version": 1
			}
		}
	}
}