{
	"contracts/ScientificCalculator.sol": {
		"ScientificCalculator": {
			"abi": [
				{
					"inputs": [
						{
							"internalType": "uint256",
							"name": "base",
							"type": "uint256"
						},
						{
							"internalType": "uint256",
							"name": "exponent",
							"type": "uint256"
						}
					],
					"name": "power",
					"outputs": [
						{
							"internalType": "uint256",
							"name": "",
							"type": "uint256"
						}
					],
					"stateMutability": "pure",
					"type": "function"
				},
				{
					"inputs": [
						{
							"internalType": "int256",
							"name": "number",
							"type": "int256"
						}
					],
					"name": "squareRoot",
					"outputs": [
						{
							"internalType": "int256",
							"name": "",
							"type": "int256"
						}
					],
					"stateMutability": "pure",
					"type": "function"
				}
			],
			"devdoc": {
				"kind": "dev",
				"methods": {},
				"version": 1
			},
			"evm": {
				"assembly": "    /* \"contracts/ScientificCalculator.sol\":65:667  contract ScientificCalculator{... */\n  mstore(0x40, 0x80)\n  callvalue\n  dup1\n  iszero\n  tag_1\n  jumpi\n  revert(0x00, 0x00)\ntag_1:\n  pop\n  dataSize(sub_0)\n  dup1\n  dataOffset(sub_0)\n  0x00\n  codecopy\n  0x00\n  return\nstop\n\nsub_0: assembly {\n        /* \"contracts/ScientificCalculator.sol\":65:667  contract ScientificCalculator{... */\n      mstore(0x40, 0x80)\n      callvalue\n      dup1\n      iszero\n      tag_1\n      jumpi\n      revert(0x00, 0x00)\n    tag_1:\n      pop\n      jumpi(tag_2, lt(calldatasize, 0x04))\n      shr(0xe0, calldataload(0x00))\n      dup1\n      0xb96868f9\n      eq\n      tag_3\n      jumpi\n      dup1\n      0xc04f01fc\n      eq\n      tag_4\n      jumpi\n    tag_2:\n      revert(0x00, 0x00)\n        /* \"contracts/ScientificCalculator.sol\":272:664  function squareRoot(int256 number) public pure returns (int256){... */\n    tag_3:\n      tag_5\n      0x04\n      dup1\n      calldatasize\n      sub\n      dup2\n      add\n      swap1\n      tag_6\n      swap2\n      swap1\n      tag_7\n      jump\t// in\n    tag_6:\n      tag_8\n      jump\t// in\n    tag_5:\n      mload(0x40)\n      tag_9\n      swap2\n      swap1\n      tag_10\n      jump\t// in\n    tag_9:\n      mload(0x40)\n      dup1\n      swap2\n      sub\n      swap1\n      return\n        /* \"contracts/ScientificCalculator.sol\":103:264  function power(uint256 base, uint256 exponent) public pure returns(uint256){... */\n    tag_4:\n      tag_11\n      0x04\n      dup1\n      calldatasize\n      sub\n      dup2\n      add\n      swap1\n      tag_12\n      swap2\n      swap1\n      tag_13\n      jump\t// in\n    tag_12:\n      tag_14\n      jump\t// in\n    tag_11:\n      mload(0x40)\n      tag_15\n      swap2\n      swap1\n      tag_16\n      jump\t// in\n    tag_15:\n      mload(0x40)\n      dup1\n      swap2\n      sub\n      swap1\n      return\n        /* \"contracts/ScientificCalculator.sol\":272:664  function squareRoot(int256 number) public pure returns (int256){... */\n    tag_8:\n        /* \"contracts/ScientificCalculator.sol\":328:334  int256 */\n      0x00\n        /* \"contracts/ScientificCalculator.sol\":363:364  0 */\n      0x00\n        /* \"contracts/ScientificCalculator.sol\":354:360  number */\n      dup3\n        /* \"contracts/ScientificCalculator.sol\":354:364  number > 0 */\n      sgt\n        /* \"contracts/ScientificCalculator.sol\":346:453  require(number > 0, \"Cannot calculate square root of a negative number,Number should be greater than zero\") */\n      tag_18\n      jumpi\n      mload(0x40)\n      0x08c379a000000000000000000000000000000000000000000000000000000000\n      dup2\n      mstore\n      0x04\n      add\n      tag_19\n      swap1\n      tag_20\n      jump\t// in\n    tag_19:\n      mload(0x40)\n      dup1\n      swap2\n      sub\n      swap1\n      revert\n    tag_18:\n        /* \"contracts/ScientificCalculator.sol\":478:479  0 */\n      0x00\n        /* \"contracts/ScientificCalculator.sol\":468:474  number */\n      dup3\n        /* \"contracts/ScientificCalculator.sol\":468:479  number == 0 */\n      sub\n        /* \"contracts/ScientificCalculator.sol\":464:489  if (number == 0) return 0 */\n      tag_21\n      jumpi\n        /* \"contracts/ScientificCalculator.sol\":488:489  0 */\n      0x00\n        /* \"contracts/ScientificCalculator.sol\":481:489  return 0 */\n      swap1\n      pop\n      jump(tag_17)\n        /* \"contracts/ScientificCalculator.sol\":464:489  if (number == 0) return 0 */\n    tag_21:\n        /* \"contracts/ScientificCalculator.sol\":502:515  int256 result */\n      0x00\n        /* \"contracts/ScientificCalculator.sol\":525:526  2 */\n      0x02\n        /* \"contracts/ScientificCalculator.sol\":518:524  number */\n      dup4\n        /* \"contracts/ScientificCalculator.sol\":518:526  number/2 */\n      tag_22\n      swap2\n      swap1\n      tag_23\n      jump\t// in\n    tag_22:\n        /* \"contracts/ScientificCalculator.sol\":502:526  int256 result = number/2 */\n      swap1\n      pop\n        /* \"contracts/ScientificCalculator.sol\":541:550  uint256 i */\n      0x00\n        /* \"contracts/ScientificCalculator.sol\":553:554  0 */\n      0x00\n        /* \"contracts/ScientificCalculator.sol\":541:554  uint256 i = 0 */\n      swap1\n      pop\n        /* \"contracts/ScientificCalculator.sol\":537:631  for(uint256 i = 0; 1 <10; i++){... */\n    tag_24:\n        /* \"contracts/ScientificCalculator.sol\":559:561  10 */\n      0x0a\n        /* \"contracts/ScientificCalculator.sol\":556:557  1 */\n      0x01\n        /* \"contracts/ScientificCalculator.sol\":556:561  1 <10 */\n      lt\n        /* \"contracts/ScientificCalculator.sol\":537:631  for(uint256 i = 0; 1 <10; i++){... */\n      iszero\n      tag_25\n      jumpi\n        /* \"contracts/ScientificCalculator.sol\":618:619  2 */\n      0x02\n        /* \"contracts/ScientificCalculator.sol\":610:616  result */\n      dup3\n        /* \"contracts/ScientificCalculator.sol\":601:607  number */\n      dup6\n        /* \"contracts/ScientificCalculator.sol\":601:616  number / result */\n      tag_27\n      swap2\n      swap1\n      tag_23\n      jump\t// in\n    tag_27:\n        /* \"contracts/ScientificCalculator.sol\":592:598  result */\n      dup4\n        /* \"contracts/ScientificCalculator.sol\":592:616  result + number / result */\n      tag_28\n      swap2\n      swap1\n      tag_29\n      jump\t// in\n    tag_28:\n        /* \"contracts/ScientificCalculator.sol\":591:619  (result + number / result)/2 */\n      tag_30\n      swap2\n      swap1\n      tag_23\n      jump\t// in\n    tag_30:\n        /* \"contracts/ScientificCalculator.sol\":582:619  result = (result + number / result)/2 */\n      swap2\n      pop\n        /* \"contracts/ScientificCalculator.sol\":563:566  i++ */\n      dup1\n      dup1\n      tag_31\n      swap1\n      tag_32\n      jump\t// in\n    tag_31:\n      swap2\n      pop\n      pop\n        /* \"contracts/ScientificCalculator.sol\":537:631  for(uint256 i = 0; 1 <10; i++){... */\n      jump(tag_24)\n    tag_25:\n      pop\n        /* \"contracts/ScientificCalculator.sol\":650:656  result */\n      dup1\n        /* \"contracts/ScientificCalculator.sol\":643:656  return result */\n      swap2\n      pop\n      pop\n        /* \"contracts/ScientificCalculator.sol\":272:664  function squareRoot(int256 number) public pure returns (int256){... */\n    tag_17:\n      swap2\n      swap1\n      pop\n      jump\t// out\n        /* \"contracts/ScientificCalculator.sol\":103:264  function power(uint256 base, uint256 exponent) public pure returns(uint256){... */\n    tag_14:\n        /* \"contracts/ScientificCalculator.sol\":170:177  uint256 */\n      0x00\n        /* \"contracts/ScientificCalculator.sol\":204:205  0 */\n      0x00\n        /* \"contracts/ScientificCalculator.sol\":192:200  exponent */\n      dup3\n        /* \"contracts/ScientificCalculator.sol\":192:205  exponent == 0 */\n      sub\n        /* \"contracts/ScientificCalculator.sol\":189:256  if(exponent == 0) return 1;... */\n      tag_34\n      jumpi\n        /* \"contracts/ScientificCalculator.sol\":214:215  1 */\n      0x01\n        /* \"contracts/ScientificCalculator.sol\":207:215  return 1 */\n      swap1\n      pop\n      jump(tag_33)\n        /* \"contracts/ScientificCalculator.sol\":189:256  if(exponent == 0) return 1;... */\n    tag_34:\n        /* \"contracts/ScientificCalculator.sol\":247:255  exponent */\n      dup2\n        /* \"contracts/ScientificCalculator.sol\":239:243  base */\n      dup4\n        /* \"contracts/ScientificCalculator.sol\":239:255  base ** exponent */\n      tag_36\n      swap2\n      swap1\n      tag_37\n      jump\t// in\n    tag_36:\n        /* \"contracts/ScientificCalculator.sol\":231:256  return (base ** exponent) */\n      swap1\n      pop\n        /* \"contracts/ScientificCalculator.sol\":103:264  function power(uint256 base, uint256 exponent) public pure returns(uint256){... */\n    tag_33:\n      swap3\n      swap2\n      pop\n      pop\n      jump\t// out\n        /* \"#utility.yul\":88:205   */\n    tag_39:\n        /* \"#utility.yul\":197:198   */\n      0x00\n        /* \"#utility.yul\":194:195   */\n      0x00\n        /* \"#utility.yul\":187:199   */\n      revert\n        /* \"#utility.yul\":334:410   */\n    tag_41:\n        /* \"#utility.yul\":370:377   */\n      0x00\n        /* \"#utility.yul\":399:404   */\n      dup2\n        /* \"#utility.yul\":388:404   */\n      swap1\n      pop\n        /* \"#utility.yul\":334:410   */\n      swap2\n      swap1\n      pop\n      jump\t// out\n        /* \"#utility.yul\":416:536   */\n    tag_42:\n        /* \"#utility.yul\":488:511   */\n      tag_63\n        /* \"#utility.yul\":505:510   */\n      dup2\n        /* \"#utility.yul\":488:511   */\n      tag_41\n      jump\t// in\n    tag_63:\n        /* \"#utility.yul\":481:486   */\n      dup2\n        /* \"#utility.yul\":478:512   */\n      eq\n        /* \"#utility.yul\":468:530   */\n      tag_64\n      jumpi\n        /* \"#utility.yul\":526:527   */\n      0x00\n        /* \"#utility.yul\":523:524   */\n      0x00\n        /* \"#utility.yul\":516:528   */\n      revert\n        /* \"#utility.yul\":468:530   */\n    tag_64:\n        /* \"#utility.yul\":416:536   */\n      pop\n      jump\t// out\n        /* \"#utility.yul\":542:679   */\n    tag_43:\n        /* \"#utility.yul\":587:592   */\n      0x00\n        /* \"#utility.yul\":625:631   */\n      dup2\n        /* \"#utility.yul\":612:632   */\n      calldataload\n        /* \"#utility.yul\":603:632   */\n      swap1\n      pop\n        /* \"#utility.yul\":641:673   */\n      tag_66\n        /* \"#utility.yul\":667:672   */\n      dup2\n        /* \"#utility.yul\":641:673   */\n      tag_42\n      jump\t// in\n    tag_66:\n        /* \"#utility.yul\":542:679   */\n      swap3\n      swap2\n      pop\n      pop\n      jump\t// out\n        /* \"#utility.yul\":685:1012   */\n    tag_7:\n        /* \"#utility.yul\":743:749   */\n      0x00\n        /* \"#utility.yul\":792:794   */\n      0x20\n        /* \"#utility.yul\":780:789   */\n      dup3\n        /* \"#utility.yul\":771:778   */\n      dup5\n        /* \"#utility.yul\":767:790   */\n      sub\n        /* \"#utility.yul\":763:795   */\n      slt\n        /* \"#utility.yul\":760:879   */\n      iszero\n      tag_68\n      jumpi\n        /* \"#utility.yul\":798:877   */\n      tag_69\n      tag_39\n      jump\t// in\n    tag_69:\n        /* \"#utility.yul\":760:879   */\n    tag_68:\n        /* \"#utility.yul\":918:919   */\n      0x00\n        /* \"#utility.yul\":943:995   */\n      tag_70\n        /* \"#utility.yul\":987:994   */\n      dup5\n        /* \"#utility.yul\":978:984   */\n      dup3\n        /* \"#utility.yul\":967:976   */\n      dup6\n        /* \"#utility.yul\":963:985   */\n      add\n        /* \"#utility.yul\":943:995   */\n      tag_43\n      jump\t// in\n    tag_70:\n        /* \"#utility.yul\":933:995   */\n      swap2\n      pop\n        /* \"#utility.yul\":889:1005   */\n      pop\n        /* \"#utility.yul\":685:1012   */\n      swap3\n      swap2\n      pop\n      pop\n      jump\t// out\n        /* \"#utility.yul\":1018:1133   */\n    tag_44:\n        /* \"#utility.yul\":1103:1126   */\n      tag_72\n        /* \"#utility.yul\":1120:1125   */\n      dup2\n        /* \"#utility.yul\":1103:1126   */\n      tag_41\n      jump\t// in\n    tag_72:\n        /* \"#utility.yul\":1098:1101   */\n      dup3\n        /* \"#utility.yul\":1091:1127   */\n      mstore\n        /* \"#utility.yul\":1018:1133   */\n      pop\n      pop\n      jump\t// out\n        /* \"#utility.yul\":1139:1357   */\n    tag_10:\n        /* \"#utility.yul\":1230:1234   */\n      0x00\n        /* \"#utility.yul\":1268:1270   */\n      0x20\n        /* \"#utility.yul\":1257:1266   */\n      dup3\n        /* \"#utility.yul\":1253:1271   */\n      add\n        /* \"#utility.yul\":1245:1271   */\n      swap1\n      pop\n        /* \"#utility.yul\":1281:1350   */\n      tag_74\n        /* \"#utility.yul\":1347:1348   */\n      0x00\n        /* \"#utility.yul\":1336:1345   */\n      dup4\n        /* \"#utility.yul\":1332:1349   */\n      add\n        /* \"#utility.yul\":1323:1329   */\n      dup5\n        /* \"#utility.yul\":1281:1350   */\n      tag_44\n      jump\t// in\n    tag_74:\n        /* \"#utility.yul\":1139:1357   */\n      swap3\n      swap2\n      pop\n      pop\n      jump\t// out\n        /* \"#utility.yul\":1363:1440   */\n    tag_45:\n        /* \"#utility.yul\":1400:1407   */\n      0x00\n        /* \"#utility.yul\":1429:1434   */\n      dup2\n        /* \"#utility.yul\":1418:1434   */\n      swap1\n      pop\n        /* \"#utility.yul\":1363:1440   */\n      swap2\n      swap1\n      pop\n      jump\t// out\n        /* \"#utility.yul\":1446:1568   */\n    tag_46:\n        /* \"#utility.yul\":1519:1543   */\n      tag_77\n        /* \"#utility.yul\":1537:1542   */\n      dup2\n        /* \"#utility.yul\":1519:1543   */\n      tag_45\n      jump\t// in\n    tag_77:\n        /* \"#utility.yul\":1512:1517   */\n      dup2\n        /* \"#utility.yul\":1509:1544   */\n      eq\n        /* \"#utility.yul\":1499:1562   */\n      tag_78\n      jumpi\n        /* \"#utility.yul\":1558:1559   */\n      0x00\n        /* \"#utility.yul\":1555:1556   */\n      0x00\n        /* \"#utility.yul\":1548:1560   */\n      revert\n        /* \"#utility.yul\":1499:1562   */\n    tag_78:\n        /* \"#utility.yul\":1446:1568   */\n      pop\n      jump\t// out\n        /* \"#utility.yul\":1574:1713   */\n    tag_47:\n        /* \"#utility.yul\":1620:1625   */\n      0x00\n        /* \"#utility.yul\":1658:1664   */\n      dup2\n        /* \"#utility.yul\":1645:1665   */\n      calldataload\n        /* \"#utility.yul\":1636:1665   */\n      swap1\n      pop\n        /* \"#utility.yul\":1674:1707   */\n      tag_80\n        /* \"#utility.yul\":1701:1706   */\n      dup2\n        /* \"#utility.yul\":1674:1707   */\n      tag_46\n      jump\t// in\n    tag_80:\n        /* \"#utility.yul\":1574:1713   */\n      swap3\n      swap2\n      pop\n      pop\n      jump\t// out\n        /* \"#utility.yul\":1719:2193   */\n    tag_13:\n        /* \"#utility.yul\":1787:1793   */\n      0x00\n        /* \"#utility.yul\":1795:1801   */\n      0x00\n        /* \"#utility.yul\":1844:1846   */\n      0x40\n        /* \"#utility.yul\":1832:1841   */\n      dup4\n        /* \"#utility.yul\":1823:1830   */\n      dup6\n        /* \"#utility.yul\":1819:1842   */\n      sub\n        /* \"#utility.yul\":1815:1847   */\n      slt\n        /* \"#utility.yul\":1812:1931   */\n      iszero\n      tag_82\n      jumpi\n        /* \"#utility.yul\":1850:1929   */\n      tag_83\n      tag_39\n      jump\t// in\n    tag_83:\n        /* \"#utility.yul\":1812:1931   */\n    tag_82:\n        /* \"#utility.yul\":1970:1971   */\n      0x00\n        /* \"#utility.yul\":1995:2048   */\n      tag_84\n        /* \"#utility.yul\":2040:2047   */\n      dup6\n        /* \"#utility.yul\":2031:2037   */\n      dup3\n        /* \"#utility.yul\":2020:2029   */\n      dup7\n        /* \"#utility.yul\":2016:2038   */\n      add\n        /* \"#utility.yul\":1995:2048   */\n      tag_47\n      jump\t// in\n    tag_84:\n        /* \"#utility.yul\":1985:2048   */\n      swap3\n      pop\n        /* \"#utility.yul\":1941:2058   */\n      pop\n        /* \"#utility.yul\":2097:2099   */\n      0x20\n        /* \"#utility.yul\":2123:2176   */\n      tag_85\n        /* \"#utility.yul\":2168:2175   */\n      dup6\n        /* \"#utility.yul\":2159:2165   */\n      dup3\n        /* \"#utility.yul\":2148:2157   */\n      dup7\n        /* \"#utility.yul\":2144:2166   */\n      add\n        /* \"#utility.yul\":2123:2176   */\n      tag_47\n      jump\t// in\n    tag_85:\n        /* \"#utility.yul\":2113:2176   */\n      swap2\n      pop\n        /* \"#utility.yul\":2068:2186   */\n      pop\n        /* \"#utility.yul\":1719:2193   */\n      swap3\n      pop\n      swap3\n      swap1\n      pop\n      jump\t// out\n        /* \"#utility.yul\":2199:2317   */\n    tag_48:\n        /* \"#utility.yul\":2286:2310   */\n      tag_87\n        /* \"#utility.yul\":2304:2309   */\n      dup2\n        /* \"#utility.yul\":2286:2310   */\n      tag_45\n      jump\t// in\n    tag_87:\n        /* \"#utility.yul\":2281:2284   */\n      dup3\n        /* \"#utility.yul\":2274:2311   */\n      mstore\n        /* \"#utility.yul\":2199:2317   */\n      pop\n      pop\n      jump\t// out\n        /* \"#utility.yul\":2323:2545   */\n    tag_16:\n        /* \"#utility.yul\":2416:2420   */\n      0x00\n        /* \"#utility.yul\":2454:2456   */\n      0x20\n        /* \"#utility.yul\":2443:2452   */\n      dup3\n        /* \"#utility.yul\":2439:2457   */\n      add\n        /* \"#utility.yul\":2431:2457   */\n      swap1\n      pop\n        /* \"#utility.yul\":2467:2538   */\n      tag_89\n        /* \"#utility.yul\":2535:2536   */\n      0x00\n        /* \"#utility.yul\":2524:2533   */\n      dup4\n        /* \"#utility.yul\":2520:2537   */\n      add\n        /* \"#utility.yul\":2511:2517   */\n      dup5\n        /* \"#utility.yul\":2467:2538   */\n      tag_48\n      jump\t// in\n    tag_89:\n        /* \"#utility.yul\":2323:2545   */\n      swap3\n      swap2\n      pop\n      pop\n      jump\t// out\n        /* \"#utility.yul\":2551:2720   */\n    tag_49:\n        /* \"#utility.yul\":2635:2646   */\n      0x00\n        /* \"#utility.yul\":2669:2675   */\n      dup3\n        /* \"#utility.yul\":2664:2667   */\n      dup3\n        /* \"#utility.yul\":2657:2676   */\n      mstore\n        /* \"#utility.yul\":2709:2713   */\n      0x20\n        /* \"#utility.yul\":2704:2707   */\n      dup3\n        /* \"#utility.yul\":2700:2714   */\n      add\n        /* \"#utility.yul\":2685:2714   */\n      swap1\n      pop\n        /* \"#utility.yul\":2551:2720   */\n      swap3\n      swap2\n      pop\n      pop\n      jump\t// out\n        /* \"#utility.yul\":2726:3034   */\n    tag_50:\n        /* \"#utility.yul\":2866:2900   */\n      0x43616e6e6f742063616c63756c6174652073717561726520726f6f74206f6620\n        /* \"#utility.yul\":2862:2863   */\n      0x00\n        /* \"#utility.yul\":2854:2860   */\n      dup3\n        /* \"#utility.yul\":2850:2864   */\n      add\n        /* \"#utility.yul\":2843:2901   */\n      mstore\n        /* \"#utility.yul\":2935:2969   */\n      0x61206e65676174697665206e756d6265722c4e756d6265722073686f756c6420\n        /* \"#utility.yul\":2930:2932   */\n      0x20\n        /* \"#utility.yul\":2922:2928   */\n      dup3\n        /* \"#utility.yul\":2918:2933   */\n      add\n        /* \"#utility.yul\":2911:2970   */\n      mstore\n        /* \"#utility.yul\":3004:3026   */\n      0x62652067726561746572207468616e207a65726f000000000000000000000000\n        /* \"#utility.yul\":2999:3001   */\n      0x40\n        /* \"#utility.yul\":2991:2997   */\n      dup3\n        /* \"#utility.yul\":2987:3002   */\n      add\n        /* \"#utility.yul\":2980:3027   */\n      mstore\n        /* \"#utility.yul\":2726:3034   */\n      pop\n      jump\t// out\n        /* \"#utility.yul\":3040:3406   */\n    tag_51:\n        /* \"#utility.yul\":3182:3185   */\n      0x00\n        /* \"#utility.yul\":3203:3270   */\n      tag_93\n        /* \"#utility.yul\":3267:3269   */\n      0x54\n        /* \"#utility.yul\":3262:3265   */\n      dup4\n        /* \"#utility.yul\":3203:3270   */\n      tag_49\n      jump\t// in\n    tag_93:\n        /* \"#utility.yul\":3196:3270   */\n      swap2\n      pop\n        /* \"#utility.yul\":3279:3372   */\n      tag_94\n        /* \"#utility.yul\":3368:3371   */\n      dup3\n        /* \"#utility.yul\":3279:3372   */\n      tag_50\n      jump\t// in\n    tag_94:\n        /* \"#utility.yul\":3397:3399   */\n      0x60\n        /* \"#utility.yul\":3392:3395   */\n      dup3\n        /* \"#utility.yul\":3388:3400   */\n      add\n        /* \"#utility.yul\":3381:3400   */\n      swap1\n      pop\n        /* \"#utility.yul\":3040:3406   */\n      swap2\n      swap1\n      pop\n      jump\t// out\n        /* \"#utility.yul\":3412:3831   */\n    tag_20:\n        /* \"#utility.yul\":3578:3582   */\n      0x00\n        /* \"#utility.yul\":3616:3618   */\n      0x20\n        /* \"#utility.yul\":3605:3614   */\n      dup3\n        /* \"#utility.yul\":3601:3619   */\n      add\n        /* \"#utility.yul\":3593:3619   */\n      swap1\n      pop\n        /* \"#utility.yul\":3665:3674   */\n      dup2\n        /* \"#utility.yul\":3659:3663   */\n      dup2\n        /* \"#utility.yul\":3655:3675   */\n      sub\n        /* \"#utility.yul\":3651:3652   */\n      0x00\n        /* \"#utility.yul\":3640:3649   */\n      dup4\n        /* \"#utility.yul\":3636:3653   */\n      add\n        /* \"#utility.yul\":3629:3676   */\n      mstore\n        /* \"#utility.yul\":3693:3824   */\n      tag_96\n        /* \"#utility.yul\":3819:3823   */\n      dup2\n        /* \"#utility.yul\":3693:3824   */\n      tag_51\n      jump\t// in\n    tag_96:\n        /* \"#utility.yul\":3685:3824   */\n      swap1\n      pop\n        /* \"#utility.yul\":3412:3831   */\n      swap2\n      swap1\n      pop\n      jump\t// out\n        /* \"#utility.yul\":3837:4017   */\n    tag_52:\n        /* \"#utility.yul\":3885:3962   */\n      0x4e487b7100000000000000000000000000000000000000000000000000000000\n        /* \"#utility.yul\":3882:3883   */\n      0x00\n        /* \"#utility.yul\":3875:3963   */\n      mstore\n        /* \"#utility.yul\":3982:3986   */\n      0x12\n        /* \"#utility.yul\":3979:3980   */\n      0x04\n        /* \"#utility.yul\":3972:3987   */\n      mstore\n        /* \"#utility.yul\":4006:4010   */\n      0x24\n        /* \"#utility.yul\":4003:4004   */\n      0x00\n        /* \"#utility.yul\":3996:4011   */\n      revert\n        /* \"#utility.yul\":4023:4203   */\n    tag_53:\n        /* \"#utility.yul\":4071:4148   */\n      0x4e487b7100000000000000000000000000000000000000000000000000000000\n        /* \"#utility.yul\":4068:4069   */\n      0x00\n        /* \"#utility.yul\":4061:4149   */\n      mstore\n        /* \"#utility.yul\":4168:4172   */\n      0x11\n        /* \"#utility.yul\":4165:4166   */\n      0x04\n        /* \"#utility.yul\":4158:4173   */\n      mstore\n        /* \"#utility.yul\":4192:4196   */\n      0x24\n        /* \"#utility.yul\":4189:4190   */\n      0x00\n        /* \"#utility.yul\":4182:4197   */\n      revert\n        /* \"#utility.yul\":4209:4594   */\n    tag_23:\n        /* \"#utility.yul\":4248:4249   */\n      0x00\n        /* \"#utility.yul\":4265:4284   */\n      tag_100\n        /* \"#utility.yul\":4282:4283   */\n      dup3\n        /* \"#utility.yul\":4265:4284   */\n      tag_41\n      jump\t// in\n    tag_100:\n        /* \"#utility.yul\":4260:4284   */\n      swap2\n      pop\n        /* \"#utility.yul\":4298:4317   */\n      tag_101\n        /* \"#utility.yul\":4315:4316   */\n      dup4\n        /* \"#utility.yul\":4298:4317   */\n      tag_41\n      jump\t// in\n    tag_101:\n        /* \"#utility.yul\":4293:4317   */\n      swap3\n      pop\n        /* \"#utility.yul\":4336:4337   */\n      dup3\n        /* \"#utility.yul\":4326:4361   */\n      tag_102\n      jumpi\n        /* \"#utility.yul\":4341:4359   */\n      tag_103\n      tag_52\n      jump\t// in\n    tag_103:\n        /* \"#utility.yul\":4326:4361   */\n    tag_102:\n        /* \"#utility.yul\":4527:4528   */\n      0x01\n        /* \"#utility.yul\":4524:4525   */\n      0x00\n        /* \"#utility.yul\":4520:4529   */\n      sub\n        /* \"#utility.yul\":4517:4518   */\n      dup4\n        /* \"#utility.yul\":4514:4530   */\n      eq\n        /* \"#utility.yul\":4433:4499   */\n      0x8000000000000000000000000000000000000000000000000000000000000000\n        /* \"#utility.yul\":4430:4431   */\n      dup4\n        /* \"#utility.yul\":4427:4500   */\n      eq\n        /* \"#utility.yul\":4410:4540   */\n      and\n        /* \"#utility.yul\":4407:4563   */\n      iszero\n      tag_104\n      jumpi\n        /* \"#utility.yul\":4543:4561   */\n      tag_105\n      tag_53\n      jump\t// in\n    tag_105:\n        /* \"#utility.yul\":4407:4563   */\n    tag_104:\n        /* \"#utility.yul\":4586:4587   */\n      dup3\n        /* \"#utility.yul\":4583:4584   */\n      dup3\n        /* \"#utility.yul\":4578:4588   */\n      sdiv\n        /* \"#utility.yul\":4573:4588   */\n      swap1\n      pop\n        /* \"#utility.yul\":4209:4594   */\n      swap3\n      swap2\n      pop\n      pop\n      jump\t// out\n        /* \"#utility.yul\":4600:4975   */\n    tag_29:\n        /* \"#utility.yul\":4639:4642   */\n      0x00\n        /* \"#utility.yul\":4658:4677   */\n      tag_107\n        /* \"#utility.yul\":4675:4676   */\n      dup3\n        /* \"#utility.yul\":4658:4677   */\n      tag_41\n      jump\t// in\n    tag_107:\n        /* \"#utility.yul\":4653:4677   */\n      swap2\n      pop\n        /* \"#utility.yul\":4691:4710   */\n      tag_108\n        /* \"#utility.yul\":4708:4709   */\n      dup4\n        /* \"#utility.yul\":4691:4710   */\n      tag_41\n      jump\t// in\n    tag_108:\n        /* \"#utility.yul\":4686:4710   */\n      swap3\n      pop\n        /* \"#utility.yul\":4733:4734   */\n      dup3\n        /* \"#utility.yul\":4730:4731   */\n      dup3\n        /* \"#utility.yul\":4726:4735   */\n      add\n        /* \"#utility.yul\":4719:4735   */\n      swap1\n      pop\n        /* \"#utility.yul\":4931:4932   */\n      dup3\n        /* \"#utility.yul\":4926:4929   */\n      dup2\n        /* \"#utility.yul\":4922:4933   */\n      slt\n        /* \"#utility.yul\":4915:4934   */\n      iszero\n        /* \"#utility.yul\":4911:4912   */\n      0x00\n        /* \"#utility.yul\":4908:4909   */\n      dup4\n        /* \"#utility.yul\":4904:4913   */\n      slt\n        /* \"#utility.yul\":4900:4935   */\n      and\n        /* \"#utility.yul\":4883:4884   */\n      dup4\n        /* \"#utility.yul\":4878:4881   */\n      dup3\n        /* \"#utility.yul\":4874:4885   */\n      slt\n        /* \"#utility.yul\":4869:4870   */\n      0x00\n        /* \"#utility.yul\":4866:4867   */\n      dup5\n        /* \"#utility.yul\":4862:4871   */\n      slt\n        /* \"#utility.yul\":4855:4872   */\n      iszero\n        /* \"#utility.yul\":4851:4886   */\n      and\n        /* \"#utility.yul\":4835:4945   */\n      or\n        /* \"#utility.yul\":4832:4968   */\n      iszero\n      tag_109\n      jumpi\n        /* \"#utility.yul\":4948:4966   */\n      tag_110\n      tag_53\n      jump\t// in\n    tag_110:\n        /* \"#utility.yul\":4832:4968   */\n    tag_109:\n        /* \"#utility.yul\":4600:4975   */\n      swap3\n      swap2\n      pop\n      pop\n      jump\t// out\n        /* \"#utility.yul\":4981:5214   */\n    tag_32:\n        /* \"#utility.yul\":5020:5023   */\n      0x00\n        /* \"#utility.yul\":5043:5067   */\n      tag_112\n        /* \"#utility.yul\":5061:5066   */\n      dup3\n        /* \"#utility.yul\":5043:5067   */\n      tag_45\n      jump\t// in\n    tag_112:\n        /* \"#utility.yul\":5034:5067   */\n      swap2\n      pop\n        /* \"#utility.yul\":5089:5155   */\n      0xffffffffffffffffffffffffffffffffffffffffffffffffffffffffffffffff\n        /* \"#utility.yul\":5082:5087   */\n      dup3\n        /* \"#utility.yul\":5079:5156   */\n      sub\n        /* \"#utility.yul\":5076:5179   */\n      tag_113\n      jumpi\n        /* \"#utility.yul\":5159:5177   */\n      tag_114\n      tag_53\n      jump\t// in\n    tag_114:\n        /* \"#utility.yul\":5076:5179   */\n    tag_113:\n        /* \"#utility.yul\":5206:5207   */\n      0x01\n        /* \"#utility.yul\":5199:5204   */\n      dup3\n        /* \"#utility.yul\":5195:5208   */\n      add\n        /* \"#utility.yul\":5188:5208   */\n      swap1\n      pop\n        /* \"#utility.yul\":4981:5214   */\n      swap2\n      swap1\n      pop\n      jump\t// out\n        /* \"#utility.yul\":5220:5322   */\n    tag_54:\n        /* \"#utility.yul\":5262:5270   */\n      0x00\n        /* \"#utility.yul\":5309:5314   */\n      dup2\n        /* \"#utility.yul\":5306:5307   */\n      0x01\n        /* \"#utility.yul\":5302:5315   */\n      shr\n        /* \"#utility.yul\":5281:5315   */\n      swap1\n      pop\n        /* \"#utility.yul\":5220:5322   */\n      swap2\n      swap1\n      pop\n      jump\t// out\n        /* \"#utility.yul\":5328:6176   */\n    tag_55:\n        /* \"#utility.yul\":5389:5394   */\n      0x00\n        /* \"#utility.yul\":5396:5400   */\n      0x00\n        /* \"#utility.yul\":5420:5426   */\n      dup3\n        /* \"#utility.yul\":5411:5426   */\n      swap2\n      pop\n        /* \"#utility.yul\":5444:5449   */\n      dup4\n        /* \"#utility.yul\":5435:5449   */\n      swap1\n      pop\n        /* \"#utility.yul\":5458:6170   */\n    tag_117:\n        /* \"#utility.yul\":5479:5480   */\n      0x01\n        /* \"#utility.yul\":5469:5477   */\n      dup6\n        /* \"#utility.yul\":5466:5481   */\n      gt\n        /* \"#utility.yul\":5458:6170   */\n      iszero\n      tag_119\n      jumpi\n        /* \"#utility.yul\":5574:5578   */\n      dup1\n        /* \"#utility.yul\":5569:5572   */\n      dup7\n        /* \"#utility.yul\":5565:5579   */\n      div\n        /* \"#utility.yul\":5559:5563   */\n      dup2\n        /* \"#utility.yul\":5556:5580   */\n      gt\n        /* \"#utility.yul\":5553:5603   */\n      iszero\n      tag_120\n      jumpi\n        /* \"#utility.yul\":5583:5601   */\n      tag_121\n      tag_53\n      jump\t// in\n    tag_121:\n        /* \"#utility.yul\":5553:5603   */\n    tag_120:\n        /* \"#utility.yul\":5633:5634   */\n      0x01\n        /* \"#utility.yul\":5623:5631   */\n      dup6\n        /* \"#utility.yul\":5619:5635   */\n      and\n        /* \"#utility.yul\":5616:6067   */\n      iszero\n      tag_122\n      jumpi\n        /* \"#utility.yul\":6048:6052   */\n      dup1\n        /* \"#utility.yul\":6041:6046   */\n      dup3\n        /* \"#utility.yul\":6037:6053   */\n      mul\n        /* \"#utility.yul\":6028:6053   */\n      swap2\n      pop\n        /* \"#utility.yul\":5616:6067   */\n    tag_122:\n        /* \"#utility.yul\":6098:6102   */\n      dup1\n        /* \"#utility.yul\":6092:6096   */\n      dup2\n        /* \"#utility.yul\":6088:6103   */\n      mul\n        /* \"#utility.yul\":6080:6103   */\n      swap1\n      pop\n        /* \"#utility.yul\":6128:6160   */\n      tag_123\n        /* \"#utility.yul\":6151:6159   */\n      dup6\n        /* \"#utility.yul\":6128:6160   */\n      tag_54\n      jump\t// in\n    tag_123:\n        /* \"#utility.yul\":6116:6160   */\n      swap5\n      pop\n        /* \"#utility.yul\":5458:6170   */\n      jump(tag_117)\n    tag_119:\n        /* \"#utility.yul\":5328:6176   */\n      swap5\n      pop\n      swap5\n      swap3\n      pop\n      pop\n      pop\n      jump\t// out\n        /* \"#utility.yul\":6182:7255   */\n    tag_56:\n        /* \"#utility.yul\":6236:6241   */\n      0x00\n        /* \"#utility.yul\":6427:6435   */\n      dup3\n        /* \"#utility.yul\":6417:6457   */\n      tag_125\n      jumpi\n        /* \"#utility.yul\":6448:6449   */\n      0x01\n        /* \"#utility.yul\":6439:6449   */\n      swap1\n      pop\n        /* \"#utility.yul\":6450:6455   */\n      jump(tag_124)\n        /* \"#utility.yul\":6417:6457   */\n    tag_125:\n        /* \"#utility.yul\":6476:6480   */\n      dup2\n        /* \"#utility.yul\":6466:6502   */\n      tag_126\n      jumpi\n        /* \"#utility.yul\":6493:6494   */\n      0x00\n        /* \"#utility.yul\":6484:6494   */\n      swap1\n      pop\n        /* \"#utility.yul\":6495:6500   */\n      jump(tag_124)\n        /* \"#utility.yul\":6466:6502   */\n    tag_126:\n        /* \"#utility.yul\":6562:6566   */\n      dup2\n        /* \"#utility.yul\":6610:6611   */\n      0x01\n        /* \"#utility.yul\":6605:6632   */\n      dup2\n      eq\n      tag_128\n      jumpi\n        /* \"#utility.yul\":6646:6647   */\n      0x02\n        /* \"#utility.yul\":6641:6832   */\n      dup2\n      eq\n      tag_129\n      jumpi\n        /* \"#utility.yul\":6555:6832   */\n      jump(tag_127)\n        /* \"#utility.yul\":6605:6632   */\n    tag_128:\n        /* \"#utility.yul\":6623:6624   */\n      0x01\n        /* \"#utility.yul\":6614:6624   */\n      swap2\n      pop\n        /* \"#utility.yul\":6625:6630   */\n      pop\n      jump(tag_124)\n        /* \"#utility.yul\":6641:6832   */\n    tag_129:\n        /* \"#utility.yul\":6686:6689   */\n      0xff\n        /* \"#utility.yul\":6676:6684   */\n      dup5\n        /* \"#utility.yul\":6673:6690   */\n      gt\n        /* \"#utility.yul\":6670:6713   */\n      iszero\n      tag_130\n      jumpi\n        /* \"#utility.yul\":6693:6711   */\n      tag_131\n      tag_53\n      jump\t// in\n    tag_131:\n        /* \"#utility.yul\":6670:6713   */\n    tag_130:\n        /* \"#utility.yul\":6742:6750   */\n      dup4\n        /* \"#utility.yul\":6739:6740   */\n      0x02\n        /* \"#utility.yul\":6735:6751   */\n      exp\n        /* \"#utility.yul\":6726:6751   */\n      swap2\n      pop\n        /* \"#utility.yul\":6777:6780   */\n      dup5\n        /* \"#utility.yul\":6770:6775   */\n      dup3\n        /* \"#utility.yul\":6767:6781   */\n      gt\n        /* \"#utility.yul\":6764:6804   */\n      iszero\n      tag_132\n      jumpi\n        /* \"#utility.yul\":6784:6802   */\n      tag_133\n      tag_53\n      jump\t// in\n    tag_133:\n        /* \"#utility.yul\":6764:6804   */\n    tag_132:\n        /* \"#utility.yul\":6817:6822   */\n      pop\n      jump(tag_124)\n        /* \"#utility.yul\":6555:6832   */\n    tag_127:\n      pop\n        /* \"#utility.yul\":6941:6943   */\n      0x20\n        /* \"#utility.yul\":6931:6939   */\n      dup4\n        /* \"#utility.yul\":6928:6944   */\n      lt\n        /* \"#utility.yul\":6922:6925   */\n      0x0133\n        /* \"#utility.yul\":6916:6920   */\n      dup4\n        /* \"#utility.yul\":6913:6926   */\n      lt\n        /* \"#utility.yul\":6909:6945   */\n      and\n        /* \"#utility.yul\":6891:6893   */\n      0x4e\n        /* \"#utility.yul\":6881:6889   */\n      dup5\n        /* \"#utility.yul\":6878:6894   */\n      lt\n        /* \"#utility.yul\":6873:6875   */\n      0x0b\n        /* \"#utility.yul\":6867:6871   */\n      dup5\n        /* \"#utility.yul\":6864:6876   */\n      lt\n        /* \"#utility.yul\":6860:6895   */\n      and\n        /* \"#utility.yul\":6844:6955   */\n      or\n        /* \"#utility.yul\":6841:7087   */\n      iszero\n      tag_134\n      jumpi\n        /* \"#utility.yul\":6997:7005   */\n      dup3\n        /* \"#utility.yul\":6991:6995   */\n      dup3\n        /* \"#utility.yul\":6987:7006   */\n      exp\n        /* \"#utility.yul\":6978:7006   */\n      swap1\n      pop\n        /* \"#utility.yul\":7032:7035   */\n      dup4\n        /* \"#utility.yul\":7025:7030   */\n      dup2\n        /* \"#utility.yul\":7022:7036   */\n      gt\n        /* \"#utility.yul\":7019:7059   */\n      iszero\n      tag_135\n      jumpi\n        /* \"#utility.yul\":7039:7057   */\n      tag_136\n      tag_53\n      jump\t// in\n    tag_136:\n        /* \"#utility.yul\":7019:7059   */\n    tag_135:\n        /* \"#utility.yul\":7072:7077   */\n      jump(tag_124)\n        /* \"#utility.yul\":6841:7087   */\n    tag_134:\n        /* \"#utility.yul\":7112:7154   */\n      tag_137\n        /* \"#utility.yul\":7150:7153   */\n      dup5\n        /* \"#utility.yul\":7140:7148   */\n      dup5\n        /* \"#utility.yul\":7134:7138   */\n      dup5\n        /* \"#utility.yul\":7131:7132   */\n      0x01\n        /* \"#utility.yul\":7112:7154   */\n      tag_55\n      jump\t// in\n    tag_137:\n        /* \"#utility.yul\":7097:7154   */\n      swap3\n      pop\n      swap1\n      pop\n        /* \"#utility.yul\":7186:7190   */\n      dup2\n        /* \"#utility.yul\":7181:7184   */\n      dup5\n        /* \"#utility.yul\":7177:7191   */\n      div\n        /* \"#utility.yul\":7170:7175   */\n      dup2\n        /* \"#utility.yul\":7167:7192   */\n      gt\n        /* \"#utility.yul\":7164:7215   */\n      iszero\n      tag_138\n      jumpi\n        /* \"#utility.yul\":7195:7213   */\n      tag_139\n      tag_53\n      jump\t// in\n    tag_139:\n        /* \"#utility.yul\":7164:7215   */\n    tag_138:\n        /* \"#utility.yul\":7244:7248   */\n      dup2\n        /* \"#utility.yul\":7237:7242   */\n      dup2\n        /* \"#utility.yul\":7233:7249   */\n      mul\n        /* \"#utility.yul\":7224:7249   */\n      swap1\n      pop\n        /* \"#utility.yul\":6182:7255   */\n    tag_124:\n      swap4\n      swap3\n      pop\n      pop\n      pop\n      jump\t// out\n        /* \"#utility.yul\":7261:7546   */\n    tag_37:\n        /* \"#utility.yul\":7321:7326   */\n      0x00\n        /* \"#utility.yul\":7345:7368   */\n      tag_141\n        /* \"#utility.yul\":7363:7367   */\n      dup3\n        /* \"#utility.yul\":7345:7368   */\n      tag_45\n      jump\t// in\n    tag_141:\n        /* \"#utility.yul\":7337:7368   */\n      swap2\n      pop\n        /* \"#utility.yul\":7389:7416   */\n      tag_142\n        /* \"#utility.yul\":7407:7415   */\n      dup4\n        /* \"#utility.yul\":7389:7416   */\n      tag_45\n      jump\t// in\n    tag_142:\n        /* \"#utility.yul\":7377:7416   */\n      swap3\n      pop\n        /* \"#utility.yul\":7435:7539   */\n      tag_143\n        /* \"#utility.yul\":7472:7538   */\n      0xffffffffffffffffffffffffffffffffffffffffffffffffffffffffffffffff\n        /* \"#utility.yul\":7462:7470   */\n      dup5\n        /* \"#utility.yul\":7456:7460   */\n      dup5\n        /* \"#utility.yul\":7435:7539   */\n      tag_56\n      jump\t// in\n    tag_143:\n        /* \"#utility.yul\":7426:7539   */\n      swap1\n      pop\n        /* \"#utility.yul\":7261:7546   */\n      swap3\n      swap2\n      pop\n      pop\n      jump\t// out\n\n    auxdata: 0xa26469706673582212205f4d3f34b469b64184ebcba2234ea119fbe939c593c3c839f7dc89692254ac4964736f6c634300081d0033\n}\n",
				"bytecode": {
					"linkReferences": {},
					"object": "6080604052348015600e575f5ffd5b506106528061001c5f395ff3fe608060405234801561000f575f5ffd5b5060043610610034575f3560e01c8063b96868f914610038578063c04f01fc14610068575b5f5ffd5b610052600480360381019061004d91906101a9565b610098565b60405161005f91906101e3565b60405180910390f35b610082600480360381019061007d919061022f565b61014c565b60405161008f919061027c565b60405180910390f35b5f5f82136100db576040517f08c379a00000000000000000000000000000000000000000000000000000000081526004016100d29061033b565b60405180910390fd5b5f82036100ea575f9050610147565b5f6002836100f891906103b3565b90505f5f90505b600a60011015610141576002828561011791906103b3565b83610122919061041b565b61012c91906103b3565b915080806101399061045c565b9150506100ff565b50809150505b919050565b5f5f820361015d576001905061016c565b818361016991906105d2565b90505b92915050565b5f5ffd5b5f819050919050565b61018881610176565b8114610192575f5ffd5b50565b5f813590506101a38161017f565b92915050565b5f602082840312156101be576101bd610172565b5b5f6101cb84828501610195565b91505092915050565b6101dd81610176565b82525050565b5f6020820190506101f65f8301846101d4565b92915050565b5f819050919050565b61020e816101fc565b8114610218575f5ffd5b50565b5f8135905061022981610205565b92915050565b5f5f6040838503121561024557610244610172565b5b5f6102528582860161021b565b92505060206102638582860161021b565b9150509250929050565b610276816101fc565b82525050565b5f60208201905061028f5f83018461026d565b92915050565b5f82825260208201905092915050565b7f43616e6e6f742063616c63756c6174652073717561726520726f6f74206f66205f8201527f61206e65676174697665206e756d6265722c4e756d6265722073686f756c642060208201527f62652067726561746572207468616e207a65726f000000000000000000000000604082015250565b5f610325605483610295565b9150610330826102a5565b606082019050919050565b5f6020820190508181035f83015261035281610319565b9050919050565b7f4e487b71000000000000000000000000000000000000000000000000000000005f52601260045260245ffd5b7f4e487b71000000000000000000000000000000000000000000000000000000005f52601160045260245ffd5b5f6103bd82610176565b91506103c883610176565b9250826103d8576103d7610359565b5b60015f0383147f8000000000000000000000000000000000000000000000000000000000000000831416156104105761040f610386565b5b828205905092915050565b5f61042582610176565b915061043083610176565b92508282019050828112155f8312168382125f84121516171561045657610455610386565b5b92915050565b5f610466826101fc565b91507fffffffffffffffffffffffffffffffffffffffffffffffffffffffffffffffff820361049857610497610386565b5b600182019050919050565b5f8160011c9050919050565b5f5f8291508390505b60018511156104f8578086048111156104d4576104d3610386565b5b60018516156104e35780820291505b80810290506104f1856104a3565b94506104b8565b94509492505050565b5f8261051057600190506105cb565b8161051d575f90506105cb565b8160018114610533576002811461053d5761056c565b60019150506105cb565b60ff84111561054f5761054e610386565b5b8360020a91508482111561056657610565610386565b5b506105cb565b5060208310610133831016604e8410600b84101617156105a15782820a90508381111561059c5761059b610386565b5b6105cb565b6105ae84848460016104af565b925090508184048111156105c5576105c4610386565b5b81810290505b9392505050565b5f6105dc826101fc565b91506105e7836101fc565b92506106147fffffffffffffffffffffffffffffffffffffffffffffffffffffffffffffffff8484610501565b90509291505056fea26469706673582212205f4d3f34b469b64184ebcba2234ea119fbe939c593c3c839f7dc89692254ac4964736f6c634300081d0033",
					"opcodes": "PUSH1 0x80 PUSH1 0x40 MSTORE CALLVALUE DUP1 ISZERO PUSH1 0xE JUMPI PUSH0 PUSH0 REVERT JUMPDEST POP PUSH2 0x652 DUP1 PUSH2 0x1C PUSH0 CODECOPY PUSH0 RETURN INVALID PUSH1 0x80 PUSH1 0x40 MSTORE CALLVALUE DUP1 ISZERO PUSH2 0xF JUMPI PUSH0 PUSH0 REVERT JUMPDEST POP PUSH1 0x4 CALLDATASIZE LT PUSH2 0x34 JUMPI PUSH0 CALLDATALOAD PUSH1 0xE0 SHR DUP1 PUSH4 0xB96868F9 EQ PUSH2 0x38 JUMPI DUP1 PUSH4 0xC04F01FC EQ PUSH2 0x68 JUMPI JUMPDEST PUSH0 PUSH0 REVERT JUMPDEST PUSH2 0x52 PUSH1 0x4 DUP1 CALLDATASIZE SUB DUP2 ADD SWAP1 PUSH2 0x4D SWAP2 SWAP1 PUSH2 0x1A9 JUMP JUMPDEST PUSH2 0x98 JUMP JUMPDEST PUSH1 0x40 MLOAD PUSH2 0x5F SWAP2 SWAP1 PUSH2 0x1E3 JUMP JUMPDEST PUSH1 0x40 MLOAD DUP1 SWAP2 SUB SWAP1 RETURN JUMPDEST PUSH2 0x82 PUSH1 0x4 DUP1 CALLDATASIZE SUB DUP2 ADD SWAP1 PUSH2 0x7D SWAP2 SWAP1 PUSH2 0x22F JUMP JUMPDEST PUSH2 0x14C JUMP JUMPDEST PUSH1 0x40 MLOAD PUSH2 0x8F SWAP2 SWAP1 PUSH2 0x27C JUMP JUMPDEST PUSH1 0x40 MLOAD DUP1 SWAP2 SUB SWAP1 RETURN JUMPDEST PUSH0 PUSH0 DUP3 SGT PUSH2 0xDB JUMPI PUSH1 0x40 MLOAD PUSH32 0x8C379A000000000000000000000000000000000000000000000000000000000 DUP2 MSTORE PUSH1 0x4 ADD PUSH2 0xD2 SWAP1 PUSH2 0x33B JUMP JUMPDEST PUSH1 0x40 MLOAD DUP1 SWAP2 SUB SWAP1 REVERT JUMPDEST PUSH0 DUP3 SUB PUSH2 0xEA JUMPI PUSH0 SWAP1 POP PUSH2 0x147 JUMP JUMPDEST PUSH0 PUSH1 0x2 DUP4 PUSH2 0xF8 SWAP2 SWAP1 PUSH2 0x3B3 JUMP JUMPDEST SWAP1 POP PUSH0 PUSH0 SWAP1 POP JUMPDEST PUSH1 0xA PUSH1 0x1 LT ISZERO PUSH2 0x141 JUMPI PUSH1 0x2 DUP3 DUP6 PUSH2 0x117 SWAP2 SWAP1 PUSH2 0x3B3 JUMP JUMPDEST DUP4 PUSH2 0x122 SWAP2 SWAP1 PUSH2 0x41B JUMP JUMPDEST PUSH2 0x12C SWAP2 SWAP1 PUSH2 0x3B3 JUMP JUMPDEST SWAP2 POP DUP1 DUP1 PUSH2 0x139 SWAP1 PUSH2 0x45C JUMP JUMPDEST SWAP2 POP POP PUSH2 0xFF JUMP JUMPDEST POP DUP1 SWAP2 POP POP JUMPDEST SWAP2 SWAP1 POP JUMP JUMPDEST PUSH0 PUSH0 DUP3 SUB PUSH2 0x15D JUMPI PUSH1 0x1 SWAP1 POP PUSH2 0x16C JUMP JUMPDEST DUP2 DUP4 PUSH2 0x169 SWAP2 SWAP1 PUSH2 0x5D2 JUMP JUMPDEST SWAP1 POP JUMPDEST SWAP3 SWAP2 POP POP JUMP JUMPDEST PUSH0 PUSH0 REVERT JUMPDEST PUSH0 DUP2 SWAP1 POP SWAP2 SWAP1 POP JUMP JUMPDEST PUSH2 0x188 DUP2 PUSH2 0x176 JUMP JUMPDEST DUP2 EQ PUSH2 0x192 JUMPI PUSH0 PUSH0 REVERT JUMPDEST POP JUMP JUMPDEST PUSH0 DUP2 CALLDATALOAD SWAP1 POP PUSH2 0x1A3 DUP2 PUSH2 0x17F JUMP JUMPDEST SWAP3 SWAP2 POP POP JUMP JUMPDEST PUSH0 PUSH1 0x20 DUP3 DUP5 SUB SLT ISZERO PUSH2 0x1BE JUMPI PUSH2 0x1BD PUSH2 0x172 JUMP JUMPDEST JUMPDEST PUSH0 PUSH2 0x1CB DUP5 DUP3 DUP6 ADD PUSH2 0x195 JUMP JUMPDEST SWAP2 POP POP SWAP3 SWAP2 POP POP JUMP JUMPDEST PUSH2 0x1DD DUP2 PUSH2 0x176 JUMP JUMPDEST DUP3 MSTORE POP POP JUMP JUMPDEST PUSH0 PUSH1 0x20 DUP3 ADD SWAP1 POP PUSH2 0x1F6 PUSH0 DUP4 ADD DUP5 PUSH2 0x1D4 JUMP JUMPDEST SWAP3 SWAP2 POP POP JUMP JUMPDEST PUSH0 DUP2 SWAP1 POP SWAP2 SWAP1 POP JUMP JUMPDEST PUSH2 0x20E DUP2 PUSH2 0x1FC JUMP JUMPDEST DUP2 EQ PUSH2 0x218 JUMPI PUSH0 PUSH0 REVERT JUMPDEST POP JUMP JUMPDEST PUSH0 DUP2 CALLDATALOAD SWAP1 POP PUSH2 0x229 DUP2 PUSH2 0x205 JUMP JUMPDEST SWAP3 SWAP2 POP POP JUMP JUMPDEST PUSH0 PUSH0 PUSH1 0x40 DUP4 DUP6 SUB SLT ISZERO PUSH2 0x245 JUMPI PUSH2 0x244 PUSH2 0x172 JUMP JUMPDEST JUMPDEST PUSH0 PUSH2 0x252 DUP6 DUP3 DUP7 ADD PUSH2 0x21B JUMP JUMPDEST SWAP3 POP POP PUSH1 0x20 PUSH2 0x263 DUP6 DUP3 DUP7 ADD PUSH2 0x21B JUMP JUMPDEST SWAP2 POP POP SWAP3 POP SWAP3 SWAP1 POP JUMP JUMPDEST PUSH2 0x276 DUP2 PUSH2 0x1FC JUMP JUMPDEST DUP3 MSTORE POP POP JUMP JUMPDEST PUSH0 PUSH1 0x20 DUP3 ADD SWAP1 POP PUSH2 0x28F PUSH0 DUP4 ADD DUP5 PUSH2 0x26D JUMP JUMPDEST SWAP3 SWAP2 POP POP JUMP JUMPDEST PUSH0 DUP3 DUP3 MSTORE PUSH1 0x20 DUP3 ADD SWAP1 POP SWAP3 SWAP2 POP POP JUMP JUMPDEST PUSH32 0x43616E6E6F742063616C63756C6174652073717561726520726F6F74206F6620 PUSH0 DUP3 ADD MSTORE PUSH32 0x61206E65676174697665206E756D6265722C4E756D6265722073686F756C6420 PUSH1 0x20 DUP3 ADD MSTORE PUSH32 0x62652067726561746572207468616E207A65726F000000000000000000000000 PUSH1 0x40 DUP3 ADD MSTORE POP JUMP JUMPDEST PUSH0 PUSH2 0x325 PUSH1 0x54 DUP4 PUSH2 0x295 JUMP JUMPDEST SWAP2 POP PUSH2 0x330 DUP3 PUSH2 0x2A5 JUMP JUMPDEST PUSH1 0x60 DUP3 ADD SWAP1 POP SWAP2 SWAP1 POP JUMP JUMPDEST PUSH0 PUSH1 0x20 DUP3 ADD SWAP1 POP DUP2 DUP2 SUB PUSH0 DUP4 ADD MSTORE PUSH2 0x352 DUP2 PUSH2 0x319 JUMP JUMPDEST SWAP1 POP SWAP2 SWAP1 POP JUMP JUMPDEST PUSH32 0x4E487B7100000000000000000000000000000000000000000000000000000000 PUSH0 MSTORE PUSH1 0x12 PUSH1 0x4 MSTORE PUSH1 0x24 PUSH0 REVERT JUMPDEST PUSH32 0x4E487B7100000000000000000000000000000000000000000000000000000000 PUSH0 MSTORE PUSH1 0x11 PUSH1 0x4 MSTORE PUSH1 0x24 PUSH0 REVERT JUMPDEST PUSH0 PUSH2 0x3BD DUP3 PUSH2 0x176 JUMP JUMPDEST SWAP2 POP PUSH2 0x3C8 DUP4 PUSH2 0x176 JUMP JUMPDEST SWAP3 POP DUP3 PUSH2 0x3D8 JUMPI PUSH2 0x3D7 PUSH2 0x359 JUMP JUMPDEST JUMPDEST PUSH1 0x1 PUSH0 SUB DUP4 EQ PUSH32 0x8000000000000000000000000000000000000000000000000000000000000000 DUP4 EQ AND ISZERO PUSH2 0x410 JUMPI PUSH2 0x40F PUSH2 0x386 JUMP JUMPDEST JUMPDEST DUP3 DUP3 SDIV SWAP1 POP SWAP3 SWAP2 POP POP JUMP JUMPDEST PUSH0 PUSH2 0x425 DUP3 PUSH2 0x176 JUMP JUMPDEST SWAP2 POP PUSH2 0x430 DUP4 PUSH2 0x176 JUMP JUMPDEST SWAP3 POP DUP3 DUP3 ADD SWAP1 POP DUP3 DUP2 SLT ISZERO PUSH0 DUP4 SLT AND DUP4 DUP3 SLT PUSH0 DUP5 SLT ISZERO AND OR ISZERO PUSH2 0x456 JUMPI PUSH2 0x455 PUSH2 0x386 JUMP JUMPDEST JUMPDEST SWAP3 SWAP2 POP POP JUMP JUMPDEST PUSH0 PUSH2 0x466 DUP3 PUSH2 0x1FC JUMP JUMPDEST SWAP2 POP PUSH32 0xFFFFFFFFFFFFFFFFFFFFFFFFFFFFFFFFFFFFFFFFFFFFFFFFFFFFFFFFFFFFFFFF DUP3 SUB PUSH2 0x498 JUMPI PUSH2 0x497 PUSH2 0x386 JUMP JUMPDEST JUMPDEST PUSH1 0x1 DUP3 ADD SWAP1 POP SWAP2 SWAP1 POP JUMP JUMPDEST PUSH0 DUP2 PUSH1 0x1 SHR SWAP1 POP SWAP2 SWAP1 POP JUMP JUMPDEST PUSH0 PUSH0 DUP3 SWAP2 POP DUP4 SWAP1 POP JUMPDEST PUSH1 0x1 DUP6 GT ISZERO PUSH2 0x4F8 JUMPI DUP1 DUP7 DIV DUP2 GT ISZERO PUSH2 0x4D4 JUMPI PUSH2 0x4D3 PUSH2 0x386 JUMP JUMPDEST JUMPDEST PUSH1 0x1 DUP6 AND ISZERO PUSH2 0x4E3 JUMPI DUP1 DUP3 MUL SWAP2 POP JUMPDEST DUP1 DUP2 MUL SWAP1 POP PUSH2 0x4F1 DUP6 PUSH2 0x4A3 JUMP JUMPDEST SWAP5 POP PUSH2 0x4B8 JUMP JUMPDEST SWAP5 POP SWAP5 SWAP3 POP POP POP JUMP JUMPDEST PUSH0 DUP3 PUSH2 0x510 JUMPI PUSH1 0x1 SWAP1 POP PUSH2 0x5CB JUMP JUMPDEST DUP2 PUSH2 0x51D JUMPI PUSH0 SWAP1 POP PUSH2 0x5CB JUMP JUMPDEST DUP2 PUSH1 0x1 DUP2 EQ PUSH2 0x533 JUMPI PUSH1 0x2 DUP2 EQ PUSH2 0x53D JUMPI PUSH2 0x56C JUMP JUMPDEST PUSH1 0x1 SWAP2 POP POP PUSH2 0x5CB JUMP JUMPDEST PUSH1 0xFF DUP5 GT ISZERO PUSH2 0x54F JUMPI PUSH2 0x54E PUSH2 0x386 JUMP JUMPDEST JUMPDEST DUP4 PUSH1 0x2 EXP SWAP2 POP DUP5 DUP3 GT ISZERO PUSH2 0x566 JUMPI PUSH2 0x565 PUSH2 0x386 JUMP JUMPDEST JUMPDEST POP PUSH2 0x5CB JUMP JUMPDEST POP PUSH1 0x20 DUP4 LT PUSH2 0x133 DUP4 LT AND PUSH1 0x4E DUP5 LT PUSH1 0xB DUP5 LT AND OR ISZERO PUSH2 0x5A1 JUMPI DUP3 DUP3 EXP SWAP1 POP DUP4 DUP2 GT ISZERO PUSH2 0x59C JUMPI PUSH2 0x59B PUSH2 0x386 JUMP JUMPDEST JUMPDEST PUSH2 0x5CB JUMP JUMPDEST PUSH2 0x5AE DUP5 DUP5 DUP5 PUSH1 0x1 PUSH2 0x4AF JUMP JUMPDEST SWAP3 POP SWAP1 POP DUP2 DUP5 DIV DUP2 GT ISZERO PUSH2 0x5C5 JUMPI PUSH2 0x5C4 PUSH2 0x386 JUMP JUMPDEST JUMPDEST DUP2 DUP2 MUL SWAP1 POP JUMPDEST SWAP4 SWAP3 POP POP POP JUMP JUMPDEST PUSH0 PUSH2 0x5DC DUP3 PUSH2 0x1FC JUMP JUMPDEST SWAP2 POP PUSH2 0x5E7 DUP4 PUSH2 0x1FC JUMP JUMPDEST SWAP3 POP PUSH2 0x614 PUSH32 0xFFFFFFFFFFFFFFFFFFFFFFFFFFFFFFFFFFFFFFFFFFFFFFFFFFFFFFFFFFFFFFFF DUP5 DUP5 PUSH2 0x501 JUMP JUMPDEST SWAP1 POP SWAP3 SWAP2 POP POP JUMP INVALID LOG2 PUSH5 0x6970667358 0x22 SLT KECCAK256 PUSH0 0x4D EXTCODEHASH CALLVALUE 0xB4 PUSH10 0xB64184EBCBA2234EA119 EXTSTATICCALL 0xE9 CODECOPY 0xC5 SWAP4 0xC3 0xC8 CODECOPY 0xF7 0xDC DUP10 PUSH10 0x2254AC4964736F6C6343 STOP ADDMOD SAR STOP CALLER "
				},
				"gasEstimates": {
					"creation": {
						"codeDepositCost": "323600",
						"executionCost": "360",
						"totalCost": "323960"
					},
					"external": {
						"power(uint256,uint256)": "infinite",
						"squareRoot(int256)": "infinite"
					}
				},
				"methodIdentifiers": {
					"power(uint256,uint256)": "c04f01fc",
					"squareRoot(int256)": "b96868f9"
				}
			},
			"storageLayout": {
				"storage": [],
				"types": null
			},
			"userdoc": {
				"kind": "user",
				"methods": {},
				"version": 1
			}
		}
	}
}