{
	"contracts/fitech.sol": {
		"Fitech": {
			"abi": [
				{
					"inputs": [],
					"stateMutability": "nonpayable",
					"type": "constructor"
				},
				{
					"inputs": [],
					"name": "balance",
					"outputs": [
						{
							"internalType": "uint256",
							"name": "",
							"type": "uint256"
						}
					],
					"stateMutability": "view",
					"type": "function"
				},
				{
					"inputs": [],
					"name": "donate",
					"outputs": [],
					"stateMutability": "payable",
					"type": "function"
				},
				{
					"inputs": [],
					"name": "withdraw",
					"outputs": [],
					"stateMutability": "payable",
					"type": "function"
				},
				{
					"stateMutability": "payable",
					"type": "receive"
				}
			],
			"devdoc": {
				"kind": "dev",
				"methods": {},
				"version": 1
			},
			"evm": {
				"assembly": "    /* \"contracts/fitech.sol\":63:1085  contract Fitech {... */\n  mstore(0x40, 0x80)\n    /* \"contracts/fitech.sol\":147:197  constructor(){... */\n  callvalue\n  dup1\n  iszero\n  tag_1\n  jumpi\n  0x00\n  dup1\n  revert\ntag_1:\n  pop\n    /* \"contracts/fitech.sol\":179:189  msg.sender */\n  caller\n    /* \"contracts/fitech.sol\":171:176  owner */\n  0x00\n  dup1\n    /* \"contracts/fitech.sol\":171:189  owner = msg.sender */\n  0x0100\n  exp\n  dup2\n  sload\n  dup2\n  0xffffffffffffffffffffffffffffffffffffffff\n  mul\n  not\n  and\n  swap1\n  dup4\n  0xffffffffffffffffffffffffffffffffffffffff\n  and\n  mul\n  or\n  swap1\n  sstore\n  pop\n    /* \"contracts/fitech.sol\":63:1085  contract Fitech {... */\n  dataSize(sub_0)\n  dup1\n  dataOffset(sub_0)\n  0x00\n  codecopy\n  0x00\n  return\nstop\n\nsub_0: assembly {\n        /* \"contracts/fitech.sol\":63:1085  contract Fitech {... */\n      mstore(0x40, 0x80)\n      jumpi(tag_1, lt(calldatasize, 0x04))\n      shr(0xe0, calldataload(0x00))\n      dup1\n      0x3ccfd60b\n      eq\n      tag_3\n      jumpi\n      dup1\n      0xb69ef8a8\n      eq\n      tag_4\n      jumpi\n      dup1\n      0xed88c68e\n      eq\n      tag_5\n      jumpi\n      jump(tag_2)\n    tag_1:\n      jumpi(tag_2, calldatasize)\n      stop\n    tag_2:\n      0x00\n      dup1\n      revert\n        /* \"contracts/fitech.sol\":416:904  function withdraw() public payable {... */\n    tag_3:\n      tag_8\n      tag_9\n      jump\t// in\n    tag_8:\n      stop\n        /* \"contracts/fitech.sol\":914:1070  function balance() public view returns(uint256) {... */\n    tag_4:\n      callvalue\n      dup1\n      iszero\n      tag_10\n      jumpi\n      0x00\n      dup1\n      revert\n    tag_10:\n      pop\n      tag_11\n      tag_12\n      jump\t// in\n    tag_11:\n      mload(0x40)\n      tag_13\n      swap2\n      swap1\n      tag_14\n      jump\t// in\n    tag_13:\n      mload(0x40)\n      dup1\n      swap2\n      sub\n      swap1\n      return\n        /* \"contracts/fitech.sol\":233:369  function donate() public payable {... */\n    tag_5:\n      tag_15\n      tag_16\n      jump\t// in\n    tag_15:\n      stop\n        /* \"contracts/fitech.sol\":416:904  function withdraw() public payable {... */\n    tag_9:\n        /* \"contracts/fitech.sol\":622:627  owner */\n      0x00\n      dup1\n      sload\n      swap1\n      0x0100\n      exp\n      swap1\n      div\n      0xffffffffffffffffffffffffffffffffffffffff\n      and\n        /* \"contracts/fitech.sol\":608:627  msg.sender == owner */\n      0xffffffffffffffffffffffffffffffffffffffff\n      and\n        /* \"contracts/fitech.sol\":608:618  msg.sender */\n      caller\n        /* \"contracts/fitech.sol\":608:627  msg.sender == owner */\n      0xffffffffffffffffffffffffffffffffffffffff\n      and\n      eq\n        /* \"contracts/fitech.sol\":600:653  require(msg.sender == owner, \"you are not the owner\") */\n      tag_18\n      jumpi\n      mload(0x40)\n      0x08c379a000000000000000000000000000000000000000000000000000000000\n      dup2\n      mstore\n      0x04\n      add\n      tag_19\n      swap1\n      tag_20\n      jump\t// in\n    tag_19:\n      mload(0x40)\n      dup1\n      swap2\n      sub\n      swap1\n      revert\n    tag_18:\n        /* \"contracts/fitech.sol\":731:767  uint256 currentBalanceOfThisContract */\n      0x00\n        /* \"contracts/fitech.sol\":770:779  balance() */\n      tag_21\n        /* \"contracts/fitech.sol\":770:777  balance */\n      tag_12\n        /* \"contracts/fitech.sol\":770:779  balance() */\n      jump\t// in\n    tag_21:\n        /* \"contracts/fitech.sol\":731:779  uint256 currentBalanceOfThisContract = balance() */\n      swap1\n      pop\n        /* \"contracts/fitech.sol\":849:854  owner */\n      0x00\n      dup1\n      sload\n      swap1\n      0x0100\n      exp\n      swap1\n      div\n      0xffffffffffffffffffffffffffffffffffffffff\n      and\n        /* \"contracts/fitech.sol\":841:864  payable(owner).transfer */\n      0xffffffffffffffffffffffffffffffffffffffff\n      and\n        /* \"contracts/fitech.sol\":841:894  payable(owner).transfer(currentBalanceOfThisContract) */\n      0x08fc\n        /* \"contracts/fitech.sol\":865:893  currentBalanceOfThisContract */\n      dup3\n        /* \"contracts/fitech.sol\":841:894  payable(owner).transfer(currentBalanceOfThisContract) */\n      swap1\n      dup2\n      iszero\n      mul\n      swap1\n      mload(0x40)\n      0x00\n      mload(0x40)\n      dup1\n      dup4\n      sub\n      dup2\n      dup6\n      dup9\n      dup9\n      call\n      swap4\n      pop\n      pop\n      pop\n      pop\n      iszero\n      dup1\n      iszero\n      tag_23\n      jumpi\n      returndatasize\n      0x00\n      dup1\n      returndatacopy\n      revert(0x00, returndatasize)\n    tag_23:\n      pop\n        /* \"contracts/fitech.sol\":451:904  {... */\n      pop\n        /* \"contracts/fitech.sol\":416:904  function withdraw() public payable {... */\n      jump\t// out\n        /* \"contracts/fitech.sol\":914:1070  function balance() public view returns(uint256) {... */\n    tag_12:\n        /* \"contracts/fitech.sol\":953:960  uint256 */\n      0x00\n        /* \"contracts/fitech.sol\":1039:1060  address(this).balance */\n      selfbalance\n        /* \"contracts/fitech.sol\":1032:1060  return address(this).balance */\n      swap1\n      pop\n        /* \"contracts/fitech.sol\":914:1070  function balance() public view returns(uint256) {... */\n      swap1\n      jump\t// out\n        /* \"contracts/fitech.sol\":233:369  function donate() public payable {... */\n    tag_16:\n        /* \"contracts/fitech.sol\":333:337  this */\n      address\n        /* \"contracts/fitech.sol\":316:348  payable (address(this)).transfer */\n      0xffffffffffffffffffffffffffffffffffffffff\n      and\n        /* \"contracts/fitech.sol\":316:359  payable (address(this)).transfer(msg.value) */\n      0x08fc\n        /* \"contracts/fitech.sol\":349:358  msg.value */\n      callvalue\n        /* \"contracts/fitech.sol\":316:359  payable (address(this)).transfer(msg.value) */\n      swap1\n      dup2\n      iszero\n      mul\n      swap1\n      mload(0x40)\n      0x00\n      mload(0x40)\n      dup1\n      dup4\n      sub\n      dup2\n      dup6\n      dup9\n      dup9\n      call\n      swap4\n      pop\n      pop\n      pop\n      pop\n      iszero\n      dup1\n      iszero\n      tag_27\n      jumpi\n      returndatasize\n      0x00\n      dup1\n      returndatacopy\n      revert(0x00, returndatasize)\n    tag_27:\n      pop\n        /* \"contracts/fitech.sol\":233:369  function donate() public payable {... */\n      jump\t// out\n        /* \"#utility.yul\":7:84   */\n    tag_28:\n        /* \"#utility.yul\":44:51   */\n      0x00\n        /* \"#utility.yul\":73:78   */\n      dup2\n        /* \"#utility.yul\":62:78   */\n      swap1\n      pop\n        /* \"#utility.yul\":7:84   */\n      swap2\n      swap1\n      pop\n      jump\t// out\n        /* \"#utility.yul\":90:208   */\n    tag_29:\n        /* \"#utility.yul\":177:201   */\n      tag_36\n        /* \"#utility.yul\":195:200   */\n      dup2\n        /* \"#utility.yul\":177:201   */\n      tag_28\n      jump\t// in\n    tag_36:\n        /* \"#utility.yul\":172:175   */\n      dup3\n        /* \"#utility.yul\":165:202   */\n      mstore\n        /* \"#utility.yul\":90:208   */\n      pop\n      pop\n      jump\t// out\n        /* \"#utility.yul\":214:436   */\n    tag_14:\n        /* \"#utility.yul\":307:311   */\n      0x00\n        /* \"#utility.yul\":345:347   */\n      0x20\n        /* \"#utility.yul\":334:343   */\n      dup3\n        /* \"#utility.yul\":330:348   */\n      add\n        /* \"#utility.yul\":322:348   */\n      swap1\n      pop\n        /* \"#utility.yul\":358:429   */\n      tag_38\n        /* \"#utility.yul\":426:427   */\n      0x00\n        /* \"#utility.yul\":415:424   */\n      dup4\n        /* \"#utility.yul\":411:428   */\n      add\n        /* \"#utility.yul\":402:408   */\n      dup5\n        /* \"#utility.yul\":358:429   */\n      tag_29\n      jump\t// in\n    tag_38:\n        /* \"#utility.yul\":214:436   */\n      swap3\n      swap2\n      pop\n      pop\n      jump\t// out\n        /* \"#utility.yul\":442:611   */\n    tag_30:\n        /* \"#utility.yul\":526:537   */\n      0x00\n        /* \"#utility.yul\":560:566   */\n      dup3\n        /* \"#utility.yul\":555:558   */\n      dup3\n        /* \"#utility.yul\":548:567   */\n      mstore\n        /* \"#utility.yul\":600:604   */\n      0x20\n        /* \"#utility.yul\":595:598   */\n      dup3\n        /* \"#utility.yul\":591:605   */\n      add\n        /* \"#utility.yul\":576:605   */\n      swap1\n      pop\n        /* \"#utility.yul\":442:611   */\n      swap3\n      swap2\n      pop\n      pop\n      jump\t// out\n        /* \"#utility.yul\":617:788   */\n    tag_31:\n        /* \"#utility.yul\":757:780   */\n      0x796f7520617265206e6f7420746865206f776e65720000000000000000000000\n        /* \"#utility.yul\":753:754   */\n      0x00\n        /* \"#utility.yul\":745:751   */\n      dup3\n        /* \"#utility.yul\":741:755   */\n      add\n        /* \"#utility.yul\":734:781   */\n      mstore\n        /* \"#utility.yul\":617:788   */\n      pop\n      jump\t// out\n        /* \"#utility.yul\":794:1160   */\n    tag_32:\n        /* \"#utility.yul\":936:939   */\n      0x00\n        /* \"#utility.yul\":957:1024   */\n      tag_42\n        /* \"#utility.yul\":1021:1023   */\n      0x15\n        /* \"#utility.yul\":1016:1019   */\n      dup4\n        /* \"#utility.yul\":957:1024   */\n      tag_30\n      jump\t// in\n    tag_42:\n        /* \"#utility.yul\":950:1024   */\n      swap2\n      pop\n        /* \"#utility.yul\":1033:1126   */\n      tag_43\n        /* \"#utility.yul\":1122:1125   */\n      dup3\n        /* \"#utility.yul\":1033:1126   */\n      tag_31\n      jump\t// in\n    tag_43:\n        /* \"#utility.yul\":1151:1153   */\n      0x20\n        /* \"#utility.yul\":1146:1149   */\n      dup3\n        /* \"#utility.yul\":1142:1154   */\n      add\n        /* \"#utility.yul\":1135:1154   */\n      swap1\n      pop\n        /* \"#utility.yul\":794:1160   */\n      swap2\n      swap1\n      pop\n      jump\t// out\n        /* \"#utility.yul\":1166:1585   */\n    tag_20:\n        /* \"#utility.yul\":1332:1336   */\n      0x00\n        /* \"#utility.yul\":1370:1372   */\n      0x20\n        /* \"#utility.yul\":1359:1368   */\n      dup3\n        /* \"#utility.yul\":1355:1373   */\n      add\n        /* \"#utility.yul\":1347:1373   */\n      swap1\n      pop\n        /* \"#utility.yul\":1419:1428   */\n      dup2\n        /* \"#utility.yul\":1413:1417   */\n      dup2\n        /* \"#utility.yul\":1409:1429   */\n      sub\n        /* \"#utility.yul\":1405:1406   */\n      0x00\n        /* \"#utility.yul\":1394:1403   */\n      dup4\n        /* \"#utility.yul\":1390:1407   */\n      add\n        /* \"#utility.yul\":1383:1430   */\n      mstore\n        /* \"#utility.yul\":1447:1578   */\n      tag_45\n        /* \"#utility.yul\":1573:1577   */\n      dup2\n        /* \"#utility.yul\":1447:1578   */\n      tag_32\n      jump\t// in\n    tag_45:\n        /* \"#utility.yul\":1439:1578   */\n      swap1\n      pop\n        /* \"#utility.yul\":1166:1585   */\n      swap2\n      swap1\n      pop\n      jump\t// out\n\n    auxdata: 0xa26469706673582212206b32573f0b1e8c0775efe2190e5a11df8b39f69b43ab69e0cd9e0a794358b3cb64736f6c63430008140033\n}\n",
				"bytecode": {
					"linkReferences": {},
					"object": "608060405234801561000f575f80fd5b50335f806101000a81548173ffffffffffffffffffffffffffffffffffffffff021916908373ffffffffffffffffffffffffffffffffffffffff1602179055506102aa8061005c5f395ff3fe608060405260043610610037575f3560e01c80633ccfd60b14610042578063b69ef8a81461004c578063ed88c68e146100765761003e565b3661003e57005b5f80fd5b61004a610080565b005b348015610057575f80fd5b5061006061017e565b60405161006d91906101e3565b60405180910390f35b61007e610185565b005b5f8054906101000a900473ffffffffffffffffffffffffffffffffffffffff1673ffffffffffffffffffffffffffffffffffffffff163373ffffffffffffffffffffffffffffffffffffffff161461010d576040517f08c379a000000000000000000000000000000000000000000000000000000000815260040161010490610256565b60405180910390fd5b5f61011661017e565b90505f8054906101000a900473ffffffffffffffffffffffffffffffffffffffff1673ffffffffffffffffffffffffffffffffffffffff166108fc8290811502906040515f60405180830381858888f1935050505015801561017a573d5f803e3d5ffd5b5050565b5f47905090565b3073ffffffffffffffffffffffffffffffffffffffff166108fc3490811502906040515f60405180830381858888f193505050501580156101c8573d5f803e3d5ffd5b50565b5f819050919050565b6101dd816101cb565b82525050565b5f6020820190506101f65f8301846101d4565b92915050565b5f82825260208201905092915050565b7f796f7520617265206e6f7420746865206f776e657200000000000000000000005f82015250565b5f6102406015836101fc565b915061024b8261020c565b602082019050919050565b5f6020820190508181035f83015261026d81610234565b905091905056fea26469706673582212206b32573f0b1e8c0775efe2190e5a11df8b39f69b43ab69e0cd9e0a794358b3cb64736f6c63430008140033",
					"opcodes": "PUSH1 0x80 PUSH1 0x40 MSTORE CALLVALUE DUP1 ISZERO PUSH2 0xF JUMPI PUSH0 DUP1 REVERT JUMPDEST POP CALLER PUSH0 DUP1 PUSH2 0x100 EXP DUP2 SLOAD DUP2 PUSH20 0xFFFFFFFFFFFFFFFFFFFFFFFFFFFFFFFFFFFFFFFF MUL NOT AND SWAP1 DUP4 PUSH20 0xFFFFFFFFFFFFFFFFFFFFFFFFFFFFFFFFFFFFFFFF AND MUL OR SWAP1 SSTORE POP PUSH2 0x2AA DUP1 PUSH2 0x5C PUSH0 CODECOPY PUSH0 RETURN INVALID PUSH1 0x80 PUSH1 0x40 MSTORE PUSH1 0x4 CALLDATASIZE LT PUSH2 0x37 JUMPI PUSH0 CALLDATALOAD PUSH1 0xE0 SHR DUP1 PUSH4 0x3CCFD60B EQ PUSH2 0x42 JUMPI DUP1 PUSH4 0xB69EF8A8 EQ PUSH2 0x4C JUMPI DUP1 PUSH4 0xED88C68E EQ PUSH2 0x76 JUMPI PUSH2 0x3E JUMP JUMPDEST CALLDATASIZE PUSH2 0x3E JUMPI STOP JUMPDEST PUSH0 DUP1 REVERT JUMPDEST PUSH2 0x4A PUSH2 0x80 JUMP JUMPDEST STOP JUMPDEST CALLVALUE DUP1 ISZERO PUSH2 0x57 JUMPI PUSH0 DUP1 REVERT JUMPDEST POP PUSH2 0x60 PUSH2 0x17E JUMP JUMPDEST PUSH1 0x40 MLOAD PUSH2 0x6D SWAP2 SWAP1 PUSH2 0x1E3 JUMP JUMPDEST PUSH1 0x40 MLOAD DUP1 SWAP2 SUB SWAP1 RETURN JUMPDEST PUSH2 0x7E PUSH2 0x185 JUMP JUMPDEST STOP JUMPDEST PUSH0 DUP1 SLOAD SWAP1 PUSH2 0x100 EXP SWAP1 DIV PUSH20 0xFFFFFFFFFFFFFFFFFFFFFFFFFFFFFFFFFFFFFFFF AND PUSH20 0xFFFFFFFFFFFFFFFFFFFFFFFFFFFFFFFFFFFFFFFF AND CALLER PUSH20 0xFFFFFFFFFFFFFFFFFFFFFFFFFFFFFFFFFFFFFFFF AND EQ PUSH2 0x10D JUMPI PUSH1 0x40 MLOAD PUSH32 0x8C379A000000000000000000000000000000000000000000000000000000000 DUP2 MSTORE PUSH1 0x4 ADD PUSH2 0x104 SWAP1 PUSH2 0x256 JUMP JUMPDEST PUSH1 0x40 MLOAD DUP1 SWAP2 SUB SWAP1 REVERT JUMPDEST PUSH0 PUSH2 0x116 PUSH2 0x17E JUMP JUMPDEST SWAP1 POP PUSH0 DUP1 SLOAD SWAP1 PUSH2 0x100 EXP SWAP1 DIV PUSH20 0xFFFFFFFFFFFFFFFFFFFFFFFFFFFFFFFFFFFFFFFF AND PUSH20 0xFFFFFFFFFFFFFFFFFFFFFFFFFFFFFFFFFFFFFFFF AND PUSH2 0x8FC DUP3 SWAP1 DUP2 ISZERO MUL SWAP1 PUSH1 0x40 MLOAD PUSH0 PUSH1 0x40 MLOAD DUP1 DUP4 SUB DUP2 DUP6 DUP9 DUP9 CALL SWAP4 POP POP POP POP ISZERO DUP1 ISZERO PUSH2 0x17A JUMPI RETURNDATASIZE PUSH0 DUP1 RETURNDATACOPY RETURNDATASIZE PUSH0 REVERT JUMPDEST POP POP JUMP JUMPDEST PUSH0 SELFBALANCE SWAP1 POP SWAP1 JUMP JUMPDEST ADDRESS PUSH20 0xFFFFFFFFFFFFFFFFFFFFFFFFFFFFFFFFFFFFFFFF AND PUSH2 0x8FC CALLVALUE SWAP1 DUP2 ISZERO MUL SWAP1 PUSH1 0x40 MLOAD PUSH0 PUSH1 0x40 MLOAD DUP1 DUP4 SUB DUP2 DUP6 DUP9 DUP9 CALL SWAP4 POP POP POP POP ISZERO DUP1 ISZERO PUSH2 0x1C8 JUMPI RETURNDATASIZE PUSH0 DUP1 RETURNDATACOPY RETURNDATASIZE PUSH0 REVERT JUMPDEST POP JUMP JUMPDEST PUSH0 DUP2 SWAP1 POP SWAP2 SWAP1 POP JUMP JUMPDEST PUSH2 0x1DD DUP2 PUSH2 0x1CB JUMP JUMPDEST DUP3 MSTORE POP POP JUMP JUMPDEST PUSH0 PUSH1 0x20 DUP3 ADD SWAP1 POP PUSH2 0x1F6 PUSH0 DUP4 ADD DUP5 PUSH2 0x1D4 JUMP JUMPDEST SWAP3 SWAP2 POP POP JUMP JUMPDEST PUSH0 DUP3 DUP3 MSTORE PUSH1 0x20 DUP3 ADD SWAP1 POP SWAP3 SWAP2 POP POP JUMP JUMPDEST PUSH32 0x796F7520617265206E6F7420746865206F776E65720000000000000000000000 PUSH0 DUP3 ADD MSTORE POP JUMP JUMPDEST PUSH0 PUSH2 0x240 PUSH1 0x15 DUP4 PUSH2 0x1FC JUMP JUMPDEST SWAP2 POP PUSH2 0x24B DUP3 PUSH2 0x20C JUMP JUMPDEST PUSH1 0x20 DUP3 ADD SWAP1 POP SWAP2 SWAP1 POP JUMP JUMPDEST PUSH0 PUSH1 0x20 DUP3 ADD SWAP1 POP DUP2 DUP2 SUB PUSH0 DUP4 ADD MSTORE PUSH2 0x26D DUP2 PUSH2 0x234 JUMP JUMPDEST SWAP1 POP SWAP2 SWAP1 POP JUMP INVALID LOG2 PUSH5 0x6970667358 0x22 SLT KECCAK256 PUSH12 0x32573F0B1E8C0775EFE2190E GAS GT 0xDF DUP12 CODECOPY 0xF6 SWAP12 NUMBER 0xAB PUSH10 0xE0CD9E0A794358B3CB64 PUSH20 0x6F6C634300081400330000000000000000000000 "
				},
				"gasEstimates": {
					"creation": {
						"codeDepositCost": "136400",
						"executionCost": "24446",
						"totalCost": "160846"
					},
					"external": {
						"balance()": "334",
						"donate()": "infinite",
						"withdraw()": "infinite"
					}
				},
				"methodIdentifiers": {
					"balance()": "b69ef8a8",
					"donate()": "ed88c68e",
					"withdraw()": "3ccfd60b"
				}
			},
			"storageLayout": {
				"storage": [
					{
						"astId": 3,
						"contract": "contracts/fitech.sol:Fitech",
						"label": "owner",
						"offset": 0,
						"slot": "0",
						"type": "t_address"
					}
				],
				"types": {
					"t_address": {
						"encoding": "inplace",
						"label": "address",
						"numberOfBytes": "20"
					}
				}
			},
			"userdoc": {
				"kind": "user",
				"methods": {},
				"version": 1
			}
		}
	}
}