{
	"data": {
		"bytecode": {
			"linkReferences": {},
			"object": "608060405234801561000f575f80fd5b5060405161191c38038061191c83398181016040528101906100319190610303565b8060025f6101000a81548160ff021916908360ff16021790555060025f9054906101000a900460ff1660ff16600a61006991906104fb565b846100749190610545565b60038190555060035460045f3373ffffffffffffffffffffffffffffffffffffffff1673ffffffffffffffffffffffffffffffffffffffff1681526020019081526020015f2081905550825f90816100cc919061078a565b5081600190816100dc919061078a565b503373ffffffffffffffffffffffffffffffffffffffff165f73ffffffffffffffffffffffffffffffffffffffff167fddf252ad1be2c89b69c2b068fc378daa952ba7f163c4a11628f55a4df523b3ef60035460405161013c9190610868565b60405180910390a350505050610881565b5f604051905090565b5f80fd5b5f80fd5b5f819050919050565b6101708161015e565b811461017a575f80fd5b50565b5f8151905061018b81610167565b92915050565b5f80fd5b5f80fd5b5f601f19601f8301169050919050565b7f4e487b71000000000000000000000000000000000000000000000000000000005f52604160045260245ffd5b6101df82610199565b810181811067ffffffffffffffff821117156101fe576101fd6101a9565b5b80604052505050565b5f61021061014d565b905061021c82826101d6565b919050565b5f67ffffffffffffffff82111561023b5761023a6101a9565b5b61024482610199565b9050602081019050919050565b8281835e5f83830152505050565b5f61027161026c84610221565b610207565b90508281526020810184848401111561028d5761028c610195565b5b610298848285610251565b509392505050565b5f82601f8301126102b4576102b3610191565b5b81516102c484826020860161025f565b91505092915050565b5f60ff82169050919050565b6102e2816102cd565b81146102ec575f80fd5b50565b5f815190506102fd816102d9565b92915050565b5f805f806080858703121561031b5761031a610156565b5b5f6103288782880161017d565b945050602085015167ffffffffffffffff8111156103495761034861015a565b5b610355878288016102a0565b935050604085015167ffffffffffffffff8111156103765761037561015a565b5b610382878288016102a0565b9250506060610393878288016102ef565b91505092959194509250565b7f4e487b71000000000000000000000000000000000000000000000000000000005f52601160045260245ffd5b5f8160011c9050919050565b5f808291508390505b6001851115610421578086048111156103fd576103fc61039f565b5b600185161561040c5780820291505b808102905061041a856103cc565b94506103e1565b94509492505050565b5f8261043957600190506104f4565b81610446575f90506104f4565b816001811461045c576002811461046657610495565b60019150506104f4565b60ff8411156104785761047761039f565b5b8360020a91508482111561048f5761048e61039f565b5b506104f4565b5060208310610133831016604e8410600b84101617156104ca5782820a9050838111156104c5576104c461039f565b5b6104f4565b6104d784848460016103d8565b925090508184048111156104ee576104ed61039f565b5b81810290505b9392505050565b5f6105058261015e565b91506105108361015e565b925061053d7fffffffffffffffffffffffffffffffffffffffffffffffffffffffffffffffff848461042a565b905092915050565b5f61054f8261015e565b915061055a8361015e565b92508282026105688161015e565b9150828204841483151761057f5761057e61039f565b5b5092915050565b5f81519050919050565b7f4e487b71000000000000000000000000000000000000000000000000000000005f52602260045260245ffd5b5f60028204905060018216806105d457607f821691505b6020821081036105e7576105e6610590565b5b50919050565b5f819050815f5260205f209050919050565b5f6020601f8301049050919050565b5f82821b905092915050565b5f600883026106497fffffffffffffffffffffffffffffffffffffffffffffffffffffffffffffffff8261060e565b610653868361060e565b95508019841693508086168417925050509392505050565b5f819050919050565b5f61068e6106896106848461015e565b61066b565b61015e565b9050919050565b5f819050919050565b6106a783610674565b6106bb6106b382610695565b84845461061a565b825550505050565b5f90565b6106cf6106c3565b6106da81848461069e565b505050565b5b818110156106fd576106f25f826106c7565b6001810190506106e0565b5050565b601f82111561074257610713816105ed565b61071c846105ff565b8101602085101561072b578190505b61073f610737856105ff565b8301826106df565b50505b505050565b5f82821c905092915050565b5f6107625f1984600802610747565b1980831691505092915050565b5f61077a8383610753565b9150826002028217905092915050565b61079382610586565b67ffffffffffffffff8111156107ac576107ab6101a9565b5b6107b682546105bd565b6107c1828285610701565b5f60209050601f8311600181146107f2575f84156107e0578287015190505b6107ea858261076f565b865550610851565b601f198416610800866105ed565b5f5b8281101561082757848901518255600182019150602085019450602081019050610802565b868310156108445784890151610840601f891682610753565b8355505b6001600288020188555050505b505050505050565b6108628161015e565b82525050565b5f60208201905061087b5f830184610859565b92915050565b61108e8061088e5f395ff3fe608060405234801561000f575f80fd5b506004361061009c575f3560e01c806395d89b411161006457806395d89b411461015a578063a9059cbb14610178578063d28d8852146101a8578063dd62ed3e146101c6578063e3d670d7146101f65761009c565b806306fdde03146100a0578063095ea7b3146100be57806318160ddd146100ee57806323b872dd1461010c578063313ce5671461013c575b5f80fd5b6100a8610226565b6040516100b59190610a6b565b60405180910390f35b6100d860048036038101906100d39190610b1c565b6102b1565b6040516100e59190610b74565b60405180910390f35b6100f66102c7565b6040516101039190610b9c565b60405180910390f35b61012660048036038101906101219190610bb5565b6102d0565b6040516101339190610b74565b60405180910390f35b6101446103bd565b6040516101519190610c20565b60405180910390f35b6101626103cf565b60405161016f9190610a6b565b60405180910390f35b610192600480360381019061018d9190610b1c565b61045f565b60405161019f9190610b74565b60405180910390f35b6101b0610475565b6040516101bd9190610a6b565b60405180910390f35b6101e060048036038101906101db9190610c39565b610504565b6040516101ed9190610b9c565b60405180910390f35b610210600480360381019061020b9190610c77565b610586565b60405161021d9190610b9c565b60405180910390f35b5f805461023290610ccf565b80601f016020809104026020016040519081016040528092919081815260200182805461025e90610ccf565b80156102a95780601f10610280576101008083540402835291602001916102a9565b820191905f5260205f20905b81548152906001019060200180831161028c57829003601f168201915b505050505081565b5f6102bd3384846105cc565b6001905092915050565b5f600354905090565b5f6102dc84848461078f565b5f60055f8673ffffffffffffffffffffffffffffffffffffffff1673ffffffffffffffffffffffffffffffffffffffff1681526020019081526020015f205f3373ffffffffffffffffffffffffffffffffffffffff1673ffffffffffffffffffffffffffffffffffffffff1681526020019081526020015f205490508281101561039b576040517f08c379a000000000000000000000000000000000000000000000000000000000815260040161039290610d6f565b60405180910390fd5b6103b1853385846103ac9190610dba565b6105cc565b60019150509392505050565b60025f9054906101000a900460ff1681565b6060600180546103de90610ccf565b80601f016020809104026020016040519081016040528092919081815260200182805461040a90610ccf565b80156104555780601f1061042c57610100808354040283529160200191610455565b820191905f5260205f20905b81548152906001019060200180831161043857829003601f168201915b5050505050905090565b5f61046b33848461078f565b6001905092915050565b60605f805461048390610ccf565b80601f01602080910402602001604051908101604052809291908181526020018280546104af90610ccf565b80156104fa5780601f106104d1576101008083540402835291602001916104fa565b820191905f5260205f20905b8154815290600101906020018083116104dd57829003601f168201915b5050505050905090565b5f60055f8473ffffffffffffffffffffffffffffffffffffffff1673ffffffffffffffffffffffffffffffffffffffff1681526020019081526020015f205f8373ffffffffffffffffffffffffffffffffffffffff1673ffffffffffffffffffffffffffffffffffffffff1681526020019081526020015f2054905092915050565b5f60045f8373ffffffffffffffffffffffffffffffffffffffff1673ffffffffffffffffffffffffffffffffffffffff1681526020019081526020015f20549050919050565b5f73ffffffffffffffffffffffffffffffffffffffff168373ffffffffffffffffffffffffffffffffffffffff160361063a576040517f08c379a000000000000000000000000000000000000000000000000000000000815260040161063190610e5d565b60405180910390fd5b5f73ffffffffffffffffffffffffffffffffffffffff168273ffffffffffffffffffffffffffffffffffffffff16036106a8576040517f08c379a000000000000000000000000000000000000000000000000000000000815260040161069f90610eeb565b60405180910390fd5b8060055f8573ffffffffffffffffffffffffffffffffffffffff1673ffffffffffffffffffffffffffffffffffffffff1681526020019081526020015f205f8473ffffffffffffffffffffffffffffffffffffffff1673ffffffffffffffffffffffffffffffffffffffff1681526020019081526020015f20819055508173ffffffffffffffffffffffffffffffffffffffff168373ffffffffffffffffffffffffffffffffffffffff167f8c5be1e5ebec7d5bd14f71427d1e84f3dd0314c0f7b2291e5b200ac8c7c3b925836040516107829190610b9c565b60405180910390a3505050565b5f73ffffffffffffffffffffffffffffffffffffffff168373ffffffffffffffffffffffffffffffffffffffff16036107fd576040517f08c379a00000000000000000000000000000000000000000000000000000000081526004016107f490610f79565b60405180910390fd5b5f73ffffffffffffffffffffffffffffffffffffffff168273ffffffffffffffffffffffffffffffffffffffff160361086b576040517f08c379a000000000000000000000000000000000000000000000000000000000815260040161086290610f79565b60405180910390fd5b8060045f8573ffffffffffffffffffffffffffffffffffffffff1673ffffffffffffffffffffffffffffffffffffffff1681526020019081526020015f205410156108eb576040517f08c379a00000000000000000000000000000000000000000000000000000000081526004016108e290611007565b60405180910390fd5b8060045f8573ffffffffffffffffffffffffffffffffffffffff1673ffffffffffffffffffffffffffffffffffffffff1681526020019081526020015f205f8282546109379190610dba565b925050819055508060045f8473ffffffffffffffffffffffffffffffffffffffff1673ffffffffffffffffffffffffffffffffffffffff1681526020019081526020015f205f82825461098a9190611025565b925050819055508173ffffffffffffffffffffffffffffffffffffffff168373ffffffffffffffffffffffffffffffffffffffff167fddf252ad1be2c89b69c2b068fc378daa952ba7f163c4a11628f55a4df523b3ef836040516109ee9190610b9c565b60405180910390a3505050565b5f81519050919050565b5f82825260208201905092915050565b8281835e5f83830152505050565b5f601f19601f8301169050919050565b5f610a3d826109fb565b610a478185610a05565b9350610a57818560208601610a15565b610a6081610a23565b840191505092915050565b5f6020820190508181035f830152610a838184610a33565b905092915050565b5f80fd5b5f73ffffffffffffffffffffffffffffffffffffffff82169050919050565b5f610ab882610a8f565b9050919050565b610ac881610aae565b8114610ad2575f80fd5b50565b5f81359050610ae381610abf565b92915050565b5f819050919050565b610afb81610ae9565b8114610b05575f80fd5b50565b5f81359050610b1681610af2565b92915050565b5f8060408385031215610b3257610b31610a8b565b5b5f610b3f85828601610ad5565b9250506020610b5085828601610b08565b9150509250929050565b5f8115159050919050565b610b6e81610b5a565b82525050565b5f602082019050610b875f830184610b65565b92915050565b610b9681610ae9565b82525050565b5f602082019050610baf5f830184610b8d565b92915050565b5f805f60608486031215610bcc57610bcb610a8b565b5b5f610bd986828701610ad5565b9350506020610bea86828701610ad5565b9250506040610bfb86828701610b08565b9150509250925092565b5f60ff82169050919050565b610c1a81610c05565b82525050565b5f602082019050610c335f830184610c11565b92915050565b5f8060408385031215610c4f57610c4e610a8b565b5b5f610c5c85828601610ad5565b9250506020610c6d85828601610ad5565b9150509250929050565b5f60208284031215610c8c57610c8b610a8b565b5b5f610c9984828501610ad5565b91505092915050565b7f4e487b71000000000000000000000000000000000000000000000000000000005f52602260045260245ffd5b5f6002820490506001821680610ce657607f821691505b602082108103610cf957610cf8610ca2565b5b50919050565b7f45524332303a5452414e534645522046524f4d20414c4c4f57414e4345204d555f8201527f5354204245204c455353205448414e20414d4f554e542053454e440000000000602082015250565b5f610d59603b83610a05565b9150610d6482610cff565b604082019050919050565b5f6020820190508181035f830152610d8681610d4d565b9050919050565b7f4e487b71000000000000000000000000000000000000000000000000000000005f52601160045260245ffd5b5f610dc482610ae9565b9150610dcf83610ae9565b9250828203905081811115610de757610de6610d8d565b5b92915050565b7f45524332303a20415050524f56414c2046524f4d205a45524f204144445245535f8201527f53204953204e4f542056414c4944000000000000000000000000000000000000602082015250565b5f610e47602e83610a05565b9150610e5282610ded565b604082019050919050565b5f6020820190508181035f830152610e7481610e3b565b9050919050565b7f45524332303a205452414e5346455220544f20414d4f554e54204144445245535f8201527f5300000000000000000000000000000000000000000000000000000000000000602082015250565b5f610ed5602183610a05565b9150610ee082610e7b565b604082019050919050565b5f6020820190508181035f830152610f0281610ec9565b9050919050565b7f45524332303a205452414e534645522046524f4d205a45524f204144445245535f8201527f53204953204e4f542056414c4944000000000000000000000000000000000000602082015250565b5f610f63602e83610a05565b9150610f6e82610f09565b604082019050919050565b5f6020820190508181035f830152610f9081610f57565b9050919050565b7f45524332303a205452414e534645522046524f4d20414d4f554e543d206164645f8201527f7265737328302900000000000000000000000000000000000000000000000000602082015250565b5f610ff1602783610a05565b9150610ffc82610f97565b604082019050919050565b5f6020820190508181035f83015261101e81610fe5565b9050919050565b5f61102f82610ae9565b915061103a83610ae9565b925082820190508082111561105257611051610d8d565b5b9291505056fea2646970667358221220fc31f77fccee109990c0ea4c51d453f0c6aba38ea8270d934e1d5d74bd69acfa64736f6c634300081a0033",
			"opcodes": "PUSH1 0x80 PUSH1 0x40 MSTORE CALLVALUE DUP1 ISZERO PUSH2 0xF JUMPI PUSH0 DUP1 REVERT JUMPDEST POP PUSH1 0x40 MLOAD PUSH2 0x191C CODESIZE SUB DUP1 PUSH2 0x191C DUP4 CODECOPY DUP2 DUP2 ADD PUSH1 0x40 MSTORE DUP2 ADD SWAP1 PUSH2 0x31 SWAP2 SWAP1 PUSH2 0x303 JUMP JUMPDEST DUP1 PUSH1 0x2 PUSH0 PUSH2 0x100 EXP DUP2 SLOAD DUP2 PUSH1 0xFF MUL NOT AND SWAP1 DUP4 PUSH1 0xFF AND MUL OR SWAP1 SSTORE POP PUSH1 0x2 PUSH0 SWAP1 SLOAD SWAP1 PUSH2 0x100 EXP SWAP1 DIV PUSH1 0xFF AND PUSH1 0xFF AND PUSH1 0xA PUSH2 0x69 SWAP2 SWAP1 PUSH2 0x4FB JUMP JUMPDEST DUP5 PUSH2 0x74 SWAP2 SWAP1 PUSH2 0x545 JUMP JUMPDEST PUSH1 0x3 DUP2 SWAP1 SSTORE POP PUSH1 0x3 SLOAD PUSH1 0x4 PUSH0 CALLER PUSH20 0xFFFFFFFFFFFFFFFFFFFFFFFFFFFFFFFFFFFFFFFF AND PUSH20 0xFFFFFFFFFFFFFFFFFFFFFFFFFFFFFFFFFFFFFFFF AND DUP2 MSTORE PUSH1 0x20 ADD SWAP1 DUP2 MSTORE PUSH1 0x20 ADD PUSH0 KECCAK256 DUP2 SWAP1 SSTORE POP DUP3 PUSH0 SWAP1 DUP2 PUSH2 0xCC SWAP2 SWAP1 PUSH2 0x78A JUMP JUMPDEST POP DUP2 PUSH1 0x1 SWAP1 DUP2 PUSH2 0xDC SWAP2 SWAP1 PUSH2 0x78A JUMP JUMPDEST POP CALLER PUSH20 0xFFFFFFFFFFFFFFFFFFFFFFFFFFFFFFFFFFFFFFFF AND PUSH0 PUSH20 0xFFFFFFFFFFFFFFFFFFFFFFFFFFFFFFFFFFFFFFFF AND PUSH32 0xDDF252AD1BE2C89B69C2B068FC378DAA952BA7F163C4A11628F55A4DF523B3EF PUSH1 0x3 SLOAD PUSH1 0x40 MLOAD PUSH2 0x13C SWAP2 SWAP1 PUSH2 0x868 JUMP JUMPDEST PUSH1 0x40 MLOAD DUP1 SWAP2 SUB SWAP1 LOG3 POP POP POP POP PUSH2 0x881 JUMP JUMPDEST PUSH0 PUSH1 0x40 MLOAD SWAP1 POP SWAP1 JUMP JUMPDEST PUSH0 DUP1 REVERT JUMPDEST PUSH0 DUP1 REVERT JUMPDEST PUSH0 DUP2 SWAP1 POP SWAP2 SWAP1 POP JUMP JUMPDEST PUSH2 0x170 DUP2 PUSH2 0x15E JUMP JUMPDEST DUP2 EQ PUSH2 0x17A JUMPI PUSH0 DUP1 REVERT JUMPDEST POP JUMP JUMPDEST PUSH0 DUP2 MLOAD SWAP1 POP PUSH2 0x18B DUP2 PUSH2 0x167 JUMP JUMPDEST SWAP3 SWAP2 POP POP JUMP JUMPDEST PUSH0 DUP1 REVERT JUMPDEST PUSH0 DUP1 REVERT JUMPDEST PUSH0 PUSH1 0x1F NOT PUSH1 0x1F DUP4 ADD AND SWAP1 POP SWAP2 SWAP1 POP JUMP JUMPDEST PUSH32 0x4E487B7100000000000000000000000000000000000000000000000000000000 PUSH0 MSTORE PUSH1 0x41 PUSH1 0x4 MSTORE PUSH1 0x24 PUSH0 REVERT JUMPDEST PUSH2 0x1DF DUP3 PUSH2 0x199 JUMP JUMPDEST DUP2 ADD DUP2 DUP2 LT PUSH8 0xFFFFFFFFFFFFFFFF DUP3 GT OR ISZERO PUSH2 0x1FE JUMPI PUSH2 0x1FD PUSH2 0x1A9 JUMP JUMPDEST JUMPDEST DUP1 PUSH1 0x40 MSTORE POP POP POP JUMP JUMPDEST PUSH0 PUSH2 0x210 PUSH2 0x14D JUMP JUMPDEST SWAP1 POP PUSH2 0x21C DUP3 DUP3 PUSH2 0x1D6 JUMP JUMPDEST SWAP2 SWAP1 POP JUMP JUMPDEST PUSH0 PUSH8 0xFFFFFFFFFFFFFFFF DUP3 GT ISZERO PUSH2 0x23B JUMPI PUSH2 0x23A PUSH2 0x1A9 JUMP JUMPDEST JUMPDEST PUSH2 0x244 DUP3 PUSH2 0x199 JUMP JUMPDEST SWAP1 POP PUSH1 0x20 DUP2 ADD SWAP1 POP SWAP2 SWAP1 POP JUMP JUMPDEST DUP3 DUP2 DUP4 MCOPY PUSH0 DUP4 DUP4 ADD MSTORE POP POP POP JUMP JUMPDEST PUSH0 PUSH2 0x271 PUSH2 0x26C DUP5 PUSH2 0x221 JUMP JUMPDEST PUSH2 0x207 JUMP JUMPDEST SWAP1 POP DUP3 DUP2 MSTORE PUSH1 0x20 DUP2 ADD DUP5 DUP5 DUP5 ADD GT ISZERO PUSH2 0x28D JUMPI PUSH2 0x28C PUSH2 0x195 JUMP JUMPDEST JUMPDEST PUSH2 0x298 DUP5 DUP3 DUP6 PUSH2 0x251 JUMP JUMPDEST POP SWAP4 SWAP3 POP POP POP JUMP JUMPDEST PUSH0 DUP3 PUSH1 0x1F DUP4 ADD SLT PUSH2 0x2B4 JUMPI PUSH2 0x2B3 PUSH2 0x191 JUMP JUMPDEST JUMPDEST DUP2 MLOAD PUSH2 0x2C4 DUP5 DUP3 PUSH1 0x20 DUP7 ADD PUSH2 0x25F JUMP JUMPDEST SWAP2 POP POP SWAP3 SWAP2 POP POP JUMP JUMPDEST PUSH0 PUSH1 0xFF DUP3 AND SWAP1 POP SWAP2 SWAP1 POP JUMP JUMPDEST PUSH2 0x2E2 DUP2 PUSH2 0x2CD JUMP JUMPDEST DUP2 EQ PUSH2 0x2EC JUMPI PUSH0 DUP1 REVERT JUMPDEST POP JUMP JUMPDEST PUSH0 DUP2 MLOAD SWAP1 POP PUSH2 0x2FD DUP2 PUSH2 0x2D9 JUMP JUMPDEST SWAP3 SWAP2 POP POP JUMP JUMPDEST PUSH0 DUP1 PUSH0 DUP1 PUSH1 0x80 DUP6 DUP8 SUB SLT ISZERO PUSH2 0x31B JUMPI PUSH2 0x31A PUSH2 0x156 JUMP JUMPDEST JUMPDEST PUSH0 PUSH2 0x328 DUP8 DUP3 DUP9 ADD PUSH2 0x17D JUMP JUMPDEST SWAP5 POP POP PUSH1 0x20 DUP6 ADD MLOAD PUSH8 0xFFFFFFFFFFFFFFFF DUP2 GT ISZERO PUSH2 0x349 JUMPI PUSH2 0x348 PUSH2 0x15A JUMP JUMPDEST JUMPDEST PUSH2 0x355 DUP8 DUP3 DUP9 ADD PUSH2 0x2A0 JUMP JUMPDEST SWAP4 POP POP PUSH1 0x40 DUP6 ADD MLOAD PUSH8 0xFFFFFFFFFFFFFFFF DUP2 GT ISZERO PUSH2 0x376 JUMPI PUSH2 0x375 PUSH2 0x15A JUMP JUMPDEST JUMPDEST PUSH2 0x382 DUP8 DUP3 DUP9 ADD PUSH2 0x2A0 JUMP JUMPDEST SWAP3 POP POP PUSH1 0x60 PUSH2 0x393 DUP8 DUP3 DUP9 ADD PUSH2 0x2EF JUMP JUMPDEST SWAP2 POP POP SWAP3 SWAP6 SWAP2 SWAP5 POP SWAP3 POP JUMP JUMPDEST PUSH32 0x4E487B7100000000000000000000000000000000000000000000000000000000 PUSH0 MSTORE PUSH1 0x11 PUSH1 0x4 MSTORE PUSH1 0x24 PUSH0 REVERT JUMPDEST PUSH0 DUP2 PUSH1 0x1 SHR SWAP1 POP SWAP2 SWAP1 POP JUMP JUMPDEST PUSH0 DUP1 DUP3 SWAP2 POP DUP4 SWAP1 POP JUMPDEST PUSH1 0x1 DUP6 GT ISZERO PUSH2 0x421 JUMPI DUP1 DUP7 DIV DUP2 GT ISZERO PUSH2 0x3FD JUMPI PUSH2 0x3FC PUSH2 0x39F JUMP JUMPDEST JUMPDEST PUSH1 0x1 DUP6 AND ISZERO PUSH2 0x40C JUMPI DUP1 DUP3 MUL SWAP2 POP JUMPDEST DUP1 DUP2 MUL SWAP1 POP PUSH2 0x41A DUP6 PUSH2 0x3CC JUMP JUMPDEST SWAP5 POP PUSH2 0x3E1 JUMP JUMPDEST SWAP5 POP SWAP5 SWAP3 POP POP POP JUMP JUMPDEST PUSH0 DUP3 PUSH2 0x439 JUMPI PUSH1 0x1 SWAP1 POP PUSH2 0x4F4 JUMP JUMPDEST DUP2 PUSH2 0x446 JUMPI PUSH0 SWAP1 POP PUSH2 0x4F4 JUMP JUMPDEST DUP2 PUSH1 0x1 DUP2 EQ PUSH2 0x45C JUMPI PUSH1 0x2 DUP2 EQ PUSH2 0x466 JUMPI PUSH2 0x495 JUMP JUMPDEST PUSH1 0x1 SWAP2 POP POP PUSH2 0x4F4 JUMP JUMPDEST PUSH1 0xFF DUP5 GT ISZERO PUSH2 0x478 JUMPI PUSH2 0x477 PUSH2 0x39F JUMP JUMPDEST JUMPDEST DUP4 PUSH1 0x2 EXP SWAP2 POP DUP5 DUP3 GT ISZERO PUSH2 0x48F JUMPI PUSH2 0x48E PUSH2 0x39F JUMP JUMPDEST JUMPDEST POP PUSH2 0x4F4 JUMP JUMPDEST POP PUSH1 0x20 DUP4 LT PUSH2 0x133 DUP4 LT AND PUSH1 0x4E DUP5 LT PUSH1 0xB DUP5 LT AND OR ISZERO PUSH2 0x4CA JUMPI DUP3 DUP3 EXP SWAP1 POP DUP4 DUP2 GT ISZERO PUSH2 0x4C5 JUMPI PUSH2 0x4C4 PUSH2 0x39F JUMP JUMPDEST JUMPDEST PUSH2 0x4F4 JUMP JUMPDEST PUSH2 0x4D7 DUP5 DUP5 DUP5 PUSH1 0x1 PUSH2 0x3D8 JUMP JUMPDEST SWAP3 POP SWAP1 POP DUP2 DUP5 DIV DUP2 GT ISZERO PUSH2 0x4EE JUMPI PUSH2 0x4ED PUSH2 0x39F JUMP JUMPDEST JUMPDEST DUP2 DUP2 MUL SWAP1 POP JUMPDEST SWAP4 SWAP3 POP POP POP JUMP JUMPDEST PUSH0 PUSH2 0x505 DUP3 PUSH2 0x15E JUMP JUMPDEST SWAP2 POP PUSH2 0x510 DUP4 PUSH2 0x15E JUMP JUMPDEST SWAP3 POP PUSH2 0x53D PUSH32 0xFFFFFFFFFFFFFFFFFFFFFFFFFFFFFFFFFFFFFFFFFFFFFFFFFFFFFFFFFFFFFFFF DUP5 DUP5 PUSH2 0x42A JUMP JUMPDEST SWAP1 POP SWAP3 SWAP2 POP POP JUMP JUMPDEST PUSH0 PUSH2 0x54F DUP3 PUSH2 0x15E JUMP JUMPDEST SWAP2 POP PUSH2 0x55A DUP4 PUSH2 0x15E JUMP JUMPDEST SWAP3 POP DUP3 DUP3 MUL PUSH2 0x568 DUP2 PUSH2 0x15E JUMP JUMPDEST SWAP2 POP DUP3 DUP3 DIV DUP5 EQ DUP4 ISZERO OR PUSH2 0x57F JUMPI PUSH2 0x57E PUSH2 0x39F JUMP JUMPDEST JUMPDEST POP SWAP3 SWAP2 POP POP JUMP JUMPDEST PUSH0 DUP2 MLOAD SWAP1 POP SWAP2 SWAP1 POP JUMP JUMPDEST PUSH32 0x4E487B7100000000000000000000000000000000000000000000000000000000 PUSH0 MSTORE PUSH1 0x22 PUSH1 0x4 MSTORE PUSH1 0x24 PUSH0 REVERT JUMPDEST PUSH0 PUSH1 0x2 DUP3 DIV SWAP1 POP PUSH1 0x1 DUP3 AND DUP1 PUSH2 0x5D4 JUMPI PUSH1 0x7F DUP3 AND SWAP2 POP JUMPDEST PUSH1 0x20 DUP3 LT DUP2 SUB PUSH2 0x5E7 JUMPI PUSH2 0x5E6 PUSH2 0x590 JUMP JUMPDEST JUMPDEST POP SWAP2 SWAP1 POP JUMP JUMPDEST PUSH0 DUP2 SWAP1 POP DUP2 PUSH0 MSTORE PUSH1 0x20 PUSH0 KECCAK256 SWAP1 POP SWAP2 SWAP1 POP JUMP JUMPDEST PUSH0 PUSH1 0x20 PUSH1 0x1F DUP4 ADD DIV SWAP1 POP SWAP2 SWAP1 POP JUMP JUMPDEST PUSH0 DUP3 DUP3 SHL SWAP1 POP SWAP3 SWAP2 POP POP JUMP JUMPDEST PUSH0 PUSH1 0x8 DUP4 MUL PUSH2 0x649 PUSH32 0xFFFFFFFFFFFFFFFFFFFFFFFFFFFFFFFFFFFFFFFFFFFFFFFFFFFFFFFFFFFFFFFF DUP3 PUSH2 0x60E JUMP JUMPDEST PUSH2 0x653 DUP7 DUP4 PUSH2 0x60E JUMP JUMPDEST SWAP6 POP DUP1 NOT DUP5 AND SWAP4 POP DUP1 DUP7 AND DUP5 OR SWAP3 POP POP POP SWAP4 SWAP3 POP POP POP JUMP JUMPDEST PUSH0 DUP2 SWAP1 POP SWAP2 SWAP1 POP JUMP JUMPDEST PUSH0 PUSH2 0x68E PUSH2 0x689 PUSH2 0x684 DUP5 PUSH2 0x15E JUMP JUMPDEST PUSH2 0x66B JUMP JUMPDEST PUSH2 0x15E JUMP JUMPDEST SWAP1 POP SWAP2 SWAP1 POP JUMP JUMPDEST PUSH0 DUP2 SWAP1 POP SWAP2 SWAP1 POP JUMP JUMPDEST PUSH2 0x6A7 DUP4 PUSH2 0x674 JUMP JUMPDEST PUSH2 0x6BB PUSH2 0x6B3 DUP3 PUSH2 0x695 JUMP JUMPDEST DUP5 DUP5 SLOAD PUSH2 0x61A JUMP JUMPDEST DUP3 SSTORE POP POP POP POP JUMP JUMPDEST PUSH0 SWAP1 JUMP JUMPDEST PUSH2 0x6CF PUSH2 0x6C3 JUMP JUMPDEST PUSH2 0x6DA DUP2 DUP5 DUP5 PUSH2 0x69E JUMP JUMPDEST POP POP POP JUMP JUMPDEST JUMPDEST DUP2 DUP2 LT ISZERO PUSH2 0x6FD JUMPI PUSH2 0x6F2 PUSH0 DUP3 PUSH2 0x6C7 JUMP JUMPDEST PUSH1 0x1 DUP2 ADD SWAP1 POP PUSH2 0x6E0 JUMP JUMPDEST POP POP JUMP JUMPDEST PUSH1 0x1F DUP3 GT ISZERO PUSH2 0x742 JUMPI PUSH2 0x713 DUP2 PUSH2 0x5ED JUMP JUMPDEST PUSH2 0x71C DUP5 PUSH2 0x5FF JUMP JUMPDEST DUP2 ADD PUSH1 0x20 DUP6 LT ISZERO PUSH2 0x72B JUMPI DUP2 SWAP1 POP JUMPDEST PUSH2 0x73F PUSH2 0x737 DUP6 PUSH2 0x5FF JUMP JUMPDEST DUP4 ADD DUP3 PUSH2 0x6DF JUMP JUMPDEST POP POP JUMPDEST POP POP POP JUMP JUMPDEST PUSH0 DUP3 DUP3 SHR SWAP1 POP SWAP3 SWAP2 POP POP JUMP JUMPDEST PUSH0 PUSH2 0x762 PUSH0 NOT DUP5 PUSH1 0x8 MUL PUSH2 0x747 JUMP JUMPDEST NOT DUP1 DUP4 AND SWAP2 POP POP SWAP3 SWAP2 POP POP JUMP JUMPDEST PUSH0 PUSH2 0x77A DUP4 DUP4 PUSH2 0x753 JUMP JUMPDEST SWAP2 POP DUP3 PUSH1 0x2 MUL DUP3 OR SWAP1 POP SWAP3 SWAP2 POP POP JUMP JUMPDEST PUSH2 0x793 DUP3 PUSH2 0x586 JUMP JUMPDEST PUSH8 0xFFFFFFFFFFFFFFFF DUP2 GT ISZERO PUSH2 0x7AC JUMPI PUSH2 0x7AB PUSH2 0x1A9 JUMP JUMPDEST JUMPDEST PUSH2 0x7B6 DUP3 SLOAD PUSH2 0x5BD JUMP JUMPDEST PUSH2 0x7C1 DUP3 DUP3 DUP6 PUSH2 0x701 JUMP JUMPDEST PUSH0 PUSH1 0x20 SWAP1 POP PUSH1 0x1F DUP4 GT PUSH1 0x1 DUP2 EQ PUSH2 0x7F2 JUMPI PUSH0 DUP5 ISZERO PUSH2 0x7E0 JUMPI DUP3 DUP8 ADD MLOAD SWAP1 POP JUMPDEST PUSH2 0x7EA DUP6 DUP3 PUSH2 0x76F JUMP JUMPDEST DUP7 SSTORE POP PUSH2 0x851 JUMP JUMPDEST PUSH1 0x1F NOT DUP5 AND PUSH2 0x800 DUP7 PUSH2 0x5ED JUMP JUMPDEST PUSH0 JUMPDEST DUP3 DUP2 LT ISZERO PUSH2 0x827 JUMPI DUP5 DUP10 ADD MLOAD DUP3 SSTORE PUSH1 0x1 DUP3 ADD SWAP2 POP PUSH1 0x20 DUP6 ADD SWAP5 POP PUSH1 0x20 DUP2 ADD SWAP1 POP PUSH2 0x802 JUMP JUMPDEST DUP7 DUP4 LT ISZERO PUSH2 0x844 JUMPI DUP5 DUP10 ADD MLOAD PUSH2 0x840 PUSH1 0x1F DUP10 AND DUP3 PUSH2 0x753 JUMP JUMPDEST DUP4 SSTORE POP JUMPDEST PUSH1 0x1 PUSH1 0x2 DUP9 MUL ADD DUP9 SSTORE POP POP POP JUMPDEST POP POP POP POP POP POP JUMP JUMPDEST PUSH2 0x862 DUP2 PUSH2 0x15E JUMP JUMPDEST DUP3 MSTORE POP POP JUMP JUMPDEST PUSH0 PUSH1 0x20 DUP3 ADD SWAP1 POP PUSH2 0x87B PUSH0 DUP4 ADD DUP5 PUSH2 0x859 JUMP JUMPDEST SWAP3 SWAP2 POP POP JUMP JUMPDEST PUSH2 0x108E DUP1 PUSH2 0x88E PUSH0 CODECOPY PUSH0 RETURN INVALID PUSH1 0x80 PUSH1 0x40 MSTORE CALLVALUE DUP1 ISZERO PUSH2 0xF JUMPI PUSH0 DUP1 REVERT JUMPDEST POP PUSH1 0x4 CALLDATASIZE LT PUSH2 0x9C JUMPI PUSH0 CALLDATALOAD PUSH1 0xE0 SHR DUP1 PUSH4 0x95D89B41 GT PUSH2 0x64 JUMPI DUP1 PUSH4 0x95D89B41 EQ PUSH2 0x15A JUMPI DUP1 PUSH4 0xA9059CBB EQ PUSH2 0x178 JUMPI DUP1 PUSH4 0xD28D8852 EQ PUSH2 0x1A8 JUMPI DUP1 PUSH4 0xDD62ED3E EQ PUSH2 0x1C6 JUMPI DUP1 PUSH4 0xE3D670D7 EQ PUSH2 0x1F6 JUMPI PUSH2 0x9C JUMP JUMPDEST DUP1 PUSH4 0x6FDDE03 EQ PUSH2 0xA0 JUMPI DUP1 PUSH4 0x95EA7B3 EQ PUSH2 0xBE JUMPI DUP1 PUSH4 0x18160DDD EQ PUSH2 0xEE JUMPI DUP1 PUSH4 0x23B872DD EQ PUSH2 0x10C JUMPI DUP1 PUSH4 0x313CE567 EQ PUSH2 0x13C JUMPI JUMPDEST PUSH0 DUP1 REVERT JUMPDEST PUSH2 0xA8 PUSH2 0x226 JUMP JUMPDEST PUSH1 0x40 MLOAD PUSH2 0xB5 SWAP2 SWAP1 PUSH2 0xA6B JUMP JUMPDEST PUSH1 0x40 MLOAD DUP1 SWAP2 SUB SWAP1 RETURN JUMPDEST PUSH2 0xD8 PUSH1 0x4 DUP1 CALLDATASIZE SUB DUP2 ADD SWAP1 PUSH2 0xD3 SWAP2 SWAP1 PUSH2 0xB1C JUMP JUMPDEST PUSH2 0x2B1 JUMP JUMPDEST PUSH1 0x40 MLOAD PUSH2 0xE5 SWAP2 SWAP1 PUSH2 0xB74 JUMP JUMPDEST PUSH1 0x40 MLOAD DUP1 SWAP2 SUB SWAP1 RETURN JUMPDEST PUSH2 0xF6 PUSH2 0x2C7 JUMP JUMPDEST PUSH1 0x40 MLOAD PUSH2 0x103 SWAP2 SWAP1 PUSH2 0xB9C JUMP JUMPDEST PUSH1 0x40 MLOAD DUP1 SWAP2 SUB SWAP1 RETURN JUMPDEST PUSH2 0x126 PUSH1 0x4 DUP1 CALLDATASIZE SUB DUP2 ADD SWAP1 PUSH2 0x121 SWAP2 SWAP1 PUSH2 0xBB5 JUMP JUMPDEST PUSH2 0x2D0 JUMP JUMPDEST PUSH1 0x40 MLOAD PUSH2 0x133 SWAP2 SWAP1 PUSH2 0xB74 JUMP JUMPDEST PUSH1 0x40 MLOAD DUP1 SWAP2 SUB SWAP1 RETURN JUMPDEST PUSH2 0x144 PUSH2 0x3BD JUMP JUMPDEST PUSH1 0x40 MLOAD PUSH2 0x151 SWAP2 SWAP1 PUSH2 0xC20 JUMP JUMPDEST PUSH1 0x40 MLOAD DUP1 SWAP2 SUB SWAP1 RETURN JUMPDEST PUSH2 0x162 PUSH2 0x3CF JUMP JUMPDEST PUSH1 0x40 MLOAD PUSH2 0x16F SWAP2 SWAP1 PUSH2 0xA6B JUMP JUMPDEST PUSH1 0x40 MLOAD DUP1 SWAP2 SUB SWAP1 RETURN JUMPDEST PUSH2 0x192 PUSH1 0x4 DUP1 CALLDATASIZE SUB DUP2 ADD SWAP1 PUSH2 0x18D SWAP2 SWAP1 PUSH2 0xB1C JUMP JUMPDEST PUSH2 0x45F JUMP JUMPDEST PUSH1 0x40 MLOAD PUSH2 0x19F SWAP2 SWAP1 PUSH2 0xB74 JUMP JUMPDEST PUSH1 0x40 MLOAD DUP1 SWAP2 SUB SWAP1 RETURN JUMPDEST PUSH2 0x1B0 PUSH2 0x475 JUMP JUMPDEST PUSH1 0x40 MLOAD PUSH2 0x1BD SWAP2 SWAP1 PUSH2 0xA6B JUMP JUMPDEST PUSH1 0x40 MLOAD DUP1 SWAP2 SUB SWAP1 RETURN JUMPDEST PUSH2 0x1E0 PUSH1 0x4 DUP1 CALLDATASIZE SUB DUP2 ADD SWAP1 PUSH2 0x1DB SWAP2 SWAP1 PUSH2 0xC39 JUMP JUMPDEST PUSH2 0x504 JUMP JUMPDEST PUSH1 0x40 MLOAD PUSH2 0x1ED SWAP2 SWAP1 PUSH2 0xB9C JUMP JUMPDEST PUSH1 0x40 MLOAD DUP1 SWAP2 SUB SWAP1 RETURN JUMPDEST PUSH2 0x210 PUSH1 0x4 DUP1 CALLDATASIZE SUB DUP2 ADD SWAP1 PUSH2 0x20B SWAP2 SWAP1 PUSH2 0xC77 JUMP JUMPDEST PUSH2 0x586 JUMP JUMPDEST PUSH1 0x40 MLOAD PUSH2 0x21D SWAP2 SWAP1 PUSH2 0xB9C JUMP JUMPDEST PUSH1 0x40 MLOAD DUP1 SWAP2 SUB SWAP1 RETURN JUMPDEST PUSH0 DUP1 SLOAD PUSH2 0x232 SWAP1 PUSH2 0xCCF JUMP JUMPDEST DUP1 PUSH1 0x1F ADD PUSH1 0x20 DUP1 SWAP2 DIV MUL PUSH1 0x20 ADD PUSH1 0x40 MLOAD SWAP1 DUP2 ADD PUSH1 0x40 MSTORE DUP1 SWAP3 SWAP2 SWAP1 DUP2 DUP2 MSTORE PUSH1 0x20 ADD DUP3 DUP1 SLOAD PUSH2 0x25E SWAP1 PUSH2 0xCCF JUMP JUMPDEST DUP1 ISZERO PUSH2 0x2A9 JUMPI DUP1 PUSH1 0x1F LT PUSH2 0x280 JUMPI PUSH2 0x100 DUP1 DUP4 SLOAD DIV MUL DUP4 MSTORE SWAP2 PUSH1 0x20 ADD SWAP2 PUSH2 0x2A9 JUMP JUMPDEST DUP3 ADD SWAP2 SWAP1 PUSH0 MSTORE PUSH1 0x20 PUSH0 KECCAK256 SWAP1 JUMPDEST DUP2 SLOAD DUP2 MSTORE SWAP1 PUSH1 0x1 ADD SWAP1 PUSH1 0x20 ADD DUP1 DUP4 GT PUSH2 0x28C JUMPI DUP3 SWAP1 SUB PUSH1 0x1F AND DUP3 ADD SWAP2 JUMPDEST POP POP POP POP POP DUP2 JUMP JUMPDEST PUSH0 PUSH2 0x2BD CALLER DUP5 DUP5 PUSH2 0x5CC JUMP JUMPDEST PUSH1 0x1 SWAP1 POP SWAP3 SWAP2 POP POP JUMP JUMPDEST PUSH0 PUSH1 0x3 SLOAD SWAP1 POP SWAP1 JUMP JUMPDEST PUSH0 PUSH2 0x2DC DUP5 DUP5 DUP5 PUSH2 0x78F JUMP JUMPDEST PUSH0 PUSH1 0x5 PUSH0 DUP7 PUSH20 0xFFFFFFFFFFFFFFFFFFFFFFFFFFFFFFFFFFFFFFFF AND PUSH20 0xFFFFFFFFFFFFFFFFFFFFFFFFFFFFFFFFFFFFFFFF AND DUP2 MSTORE PUSH1 0x20 ADD SWAP1 DUP2 MSTORE PUSH1 0x20 ADD PUSH0 KECCAK256 PUSH0 CALLER PUSH20 0xFFFFFFFFFFFFFFFFFFFFFFFFFFFFFFFFFFFFFFFF AND PUSH20 0xFFFFFFFFFFFFFFFFFFFFFFFFFFFFFFFFFFFFFFFF AND DUP2 MSTORE PUSH1 0x20 ADD SWAP1 DUP2 MSTORE PUSH1 0x20 ADD PUSH0 KECCAK256 SLOAD SWAP1 POP DUP3 DUP2 LT ISZERO PUSH2 0x39B JUMPI PUSH1 0x40 MLOAD PUSH32 0x8C379A000000000000000000000000000000000000000000000000000000000 DUP2 MSTORE PUSH1 0x4 ADD PUSH2 0x392 SWAP1 PUSH2 0xD6F JUMP JUMPDEST PUSH1 0x40 MLOAD DUP1 SWAP2 SUB SWAP1 REVERT JUMPDEST PUSH2 0x3B1 DUP6 CALLER DUP6 DUP5 PUSH2 0x3AC SWAP2 SWAP1 PUSH2 0xDBA JUMP JUMPDEST PUSH2 0x5CC JUMP JUMPDEST PUSH1 0x1 SWAP2 POP POP SWAP4 SWAP3 POP POP POP JUMP JUMPDEST PUSH1 0x2 PUSH0 SWAP1 SLOAD SWAP1 PUSH2 0x100 EXP SWAP1 DIV PUSH1 0xFF AND DUP2 JUMP JUMPDEST PUSH1 0x60 PUSH1 0x1 DUP1 SLOAD PUSH2 0x3DE SWAP1 PUSH2 0xCCF JUMP JUMPDEST DUP1 PUSH1 0x1F ADD PUSH1 0x20 DUP1 SWAP2 DIV MUL PUSH1 0x20 ADD PUSH1 0x40 MLOAD SWAP1 DUP2 ADD PUSH1 0x40 MSTORE DUP1 SWAP3 SWAP2 SWAP1 DUP2 DUP2 MSTORE PUSH1 0x20 ADD DUP3 DUP1 SLOAD PUSH2 0x40A SWAP1 PUSH2 0xCCF JUMP JUMPDEST DUP1 ISZERO PUSH2 0x455 JUMPI DUP1 PUSH1 0x1F LT PUSH2 0x42C JUMPI PUSH2 0x100 DUP1 DUP4 SLOAD DIV MUL DUP4 MSTORE SWAP2 PUSH1 0x20 ADD SWAP2 PUSH2 0x455 JUMP JUMPDEST DUP3 ADD SWAP2 SWAP1 PUSH0 MSTORE PUSH1 0x20 PUSH0 KECCAK256 SWAP1 JUMPDEST DUP2 SLOAD DUP2 MSTORE SWAP1 PUSH1 0x1 ADD SWAP1 PUSH1 0x20 ADD DUP1 DUP4 GT PUSH2 0x438 JUMPI DUP3 SWAP1 SUB PUSH1 0x1F AND DUP3 ADD SWAP2 JUMPDEST POP POP POP POP POP SWAP1 POP SWAP1 JUMP JUMPDEST PUSH0 PUSH2 0x46B CALLER DUP5 DUP5 PUSH2 0x78F JUMP JUMPDEST PUSH1 0x1 SWAP1 POP SWAP3 SWAP2 POP POP JUMP JUMPDEST PUSH1 0x60 PUSH0 DUP1 SLOAD PUSH2 0x483 SWAP1 PUSH2 0xCCF JUMP JUMPDEST DUP1 PUSH1 0x1F ADD PUSH1 0x20 DUP1 SWAP2 DIV MUL PUSH1 0x20 ADD PUSH1 0x40 MLOAD SWAP1 DUP2 ADD PUSH1 0x40 MSTORE DUP1 SWAP3 SWAP2 SWAP1 DUP2 DUP2 MSTORE PUSH1 0x20 ADD DUP3 DUP1 SLOAD PUSH2 0x4AF SWAP1 PUSH2 0xCCF JUMP JUMPDEST DUP1 ISZERO PUSH2 0x4FA JUMPI DUP1 PUSH1 0x1F LT PUSH2 0x4D1 JUMPI PUSH2 0x100 DUP1 DUP4 SLOAD DIV MUL DUP4 MSTORE SWAP2 PUSH1 0x20 ADD SWAP2 PUSH2 0x4FA JUMP JUMPDEST DUP3 ADD SWAP2 SWAP1 PUSH0 MSTORE PUSH1 0x20 PUSH0 KECCAK256 SWAP1 JUMPDEST DUP2 SLOAD DUP2 MSTORE SWAP1 PUSH1 0x1 ADD SWAP1 PUSH1 0x20 ADD DUP1 DUP4 GT PUSH2 0x4DD JUMPI DUP3 SWAP1 SUB PUSH1 0x1F AND DUP3 ADD SWAP2 JUMPDEST POP POP POP POP POP SWAP1 POP SWAP1 JUMP JUMPDEST PUSH0 PUSH1 0x5 PUSH0 DUP5 PUSH20 0xFFFFFFFFFFFFFFFFFFFFFFFFFFFFFFFFFFFFFFFF AND PUSH20 0xFFFFFFFFFFFFFFFFFFFFFFFFFFFFFFFFFFFFFFFF AND DUP2 MSTORE PUSH1 0x20 ADD SWAP1 DUP2 MSTORE PUSH1 0x20 ADD PUSH0 KECCAK256 PUSH0 DUP4 PUSH20 0xFFFFFFFFFFFFFFFFFFFFFFFFFFFFFFFFFFFFFFFF AND PUSH20 0xFFFFFFFFFFFFFFFFFFFFFFFFFFFFFFFFFFFFFFFF AND DUP2 MSTORE PUSH1 0x20 ADD SWAP1 DUP2 MSTORE PUSH1 0x20 ADD PUSH0 KECCAK256 SLOAD SWAP1 POP SWAP3 SWAP2 POP POP JUMP JUMPDEST PUSH0 PUSH1 0x4 PUSH0 DUP4 PUSH20 0xFFFFFFFFFFFFFFFFFFFFFFFFFFFFFFFFFFFFFFFF AND PUSH20 0xFFFFFFFFFFFFFFFFFFFFFFFFFFFFFFFFFFFFFFFF AND DUP2 MSTORE PUSH1 0x20 ADD SWAP1 DUP2 MSTORE PUSH1 0x20 ADD PUSH0 KECCAK256 SLOAD SWAP1 POP SWAP2 SWAP1 POP JUMP JUMPDEST PUSH0 PUSH20 0xFFFFFFFFFFFFFFFFFFFFFFFFFFFFFFFFFFFFFFFF AND DUP4 PUSH20 0xFFFFFFFFFFFFFFFFFFFFFFFFFFFFFFFFFFFFFFFF AND SUB PUSH2 0x63A JUMPI PUSH1 0x40 MLOAD PUSH32 0x8C379A000000000000000000000000000000000000000000000000000000000 DUP2 MSTORE PUSH1 0x4 ADD PUSH2 0x631 SWAP1 PUSH2 0xE5D JUMP JUMPDEST PUSH1 0x40 MLOAD DUP1 SWAP2 SUB SWAP1 REVERT JUMPDEST PUSH0 PUSH20 0xFFFFFFFFFFFFFFFFFFFFFFFFFFFFFFFFFFFFFFFF AND DUP3 PUSH20 0xFFFFFFFFFFFFFFFFFFFFFFFFFFFFFFFFFFFFFFFF AND SUB PUSH2 0x6A8 JUMPI PUSH1 0x40 MLOAD PUSH32 0x8C379A000000000000000000000000000000000000000000000000000000000 DUP2 MSTORE PUSH1 0x4 ADD PUSH2 0x69F SWAP1 PUSH2 0xEEB JUMP JUMPDEST PUSH1 0x40 MLOAD DUP1 SWAP2 SUB SWAP1 REVERT JUMPDEST DUP1 PUSH1 0x5 PUSH0 DUP6 PUSH20 0xFFFFFFFFFFFFFFFFFFFFFFFFFFFFFFFFFFFFFFFF AND PUSH20 0xFFFFFFFFFFFFFFFFFFFFFFFFFFFFFFFFFFFFFFFF AND DUP2 MSTORE PUSH1 0x20 ADD SWAP1 DUP2 MSTORE PUSH1 0x20 ADD PUSH0 KECCAK256 PUSH0 DUP5 PUSH20 0xFFFFFFFFFFFFFFFFFFFFFFFFFFFFFFFFFFFFFFFF AND PUSH20 0xFFFFFFFFFFFFFFFFFFFFFFFFFFFFFFFFFFFFFFFF AND DUP2 MSTORE PUSH1 0x20 ADD SWAP1 DUP2 MSTORE PUSH1 0x20 ADD PUSH0 KECCAK256 DUP2 SWAP1 SSTORE POP DUP2 PUSH20 0xFFFFFFFFFFFFFFFFFFFFFFFFFFFFFFFFFFFFFFFF AND DUP4 PUSH20 0xFFFFFFFFFFFFFFFFFFFFFFFFFFFFFFFFFFFFFFFF AND PUSH32 0x8C5BE1E5EBEC7D5BD14F71427D1E84F3DD0314C0F7B2291E5B200AC8C7C3B925 DUP4 PUSH1 0x40 MLOAD PUSH2 0x782 SWAP2 SWAP1 PUSH2 0xB9C JUMP JUMPDEST PUSH1 0x40 MLOAD DUP1 SWAP2 SUB SWAP1 LOG3 POP POP POP JUMP JUMPDEST PUSH0 PUSH20 0xFFFFFFFFFFFFFFFFFFFFFFFFFFFFFFFFFFFFFFFF AND DUP4 PUSH20 0xFFFFFFFFFFFFFFFFFFFFFFFFFFFFFFFFFFFFFFFF AND SUB PUSH2 0x7FD JUMPI PUSH1 0x40 MLOAD PUSH32 0x8C379A000000000000000000000000000000000000000000000000000000000 DUP2 MSTORE PUSH1 0x4 ADD PUSH2 0x7F4 SWAP1 PUSH2 0xF79 JUMP JUMPDEST PUSH1 0x40 MLOAD DUP1 SWAP2 SUB SWAP1 REVERT JUMPDEST PUSH0 PUSH20 0xFFFFFFFFFFFFFFFFFFFFFFFFFFFFFFFFFFFFFFFF AND DUP3 PUSH20 0xFFFFFFFFFFFFFFFFFFFFFFFFFFFFFFFFFFFFFFFF AND SUB PUSH2 0x86B JUMPI PUSH1 0x40 MLOAD PUSH32 0x8C379A000000000000000000000000000000000000000000000000000000000 DUP2 MSTORE PUSH1 0x4 ADD PUSH2 0x862 SWAP1 PUSH2 0xF79 JUMP JUMPDEST PUSH1 0x40 MLOAD DUP1 SWAP2 SUB SWAP1 REVERT JUMPDEST DUP1 PUSH1 0x4 PUSH0 DUP6 PUSH20 0xFFFFFFFFFFFFFFFFFFFFFFFFFFFFFFFFFFFFFFFF AND PUSH20 0xFFFFFFFFFFFFFFFFFFFFFFFFFFFFFFFFFFFFFFFF AND DUP2 MSTORE PUSH1 0x20 ADD SWAP1 DUP2 MSTORE PUSH1 0x20 ADD PUSH0 KECCAK256 SLOAD LT ISZERO PUSH2 0x8EB JUMPI PUSH1 0x40 MLOAD PUSH32 0x8C379A000000000000000000000000000000000000000000000000000000000 DUP2 MSTORE PUSH1 0x4 ADD PUSH2 0x8E2 SWAP1 PUSH2 0x1007 JUMP JUMPDEST PUSH1 0x40 MLOAD DUP1 SWAP2 SUB SWAP1 REVERT JUMPDEST DUP1 PUSH1 0x4 PUSH0 DUP6 PUSH20 0xFFFFFFFFFFFFFFFFFFFFFFFFFFFFFFFFFFFFFFFF AND PUSH20 0xFFFFFFFFFFFFFFFFFFFFFFFFFFFFFFFFFFFFFFFF AND DUP2 MSTORE PUSH1 0x20 ADD SWAP1 DUP2 MSTORE PUSH1 0x20 ADD PUSH0 KECCAK256 PUSH0 DUP3 DUP3 SLOAD PUSH2 0x937 SWAP2 SWAP1 PUSH2 0xDBA JUMP JUMPDEST SWAP3 POP POP DUP2 SWAP1 SSTORE POP DUP1 PUSH1 0x4 PUSH0 DUP5 PUSH20 0xFFFFFFFFFFFFFFFFFFFFFFFFFFFFFFFFFFFFFFFF AND PUSH20 0xFFFFFFFFFFFFFFFFFFFFFFFFFFFFFFFFFFFFFFFF AND DUP2 MSTORE PUSH1 0x20 ADD SWAP1 DUP2 MSTORE PUSH1 0x20 ADD PUSH0 KECCAK256 PUSH0 DUP3 DUP3 SLOAD PUSH2 0x98A SWAP2 SWAP1 PUSH2 0x1025 JUMP JUMPDEST SWAP3 POP POP DUP2 SWAP1 SSTORE POP DUP2 PUSH20 0xFFFFFFFFFFFFFFFFFFFFFFFFFFFFFFFFFFFFFFFF AND DUP4 PUSH20 0xFFFFFFFFFFFFFFFFFFFFFFFFFFFFFFFFFFFFFFFF AND PUSH32 0xDDF252AD1BE2C89B69C2B068FC378DAA952BA7F163C4A11628F55A4DF523B3EF DUP4 PUSH1 0x40 MLOAD PUSH2 0x9EE SWAP2 SWAP1 PUSH2 0xB9C JUMP JUMPDEST PUSH1 0x40 MLOAD DUP1 SWAP2 SUB SWAP1 LOG3 POP POP POP JUMP JUMPDEST PUSH0 DUP2 MLOAD SWAP1 POP SWAP2 SWAP1 POP JUMP JUMPDEST PUSH0 DUP3 DUP3 MSTORE PUSH1 0x20 DUP3 ADD SWAP1 POP SWAP3 SWAP2 POP POP JUMP JUMPDEST DUP3 DUP2 DUP4 MCOPY PUSH0 DUP4 DUP4 ADD MSTORE POP POP POP JUMP JUMPDEST PUSH0 PUSH1 0x1F NOT PUSH1 0x1F DUP4 ADD AND SWAP1 POP SWAP2 SWAP1 POP JUMP JUMPDEST PUSH0 PUSH2 0xA3D DUP3 PUSH2 0x9FB JUMP JUMPDEST PUSH2 0xA47 DUP2 DUP6 PUSH2 0xA05 JUMP JUMPDEST SWAP4 POP PUSH2 0xA57 DUP2 DUP6 PUSH1 0x20 DUP7 ADD PUSH2 0xA15 JUMP JUMPDEST PUSH2 0xA60 DUP2 PUSH2 0xA23 JUMP JUMPDEST DUP5 ADD SWAP2 POP POP SWAP3 SWAP2 POP POP JUMP JUMPDEST PUSH0 PUSH1 0x20 DUP3 ADD SWAP1 POP DUP2 DUP2 SUB PUSH0 DUP4 ADD MSTORE PUSH2 0xA83 DUP2 DUP5 PUSH2 0xA33 JUMP JUMPDEST SWAP1 POP SWAP3 SWAP2 POP POP JUMP JUMPDEST PUSH0 DUP1 REVERT JUMPDEST PUSH0 PUSH20 0xFFFFFFFFFFFFFFFFFFFFFFFFFFFFFFFFFFFFFFFF DUP3 AND SWAP1 POP SWAP2 SWAP1 POP JUMP JUMPDEST PUSH0 PUSH2 0xAB8 DUP3 PUSH2 0xA8F JUMP JUMPDEST SWAP1 POP SWAP2 SWAP1 POP JUMP JUMPDEST PUSH2 0xAC8 DUP2 PUSH2 0xAAE JUMP JUMPDEST DUP2 EQ PUSH2 0xAD2 JUMPI PUSH0 DUP1 REVERT JUMPDEST POP JUMP JUMPDEST PUSH0 DUP2 CALLDATALOAD SWAP1 POP PUSH2 0xAE3 DUP2 PUSH2 0xABF JUMP JUMPDEST SWAP3 SWAP2 POP POP JUMP JUMPDEST PUSH0 DUP2 SWAP1 POP SWAP2 SWAP1 POP JUMP JUMPDEST PUSH2 0xAFB DUP2 PUSH2 0xAE9 JUMP JUMPDEST DUP2 EQ PUSH2 0xB05 JUMPI PUSH0 DUP1 REVERT JUMPDEST POP JUMP JUMPDEST PUSH0 DUP2 CALLDATALOAD SWAP1 POP PUSH2 0xB16 DUP2 PUSH2 0xAF2 JUMP JUMPDEST SWAP3 SWAP2 POP POP JUMP JUMPDEST PUSH0 DUP1 PUSH1 0x40 DUP4 DUP6 SUB SLT ISZERO PUSH2 0xB32 JUMPI PUSH2 0xB31 PUSH2 0xA8B JUMP JUMPDEST JUMPDEST PUSH0 PUSH2 0xB3F DUP6 DUP3 DUP7 ADD PUSH2 0xAD5 JUMP JUMPDEST SWAP3 POP POP PUSH1 0x20 PUSH2 0xB50 DUP6 DUP3 DUP7 ADD PUSH2 0xB08 JUMP JUMPDEST SWAP2 POP POP SWAP3 POP SWAP3 SWAP1 POP JUMP JUMPDEST PUSH0 DUP2 ISZERO ISZERO SWAP1 POP SWAP2 SWAP1 POP JUMP JUMPDEST PUSH2 0xB6E DUP2 PUSH2 0xB5A JUMP JUMPDEST DUP3 MSTORE POP POP JUMP JUMPDEST PUSH0 PUSH1 0x20 DUP3 ADD SWAP1 POP PUSH2 0xB87 PUSH0 DUP4 ADD DUP5 PUSH2 0xB65 JUMP JUMPDEST SWAP3 SWAP2 POP POP JUMP JUMPDEST PUSH2 0xB96 DUP2 PUSH2 0xAE9 JUMP JUMPDEST DUP3 MSTORE POP POP JUMP JUMPDEST PUSH0 PUSH1 0x20 DUP3 ADD SWAP1 POP PUSH2 0xBAF PUSH0 DUP4 ADD DUP5 PUSH2 0xB8D JUMP JUMPDEST SWAP3 SWAP2 POP POP JUMP JUMPDEST PUSH0 DUP1 PUSH0 PUSH1 0x60 DUP5 DUP7 SUB SLT ISZERO PUSH2 0xBCC JUMPI PUSH2 0xBCB PUSH2 0xA8B JUMP JUMPDEST JUMPDEST PUSH0 PUSH2 0xBD9 DUP7 DUP3 DUP8 ADD PUSH2 0xAD5 JUMP JUMPDEST SWAP4 POP POP PUSH1 0x20 PUSH2 0xBEA DUP7 DUP3 DUP8 ADD PUSH2 0xAD5 JUMP JUMPDEST SWAP3 POP POP PUSH1 0x40 PUSH2 0xBFB DUP7 DUP3 DUP8 ADD PUSH2 0xB08 JUMP JUMPDEST SWAP2 POP POP SWAP3 POP SWAP3 POP SWAP3 JUMP JUMPDEST PUSH0 PUSH1 0xFF DUP3 AND SWAP1 POP SWAP2 SWAP1 POP JUMP JUMPDEST PUSH2 0xC1A DUP2 PUSH2 0xC05 JUMP JUMPDEST DUP3 MSTORE POP POP JUMP JUMPDEST PUSH0 PUSH1 0x20 DUP3 ADD SWAP1 POP PUSH2 0xC33 PUSH0 DUP4 ADD DUP5 PUSH2 0xC11 JUMP JUMPDEST SWAP3 SWAP2 POP POP JUMP JUMPDEST PUSH0 DUP1 PUSH1 0x40 DUP4 DUP6 SUB SLT ISZERO PUSH2 0xC4F JUMPI PUSH2 0xC4E PUSH2 0xA8B JUMP JUMPDEST JUMPDEST PUSH0 PUSH2 0xC5C DUP6 DUP3 DUP7 ADD PUSH2 0xAD5 JUMP JUMPDEST SWAP3 POP POP PUSH1 0x20 PUSH2 0xC6D DUP6 DUP3 DUP7 ADD PUSH2 0xAD5 JUMP JUMPDEST SWAP2 POP POP SWAP3 POP SWAP3 SWAP1 POP JUMP JUMPDEST PUSH0 PUSH1 0x20 DUP3 DUP5 SUB SLT ISZERO PUSH2 0xC8C JUMPI PUSH2 0xC8B PUSH2 0xA8B JUMP JUMPDEST JUMPDEST PUSH0 PUSH2 0xC99 DUP5 DUP3 DUP6 ADD PUSH2 0xAD5 JUMP JUMPDEST SWAP2 POP POP SWAP3 SWAP2 POP POP JUMP JUMPDEST PUSH32 0x4E487B7100000000000000000000000000000000000000000000000000000000 PUSH0 MSTORE PUSH1 0x22 PUSH1 0x4 MSTORE PUSH1 0x24 PUSH0 REVERT JUMPDEST PUSH0 PUSH1 0x2 DUP3 DIV SWAP1 POP PUSH1 0x1 DUP3 AND DUP1 PUSH2 0xCE6 JUMPI PUSH1 0x7F DUP3 AND SWAP2 POP JUMPDEST PUSH1 0x20 DUP3 LT DUP2 SUB PUSH2 0xCF9 JUMPI PUSH2 0xCF8 PUSH2 0xCA2 JUMP JUMPDEST JUMPDEST POP SWAP2 SWAP1 POP JUMP JUMPDEST PUSH32 0x45524332303A5452414E534645522046524F4D20414C4C4F57414E4345204D55 PUSH0 DUP3 ADD MSTORE PUSH32 0x5354204245204C455353205448414E20414D4F554E542053454E440000000000 PUSH1 0x20 DUP3 ADD MSTORE POP JUMP JUMPDEST PUSH0 PUSH2 0xD59 PUSH1 0x3B DUP4 PUSH2 0xA05 JUMP JUMPDEST SWAP2 POP PUSH2 0xD64 DUP3 PUSH2 0xCFF JUMP JUMPDEST PUSH1 0x40 DUP3 ADD SWAP1 POP SWAP2 SWAP1 POP JUMP JUMPDEST PUSH0 PUSH1 0x20 DUP3 ADD SWAP1 POP DUP2 DUP2 SUB PUSH0 DUP4 ADD MSTORE PUSH2 0xD86 DUP2 PUSH2 0xD4D JUMP JUMPDEST SWAP1 POP SWAP2 SWAP1 POP JUMP JUMPDEST PUSH32 0x4E487B7100000000000000000000000000000000000000000000000000000000 PUSH0 MSTORE PUSH1 0x11 PUSH1 0x4 MSTORE PUSH1 0x24 PUSH0 REVERT JUMPDEST PUSH0 PUSH2 0xDC4 DUP3 PUSH2 0xAE9 JUMP JUMPDEST SWAP2 POP PUSH2 0xDCF DUP4 PUSH2 0xAE9 JUMP JUMPDEST SWAP3 POP DUP3 DUP3 SUB SWAP1 POP DUP2 DUP2 GT ISZERO PUSH2 0xDE7 JUMPI PUSH2 0xDE6 PUSH2 0xD8D JUMP JUMPDEST JUMPDEST SWAP3 SWAP2 POP POP JUMP JUMPDEST PUSH32 0x45524332303A20415050524F56414C2046524F4D205A45524F20414444524553 PUSH0 DUP3 ADD MSTORE PUSH32 0x53204953204E4F542056414C4944000000000000000000000000000000000000 PUSH1 0x20 DUP3 ADD MSTORE POP JUMP JUMPDEST PUSH0 PUSH2 0xE47 PUSH1 0x2E DUP4 PUSH2 0xA05 JUMP JUMPDEST SWAP2 POP PUSH2 0xE52 DUP3 PUSH2 0xDED JUMP JUMPDEST PUSH1 0x40 DUP3 ADD SWAP1 POP SWAP2 SWAP1 POP JUMP JUMPDEST PUSH0 PUSH1 0x20 DUP3 ADD SWAP1 POP DUP2 DUP2 SUB PUSH0 DUP4 ADD MSTORE PUSH2 0xE74 DUP2 PUSH2 0xE3B JUMP JUMPDEST SWAP1 POP SWAP2 SWAP1 POP JUMP JUMPDEST PUSH32 0x45524332303A205452414E5346455220544F20414D4F554E5420414444524553 PUSH0 DUP3 ADD MSTORE PUSH32 0x5300000000000000000000000000000000000000000000000000000000000000 PUSH1 0x20 DUP3 ADD MSTORE POP JUMP JUMPDEST PUSH0 PUSH2 0xED5 PUSH1 0x21 DUP4 PUSH2 0xA05 JUMP JUMPDEST SWAP2 POP PUSH2 0xEE0 DUP3 PUSH2 0xE7B JUMP JUMPDEST PUSH1 0x40 DUP3 ADD SWAP1 POP SWAP2 SWAP1 POP JUMP JUMPDEST PUSH0 PUSH1 0x20 DUP3 ADD SWAP1 POP DUP2 DUP2 SUB PUSH0 DUP4 ADD MSTORE PUSH2 0xF02 DUP2 PUSH2 0xEC9 JUMP JUMPDEST SWAP1 POP SWAP2 SWAP1 POP JUMP JUMPDEST PUSH32 0x45524332303A205452414E534645522046524F4D205A45524F20414444524553 PUSH0 DUP3 ADD MSTORE PUSH32 0x53204953204E4F542056414C4944000000000000000000000000000000000000 PUSH1 0x20 DUP3 ADD MSTORE POP JUMP JUMPDEST PUSH0 PUSH2 0xF63 PUSH1 0x2E DUP4 PUSH2 0xA05 JUMP JUMPDEST SWAP2 POP PUSH2 0xF6E DUP3 PUSH2 0xF09 JUMP JUMPDEST PUSH1 0x40 DUP3 ADD SWAP1 POP SWAP2 SWAP1 POP JUMP JUMPDEST PUSH0 PUSH1 0x20 DUP3 ADD SWAP1 POP DUP2 DUP2 SUB PUSH0 DUP4 ADD MSTORE PUSH2 0xF90 DUP2 PUSH2 0xF57 JUMP JUMPDEST SWAP1 POP SWAP2 SWAP1 POP JUMP JUMPDEST PUSH32 0x45524332303A205452414E534645522046524F4D20414D4F554E543D20616464 PUSH0 DUP3 ADD MSTORE PUSH32 0x7265737328302900000000000000000000000000000000000000000000000000 PUSH1 0x20 DUP3 ADD MSTORE POP JUMP JUMPDEST PUSH0 PUSH2 0xFF1 PUSH1 0x27 DUP4 PUSH2 0xA05 JUMP JUMPDEST SWAP2 POP PUSH2 0xFFC DUP3 PUSH2 0xF97 JUMP JUMPDEST PUSH1 0x40 DUP3 ADD SWAP1 POP SWAP2 SWAP1 POP JUMP JUMPDEST PUSH0 PUSH1 0x20 DUP3 ADD SWAP1 POP DUP2 DUP2 SUB PUSH0 DUP4 ADD MSTORE PUSH2 0x101E DUP2 PUSH2 0xFE5 JUMP JUMPDEST SWAP1 POP SWAP2 SWAP1 POP JUMP JUMPDEST PUSH0 PUSH2 0x102F DUP3 PUSH2 0xAE9 JUMP JUMPDEST SWAP2 POP PUSH2 0x103A DUP4 PUSH2 0xAE9 JUMP JUMPDEST SWAP3 POP DUP3 DUP3 ADD SWAP1 POP DUP1 DUP3 GT ISZERO PUSH2 0x1052 JUMPI PUSH2 0x1051 PUSH2 0xD8D JUMP JUMPDEST JUMPDEST SWAP3 SWAP2 POP POP JUMP INVALID LOG2 PUSH5 0x6970667358 0x22 SLT KECCAK256 0xFC BALANCE 0xF7 PUSH32 0xCCEE109990C0EA4C51D453F0C6ABA38EA8270D934E1D5D74BD69ACFA64736F6C PUSH4 0x4300081A STOP CALLER "
		},
		"gasEstimates": {
			"creation": {
				"codeDepositCost": "847600",
				"executionCost": "infinite",
				"totalCost": "infinite"
			},
			"external": {
				"_name()": "infinite",
				"allowance(address,address)": "infinite",
				"approve(address,uint256)": "infinite",
				"balance(address)": "2917",
				"decimals()": "2555",
				"name()": "infinite",
				"symbol()": "infinite",
				"totalSupply()": "2477",
				"transfer(address,uint256)": "infinite",
				"transferFrom(address,address,uint256)": "infinite"
			},
			"internal": {
				"_approveToken(address,address,uint256)": "infinite",
				"_transfer(address,address,uint256)": "infinite"
			}
		},
		"methodIdentifiers": {
			"_name()": "d28d8852",
			"allowance(address,address)": "dd62ed3e",
			"approve(address,uint256)": "095ea7b3",
			"balance(address)": "e3d670d7",
			"decimals()": "313ce567",
			"name()": "06fdde03",
			"symbol()": "95d89b41",
			"totalSupply()": "18160ddd",
			"transfer(address,uint256)": "a9059cbb",
			"transferFrom(address,address,uint256)": "23b872dd"
		}
	},
	"abi": [
		{
			"inputs": [
				{
					"internalType": "uint256",
					"name": "initialSupply",
					"type": "uint256"
				},
				{
					"internalType": "string",
					"name": "TokenName",
					"type": "string"
				},
				{
					"internalType": "string",
					"name": "TokenSymbol",
					"type": "string"
				},
				{
					"internalType": "uint8",
					"name": "tokenDecimals",
					"type": "uint8"
				}
			],
			"stateMutability": "nonpayable",
			"type": "constructor"
		},
		{
			"anonymous": false,
			"inputs": [
				{
					"indexed": true,
					"internalType": "address",
					"name": "owner",
					"type": "address"
				},
				{
					"indexed": true,
					"internalType": "address",
					"name": "spender",
					"type": "address"
				},
				{
					"indexed": false,
					"internalType": "uint256",
					"name": "amount",
					"type": "uint256"
				}
			],
			"name": "Approval",
			"type": "event"
		},
		{
			"anonymous": false,
			"inputs": [
				{
					"indexed": true,
					"internalType": "address",
					"name": "from",
					"type": "address"
				},
				{
					"indexed": true,
					"internalType": "address",
					"name": "to",
					"type": "address"
				},
				{
					"indexed": false,
					"internalType": "uint256",
					"name": "value",
					"type": "uint256"
				}
			],
			"name": "Transfer",
			"type": "event"
		},
		{
			"inputs": [],
			"name": "_name",
			"outputs": [
				{
					"internalType": "string",
					"name": "",
					"type": "string"
				}
			],
			"stateMutability": "view",
			"type": "function"
		},
		{
			"inputs": [
				{
					"internalType": "address",
					"name": "owner",
					"type": "address"
				},
				{
					"internalType": "address",
					"name": "spender",
					"type": "address"
				}
			],
			"name": "allowance",
			"outputs": [
				{
					"internalType": "uint256",
					"name": "",
					"type": "uint256"
				}
			],
			"stateMutability": "view",
			"type": "function"
		},
		{
			"inputs": [
				{
					"internalType": "address",
					"name": "spender",
					"type": "address"
				},
				{
					"internalType": "uint256",
					"name": "amount",
					"type": "uint256"
				}
			],
			"name": "approve",
			"outputs": [
				{
					"internalType": "bool",
					"name": "",
					"type": "bool"
				}
			],
			"stateMutability": "nonpayable",
			"type": "function"
		},
		{
			"inputs": [
				{
					"internalType": "address",
					"name": "account",
					"type": "address"
				}
			],
			"name": "balance",
			"outputs": [
				{
					"internalType": "uint256",
					"name": "",
					"type": "uint256"
				}
			],
			"stateMutability": "view",
			"type": "function"
		},
		{
			"inputs": [],
			"name": "decimals",
			"outputs": [
				{
					"internalType": "uint8",
					"name": "",
					"type": "uint8"
				}
			],
			"stateMutability": "view",
			"type": "function"
		},
		{
			"inputs": [],
			"name": "name",
			"outputs": [
				{
					"internalType": "string",
					"name": "",
					"type": "string"
				}
			],
			"stateMutability": "view",
			"type": "function"
		},
		{
			"inputs": [],
			"name": "symbol",
			"outputs": [
				{
					"internalType": "string",
					"name": "",
					"type": "string"
				}
			],
			"stateMutability": "view",
			"type": "function"
		},
		{
			"inputs": [],
			"name": "totalSupply",
			"outputs": [
				{
					"internalType": "uint256",
					"name": "",
					"type": "uint256"
				}
			],
			"stateMutability": "view",
			"type": "function"
		},
		{
			"inputs": [
				{
					"internalType": "address",
					"name": "recipient",
					"type": "address"
				},
				{
					"internalType": "uint256",
					"name": "amount",
					"type": "uint256"
				}
			],
			"name": "transfer",
			"outputs": [
				{
					"internalType": "bool",
					"name": "",
					"type": "bool"
				}
			],
			"stateMutability": "nonpayable",
			"type": "function"
		},
		{
			"inputs": [
				{
					"internalType": "address",
					"name": "sender",
					"type": "address"
				},
				{
					"internalType": "address",
					"name": "recipient",
					"type": "address"
				},
				{
					"internalType": "uint256",
					"name": "amount",
					"type": "uint256"
				}
			],
			"name": "transferFrom",
			"outputs": [
				{
					"internalType": "bool",
					"name": "",
					"type": "bool"
				}
			],
			"stateMutability": "nonpayable",
			"type": "function"
		}
	]
}