{
	"data": {
		"bytecode": {
			"linkReferences": {},
			"object": "60806040526001600555348015610014575f80fd5b506040516111d93803806111d983398181016040528101906100369190610312565b805f73ffffffffffffffffffffffffffffffffffffffff168173ffffffffffffffffffffffffffffffffffffffff16036100a7575f6040517f1e4fbdf700000000000000000000000000000000000000000000000000000000815260040161009e9190610371565b60405180910390fd5b6100b6816101c060201b60201c565b50600180819055506103e8831115610103576040517f08c379a00000000000000000000000000000000000000000000000000000000081526004016100fa906103e4565b60405180910390fd5b5f73ffffffffffffffffffffffffffffffffffffffff168273ffffffffffffffffffffffffffffffffffffffff1603610171576040517f08c379a00000000000000000000000000000000000000000000000000000000081526004016101689061044c565b60405180910390fd5b826002819055508160035f6101000a81548173ffffffffffffffffffffffffffffffffffffffff021916908373ffffffffffffffffffffffffffffffffffffffff16021790555050505061046a565b5f805f9054906101000a900473ffffffffffffffffffffffffffffffffffffffff169050815f806101000a81548173ffffffffffffffffffffffffffffffffffffffff021916908373ffffffffffffffffffffffffffffffffffffffff1602179055508173ffffffffffffffffffffffffffffffffffffffff168173ffffffffffffffffffffffffffffffffffffffff167f8be0079c531659141344cd1fd0a4f28419497f9722a3daafe3b4186f6b6457e060405160405180910390a35050565b5f80fd5b5f819050919050565b61029781610285565b81146102a1575f80fd5b50565b5f815190506102b28161028e565b92915050565b5f73ffffffffffffffffffffffffffffffffffffffff82169050919050565b5f6102e1826102b8565b9050919050565b6102f1816102d7565b81146102fb575f80fd5b50565b5f8151905061030c816102e8565b92915050565b5f805f6060848603121561032957610328610281565b5b5f610336868287016102a4565b9350506020610347868287016102fe565b9250506040610358868287016102fe565b9150509250925092565b61036b816102d7565b82525050565b5f6020820190506103845f830184610362565b92915050565b5f82825260208201905092915050565b7f4665652063616e6e6f74206578636565642031302500000000000000000000005f82015250565b5f6103ce60158361038a565b91506103d98261039a565b602082019050919050565b5f6020820190508181035f8301526103fb816103c2565b9050919050565b7f496e76616c69642066656520636f6c6c6563746f7220616464726573730000005f82015250565b5f610436601d8361038a565b915061044182610402565b602082019050919050565b5f6020820190508181035f8301526104638161042a565b9050919050565b610d62806104775f395ff3fe608060405234801561000f575f80fd5b5060043610610086575f3560e01c80638da5cb5b116100595780638da5cb5b146100ec578063c415b95c1461010a578063de74e57b14610128578063f2fde38b1461015c57610086565b80631f6182c41461008a57806369b3a705146100a6578063715018a6146100c45780637fd6f15c146100ce575b5f80fd5b6100a4600480360381019061009f919061088e565b610178565b005b6100ae6104ea565b6040516100bb91906108ed565b60405180910390f35b6100cc6104f0565b005b6100d6610503565b6040516100e391906108ed565b60405180910390f35b6100f4610509565b6040516101019190610915565b60405180910390f35b610112610530565b60405161011f9190610915565b60405180910390f35b610142600480360381019061013d919061092e565b610555565b604051610153959493929190610973565b60405180910390f35b610176600480360381019061017191906109c4565b6105d2565b005b610180610656565b5f73ffffffffffffffffffffffffffffffffffffffff168373ffffffffffffffffffffffffffffffffffffffff16036101ee576040517f08c379a00000000000000000000000000000000000000000000000000000000081526004016101e590610a49565b60405180910390fd5b5f8211610230576040517f08c379a000000000000000000000000000000000000000000000000000000000815260040161022790610ab1565b60405180910390fd5b5f8111610272576040517f08c379a000000000000000000000000000000000000000000000000000000000815260040161026990610b19565b60405180910390fd5b5f8390508073ffffffffffffffffffffffffffffffffffffffff166323b872dd3330866040518463ffffffff1660e01b81526004016102b393929190610b37565b6020604051808303815f875af11580156102cf573d5f803e3d5ffd5b505050506040513d601f19601f820116820180604052508101906102f39190610b96565b610332576040517f08c379a000000000000000000000000000000000000000000000000000000000815260040161032990610c0b565b60405180910390fd5b5f60055f81548092919061034590610c56565b9190505590506040518060a001604052803373ffffffffffffffffffffffffffffffffffffffff1681526020018481526020018581526020018673ffffffffffffffffffffffffffffffffffffffff1681526020016001151581525060045f8381526020019081526020015f205f820151815f015f6101000a81548173ffffffffffffffffffffffffffffffffffffffff021916908373ffffffffffffffffffffffffffffffffffffffff16021790555060208201518160010155604082015181600201556060820151816003015f6101000a81548173ffffffffffffffffffffffffffffffffffffffff021916908373ffffffffffffffffffffffffffffffffffffffff16021790555060808201518160030160146101000a81548160ff021916908315150217905550905050808573ffffffffffffffffffffffffffffffffffffffff163373ffffffffffffffffffffffffffffffffffffffff167f7d5e9f7d0176f6d89418aff63d46085abc93fe2052915f849d66d8f7d168bb3c87876040516104d3929190610c9d565b60405180910390a450506104e56106a5565b505050565b60055481565b6104f86106ae565b6105015f610735565b565b60025481565b5f805f9054906101000a900473ffffffffffffffffffffffffffffffffffffffff16905090565b60035f9054906101000a900473ffffffffffffffffffffffffffffffffffffffff1681565b6004602052805f5260405f205f91509050805f015f9054906101000a900473ffffffffffffffffffffffffffffffffffffffff1690806001015490806002015490806003015f9054906101000a900473ffffffffffffffffffffffffffffffffffffffff16908060030160149054906101000a900460ff16905085565b6105da6106ae565b5f73ffffffffffffffffffffffffffffffffffffffff168173ffffffffffffffffffffffffffffffffffffffff160361064a575f6040517f1e4fbdf70000000000000000000000000000000000000000000000000000000081526004016106419190610915565b60405180910390fd5b61065381610735565b50565b60026001540361069b576040517f08c379a000000000000000000000000000000000000000000000000000000000815260040161069290610d0e565b60405180910390fd5b6002600181905550565b60018081905550565b6106b66107f6565b73ffffffffffffffffffffffffffffffffffffffff166106d4610509565b73ffffffffffffffffffffffffffffffffffffffff1614610733576106f76107f6565b6040517f118cdaa700000000000000000000000000000000000000000000000000000000815260040161072a9190610915565b60405180910390fd5b565b5f805f9054906101000a900473ffffffffffffffffffffffffffffffffffffffff169050815f806101000a81548173ffffffffffffffffffffffffffffffffffffffff021916908373ffffffffffffffffffffffffffffffffffffffff1602179055508173ffffffffffffffffffffffffffffffffffffffff168173ffffffffffffffffffffffffffffffffffffffff167f8be0079c531659141344cd1fd0a4f28419497f9722a3daafe3b4186f6b6457e060405160405180910390a35050565b5f33905090565b5f80fd5b5f73ffffffffffffffffffffffffffffffffffffffff82169050919050565b5f61082a82610801565b9050919050565b61083a81610820565b8114610844575f80fd5b50565b5f8135905061085581610831565b92915050565b5f819050919050565b61086d8161085b565b8114610877575f80fd5b50565b5f8135905061088881610864565b92915050565b5f805f606084860312156108a5576108a46107fd565b5b5f6108b286828701610847565b93505060206108c38682870161087a565b92505060406108d48682870161087a565b9150509250925092565b6108e78161085b565b82525050565b5f6020820190506109005f8301846108de565b92915050565b61090f81610820565b82525050565b5f6020820190506109285f830184610906565b92915050565b5f60208284031215610943576109426107fd565b5b5f6109508482850161087a565b91505092915050565b5f8115159050919050565b61096d81610959565b82525050565b5f60a0820190506109865f830188610906565b61099360208301876108de565b6109a060408301866108de565b6109ad6060830185610906565b6109ba6080830184610964565b9695505050505050565b5f602082840312156109d9576109d86107fd565b5b5f6109e684828501610847565b91505092915050565b5f82825260208201905092915050565b7f496e76616c696420746f6b656e206164647265737300000000000000000000005f82015250565b5f610a336015836109ef565b9150610a3e826109ff565b602082019050919050565b5f6020820190508181035f830152610a6081610a27565b9050919050565b7f416d6f756e74206d7573742062652067726561746572207468616e20300000005f82015250565b5f610a9b601d836109ef565b9150610aa682610a67565b602082019050919050565b5f6020820190508181035f830152610ac881610a8f565b9050919050565b7f5072696365206d7573742062652067726561746572207468616e2030000000005f82015250565b5f610b03601c836109ef565b9150610b0e82610acf565b602082019050919050565b5f6020820190508181035f830152610b3081610af7565b9050919050565b5f606082019050610b4a5f830186610906565b610b576020830185610906565b610b6460408301846108de565b949350505050565b610b7581610959565b8114610b7f575f80fd5b50565b5f81519050610b9081610b6c565b92915050565b5f60208284031215610bab57610baa6107fd565b5b5f610bb884828501610b82565b91505092915050565b7f546f6b656e207472616e73666572206661696c656400000000000000000000005f82015250565b5f610bf56015836109ef565b9150610c0082610bc1565b602082019050919050565b5f6020820190508181035f830152610c2281610be9565b9050919050565b7f4e487b71000000000000000000000000000000000000000000000000000000005f52601160045260245ffd5b5f610c608261085b565b91507fffffffffffffffffffffffffffffffffffffffffffffffffffffffffffffffff8203610c9257610c91610c29565b5b600182019050919050565b5f604082019050610cb05f8301856108de565b610cbd60208301846108de565b9392505050565b7f5265656e7472616e637947756172643a207265656e7472616e742063616c6c005f82015250565b5f610cf8601f836109ef565b9150610d0382610cc4565b602082019050919050565b5f6020820190508181035f830152610d2581610cec565b905091905056fea26469706673582212200986d7890241d9acf261724892a92ef559cb7d3d83993c66352160ba9c0d7de464736f6c634300081a0033",
			"opcodes": "PUSH1 0x80 PUSH1 0x40 MSTORE PUSH1 0x1 PUSH1 0x5 SSTORE CALLVALUE DUP1 ISZERO PUSH2 0x14 JUMPI PUSH0 DUP1 REVERT JUMPDEST POP PUSH1 0x40 MLOAD PUSH2 0x11D9 CODESIZE SUB DUP1 PUSH2 0x11D9 DUP4 CODECOPY DUP2 DUP2 ADD PUSH1 0x40 MSTORE DUP2 ADD SWAP1 PUSH2 0x36 SWAP2 SWAP1 PUSH2 0x312 JUMP JUMPDEST DUP1 PUSH0 PUSH20 0xFFFFFFFFFFFFFFFFFFFFFFFFFFFFFFFFFFFFFFFF AND DUP2 PUSH20 0xFFFFFFFFFFFFFFFFFFFFFFFFFFFFFFFFFFFFFFFF AND SUB PUSH2 0xA7 JUMPI PUSH0 PUSH1 0x40 MLOAD PUSH32 0x1E4FBDF700000000000000000000000000000000000000000000000000000000 DUP2 MSTORE PUSH1 0x4 ADD PUSH2 0x9E SWAP2 SWAP1 PUSH2 0x371 JUMP JUMPDEST PUSH1 0x40 MLOAD DUP1 SWAP2 SUB SWAP1 REVERT JUMPDEST PUSH2 0xB6 DUP2 PUSH2 0x1C0 PUSH1 0x20 SHL PUSH1 0x20 SHR JUMP JUMPDEST POP PUSH1 0x1 DUP1 DUP2 SWAP1 SSTORE POP PUSH2 0x3E8 DUP4 GT ISZERO PUSH2 0x103 JUMPI PUSH1 0x40 MLOAD PUSH32 0x8C379A000000000000000000000000000000000000000000000000000000000 DUP2 MSTORE PUSH1 0x4 ADD PUSH2 0xFA SWAP1 PUSH2 0x3E4 JUMP JUMPDEST PUSH1 0x40 MLOAD DUP1 SWAP2 SUB SWAP1 REVERT JUMPDEST PUSH0 PUSH20 0xFFFFFFFFFFFFFFFFFFFFFFFFFFFFFFFFFFFFFFFF AND DUP3 PUSH20 0xFFFFFFFFFFFFFFFFFFFFFFFFFFFFFFFFFFFFFFFF AND SUB PUSH2 0x171 JUMPI PUSH1 0x40 MLOAD PUSH32 0x8C379A000000000000000000000000000000000000000000000000000000000 DUP2 MSTORE PUSH1 0x4 ADD PUSH2 0x168 SWAP1 PUSH2 0x44C JUMP JUMPDEST PUSH1 0x40 MLOAD DUP1 SWAP2 SUB SWAP1 REVERT JUMPDEST DUP3 PUSH1 0x2 DUP2 SWAP1 SSTORE POP DUP2 PUSH1 0x3 PUSH0 PUSH2 0x100 EXP DUP2 SLOAD DUP2 PUSH20 0xFFFFFFFFFFFFFFFFFFFFFFFFFFFFFFFFFFFFFFFF MUL NOT AND SWAP1 DUP4 PUSH20 0xFFFFFFFFFFFFFFFFFFFFFFFFFFFFFFFFFFFFFFFF AND MUL OR SWAP1 SSTORE POP POP POP POP PUSH2 0x46A JUMP JUMPDEST PUSH0 DUP1 PUSH0 SWAP1 SLOAD SWAP1 PUSH2 0x100 EXP SWAP1 DIV PUSH20 0xFFFFFFFFFFFFFFFFFFFFFFFFFFFFFFFFFFFFFFFF AND SWAP1 POP DUP2 PUSH0 DUP1 PUSH2 0x100 EXP DUP2 SLOAD DUP2 PUSH20 0xFFFFFFFFFFFFFFFFFFFFFFFFFFFFFFFFFFFFFFFF MUL NOT AND SWAP1 DUP4 PUSH20 0xFFFFFFFFFFFFFFFFFFFFFFFFFFFFFFFFFFFFFFFF AND MUL OR SWAP1 SSTORE POP DUP2 PUSH20 0xFFFFFFFFFFFFFFFFFFFFFFFFFFFFFFFFFFFFFFFF AND DUP2 PUSH20 0xFFFFFFFFFFFFFFFFFFFFFFFFFFFFFFFFFFFFFFFF AND PUSH32 0x8BE0079C531659141344CD1FD0A4F28419497F9722A3DAAFE3B4186F6B6457E0 PUSH1 0x40 MLOAD PUSH1 0x40 MLOAD DUP1 SWAP2 SUB SWAP1 LOG3 POP POP JUMP JUMPDEST PUSH0 DUP1 REVERT JUMPDEST PUSH0 DUP2 SWAP1 POP SWAP2 SWAP1 POP JUMP JUMPDEST PUSH2 0x297 DUP2 PUSH2 0x285 JUMP JUMPDEST DUP2 EQ PUSH2 0x2A1 JUMPI PUSH0 DUP1 REVERT JUMPDEST POP JUMP JUMPDEST PUSH0 DUP2 MLOAD SWAP1 POP PUSH2 0x2B2 DUP2 PUSH2 0x28E JUMP JUMPDEST SWAP3 SWAP2 POP POP JUMP JUMPDEST PUSH0 PUSH20 0xFFFFFFFFFFFFFFFFFFFFFFFFFFFFFFFFFFFFFFFF DUP3 AND SWAP1 POP SWAP2 SWAP1 POP JUMP JUMPDEST PUSH0 PUSH2 0x2E1 DUP3 PUSH2 0x2B8 JUMP JUMPDEST SWAP1 POP SWAP2 SWAP1 POP JUMP JUMPDEST PUSH2 0x2F1 DUP2 PUSH2 0x2D7 JUMP JUMPDEST DUP2 EQ PUSH2 0x2FB JUMPI PUSH0 DUP1 REVERT JUMPDEST POP JUMP JUMPDEST PUSH0 DUP2 MLOAD SWAP1 POP PUSH2 0x30C DUP2 PUSH2 0x2E8 JUMP JUMPDEST SWAP3 SWAP2 POP POP JUMP JUMPDEST PUSH0 DUP1 PUSH0 PUSH1 0x60 DUP5 DUP7 SUB SLT ISZERO PUSH2 0x329 JUMPI PUSH2 0x328 PUSH2 0x281 JUMP JUMPDEST JUMPDEST PUSH0 PUSH2 0x336 DUP7 DUP3 DUP8 ADD PUSH2 0x2A4 JUMP JUMPDEST SWAP4 POP POP PUSH1 0x20 PUSH2 0x347 DUP7 DUP3 DUP8 ADD PUSH2 0x2FE JUMP JUMPDEST SWAP3 POP POP PUSH1 0x40 PUSH2 0x358 DUP7 DUP3 DUP8 ADD PUSH2 0x2FE JUMP JUMPDEST SWAP2 POP POP SWAP3 POP SWAP3 POP SWAP3 JUMP JUMPDEST PUSH2 0x36B DUP2 PUSH2 0x2D7 JUMP JUMPDEST DUP3 MSTORE POP POP JUMP JUMPDEST PUSH0 PUSH1 0x20 DUP3 ADD SWAP1 POP PUSH2 0x384 PUSH0 DUP4 ADD DUP5 PUSH2 0x362 JUMP JUMPDEST SWAP3 SWAP2 POP POP JUMP JUMPDEST PUSH0 DUP3 DUP3 MSTORE PUSH1 0x20 DUP3 ADD SWAP1 POP SWAP3 SWAP2 POP POP JUMP JUMPDEST PUSH32 0x4665652063616E6E6F7420657863656564203130250000000000000000000000 PUSH0 DUP3 ADD MSTORE POP JUMP JUMPDEST PUSH0 PUSH2 0x3CE PUSH1 0x15 DUP4 PUSH2 0x38A JUMP JUMPDEST SWAP2 POP PUSH2 0x3D9 DUP3 PUSH2 0x39A JUMP JUMPDEST PUSH1 0x20 DUP3 ADD SWAP1 POP SWAP2 SWAP1 POP JUMP JUMPDEST PUSH0 PUSH1 0x20 DUP3 ADD SWAP1 POP DUP2 DUP2 SUB PUSH0 DUP4 ADD MSTORE PUSH2 0x3FB DUP2 PUSH2 0x3C2 JUMP JUMPDEST SWAP1 POP SWAP2 SWAP1 POP JUMP JUMPDEST PUSH32 0x496E76616C69642066656520636F6C6C6563746F722061646472657373000000 PUSH0 DUP3 ADD MSTORE POP JUMP JUMPDEST PUSH0 PUSH2 0x436 PUSH1 0x1D DUP4 PUSH2 0x38A JUMP JUMPDEST SWAP2 POP PUSH2 0x441 DUP3 PUSH2 0x402 JUMP JUMPDEST PUSH1 0x20 DUP3 ADD SWAP1 POP SWAP2 SWAP1 POP JUMP JUMPDEST PUSH0 PUSH1 0x20 DUP3 ADD SWAP1 POP DUP2 DUP2 SUB PUSH0 DUP4 ADD MSTORE PUSH2 0x463 DUP2 PUSH2 0x42A JUMP JUMPDEST SWAP1 POP SWAP2 SWAP1 POP JUMP JUMPDEST PUSH2 0xD62 DUP1 PUSH2 0x477 PUSH0 CODECOPY PUSH0 RETURN INVALID PUSH1 0x80 PUSH1 0x40 MSTORE CALLVALUE DUP1 ISZERO PUSH2 0xF JUMPI PUSH0 DUP1 REVERT JUMPDEST POP PUSH1 0x4 CALLDATASIZE LT PUSH2 0x86 JUMPI PUSH0 CALLDATALOAD PUSH1 0xE0 SHR DUP1 PUSH4 0x8DA5CB5B GT PUSH2 0x59 JUMPI DUP1 PUSH4 0x8DA5CB5B EQ PUSH2 0xEC JUMPI DUP1 PUSH4 0xC415B95C EQ PUSH2 0x10A JUMPI DUP1 PUSH4 0xDE74E57B EQ PUSH2 0x128 JUMPI DUP1 PUSH4 0xF2FDE38B EQ PUSH2 0x15C JUMPI PUSH2 0x86 JUMP JUMPDEST DUP1 PUSH4 0x1F6182C4 EQ PUSH2 0x8A JUMPI DUP1 PUSH4 0x69B3A705 EQ PUSH2 0xA6 JUMPI DUP1 PUSH4 0x715018A6 EQ PUSH2 0xC4 JUMPI DUP1 PUSH4 0x7FD6F15C EQ PUSH2 0xCE JUMPI JUMPDEST PUSH0 DUP1 REVERT JUMPDEST PUSH2 0xA4 PUSH1 0x4 DUP1 CALLDATASIZE SUB DUP2 ADD SWAP1 PUSH2 0x9F SWAP2 SWAP1 PUSH2 0x88E JUMP JUMPDEST PUSH2 0x178 JUMP JUMPDEST STOP JUMPDEST PUSH2 0xAE PUSH2 0x4EA JUMP JUMPDEST PUSH1 0x40 MLOAD PUSH2 0xBB SWAP2 SWAP1 PUSH2 0x8ED JUMP JUMPDEST PUSH1 0x40 MLOAD DUP1 SWAP2 SUB SWAP1 RETURN JUMPDEST PUSH2 0xCC PUSH2 0x4F0 JUMP JUMPDEST STOP JUMPDEST PUSH2 0xD6 PUSH2 0x503 JUMP JUMPDEST PUSH1 0x40 MLOAD PUSH2 0xE3 SWAP2 SWAP1 PUSH2 0x8ED JUMP JUMPDEST PUSH1 0x40 MLOAD DUP1 SWAP2 SUB SWAP1 RETURN JUMPDEST PUSH2 0xF4 PUSH2 0x509 JUMP JUMPDEST PUSH1 0x40 MLOAD PUSH2 0x101 SWAP2 SWAP1 PUSH2 0x915 JUMP JUMPDEST PUSH1 0x40 MLOAD DUP1 SWAP2 SUB SWAP1 RETURN JUMPDEST PUSH2 0x112 PUSH2 0x530 JUMP JUMPDEST PUSH1 0x40 MLOAD PUSH2 0x11F SWAP2 SWAP1 PUSH2 0x915 JUMP JUMPDEST PUSH1 0x40 MLOAD DUP1 SWAP2 SUB SWAP1 RETURN JUMPDEST PUSH2 0x142 PUSH1 0x4 DUP1 CALLDATASIZE SUB DUP2 ADD SWAP1 PUSH2 0x13D SWAP2 SWAP1 PUSH2 0x92E JUMP JUMPDEST PUSH2 0x555 JUMP JUMPDEST PUSH1 0x40 MLOAD PUSH2 0x153 SWAP6 SWAP5 SWAP4 SWAP3 SWAP2 SWAP1 PUSH2 0x973 JUMP JUMPDEST PUSH1 0x40 MLOAD DUP1 SWAP2 SUB SWAP1 RETURN JUMPDEST PUSH2 0x176 PUSH1 0x4 DUP1 CALLDATASIZE SUB DUP2 ADD SWAP1 PUSH2 0x171 SWAP2 SWAP1 PUSH2 0x9C4 JUMP JUMPDEST PUSH2 0x5D2 JUMP JUMPDEST STOP JUMPDEST PUSH2 0x180 PUSH2 0x656 JUMP JUMPDEST PUSH0 PUSH20 0xFFFFFFFFFFFFFFFFFFFFFFFFFFFFFFFFFFFFFFFF AND DUP4 PUSH20 0xFFFFFFFFFFFFFFFFFFFFFFFFFFFFFFFFFFFFFFFF AND SUB PUSH2 0x1EE JUMPI PUSH1 0x40 MLOAD PUSH32 0x8C379A000000000000000000000000000000000000000000000000000000000 DUP2 MSTORE PUSH1 0x4 ADD PUSH2 0x1E5 SWAP1 PUSH2 0xA49 JUMP JUMPDEST PUSH1 0x40 MLOAD DUP1 SWAP2 SUB SWAP1 REVERT JUMPDEST PUSH0 DUP3 GT PUSH2 0x230 JUMPI PUSH1 0x40 MLOAD PUSH32 0x8C379A000000000000000000000000000000000000000000000000000000000 DUP2 MSTORE PUSH1 0x4 ADD PUSH2 0x227 SWAP1 PUSH2 0xAB1 JUMP JUMPDEST PUSH1 0x40 MLOAD DUP1 SWAP2 SUB SWAP1 REVERT JUMPDEST PUSH0 DUP2 GT PUSH2 0x272 JUMPI PUSH1 0x40 MLOAD PUSH32 0x8C379A000000000000000000000000000000000000000000000000000000000 DUP2 MSTORE PUSH1 0x4 ADD PUSH2 0x269 SWAP1 PUSH2 0xB19 JUMP JUMPDEST PUSH1 0x40 MLOAD DUP1 SWAP2 SUB SWAP1 REVERT JUMPDEST PUSH0 DUP4 SWAP1 POP DUP1 PUSH20 0xFFFFFFFFFFFFFFFFFFFFFFFFFFFFFFFFFFFFFFFF AND PUSH4 0x23B872DD CALLER ADDRESS DUP7 PUSH1 0x40 MLOAD DUP5 PUSH4 0xFFFFFFFF AND PUSH1 0xE0 SHL DUP2 MSTORE PUSH1 0x4 ADD PUSH2 0x2B3 SWAP4 SWAP3 SWAP2 SWAP1 PUSH2 0xB37 JUMP JUMPDEST PUSH1 0x20 PUSH1 0x40 MLOAD DUP1 DUP4 SUB DUP2 PUSH0 DUP8 GAS CALL ISZERO DUP1 ISZERO PUSH2 0x2CF JUMPI RETURNDATASIZE PUSH0 DUP1 RETURNDATACOPY RETURNDATASIZE PUSH0 REVERT JUMPDEST POP POP POP POP PUSH1 0x40 MLOAD RETURNDATASIZE PUSH1 0x1F NOT PUSH1 0x1F DUP3 ADD AND DUP3 ADD DUP1 PUSH1 0x40 MSTORE POP DUP2 ADD SWAP1 PUSH2 0x2F3 SWAP2 SWAP1 PUSH2 0xB96 JUMP JUMPDEST PUSH2 0x332 JUMPI PUSH1 0x40 MLOAD PUSH32 0x8C379A000000000000000000000000000000000000000000000000000000000 DUP2 MSTORE PUSH1 0x4 ADD PUSH2 0x329 SWAP1 PUSH2 0xC0B JUMP JUMPDEST PUSH1 0x40 MLOAD DUP1 SWAP2 SUB SWAP1 REVERT JUMPDEST PUSH0 PUSH1 0x5 PUSH0 DUP2 SLOAD DUP1 SWAP3 SWAP2 SWAP1 PUSH2 0x345 SWAP1 PUSH2 0xC56 JUMP JUMPDEST SWAP2 SWAP1 POP SSTORE SWAP1 POP PUSH1 0x40 MLOAD DUP1 PUSH1 0xA0 ADD PUSH1 0x40 MSTORE DUP1 CALLER PUSH20 0xFFFFFFFFFFFFFFFFFFFFFFFFFFFFFFFFFFFFFFFF AND DUP2 MSTORE PUSH1 0x20 ADD DUP5 DUP2 MSTORE PUSH1 0x20 ADD DUP6 DUP2 MSTORE PUSH1 0x20 ADD DUP7 PUSH20 0xFFFFFFFFFFFFFFFFFFFFFFFFFFFFFFFFFFFFFFFF AND DUP2 MSTORE PUSH1 0x20 ADD PUSH1 0x1 ISZERO ISZERO DUP2 MSTORE POP PUSH1 0x4 PUSH0 DUP4 DUP2 MSTORE PUSH1 0x20 ADD SWAP1 DUP2 MSTORE PUSH1 0x20 ADD PUSH0 KECCAK256 PUSH0 DUP3 ADD MLOAD DUP2 PUSH0 ADD PUSH0 PUSH2 0x100 EXP DUP2 SLOAD DUP2 PUSH20 0xFFFFFFFFFFFFFFFFFFFFFFFFFFFFFFFFFFFFFFFF MUL NOT AND SWAP1 DUP4 PUSH20 0xFFFFFFFFFFFFFFFFFFFFFFFFFFFFFFFFFFFFFFFF AND MUL OR SWAP1 SSTORE POP PUSH1 0x20 DUP3 ADD MLOAD DUP2 PUSH1 0x1 ADD SSTORE PUSH1 0x40 DUP3 ADD MLOAD DUP2 PUSH1 0x2 ADD SSTORE PUSH1 0x60 DUP3 ADD MLOAD DUP2 PUSH1 0x3 ADD PUSH0 PUSH2 0x100 EXP DUP2 SLOAD DUP2 PUSH20 0xFFFFFFFFFFFFFFFFFFFFFFFFFFFFFFFFFFFFFFFF MUL NOT AND SWAP1 DUP4 PUSH20 0xFFFFFFFFFFFFFFFFFFFFFFFFFFFFFFFFFFFFFFFF AND MUL OR SWAP1 SSTORE POP PUSH1 0x80 DUP3 ADD MLOAD DUP2 PUSH1 0x3 ADD PUSH1 0x14 PUSH2 0x100 EXP DUP2 SLOAD DUP2 PUSH1 0xFF MUL NOT AND SWAP1 DUP4 ISZERO ISZERO MUL OR SWAP1 SSTORE POP SWAP1 POP POP DUP1 DUP6 PUSH20 0xFFFFFFFFFFFFFFFFFFFFFFFFFFFFFFFFFFFFFFFF AND CALLER PUSH20 0xFFFFFFFFFFFFFFFFFFFFFFFFFFFFFFFFFFFFFFFF AND PUSH32 0x7D5E9F7D0176F6D89418AFF63D46085ABC93FE2052915F849D66D8F7D168BB3C DUP8 DUP8 PUSH1 0x40 MLOAD PUSH2 0x4D3 SWAP3 SWAP2 SWAP1 PUSH2 0xC9D JUMP JUMPDEST PUSH1 0x40 MLOAD DUP1 SWAP2 SUB SWAP1 LOG4 POP POP PUSH2 0x4E5 PUSH2 0x6A5 JUMP JUMPDEST POP POP POP JUMP JUMPDEST PUSH1 0x5 SLOAD DUP2 JUMP JUMPDEST PUSH2 0x4F8 PUSH2 0x6AE JUMP JUMPDEST PUSH2 0x501 PUSH0 PUSH2 0x735 JUMP JUMPDEST JUMP JUMPDEST PUSH1 0x2 SLOAD DUP2 JUMP JUMPDEST PUSH0 DUP1 PUSH0 SWAP1 SLOAD SWAP1 PUSH2 0x100 EXP SWAP1 DIV PUSH20 0xFFFFFFFFFFFFFFFFFFFFFFFFFFFFFFFFFFFFFFFF AND SWAP1 POP SWAP1 JUMP JUMPDEST PUSH1 0x3 PUSH0 SWAP1 SLOAD SWAP1 PUSH2 0x100 EXP SWAP1 DIV PUSH20 0xFFFFFFFFFFFFFFFFFFFFFFFFFFFFFFFFFFFFFFFF AND DUP2 JUMP JUMPDEST PUSH1 0x4 PUSH1 0x20 MSTORE DUP1 PUSH0 MSTORE PUSH1 0x40 PUSH0 KECCAK256 PUSH0 SWAP2 POP SWAP1 POP DUP1 PUSH0 ADD PUSH0 SWAP1 SLOAD SWAP1 PUSH2 0x100 EXP SWAP1 DIV PUSH20 0xFFFFFFFFFFFFFFFFFFFFFFFFFFFFFFFFFFFFFFFF AND SWAP1 DUP1 PUSH1 0x1 ADD SLOAD SWAP1 DUP1 PUSH1 0x2 ADD SLOAD SWAP1 DUP1 PUSH1 0x3 ADD PUSH0 SWAP1 SLOAD SWAP1 PUSH2 0x100 EXP SWAP1 DIV PUSH20 0xFFFFFFFFFFFFFFFFFFFFFFFFFFFFFFFFFFFFFFFF AND SWAP1 DUP1 PUSH1 0x3 ADD PUSH1 0x14 SWAP1 SLOAD SWAP1 PUSH2 0x100 EXP SWAP1 DIV PUSH1 0xFF AND SWAP1 POP DUP6 JUMP JUMPDEST PUSH2 0x5DA PUSH2 0x6AE JUMP JUMPDEST PUSH0 PUSH20 0xFFFFFFFFFFFFFFFFFFFFFFFFFFFFFFFFFFFFFFFF AND DUP2 PUSH20 0xFFFFFFFFFFFFFFFFFFFFFFFFFFFFFFFFFFFFFFFF AND SUB PUSH2 0x64A JUMPI PUSH0 PUSH1 0x40 MLOAD PUSH32 0x1E4FBDF700000000000000000000000000000000000000000000000000000000 DUP2 MSTORE PUSH1 0x4 ADD PUSH2 0x641 SWAP2 SWAP1 PUSH2 0x915 JUMP JUMPDEST PUSH1 0x40 MLOAD DUP1 SWAP2 SUB SWAP1 REVERT JUMPDEST PUSH2 0x653 DUP2 PUSH2 0x735 JUMP JUMPDEST POP JUMP JUMPDEST PUSH1 0x2 PUSH1 0x1 SLOAD SUB PUSH2 0x69B JUMPI PUSH1 0x40 MLOAD PUSH32 0x8C379A000000000000000000000000000000000000000000000000000000000 DUP2 MSTORE PUSH1 0x4 ADD PUSH2 0x692 SWAP1 PUSH2 0xD0E JUMP JUMPDEST PUSH1 0x40 MLOAD DUP1 SWAP2 SUB SWAP1 REVERT JUMPDEST PUSH1 0x2 PUSH1 0x1 DUP2 SWAP1 SSTORE POP JUMP JUMPDEST PUSH1 0x1 DUP1 DUP2 SWAP1 SSTORE POP JUMP JUMPDEST PUSH2 0x6B6 PUSH2 0x7F6 JUMP JUMPDEST PUSH20 0xFFFFFFFFFFFFFFFFFFFFFFFFFFFFFFFFFFFFFFFF AND PUSH2 0x6D4 PUSH2 0x509 JUMP JUMPDEST PUSH20 0xFFFFFFFFFFFFFFFFFFFFFFFFFFFFFFFFFFFFFFFF AND EQ PUSH2 0x733 JUMPI PUSH2 0x6F7 PUSH2 0x7F6 JUMP JUMPDEST PUSH1 0x40 MLOAD PUSH32 0x118CDAA700000000000000000000000000000000000000000000000000000000 DUP2 MSTORE PUSH1 0x4 ADD PUSH2 0x72A SWAP2 SWAP1 PUSH2 0x915 JUMP JUMPDEST PUSH1 0x40 MLOAD DUP1 SWAP2 SUB SWAP1 REVERT JUMPDEST JUMP JUMPDEST PUSH0 DUP1 PUSH0 SWAP1 SLOAD SWAP1 PUSH2 0x100 EXP SWAP1 DIV PUSH20 0xFFFFFFFFFFFFFFFFFFFFFFFFFFFFFFFFFFFFFFFF AND SWAP1 POP DUP2 PUSH0 DUP1 PUSH2 0x100 EXP DUP2 SLOAD DUP2 PUSH20 0xFFFFFFFFFFFFFFFFFFFFFFFFFFFFFFFFFFFFFFFF MUL NOT AND SWAP1 DUP4 PUSH20 0xFFFFFFFFFFFFFFFFFFFFFFFFFFFFFFFFFFFFFFFF AND MUL OR SWAP1 SSTORE POP DUP2 PUSH20 0xFFFFFFFFFFFFFFFFFFFFFFFFFFFFFFFFFFFFFFFF AND DUP2 PUSH20 0xFFFFFFFFFFFFFFFFFFFFFFFFFFFFFFFFFFFFFFFF AND PUSH32 0x8BE0079C531659141344CD1FD0A4F28419497F9722A3DAAFE3B4186F6B6457E0 PUSH1 0x40 MLOAD PUSH1 0x40 MLOAD DUP1 SWAP2 SUB SWAP1 LOG3 POP POP JUMP JUMPDEST PUSH0 CALLER SWAP1 POP SWAP1 JUMP JUMPDEST PUSH0 DUP1 REVERT JUMPDEST PUSH0 PUSH20 0xFFFFFFFFFFFFFFFFFFFFFFFFFFFFFFFFFFFFFFFF DUP3 AND SWAP1 POP SWAP2 SWAP1 POP JUMP JUMPDEST PUSH0 PUSH2 0x82A DUP3 PUSH2 0x801 JUMP JUMPDEST SWAP1 POP SWAP2 SWAP1 POP JUMP JUMPDEST PUSH2 0x83A DUP2 PUSH2 0x820 JUMP JUMPDEST DUP2 EQ PUSH2 0x844 JUMPI PUSH0 DUP1 REVERT JUMPDEST POP JUMP JUMPDEST PUSH0 DUP2 CALLDATALOAD SWAP1 POP PUSH2 0x855 DUP2 PUSH2 0x831 JUMP JUMPDEST SWAP3 SWAP2 POP POP JUMP JUMPDEST PUSH0 DUP2 SWAP1 POP SWAP2 SWAP1 POP JUMP JUMPDEST PUSH2 0x86D DUP2 PUSH2 0x85B JUMP JUMPDEST DUP2 EQ PUSH2 0x877 JUMPI PUSH0 DUP1 REVERT JUMPDEST POP JUMP JUMPDEST PUSH0 DUP2 CALLDATALOAD SWAP1 POP PUSH2 0x888 DUP2 PUSH2 0x864 JUMP JUMPDEST SWAP3 SWAP2 POP POP JUMP JUMPDEST PUSH0 DUP1 PUSH0 PUSH1 0x60 DUP5 DUP7 SUB SLT ISZERO PUSH2 0x8A5 JUMPI PUSH2 0x8A4 PUSH2 0x7FD JUMP JUMPDEST JUMPDEST PUSH0 PUSH2 0x8B2 DUP7 DUP3 DUP8 ADD PUSH2 0x847 JUMP JUMPDEST SWAP4 POP POP PUSH1 0x20 PUSH2 0x8C3 DUP7 DUP3 DUP8 ADD PUSH2 0x87A JUMP JUMPDEST SWAP3 POP POP PUSH1 0x40 PUSH2 0x8D4 DUP7 DUP3 DUP8 ADD PUSH2 0x87A JUMP JUMPDEST SWAP2 POP POP SWAP3 POP SWAP3 POP SWAP3 JUMP JUMPDEST PUSH2 0x8E7 DUP2 PUSH2 0x85B JUMP JUMPDEST DUP3 MSTORE POP POP JUMP JUMPDEST PUSH0 PUSH1 0x20 DUP3 ADD SWAP1 POP PUSH2 0x900 PUSH0 DUP4 ADD DUP5 PUSH2 0x8DE JUMP JUMPDEST SWAP3 SWAP2 POP POP JUMP JUMPDEST PUSH2 0x90F DUP2 PUSH2 0x820 JUMP JUMPDEST DUP3 MSTORE POP POP JUMP JUMPDEST PUSH0 PUSH1 0x20 DUP3 ADD SWAP1 POP PUSH2 0x928 PUSH0 DUP4 ADD DUP5 PUSH2 0x906 JUMP JUMPDEST SWAP3 SWAP2 POP POP JUMP JUMPDEST PUSH0 PUSH1 0x20 DUP3 DUP5 SUB SLT ISZERO PUSH2 0x943 JUMPI PUSH2 0x942 PUSH2 0x7FD JUMP JUMPDEST JUMPDEST PUSH0 PUSH2 0x950 DUP5 DUP3 DUP6 ADD PUSH2 0x87A JUMP JUMPDEST SWAP2 POP POP SWAP3 SWAP2 POP POP JUMP JUMPDEST PUSH0 DUP2 ISZERO ISZERO SWAP1 POP SWAP2 SWAP1 POP JUMP JUMPDEST PUSH2 0x96D DUP2 PUSH2 0x959 JUMP JUMPDEST DUP3 MSTORE POP POP JUMP JUMPDEST PUSH0 PUSH1 0xA0 DUP3 ADD SWAP1 POP PUSH2 0x986 PUSH0 DUP4 ADD DUP9 PUSH2 0x906 JUMP JUMPDEST PUSH2 0x993 PUSH1 0x20 DUP4 ADD DUP8 PUSH2 0x8DE JUMP JUMPDEST PUSH2 0x9A0 PUSH1 0x40 DUP4 ADD DUP7 PUSH2 0x8DE JUMP JUMPDEST PUSH2 0x9AD PUSH1 0x60 DUP4 ADD DUP6 PUSH2 0x906 JUMP JUMPDEST PUSH2 0x9BA PUSH1 0x80 DUP4 ADD DUP5 PUSH2 0x964 JUMP JUMPDEST SWAP7 SWAP6 POP POP POP POP POP POP JUMP JUMPDEST PUSH0 PUSH1 0x20 DUP3 DUP5 SUB SLT ISZERO PUSH2 0x9D9 JUMPI PUSH2 0x9D8 PUSH2 0x7FD JUMP JUMPDEST JUMPDEST PUSH0 PUSH2 0x9E6 DUP5 DUP3 DUP6 ADD PUSH2 0x847 JUMP JUMPDEST SWAP2 POP POP SWAP3 SWAP2 POP POP JUMP JUMPDEST PUSH0 DUP3 DUP3 MSTORE PUSH1 0x20 DUP3 ADD SWAP1 POP SWAP3 SWAP2 POP POP JUMP JUMPDEST PUSH32 0x496E76616C696420746F6B656E20616464726573730000000000000000000000 PUSH0 DUP3 ADD MSTORE POP JUMP JUMPDEST PUSH0 PUSH2 0xA33 PUSH1 0x15 DUP4 PUSH2 0x9EF JUMP JUMPDEST SWAP2 POP PUSH2 0xA3E DUP3 PUSH2 0x9FF JUMP JUMPDEST PUSH1 0x20 DUP3 ADD SWAP1 POP SWAP2 SWAP1 POP JUMP JUMPDEST PUSH0 PUSH1 0x20 DUP3 ADD SWAP1 POP DUP2 DUP2 SUB PUSH0 DUP4 ADD MSTORE PUSH2 0xA60 DUP2 PUSH2 0xA27 JUMP JUMPDEST SWAP1 POP SWAP2 SWAP1 POP JUMP JUMPDEST PUSH32 0x416D6F756E74206D7573742062652067726561746572207468616E2030000000 PUSH0 DUP3 ADD MSTORE POP JUMP JUMPDEST PUSH0 PUSH2 0xA9B PUSH1 0x1D DUP4 PUSH2 0x9EF JUMP JUMPDEST SWAP2 POP PUSH2 0xAA6 DUP3 PUSH2 0xA67 JUMP JUMPDEST PUSH1 0x20 DUP3 ADD SWAP1 POP SWAP2 SWAP1 POP JUMP JUMPDEST PUSH0 PUSH1 0x20 DUP3 ADD SWAP1 POP DUP2 DUP2 SUB PUSH0 DUP4 ADD MSTORE PUSH2 0xAC8 DUP2 PUSH2 0xA8F JUMP JUMPDEST SWAP1 POP SWAP2 SWAP1 POP JUMP JUMPDEST PUSH32 0x5072696365206D7573742062652067726561746572207468616E203000000000 PUSH0 DUP3 ADD MSTORE POP JUMP JUMPDEST PUSH0 PUSH2 0xB03 PUSH1 0x1C DUP4 PUSH2 0x9EF JUMP JUMPDEST SWAP2 POP PUSH2 0xB0E DUP3 PUSH2 0xACF JUMP JUMPDEST PUSH1 0x20 DUP3 ADD SWAP1 POP SWAP2 SWAP1 POP JUMP JUMPDEST PUSH0 PUSH1 0x20 DUP3 ADD SWAP1 POP DUP2 DUP2 SUB PUSH0 DUP4 ADD MSTORE PUSH2 0xB30 DUP2 PUSH2 0xAF7 JUMP JUMPDEST SWAP1 POP SWAP2 SWAP1 POP JUMP JUMPDEST PUSH0 PUSH1 0x60 DUP3 ADD SWAP1 POP PUSH2 0xB4A PUSH0 DUP4 ADD DUP7 PUSH2 0x906 JUMP JUMPDEST PUSH2 0xB57 PUSH1 0x20 DUP4 ADD DUP6 PUSH2 0x906 JUMP JUMPDEST PUSH2 0xB64 PUSH1 0x40 DUP4 ADD DUP5 PUSH2 0x8DE JUMP JUMPDEST SWAP5 SWAP4 POP POP POP POP JUMP JUMPDEST PUSH2 0xB75 DUP2 PUSH2 0x959 JUMP JUMPDEST DUP2 EQ PUSH2 0xB7F JUMPI PUSH0 DUP1 REVERT JUMPDEST POP JUMP JUMPDEST PUSH0 DUP2 MLOAD SWAP1 POP PUSH2 0xB90 DUP2 PUSH2 0xB6C JUMP JUMPDEST SWAP3 SWAP2 POP POP JUMP JUMPDEST PUSH0 PUSH1 0x20 DUP3 DUP5 SUB SLT ISZERO PUSH2 0xBAB JUMPI PUSH2 0xBAA PUSH2 0x7FD JUMP JUMPDEST JUMPDEST PUSH0 PUSH2 0xBB8 DUP5 DUP3 DUP6 ADD PUSH2 0xB82 JUMP JUMPDEST SWAP2 POP POP SWAP3 SWAP2 POP POP JUMP JUMPDEST PUSH32 0x546F6B656E207472616E73666572206661696C65640000000000000000000000 PUSH0 DUP3 ADD MSTORE POP JUMP JUMPDEST PUSH0 PUSH2 0xBF5 PUSH1 0x15 DUP4 PUSH2 0x9EF JUMP JUMPDEST SWAP2 POP PUSH2 0xC00 DUP3 PUSH2 0xBC1 JUMP JUMPDEST PUSH1 0x20 DUP3 ADD SWAP1 POP SWAP2 SWAP1 POP JUMP JUMPDEST PUSH0 PUSH1 0x20 DUP3 ADD SWAP1 POP DUP2 DUP2 SUB PUSH0 DUP4 ADD MSTORE PUSH2 0xC22 DUP2 PUSH2 0xBE9 JUMP JUMPDEST SWAP1 POP SWAP2 SWAP1 POP JUMP JUMPDEST PUSH32 0x4E487B7100000000000000000000000000000000000000000000000000000000 PUSH0 MSTORE PUSH1 0x11 PUSH1 0x4 MSTORE PUSH1 0x24 PUSH0 REVERT JUMPDEST PUSH0 PUSH2 0xC60 DUP3 PUSH2 0x85B JUMP JUMPDEST SWAP2 POP PUSH32 0xFFFFFFFFFFFFFFFFFFFFFFFFFFFFFFFFFFFFFFFFFFFFFFFFFFFFFFFFFFFFFFFF DUP3 SUB PUSH2 0xC92 JUMPI PUSH2 0xC91 PUSH2 0xC29 JUMP JUMPDEST JUMPDEST PUSH1 0x1 DUP3 ADD SWAP1 POP SWAP2 SWAP1 POP JUMP JUMPDEST PUSH0 PUSH1 0x40 DUP3 ADD SWAP1 POP PUSH2 0xCB0 PUSH0 DUP4 ADD DUP6 PUSH2 0x8DE JUMP JUMPDEST PUSH2 0xCBD PUSH1 0x20 DUP4 ADD DUP5 PUSH2 0x8DE JUMP JUMPDEST SWAP4 SWAP3 POP POP POP JUMP JUMPDEST PUSH32 0x5265656E7472616E637947756172643A207265656E7472616E742063616C6C00 PUSH0 DUP3 ADD MSTORE POP JUMP JUMPDEST PUSH0 PUSH2 0xCF8 PUSH1 0x1F DUP4 PUSH2 0x9EF JUMP JUMPDEST SWAP2 POP PUSH2 0xD03 DUP3 PUSH2 0xCC4 JUMP JUMPDEST PUSH1 0x20 DUP3 ADD SWAP1 POP SWAP2 SWAP1 POP JUMP JUMPDEST PUSH0 PUSH1 0x20 DUP3 ADD SWAP1 POP DUP2 DUP2 SUB PUSH0 DUP4 ADD MSTORE PUSH2 0xD25 DUP2 PUSH2 0xCEC JUMP JUMPDEST SWAP1 POP SWAP2 SWAP1 POP JUMP INVALID LOG2 PUSH5 0x6970667358 0x22 SLT KECCAK256 MULMOD DUP7 0xD7 DUP10 MUL COINBASE 0xD9 0xAC CALLCODE PUSH2 0x7248 SWAP3 0xA9 0x2E CREATE2 MSIZE 0xCB PUSH30 0x3D83993C66352160BA9C0D7DE464736F6C634300081A0033000000000000 "
		},
		"gasEstimates": {
			"creation": {
				"codeDepositCost": "685200",
				"executionCost": "infinite",
				"totalCost": "infinite"
			},
			"external": {
				"ListToken(address,uint256,uint256)": "infinite",
				"feeCollector()": "2530",
				"feePercent()": "2492",
				"listings(uint256)": "infinite",
				"nextListingsId()": "2448",
				"owner()": "2515",
				"renounceOwnership()": "infinite",
				"transferOwnership(address)": "infinite"
			}
		},
		"methodIdentifiers": {
			"ListToken(address,uint256,uint256)": "1f6182c4",
			"feeCollector()": "c415b95c",
			"feePercent()": "7fd6f15c",
			"listings(uint256)": "de74e57b",
			"nextListingsId()": "69b3a705",
			"owner()": "8da5cb5b",
			"renounceOwnership()": "715018a6",
			"transferOwnership(address)": "f2fde38b"
		}
	},
	"abi": [
		{
			"inputs": [
				{
					"internalType": "uint256",
					"name": "_feePercent",
					"type": "uint256"
				},
				{
					"internalType": "address",
					"name": "_feeCollector",
					"type": "address"
				},
				{
					"internalType": "address",
					"name": "_initialOwner",
					"type": "address"
				}
			],
			"stateMutability": "nonpayable",
			"type": "constructor"
		},
		{
			"inputs": [
				{
					"internalType": "address",
					"name": "owner",
					"type": "address"
				}
			],
			"name": "OwnableInvalidOwner",
			"type": "error"
		},
		{
			"inputs": [
				{
					"internalType": "address",
					"name": "account",
					"type": "address"
				}
			],
			"name": "OwnableUnauthorizedAccount",
			"type": "error"
		},
		{
			"anonymous": false,
			"inputs": [
				{
					"indexed": true,
					"internalType": "address",
					"name": "previousOwner",
					"type": "address"
				},
				{
					"indexed": true,
					"internalType": "address",
					"name": "newOwner",
					"type": "address"
				}
			],
			"name": "OwnershipTransferred",
			"type": "event"
		},
		{
			"anonymous": false,
			"inputs": [
				{
					"indexed": true,
					"internalType": "address",
					"name": "seller",
					"type": "address"
				},
				{
					"indexed": true,
					"internalType": "address",
					"name": "tokenAddress",
					"type": "address"
				},
				{
					"indexed": true,
					"internalType": "uint256",
					"name": "listingId",
					"type": "uint256"
				},
				{
					"indexed": false,
					"internalType": "uint256",
					"name": "amount",
					"type": "uint256"
				},
				{
					"indexed": false,
					"internalType": "uint256",
					"name": "pricePerToken",
					"type": "uint256"
				}
			],
			"name": "TokenListed",
			"type": "event"
		},
		{
			"inputs": [
				{
					"internalType": "address",
					"name": "_tokenAddress",
					"type": "address"
				},
				{
					"internalType": "uint256",
					"name": "_amount",
					"type": "uint256"
				},
				{
					"internalType": "uint256",
					"name": "_pricePerToken",
					"type": "uint256"
				}
			],
			"name": "ListToken",
			"outputs": [],
			"stateMutability": "nonpayable",
			"type": "function"
		},
		{
			"inputs": [],
			"name": "feeCollector",
			"outputs": [
				{
					"internalType": "address",
					"name": "",
					"type": "address"
				}
			],
			"stateMutability": "view",
			"type": "function"
		},
		{
			"inputs": [],
			"name": "feePercent",
			"outputs": [
				{
					"internalType": "uint256",
					"name": "",
					"type": "uint256"
				}
			],
			"stateMutability": "view",
			"type": "function"
		},
		{
			"inputs": [
				{
					"internalType": "uint256",
					"name": "",
					"type": "uint256"
				}
			],
			"name": "listings",
			"outputs": [
				{
					"internalType": "address",
					"name": "seller",
					"type": "address"
				},
				{
					"internalType": "uint256",
					"name": "pricePerToken",
					"type": "uint256"
				},
				{
					"internalType": "uint256",
					"name": "amount",
					"type": "uint256"
				},
				{
					"internalType": "address",
					"name": "tokenAddress",
					"type": "address"
				},
				{
					"internalType": "bool",
					"name": "active",
					"type": "bool"
				}
			],
			"stateMutability": "view",
			"type": "function"
		},
		{
			"inputs": [],
			"name": "nextListingsId",
			"outputs": [
				{
					"internalType": "uint256",
					"name": "",
					"type": "uint256"
				}
			],
			"stateMutability": "view",
			"type": "function"
		},
		{
			"inputs": [],
			"name": "owner",
			"outputs": [
				{
					"internalType": "address",
					"name": "",
					"type": "address"
				}
			],
			"stateMutability": "view",
			"type": "function"
		},
		{
			"inputs": [],
			"name": "renounceOwnership",
			"outputs": [],
			"stateMutability": "nonpayable",
			"type": "function"
		},
		{
			"inputs": [
				{
					"internalType": "address",
					"name": "newOwner",
					"type": "address"
				}
			],
			"name": "transferOwnership",
			"outputs": [],
			"stateMutability": "nonpayable",
			"type": "function"
		}
	]
}