{
	"data": {
		"bytecode": {
			"linkReferences": {},
			"object": "608060405260018055600280553480156016575f80fd5b506001545f8190555061078a8061002c5f395ff3fe60806040526004361061003e575f3560e01c80636d02423f14610042578063710957cc1461007e5780637fd4261714610088578063d0e30db01461009e575b5f80fd5b34801561004d575f80fd5b50610068600480360381019061006391906104a7565b6100a8565b60405161007591906104ea565b60405180910390f35b6100866100bd565b005b348015610093575f80fd5b5061009c61022e565b005b6100a66103b2565b005b6003602052805f5260405f205f915090505481565b5f60035f3373ffffffffffffffffffffffffffffffffffffffff1673ffffffffffffffffffffffffffffffffffffffff1681526020019081526020015f205490505f8111610140576040517f08c379a00000000000000000000000000000000000000000000000000000000081526004016101379061055d565b60405180910390fd5b5f3373ffffffffffffffffffffffffffffffffffffffff1682604051610165906105a8565b5f6040518083038185875af1925050503d805f811461019f576040519150601f19603f3d011682016040523d82523d5f602084013e6101a4565b606091505b50509050806101e8576040517f08c379a00000000000000000000000000000000000000000000000000000000081526004016101df90610606565b60405180910390fd5b5f60035f3373ffffffffffffffffffffffffffffffffffffffff1673ffffffffffffffffffffffffffffffffffffffff1681526020019081526020015f20819055505050565b6002545f5403610273576040517f08c379a000000000000000000000000000000000000000000000000000000000815260040161026a9061066e565b60405180910390fd5b6002545f819055505f60035f3373ffffffffffffffffffffffffffffffffffffffff1673ffffffffffffffffffffffffffffffffffffffff1681526020019081526020015f205490505f81116102fe576040517f08c379a00000000000000000000000000000000000000000000000000000000081526004016102f59061055d565b60405180910390fd5b5f3373ffffffffffffffffffffffffffffffffffffffff1682604051610323906105a8565b5f6040518083038185875af1925050503d805f811461035d576040519150601f19603f3d011682016040523d82523d5f602084013e610362565b606091505b50509050806103a6576040517f08c379a000000000000000000000000000000000000000000000000000000000815260040161039d90610606565b60405180910390fd5b50506001545f81905550565b5f34116103f4576040517f08c379a00000000000000000000000000000000000000000000000000000000081526004016103eb906106d6565b60405180910390fd5b3460035f3373ffffffffffffffffffffffffffffffffffffffff1673ffffffffffffffffffffffffffffffffffffffff1681526020019081526020015f205f8282546104409190610721565b92505081905550565b5f80fd5b5f73ffffffffffffffffffffffffffffffffffffffff82169050919050565b5f6104768261044d565b9050919050565b6104868161046c565b8114610490575f80fd5b50565b5f813590506104a18161047d565b92915050565b5f602082840312156104bc576104bb610449565b5b5f6104c984828501610493565b91505092915050565b5f819050919050565b6104e4816104d2565b82525050565b5f6020820190506104fd5f8301846104db565b92915050565b5f82825260208201905092915050565b7f4e6f206d6f6e657920746f2077697468647261770000000000000000000000005f82015250565b5f610547601483610503565b915061055282610513565b602082019050919050565b5f6020820190508181035f8301526105748161053b565b9050919050565b5f81905092915050565b50565b5f6105935f8361057b565b915061059e82610585565b5f82019050919050565b5f6105b282610588565b9150819050919050565b7f455448205472616e73666572206661696c6564000000000000000000000000005f82015250565b5f6105f0601383610503565b91506105fb826105bc565b602082019050919050565b5f6020820190508181035f83015261061d816105e4565b9050919050565b7f456e7472616e63652072657374696374656400000000000000000000000000005f82015250565b5f610658601283610503565b915061066382610624565b602082019050919050565b5f6020820190508181035f8301526106858161064c565b9050919050565b7f4465706f7369742068617320746f206265206d6f7265207468616e20300000005f82015250565b5f6106c0601d83610503565b91506106cb8261068c565b602082019050919050565b5f6020820190508181035f8301526106ed816106b4565b9050919050565b7f4e487b71000000000000000000000000000000000000000000000000000000005f52601160045260245ffd5b5f61072b826104d2565b9150610736836104d2565b925082820190508082111561074e5761074d6106f4565b5b9291505056fea2646970667358221220c5a3259e54138d310032874fc65c99321c3d8dc21aa9e7d3b22ba315c1a92adf64736f6c634300081a0033",
			"opcodes": "PUSH1 0x80 PUSH1 0x40 MSTORE PUSH1 0x1 DUP1 SSTORE PUSH1 0x2 DUP1 SSTORE CALLVALUE DUP1 ISZERO PUSH1 0x16 JUMPI PUSH0 DUP1 REVERT JUMPDEST POP PUSH1 0x1 SLOAD PUSH0 DUP2 SWAP1 SSTORE POP PUSH2 0x78A DUP1 PUSH2 0x2C PUSH0 CODECOPY PUSH0 RETURN INVALID PUSH1 0x80 PUSH1 0x40 MSTORE PUSH1 0x4 CALLDATASIZE LT PUSH2 0x3E JUMPI PUSH0 CALLDATALOAD PUSH1 0xE0 SHR DUP1 PUSH4 0x6D02423F EQ PUSH2 0x42 JUMPI DUP1 PUSH4 0x710957CC EQ PUSH2 0x7E JUMPI DUP1 PUSH4 0x7FD42617 EQ PUSH2 0x88 JUMPI DUP1 PUSH4 0xD0E30DB0 EQ PUSH2 0x9E JUMPI JUMPDEST PUSH0 DUP1 REVERT JUMPDEST CALLVALUE DUP1 ISZERO PUSH2 0x4D JUMPI PUSH0 DUP1 REVERT JUMPDEST POP PUSH2 0x68 PUSH1 0x4 DUP1 CALLDATASIZE SUB DUP2 ADD SWAP1 PUSH2 0x63 SWAP2 SWAP1 PUSH2 0x4A7 JUMP JUMPDEST PUSH2 0xA8 JUMP JUMPDEST PUSH1 0x40 MLOAD PUSH2 0x75 SWAP2 SWAP1 PUSH2 0x4EA JUMP JUMPDEST PUSH1 0x40 MLOAD DUP1 SWAP2 SUB SWAP1 RETURN JUMPDEST PUSH2 0x86 PUSH2 0xBD JUMP JUMPDEST STOP JUMPDEST CALLVALUE DUP1 ISZERO PUSH2 0x93 JUMPI PUSH0 DUP1 REVERT JUMPDEST POP PUSH2 0x9C PUSH2 0x22E JUMP JUMPDEST STOP JUMPDEST PUSH2 0xA6 PUSH2 0x3B2 JUMP JUMPDEST STOP JUMPDEST PUSH1 0x3 PUSH1 0x20 MSTORE DUP1 PUSH0 MSTORE PUSH1 0x40 PUSH0 KECCAK256 PUSH0 SWAP2 POP SWAP1 POP SLOAD DUP2 JUMP JUMPDEST PUSH0 PUSH1 0x3 PUSH0 CALLER PUSH20 0xFFFFFFFFFFFFFFFFFFFFFFFFFFFFFFFFFFFFFFFF AND PUSH20 0xFFFFFFFFFFFFFFFFFFFFFFFFFFFFFFFFFFFFFFFF AND DUP2 MSTORE PUSH1 0x20 ADD SWAP1 DUP2 MSTORE PUSH1 0x20 ADD PUSH0 KECCAK256 SLOAD SWAP1 POP PUSH0 DUP2 GT PUSH2 0x140 JUMPI PUSH1 0x40 MLOAD PUSH32 0x8C379A000000000000000000000000000000000000000000000000000000000 DUP2 MSTORE PUSH1 0x4 ADD PUSH2 0x137 SWAP1 PUSH2 0x55D JUMP JUMPDEST PUSH1 0x40 MLOAD DUP1 SWAP2 SUB SWAP1 REVERT JUMPDEST PUSH0 CALLER PUSH20 0xFFFFFFFFFFFFFFFFFFFFFFFFFFFFFFFFFFFFFFFF AND DUP3 PUSH1 0x40 MLOAD PUSH2 0x165 SWAP1 PUSH2 0x5A8 JUMP JUMPDEST PUSH0 PUSH1 0x40 MLOAD DUP1 DUP4 SUB DUP2 DUP6 DUP8 GAS CALL SWAP3 POP POP POP RETURNDATASIZE DUP1 PUSH0 DUP2 EQ PUSH2 0x19F JUMPI PUSH1 0x40 MLOAD SWAP2 POP PUSH1 0x1F NOT PUSH1 0x3F RETURNDATASIZE ADD AND DUP3 ADD PUSH1 0x40 MSTORE RETURNDATASIZE DUP3 MSTORE RETURNDATASIZE PUSH0 PUSH1 0x20 DUP5 ADD RETURNDATACOPY PUSH2 0x1A4 JUMP JUMPDEST PUSH1 0x60 SWAP2 POP JUMPDEST POP POP SWAP1 POP DUP1 PUSH2 0x1E8 JUMPI PUSH1 0x40 MLOAD PUSH32 0x8C379A000000000000000000000000000000000000000000000000000000000 DUP2 MSTORE PUSH1 0x4 ADD PUSH2 0x1DF SWAP1 PUSH2 0x606 JUMP JUMPDEST PUSH1 0x40 MLOAD DUP1 SWAP2 SUB SWAP1 REVERT JUMPDEST PUSH0 PUSH1 0x3 PUSH0 CALLER PUSH20 0xFFFFFFFFFFFFFFFFFFFFFFFFFFFFFFFFFFFFFFFF AND PUSH20 0xFFFFFFFFFFFFFFFFFFFFFFFFFFFFFFFFFFFFFFFF AND DUP2 MSTORE PUSH1 0x20 ADD SWAP1 DUP2 MSTORE PUSH1 0x20 ADD PUSH0 KECCAK256 DUP2 SWAP1 SSTORE POP POP POP JUMP JUMPDEST PUSH1 0x2 SLOAD PUSH0 SLOAD SUB PUSH2 0x273 JUMPI PUSH1 0x40 MLOAD PUSH32 0x8C379A000000000000000000000000000000000000000000000000000000000 DUP2 MSTORE PUSH1 0x4 ADD PUSH2 0x26A SWAP1 PUSH2 0x66E JUMP JUMPDEST PUSH1 0x40 MLOAD DUP1 SWAP2 SUB SWAP1 REVERT JUMPDEST PUSH1 0x2 SLOAD PUSH0 DUP2 SWAP1 SSTORE POP PUSH0 PUSH1 0x3 PUSH0 CALLER PUSH20 0xFFFFFFFFFFFFFFFFFFFFFFFFFFFFFFFFFFFFFFFF AND PUSH20 0xFFFFFFFFFFFFFFFFFFFFFFFFFFFFFFFFFFFFFFFF AND DUP2 MSTORE PUSH1 0x20 ADD SWAP1 DUP2 MSTORE PUSH1 0x20 ADD PUSH0 KECCAK256 SLOAD SWAP1 POP PUSH0 DUP2 GT PUSH2 0x2FE JUMPI PUSH1 0x40 MLOAD PUSH32 0x8C379A000000000000000000000000000000000000000000000000000000000 DUP2 MSTORE PUSH1 0x4 ADD PUSH2 0x2F5 SWAP1 PUSH2 0x55D JUMP JUMPDEST PUSH1 0x40 MLOAD DUP1 SWAP2 SUB SWAP1 REVERT JUMPDEST PUSH0 CALLER PUSH20 0xFFFFFFFFFFFFFFFFFFFFFFFFFFFFFFFFFFFFFFFF AND DUP3 PUSH1 0x40 MLOAD PUSH2 0x323 SWAP1 PUSH2 0x5A8 JUMP JUMPDEST PUSH0 PUSH1 0x40 MLOAD DUP1 DUP4 SUB DUP2 DUP6 DUP8 GAS CALL SWAP3 POP POP POP RETURNDATASIZE DUP1 PUSH0 DUP2 EQ PUSH2 0x35D JUMPI PUSH1 0x40 MLOAD SWAP2 POP PUSH1 0x1F NOT PUSH1 0x3F RETURNDATASIZE ADD AND DUP3 ADD PUSH1 0x40 MSTORE RETURNDATASIZE DUP3 MSTORE RETURNDATASIZE PUSH0 PUSH1 0x20 DUP5 ADD RETURNDATACOPY PUSH2 0x362 JUMP JUMPDEST PUSH1 0x60 SWAP2 POP JUMPDEST POP POP SWAP1 POP DUP1 PUSH2 0x3A6 JUMPI PUSH1 0x40 MLOAD PUSH32 0x8C379A000000000000000000000000000000000000000000000000000000000 DUP2 MSTORE PUSH1 0x4 ADD PUSH2 0x39D SWAP1 PUSH2 0x606 JUMP JUMPDEST PUSH1 0x40 MLOAD DUP1 SWAP2 SUB SWAP1 REVERT JUMPDEST POP POP PUSH1 0x1 SLOAD PUSH0 DUP2 SWAP1 SSTORE POP JUMP JUMPDEST PUSH0 CALLVALUE GT PUSH2 0x3F4 JUMPI PUSH1 0x40 MLOAD PUSH32 0x8C379A000000000000000000000000000000000000000000000000000000000 DUP2 MSTORE PUSH1 0x4 ADD PUSH2 0x3EB SWAP1 PUSH2 0x6D6 JUMP JUMPDEST PUSH1 0x40 MLOAD DUP1 SWAP2 SUB SWAP1 REVERT JUMPDEST CALLVALUE PUSH1 0x3 PUSH0 CALLER PUSH20 0xFFFFFFFFFFFFFFFFFFFFFFFFFFFFFFFFFFFFFFFF AND PUSH20 0xFFFFFFFFFFFFFFFFFFFFFFFFFFFFFFFFFFFFFFFF AND DUP2 MSTORE PUSH1 0x20 ADD SWAP1 DUP2 MSTORE PUSH1 0x20 ADD PUSH0 KECCAK256 PUSH0 DUP3 DUP3 SLOAD PUSH2 0x440 SWAP2 SWAP1 PUSH2 0x721 JUMP JUMPDEST SWAP3 POP POP DUP2 SWAP1 SSTORE POP JUMP JUMPDEST PUSH0 DUP1 REVERT JUMPDEST PUSH0 PUSH20 0xFFFFFFFFFFFFFFFFFFFFFFFFFFFFFFFFFFFFFFFF DUP3 AND SWAP1 POP SWAP2 SWAP1 POP JUMP JUMPDEST PUSH0 PUSH2 0x476 DUP3 PUSH2 0x44D JUMP JUMPDEST SWAP1 POP SWAP2 SWAP1 POP JUMP JUMPDEST PUSH2 0x486 DUP2 PUSH2 0x46C JUMP JUMPDEST DUP2 EQ PUSH2 0x490 JUMPI PUSH0 DUP1 REVERT JUMPDEST POP JUMP JUMPDEST PUSH0 DUP2 CALLDATALOAD SWAP1 POP PUSH2 0x4A1 DUP2 PUSH2 0x47D JUMP JUMPDEST SWAP3 SWAP2 POP POP JUMP JUMPDEST PUSH0 PUSH1 0x20 DUP3 DUP5 SUB SLT ISZERO PUSH2 0x4BC JUMPI PUSH2 0x4BB PUSH2 0x449 JUMP JUMPDEST JUMPDEST PUSH0 PUSH2 0x4C9 DUP5 DUP3 DUP6 ADD PUSH2 0x493 JUMP JUMPDEST SWAP2 POP POP SWAP3 SWAP2 POP POP JUMP JUMPDEST PUSH0 DUP2 SWAP1 POP SWAP2 SWAP1 POP JUMP JUMPDEST PUSH2 0x4E4 DUP2 PUSH2 0x4D2 JUMP JUMPDEST DUP3 MSTORE POP POP JUMP JUMPDEST PUSH0 PUSH1 0x20 DUP3 ADD SWAP1 POP PUSH2 0x4FD PUSH0 DUP4 ADD DUP5 PUSH2 0x4DB JUMP JUMPDEST SWAP3 SWAP2 POP POP JUMP JUMPDEST PUSH0 DUP3 DUP3 MSTORE PUSH1 0x20 DUP3 ADD SWAP1 POP SWAP3 SWAP2 POP POP JUMP JUMPDEST PUSH32 0x4E6F206D6F6E657920746F207769746864726177000000000000000000000000 PUSH0 DUP3 ADD MSTORE POP JUMP JUMPDEST PUSH0 PUSH2 0x547 PUSH1 0x14 DUP4 PUSH2 0x503 JUMP JUMPDEST SWAP2 POP PUSH2 0x552 DUP3 PUSH2 0x513 JUMP JUMPDEST PUSH1 0x20 DUP3 ADD SWAP1 POP SWAP2 SWAP1 POP JUMP JUMPDEST PUSH0 PUSH1 0x20 DUP3 ADD SWAP1 POP DUP2 DUP2 SUB PUSH0 DUP4 ADD MSTORE PUSH2 0x574 DUP2 PUSH2 0x53B JUMP JUMPDEST SWAP1 POP SWAP2 SWAP1 POP JUMP JUMPDEST PUSH0 DUP2 SWAP1 POP SWAP3 SWAP2 POP POP JUMP JUMPDEST POP JUMP JUMPDEST PUSH0 PUSH2 0x593 PUSH0 DUP4 PUSH2 0x57B JUMP JUMPDEST SWAP2 POP PUSH2 0x59E DUP3 PUSH2 0x585 JUMP JUMPDEST PUSH0 DUP3 ADD SWAP1 POP SWAP2 SWAP1 POP JUMP JUMPDEST PUSH0 PUSH2 0x5B2 DUP3 PUSH2 0x588 JUMP JUMPDEST SWAP2 POP DUP2 SWAP1 POP SWAP2 SWAP1 POP JUMP JUMPDEST PUSH32 0x455448205472616E73666572206661696C656400000000000000000000000000 PUSH0 DUP3 ADD MSTORE POP JUMP JUMPDEST PUSH0 PUSH2 0x5F0 PUSH1 0x13 DUP4 PUSH2 0x503 JUMP JUMPDEST SWAP2 POP PUSH2 0x5FB DUP3 PUSH2 0x5BC JUMP JUMPDEST PUSH1 0x20 DUP3 ADD SWAP1 POP SWAP2 SWAP1 POP JUMP JUMPDEST PUSH0 PUSH1 0x20 DUP3 ADD SWAP1 POP DUP2 DUP2 SUB PUSH0 DUP4 ADD MSTORE PUSH2 0x61D DUP2 PUSH2 0x5E4 JUMP JUMPDEST SWAP1 POP SWAP2 SWAP1 POP JUMP JUMPDEST PUSH32 0x456E7472616E6365207265737469637465640000000000000000000000000000 PUSH0 DUP3 ADD MSTORE POP JUMP JUMPDEST PUSH0 PUSH2 0x658 PUSH1 0x12 DUP4 PUSH2 0x503 JUMP JUMPDEST SWAP2 POP PUSH2 0x663 DUP3 PUSH2 0x624 JUMP JUMPDEST PUSH1 0x20 DUP3 ADD SWAP1 POP SWAP2 SWAP1 POP JUMP JUMPDEST PUSH0 PUSH1 0x20 DUP3 ADD SWAP1 POP DUP2 DUP2 SUB PUSH0 DUP4 ADD MSTORE PUSH2 0x685 DUP2 PUSH2 0x64C JUMP JUMPDEST SWAP1 POP SWAP2 SWAP1 POP JUMP JUMPDEST PUSH32 0x4465706F7369742068617320746F206265206D6F7265207468616E2030000000 PUSH0 DUP3 ADD MSTORE POP JUMP JUMPDEST PUSH0 PUSH2 0x6C0 PUSH1 0x1D DUP4 PUSH2 0x503 JUMP JUMPDEST SWAP2 POP PUSH2 0x6CB DUP3 PUSH2 0x68C JUMP JUMPDEST PUSH1 0x20 DUP3 ADD SWAP1 POP SWAP2 SWAP1 POP JUMP JUMPDEST PUSH0 PUSH1 0x20 DUP3 ADD SWAP1 POP DUP2 DUP2 SUB PUSH0 DUP4 ADD MSTORE PUSH2 0x6ED DUP2 PUSH2 0x6B4 JUMP JUMPDEST SWAP1 POP SWAP2 SWAP1 POP JUMP JUMPDEST PUSH32 0x4E487B7100000000000000000000000000000000000000000000000000000000 PUSH0 MSTORE PUSH1 0x11 PUSH1 0x4 MSTORE PUSH1 0x24 PUSH0 REVERT JUMPDEST PUSH0 PUSH2 0x72B DUP3 PUSH2 0x4D2 JUMP JUMPDEST SWAP2 POP PUSH2 0x736 DUP4 PUSH2 0x4D2 JUMP JUMPDEST SWAP3 POP DUP3 DUP3 ADD SWAP1 POP DUP1 DUP3 GT ISZERO PUSH2 0x74E JUMPI PUSH2 0x74D PUSH2 0x6F4 JUMP JUMPDEST JUMPDEST SWAP3 SWAP2 POP POP JUMP INVALID LOG2 PUSH5 0x6970667358 0x22 SLT KECCAK256 0xC5 LOG3 0x25 SWAP15 SLOAD SGT DUP14 BALANCE STOP ORIGIN DUP8 0x4F 0xC6 TLOAD SWAP10 ORIGIN SHR RETURNDATASIZE DUP14 0xC2 BYTE 0xA9 0xE7 0xD3 0xB2 0x2B LOG3 ISZERO 0xC1 0xA9 0x2A 0xDF PUSH5 0x736F6C6343 STOP ADDMOD BYTE STOP CALLER "
		},
		"gasEstimates": {
			"creation": {
				"codeDepositCost": "386000",
				"executionCost": "68847",
				"totalCost": "454847"
			},
			"external": {
				"deposit()": "infinite",
				"goldBalance(address)": "2780",
				"safeWithdraw()": "infinite",
				"vulnerableWithdraw()": "infinite"
			}
		},
		"methodIdentifiers": {
			"deposit()": "d0e30db0",
			"goldBalance(address)": "6d02423f",
			"safeWithdraw()": "7fd42617",
			"vulnerableWithdraw()": "710957cc"
		}
	},
	"abi": [
		{
			"inputs": [],
			"stateMutability": "nonpayable",
			"type": "constructor"
		},
		{
			"inputs": [],
			"name": "deposit",
			"outputs": [],
			"stateMutability": "payable",
			"type": "function"
		},
		{
			"inputs": [
				{
					"internalType": "address",
					"name": "",
					"type": "address"
				}
			],
			"name": "goldBalance",
			"outputs": [
				{
					"internalType": "uint256",
					"name": "",
					"type": "uint256"
				}
			],
			"stateMutability": "view",
			"type": "function"
		},
		{
			"inputs": [],
			"name": "safeWithdraw",
			"outputs": [],
			"stateMutability": "nonpayable",
			"type": "function"
		},
		{
			"inputs": [],
			"name": "vulnerableWithdraw",
			"outputs": [],
			"stateMutability": "payable",
			"type": "function"
		}
	]
}